{
  "contractName": "MilkChain",
  "abi": [
    {
      "inputs": [],
      "stateMutability": "nonpayable",
      "type": "constructor"
    },
    {
      "anonymous": false,
      "inputs": [
        {
          "indexed": false,
          "internalType": "uint256",
          "name": "newLotNumber",
          "type": "uint256"
        }
      ],
      "name": "ProcessReset",
      "type": "event"
    },
    {
      "anonymous": false,
      "inputs": [
        {
          "indexed": true,
          "internalType": "address",
          "name": "account",
          "type": "address"
        },
        {
          "indexed": false,
          "internalType": "enum MilkChain.Role",
          "name": "role",
          "type": "uint8"
        }
      ],
      "name": "RoleAssigned",
      "type": "event"
    },
    {
      "anonymous": false,
      "inputs": [
        {
          "indexed": false,
          "internalType": "uint256",
          "name": "lotNumber",
          "type": "uint256"
        },
        {
          "indexed": false,
          "internalType": "uint256",
          "name": "stepIndex",
          "type": "uint256"
        },
        {
          "indexed": false,
          "internalType": "string",
          "name": "name",
          "type": "string"
        },
        {
          "indexed": false,
          "internalType": "uint256",
          "name": "startTime",
          "type": "uint256"
        },
        {
          "indexed": false,
          "internalType": "uint256",
          "name": "endTime",
          "type": "uint256"
        }
      ],
      "name": "StepCompleted",
      "type": "event"
    },
    {
      "inputs": [],
      "name": "currentLotNumber",
      "outputs": [
        {
          "internalType": "uint256",
          "name": "",
          "type": "uint256"
        }
      ],
      "stateMutability": "view",
      "type": "function",
      "constant": true
    },
    {
      "inputs": [],
      "name": "owner",
      "outputs": [
        {
          "internalType": "address",
          "name": "",
          "type": "address"
        }
      ],
      "stateMutability": "view",
      "type": "function",
      "constant": true
    },
    {
      "inputs": [
        {
          "internalType": "uint256",
          "name": "",
          "type": "uint256"
        }
      ],
      "name": "processes",
      "outputs": [
        {
          "internalType": "uint256",
          "name": "currentStepIndex",
          "type": "uint256"
        },
        {
          "internalType": "uint256",
          "name": "lotNumber",
          "type": "uint256"
        }
      ],
      "stateMutability": "view",
      "type": "function",
      "constant": true
    },
    {
      "inputs": [
        {
          "internalType": "address",
          "name": "",
          "type": "address"
        }
      ],
      "name": "roles",
      "outputs": [
        {
          "internalType": "enum MilkChain.Role",
          "name": "",
          "type": "uint8"
        }
      ],
      "stateMutability": "view",
      "type": "function",
      "constant": true
    },
    {
      "inputs": [
        {
          "internalType": "address",
          "name": "account",
          "type": "address"
        }
      ],
      "name": "removeRole",
      "outputs": [],
      "stateMutability": "nonpayable",
      "type": "function"
    },
    {
      "inputs": [],
      "name": "countAdmins",
      "outputs": [
        {
          "internalType": "uint256",
          "name": "",
          "type": "uint256"
        }
      ],
      "stateMutability": "view",
      "type": "function",
      "constant": true
    },
    {
      "inputs": [
        {
          "internalType": "address",
          "name": "account",
          "type": "address"
        },
        {
          "internalType": "enum MilkChain.Role",
          "name": "role",
          "type": "uint8"
        }
      ],
      "name": "assignRole",
      "outputs": [],
      "stateMutability": "nonpayable",
      "type": "function"
    },
    {
      "inputs": [],
      "name": "createNewProcess",
      "outputs": [],
      "stateMutability": "nonpayable",
      "type": "function"
    },
    {
      "inputs": [
        {
          "internalType": "uint256",
          "name": "lotNumber",
          "type": "uint256"
        },
        {
          "internalType": "uint256",
          "name": "stepIndex",
          "type": "uint256"
        },
        {
          "internalType": "address",
          "name": "supervisor",
          "type": "address"
        }
      ],
      "name": "assignSupervisor",
      "outputs": [],
      "stateMutability": "nonpayable",
      "type": "function"
    },
    {
      "inputs": [
        {
          "internalType": "uint256",
          "name": "lotNumber",
          "type": "uint256"
        },
        {
          "internalType": "string",
          "name": "_location",
          "type": "string"
        }
      ],
      "name": "completeStep",
      "outputs": [],
      "stateMutability": "nonpayable",
      "type": "function"
    },
    {
      "inputs": [
        {
          "internalType": "uint256",
          "name": "lotNumber",
          "type": "uint256"
        }
      ],
      "name": "getStepsLength",
      "outputs": [
        {
          "internalType": "uint256",
          "name": "",
          "type": "uint256"
        }
      ],
      "stateMutability": "view",
      "type": "function",
      "constant": true
    },
    {
      "inputs": [
        {
          "internalType": "uint256",
          "name": "lotNumber",
          "type": "uint256"
        },
        {
          "internalType": "uint256",
          "name": "index",
          "type": "uint256"
        }
      ],
      "name": "getStep",
      "outputs": [
        {
          "internalType": "string",
          "name": "",
          "type": "string"
        },
        {
          "internalType": "address",
          "name": "",
          "type": "address"
        },
        {
          "internalType": "bool",
          "name": "",
          "type": "bool"
        },
        {
          "internalType": "uint256",
          "name": "",
          "type": "uint256"
        },
        {
          "internalType": "uint256",
          "name": "",
          "type": "uint256"
        },
        {
          "internalType": "string",
          "name": "",
          "type": "string"
        },
        {
          "internalType": "uint256",
          "name": "",
          "type": "uint256"
        }
      ],
      "stateMutability": "view",
      "type": "function",
      "constant": true
    },
    {
      "inputs": [
        {
          "internalType": "uint256",
          "name": "lotNumber",
          "type": "uint256"
        }
      ],
      "name": "isProcessCompleted",
      "outputs": [
        {
          "internalType": "bool",
          "name": "",
          "type": "bool"
        }
      ],
      "stateMutability": "view",
      "type": "function",
      "constant": true
    },
    {
      "inputs": [
        {
          "internalType": "uint256",
          "name": "lotNumber",
          "type": "uint256"
        }
      ],
      "name": "getCurrentStepIndex",
      "outputs": [
        {
          "internalType": "uint256",
          "name": "",
          "type": "uint256"
        }
      ],
      "stateMutability": "view",
      "type": "function",
      "constant": true
    },
    {
      "inputs": [],
      "name": "getCurrentLotNumber",
      "outputs": [
        {
          "internalType": "uint256",
          "name": "",
          "type": "uint256"
        }
      ],
      "stateMutability": "view",
      "type": "function",
      "constant": true
    },
    {
      "inputs": [
        {
          "internalType": "uint256",
          "name": "lotNumber",
          "type": "uint256"
        }
      ],
      "name": "getLot",
      "outputs": [
        {
          "components": [
            {
              "internalType": "string",
              "name": "name",
              "type": "string"
            },
            {
              "internalType": "address",
              "name": "supervisor",
              "type": "address"
            },
            {
              "internalType": "bool",
              "name": "completed",
              "type": "bool"
            },
            {
              "internalType": "uint256",
              "name": "startTime",
              "type": "uint256"
            },
            {
              "internalType": "uint256",
              "name": "endTime",
              "type": "uint256"
            },
            {
              "internalType": "string",
              "name": "location",
              "type": "string"
            },
            {
              "internalType": "uint256",
              "name": "lotNumber",
              "type": "uint256"
            }
          ],
          "internalType": "struct MilkChain.Step[]",
          "name": "",
          "type": "tuple[]"
        }
      ],
      "stateMutability": "view",
      "type": "function",
      "constant": true
    },
    {
      "inputs": [],
      "name": "getAllAccounts",
      "outputs": [
        {
          "internalType": "address[]",
          "name": "",
          "type": "address[]"
        }
      ],
      "stateMutability": "view",
      "type": "function",
      "constant": true
    }
  ],
  "bytecode": "0x608060405234801561001057600080fd5b5033600560006101000a81548173ffffffffffffffffffffffffffffffffffffffff021916908373ffffffffffffffffffffffffffffffffffffffff1602179055506001806000600560009054906101000a900473ffffffffffffffffffffffffffffffffffffffff1673ffffffffffffffffffffffffffffffffffffffff1673ffffffffffffffffffffffffffffffffffffffff16815260200190815260200160002060006101000a81548160ff021916908360038111156100fc577f4e487b7100000000000000000000000000000000000000000000000000000000600052602160045260246000fd5b02179055506001600481905550600160026000600560009054906101000a900473ffffffffffffffffffffffffffffffffffffffff1673ffffffffffffffffffffffffffffffffffffffff1673ffffffffffffffffffffffffffffffffffffffff16815260200190815260200160002060006101000a81548160ff0219169083151502179055506003600560009054906101000a900473ffffffffffffffffffffffffffffffffffffffff169080600181540180825580915050600190039060005260206000200160009091909190916101000a81548173ffffffffffffffffffffffffffffffffffffffff021916908373ffffffffffffffffffffffffffffffffffffffff1602179055506136b6806102176000396000f3fe608060405234801561001057600080fd5b506004361061010b5760003560e01c8063848d8dac116100a2578063ab995d1211610071578063ab995d12146102bf578063ad1e954e146102ef578063c9b021c21461030d578063d996570e1461032b578063f13b2596146103475761010b565b8063848d8dac1461024b578063893c12dd146102555780638da5cb5b14610271578063993746421461028f5761010b565b80634db04508116100de5780634db0450814610198578063579e51c7146101ce578063630a195b146101ff5780637bc23f611461021b5761010b565b806308c0cad61461011057806308e93d0a1461014057806318ca11c91461015e5780634762155d1461017c575b600080fd5b61012a600480360381019061012591906128cf565b610377565b6040516101379190613250565b60405180910390f35b610148610399565b6040516101559190613039565b60405180910390f35b610166610427565b6040516101739190613250565b60405180910390f35b6101966004803603810190610191919061286a565b610591565b005b6101b260048036038101906101ad919061294c565b610b00565b6040516101c597969594939291906130b3565b60405180910390f35b6101e860048036038101906101e391906128cf565b610d3a565b6040516101f692919061326b565b60405180910390f35b61021960048036038101906102149190612893565b610d5e565b005b610235600480360381019061023091906128cf565b61125a565b6040516102429190613250565b60405180910390f35b610253611279565b005b61026f600480360381019061026a9190612988565b611412565b005b610279611602565b604051610286919061301e565b60405180910390f35b6102a960048036038101906102a4919061286a565b611628565b6040516102b69190613098565b60405180910390f35b6102d960048036038101906102d491906128cf565b611648565b6040516102e6919061305b565b60405180910390f35b6102f7611a62565b6040516103049190613250565b60405180910390f35b610315611a6c565b6040516103229190613250565b60405180910390f35b610345600480360381019061034091906128f8565b611a72565b005b610361600480360381019061035c91906128cf565b611eea565b60405161036e919061307d565b60405180910390f35b6000806000838152602001908152602001600020600001805490509050919050565b6060600380548060200260200160405190810160405280929190818152602001828054801561041d57602002820191906000526020600020905b8160009054906101000a900473ffffffffffffffffffffffffffffffffffffffff1673ffffffffffffffffffffffffffffffffffffffff16815260200190600101908083116103d3575b5050505050905090565b6000806000905060005b6003805490508110156105895760016003811115610478577f4e487b7100000000000000000000000000000000000000000000000000000000600052602160045260246000fd5b60016000600384815481106104b6577f4e487b7100000000000000000000000000000000000000000000000000000000600052603260045260246000fd5b9060005260206000200160009054906101000a900473ffffffffffffffffffffffffffffffffffffffff1673ffffffffffffffffffffffffffffffffffffffff1673ffffffffffffffffffffffffffffffffffffffff16815260200190815260200160002060009054906101000a900460ff166003811115610561577f4e487b7100000000000000000000000000000000000000000000000000000000600052602160045260246000fd5b141561057657818061057290613518565b9250505b808061058190613518565b915050610431565b508091505090565b600160038111156105cb577f4e487b7100000000000000000000000000000000000000000000000000000000600052602160045260246000fd5b600160003373ffffffffffffffffffffffffffffffffffffffff1673ffffffffffffffffffffffffffffffffffffffff16815260200190815260200160002060009054906101000a900460ff166003811115610650577f4e487b7100000000000000000000000000000000000000000000000000000000600052602160045260246000fd5b14610690576040517f08c379a0000000000000000000000000000000000000000000000000000000008152600401610687906131b0565b60405180910390fd5b600160038111156106ca577f4e487b7100000000000000000000000000000000000000000000000000000000600052602160045260246000fd5b600160008373ffffffffffffffffffffffffffffffffffffffff1673ffffffffffffffffffffffffffffffffffffffff16815260200190815260200160002060009054906101000a900460ff16600381111561074f577f4e487b7100000000000000000000000000000000000000000000000000000000600052602160045260246000fd5b14158061076357506001610761610427565b115b6107a2576040517f08c379a0000000000000000000000000000000000000000000000000000000008152600401610799906131f0565b60405180910390fd5b6000600160008373ffffffffffffffffffffffffffffffffffffffff1673ffffffffffffffffffffffffffffffffffffffff16815260200190815260200160002060006101000a81548160ff0219169083600381111561082b577f4e487b7100000000000000000000000000000000000000000000000000000000600052602160045260246000fd5b02179055506000600260008373ffffffffffffffffffffffffffffffffffffffff1673ffffffffffffffffffffffffffffffffffffffff16815260200190815260200160002060006101000a81548160ff02191690831515021790555060005b600380549050811015610aad578173ffffffffffffffffffffffffffffffffffffffff16600382815481106108e9577f4e487b7100000000000000000000000000000000000000000000000000000000600052603260045260246000fd5b9060005260206000200160009054906101000a900473ffffffffffffffffffffffffffffffffffffffff1673ffffffffffffffffffffffffffffffffffffffff161415610a9a57600360016003805490506109449190613403565b8154811061097b577f4e487b7100000000000000000000000000000000000000000000000000000000600052603260045260246000fd5b9060005260206000200160009054906101000a900473ffffffffffffffffffffffffffffffffffffffff16600382815481106109e0577f4e487b7100000000000000000000000000000000000000000000000000000000600052603260045260246000fd5b9060005260206000200160006101000a81548173ffffffffffffffffffffffffffffffffffffffff021916908373ffffffffffffffffffffffffffffffffffffffff1602179055506003805480610a60577f4e487b7100000000000000000000000000000000000000000000000000000000600052603160045260246000fd5b6001900381819060005260206000200160006101000a81549073ffffffffffffffffffffffffffffffffffffffff02191690559055610aad565b8080610aa590613518565b91505061088b565b508073ffffffffffffffffffffffffffffffffffffffff167f4ac36fa53f167ceb85964be512e01de2a3b8bdb9862f917da079deeeff689b386000604051610af59190613098565b60405180910390a250565b606060008060008060606000806000808b8152602001908152602001600020905080600001805490508910610b6a576040517f08c379a0000000000000000000000000000000000000000000000000000000008152600401610b61906131d0565b60405180910390fd5b6000816000018a81548110610ba8577f4e487b7100000000000000000000000000000000000000000000000000000000600052603260045260246000fd5b90600052602060002090600602019050806000018160010160009054906101000a900473ffffffffffffffffffffffffffffffffffffffff168260010160149054906101000a900460ff1683600201548460030154856004018660050154868054610c12906134e6565b80601f0160208091040260200160405190810160405280929190818152602001828054610c3e906134e6565b8015610c8b5780601f10610c6057610100808354040283529160200191610c8b565b820191906000526020600020905b815481529060010190602001808311610c6e57829003601f168201915b50505050509650818054610c9e906134e6565b80601f0160208091040260200160405190810160405280929190818152602001828054610cca906134e6565b8015610d175780601f10610cec57610100808354040283529160200191610d17565b820191906000526020600020905b815481529060010190602001808311610cfa57829003601f168201915b505050505091509850985098509850985098509850505092959891949750929550565b60006020528060005260406000206000915090508060010154908060020154905082565b60016003811115610d98577f4e487b7100000000000000000000000000000000000000000000000000000000600052602160045260246000fd5b600160003373ffffffffffffffffffffffffffffffffffffffff1673ffffffffffffffffffffffffffffffffffffffff16815260200190815260200160002060009054906101000a900460ff166003811115610e1d577f4e487b7100000000000000000000000000000000000000000000000000000000600052602160045260246000fd5b14610e5d576040517f08c379a0000000000000000000000000000000000000000000000000000000008152600401610e54906131b0565b60405180910390fd5b60016003811115610e97577f4e487b7100000000000000000000000000000000000000000000000000000000600052602160045260246000fd5b600160008473ffffffffffffffffffffffffffffffffffffffff1673ffffffffffffffffffffffffffffffffffffffff16815260200190815260200160002060009054906101000a900460ff166003811115610f1c577f4e487b7100000000000000000000000000000000000000000000000000000000600052602160045260246000fd5b141580610f3057506001610f2e610427565b115b610f6f576040517f08c379a0000000000000000000000000000000000000000000000000000000008152600401610f6690613170565b60405180910390fd5b806003811115610fa8577f4e487b7100000000000000000000000000000000000000000000000000000000600052602160045260246000fd5b600160008473ffffffffffffffffffffffffffffffffffffffff1673ffffffffffffffffffffffffffffffffffffffff16815260200190815260200160002060009054906101000a900460ff16600381111561102d577f4e487b7100000000000000000000000000000000000000000000000000000000600052602160045260246000fd5b141561106e576040517f08c379a000000000000000000000000000000000000000000000000000000000815260040161106590613210565b60405180910390fd5b80600160008473ffffffffffffffffffffffffffffffffffffffff1673ffffffffffffffffffffffffffffffffffffffff16815260200190815260200160002060006101000a81548160ff021916908360038111156110f6577f4e487b7100000000000000000000000000000000000000000000000000000000600052602160045260246000fd5b0217905550600260008373ffffffffffffffffffffffffffffffffffffffff1673ffffffffffffffffffffffffffffffffffffffff16815260200190815260200160002060009054906101000a900460ff16611208576001600260008473ffffffffffffffffffffffffffffffffffffffff1673ffffffffffffffffffffffffffffffffffffffff16815260200190815260200160002060006101000a81548160ff0219169083151502179055506003829080600181540180825580915050600190039060005260206000200160009091909190916101000a81548173ffffffffffffffffffffffffffffffffffffffff021916908373ffffffffffffffffffffffffffffffffffffffff1602179055505b8173ffffffffffffffffffffffffffffffffffffffff167f4ac36fa53f167ceb85964be512e01de2a3b8bdb9862f917da079deeeff689b388260405161124e9190613098565b60405180910390a25050565b6000806000838152602001908152602001600020600101549050919050565b600160038111156112b3577f4e487b7100000000000000000000000000000000000000000000000000000000600052602160045260246000fd5b600160003373ffffffffffffffffffffffffffffffffffffffff1673ffffffffffffffffffffffffffffffffffffffff16815260200190815260200160002060009054906101000a900460ff166003811115611338577f4e487b7100000000000000000000000000000000000000000000000000000000600052602160045260246000fd5b14611378576040517f08c379a000000000000000000000000000000000000000000000000000000000815260040161136f906131b0565b60405180910390fd5b60008060006004548152602001908152602001600020905060045481600201819055506113a481611f18565b42816000016000815481106113e2577f4e487b7100000000000000000000000000000000000000000000000000000000600052603260045260246000fd5b9060005260206000209060060201600201819055506004600081548092919061140a90613518565b919050555050565b6001600381111561144c577f4e487b7100000000000000000000000000000000000000000000000000000000600052602160045260246000fd5b600160003373ffffffffffffffffffffffffffffffffffffffff1673ffffffffffffffffffffffffffffffffffffffff16815260200190815260200160002060009054906101000a900460ff1660038111156114d1577f4e487b7100000000000000000000000000000000000000000000000000000000600052602160045260246000fd5b14611511576040517f08c379a0000000000000000000000000000000000000000000000000000000008152600401611508906131b0565b60405180910390fd5b6000806000858152602001908152602001600020905080600001805490508310611570576040517f08c379a0000000000000000000000000000000000000000000000000000000008152600401611567906131d0565b60405180910390fd5b818160000184815481106115ad577f4e487b7100000000000000000000000000000000000000000000000000000000600052603260045260246000fd5b906000526020600020906006020160010160006101000a81548173ffffffffffffffffffffffffffffffffffffffff021916908373ffffffffffffffffffffffffffffffffffffffff16021790555050505050565b600560009054906101000a900473ffffffffffffffffffffffffffffffffffffffff1681565b60016020528060005260406000206000915054906101000a900460ff1681565b6060600080600084815260200190815260200160002090506000805b82600001805490508110156116f5578260000181815481106116af577f4e487b7100000000000000000000000000000000000000000000000000000000600052603260045260246000fd5b906000526020600020906006020160010160149054906101000a900460ff16156116e25781806116de90613518565b9250505b80806116ed90613518565b915050611664565b5060008167ffffffffffffffff811115611738577f4e487b7100000000000000000000000000000000000000000000000000000000600052604160045260246000fd5b60405190808252806020026020018201604052801561177157816020015b61175e6126cb565b8152602001906001900390816117565790505b5090506000805b8460000180549050811015611a55578460000181815481106117c3577f4e487b7100000000000000000000000000000000000000000000000000000000600052603260045260246000fd5b906000526020600020906006020160010160149054906101000a900460ff1615611a4257846000018181548110611823577f4e487b7100000000000000000000000000000000000000000000000000000000600052603260045260246000fd5b90600052602060002090600602016040518060e001604052908160008201805461184c906134e6565b80601f0160208091040260200160405190810160405280929190818152602001828054611878906134e6565b80156118c55780601f1061189a576101008083540402835291602001916118c5565b820191906000526020600020905b8154815290600101906020018083116118a857829003601f168201915b505050505081526020016001820160009054906101000a900473ffffffffffffffffffffffffffffffffffffffff1673ffffffffffffffffffffffffffffffffffffffff1673ffffffffffffffffffffffffffffffffffffffff1681526020016001820160149054906101000a900460ff161515151581526020016002820154815260200160038201548152602001600482018054611963906134e6565b80601f016020809104026020016040519081016040528092919081815260200182805461198f906134e6565b80156119dc5780601f106119b1576101008083540402835291602001916119dc565b820191906000526020600020905b8154815290600101906020018083116119bf57829003601f168201915b50505050508152602001600582015481525050838381518110611a28577f4e487b7100000000000000000000000000000000000000000000000000000000600052603260045260246000fd5b60200260200101819052508180611a3e90613518565b9250505b8080611a4d90613518565b915050611778565b5081945050505050919050565b6000600454905090565b60045481565b60026003811115611aac577f4e487b7100000000000000000000000000000000000000000000000000000000600052602160045260246000fd5b600160003373ffffffffffffffffffffffffffffffffffffffff1673ffffffffffffffffffffffffffffffffffffffff16815260200190815260200160002060009054906101000a900460ff166003811115611b31577f4e487b7100000000000000000000000000000000000000000000000000000000600052602160045260246000fd5b14611b71576040517f08c379a0000000000000000000000000000000000000000000000000000000008152600401611b6890613150565b60405180910390fd5b600080600084815260200190815260200160002090508060000180549050816001015410611bd4576040517f08c379a0000000000000000000000000000000000000000000000000000000008152600401611bcb90613230565b60405180910390fd5b600081600001826001015481548110611c16577f4e487b7100000000000000000000000000000000000000000000000000000000600052603260045260246000fd5b906000526020600020906006020190508060010160009054906101000a900473ffffffffffffffffffffffffffffffffffffffff1673ffffffffffffffffffffffffffffffffffffffff163373ffffffffffffffffffffffffffffffffffffffff1614611cb8576040517f08c379a0000000000000000000000000000000000000000000000000000000008152600401611caf90613190565b60405180910390fd5b60018160010160146101000a81548160ff021916908315150217905550428160030181905550600082600101541115611d52578160000160018360010154611d009190613403565b81548110611d37577f4e487b7100000000000000000000000000000000000000000000000000000000600052603260045260246000fd5b90600052602060002090600602016003015481600201819055505b611d5b836126be565b611d9a576040517f08c379a0000000000000000000000000000000000000000000000000000000008152600401611d9190613130565b60405180910390fd5b82816004019080519060200190611db2929190612720565b50816002015481600501819055507fb3447c6de1d70d27939345be37b9c609fbccee94d8b16186ecbcd6136b95c7be826002015483600101548360000184600201548560030154604051611e0a959493929190613294565b60405180910390a1816001016000815480929190611e2790613518565b9190505550816000018054905082600101541015611e96574282600001836001015481548110611e80577f4e487b7100000000000000000000000000000000000000000000000000000000600052603260045260246000fd5b9060005260206000209060060201600201819055505b8160000180549050826001015410611ee4577f74c97f258db595b9ae4389bbb720db98e2437f4c7e079c5ef85dc56ac62a4d888260020154604051611edb9190613250565b60405180910390a15b50505050565b6000806000808481526020019081526020016000209050806000018054905081600101541015915050919050565b806000016040518060e001604052806040518060400160405280600881526020017f526163636f6c74610000000000000000000000000000000000000000000000008152508152602001600073ffffffffffffffffffffffffffffffffffffffff1681526020016000151581526020016000815260200160008152602001604051806020016040528060008152508152602001836002015481525090806001815401808255809150506001900390600052602060002090600602016000909190919091506000820151816000019080519060200190611ff8929190612720565b5060208201518160010160006101000a81548173ffffffffffffffffffffffffffffffffffffffff021916908373ffffffffffffffffffffffffffffffffffffffff16021790555060408201518160010160146101000a81548160ff021916908315150217905550606082015181600201556080820151816003015560a0820151816004019080519060200190612090929190612720565b5060c082015181600501555050806000016040518060e001604052806040518060400160405280600981526020017f54726173706f72746f00000000000000000000000000000000000000000000008152508152602001600073ffffffffffffffffffffffffffffffffffffffff168152602001600015158152602001600081526020016000815260200160405180602001604052806000815250815260200183600201548152509080600181540180825580915050600190039060005260206000209060060201600090919091909150600082015181600001908051906020019061217d929190612720565b5060208201518160010160006101000a81548173ffffffffffffffffffffffffffffffffffffffff021916908373ffffffffffffffffffffffffffffffffffffffff16021790555060408201518160010160146101000a81548160ff021916908315150217905550606082015181600201556080820151816003015560a0820151816004019080519060200190612215929190612720565b5060c082015181600501555050806000016040518060e001604052806040518060400160405280600b81526020017f4c61766f72617a696f6e650000000000000000000000000000000000000000008152508152602001600073ffffffffffffffffffffffffffffffffffffffff1681526020016000151581526020016000815260200160008152602001604051806020016040528060008152508152602001836002015481525090806001815401808255809150506001900390600052602060002090600602016000909190919091506000820151816000019080519060200190612302929190612720565b5060208201518160010160006101000a81548173ffffffffffffffffffffffffffffffffffffffff021916908373ffffffffffffffffffffffffffffffffffffffff16021790555060408201518160010160146101000a81548160ff021916908315150217905550606082015181600201556080820151816003015560a082015181600401908051906020019061239a929190612720565b5060c082015181600501555050806000016040518060e001604052806040518060400160405280600f81526020017f436f6e66657a696f6e616d656e746f00000000000000000000000000000000008152508152602001600073ffffffffffffffffffffffffffffffffffffffff1681526020016000151581526020016000815260200160008152602001604051806020016040528060008152508152602001836002015481525090806001815401808255809150506001900390600052602060002090600602016000909190919091506000820151816000019080519060200190612487929190612720565b5060208201518160010160006101000a81548173ffffffffffffffffffffffffffffffffffffffff021916908373ffffffffffffffffffffffffffffffffffffffff16021790555060408201518160010160146101000a81548160ff021916908315150217905550606082015181600201556080820151816003015560a082015181600401908051906020019061251f929190612720565b5060c082015181600501555050806000016040518060e001604052806040518060400160405280600d81526020017f44697374726962757a696f6e65000000000000000000000000000000000000008152508152602001600073ffffffffffffffffffffffffffffffffffffffff168152602001600015158152602001600081526020016000815260200160405180602001604052806000815250815260200183600201548152509080600181540180825580915050600190039060005260206000209060060201600090919091909150600082015181600001908051906020019061260c929190612720565b5060208201518160010160006101000a81548173ffffffffffffffffffffffffffffffffffffffff021916908373ffffffffffffffffffffffffffffffffffffffff16021790555060408201518160010160146101000a81548160ff021916908315150217905550606082015181600201556080820151816003015560a08201518160040190805190602001906126a4929190612720565b5060c0820151816005015550506000816001018190555050565b6000808251119050919050565b6040518060e0016040528060608152602001600073ffffffffffffffffffffffffffffffffffffffff168152602001600015158152602001600081526020016000815260200160608152602001600081525090565b82805461272c906134e6565b90600052602060002090601f01602090048101928261274e5760008555612795565b82601f1061276757805160ff1916838001178555612795565b82800160010185558215612795579182015b82811115612794578251825591602001919060010190612779565b5b5090506127a291906127a6565b5090565b5b808211156127bf5760008160009055506001016127a7565b5090565b60006127d66127d18461331f565b6132ee565b9050828152602081018484840111156127ee57600080fd5b6127f98482856134a4565b509392505050565b60008135905061281081613642565b92915050565b60008135905061282581613659565b92915050565b600082601f83011261283c57600080fd5b813561284c8482602086016127c3565b91505092915050565b60008135905061286481613669565b92915050565b60006020828403121561287c57600080fd5b600061288a84828501612801565b91505092915050565b600080604083850312156128a657600080fd5b60006128b485828601612801565b92505060206128c585828601612816565b9150509250929050565b6000602082840312156128e157600080fd5b60006128ef84828501612855565b91505092915050565b6000806040838503121561290b57600080fd5b600061291985828601612855565b925050602083013567ffffffffffffffff81111561293657600080fd5b6129428582860161282b565b9150509250929050565b6000806040838503121561295f57600080fd5b600061296d85828601612855565b925050602061297e85828601612855565b9150509250929050565b60008060006060848603121561299d57600080fd5b60006129ab86828701612855565b93505060206129bc86828701612855565b92505060406129cd86828701612801565b9150509250925092565b60006129e38383612a03565b60208301905092915050565b60006129fb8383612f5d565b905092915050565b612a0c81613437565b82525050565b612a1b81613437565b82525050565b6000612a2c82613384565b612a3681856133bf565b9350612a418361334f565b8060005b83811015612a72578151612a5988826129d7565b9750612a64836133a5565b925050600181019050612a45565b5085935050505092915050565b6000612a8a8261338f565b612a9481856133d0565b935083602082028501612aa68561335f565b8060005b85811015612ae25784840389528151612ac385826129ef565b9450612ace836133b2565b925060208a01995050600181019050612aaa565b50829750879550505050505092915050565b612afd81613449565b82525050565b612b0c81613449565b82525050565b612b1b81613492565b82525050565b6000612b2c8261339a565b612b3681856133e1565b9350612b468185602086016134b3565b612b4f8161361d565b840191505092915050565b6000612b658261339a565b612b6f81856133f2565b9350612b7f8185602086016134b3565b612b888161361d565b840191505092915050565b60008154612ba0816134e6565b612baa81866133f2565b94506001821660008114612bc55760018114612bd757612c0a565b60ff1983168652602086019350612c0a565b612be08561336f565b60005b83811015612c0257815481890152600182019150602081019050612be3565b808801955050505b50505092915050565b6000612c206028836133f2565b91507f4c6f636174696f6e206973206e6f7420726561736f6e61626c6520666f72207460008301527f68697320737465700000000000000000000000000000000000000000000000006020830152604082019050919050565b6000612c866027836133f2565b91507f4f6e6c792073757065727669736f722063616e20706572666f726d207468697360008301527f20616374696f6e000000000000000000000000000000000000000000000000006020830152604082019050919050565b6000612cec602c836133f2565b91507f4e6f6e2070756f692063616d626961726520696c2072756f6c6f2064656c6c2760008301527f756c74696d6f2061646d696e00000000000000000000000000000000000000006020830152604082019050919050565b6000612d52602e836133f2565b91507f4f6e6c792061737369676e65642073757065727669736f722063616e20636f6d60008301527f706c6574652074686520737465700000000000000000000000000000000000006020830152604082019050919050565b6000612db86022836133f2565b91507f4f6e6c792061646d696e2063616e20706572666f726d2074686973206163746960008301527f6f6e0000000000000000000000000000000000000000000000000000000000006020830152604082019050919050565b6000612e1e6017836133f2565b91507f5374657020696e646578206f7574206f662072616e67650000000000000000006000830152602082019050919050565b6000612e5e6021836133f2565b91507f4e6f6e2070756f692072696d756f76657265206c27756c74696d6f2061646d6960008301527f6e000000000000000000000000000000000000000000000000000000000000006020830152604082019050919050565b6000612ec46022836133f2565b91507f51756573746f206163636f756e74206861206769612071756573746f2072756f60008301527f6c6f0000000000000000000000000000000000000000000000000000000000006020830152604082019050919050565b6000612f2a601f836133f2565b91507f416c6c2073746570732061726520616c726561647920636f6d706c65746564006000830152602082019050919050565b600060e0830160008301518482036000860152612f7a8282612b21565b9150506020830151612f8f6020860182612a03565b506040830151612fa26040860182612af4565b506060830151612fb56060860182613000565b506080830151612fc86080860182613000565b5060a083015184820360a0860152612fe08282612b21565b91505060c0830151612ff560c0860182613000565b508091505092915050565b61300981613488565b82525050565b61301881613488565b82525050565b60006020820190506130336000830184612a12565b92915050565b600060208201905081810360008301526130538184612a21565b905092915050565b600060208201905081810360008301526130758184612a7f565b905092915050565b60006020820190506130926000830184612b03565b92915050565b60006020820190506130ad6000830184612b12565b92915050565b600060e08201905081810360008301526130cd818a612b5a565b90506130dc6020830189612a12565b6130e96040830188612b03565b6130f6606083018761300f565b613103608083018661300f565b81810360a08301526131158185612b5a565b905061312460c083018461300f565b98975050505050505050565b6000602082019050818103600083015261314981612c13565b9050919050565b6000602082019050818103600083015261316981612c79565b9050919050565b6000602082019050818103600083015261318981612cdf565b9050919050565b600060208201905081810360008301526131a981612d45565b9050919050565b600060208201905081810360008301526131c981612dab565b9050919050565b600060208201905081810360008301526131e981612e11565b9050919050565b6000602082019050818103600083015261320981612e51565b9050919050565b6000602082019050818103600083015261322981612eb7565b9050919050565b6000602082019050818103600083015261324981612f1d565b9050919050565b6000602082019050613265600083018461300f565b92915050565b6000604082019050613280600083018561300f565b61328d602083018461300f565b9392505050565b600060a0820190506132a9600083018861300f565b6132b6602083018761300f565b81810360408301526132c88186612b93565b90506132d7606083018561300f565b6132e4608083018461300f565b9695505050505050565b6000604051905081810181811067ffffffffffffffff82111715613315576133146135ee565b5b8060405250919050565b600067ffffffffffffffff82111561333a576133396135ee565b5b601f19601f8301169050602081019050919050565b6000819050602082019050919050565b6000819050602082019050919050565b60008190508160005260206000209050919050565b600081519050919050565b600081519050919050565b600081519050919050565b6000602082019050919050565b6000602082019050919050565b600082825260208201905092915050565b600082825260208201905092915050565b600082825260208201905092915050565b600082825260208201905092915050565b600061340e82613488565b915061341983613488565b92508282101561342c5761342b613561565b5b828203905092915050565b600061344282613468565b9050919050565b60008115159050919050565b60008190506134638261362e565b919050565b600073ffffffffffffffffffffffffffffffffffffffff82169050919050565b6000819050919050565b600061349d82613455565b9050919050565b82818337600083830152505050565b60005b838110156134d15780820151818401526020810190506134b6565b838111156134e0576000848401525b50505050565b600060028204905060018216806134fe57607f821691505b60208210811415613512576135116135bf565b5b50919050565b600061352382613488565b91507fffffffffffffffffffffffffffffffffffffffffffffffffffffffffffffffff82141561355657613555613561565b5b600182019050919050565b7f4e487b7100000000000000000000000000000000000000000000000000000000600052601160045260246000fd5b7f4e487b7100000000000000000000000000000000000000000000000000000000600052602160045260246000fd5b7f4e487b7100000000000000000000000000000000000000000000000000000000600052602260045260246000fd5b7f4e487b7100000000000000000000000000000000000000000000000000000000600052604160045260246000fd5b6000601f19601f8301169050919050565b6004811061363f5761363e613590565b5b50565b61364b81613437565b811461365657600080fd5b50565b6004811061366657600080fd5b50565b61367281613488565b811461367d57600080fd5b5056fea26469706673582212202777d1c0789948b8a29d2576c33de00ebdac8805f1333ef9c42aafd8c0bfded464736f6c63430008000033",
  "immutableReferences": {},
  "source": "// SPDX-License-Identifier: MIT\r\npragma solidity ^0.8.0;\r\n\r\ncontract MilkChain {\r\n    enum Role {\r\n        None,\r\n        Admin,\r\n        Supervisor,\r\n        Operator\r\n    }\r\n\r\n    struct Step {\r\n        string name;\r\n        address supervisor;\r\n        bool completed;\r\n        uint startTime;\r\n        uint endTime;\r\n        string location;\r\n        uint lotNumber;\r\n    }\r\n\r\n    struct Process {\r\n        Step[] steps;\r\n        uint currentStepIndex;\r\n        uint lotNumber;\r\n    }\r\n\r\n    mapping(uint => Process) public processes;\r\n    mapping(address => Role) public roles;\r\n    mapping(address => bool) private allAccounts;\r\n    address[] private accountList;\r\n    uint public currentLotNumber;\r\n    address public owner;\r\n\r\n    event StepCompleted(\r\n        uint lotNumber,\r\n        uint stepIndex,\r\n        string name,\r\n        uint startTime,\r\n        uint endTime\r\n    );\r\n    event ProcessReset(uint newLotNumber);\r\n    event RoleAssigned(address indexed account, Role role);\r\n\r\n    modifier onlyAdmin() {\r\n        require(\r\n            roles[msg.sender] == Role.Admin,\r\n            \"Only admin can perform this action\"\r\n        );\r\n        _;\r\n    }\r\n\r\n    modifier onlySupervisor() {\r\n        require(\r\n            roles[msg.sender] == Role.Supervisor,\r\n            \"Only supervisor can perform this action\"\r\n        );\r\n        _;\r\n    }\r\n\r\n    function removeRole(address account) public onlyAdmin {\r\n        require(\r\n            roles[account] != Role.Admin || countAdmins() > 1,\r\n            \"Non puoi rimuovere l'ultimo admin\"\r\n        );\r\n        roles[account] = Role.None;\r\n        allAccounts[account] = false;\r\n        // Rimuovi l'account dalla lista\r\n        for (uint i = 0; i < accountList.length; i++) {\r\n            if (accountList[i] == account) {\r\n                accountList[i] = accountList[accountList.length - 1];\r\n                accountList.pop();\r\n                break;\r\n            }\r\n        }\r\n        emit RoleAssigned(account, Role.None);\r\n    }\r\n\r\n    function countAdmins() public view returns (uint) {\r\n        uint count = 0;\r\n        for (uint i = 0; i < accountList.length; i++) {\r\n            if (roles[accountList[i]] == Role.Admin) {\r\n                count++;\r\n            }\r\n        }\r\n        return count;\r\n    }\r\n\r\n    constructor() {\r\n        owner = msg.sender;\r\n        roles[owner] = Role.Admin;\r\n        currentLotNumber = 1;\r\n        allAccounts[owner] = true;\r\n        accountList.push(owner);\r\n    }\r\n\r\n    function assignRole(address account, Role role) public onlyAdmin {\r\n        require(\r\n            roles[account] != Role.Admin || countAdmins() > 1,\r\n            \"Non puoi cambiare il ruolo dell'ultimo admin\"\r\n        );\r\n        require(roles[account] != role, \"Questo account ha gia questo ruolo\");\r\n        roles[account] = role;\r\n        if (!allAccounts[account]) {\r\n            allAccounts[account] = true;\r\n            accountList.push(account);\r\n        }\r\n        emit RoleAssigned(account, role);\r\n    }\r\n\r\n    function createNewProcess() public onlyAdmin {\r\n        Process storage newProcess = processes[currentLotNumber];\r\n        newProcess.lotNumber = currentLotNumber;\r\n        initializeSteps(newProcess);\r\n        newProcess.steps[0].startTime = block.timestamp; // Inizializza lo start time del primo step\r\n        currentLotNumber++;\r\n    }\r\n\r\n    function initializeSteps(Process storage process) internal {\r\n        process.steps.push(\r\n            Step(\"Raccolta\", address(0), false, 0, 0, \"\", process.lotNumber)\r\n        );\r\n        process.steps.push(\r\n            Step(\"Trasporto\", address(0), false, 0, 0, \"\", process.lotNumber)\r\n        );\r\n        process.steps.push(\r\n            Step(\"Lavorazione\", address(0), false, 0, 0, \"\", process.lotNumber)\r\n        );\r\n        process.steps.push(\r\n            Step(\r\n                \"Confezionamento\",\r\n                address(0),\r\n                false,\r\n                0,\r\n                0,\r\n                \"\",\r\n                process.lotNumber\r\n            )\r\n        );\r\n        process.steps.push(\r\n            Step(\r\n                \"Distribuzione\",\r\n                address(0),\r\n                false,\r\n                0,\r\n                0,\r\n                \"\",\r\n                process.lotNumber\r\n            )\r\n        );\r\n        process.currentStepIndex = 0;\r\n    }\r\n\r\n    function assignSupervisor(\r\n        uint lotNumber,\r\n        uint stepIndex,\r\n        address supervisor\r\n    ) public onlyAdmin {\r\n        Process storage process = processes[lotNumber];\r\n        require(stepIndex < process.steps.length, \"Step index out of range\");\r\n        process.steps[stepIndex].supervisor = supervisor;\r\n    }\r\n\r\n    function completeStep(\r\n        uint lotNumber,\r\n        string memory _location\r\n    ) public onlySupervisor {\r\n        Process storage process = processes[lotNumber];\r\n        require(\r\n            process.currentStepIndex < process.steps.length,\r\n            \"All steps are already completed\"\r\n        );\r\n        Step storage step = process.steps[process.currentStepIndex];\r\n        require(\r\n            msg.sender == step.supervisor,\r\n            \"Only assigned supervisor can complete the step\"\r\n        );\r\n        step.completed = true;\r\n        step.endTime = block.timestamp;\r\n\r\n        if (process.currentStepIndex > 0) {\r\n            step.startTime = process\r\n                .steps[process.currentStepIndex - 1]\r\n                .endTime;\r\n        }\r\n\r\n        require(\r\n            isReasonableLocation(_location),\r\n            \"Location is not reasonable for this step\"\r\n        );\r\n\r\n        step.location = _location;\r\n        step.lotNumber = process.lotNumber;\r\n\r\n        emit StepCompleted(\r\n            process.lotNumber,\r\n            process.currentStepIndex,\r\n            step.name,\r\n            step.startTime,\r\n            step.endTime\r\n        );\r\n        process.currentStepIndex++;\r\n\r\n        if (process.currentStepIndex < process.steps.length) {\r\n            process.steps[process.currentStepIndex].startTime = block.timestamp; // Inizializza lo start time del prossimo step\r\n        }\r\n\r\n        if (process.currentStepIndex >= process.steps.length) {\r\n            emit ProcessReset(process.lotNumber);\r\n        }\r\n    }\r\n\r\n    function isReasonableLocation(\r\n        string memory _location\r\n    ) internal pure returns (bool) {\r\n        return bytes(_location).length > 0;\r\n    }\r\n\r\n    function getStepsLength(uint lotNumber) public view returns (uint) {\r\n        return processes[lotNumber].steps.length;\r\n    }\r\n\r\n    function getStep(\r\n        uint lotNumber,\r\n        uint index\r\n    )\r\n        public\r\n        view\r\n        returns (string memory, address, bool, uint, uint, string memory, uint)\r\n    {\r\n        Process storage process = processes[lotNumber];\r\n        require(index < process.steps.length, \"Step index out of range\");\r\n        Step storage step = process.steps[index];\r\n        return (\r\n            step.name,\r\n            step.supervisor,\r\n            step.completed,\r\n            step.startTime,\r\n            step.endTime,\r\n            step.location,\r\n            step.lotNumber\r\n        );\r\n    }\r\n\r\n    function isProcessCompleted(uint lotNumber) public view returns (bool) {\r\n        Process storage process = processes[lotNumber];\r\n        return process.currentStepIndex >= process.steps.length;\r\n    }\r\n\r\n    function getCurrentStepIndex(uint lotNumber) public view returns (uint) {\r\n        return processes[lotNumber].currentStepIndex;\r\n    }\r\n\r\n    function getCurrentLotNumber() public view returns (uint) {\r\n        return currentLotNumber;\r\n    }\r\n\r\n    function getLot(uint lotNumber) public view returns (Step[] memory) {\r\n        Process storage process = processes[lotNumber];\r\n        uint count = 0;\r\n        for (uint i = 0; i < process.steps.length; i++) {\r\n            if (process.steps[i].completed) {\r\n                count++;\r\n            }\r\n        }\r\n\r\n        Step[] memory lotSteps = new Step[](count);\r\n        uint index = 0;\r\n        for (uint i = 0; i < process.steps.length; i++) {\r\n            if (process.steps[i].completed) {\r\n                lotSteps[index] = process.steps[i];\r\n                index++;\r\n            }\r\n        }\r\n        return lotSteps;\r\n    }\r\n\r\n    function getAllAccounts() public view returns (address[] memory) {\r\n        return accountList;\r\n    }\r\n}\r\n",
  "sourcePath": "C:\\Users\\samue\\Desktop\\MilkChain\\backend\\contracts\\MilkChain.sol",
  "compiler": {
    "name": "solc",
    "version": "0.8.0+commit.c7dfd78e.Emscripten.clang"
  },
  "schemaVersion": "3.4.16",
  "updatedAt": "2024-07-03T01:05:33.019Z",
  "networkType": "ethereum",
  "devdoc": {
    "kind": "dev",
    "methods": {},
    "version": 1
  },
  "userdoc": {
    "kind": "user",
    "methods": {},
    "version": 1
  }
}