{
  "contractName": "MilkChain",
  "abi": [
    {
      "inputs": [],
      "stateMutability": "nonpayable",
      "type": "constructor"
    },
    {
      "anonymous": false,
      "inputs": [
        {
          "indexed": false,
          "internalType": "uint256",
          "name": "newLotNumber",
          "type": "uint256"
        }
      ],
      "name": "ProcessReset",
      "type": "event"
    },
    {
      "anonymous": false,
      "inputs": [
        {
          "indexed": true,
          "internalType": "address",
          "name": "account",
          "type": "address"
        },
        {
          "indexed": false,
          "internalType": "enum MilkChain.Role",
          "name": "role",
          "type": "uint8"
        }
      ],
      "name": "RoleAssigned",
      "type": "event"
    },
    {
      "anonymous": false,
      "inputs": [
        {
          "indexed": false,
          "internalType": "uint256",
          "name": "lotNumber",
          "type": "uint256"
        },
        {
          "indexed": false,
          "internalType": "uint256",
          "name": "stepIndex",
          "type": "uint256"
        },
        {
          "indexed": false,
          "internalType": "string",
          "name": "name",
          "type": "string"
        },
        {
          "indexed": false,
          "internalType": "uint256",
          "name": "startTime",
          "type": "uint256"
        },
        {
          "indexed": false,
          "internalType": "uint256",
          "name": "endTime",
          "type": "uint256"
        }
      ],
      "name": "StepCompleted",
      "type": "event"
    },
    {
      "inputs": [],
      "name": "currentLotNumber",
      "outputs": [
        {
          "internalType": "uint256",
          "name": "",
          "type": "uint256"
        }
      ],
      "stateMutability": "view",
      "type": "function",
      "constant": true
    },
    {
      "inputs": [],
      "name": "owner",
      "outputs": [
        {
          "internalType": "address",
          "name": "",
          "type": "address"
        }
      ],
      "stateMutability": "view",
      "type": "function",
      "constant": true
    },
    {
      "inputs": [
        {
          "internalType": "uint256",
          "name": "",
          "type": "uint256"
        }
      ],
      "name": "processes",
      "outputs": [
        {
          "internalType": "uint256",
          "name": "currentStepIndex",
          "type": "uint256"
        },
        {
          "internalType": "uint256",
          "name": "lotNumber",
          "type": "uint256"
        }
      ],
      "stateMutability": "view",
      "type": "function",
      "constant": true
    },
    {
      "inputs": [
        {
          "internalType": "address",
          "name": "",
          "type": "address"
        }
      ],
      "name": "roles",
      "outputs": [
        {
          "internalType": "enum MilkChain.Role",
          "name": "",
          "type": "uint8"
        }
      ],
      "stateMutability": "view",
      "type": "function",
      "constant": true
    },
    {
      "inputs": [
        {
          "internalType": "address",
          "name": "account",
          "type": "address"
        },
        {
          "internalType": "enum MilkChain.Role",
          "name": "role",
          "type": "uint8"
        }
      ],
      "name": "assignRole",
      "outputs": [],
      "stateMutability": "nonpayable",
      "type": "function"
    },
    {
      "inputs": [],
      "name": "createNewProcess",
      "outputs": [],
      "stateMutability": "nonpayable",
      "type": "function"
    },
    {
      "inputs": [
        {
          "internalType": "uint256",
          "name": "lotNumber",
          "type": "uint256"
        },
        {
          "internalType": "uint256",
          "name": "stepIndex",
          "type": "uint256"
        },
        {
          "internalType": "address",
          "name": "supervisor",
          "type": "address"
        }
      ],
      "name": "assignSupervisor",
      "outputs": [],
      "stateMutability": "nonpayable",
      "type": "function"
    },
    {
      "inputs": [
        {
          "internalType": "uint256",
          "name": "lotNumber",
          "type": "uint256"
        },
        {
          "internalType": "string",
          "name": "_location",
          "type": "string"
        }
      ],
      "name": "completeStep",
      "outputs": [],
      "stateMutability": "nonpayable",
      "type": "function"
    },
    {
      "inputs": [
        {
          "internalType": "uint256",
          "name": "lotNumber",
          "type": "uint256"
        }
      ],
      "name": "getStepsLength",
      "outputs": [
        {
          "internalType": "uint256",
          "name": "",
          "type": "uint256"
        }
      ],
      "stateMutability": "view",
      "type": "function",
      "constant": true
    },
    {
      "inputs": [
        {
          "internalType": "uint256",
          "name": "lotNumber",
          "type": "uint256"
        },
        {
          "internalType": "uint256",
          "name": "index",
          "type": "uint256"
        }
      ],
      "name": "getStep",
      "outputs": [
        {
          "internalType": "string",
          "name": "",
          "type": "string"
        },
        {
          "internalType": "address",
          "name": "",
          "type": "address"
        },
        {
          "internalType": "bool",
          "name": "",
          "type": "bool"
        },
        {
          "internalType": "uint256",
          "name": "",
          "type": "uint256"
        },
        {
          "internalType": "uint256",
          "name": "",
          "type": "uint256"
        },
        {
          "internalType": "string",
          "name": "",
          "type": "string"
        },
        {
          "internalType": "uint256",
          "name": "",
          "type": "uint256"
        }
      ],
      "stateMutability": "view",
      "type": "function",
      "constant": true
    },
    {
      "inputs": [
        {
          "internalType": "uint256",
          "name": "lotNumber",
          "type": "uint256"
        }
      ],
      "name": "isProcessCompleted",
      "outputs": [
        {
          "internalType": "bool",
          "name": "",
          "type": "bool"
        }
      ],
      "stateMutability": "view",
      "type": "function",
      "constant": true
    },
    {
      "inputs": [
        {
          "internalType": "uint256",
          "name": "lotNumber",
          "type": "uint256"
        }
      ],
      "name": "getCurrentStepIndex",
      "outputs": [
        {
          "internalType": "uint256",
          "name": "",
          "type": "uint256"
        }
      ],
      "stateMutability": "view",
      "type": "function",
      "constant": true
    },
    {
      "inputs": [],
      "name": "getCurrentLotNumber",
      "outputs": [
        {
          "internalType": "uint256",
          "name": "",
          "type": "uint256"
        }
      ],
      "stateMutability": "view",
      "type": "function",
      "constant": true
    },
    {
      "inputs": [
        {
          "internalType": "uint256",
          "name": "lotNumber",
          "type": "uint256"
        }
      ],
      "name": "getLot",
      "outputs": [
        {
          "components": [
            {
              "internalType": "string",
              "name": "name",
              "type": "string"
            },
            {
              "internalType": "address",
              "name": "supervisor",
              "type": "address"
            },
            {
              "internalType": "bool",
              "name": "completed",
              "type": "bool"
            },
            {
              "internalType": "uint256",
              "name": "startTime",
              "type": "uint256"
            },
            {
              "internalType": "uint256",
              "name": "endTime",
              "type": "uint256"
            },
            {
              "internalType": "string",
              "name": "location",
              "type": "string"
            },
            {
              "internalType": "uint256",
              "name": "lotNumber",
              "type": "uint256"
            }
          ],
          "internalType": "struct MilkChain.Step[]",
          "name": "",
          "type": "tuple[]"
        }
      ],
      "stateMutability": "view",
      "type": "function",
      "constant": true
    },
    {
      "inputs": [],
      "name": "getAllAccounts",
      "outputs": [
        {
          "internalType": "address[]",
          "name": "",
          "type": "address[]"
        }
      ],
      "stateMutability": "view",
      "type": "function",
      "constant": true
    }
  ],
  "bytecode": "0x608060405234801561001057600080fd5b5033600560006101000a81548173ffffffffffffffffffffffffffffffffffffffff021916908373ffffffffffffffffffffffffffffffffffffffff1602179055506001806000600560009054906101000a900473ffffffffffffffffffffffffffffffffffffffff1673ffffffffffffffffffffffffffffffffffffffff1673ffffffffffffffffffffffffffffffffffffffff16815260200190815260200160002060006101000a81548160ff021916908360038111156100fc577f4e487b7100000000000000000000000000000000000000000000000000000000600052602160045260246000fd5b02179055506001600481905550600160026000600560009054906101000a900473ffffffffffffffffffffffffffffffffffffffff1673ffffffffffffffffffffffffffffffffffffffff1673ffffffffffffffffffffffffffffffffffffffff16815260200190815260200160002060006101000a81548160ff0219169083151502179055506003600560009054906101000a900473ffffffffffffffffffffffffffffffffffffffff169080600181540180825580915050600190039060005260206000200160009091909190916101000a81548173ffffffffffffffffffffffffffffffffffffffff021916908373ffffffffffffffffffffffffffffffffffffffff160217905550612b3b806102176000396000f3fe608060405234801561001057600080fd5b50600436106100f55760003560e01c8063893c12dd11610097578063ad1e954e11610066578063ad1e954e1461029f578063c9b021c2146102bd578063d996570e146102db578063f13b2596146102f7576100f5565b8063893c12dd146102055780638da5cb5b14610221578063993746421461023f578063ab995d121461026f576100f5565b8063579e51c7116100d3578063579e51c71461017e578063630a195b146101af5780637bc23f61146101cb578063848d8dac146101fb576100f5565b806308c0cad6146100fa57806308e93d0a1461012a5780634db0450814610148575b600080fd5b610114600480360381019061010f9190611ee6565b610327565b60405161012191906126d5565b60405180910390f35b610132610349565b60405161013f919061251e565b60405180910390f35b610162600480360381019061015d9190611f63565b6103d7565b6040516101759796959493929190612598565b60405180910390f35b61019860048036038101906101939190611ee6565b610611565b6040516101a69291906126f0565b60405180910390f35b6101c960048036038101906101c49190611eaa565b610635565b005b6101e560048036038101906101e09190611ee6565b610920565b6040516101f291906126d5565b60405180910390f35b61020361093f565b005b61021f600480360381019061021a9190611f9f565b610a85565b005b610229610c75565b6040516102369190612503565b60405180910390f35b61025960048036038101906102549190611e81565b610c9b565b604051610266919061257d565b60405180910390f35b61028960048036038101906102849190611ee6565b610cbb565b6040516102969190612540565b60405180910390f35b6102a76110d5565b6040516102b491906126d5565b60405180910390f35b6102c56110df565b6040516102d291906126d5565b60405180910390f35b6102f560048036038101906102f09190611f0f565b6110e5565b005b610311600480360381019061030c9190611ee6565b611501565b60405161031e9190612562565b60405180910390f35b6000806000838152602001908152602001600020600001805490509050919050565b606060038054806020026020016040519081016040528092919081815260200182805480156103cd57602002820191906000526020600020905b8160009054906101000a900473ffffffffffffffffffffffffffffffffffffffff1673ffffffffffffffffffffffffffffffffffffffff1681526020019060010190808311610383575b5050505050905090565b606060008060008060606000806000808b8152602001908152602001600020905080600001805490508910610441576040517f08c379a000000000000000000000000000000000000000000000000000000000815260040161043890612695565b60405180910390fd5b6000816000018a8154811061047f577f4e487b7100000000000000000000000000000000000000000000000000000000600052603260045260246000fd5b90600052602060002090600602019050806000018160010160009054906101000a900473ffffffffffffffffffffffffffffffffffffffff168260010160149054906101000a900460ff16836002015484600301548560040186600501548680546104e99061296b565b80601f01602080910402602001604051908101604052809291908181526020018280546105159061296b565b80156105625780601f1061053757610100808354040283529160200191610562565b820191906000526020600020905b81548152906001019060200180831161054557829003601f168201915b505050505096508180546105759061296b565b80601f01602080910402602001604051908101604052809291908181526020018280546105a19061296b565b80156105ee5780601f106105c3576101008083540402835291602001916105ee565b820191906000526020600020905b8154815290600101906020018083116105d157829003601f168201915b505050505091509850985098509850985098509850505092959891949750929550565b60006020528060005260406000206000915090508060010154908060020154905082565b6001600381111561066f577f4e487b7100000000000000000000000000000000000000000000000000000000600052602160045260246000fd5b600160003373ffffffffffffffffffffffffffffffffffffffff1673ffffffffffffffffffffffffffffffffffffffff16815260200190815260200160002060009054906101000a900460ff1660038111156106f4577f4e487b7100000000000000000000000000000000000000000000000000000000600052602160045260246000fd5b14610734576040517f08c379a000000000000000000000000000000000000000000000000000000000815260040161072b90612675565b60405180910390fd5b80600160008473ffffffffffffffffffffffffffffffffffffffff1673ffffffffffffffffffffffffffffffffffffffff16815260200190815260200160002060006101000a81548160ff021916908360038111156107bc577f4e487b7100000000000000000000000000000000000000000000000000000000600052602160045260246000fd5b0217905550600260008373ffffffffffffffffffffffffffffffffffffffff1673ffffffffffffffffffffffffffffffffffffffff16815260200190815260200160002060009054906101000a900460ff166108ce576001600260008473ffffffffffffffffffffffffffffffffffffffff1673ffffffffffffffffffffffffffffffffffffffff16815260200190815260200160002060006101000a81548160ff0219169083151502179055506003829080600181540180825580915050600190039060005260206000200160009091909190916101000a81548173ffffffffffffffffffffffffffffffffffffffff021916908373ffffffffffffffffffffffffffffffffffffffff1602179055505b8173ffffffffffffffffffffffffffffffffffffffff167f4ac36fa53f167ceb85964be512e01de2a3b8bdb9862f917da079deeeff689b3882604051610914919061257d565b60405180910390a25050565b6000806000838152602001908152602001600020600101549050919050565b60016003811115610979577f4e487b7100000000000000000000000000000000000000000000000000000000600052602160045260246000fd5b600160003373ffffffffffffffffffffffffffffffffffffffff1673ffffffffffffffffffffffffffffffffffffffff16815260200190815260200160002060009054906101000a900460ff1660038111156109fe577f4e487b7100000000000000000000000000000000000000000000000000000000600052602160045260246000fd5b14610a3e576040517f08c379a0000000000000000000000000000000000000000000000000000000008152600401610a3590612675565b60405180910390fd5b6000806000600454815260200190815260200160002090506004548160020181905550610a6a8161152f565b60046000815480929190610a7d9061299d565b919050555050565b60016003811115610abf577f4e487b7100000000000000000000000000000000000000000000000000000000600052602160045260246000fd5b600160003373ffffffffffffffffffffffffffffffffffffffff1673ffffffffffffffffffffffffffffffffffffffff16815260200190815260200160002060009054906101000a900460ff166003811115610b44577f4e487b7100000000000000000000000000000000000000000000000000000000600052602160045260246000fd5b14610b84576040517f08c379a0000000000000000000000000000000000000000000000000000000008152600401610b7b90612675565b60405180910390fd5b6000806000858152602001908152602001600020905080600001805490508310610be3576040517f08c379a0000000000000000000000000000000000000000000000000000000008152600401610bda90612695565b60405180910390fd5b81816000018481548110610c20577f4e487b7100000000000000000000000000000000000000000000000000000000600052603260045260246000fd5b906000526020600020906006020160010160006101000a81548173ffffffffffffffffffffffffffffffffffffffff021916908373ffffffffffffffffffffffffffffffffffffffff16021790555050505050565b600560009054906101000a900473ffffffffffffffffffffffffffffffffffffffff1681565b60016020528060005260406000206000915054906101000a900460ff1681565b6060600080600084815260200190815260200160002090506000805b8260000180549050811015610d6857826000018181548110610d22577f4e487b7100000000000000000000000000000000000000000000000000000000600052603260045260246000fd5b906000526020600020906006020160010160149054906101000a900460ff1615610d55578180610d519061299d565b9250505b8080610d609061299d565b915050610cd7565b5060008167ffffffffffffffff811115610dab577f4e487b7100000000000000000000000000000000000000000000000000000000600052604160045260246000fd5b604051908082528060200260200182016040528015610de457816020015b610dd1611ce2565b815260200190600190039081610dc95790505b5090506000805b84600001805490508110156110c857846000018181548110610e36577f4e487b7100000000000000000000000000000000000000000000000000000000600052603260045260246000fd5b906000526020600020906006020160010160149054906101000a900460ff16156110b557846000018181548110610e96577f4e487b7100000000000000000000000000000000000000000000000000000000600052603260045260246000fd5b90600052602060002090600602016040518060e0016040529081600082018054610ebf9061296b565b80601f0160208091040260200160405190810160405280929190818152602001828054610eeb9061296b565b8015610f385780601f10610f0d57610100808354040283529160200191610f38565b820191906000526020600020905b815481529060010190602001808311610f1b57829003601f168201915b505050505081526020016001820160009054906101000a900473ffffffffffffffffffffffffffffffffffffffff1673ffffffffffffffffffffffffffffffffffffffff1673ffffffffffffffffffffffffffffffffffffffff1681526020016001820160149054906101000a900460ff161515151581526020016002820154815260200160038201548152602001600482018054610fd69061296b565b80601f01602080910402602001604051908101604052809291908181526020018280546110029061296b565b801561104f5780601f106110245761010080835404028352916020019161104f565b820191906000526020600020905b81548152906001019060200180831161103257829003601f168201915b5050505050815260200160058201548152505083838151811061109b577f4e487b7100000000000000000000000000000000000000000000000000000000600052603260045260246000fd5b602002602001018190525081806110b19061299d565b9250505b80806110c09061299d565b915050610deb565b5081945050505050919050565b6000600454905090565b60045481565b6002600381111561111f577f4e487b7100000000000000000000000000000000000000000000000000000000600052602160045260246000fd5b600160003373ffffffffffffffffffffffffffffffffffffffff1673ffffffffffffffffffffffffffffffffffffffff16815260200190815260200160002060009054906101000a900460ff1660038111156111a4577f4e487b7100000000000000000000000000000000000000000000000000000000600052602160045260246000fd5b146111e4576040517f08c379a00000000000000000000000000000000000000000000000000000000081526004016111db90612635565b60405180910390fd5b600080600084815260200190815260200160002090508060000180549050816001015410611247576040517f08c379a000000000000000000000000000000000000000000000000000000000815260040161123e906126b5565b60405180910390fd5b600081600001826001015481548110611289577f4e487b7100000000000000000000000000000000000000000000000000000000600052603260045260246000fd5b906000526020600020906006020190508060010160009054906101000a900473ffffffffffffffffffffffffffffffffffffffff1673ffffffffffffffffffffffffffffffffffffffff163373ffffffffffffffffffffffffffffffffffffffff161461132b576040517f08c379a000000000000000000000000000000000000000000000000000000000815260040161132290612655565b60405180910390fd5b60018160010160146101000a81548160ff02191690831515021790555042816003018190555060008260010154141561136c574281600201819055506113d3565b81600001600183600101546113819190612888565b815481106113b8577f4e487b7100000000000000000000000000000000000000000000000000000000600052603260045260246000fd5b90600052602060002090600602016003015481600201819055505b6113dc83611cd5565b61141b576040517f08c379a000000000000000000000000000000000000000000000000000000000815260040161141290612615565b60405180910390fd5b82816004019080519060200190611433929190611d37565b50816002015481600501819055507fb3447c6de1d70d27939345be37b9c609fbccee94d8b16186ecbcd6136b95c7be82600201548360010154836000018460020154856003015460405161148b959493929190612719565b60405180910390a18160010160008154809291906114a89061299d565b919050555081600001805490508260010154106114fb577f74c97f258db595b9ae4389bbb720db98e2437f4c7e079c5ef85dc56ac62a4d8882600201546040516114f291906126d5565b60405180910390a15b50505050565b6000806000808481526020019081526020016000209050806000018054905081600101541015915050919050565b806000016040518060e001604052806040518060400160405280600881526020017f526163636f6c74610000000000000000000000000000000000000000000000008152508152602001600073ffffffffffffffffffffffffffffffffffffffff168152602001600015158152602001600081526020016000815260200160405180602001604052806000815250815260200183600201548152509080600181540180825580915050600190039060005260206000209060060201600090919091909150600082015181600001908051906020019061160f929190611d37565b5060208201518160010160006101000a81548173ffffffffffffffffffffffffffffffffffffffff021916908373ffffffffffffffffffffffffffffffffffffffff16021790555060408201518160010160146101000a81548160ff021916908315150217905550606082015181600201556080820151816003015560a08201518160040190805190602001906116a7929190611d37565b5060c082015181600501555050806000016040518060e001604052806040518060400160405280600981526020017f54726173706f72746f00000000000000000000000000000000000000000000008152508152602001600073ffffffffffffffffffffffffffffffffffffffff1681526020016000151581526020016000815260200160008152602001604051806020016040528060008152508152602001836002015481525090806001815401808255809150506001900390600052602060002090600602016000909190919091506000820151816000019080519060200190611794929190611d37565b5060208201518160010160006101000a81548173ffffffffffffffffffffffffffffffffffffffff021916908373ffffffffffffffffffffffffffffffffffffffff16021790555060408201518160010160146101000a81548160ff021916908315150217905550606082015181600201556080820151816003015560a082015181600401908051906020019061182c929190611d37565b5060c082015181600501555050806000016040518060e001604052806040518060400160405280600b81526020017f4c61766f72617a696f6e650000000000000000000000000000000000000000008152508152602001600073ffffffffffffffffffffffffffffffffffffffff1681526020016000151581526020016000815260200160008152602001604051806020016040528060008152508152602001836002015481525090806001815401808255809150506001900390600052602060002090600602016000909190919091506000820151816000019080519060200190611919929190611d37565b5060208201518160010160006101000a81548173ffffffffffffffffffffffffffffffffffffffff021916908373ffffffffffffffffffffffffffffffffffffffff16021790555060408201518160010160146101000a81548160ff021916908315150217905550606082015181600201556080820151816003015560a08201518160040190805190602001906119b1929190611d37565b5060c082015181600501555050806000016040518060e001604052806040518060400160405280600f81526020017f436f6e66657a696f6e616d656e746f00000000000000000000000000000000008152508152602001600073ffffffffffffffffffffffffffffffffffffffff1681526020016000151581526020016000815260200160008152602001604051806020016040528060008152508152602001836002015481525090806001815401808255809150506001900390600052602060002090600602016000909190919091506000820151816000019080519060200190611a9e929190611d37565b5060208201518160010160006101000a81548173ffffffffffffffffffffffffffffffffffffffff021916908373ffffffffffffffffffffffffffffffffffffffff16021790555060408201518160010160146101000a81548160ff021916908315150217905550606082015181600201556080820151816003015560a0820151816004019080519060200190611b36929190611d37565b5060c082015181600501555050806000016040518060e001604052806040518060400160405280600d81526020017f44697374726962757a696f6e65000000000000000000000000000000000000008152508152602001600073ffffffffffffffffffffffffffffffffffffffff1681526020016000151581526020016000815260200160008152602001604051806020016040528060008152508152602001836002015481525090806001815401808255809150506001900390600052602060002090600602016000909190919091506000820151816000019080519060200190611c23929190611d37565b5060208201518160010160006101000a81548173ffffffffffffffffffffffffffffffffffffffff021916908373ffffffffffffffffffffffffffffffffffffffff16021790555060408201518160010160146101000a81548160ff021916908315150217905550606082015181600201556080820151816003015560a0820151816004019080519060200190611cbb929190611d37565b5060c0820151816005015550506000816001018190555050565b6000808251119050919050565b6040518060e0016040528060608152602001600073ffffffffffffffffffffffffffffffffffffffff168152602001600015158152602001600081526020016000815260200160608152602001600081525090565b828054611d439061296b565b90600052602060002090601f016020900481019282611d655760008555611dac565b82601f10611d7e57805160ff1916838001178555611dac565b82800160010185558215611dac579182015b82811115611dab578251825591602001919060010190611d90565b5b509050611db99190611dbd565b5090565b5b80821115611dd6576000816000905550600101611dbe565b5090565b6000611ded611de8846127a4565b612773565b905082815260208101848484011115611e0557600080fd5b611e10848285612929565b509392505050565b600081359050611e2781612ac7565b92915050565b600081359050611e3c81612ade565b92915050565b600082601f830112611e5357600080fd5b8135611e63848260208601611dda565b91505092915050565b600081359050611e7b81612aee565b92915050565b600060208284031215611e9357600080fd5b6000611ea184828501611e18565b91505092915050565b60008060408385031215611ebd57600080fd5b6000611ecb85828601611e18565b9250506020611edc85828601611e2d565b9150509250929050565b600060208284031215611ef857600080fd5b6000611f0684828501611e6c565b91505092915050565b60008060408385031215611f2257600080fd5b6000611f3085828601611e6c565b925050602083013567ffffffffffffffff811115611f4d57600080fd5b611f5985828601611e42565b9150509250929050565b60008060408385031215611f7657600080fd5b6000611f8485828601611e6c565b9250506020611f9585828601611e6c565b9150509250929050565b600080600060608486031215611fb457600080fd5b6000611fc286828701611e6c565b9350506020611fd386828701611e6c565b9250506040611fe486828701611e18565b9150509250925092565b6000611ffa838361201a565b60208301905092915050565b60006120128383612442565b905092915050565b612023816128bc565b82525050565b612032816128bc565b82525050565b600061204382612809565b61204d8185612844565b9350612058836127d4565b8060005b838110156120895781516120708882611fee565b975061207b8361282a565b92505060018101905061205c565b5085935050505092915050565b60006120a182612814565b6120ab8185612855565b9350836020820285016120bd856127e4565b8060005b858110156120f957848403895281516120da8582612006565b94506120e583612837565b925060208a019950506001810190506120c1565b50829750879550505050505092915050565b612114816128ce565b82525050565b612123816128ce565b82525050565b61213281612917565b82525050565b60006121438261281f565b61214d8185612866565b935061215d818560208601612938565b61216681612aa2565b840191505092915050565b600061217c8261281f565b6121868185612877565b9350612196818560208601612938565b61219f81612aa2565b840191505092915050565b600081546121b78161296b565b6121c18186612877565b945060018216600081146121dc57600181146121ee57612221565b60ff1983168652602086019350612221565b6121f7856127f4565b60005b83811015612219578154818901526001820191506020810190506121fa565b808801955050505b50505092915050565b6000612237602883612877565b91507f4c6f636174696f6e206973206e6f7420726561736f6e61626c6520666f72207460008301527f68697320737465700000000000000000000000000000000000000000000000006020830152604082019050919050565b600061229d602783612877565b91507f4f6e6c792073757065727669736f722063616e20706572666f726d207468697360008301527f20616374696f6e000000000000000000000000000000000000000000000000006020830152604082019050919050565b6000612303602e83612877565b91507f4f6e6c792061737369676e65642073757065727669736f722063616e20636f6d60008301527f706c6574652074686520737465700000000000000000000000000000000000006020830152604082019050919050565b6000612369602283612877565b91507f4f6e6c792061646d696e2063616e20706572666f726d2074686973206163746960008301527f6f6e0000000000000000000000000000000000000000000000000000000000006020830152604082019050919050565b60006123cf601783612877565b91507f5374657020696e646578206f7574206f662072616e67650000000000000000006000830152602082019050919050565b600061240f601f83612877565b91507f416c6c2073746570732061726520616c726561647920636f6d706c65746564006000830152602082019050919050565b600060e083016000830151848203600086015261245f8282612138565b9150506020830151612474602086018261201a565b506040830151612487604086018261210b565b50606083015161249a60608601826124e5565b5060808301516124ad60808601826124e5565b5060a083015184820360a08601526124c58282612138565b91505060c08301516124da60c08601826124e5565b508091505092915050565b6124ee8161290d565b82525050565b6124fd8161290d565b82525050565b60006020820190506125186000830184612029565b92915050565b600060208201905081810360008301526125388184612038565b905092915050565b6000602082019050818103600083015261255a8184612096565b905092915050565b6000602082019050612577600083018461211a565b92915050565b60006020820190506125926000830184612129565b92915050565b600060e08201905081810360008301526125b2818a612171565b90506125c16020830189612029565b6125ce604083018861211a565b6125db60608301876124f4565b6125e860808301866124f4565b81810360a08301526125fa8185612171565b905061260960c08301846124f4565b98975050505050505050565b6000602082019050818103600083015261262e8161222a565b9050919050565b6000602082019050818103600083015261264e81612290565b9050919050565b6000602082019050818103600083015261266e816122f6565b9050919050565b6000602082019050818103600083015261268e8161235c565b9050919050565b600060208201905081810360008301526126ae816123c2565b9050919050565b600060208201905081810360008301526126ce81612402565b9050919050565b60006020820190506126ea60008301846124f4565b92915050565b600060408201905061270560008301856124f4565b61271260208301846124f4565b9392505050565b600060a08201905061272e60008301886124f4565b61273b60208301876124f4565b818103604083015261274d81866121aa565b905061275c60608301856124f4565b61276960808301846124f4565b9695505050505050565b6000604051905081810181811067ffffffffffffffff8211171561279a57612799612a73565b5b8060405250919050565b600067ffffffffffffffff8211156127bf576127be612a73565b5b601f19601f8301169050602081019050919050565b6000819050602082019050919050565b6000819050602082019050919050565b60008190508160005260206000209050919050565b600081519050919050565b600081519050919050565b600081519050919050565b6000602082019050919050565b6000602082019050919050565b600082825260208201905092915050565b600082825260208201905092915050565b600082825260208201905092915050565b600082825260208201905092915050565b60006128938261290d565b915061289e8361290d565b9250828210156128b1576128b06129e6565b5b828203905092915050565b60006128c7826128ed565b9050919050565b60008115159050919050565b60008190506128e882612ab3565b919050565b600073ffffffffffffffffffffffffffffffffffffffff82169050919050565b6000819050919050565b6000612922826128da565b9050919050565b82818337600083830152505050565b60005b8381101561295657808201518184015260208101905061293b565b83811115612965576000848401525b50505050565b6000600282049050600182168061298357607f821691505b6020821081141561299757612996612a44565b5b50919050565b60006129a88261290d565b91507fffffffffffffffffffffffffffffffffffffffffffffffffffffffffffffffff8214156129db576129da6129e6565b5b600182019050919050565b7f4e487b7100000000000000000000000000000000000000000000000000000000600052601160045260246000fd5b7f4e487b7100000000000000000000000000000000000000000000000000000000600052602160045260246000fd5b7f4e487b7100000000000000000000000000000000000000000000000000000000600052602260045260246000fd5b7f4e487b7100000000000000000000000000000000000000000000000000000000600052604160045260246000fd5b6000601f19601f8301169050919050565b60048110612ac457612ac3612a15565b5b50565b612ad0816128bc565b8114612adb57600080fd5b50565b60048110612aeb57600080fd5b50565b612af78161290d565b8114612b0257600080fd5b5056fea26469706673582212205303a320b1af2a6075ed695075b447525829ab9616dc99826314b2aee266101f64736f6c63430008000033",
  "immutableReferences": {},
  "source": "// SPDX-License-Identifier: MIT\r\npragma solidity ^0.8.0;\r\n\r\ncontract MilkChain {\r\n\r\n    enum Role { None, Admin, Supervisor, Operator }\r\n\r\n    struct Step {\r\n        string name;\r\n        address supervisor;\r\n        bool completed;\r\n        uint startTime;\r\n        uint endTime;\r\n        string location;\r\n        uint lotNumber;\r\n    }\r\n\r\n    struct Process {\r\n        Step[] steps;\r\n        uint currentStepIndex;\r\n        uint lotNumber;\r\n    }\r\n\r\n    mapping(uint => Process) public processes;\r\n    mapping(address => Role) public roles;\r\n    mapping(address => bool) private allAccounts;\r\n    address[] private accountList;\r\n    uint public currentLotNumber;\r\n    address public owner;\r\n\r\n    event StepCompleted(uint lotNumber, uint stepIndex, string name, uint startTime, uint endTime);\r\n    event ProcessReset(uint newLotNumber);\r\n    event RoleAssigned(address indexed account, Role role);\r\n\r\n    modifier onlyAdmin() {\r\n        require(roles[msg.sender] == Role.Admin, \"Only admin can perform this action\");\r\n        _;\r\n    }\r\n\r\n    modifier onlySupervisor() {\r\n        require(roles[msg.sender] == Role.Supervisor, \"Only supervisor can perform this action\");\r\n        _;\r\n    }\r\n\r\n    constructor() {\r\n        owner = msg.sender;\r\n        roles[owner] = Role.Admin;\r\n        currentLotNumber = 1; \r\n        allAccounts[owner] = true;\r\n        accountList.push(owner);\r\n    }\r\n\r\n    function assignRole(address account, Role role) public onlyAdmin {\r\n        roles[account] = role;\r\n        if (!allAccounts[account]) {\r\n            allAccounts[account] = true;\r\n            accountList.push(account);\r\n        }\r\n        emit RoleAssigned(account, role);\r\n    }\r\n\r\n    function createNewProcess() public onlyAdmin {\r\n        Process storage newProcess = processes[currentLotNumber];\r\n        newProcess.lotNumber = currentLotNumber;\r\n        initializeSteps(newProcess);\r\n        currentLotNumber++;\r\n    }\r\n\r\n    function initializeSteps(Process storage process) internal {\r\n        process.steps.push(Step(\"Raccolta\", address(0), false, 0, 0, \"\", process.lotNumber));\r\n        process.steps.push(Step(\"Trasporto\", address(0), false, 0, 0, \"\", process.lotNumber));\r\n        process.steps.push(Step(\"Lavorazione\", address(0), false, 0, 0, \"\", process.lotNumber));\r\n        process.steps.push(Step(\"Confezionamento\", address(0), false, 0, 0, \"\", process.lotNumber));\r\n        process.steps.push(Step(\"Distribuzione\", address(0), false, 0, 0, \"\", process.lotNumber));\r\n        process.currentStepIndex = 0;\r\n    }\r\n\r\n    function assignSupervisor(uint lotNumber, uint stepIndex, address supervisor) public onlyAdmin {\r\n        Process storage process = processes[lotNumber];\r\n        require(stepIndex < process.steps.length, \"Step index out of range\");\r\n        process.steps[stepIndex].supervisor = supervisor;\r\n    }\r\n\r\n    function completeStep(uint lotNumber, string memory _location) public onlySupervisor {\r\n        Process storage process = processes[lotNumber];\r\n        require(process.currentStepIndex < process.steps.length, \"All steps are already completed\");\r\n        Step storage step = process.steps[process.currentStepIndex];\r\n        require(msg.sender == step.supervisor, \"Only assigned supervisor can complete the step\");\r\n        step.completed = true;\r\n        step.endTime = block.timestamp;\r\n        \r\n        if (process.currentStepIndex == 0) {\r\n            step.startTime = block.timestamp;\r\n        } else {\r\n            step.startTime = process.steps[process.currentStepIndex - 1].endTime;\r\n        }\r\n\r\n        require(isReasonableLocation(_location), \"Location is not reasonable for this step\");\r\n\r\n        step.location = _location;\r\n        step.lotNumber = process.lotNumber;\r\n\r\n        emit StepCompleted(process.lotNumber, process.currentStepIndex, step.name, step.startTime, step.endTime);\r\n        process.currentStepIndex++;\r\n\r\n        if (process.currentStepIndex >= process.steps.length) {\r\n            emit ProcessReset(process.lotNumber);\r\n        }\r\n    }\r\n\r\n    function isReasonableLocation(string memory _location) internal pure returns (bool) {\r\n        return bytes(_location).length > 0;\r\n    }\r\n\r\n    function getStepsLength(uint lotNumber) public view returns (uint) {\r\n        return processes[lotNumber].steps.length;\r\n    }\r\n\r\n    function getStep(uint lotNumber, uint index) public view returns (string memory, address, bool, uint, uint, string memory, uint) {\r\n        Process storage process = processes[lotNumber];\r\n        require(index < process.steps.length, \"Step index out of range\");\r\n        Step storage step = process.steps[index];\r\n        return (step.name, step.supervisor, step.completed, step.startTime, step.endTime, step.location, step.lotNumber);\r\n    }\r\n\r\n    function isProcessCompleted(uint lotNumber) public view returns (bool) {\r\n        Process storage process = processes[lotNumber];\r\n        return process.currentStepIndex >= process.steps.length;\r\n    }\r\n\r\n    function getCurrentStepIndex(uint lotNumber) public view returns (uint) {\r\n        return processes[lotNumber].currentStepIndex;\r\n    }\r\n\r\n    function getCurrentLotNumber() public view returns (uint) {\r\n        return currentLotNumber;\r\n    }\r\n\r\n    function getLot(uint lotNumber) public view returns (Step[] memory) {\r\n        Process storage process = processes[lotNumber];\r\n        uint count = 0;\r\n        for (uint i = 0; i < process.steps.length; i++) {\r\n            if (process.steps[i].completed) {\r\n                count++;\r\n            }\r\n        }\r\n\r\n        Step[] memory lotSteps = new Step[](count);\r\n        uint index = 0;\r\n        for (uint i = 0; i < process.steps.length; i++) {\r\n            if (process.steps[i].completed) {\r\n                lotSteps[index] = process.steps[i];\r\n                index++;\r\n            }\r\n        }\r\n        return lotSteps;\r\n    }\r\n\r\n    function getAllAccounts() public view returns (address[] memory) {\r\n        return accountList;\r\n    }\r\n}",
  "sourcePath": "C:\\Users\\samue\\Desktop\\MilkChain\\backend\\contracts\\MilkChain.sol",
  "compiler": {
    "name": "solc",
    "version": "0.8.0+commit.c7dfd78e.Emscripten.clang"
  },
  "schemaVersion": "3.4.16",
  "updatedAt": "2024-07-02T02:55:05.290Z",
  "networkType": "ethereum",
  "devdoc": {
    "kind": "dev",
    "methods": {},
    "version": 1
  },
  "userdoc": {
    "kind": "user",
    "methods": {},
    "version": 1
  }
}