{
  "contractName": "MilkChain",
  "abi": [
    {
      "inputs": [],
      "stateMutability": "nonpayable",
      "type": "constructor"
    },
    {
      "inputs": [],
      "name": "currentLotNumber",
      "outputs": [
        {
          "internalType": "uint256",
          "name": "",
          "type": "uint256"
        }
      ],
      "stateMutability": "view",
      "type": "function"
    },
    {
      "inputs": [],
      "name": "owner",
      "outputs": [
        {
          "internalType": "address",
          "name": "",
          "type": "address"
        }
      ],
      "stateMutability": "view",
      "type": "function"
    },
    {
      "inputs": [
        {
          "internalType": "uint256",
          "name": "",
          "type": "uint256"
        }
      ],
      "name": "processes",
      "outputs": [
        {
          "internalType": "uint256",
          "name": "currentStepIndex",
          "type": "uint256"
        },
        {
          "internalType": "uint256",
          "name": "lotNumber",
          "type": "uint256"
        }
      ],
      "stateMutability": "view",
      "type": "function"
    },
    {
      "inputs": [
        {
          "internalType": "address",
          "name": "",
          "type": "address"
        }
      ],
      "name": "roles",
      "outputs": [
        {
          "internalType": "enum MilkChain.Role",
          "name": "",
          "type": "uint8"
        }
      ],
      "stateMutability": "view",
      "type": "function"
    },
    {
      "inputs": [],
      "name": "createNewProcess",
      "outputs": [],
      "stateMutability": "nonpayable",
      "type": "function"
    },
    {
      "inputs": [
        {
          "internalType": "uint256",
          "name": "lotNumber",
          "type": "uint256"
        },
        {
          "internalType": "uint256",
          "name": "stepIndex",
          "type": "uint256"
        },
        {
          "internalType": "address",
          "name": "supervisor",
          "type": "address"
        }
      ],
      "name": "assignSupervisor",
      "outputs": [],
      "stateMutability": "nonpayable",
      "type": "function"
    },
    {
      "inputs": [
        {
          "internalType": "uint256",
          "name": "lotNumber",
          "type": "uint256"
        },
        {
          "internalType": "string",
          "name": "_location",
          "type": "string"
        }
      ],
      "name": "completeStep",
      "outputs": [],
      "stateMutability": "nonpayable",
      "type": "function"
    },
    {
      "inputs": [
        {
          "internalType": "uint256",
          "name": "lotNumber",
          "type": "uint256"
        }
      ],
      "name": "isProcessCompleted",
      "outputs": [
        {
          "internalType": "bool",
          "name": "",
          "type": "bool"
        }
      ],
      "stateMutability": "view",
      "type": "function"
    },
    {
      "inputs": [
        {
          "internalType": "uint256",
          "name": "lotNumber",
          "type": "uint256"
        }
      ],
      "name": "getStepsLength",
      "outputs": [
        {
          "internalType": "uint256",
          "name": "",
          "type": "uint256"
        }
      ],
      "stateMutability": "view",
      "type": "function"
    },
    {
      "inputs": [
        {
          "internalType": "uint256",
          "name": "lotNumber",
          "type": "uint256"
        },
        {
          "internalType": "uint256",
          "name": "index",
          "type": "uint256"
        }
      ],
      "name": "getStep",
      "outputs": [
        {
          "internalType": "string",
          "name": "",
          "type": "string"
        },
        {
          "internalType": "address",
          "name": "",
          "type": "address"
        },
        {
          "internalType": "bool",
          "name": "",
          "type": "bool"
        },
        {
          "internalType": "uint256",
          "name": "",
          "type": "uint256"
        },
        {
          "internalType": "uint256",
          "name": "",
          "type": "uint256"
        },
        {
          "internalType": "string",
          "name": "",
          "type": "string"
        },
        {
          "internalType": "uint256",
          "name": "",
          "type": "uint256"
        }
      ],
      "stateMutability": "view",
      "type": "function"
    },
    {
      "inputs": [
        {
          "internalType": "uint256",
          "name": "lotNumber",
          "type": "uint256"
        }
      ],
      "name": "getCurrentStepIndex",
      "outputs": [
        {
          "internalType": "uint256",
          "name": "",
          "type": "uint256"
        }
      ],
      "stateMutability": "view",
      "type": "function"
    },
    {
      "inputs": [],
      "name": "getCurrentLotNumber",
      "outputs": [
        {
          "internalType": "uint256",
          "name": "",
          "type": "uint256"
        }
      ],
      "stateMutability": "view",
      "type": "function"
    },
    {
      "inputs": [
        {
          "internalType": "uint256",
          "name": "lotNumber",
          "type": "uint256"
        }
      ],
      "name": "getLot",
      "outputs": [
        {
          "components": [
            {
              "internalType": "string",
              "name": "name",
              "type": "string"
            },
            {
              "internalType": "address",
              "name": "supervisor",
              "type": "address"
            },
            {
              "internalType": "bool",
              "name": "completed",
              "type": "bool"
            },
            {
              "internalType": "uint256",
              "name": "startTime",
              "type": "uint256"
            },
            {
              "internalType": "uint256",
              "name": "endTime",
              "type": "uint256"
            },
            {
              "internalType": "string",
              "name": "location",
              "type": "string"
            },
            {
              "internalType": "uint256",
              "name": "lotNumber",
              "type": "uint256"
            }
          ],
          "internalType": "struct MilkChain.Step[]",
          "name": "",
          "type": "tuple[]"
        }
      ],
      "stateMutability": "view",
      "type": "function"
    },
    {
      "inputs": [],
      "name": "getAllAccounts",
      "outputs": [
        {
          "internalType": "address[]",
          "name": "",
          "type": "address[]"
        }
      ],
      "stateMutability": "view",
      "type": "function"
    },
    {
      "inputs": [
        {
          "internalType": "address",
          "name": "account",
          "type": "address"
        },
        {
          "internalType": "enum MilkChain.Role",
          "name": "role",
          "type": "uint8"
        }
      ],
      "name": "assignRole",
      "outputs": [],
      "stateMutability": "nonpayable",
      "type": "function"
    },
    {
      "inputs": [
        {
          "internalType": "address",
          "name": "account",
          "type": "address"
        }
      ],
      "name": "removeRole",
      "outputs": [],
      "stateMutability": "nonpayable",
      "type": "function"
    }
  ],
  "bytecode": "0x608060405234801561001057600080fd5b5033600460006101000a81548173ffffffffffffffffffffffffffffffffffffffff021916908373ffffffffffffffffffffffffffffffffffffffff1602179055506001806000600460009054906101000a900473ffffffffffffffffffffffffffffffffffffffff1673ffffffffffffffffffffffffffffffffffffffff1673ffffffffffffffffffffffffffffffffffffffff16815260200190815260200160002060006101000a81548160ff021916908360038111156100fc577f4e487b7100000000000000000000000000000000000000000000000000000000600052602160045260246000fd5b021790555060016003819055506002600460009054906101000a900473ffffffffffffffffffffffffffffffffffffffff169080600181540180825580915050600190039060005260206000200160009091909190916101000a81548173ffffffffffffffffffffffffffffffffffffffff021916908373ffffffffffffffffffffffffffffffffffffffff16021790555061320c8061019d6000396000f3fe608060405234801561001057600080fd5b50600436106101005760003560e01c8063893c12dd11610097578063ad1e954e11610066578063ad1e954e146102c6578063c9b021c2146102e4578063d996570e14610302578063f13b25961461031e57610100565b8063893c12dd1461022c5780638da5cb5b146102485780639937464214610266578063ab995d121461029657610100565b8063579e51c7116100d3578063579e51c7146101a5578063630a195b146101d65780637bc23f61146101f2578063848d8dac1461022257610100565b806308c0cad61461010557806308e93d0a146101355780634762155d146101535780634db045081461016f575b600080fd5b61011f600480360381019061011a9190612514565b61034e565b60405161012c9190612e15565b60405180910390f35b61013d610370565b60405161014a9190612bfe565b60405180910390f35b61016d600480360381019061016891906124af565b6103fe565b005b61018960048036038101906101849190612591565b6106a9565b60405161019c9796959493929190612c78565b60405180910390f35b6101bf60048036038101906101ba9190612514565b6108e3565b6040516101cd929190612e30565b60405180910390f35b6101f060048036038101906101eb91906124d8565b610907565b005b61020c60048036038101906102079190612514565b610d19565b6040516102199190612e15565b60405180910390f35b61022a610d38565b005b610246600480360381019061024191906125cd565b610ed1565b005b6102506110c1565b60405161025d9190612be3565b60405180910390f35b610280600480360381019061027b91906124af565b6110e7565b60405161028d9190612c5d565b60405180910390f35b6102b060048036038101906102ab9190612514565b611107565b6040516102bd9190612c20565b60405180910390f35b6102ce611334565b6040516102db9190612e15565b60405180910390f35b6102ec61133e565b6040516102f99190612e15565b60405180910390f35b61031c6004803603810190610317919061253d565b611344565b005b61033860048036038101906103339190612514565b61171c565b6040516103459190612c42565b60405180910390f35b6000806000838152602001908152602001600020600001805490509050919050565b606060028054806020026020016040519081016040528092919081815260200182805480156103f457602002820191906000526020600020905b8160009054906101000a900473ffffffffffffffffffffffffffffffffffffffff1673ffffffffffffffffffffffffffffffffffffffff16815260200190600101908083116103aa575b5050505050905090565b60016003811115610438577f4e487b7100000000000000000000000000000000000000000000000000000000600052602160045260246000fd5b600160003373ffffffffffffffffffffffffffffffffffffffff1673ffffffffffffffffffffffffffffffffffffffff16815260200190815260200160002060009054906101000a900460ff1660038111156104bd577f4e487b7100000000000000000000000000000000000000000000000000000000600052602160045260246000fd5b146104fd576040517f08c379a00000000000000000000000000000000000000000000000000000000081526004016104f490612d75565b60405180910390fd5b60016003811115610537577f4e487b7100000000000000000000000000000000000000000000000000000000600052602160045260246000fd5b600160008373ffffffffffffffffffffffffffffffffffffffff1673ffffffffffffffffffffffffffffffffffffffff16815260200190815260200160002060009054906101000a900460ff1660038111156105bc577f4e487b7100000000000000000000000000000000000000000000000000000000600052602160045260246000fd5b1415806105d0575060016105ce61174a565b115b61060f576040517f08c379a000000000000000000000000000000000000000000000000000000000815260040161060690612db5565b60405180910390fd5b6000600160008373ffffffffffffffffffffffffffffffffffffffff1673ffffffffffffffffffffffffffffffffffffffff16815260200190815260200160002060006101000a81548160ff02191690836003811115610698577f4e487b7100000000000000000000000000000000000000000000000000000000600052602160045260246000fd5b02179055506106a6816118b4565b50565b606060008060008060606000806000808b8152602001908152602001600020905080600001805490508910610713576040517f08c379a000000000000000000000000000000000000000000000000000000000815260040161070a90612d95565b60405180910390fd5b6000816000018a81548110610751577f4e487b7100000000000000000000000000000000000000000000000000000000600052603260045260246000fd5b90600052602060002090600602019050806000018160010160009054906101000a900473ffffffffffffffffffffffffffffffffffffffff168260010160149054906101000a900460ff16836002015484600301548560040186600501548680546107bb9061303c565b80601f01602080910402602001604051908101604052809291908181526020018280546107e79061303c565b80156108345780601f1061080957610100808354040283529160200191610834565b820191906000526020600020905b81548152906001019060200180831161081757829003601f168201915b505050505096508180546108479061303c565b80601f01602080910402602001604051908101604052809291908181526020018280546108739061303c565b80156108c05780601f10610895576101008083540402835291602001916108c0565b820191906000526020600020905b8154815290600101906020018083116108a357829003601f168201915b505050505091509850985098509850985098509850505092959891949750929550565b60006020528060005260406000206000915090508060010154908060020154905082565b60016003811115610941577f4e487b7100000000000000000000000000000000000000000000000000000000600052602160045260246000fd5b600160003373ffffffffffffffffffffffffffffffffffffffff1673ffffffffffffffffffffffffffffffffffffffff16815260200190815260200160002060009054906101000a900460ff1660038111156109c6577f4e487b7100000000000000000000000000000000000000000000000000000000600052602160045260246000fd5b14610a06576040517f08c379a00000000000000000000000000000000000000000000000000000000081526004016109fd90612d75565b60405180910390fd5b60016003811115610a40577f4e487b7100000000000000000000000000000000000000000000000000000000600052602160045260246000fd5b600160008473ffffffffffffffffffffffffffffffffffffffff1673ffffffffffffffffffffffffffffffffffffffff16815260200190815260200160002060009054906101000a900460ff166003811115610ac5577f4e487b7100000000000000000000000000000000000000000000000000000000600052602160045260246000fd5b141580610ad957506001610ad761174a565b115b610b18576040517f08c379a0000000000000000000000000000000000000000000000000000000008152600401610b0f90612d35565b60405180910390fd5b806003811115610b51577f4e487b7100000000000000000000000000000000000000000000000000000000600052602160045260246000fd5b600160008473ffffffffffffffffffffffffffffffffffffffff1673ffffffffffffffffffffffffffffffffffffffff16815260200190815260200160002060009054906101000a900460ff166003811115610bd6577f4e487b7100000000000000000000000000000000000000000000000000000000600052602160045260246000fd5b1415610c17576040517f08c379a0000000000000000000000000000000000000000000000000000000008152600401610c0e90612dd5565b60405180910390fd5b80600160008473ffffffffffffffffffffffffffffffffffffffff1673ffffffffffffffffffffffffffffffffffffffff16815260200190815260200160002060006101000a81548160ff02191690836003811115610c9f577f4e487b7100000000000000000000000000000000000000000000000000000000600052602160045260246000fd5b0217905550610cad82611add565b610d15576002829080600181540180825580915050600190039060005260206000200160009091909190916101000a81548173ffffffffffffffffffffffffffffffffffffffff021916908373ffffffffffffffffffffffffffffffffffffffff1602179055505b5050565b6000806000838152602001908152602001600020600101549050919050565b60016003811115610d72577f4e487b7100000000000000000000000000000000000000000000000000000000600052602160045260246000fd5b600160003373ffffffffffffffffffffffffffffffffffffffff1673ffffffffffffffffffffffffffffffffffffffff16815260200190815260200160002060009054906101000a900460ff166003811115610df7577f4e487b7100000000000000000000000000000000000000000000000000000000600052602160045260246000fd5b14610e37576040517f08c379a0000000000000000000000000000000000000000000000000000000008152600401610e2e90612d75565b60405180910390fd5b6000806000600354815260200190815260200160002090506003548160020181905550610e6381611bb2565b4281600001600081548110610ea1577f4e487b7100000000000000000000000000000000000000000000000000000000600052603260045260246000fd5b90600052602060002090600602016002018190555060036000815480929190610ec99061306e565b919050555050565b60016003811115610f0b577f4e487b7100000000000000000000000000000000000000000000000000000000600052602160045260246000fd5b600160003373ffffffffffffffffffffffffffffffffffffffff1673ffffffffffffffffffffffffffffffffffffffff16815260200190815260200160002060009054906101000a900460ff166003811115610f90577f4e487b7100000000000000000000000000000000000000000000000000000000600052602160045260246000fd5b14610fd0576040517f08c379a0000000000000000000000000000000000000000000000000000000008152600401610fc790612d75565b60405180910390fd5b600080600085815260200190815260200160002090508060000180549050831061102f576040517f08c379a000000000000000000000000000000000000000000000000000000000815260040161102690612d95565b60405180910390fd5b8181600001848154811061106c577f4e487b7100000000000000000000000000000000000000000000000000000000600052603260045260246000fd5b906000526020600020906006020160010160006101000a81548173ffffffffffffffffffffffffffffffffffffffff021916908373ffffffffffffffffffffffffffffffffffffffff16021790555050505050565b600460009054906101000a900473ffffffffffffffffffffffffffffffffffffffff1681565b60016020528060005260406000206000915054906101000a900460ff1681565b60606000806000848152602001908152602001600020905080600001805480602002602001604051908101604052809291908181526020016000905b8282101561132857838290600052602060002090600602016040518060e00160405290816000820180546111769061303c565b80601f01602080910402602001604051908101604052809291908181526020018280546111a29061303c565b80156111ef5780601f106111c4576101008083540402835291602001916111ef565b820191906000526020600020905b8154815290600101906020018083116111d257829003601f168201915b505050505081526020016001820160009054906101000a900473ffffffffffffffffffffffffffffffffffffffff1673ffffffffffffffffffffffffffffffffffffffff1673ffffffffffffffffffffffffffffffffffffffff1681526020016001820160149054906101000a900460ff16151515158152602001600282015481526020016003820154815260200160048201805461128d9061303c565b80601f01602080910402602001604051908101604052809291908181526020018280546112b99061303c565b80156113065780601f106112db57610100808354040283529160200191611306565b820191906000526020600020905b8154815290600101906020018083116112e957829003601f168201915b5050505050815260200160058201548152505081526020019060010190611143565b50505050915050919050565b6000600354905090565b60035481565b6002600381111561137e577f4e487b7100000000000000000000000000000000000000000000000000000000600052602160045260246000fd5b600160003373ffffffffffffffffffffffffffffffffffffffff1673ffffffffffffffffffffffffffffffffffffffff16815260200190815260200160002060009054906101000a900460ff166003811115611403577f4e487b7100000000000000000000000000000000000000000000000000000000600052602160045260246000fd5b14611443576040517f08c379a000000000000000000000000000000000000000000000000000000000815260040161143a90612d15565b60405180910390fd5b6000806000848152602001908152602001600020905080600001805490508160010154106114a6576040517f08c379a000000000000000000000000000000000000000000000000000000000815260040161149d90612df5565b60405180910390fd5b6000816000018260010154815481106114e8577f4e487b7100000000000000000000000000000000000000000000000000000000600052603260045260246000fd5b906000526020600020906006020190508060010160009054906101000a900473ffffffffffffffffffffffffffffffffffffffff1673ffffffffffffffffffffffffffffffffffffffff163373ffffffffffffffffffffffffffffffffffffffff161461158a576040517f08c379a000000000000000000000000000000000000000000000000000000000815260040161158190612d55565b60405180910390fd5b60018160010160146101000a81548160ff0219169083151502179055504281600301819055506000826001015411156116245781600001600183600101546115d29190612f59565b81548110611609577f4e487b7100000000000000000000000000000000000000000000000000000000600052603260045260246000fd5b90600052602060002090600602016003015481600201819055505b61162d83612358565b61166c576040517f08c379a000000000000000000000000000000000000000000000000000000000815260040161166390612cf5565b60405180910390fd5b82816004019080519060200190611684929190612365565b50816002015481600501819055508160010160008154809291906116a79061306e565b9190505550816000018054905082600101541015611716574282600001836001015481548110611700577f4e487b7100000000000000000000000000000000000000000000000000000000600052603260045260246000fd5b9060005260206000209060060201600201819055505b50505050565b6000806000808481526020019081526020016000209050806000018054905081600101541015915050919050565b6000806000905060005b6002805490508110156118ac576001600381111561179b577f4e487b7100000000000000000000000000000000000000000000000000000000600052602160045260246000fd5b60016000600284815481106117d9577f4e487b7100000000000000000000000000000000000000000000000000000000600052603260045260246000fd5b9060005260206000200160009054906101000a900473ffffffffffffffffffffffffffffffffffffffff1673ffffffffffffffffffffffffffffffffffffffff1673ffffffffffffffffffffffffffffffffffffffff16815260200190815260200160002060009054906101000a900460ff166003811115611884577f4e487b7100000000000000000000000000000000000000000000000000000000600052602160045260246000fd5b14156118995781806118959061306e565b9250505b80806118a49061306e565b915050611754565b508091505090565b60005b600280549050811015611ad9578173ffffffffffffffffffffffffffffffffffffffff1660028281548110611915577f4e487b7100000000000000000000000000000000000000000000000000000000600052603260045260246000fd5b9060005260206000200160009054906101000a900473ffffffffffffffffffffffffffffffffffffffff1673ffffffffffffffffffffffffffffffffffffffff161415611ac657600260016002805490506119709190612f59565b815481106119a7577f4e487b7100000000000000000000000000000000000000000000000000000000600052603260045260246000fd5b9060005260206000200160009054906101000a900473ffffffffffffffffffffffffffffffffffffffff1660028281548110611a0c577f4e487b7100000000000000000000000000000000000000000000000000000000600052603260045260246000fd5b9060005260206000200160006101000a81548173ffffffffffffffffffffffffffffffffffffffff021916908373ffffffffffffffffffffffffffffffffffffffff1602179055506002805480611a8c577f4e487b7100000000000000000000000000000000000000000000000000000000600052603160045260246000fd5b6001900381819060005260206000200160006101000a81549073ffffffffffffffffffffffffffffffffffffffff02191690559055611ad9565b8080611ad19061306e565b9150506118b7565b5050565b600080600090505b600280549050811015611ba7578273ffffffffffffffffffffffffffffffffffffffff1660028281548110611b43577f4e487b7100000000000000000000000000000000000000000000000000000000600052603260045260246000fd5b9060005260206000200160009054906101000a900473ffffffffffffffffffffffffffffffffffffffff1673ffffffffffffffffffffffffffffffffffffffff161415611b94576001915050611bad565b8080611b9f9061306e565b915050611ae5565b50600090505b919050565b806000016040518060e001604052806040518060400160405280600881526020017f526163636f6c74610000000000000000000000000000000000000000000000008152508152602001600073ffffffffffffffffffffffffffffffffffffffff1681526020016000151581526020016000815260200160008152602001604051806020016040528060008152508152602001836002015481525090806001815401808255809150506001900390600052602060002090600602016000909190919091506000820151816000019080519060200190611c92929190612365565b5060208201518160010160006101000a81548173ffffffffffffffffffffffffffffffffffffffff021916908373ffffffffffffffffffffffffffffffffffffffff16021790555060408201518160010160146101000a81548160ff021916908315150217905550606082015181600201556080820151816003015560a0820151816004019080519060200190611d2a929190612365565b5060c082015181600501555050806000016040518060e001604052806040518060400160405280600981526020017f54726173706f72746f00000000000000000000000000000000000000000000008152508152602001600073ffffffffffffffffffffffffffffffffffffffff1681526020016000151581526020016000815260200160008152602001604051806020016040528060008152508152602001836002015481525090806001815401808255809150506001900390600052602060002090600602016000909190919091506000820151816000019080519060200190611e17929190612365565b5060208201518160010160006101000a81548173ffffffffffffffffffffffffffffffffffffffff021916908373ffffffffffffffffffffffffffffffffffffffff16021790555060408201518160010160146101000a81548160ff021916908315150217905550606082015181600201556080820151816003015560a0820151816004019080519060200190611eaf929190612365565b5060c082015181600501555050806000016040518060e001604052806040518060400160405280600b81526020017f4c61766f72617a696f6e650000000000000000000000000000000000000000008152508152602001600073ffffffffffffffffffffffffffffffffffffffff1681526020016000151581526020016000815260200160008152602001604051806020016040528060008152508152602001836002015481525090806001815401808255809150506001900390600052602060002090600602016000909190919091506000820151816000019080519060200190611f9c929190612365565b5060208201518160010160006101000a81548173ffffffffffffffffffffffffffffffffffffffff021916908373ffffffffffffffffffffffffffffffffffffffff16021790555060408201518160010160146101000a81548160ff021916908315150217905550606082015181600201556080820151816003015560a0820151816004019080519060200190612034929190612365565b5060c082015181600501555050806000016040518060e001604052806040518060400160405280600f81526020017f436f6e66657a696f6e616d656e746f00000000000000000000000000000000008152508152602001600073ffffffffffffffffffffffffffffffffffffffff1681526020016000151581526020016000815260200160008152602001604051806020016040528060008152508152602001836002015481525090806001815401808255809150506001900390600052602060002090600602016000909190919091506000820151816000019080519060200190612121929190612365565b5060208201518160010160006101000a81548173ffffffffffffffffffffffffffffffffffffffff021916908373ffffffffffffffffffffffffffffffffffffffff16021790555060408201518160010160146101000a81548160ff021916908315150217905550606082015181600201556080820151816003015560a08201518160040190805190602001906121b9929190612365565b5060c082015181600501555050806000016040518060e001604052806040518060400160405280600d81526020017f44697374726962757a696f6e65000000000000000000000000000000000000008152508152602001600073ffffffffffffffffffffffffffffffffffffffff16815260200160001515815260200160008152602001600081526020016040518060200160405280600081525081526020018360020154815250908060018154018082558091505060019003906000526020600020906006020160009091909190915060008201518160000190805190602001906122a6929190612365565b5060208201518160010160006101000a81548173ffffffffffffffffffffffffffffffffffffffff021916908373ffffffffffffffffffffffffffffffffffffffff16021790555060408201518160010160146101000a81548160ff021916908315150217905550606082015181600201556080820151816003015560a082015181600401908051906020019061233e929190612365565b5060c0820151816005015550506000816001018190555050565b6000808251119050919050565b8280546123719061303c565b90600052602060002090601f01602090048101928261239357600085556123da565b82601f106123ac57805160ff19168380011785556123da565b828001600101855582156123da579182015b828111156123d95782518255916020019190600101906123be565b5b5090506123e791906123eb565b5090565b5b808211156124045760008160009055506001016123ec565b5090565b600061241b61241684612e8a565b612e59565b90508281526020810184848401111561243357600080fd5b61243e848285612ffa565b509392505050565b60008135905061245581613198565b92915050565b60008135905061246a816131af565b92915050565b600082601f83011261248157600080fd5b8135612491848260208601612408565b91505092915050565b6000813590506124a9816131bf565b92915050565b6000602082840312156124c157600080fd5b60006124cf84828501612446565b91505092915050565b600080604083850312156124eb57600080fd5b60006124f985828601612446565b925050602061250a8582860161245b565b9150509250929050565b60006020828403121561252657600080fd5b60006125348482850161249a565b91505092915050565b6000806040838503121561255057600080fd5b600061255e8582860161249a565b925050602083013567ffffffffffffffff81111561257b57600080fd5b61258785828601612470565b9150509250929050565b600080604083850312156125a457600080fd5b60006125b28582860161249a565b92505060206125c38582860161249a565b9150509250929050565b6000806000606084860312156125e257600080fd5b60006125f08682870161249a565b93505060206126018682870161249a565b925050604061261286828701612446565b9150509250925092565b60006126288383612648565b60208301905092915050565b60006126408383612b22565b905092915050565b61265181612f8d565b82525050565b61266081612f8d565b82525050565b600061267182612eda565b61267b8185612f15565b935061268683612eba565b8060005b838110156126b757815161269e888261261c565b97506126a983612efb565b92505060018101905061268a565b5085935050505092915050565b60006126cf82612ee5565b6126d98185612f26565b9350836020820285016126eb85612eca565b8060005b8581101561272757848403895281516127088582612634565b945061271383612f08565b925060208a019950506001810190506126ef565b50829750879550505050505092915050565b61274281612f9f565b82525050565b61275181612f9f565b82525050565b61276081612fe8565b82525050565b600061277182612ef0565b61277b8185612f37565b935061278b818560208601613009565b61279481613173565b840191505092915050565b60006127aa82612ef0565b6127b48185612f48565b93506127c4818560208601613009565b6127cd81613173565b840191505092915050565b60006127e5602883612f48565b91507f4c6f636174696f6e206973206e6f7420726561736f6e61626c6520666f72207460008301527f68697320737465700000000000000000000000000000000000000000000000006020830152604082019050919050565b600061284b602783612f48565b91507f4f6e6c792073757065727669736f722063616e20706572666f726d207468697360008301527f20616374696f6e000000000000000000000000000000000000000000000000006020830152604082019050919050565b60006128b1602c83612f48565b91507f4e6f6e2070756f692063616d626961726520696c2072756f6c6f2064656c6c2760008301527f756c74696d6f2061646d696e00000000000000000000000000000000000000006020830152604082019050919050565b6000612917602e83612f48565b91507f4f6e6c792061737369676e65642073757065727669736f722063616e20636f6d60008301527f706c6574652074686520737465700000000000000000000000000000000000006020830152604082019050919050565b600061297d602283612f48565b91507f4f6e6c792061646d696e2063616e20706572666f726d2074686973206163746960008301527f6f6e0000000000000000000000000000000000000000000000000000000000006020830152604082019050919050565b60006129e3601783612f48565b91507f5374657020696e646578206f7574206f662072616e67650000000000000000006000830152602082019050919050565b6000612a23602183612f48565b91507f4e6f6e2070756f692072696d756f76657265206c27756c74696d6f2061646d6960008301527f6e000000000000000000000000000000000000000000000000000000000000006020830152604082019050919050565b6000612a89602283612f48565b91507f51756573746f206163636f756e74206861206769612071756573746f2072756f60008301527f6c6f0000000000000000000000000000000000000000000000000000000000006020830152604082019050919050565b6000612aef601f83612f48565b91507f416c6c2073746570732061726520616c726561647920636f6d706c65746564006000830152602082019050919050565b600060e0830160008301518482036000860152612b3f8282612766565b9150506020830151612b546020860182612648565b506040830151612b676040860182612739565b506060830151612b7a6060860182612bc5565b506080830151612b8d6080860182612bc5565b5060a083015184820360a0860152612ba58282612766565b91505060c0830151612bba60c0860182612bc5565b508091505092915050565b612bce81612fde565b82525050565b612bdd81612fde565b82525050565b6000602082019050612bf86000830184612657565b92915050565b60006020820190508181036000830152612c188184612666565b905092915050565b60006020820190508181036000830152612c3a81846126c4565b905092915050565b6000602082019050612c576000830184612748565b92915050565b6000602082019050612c726000830184612757565b92915050565b600060e0820190508181036000830152612c92818a61279f565b9050612ca16020830189612657565b612cae6040830188612748565b612cbb6060830187612bd4565b612cc86080830186612bd4565b81810360a0830152612cda818561279f565b9050612ce960c0830184612bd4565b98975050505050505050565b60006020820190508181036000830152612d0e816127d8565b9050919050565b60006020820190508181036000830152612d2e8161283e565b9050919050565b60006020820190508181036000830152612d4e816128a4565b9050919050565b60006020820190508181036000830152612d6e8161290a565b9050919050565b60006020820190508181036000830152612d8e81612970565b9050919050565b60006020820190508181036000830152612dae816129d6565b9050919050565b60006020820190508181036000830152612dce81612a16565b9050919050565b60006020820190508181036000830152612dee81612a7c565b9050919050565b60006020820190508181036000830152612e0e81612ae2565b9050919050565b6000602082019050612e2a6000830184612bd4565b92915050565b6000604082019050612e456000830185612bd4565b612e526020830184612bd4565b9392505050565b6000604051905081810181811067ffffffffffffffff82111715612e8057612e7f613144565b5b8060405250919050565b600067ffffffffffffffff821115612ea557612ea4613144565b5b601f19601f8301169050602081019050919050565b6000819050602082019050919050565b6000819050602082019050919050565b600081519050919050565b600081519050919050565b600081519050919050565b6000602082019050919050565b6000602082019050919050565b600082825260208201905092915050565b600082825260208201905092915050565b600082825260208201905092915050565b600082825260208201905092915050565b6000612f6482612fde565b9150612f6f83612fde565b925082821015612f8257612f816130b7565b5b828203905092915050565b6000612f9882612fbe565b9050919050565b60008115159050919050565b6000819050612fb982613184565b919050565b600073ffffffffffffffffffffffffffffffffffffffff82169050919050565b6000819050919050565b6000612ff382612fab565b9050919050565b82818337600083830152505050565b60005b8381101561302757808201518184015260208101905061300c565b83811115613036576000848401525b50505050565b6000600282049050600182168061305457607f821691505b6020821081141561306857613067613115565b5b50919050565b600061307982612fde565b91507fffffffffffffffffffffffffffffffffffffffffffffffffffffffffffffffff8214156130ac576130ab6130b7565b5b600182019050919050565b7f4e487b7100000000000000000000000000000000000000000000000000000000600052601160045260246000fd5b7f4e487b7100000000000000000000000000000000000000000000000000000000600052602160045260246000fd5b7f4e487b7100000000000000000000000000000000000000000000000000000000600052602260045260246000fd5b7f4e487b7100000000000000000000000000000000000000000000000000000000600052604160045260246000fd5b6000601f19601f8301169050919050565b60048110613195576131946130e6565b5b50565b6131a181612f8d565b81146131ac57600080fd5b50565b600481106131bc57600080fd5b50565b6131c881612fde565b81146131d357600080fd5b5056fea2646970667358221220936ad390e149e3ccc0dea962d38706579fa7ac74617dcdae31402e9b79b48c5864736f6c63430008000033",
  "immutableReferences": {},
  "source": "// SPDX-License-Identifier: MIT\r\npragma solidity ^0.8.0;\r\n\r\ncontract MilkChain {\r\n    enum Role {None, Admin, Supervisor, Operator}\r\n    \r\n    struct Step {\r\n        string name;\r\n        address supervisor;\r\n        bool completed;\r\n        uint startTime;\r\n        uint endTime;\r\n        string location;\r\n        uint lotNumber;\r\n    }\r\n\r\n    struct Process {\r\n        Step[] steps;\r\n        uint currentStepIndex;\r\n        uint lotNumber;\r\n    }\r\n\r\n    mapping(uint => Process) public processes;\r\n    mapping(address => Role) public roles;\r\n    address[] private accountList;\r\n    uint public currentLotNumber;\r\n    address public owner;\r\n\r\n    constructor() {\r\n        owner = msg.sender;\r\n        roles[owner] = Role.Admin;\r\n        currentLotNumber = 1;\r\n        accountList.push(owner);\r\n    }\r\n\r\n    function createNewProcess() public onlyAdmin {\r\n        Process storage newProcess = processes[currentLotNumber];\r\n        newProcess.lotNumber = currentLotNumber;\r\n        initializeSteps(newProcess);\r\n        newProcess.steps[0].startTime = block.timestamp;\r\n        currentLotNumber++;\r\n    }\r\n\r\n    function initializeSteps(Process storage process) internal {\r\n        process.steps.push(Step(\"Raccolta\", address(0), false, 0, 0, \"\", process.lotNumber));\r\n        process.steps.push(Step(\"Trasporto\", address(0), false, 0, 0, \"\", process.lotNumber));\r\n        process.steps.push(Step(\"Lavorazione\", address(0), false, 0, 0, \"\", process.lotNumber));\r\n        process.steps.push(Step(\"Confezionamento\", address(0), false, 0, 0, \"\", process.lotNumber));\r\n        process.steps.push(Step(\"Distribuzione\", address(0), false, 0, 0, \"\", process.lotNumber));\r\n        process.currentStepIndex = 0;\r\n    }\r\n\r\n    function assignSupervisor(uint lotNumber, uint stepIndex, address supervisor) public onlyAdmin {\r\n        Process storage process = processes[lotNumber];\r\n        require(stepIndex < process.steps.length, \"Step index out of range\");\r\n        process.steps[stepIndex].supervisor = supervisor;\r\n    }\r\n\r\n    function completeStep(uint lotNumber, string memory _location) public onlySupervisor {\r\n        Process storage process = processes[lotNumber];\r\n        require(process.currentStepIndex < process.steps.length, \"All steps are already completed\");\r\n        Step storage step = process.steps[process.currentStepIndex];\r\n        require(msg.sender == step.supervisor, \"Only assigned supervisor can complete the step\");\r\n        step.completed = true;\r\n        step.endTime = block.timestamp;\r\n\r\n        if (process.currentStepIndex > 0) {\r\n            step.startTime = process.steps[process.currentStepIndex - 1].endTime;\r\n        }\r\n\r\n        require(isReasonableLocation(_location), \"Location is not reasonable for this step\");\r\n\r\n        step.location = _location;\r\n        step.lotNumber = process.lotNumber;\r\n\r\n        process.currentStepIndex++;\r\n\r\n        if (process.currentStepIndex < process.steps.length) {\r\n            process.steps[process.currentStepIndex].startTime = block.timestamp;\r\n        }\r\n    }\r\n\r\n    function isReasonableLocation(string memory _location) internal pure returns (bool) {\r\n        return bytes(_location).length > 0;\r\n    }\r\n\r\n    function isProcessCompleted(uint lotNumber) public view returns (bool) {\r\n        Process storage process = processes[lotNumber];\r\n        return process.currentStepIndex >= process.steps.length;\r\n    }\r\n\r\n    function getStepsLength(uint lotNumber) public view returns (uint) {\r\n        return processes[lotNumber].steps.length;\r\n    }\r\n\r\n    function getStep(uint lotNumber, uint index) public view returns (string memory, address, bool, uint, uint, string memory, uint) {\r\n        Process storage process = processes[lotNumber];\r\n        require(index < process.steps.length, \"Step index out of range\");\r\n        Step storage step = process.steps[index];\r\n        return (step.name, step.supervisor, step.completed, step.startTime, step.endTime, step.location, step.lotNumber);\r\n    }\r\n\r\n    function getCurrentStepIndex(uint lotNumber) public view returns (uint) {\r\n        return processes[lotNumber].currentStepIndex;\r\n    }\r\n\r\n    function getCurrentLotNumber() public view returns (uint) {\r\n        return currentLotNumber;\r\n    }\r\n\r\n    function getLot(uint lotNumber) public view returns (Step[] memory) {\r\n        Process storage process = processes[lotNumber];\r\n        return process.steps;\r\n    }\r\n\r\n    function getAllAccounts() public view returns (address[] memory) {\r\n        return accountList;\r\n    }\r\n\r\n    function assignRole(address account, Role role) public onlyAdmin {\r\n        require(roles[account] != Role.Admin || countAdmins() > 1, \"Non puoi cambiare il ruolo dell'ultimo admin\");\r\n        require(roles[account] != role, \"Questo account ha gia questo ruolo\");\r\n        roles[account] = role;\r\n        if (!isAccountInList(account)) {\r\n            accountList.push(account);\r\n        }\r\n    }\r\n\r\n    function removeRole(address account) public onlyAdmin {\r\n        require(roles[account] != Role.Admin || countAdmins() > 1, \"Non puoi rimuovere l'ultimo admin\");\r\n        roles[account] = Role.None;\r\n        removeAccountFromList(account);\r\n    }\r\n\r\n     function countAdmins() internal view returns (uint) {\r\n        uint count = 0;\r\n        for (uint i = 0; i < accountList.length; i++) {\r\n            if (roles[accountList[i]] == Role.Admin) {\r\n                count++;\r\n            }\r\n        }\r\n        return count;\r\n    }\r\n\r\n    function isAccountInList(address account) internal view returns (bool) {\r\n        for (uint i = 0; i < accountList.length; i++) {\r\n            if (accountList[i] == account) {\r\n                return true;\r\n            }\r\n        }\r\n        return false;\r\n    }\r\n\r\n    function removeAccountFromList(address account) internal {\r\n        for (uint i = 0; i < accountList.length; i++) {\r\n            if (accountList[i] == account) {\r\n                accountList[i] = accountList[accountList.length - 1];\r\n                accountList.pop();\r\n                break;\r\n            }\r\n        }\r\n    }\r\n\r\n    modifier onlyAdmin() {\r\n        require(roles[msg.sender] == Role.Admin, \"Only admin can perform this action\");\r\n        _;\r\n    }\r\n\r\n    modifier onlySupervisor() {\r\n        require(roles[msg.sender] == Role.Supervisor, \"Only supervisor can perform this action\");\r\n        _;\r\n    }\r\n}\r\n",
  "sourcePath": "C:\\Users\\samue\\Desktop\\MilkChain\\backend\\contracts\\MilkChain.sol",
  "compiler": {
    "name": "solc",
    "version": "0.8.0+commit.c7dfd78e.Emscripten.clang"
  },
  "schemaVersion": "3.4.16",
  "updatedAt": "2024-07-03T03:18:29.327Z",
  "devdoc": {
    "kind": "dev",
    "methods": {},
    "version": 1
  },
  "userdoc": {
    "kind": "user",
    "methods": {},
    "version": 1
  }
}