{
  "contractName": "MilkProcessFactory",
  "abi": [
    {
      "inputs": [],
      "stateMutability": "nonpayable",
      "type": "constructor"
    },
    {
      "anonymous": false,
      "inputs": [
        {
          "indexed": false,
          "internalType": "address",
          "name": "processAddress",
          "type": "address"
        },
        {
          "indexed": false,
          "internalType": "uint256",
          "name": "lotNumber",
          "type": "uint256"
        }
      ],
      "name": "ProcessCreated",
      "type": "event"
    },
    {
      "inputs": [],
      "name": "owner",
      "outputs": [
        {
          "internalType": "address",
          "name": "",
          "type": "address"
        }
      ],
      "stateMutability": "view",
      "type": "function",
      "constant": true
    },
    {
      "inputs": [
        {
          "internalType": "uint256",
          "name": "",
          "type": "uint256"
        }
      ],
      "name": "processes",
      "outputs": [
        {
          "internalType": "address",
          "name": "",
          "type": "address"
        }
      ],
      "stateMutability": "view",
      "type": "function",
      "constant": true
    },
    {
      "inputs": [
        {
          "internalType": "address",
          "name": "",
          "type": "address"
        }
      ],
      "name": "roles",
      "outputs": [
        {
          "internalType": "enum MilkProcessFactory.Role",
          "name": "",
          "type": "uint8"
        }
      ],
      "stateMutability": "view",
      "type": "function",
      "constant": true
    },
    {
      "inputs": [
        {
          "internalType": "uint256",
          "name": "",
          "type": "uint256"
        }
      ],
      "name": "users",
      "outputs": [
        {
          "internalType": "address",
          "name": "",
          "type": "address"
        }
      ],
      "stateMutability": "view",
      "type": "function",
      "constant": true
    },
    {
      "inputs": [
        {
          "internalType": "uint256",
          "name": "quantity",
          "type": "uint256"
        }
      ],
      "name": "createNewProcess",
      "outputs": [
        {
          "internalType": "address[]",
          "name": "",
          "type": "address[]"
        }
      ],
      "stateMutability": "nonpayable",
      "type": "function"
    },
    {
      "inputs": [],
      "name": "getAllProcesses",
      "outputs": [
        {
          "internalType": "address[]",
          "name": "",
          "type": "address[]"
        }
      ],
      "stateMutability": "view",
      "type": "function",
      "constant": true
    },
    {
      "inputs": [],
      "name": "getAllRoles",
      "outputs": [
        {
          "internalType": "string[]",
          "name": "",
          "type": "string[]"
        },
        {
          "internalType": "address[]",
          "name": "",
          "type": "address[]"
        }
      ],
      "stateMutability": "view",
      "type": "function",
      "constant": true
    },
    {
      "inputs": [
        {
          "internalType": "address",
          "name": "account",
          "type": "address"
        },
        {
          "internalType": "enum MilkProcessFactory.Role",
          "name": "role",
          "type": "uint8"
        }
      ],
      "name": "assignRole",
      "outputs": [],
      "stateMutability": "nonpayable",
      "type": "function"
    },
    {
      "inputs": [
        {
          "internalType": "address",
          "name": "account",
          "type": "address"
        }
      ],
      "name": "removeRole",
      "outputs": [],
      "stateMutability": "nonpayable",
      "type": "function"
    },
    {
      "inputs": [
        {
          "internalType": "address",
          "name": "account",
          "type": "address"
        }
      ],
      "name": "getRole",
      "outputs": [
        {
          "internalType": "enum MilkProcessFactory.Role",
          "name": "",
          "type": "uint8"
        }
      ],
      "stateMutability": "view",
      "type": "function",
      "constant": true
    }
  ],
  "bytecode": "0x6080604052600060025534801561001557600080fd5b5033600160006101000a81548173ffffffffffffffffffffffffffffffffffffffff021916908373ffffffffffffffffffffffffffffffffffffffff160217905550600160036000600160009054906101000a900473ffffffffffffffffffffffffffffffffffffffff1673ffffffffffffffffffffffffffffffffffffffff1673ffffffffffffffffffffffffffffffffffffffff16815260200190815260200160002060006101000a81548160ff02191690836002811115610102577f4e487b7100000000000000000000000000000000000000000000000000000000600052602160045260246000fd5b02179055506004600160009054906101000a900473ffffffffffffffffffffffffffffffffffffffff169080600181540180825580915050600190039060005260206000200160009091909190916101000a81548173ffffffffffffffffffffffffffffffffffffffff021916908373ffffffffffffffffffffffffffffffffffffffff160217905550613d748061019b6000396000f3fe60806040523480156200001157600080fd5b5060043610620000ac5760003560e01c8063630a195b116200006f578063630a195b14620001a95780638da5cb5b14620001c95780639937464214620001eb578063f2bcac3d1462000221578063f52a8fa0146200024457620000ac565b8063342865b714620000b1578063365b98b214620000e757806344276733146200011d5780634762155d1462000153578063579e51c71462000173575b600080fd5b620000cf6004803603810190620000c991906200164c565b62000266565b604051620000de919062001932565b60405180910390f35b620001056004803603810190620000ff91906200164c565b6200057d565b604051620001149190620018e8565b60405180910390f35b6200013b6004803603810190620001359190620015df565b620005bd565b6040516200014a919062001991565b60405180910390f35b6200017160048036038101906200016b9190620015df565b62000613565b005b6200019160048036038101906200018b91906200164c565b620008ce565b604051620001a09190620018e8565b60405180910390f35b620001c76004803603810190620001c191906200160b565b6200090e565b005b620001d362000b18565b604051620001e29190620018e8565b60405180910390f35b620002096004803603810190620002039190620015df565b62000b3e565b60405162000218919062001991565b60405180910390f35b6200022b62000b5e565b6040516200023b92919062001956565b60405180910390f35b6200024e62001077565b6040516200025d919062001932565b60405180910390f35b606060016002811115620002a3577f4e487b7100000000000000000000000000000000000000000000000000000000600052602160045260246000fd5b600360003373ffffffffffffffffffffffffffffffffffffffff1673ffffffffffffffffffffffffffffffffffffffff16815260200190815260200160002060009054906101000a900460ff16600281111562000329577f4e487b7100000000000000000000000000000000000000000000000000000000600052602160045260246000fd5b146200036c576040517f08c379a00000000000000000000000000000000000000000000000000000000081526004016200036390620019ae565b60405180910390fd5b60008267ffffffffffffffff811115620003af577f4e487b7100000000000000000000000000000000000000000000000000000000600052604160045260246000fd5b604051908082528060200260200182016040528015620003de5781602001602082028036833780820191505090505b50905060005b8381101562000573576001600254620003fe919062001ace565b6002819055506000600254333060405162000419906200158c565b6200042793929190620019f2565b604051809103906000f08015801562000444573d6000803e3d6000fd5b5090506000819080600181540180825580915050600190039060005260206000200160009091909190916101000a81548173ffffffffffffffffffffffffffffffffffffffff021916908373ffffffffffffffffffffffffffffffffffffffff16021790555080838381518110620004e5577f4e487b7100000000000000000000000000000000000000000000000000000000600052603260045260246000fd5b602002602001019073ffffffffffffffffffffffffffffffffffffffff16908173ffffffffffffffffffffffffffffffffffffffff16815250507f33305bce9990259e4833343cc8360709ba96f5a6400c879a617bf865899362c1816002546040516200055492919062001905565b60405180910390a15080806200056a9062001c03565b915050620003e4565b5080915050919050565b600481815481106200058e57600080fd5b906000526020600020016000915054906101000a900473ffffffffffffffffffffffffffffffffffffffff1681565b6000600360008373ffffffffffffffffffffffffffffffffffffffff1673ffffffffffffffffffffffffffffffffffffffff16815260200190815260200160002060009054906101000a900460ff169050919050565b600160028111156200064e577f4e487b7100000000000000000000000000000000000000000000000000000000600052602160045260246000fd5b600360003373ffffffffffffffffffffffffffffffffffffffff1673ffffffffffffffffffffffffffffffffffffffff16815260200190815260200160002060009054906101000a900460ff166002811115620006d4577f4e487b7100000000000000000000000000000000000000000000000000000000600052602160045260246000fd5b1462000717576040517f08c379a00000000000000000000000000000000000000000000000000000000081526004016200070e90620019ae565b60405180910390fd5b6001600281111562000752577f4e487b7100000000000000000000000000000000000000000000000000000000600052602160045260246000fd5b600360008373ffffffffffffffffffffffffffffffffffffffff1673ffffffffffffffffffffffffffffffffffffffff16815260200190815260200160002060009054906101000a900460ff166002811115620007d8577f4e487b7100000000000000000000000000000000000000000000000000000000600052602160045260246000fd5b141580620007ef57506001620007ed62001107565b115b62000831576040517f08c379a00000000000000000000000000000000000000000000000000000000081526004016200082890620019d0565b60405180910390fd5b6000600360008373ffffffffffffffffffffffffffffffffffffffff1673ffffffffffffffffffffffffffffffffffffffff16815260200190815260200160002060006101000a81548160ff02191690836002811115620008bb577f4e487b7100000000000000000000000000000000000000000000000000000000600052602160045260246000fd5b0217905550620008cb816200127b565b50565b60008181548110620008df57600080fd5b906000526020600020016000915054906101000a900473ffffffffffffffffffffffffffffffffffffffff1681565b6001600281111562000949577f4e487b7100000000000000000000000000000000000000000000000000000000600052602160045260246000fd5b600360003373ffffffffffffffffffffffffffffffffffffffff1673ffffffffffffffffffffffffffffffffffffffff16815260200190815260200160002060009054906101000a900460ff166002811115620009cf577f4e487b7100000000000000000000000000000000000000000000000000000000600052602160045260246000fd5b1462000a12576040517f08c379a000000000000000000000000000000000000000000000000000000000815260040162000a0990620019ae565b60405180910390fd5b80600360008473ffffffffffffffffffffffffffffffffffffffff1673ffffffffffffffffffffffffffffffffffffffff16815260200190815260200160002060006101000a81548160ff0219169083600281111562000a9b577f4e487b7100000000000000000000000000000000000000000000000000000000600052602160045260246000fd5b021790555062000aab82620014b0565b62000b14576004829080600181540180825580915050600190039060005260206000200160009091909190916101000a81548173ffffffffffffffffffffffffffffffffffffffff021916908373ffffffffffffffffffffffffffffffffffffffff1602179055505b5050565b600160009054906101000a900473ffffffffffffffffffffffffffffffffffffffff1681565b60036020528060005260406000206000915054906101000a900460ff1681565b606080600060048054905067ffffffffffffffff81111562000ba9577f4e487b7100000000000000000000000000000000000000000000000000000000600052604160045260246000fd5b60405190808252806020026020018201604052801562000bde57816020015b606081526020019060019003908162000bc85790505b50905060005b60048054905081101562000fe0576001600281111562000c2d577f4e487b7100000000000000000000000000000000000000000000000000000000600052602160045260246000fd5b600360006004848154811062000c6c577f4e487b7100000000000000000000000000000000000000000000000000000000600052603260045260246000fd5b9060005260206000200160009054906101000a900473ffffffffffffffffffffffffffffffffffffffff1673ffffffffffffffffffffffffffffffffffffffff1673ffffffffffffffffffffffffffffffffffffffff16815260200190815260200160002060009054906101000a900460ff16600281111562000d18577f4e487b7100000000000000000000000000000000000000000000000000000000600052602160045260246000fd5b141562000da0576040518060400160405280600181526020017f310000000000000000000000000000000000000000000000000000000000000081525082828151811062000d8f577f4e487b7100000000000000000000000000000000000000000000000000000000600052603260045260246000fd5b602002602001018190525062000fca565b60028081111562000dda577f4e487b7100000000000000000000000000000000000000000000000000000000600052602160045260246000fd5b600360006004848154811062000e19577f4e487b7100000000000000000000000000000000000000000000000000000000600052603260045260246000fd5b9060005260206000200160009054906101000a900473ffffffffffffffffffffffffffffffffffffffff1673ffffffffffffffffffffffffffffffffffffffff1673ffffffffffffffffffffffffffffffffffffffff16815260200190815260200160002060009054906101000a900460ff16600281111562000ec5577f4e487b7100000000000000000000000000000000000000000000000000000000600052602160045260246000fd5b141562000f4d576040518060400160405280600181526020017f320000000000000000000000000000000000000000000000000000000000000081525082828151811062000f3c577f4e487b7100000000000000000000000000000000000000000000000000000000600052603260045260246000fd5b602002602001018190525062000fc9565b6040518060400160405280600181526020017f300000000000000000000000000000000000000000000000000000000000000081525082828151811062000fbd577f4e487b7100000000000000000000000000000000000000000000000000000000600052603260045260246000fd5b60200260200101819052505b5b808062000fd79062001c03565b91505062000be4565b50806004808054806020026020016040519081016040528092919081815260200182805480156200106757602002820191906000526020600020905b8160009054906101000a900473ffffffffffffffffffffffffffffffffffffffff1673ffffffffffffffffffffffffffffffffffffffff16815260200190600101908083116200101c575b5050505050905092509250509091565b60606000805480602002602001604051908101604052809291908181526020018280548015620010fd57602002820191906000526020600020905b8160009054906101000a900473ffffffffffffffffffffffffffffffffffffffff1673ffffffffffffffffffffffffffffffffffffffff1681526020019060010190808311620010b2575b5050505050905090565b6000806000905060005b6004805490508110156200127357600160028111156200115a577f4e487b7100000000000000000000000000000000000000000000000000000000600052602160045260246000fd5b600360006004848154811062001199577f4e487b7100000000000000000000000000000000000000000000000000000000600052603260045260246000fd5b9060005260206000200160009054906101000a900473ffffffffffffffffffffffffffffffffffffffff1673ffffffffffffffffffffffffffffffffffffffff1673ffffffffffffffffffffffffffffffffffffffff16815260200190815260200160002060009054906101000a900460ff16600281111562001245577f4e487b7100000000000000000000000000000000000000000000000000000000600052602160045260246000fd5b14156200125d578180620012599062001c03565b9250505b80806200126a9062001c03565b91505062001111565b508091505090565b60005b600480549050811015620014ac578173ffffffffffffffffffffffffffffffffffffffff1660048281548110620012de577f4e487b7100000000000000000000000000000000000000000000000000000000600052603260045260246000fd5b9060005260206000200160009054906101000a900473ffffffffffffffffffffffffffffffffffffffff1673ffffffffffffffffffffffffffffffffffffffff1614156200149657600460016004805490506200133c919062001b2b565b8154811062001374577f4e487b7100000000000000000000000000000000000000000000000000000000600052603260045260246000fd5b9060005260206000200160009054906101000a900473ffffffffffffffffffffffffffffffffffffffff1660048281548110620013da577f4e487b7100000000000000000000000000000000000000000000000000000000600052603260045260246000fd5b9060005260206000200160006101000a81548173ffffffffffffffffffffffffffffffffffffffff021916908373ffffffffffffffffffffffffffffffffffffffff16021790555060048054806200145b577f4e487b7100000000000000000000000000000000000000000000000000000000600052603160045260246000fd5b6001900381819060005260206000200160006101000a81549073ffffffffffffffffffffffffffffffffffffffff02191690559055620014ac565b8080620014a39062001c03565b9150506200127e565b5050565b600080600090505b60048054905081101562001581578273ffffffffffffffffffffffffffffffffffffffff166004828154811062001518577f4e487b7100000000000000000000000000000000000000000000000000000000600052603260045260246000fd5b9060005260206000200160009054906101000a900473ffffffffffffffffffffffffffffffffffffffff1673ffffffffffffffffffffffffffffffffffffffff1614156200156b57600191505062001587565b8080620015789062001c03565b915050620014b8565b50600090505b919050565b6120228062001d1d83390190565b600081359050620015ab8162001cd7565b92915050565b600081359050620015c28162001cf1565b92915050565b600081359050620015d98162001d02565b92915050565b600060208284031215620015f257600080fd5b600062001602848285016200159a565b91505092915050565b600080604083850312156200161f57600080fd5b60006200162f858286016200159a565b92505060206200164285828601620015b1565b9150509250929050565b6000602082840312156200165f57600080fd5b60006200166f84828501620015c8565b91505092915050565b6000620016868383620016a8565b60208301905092915050565b6000620016a08383620017c6565b905092915050565b620016b38162001b66565b82525050565b620016c48162001b66565b82525050565b6000620016d78262001a4f565b620016e3818562001a8a565b9350620016f08362001a2f565b8060005b83811015620017275781516200170b888262001678565b9750620017188362001a70565b925050600181019050620016f4565b5085935050505092915050565b6000620017418262001a5a565b6200174d818562001a9b565b935083602082028501620017618562001a3f565b8060005b85811015620017a3578484038952815162001781858262001692565b94506200178e8362001a7d565b925060208a0199505060018101905062001765565b50829750879550505050505092915050565b620017c08162001bb9565b82525050565b6000620017d38262001a65565b620017df818562001aac565b9350620017f181856020860162001bcd565b620017fc8162001caf565b840191505092915050565b60006200181660228362001abd565b91507f4f6e6c792061646d696e2063616e20706572666f726d2074686973206163746960008301527f6f6e0000000000000000000000000000000000000000000000000000000000006020830152604082019050919050565b60006200187e60218362001abd565b91507f4e6f6e2070756f692072696d756f76657265206c27756c74696d6f2061646d6960008301527f6e000000000000000000000000000000000000000000000000000000000000006020830152604082019050919050565b620018e28162001baf565b82525050565b6000602082019050620018ff6000830184620016b9565b92915050565b60006040820190506200191c6000830185620016b9565b6200192b6020830184620018d7565b9392505050565b600060208201905081810360008301526200194e8184620016ca565b905092915050565b6000604082019050818103600083015262001972818562001734565b90508181036020830152620019888184620016ca565b90509392505050565b6000602082019050620019a86000830184620017b5565b92915050565b60006020820190508181036000830152620019c98162001807565b9050919050565b60006020820190508181036000830152620019eb816200186f565b9050919050565b600060608201905062001a096000830186620018d7565b62001a186020830185620016b9565b62001a276040830184620016b9565b949350505050565b6000819050602082019050919050565b6000819050602082019050919050565b600081519050919050565b600081519050919050565b600081519050919050565b6000602082019050919050565b6000602082019050919050565b600082825260208201905092915050565b600082825260208201905092915050565b600082825260208201905092915050565b600082825260208201905092915050565b600062001adb8262001baf565b915062001ae88362001baf565b9250827fffffffffffffffffffffffffffffffffffffffffffffffffffffffffffffffff0382111562001b205762001b1f62001c51565b5b828201905092915050565b600062001b388262001baf565b915062001b458362001baf565b92508282101562001b5b5762001b5a62001c51565b5b828203905092915050565b600062001b738262001b8f565b9050919050565b600081905062001b8a8262001cc0565b919050565b600073ffffffffffffffffffffffffffffffffffffffff82169050919050565b6000819050919050565b600062001bc68262001b7a565b9050919050565b60005b8381101562001bed57808201518184015260208101905062001bd0565b8381111562001bfd576000848401525b50505050565b600062001c108262001baf565b91507fffffffffffffffffffffffffffffffffffffffffffffffffffffffffffffffff82141562001c465762001c4562001c51565b5b600182019050919050565b7f4e487b7100000000000000000000000000000000000000000000000000000000600052601160045260246000fd5b7f4e487b7100000000000000000000000000000000000000000000000000000000600052602160045260246000fd5b6000601f19601f8301169050919050565b6003811062001cd45762001cd362001c80565b5b50565b62001ce28162001b66565b811462001cee57600080fd5b50565b6003811062001cff57600080fd5b50565b62001d0d8162001baf565b811462001d1957600080fd5b5056fe60806040523480156200001157600080fd5b5060405162002022380380620020228339818101604052810190620000379190620009ab565b8260028190555081600360006101000a81548173ffffffffffffffffffffffffffffffffffffffff021916908373ffffffffffffffffffffffffffffffffffffffff16021790555080600460006101000a81548173ffffffffffffffffffffffffffffffffffffffff021916908373ffffffffffffffffffffffffffffffffffffffff160217905550620000d06200012a60201b60201c565b42600080815481106200010c577f4e487b7100000000000000000000000000000000000000000000000000000000600052603260045260246000fd5b90600052602060002090600602016002018190555050505062000ad8565b60006040518060e001604052806040518060400160405280600881526020017f526163636f6c74610000000000000000000000000000000000000000000000008152508152602001600073ffffffffffffffffffffffffffffffffffffffff16815260200160001515815260200160008152602001600081526020016040518060200160405280600081525081526020016002548152509080600181540180825580915050600190039060005260206000209060060201600090919091909150600082015181600001908051906020019062000208929190620008cd565b5060208201518160010160006101000a81548173ffffffffffffffffffffffffffffffffffffffff021916908373ffffffffffffffffffffffffffffffffffffffff16021790555060408201518160010160146101000a81548160ff021916908315150217905550606082015181600201556080820151816003015560a0820151816004019080519060200190620002a2929190620008cd565b5060c08201518160050155505060006040518060e001604052806040518060400160405280600981526020017f54726173706f72746f00000000000000000000000000000000000000000000008152508152602001600073ffffffffffffffffffffffffffffffffffffffff1681526020016000151581526020016000815260200160008152602001604051806020016040528060008152508152602001600254815250908060018154018082558091505060019003906000526020600020906006020160009091909190915060008201518160000190805190602001906200038d929190620008cd565b5060208201518160010160006101000a81548173ffffffffffffffffffffffffffffffffffffffff021916908373ffffffffffffffffffffffffffffffffffffffff16021790555060408201518160010160146101000a81548160ff021916908315150217905550606082015181600201556080820151816003015560a082015181600401908051906020019062000427929190620008cd565b5060c08201518160050155505060006040518060e001604052806040518060400160405280600b81526020017f4c61766f72617a696f6e650000000000000000000000000000000000000000008152508152602001600073ffffffffffffffffffffffffffffffffffffffff16815260200160001515815260200160008152602001600081526020016040518060200160405280600081525081526020016002548152509080600181540180825580915050600190039060005260206000209060060201600090919091909150600082015181600001908051906020019062000512929190620008cd565b5060208201518160010160006101000a81548173ffffffffffffffffffffffffffffffffffffffff021916908373ffffffffffffffffffffffffffffffffffffffff16021790555060408201518160010160146101000a81548160ff021916908315150217905550606082015181600201556080820151816003015560a0820151816004019080519060200190620005ac929190620008cd565b5060c08201518160050155505060006040518060e001604052806040518060400160405280600f81526020017f436f6e66657a696f6e616d656e746f00000000000000000000000000000000008152508152602001600073ffffffffffffffffffffffffffffffffffffffff16815260200160001515815260200160008152602001600081526020016040518060200160405280600081525081526020016002548152509080600181540180825580915050600190039060005260206000209060060201600090919091909150600082015181600001908051906020019062000697929190620008cd565b5060208201518160010160006101000a81548173ffffffffffffffffffffffffffffffffffffffff021916908373ffffffffffffffffffffffffffffffffffffffff16021790555060408201518160010160146101000a81548160ff021916908315150217905550606082015181600201556080820151816003015560a082015181600401908051906020019062000731929190620008cd565b5060c08201518160050155505060006040518060e001604052806040518060400160405280600d81526020017f44697374726962757a696f6e65000000000000000000000000000000000000008152508152602001600073ffffffffffffffffffffffffffffffffffffffff1681526020016000151581526020016000815260200160008152602001604051806020016040528060008152508152602001600254815250908060018154018082558091505060019003906000526020600020906006020160009091909190915060008201518160000190805190602001906200081c929190620008cd565b5060208201518160010160006101000a81548173ffffffffffffffffffffffffffffffffffffffff021916908373ffffffffffffffffffffffffffffffffffffffff16021790555060408201518160010160146101000a81548160ff021916908315150217905550606082015181600201556080820151816003015560a0820151816004019080519060200190620008b6929190620008cd565b5060c0820151816005015550506000600181905550565b828054620008db9062000a3f565b90600052602060002090601f016020900481019282620008ff57600085556200094b565b82601f106200091a57805160ff19168380011785556200094b565b828001600101855582156200094b579182015b828111156200094a5782518255916020019190600101906200092d565b5b5090506200095a91906200095e565b5090565b5b80821115620009795760008160009055506001016200095f565b5090565b6000815190506200098e8162000aa4565b92915050565b600081519050620009a58162000abe565b92915050565b600080600060608486031215620009c157600080fd5b6000620009d18682870162000994565b9350506020620009e4868287016200097d565b9250506040620009f7868287016200097d565b9150509250925092565b600062000a0e8262000a15565b9050919050565b600073ffffffffffffffffffffffffffffffffffffffff82169050919050565b6000819050919050565b6000600282049050600182168062000a5857607f821691505b6020821081141562000a6f5762000a6e62000a75565b5b50919050565b7f4e487b7100000000000000000000000000000000000000000000000000000000600052602260045260246000fd5b62000aaf8162000a01565b811462000abb57600080fd5b50565b62000ac98162000a35565b811462000ad557600080fd5b50565b61153a8062000ae86000396000f3fe608060405234801561001057600080fd5b50600436106100935760003560e01c80637874888a116100665780637874888a146101245780638b1659f51461015a5780638da5cb5b146101785780639597fe9f14610196578063c45a0155146101b457610093565b8063040c22c014610098578063334f45ec146100b457806344054931146100d25780637217e0b9146100ee575b600080fd5b6100b260048036038101906100ad9190610d82565b6101d2565b005b6100bc6105af565b6040516100c99190611219565b60405180910390f35b6100ec60048036038101906100e79190610dec565b6105b5565b005b61010860048036038101906101039190610dc3565b6107f3565b60405161011b97969594939291906110dc565b60405180910390f35b61013e60048036038101906101399190610dc3565b610982565b60405161015197969594939291906110dc565b60405180910390f35b610162610b9f565b60405161016f91906110c1565b60405180910390f35b610180610bb0565b60405161018d91906110a6565b60405180910390f35b61019e610bd6565b6040516101ab9190611219565b60405180910390f35b6101bc610bdc565b6040516101c991906110a6565b60405180910390f35b6000600460009054906101000a900473ffffffffffffffffffffffffffffffffffffffff16905060008173ffffffffffffffffffffffffffffffffffffffff166344276733336040518263ffffffff1660e01b815260040161023491906110a6565b60206040518083038186803b15801561024c57600080fd5b505afa158015610260573d6000803e3d6000fd5b505050506040513d601f19601f820116820180604052508101906102849190610d59565b90506002808111156102bf577f4e487b7100000000000000000000000000000000000000000000000000000000600052602160045260246000fd5b8160028111156102f8577f4e487b7100000000000000000000000000000000000000000000000000000000600052602160045260246000fd5b14610338576040517f08c379a000000000000000000000000000000000000000000000000000000000815260040161032f90611179565b60405180910390fd5b60008054905060015410610381576040517f08c379a0000000000000000000000000000000000000000000000000000000008152600401610378906111f9565b60405180910390fd5b600080600154815481106103be577f4e487b7100000000000000000000000000000000000000000000000000000000600052603260045260246000fd5b906000526020600020906006020190508060010160009054906101000a900473ffffffffffffffffffffffffffffffffffffffff1673ffffffffffffffffffffffffffffffffffffffff163373ffffffffffffffffffffffffffffffffffffffff1614610460576040517f08c379a000000000000000000000000000000000000000000000000000000000815260040161045790611199565b60405180910390fd5b60018160010160146101000a81548160ff02191690831515021790555042816003018190555061048f84610c02565b6104ce576040517f08c379a00000000000000000000000000000000000000000000000000000000081526004016104c590611159565b60405180910390fd5b838160040190805190602001906104e6929190610c0f565b50600160008154809291906104fa906113df565b91905055506000805490506001541015610561574260006001548154811061054b577f4e487b7100000000000000000000000000000000000000000000000000000000600052603260045260246000fd5b9060005260206000209060060201600201819055505b7f91f0b878c8898462835a832e915c3b68a4973ba2e22c1200709419e850857e1c6001805461059091906112ef565b85426040516105a193929190611234565b60405180910390a150505050565b60015481565b6000600460009054906101000a900473ffffffffffffffffffffffffffffffffffffffff16905060008173ffffffffffffffffffffffffffffffffffffffff166344276733336040518263ffffffff1660e01b815260040161061791906110a6565b60206040518083038186803b15801561062f57600080fd5b505afa158015610643573d6000803e3d6000fd5b505050506040513d601f19601f820116820180604052508101906106679190610d59565b9050600160028111156106a3577f4e487b7100000000000000000000000000000000000000000000000000000000600052602160045260246000fd5b8160028111156106dc577f4e487b7100000000000000000000000000000000000000000000000000000000600052602160045260246000fd5b1461071c576040517f08c379a0000000000000000000000000000000000000000000000000000000008152600401610713906111b9565b60405180910390fd5b6000805490508410610763576040517f08c379a000000000000000000000000000000000000000000000000000000000815260040161075a906111d9565b60405180910390fd5b826000858154811061079e577f4e487b7100000000000000000000000000000000000000000000000000000000600052603260045260246000fd5b906000526020600020906006020160010160006101000a81548173ffffffffffffffffffffffffffffffffffffffff021916908373ffffffffffffffffffffffffffffffffffffffff16021790555050505050565b6000818154811061080357600080fd5b9060005260206000209060060201600091509050806000018054610826906113ad565b80601f0160208091040260200160405190810160405280929190818152602001828054610852906113ad565b801561089f5780601f106108745761010080835404028352916020019161089f565b820191906000526020600020905b81548152906001019060200180831161088257829003601f168201915b5050505050908060010160009054906101000a900473ffffffffffffffffffffffffffffffffffffffff16908060010160149054906101000a900460ff16908060020154908060030154908060040180546108f9906113ad565b80601f0160208091040260200160405190810160405280929190818152602001828054610925906113ad565b80156109725780601f1061094757610100808354040283529160200191610972565b820191906000526020600020905b81548152906001019060200180831161095557829003601f168201915b5050505050908060050154905087565b606060008060008060606000808054905088106109d4576040517f08c379a00000000000000000000000000000000000000000000000000000000081526004016109cb906111d9565b60405180910390fd5b6000808981548110610a0f577f4e487b7100000000000000000000000000000000000000000000000000000000600052603260045260246000fd5b90600052602060002090600602019050806000018160010160009054906101000a900473ffffffffffffffffffffffffffffffffffffffff168260010160149054906101000a900460ff1683600201548460030154856004018660050154868054610a79906113ad565b80601f0160208091040260200160405190810160405280929190818152602001828054610aa5906113ad565b8015610af25780601f10610ac757610100808354040283529160200191610af2565b820191906000526020600020905b815481529060010190602001808311610ad557829003601f168201915b50505050509650818054610b05906113ad565b80601f0160208091040260200160405190810160405280929190818152602001828054610b31906113ad565b8015610b7e5780601f10610b5357610100808354040283529160200191610b7e565b820191906000526020600020905b815481529060010190602001808311610b6157829003601f168201915b50505050509150975097509750975097509750975050919395979092949650565b600080805490506001541015905090565b600360009054906101000a900473ffffffffffffffffffffffffffffffffffffffff1681565b60025481565b600460009054906101000a900473ffffffffffffffffffffffffffffffffffffffff1681565b6000808251119050919050565b828054610c1b906113ad565b90600052602060002090601f016020900481019282610c3d5760008555610c84565b82601f10610c5657805160ff1916838001178555610c84565b82800160010185558215610c84579182015b82811115610c83578251825591602001919060010190610c68565b5b509050610c919190610c95565b5090565b5b80821115610cae576000816000905550600101610c96565b5090565b6000610cc5610cc0846112a3565b611272565b905082815260208101848484011115610cdd57600080fd5b610ce884828561136b565b509392505050565b600081359050610cff816114c6565b92915050565b600081519050610d14816114dd565b92915050565b600082601f830112610d2b57600080fd5b8135610d3b848260208601610cb2565b91505092915050565b600081359050610d53816114ed565b92915050565b600060208284031215610d6b57600080fd5b6000610d7984828501610d05565b91505092915050565b600060208284031215610d9457600080fd5b600082013567ffffffffffffffff811115610dae57600080fd5b610dba84828501610d1a565b91505092915050565b600060208284031215610dd557600080fd5b6000610de384828501610d44565b91505092915050565b60008060408385031215610dff57600080fd5b6000610e0d85828601610d44565b9250506020610e1e85828601610cf0565b9150509250929050565b610e3181611323565b82525050565b610e4081611335565b82525050565b6000610e51826112d3565b610e5b81856112de565b9350610e6b81856020860161137a565b610e74816114b5565b840191505092915050565b6000610e8c6028836112de565b91507f4c6f636174696f6e206973206e6f7420726561736f6e61626c6520666f72207460008301527f68697320737465700000000000000000000000000000000000000000000000006020830152604082019050919050565b6000610ef26027836112de565b91507f4f6e6c792073757065727669736f722063616e20706572666f726d207468697360008301527f20616374696f6e000000000000000000000000000000000000000000000000006020830152604082019050919050565b6000610f58602e836112de565b91507f4f6e6c792061737369676e65642073757065727669736f722063616e20636f6d60008301527f706c6574652074686520737465700000000000000000000000000000000000006020830152604082019050919050565b6000610fbe6022836112de565b91507f4f6e6c792061646d696e2063616e20706572666f726d2074686973206163746960008301527f6f6e0000000000000000000000000000000000000000000000000000000000006020830152604082019050919050565b60006110246017836112de565b91507f5374657020696e646578206f7574206f662072616e67650000000000000000006000830152602082019050919050565b6000611064601f836112de565b91507f416c6c2073746570732061726520616c726561647920636f6d706c65746564006000830152602082019050919050565b6110a081611361565b82525050565b60006020820190506110bb6000830184610e28565b92915050565b60006020820190506110d66000830184610e37565b92915050565b600060e08201905081810360008301526110f6818a610e46565b90506111056020830189610e28565b6111126040830188610e37565b61111f6060830187611097565b61112c6080830186611097565b81810360a083015261113e8185610e46565b905061114d60c0830184611097565b98975050505050505050565b6000602082019050818103600083015261117281610e7f565b9050919050565b6000602082019050818103600083015261119281610ee5565b9050919050565b600060208201905081810360008301526111b281610f4b565b9050919050565b600060208201905081810360008301526111d281610fb1565b9050919050565b600060208201905081810360008301526111f281611017565b9050919050565b6000602082019050818103600083015261121281611057565b9050919050565b600060208201905061122e6000830184611097565b92915050565b60006060820190506112496000830186611097565b818103602083015261125b8185610e46565b905061126a6040830184611097565b949350505050565b6000604051905081810181811067ffffffffffffffff8211171561129957611298611486565b5b8060405250919050565b600067ffffffffffffffff8211156112be576112bd611486565b5b601f19601f8301169050602081019050919050565b600081519050919050565b600082825260208201905092915050565b60006112fa82611361565b915061130583611361565b92508282101561131857611317611428565b5b828203905092915050565b600061132e82611341565b9050919050565b60008115159050919050565b600073ffffffffffffffffffffffffffffffffffffffff82169050919050565b6000819050919050565b82818337600083830152505050565b60005b8381101561139857808201518184015260208101905061137d565b838111156113a7576000848401525b50505050565b600060028204905060018216806113c557607f821691505b602082108114156113d9576113d8611457565b5b50919050565b60006113ea82611361565b91507fffffffffffffffffffffffffffffffffffffffffffffffffffffffffffffffff82141561141d5761141c611428565b5b600182019050919050565b7f4e487b7100000000000000000000000000000000000000000000000000000000600052601160045260246000fd5b7f4e487b7100000000000000000000000000000000000000000000000000000000600052602260045260246000fd5b7f4e487b7100000000000000000000000000000000000000000000000000000000600052604160045260246000fd5b6000601f19601f8301169050919050565b6114cf81611323565b81146114da57600080fd5b50565b600381106114ea57600080fd5b50565b6114f681611361565b811461150157600080fd5b5056fea2646970667358221220026871a9fc691ddffab4b2121a208587ef449c2d432bdf2a1c30a8e243aead6464736f6c63430008000033a2646970667358221220c33c40ac8ea06f48b6d47a9d50c44a261b29e565a540537c91e3a2437e3a2fb664736f6c63430008000033",
  "immutableReferences": {},
  "source": "// SPDX-License-Identifier: MIT\r\npragma solidity ^0.8.0; // Modificato da ^0.8.20 a ^0.8.19\r\n\r\nimport \"./MilkProcess.sol\";\r\n\r\n/**\r\n * @title MilkProcessFactory\r\n * @dev Factory contract to create and manage MilkProcess contracts.\r\n */\r\ncontract MilkProcessFactory {\r\n    enum Role { None, Admin, Supervisor }\r\n\r\n    address[] public processes;\r\n    address public owner;\r\n    uint lotNumber = 0;\r\n    mapping(address => Role) public roles;\r\n    address[] public users;\r\n\r\n    event ProcessCreated(address processAddress, uint lotNumber);\r\n\r\n    constructor() {\r\n        owner = msg.sender;\r\n        roles[owner] = Role.Admin;\r\n        users.push(owner);\r\n    }\r\n\r\n    /**\r\n     * @notice Crea un nuovo contratto MilkProcess.\r\n     * @dev Solo un utente con ruolo admin pu creare nuovi processi.\r\n     * @param quantity La quantit di nuovi processi da creare.\r\n     * @return address[] Gli indirizzi dei contratti MilkProcess appena creati.\r\n     */\r\n    function createNewProcess(uint quantity) external onlyAdmin returns (address[] memory) {\r\n        address[] memory newProcesses = new address[](quantity);\r\n        for (uint i = 0; i < quantity; i++) {\r\n            lotNumber = lotNumber + 1;\r\n            MilkProcess newProcess = new MilkProcess(lotNumber, msg.sender, address(this));\r\n            processes.push(address(newProcess));\r\n            newProcesses[i] = address(newProcess);\r\n            emit ProcessCreated(address(newProcess), lotNumber);\r\n        }\r\n        return newProcesses;\r\n    }\r\n\r\n    /**\r\n     * @notice Retrieves all created process addresses.\r\n     * @return address[] List of process addresses.\r\n     */\r\n    function getAllProcesses() external view returns (address[] memory) {\r\n        return processes;\r\n    }\r\n\r\n    function getAllRoles() external view returns (string[] memory, address[] memory) {\r\n        string[] memory userRoles = new string[](users.length);\r\n        for (uint i = 0; i < users.length; i++) {\r\n            if (roles[users[i]] == Role.Admin) {\r\n                userRoles[i] = \"1\";\r\n            } else if (roles[users[i]] == Role.Supervisor) {\r\n                userRoles[i] = \"2\";\r\n            } else {\r\n                userRoles[i] = \"0\";\r\n            }\r\n        }\r\n        return (userRoles, users);\r\n    }\r\n\r\n    function assignRole(address account, Role role) external onlyAdmin {\r\n        roles[account] = role;\r\n        if (!isAccountInList(account)) {\r\n            users.push(account);\r\n        }\r\n    }\r\n\r\n    function removeRole(address account) external onlyAdmin {\r\n        require(roles[account] != Role.Admin || countAdmins() > 1, \"Non puoi rimuovere l'ultimo admin\");\r\n        roles[account] = Role.None;\r\n        removeAccountFromList(account);\r\n    }\r\n\r\n    function countAdmins() internal view returns (uint) {\r\n    uint count = 0;\r\n    for (uint i = 0; i < users.length; i++) {\r\n        if (roles[users[i]] == Role.Admin) {\r\n            count++;\r\n        }\r\n    }\r\n    return count;\r\n    }\r\n\r\n    function isAccountInList(address account) internal view returns (bool) {\r\n    for (uint i = 0; i < users.length; i++) {\r\n        if (users[i] == account) {\r\n            return true;\r\n        }\r\n    }\r\n    return false;\r\n    }\r\n\r\n    function removeAccountFromList(address account) internal {\r\n        for (uint i = 0; i < users.length; i++) {\r\n            if (users[i] == account) {\r\n                users[i] = users[users.length - 1];\r\n                users.pop();\r\n                break;\r\n            }\r\n        }\r\n    }\r\n\r\n    /**\r\n     * @notice Retrieves the role of a specific address.\r\n     * @param account The address to check.\r\n     * @return Role The role of the specified address.\r\n     */\r\n    function getRole(address account) external view returns (Role) {\r\n        return roles[account];\r\n    }\r\n\r\n    modifier onlyAdmin() {\r\n        require(roles[msg.sender] == Role.Admin, \"Only admin can perform this action\");\r\n        _;\r\n    }\r\n}\r\n",
  "sourcePath": "C:\\Users\\gbeks\\OneDrive\\Desktop\\MilkChain\\backend\\contracts\\MilkProcessFactory.sol",
  "compiler": {
    "name": "solc",
    "version": "0.8.0+commit.c7dfd78e.Emscripten.clang"
  },
  "schemaVersion": "3.4.16",
  "updatedAt": "2024-07-05T16:25:55.809Z",
  "networkType": "ethereum",
  "devdoc": {
    "details": "Factory contract to create and manage MilkProcess contracts.",
    "kind": "dev",
    "methods": {
      "createNewProcess(uint256)": {
        "details": "Solo un utente con ruolo admin pu creare nuovi processi.",
        "params": {
          "quantity": "La quantit di nuovi processi da creare."
        },
        "returns": {
          "_0": "address[] Gli indirizzi dei contratti MilkProcess appena creati."
        }
      },
      "getAllProcesses()": {
        "returns": {
          "_0": "address[] List of process addresses."
        }
      },
      "getRole(address)": {
        "params": {
          "account": "The address to check."
        },
        "returns": {
          "_0": "Role The role of the specified address."
        }
      }
    },
    "title": "MilkProcessFactory",
    "version": 1
  },
  "userdoc": {
    "kind": "user",
    "methods": {
      "createNewProcess(uint256)": {
        "notice": "Crea un nuovo contratto MilkProcess."
      },
      "getAllProcesses()": {
        "notice": "Retrieves all created process addresses."
      },
      "getRole(address)": {
        "notice": "Retrieves the role of a specific address."
      }
    },
    "version": 1
  }
}