{
  "contractName": "MilkChain",
  "abi": [
    {
      "inputs": [],
      "stateMutability": "nonpayable",
      "type": "constructor"
    },
    {
      "anonymous": false,
      "inputs": [
        {
          "indexed": false,
          "internalType": "uint256",
          "name": "newLotNumber",
          "type": "uint256"
        }
      ],
      "name": "ProcessReset",
      "type": "event"
    },
    {
      "anonymous": false,
      "inputs": [
        {
          "indexed": false,
          "internalType": "uint256",
          "name": "stepIndex",
          "type": "uint256"
        },
        {
          "indexed": false,
          "internalType": "string",
          "name": "name",
          "type": "string"
        },
        {
          "indexed": false,
          "internalType": "uint256",
          "name": "startTime",
          "type": "uint256"
        },
        {
          "indexed": false,
          "internalType": "uint256",
          "name": "endTime",
          "type": "uint256"
        },
        {
          "indexed": false,
          "internalType": "uint256",
          "name": "lotNumber",
          "type": "uint256"
        }
      ],
      "name": "StepCompleted",
      "type": "event"
    },
    {
      "inputs": [
        {
          "internalType": "uint256",
          "name": "",
          "type": "uint256"
        }
      ],
      "name": "completedSteps",
      "outputs": [
        {
          "internalType": "string",
          "name": "name",
          "type": "string"
        },
        {
          "internalType": "address",
          "name": "supervisor",
          "type": "address"
        },
        {
          "internalType": "bool",
          "name": "completed",
          "type": "bool"
        },
        {
          "internalType": "uint256",
          "name": "startTime",
          "type": "uint256"
        },
        {
          "internalType": "uint256",
          "name": "endTime",
          "type": "uint256"
        },
        {
          "internalType": "string",
          "name": "location",
          "type": "string"
        },
        {
          "internalType": "uint256",
          "name": "lotNumber",
          "type": "uint256"
        }
      ],
      "stateMutability": "view",
      "type": "function",
      "constant": true
    },
    {
      "inputs": [],
      "name": "currentLotNumber",
      "outputs": [
        {
          "internalType": "uint256",
          "name": "",
          "type": "uint256"
        }
      ],
      "stateMutability": "view",
      "type": "function",
      "constant": true
    },
    {
      "inputs": [],
      "name": "currentStepIndex",
      "outputs": [
        {
          "internalType": "uint256",
          "name": "",
          "type": "uint256"
        }
      ],
      "stateMutability": "view",
      "type": "function",
      "constant": true
    },
    {
      "inputs": [
        {
          "internalType": "uint256",
          "name": "",
          "type": "uint256"
        }
      ],
      "name": "steps",
      "outputs": [
        {
          "internalType": "string",
          "name": "name",
          "type": "string"
        },
        {
          "internalType": "address",
          "name": "supervisor",
          "type": "address"
        },
        {
          "internalType": "bool",
          "name": "completed",
          "type": "bool"
        },
        {
          "internalType": "uint256",
          "name": "startTime",
          "type": "uint256"
        },
        {
          "internalType": "uint256",
          "name": "endTime",
          "type": "uint256"
        },
        {
          "internalType": "string",
          "name": "location",
          "type": "string"
        },
        {
          "internalType": "uint256",
          "name": "lotNumber",
          "type": "uint256"
        }
      ],
      "stateMutability": "view",
      "type": "function",
      "constant": true
    },
    {
      "inputs": [
        {
          "internalType": "uint256",
          "name": "stepIndex",
          "type": "uint256"
        },
        {
          "internalType": "address",
          "name": "supervisor",
          "type": "address"
        }
      ],
      "name": "assignSupervisor",
      "outputs": [],
      "stateMutability": "nonpayable",
      "type": "function"
    },
    {
      "inputs": [
        {
          "internalType": "string",
          "name": "_location",
          "type": "string"
        }
      ],
      "name": "completeStep",
      "outputs": [],
      "stateMutability": "nonpayable",
      "type": "function"
    },
    {
      "inputs": [],
      "name": "getCurrentStepIndex",
      "outputs": [
        {
          "internalType": "uint256",
          "name": "",
          "type": "uint256"
        }
      ],
      "stateMutability": "view",
      "type": "function",
      "constant": true
    },
    {
      "inputs": [
        {
          "internalType": "uint256",
          "name": "index",
          "type": "uint256"
        }
      ],
      "name": "getStep",
      "outputs": [
        {
          "internalType": "string",
          "name": "",
          "type": "string"
        },
        {
          "internalType": "address",
          "name": "",
          "type": "address"
        },
        {
          "internalType": "bool",
          "name": "",
          "type": "bool"
        },
        {
          "internalType": "uint256",
          "name": "",
          "type": "uint256"
        },
        {
          "internalType": "uint256",
          "name": "",
          "type": "uint256"
        },
        {
          "internalType": "string",
          "name": "",
          "type": "string"
        },
        {
          "internalType": "uint256",
          "name": "",
          "type": "uint256"
        }
      ],
      "stateMutability": "view",
      "type": "function",
      "constant": true
    },
    {
      "inputs": [],
      "name": "getCompletedStepsLength",
      "outputs": [
        {
          "internalType": "uint256",
          "name": "",
          "type": "uint256"
        }
      ],
      "stateMutability": "view",
      "type": "function",
      "constant": true
    },
    {
      "inputs": [
        {
          "internalType": "uint256",
          "name": "index",
          "type": "uint256"
        }
      ],
      "name": "getCompletedStep",
      "outputs": [
        {
          "internalType": "string",
          "name": "",
          "type": "string"
        },
        {
          "internalType": "address",
          "name": "",
          "type": "address"
        },
        {
          "internalType": "bool",
          "name": "",
          "type": "bool"
        },
        {
          "internalType": "uint256",
          "name": "",
          "type": "uint256"
        },
        {
          "internalType": "uint256",
          "name": "",
          "type": "uint256"
        },
        {
          "internalType": "string",
          "name": "",
          "type": "string"
        },
        {
          "internalType": "uint256",
          "name": "",
          "type": "uint256"
        }
      ],
      "stateMutability": "view",
      "type": "function",
      "constant": true
    },
    {
      "inputs": [],
      "name": "getStepsLength",
      "outputs": [
        {
          "internalType": "uint256",
          "name": "",
          "type": "uint256"
        }
      ],
      "stateMutability": "view",
      "type": "function",
      "constant": true
    },
    {
      "inputs": [],
      "name": "isProcessCompleted",
      "outputs": [
        {
          "internalType": "bool",
          "name": "",
          "type": "bool"
        }
      ],
      "stateMutability": "view",
      "type": "function",
      "constant": true
    },
    {
      "inputs": [],
      "name": "getCurrentLotNumber",
      "outputs": [
        {
          "internalType": "uint256",
          "name": "",
          "type": "uint256"
        }
      ],
      "stateMutability": "view",
      "type": "function",
      "constant": true
    },
    {
      "inputs": [
        {
          "internalType": "uint256",
          "name": "index",
          "type": "uint256"
        },
        {
          "internalType": "string",
          "name": "name",
          "type": "string"
        }
      ],
      "name": "setStepName",
      "outputs": [],
      "stateMutability": "nonpayable",
      "type": "function"
    },
    {
      "inputs": [
        {
          "internalType": "uint256",
          "name": "index",
          "type": "uint256"
        },
        {
          "internalType": "address",
          "name": "supervisor",
          "type": "address"
        }
      ],
      "name": "setStepSupervisor",
      "outputs": [],
      "stateMutability": "nonpayable",
      "type": "function"
    },
    {
      "inputs": [
        {
          "internalType": "uint256",
          "name": "index",
          "type": "uint256"
        },
        {
          "internalType": "string",
          "name": "location",
          "type": "string"
        }
      ],
      "name": "setStepLocation",
      "outputs": [],
      "stateMutability": "nonpayable",
      "type": "function"
    },
    {
      "inputs": [
        {
          "internalType": "uint256",
          "name": "index",
          "type": "uint256"
        },
        {
          "internalType": "bool",
          "name": "completed",
          "type": "bool"
        }
      ],
      "name": "setStepCompleted",
      "outputs": [],
      "stateMutability": "nonpayable",
      "type": "function"
    },
    {
      "inputs": [
        {
          "internalType": "uint256",
          "name": "index",
          "type": "uint256"
        },
        {
          "internalType": "uint256",
          "name": "startTime",
          "type": "uint256"
        }
      ],
      "name": "setStepStartTime",
      "outputs": [],
      "stateMutability": "nonpayable",
      "type": "function"
    },
    {
      "inputs": [
        {
          "internalType": "uint256",
          "name": "index",
          "type": "uint256"
        },
        {
          "internalType": "uint256",
          "name": "endTime",
          "type": "uint256"
        }
      ],
      "name": "setStepEndTime",
      "outputs": [],
      "stateMutability": "nonpayable",
      "type": "function"
    },
    {
      "inputs": [
        {
          "internalType": "uint256",
          "name": "index",
          "type": "uint256"
        },
        {
          "internalType": "uint256",
          "name": "lotNumber",
          "type": "uint256"
        }
      ],
      "name": "setLotNumber",
      "outputs": [],
      "stateMutability": "nonpayable",
      "type": "function"
    }
  ],
  "bytecode": "0x60806040523480156200001157600080fd5b5060016003819055506200002a6200003060201b60201c565b620008e8565b60006040518060e001604052806040518060400160405280600881526020017f526163636f6c74610000000000000000000000000000000000000000000000008152508152602001600073ffffffffffffffffffffffffffffffffffffffff1681526020016000151581526020016000815260200160008152602001604051806020016040528060008152508152602001600354815250908060018154018082558091505060019003906000526020600020906006020160009091909190915060008201518160000190805190602001906200010e929190620007d3565b5060208201518160010160006101000a81548173ffffffffffffffffffffffffffffffffffffffff021916908373ffffffffffffffffffffffffffffffffffffffff16021790555060408201518160010160146101000a81548160ff021916908315150217905550606082015181600201556080820151816003015560a0820151816004019080519060200190620001a8929190620007d3565b5060c08201518160050155505060006040518060e001604052806040518060400160405280600981526020017f54726173706f72746f00000000000000000000000000000000000000000000008152508152602001600073ffffffffffffffffffffffffffffffffffffffff16815260200160001515815260200160008152602001600081526020016040518060200160405280600081525081526020016003548152509080600181540180825580915050600190039060005260206000209060060201600090919091909150600082015181600001908051906020019062000293929190620007d3565b5060208201518160010160006101000a81548173ffffffffffffffffffffffffffffffffffffffff021916908373ffffffffffffffffffffffffffffffffffffffff16021790555060408201518160010160146101000a81548160ff021916908315150217905550606082015181600201556080820151816003015560a08201518160040190805190602001906200032d929190620007d3565b5060c08201518160050155505060006040518060e001604052806040518060400160405280600b81526020017f4c61766f72617a696f6e650000000000000000000000000000000000000000008152508152602001600073ffffffffffffffffffffffffffffffffffffffff16815260200160001515815260200160008152602001600081526020016040518060200160405280600081525081526020016003548152509080600181540180825580915050600190039060005260206000209060060201600090919091909150600082015181600001908051906020019062000418929190620007d3565b5060208201518160010160006101000a81548173ffffffffffffffffffffffffffffffffffffffff021916908373ffffffffffffffffffffffffffffffffffffffff16021790555060408201518160010160146101000a81548160ff021916908315150217905550606082015181600201556080820151816003015560a0820151816004019080519060200190620004b2929190620007d3565b5060c08201518160050155505060006040518060e001604052806040518060400160405280600f81526020017f436f6e66657a696f6e616d656e746f00000000000000000000000000000000008152508152602001600073ffffffffffffffffffffffffffffffffffffffff1681526020016000151581526020016000815260200160008152602001604051806020016040528060008152508152602001600354815250908060018154018082558091505060019003906000526020600020906006020160009091909190915060008201518160000190805190602001906200059d929190620007d3565b5060208201518160010160006101000a81548173ffffffffffffffffffffffffffffffffffffffff021916908373ffffffffffffffffffffffffffffffffffffffff16021790555060408201518160010160146101000a81548160ff021916908315150217905550606082015181600201556080820151816003015560a082015181600401908051906020019062000637929190620007d3565b5060c08201518160050155505060006040518060e001604052806040518060400160405280600d81526020017f44697374726962757a696f6e65000000000000000000000000000000000000008152508152602001600073ffffffffffffffffffffffffffffffffffffffff16815260200160001515815260200160008152602001600081526020016040518060200160405280600081525081526020016003548152509080600181540180825580915050600190039060005260206000209060060201600090919091909150600082015181600001908051906020019062000722929190620007d3565b5060208201518160010160006101000a81548173ffffffffffffffffffffffffffffffffffffffff021916908373ffffffffffffffffffffffffffffffffffffffff16021790555060408201518160010160146101000a81548160ff021916908315150217905550606082015181600201556080820151816003015560a0820151816004019080519060200190620007bc929190620007d3565b5060c0820151816005015550506000600181905550565b828054620007e19062000883565b90600052602060002090601f01602090048101928262000805576000855562000851565b82601f106200082057805160ff191683800117855562000851565b8280016001018555821562000851579182015b828111156200085057825182559160200191906001019062000833565b5b50905062000860919062000864565b5090565b5b808211156200087f57600081600090555060010162000865565b5090565b600060028204905060018216806200089c57607f821691505b60208210811415620008b357620008b2620008b9565b5b50919050565b7f4e487b7100000000000000000000000000000000000000000000000000000000600052602260045260246000fd5b61283680620008f86000396000f3fe608060405234801561001057600080fd5b506004361061012c5760003560e01c80637ae4e838116100ad578063ad1e954e11610071578063ad1e954e1461032b578063ba89d2bc14610349578063c904b74214610365578063c9b021c214610383578063f022f339146103a15761012c565b80637ae4e8381461027f5780638b1659f51461029b5780638f9f7210146102b9578063925c4d8f146102d75780639482eeaa1461030d5761012c565b806355799019116100f457806355799019146101bf5780635b122e7e146101db5780637217e0b9146101f75780637360edd71461022d5780637874888a146102495761012c565b8063040c22c014610131578063334f45ec1461014d5780633cbcf6c61461016b578063411e5eb91461018757806344054931146101a3575b600080fd5b61014b60048036038101906101469190611f9b565b6103d7565b005b6101556107af565b60405161016291906124dd565b60405180910390f35b610185600480360381019061018091906120d1565b6107b5565b005b6101a1600480360381019061019c9190612005565b610850565b005b6101bd60048036038101906101b89190612005565b610925565b005b6101d960048036038101906101d491906120d1565b6109fa565b005b6101f560048036038101906101f091906120d1565b610a95565b005b610211600480360381019061020c9190611fdc565b610b30565b60405161022497969594939291906123c0565b60405180910390f35b6102476004803603810190610242919061207d565b610cbf565b005b610263600480360381019061025e9190611fdc565b610d6a565b60405161027697969594939291906123c0565b60405180910390f35b6102996004803603810190610294919061207d565b610f87565b005b6102a3611032565b6040516102b091906123a5565b60405180910390f35b6102c1611043565b6040516102ce91906124dd565b60405180910390f35b6102f160048036038101906102ec9190611fdc565b61104d565b60405161030497969594939291906123c0565b60405180910390f35b6103156111dc565b60405161032291906124dd565b60405180910390f35b6103336111e9565b60405161034091906124dd565b60405180910390f35b610363600480360381019061035e9190612041565b6111f3565b005b61036d6112a1565b60405161037a91906124dd565b60405180910390f35b61038b6112ad565b60405161039891906124dd565b60405180910390f35b6103bb60048036038101906103b69190611fdc565b6112b3565b6040516103ce97969594939291906123c0565b60405180910390f35b60008054905060015410610420576040517f08c379a00000000000000000000000000000000000000000000000000000000081526004016104179061249d565b60405180910390fd5b6000806001548154811061045d577f4e487b7100000000000000000000000000000000000000000000000000000000600052603260045260246000fd5b906000526020600020906006020190508060010160009054906101000a900473ffffffffffffffffffffffffffffffffffffffff1673ffffffffffffffffffffffffffffffffffffffff163373ffffffffffffffffffffffffffffffffffffffff16146104ff576040517f08c379a00000000000000000000000000000000000000000000000000000000081526004016104f69061245d565b60405180910390fd5b60018160010160146101000a81548160ff0219169083151502179055504281600301819055506000600154141561053e574281600201819055506105a0565b60006001805461054e91906125e4565b81548110610585577f4e487b7100000000000000000000000000000000000000000000000000000000600052603260045260246000fd5b90600052602060002090600602016003015481600201819055505b6105a9826114d2565b6105e8576040517f08c379a00000000000000000000000000000000000000000000000000000000081526004016105df9061243d565b60405180910390fd5b81816004019080519060200190610600929190611cd6565b5060035481600501819055506002819080600181540180825580915050600190039060005260206000209060060201600090919091909150600082018160000190805461064c906126a2565b610657929190611d5c565b506001820160009054906101000a900473ffffffffffffffffffffffffffffffffffffffff168160010160006101000a81548173ffffffffffffffffffffffffffffffffffffffff021916908373ffffffffffffffffffffffffffffffffffffffff1602179055506001820160149054906101000a900460ff168160010160146101000a81548160ff02191690831515021790555060028201548160020155600382015481600301556004820181600401908054610714906126a2565b61071f929190611d5c565b506005820154816005015550507fc0adf46dbf94d17dc241de7be8c2f645a7c22cf158ce69655005583133a2da9a600154826000018360020154846003015485600501546040516107749594939291906124f8565b60405180910390a16001600081548092919061078f906126d4565b9190505550600080549050600154106107ab576107aa6114df565b5b5050565b60015481565b60008054905082106107fc576040517f08c379a00000000000000000000000000000000000000000000000000000000081526004016107f39061247d565b60405180910390fd5b8060008381548110610837577f4e487b7100000000000000000000000000000000000000000000000000000000600052603260045260246000fd5b9060005260206000209060060201600201819055505050565b6000805490508210610897576040517f08c379a000000000000000000000000000000000000000000000000000000000815260040161088e9061247d565b60405180910390fd5b80600083815481106108d2577f4e487b7100000000000000000000000000000000000000000000000000000000600052603260045260246000fd5b906000526020600020906006020160010160006101000a81548173ffffffffffffffffffffffffffffffffffffffff021916908373ffffffffffffffffffffffffffffffffffffffff1602179055505050565b600080549050821061096c576040517f08c379a00000000000000000000000000000000000000000000000000000000081526004016109639061247d565b60405180910390fd5b80600083815481106109a7577f4e487b7100000000000000000000000000000000000000000000000000000000600052603260045260246000fd5b906000526020600020906006020160010160006101000a81548173ffffffffffffffffffffffffffffffffffffffff021916908373ffffffffffffffffffffffffffffffffffffffff1602179055505050565b6000805490508210610a41576040517f08c379a0000000000000000000000000000000000000000000000000000000008152600401610a389061247d565b60405180910390fd5b8060008381548110610a7c577f4e487b7100000000000000000000000000000000000000000000000000000000600052603260045260246000fd5b9060005260206000209060060201600301819055505050565b6000805490508210610adc576040517f08c379a0000000000000000000000000000000000000000000000000000000008152600401610ad39061247d565b60405180910390fd5b8060008381548110610b17577f4e487b7100000000000000000000000000000000000000000000000000000000600052603260045260246000fd5b9060005260206000209060060201600501819055505050565b60008181548110610b4057600080fd5b9060005260206000209060060201600091509050806000018054610b63906126a2565b80601f0160208091040260200160405190810160405280929190818152602001828054610b8f906126a2565b8015610bdc5780601f10610bb157610100808354040283529160200191610bdc565b820191906000526020600020905b815481529060010190602001808311610bbf57829003601f168201915b5050505050908060010160009054906101000a900473ffffffffffffffffffffffffffffffffffffffff16908060010160149054906101000a900460ff1690806002015490806003015490806004018054610c36906126a2565b80601f0160208091040260200160405190810160405280929190818152602001828054610c62906126a2565b8015610caf5780601f10610c8457610100808354040283529160200191610caf565b820191906000526020600020905b815481529060010190602001808311610c9257829003601f168201915b5050505050908060050154905087565b6000805490508210610d06576040517f08c379a0000000000000000000000000000000000000000000000000000000008152600401610cfd9061247d565b60405180910390fd5b8060008381548110610d41577f4e487b7100000000000000000000000000000000000000000000000000000000600052603260045260246000fd5b90600052602060002090600602016004019080519060200190610d65929190611cd6565b505050565b60606000806000806060600080805490508810610dbc576040517f08c379a0000000000000000000000000000000000000000000000000000000008152600401610db39061247d565b60405180910390fd5b6000808981548110610df7577f4e487b7100000000000000000000000000000000000000000000000000000000600052603260045260246000fd5b90600052602060002090600602019050806000018160010160009054906101000a900473ffffffffffffffffffffffffffffffffffffffff168260010160149054906101000a900460ff1683600201548460030154856004018660050154868054610e61906126a2565b80601f0160208091040260200160405190810160405280929190818152602001828054610e8d906126a2565b8015610eda5780601f10610eaf57610100808354040283529160200191610eda565b820191906000526020600020905b815481529060010190602001808311610ebd57829003601f168201915b50505050509650818054610eed906126a2565b80601f0160208091040260200160405190810160405280929190818152602001828054610f19906126a2565b8015610f665780601f10610f3b57610100808354040283529160200191610f66565b820191906000526020600020905b815481529060010190602001808311610f4957829003601f168201915b50505050509150975097509750975097509750975050919395979092949650565b6000805490508210610fce576040517f08c379a0000000000000000000000000000000000000000000000000000000008152600401610fc59061247d565b60405180910390fd5b8060008381548110611009577f4e487b7100000000000000000000000000000000000000000000000000000000600052603260045260246000fd5b9060005260206000209060060201600001908051906020019061102d929190611cd6565b505050565b600080805490506001541015905090565b6000600154905090565b6002818154811061105d57600080fd5b9060005260206000209060060201600091509050806000018054611080906126a2565b80601f01602080910402602001604051908101604052809291908181526020018280546110ac906126a2565b80156110f95780601f106110ce576101008083540402835291602001916110f9565b820191906000526020600020905b8154815290600101906020018083116110dc57829003601f168201915b5050505050908060010160009054906101000a900473ffffffffffffffffffffffffffffffffffffffff16908060010160149054906101000a900460ff1690806002015490806003015490806004018054611153906126a2565b80601f016020809104026020016040519081016040528092919081815260200182805461117f906126a2565b80156111cc5780601f106111a1576101008083540402835291602001916111cc565b820191906000526020600020905b8154815290600101906020018083116111af57829003601f168201915b5050505050908060050154905087565b6000600280549050905090565b6000600354905090565b600080549050821061123a576040517f08c379a00000000000000000000000000000000000000000000000000000000081526004016112319061247d565b60405180910390fd5b8060008381548110611275577f4e487b7100000000000000000000000000000000000000000000000000000000600052603260045260246000fd5b906000526020600020906006020160010160146101000a81548160ff0219169083151502179055505050565b60008080549050905090565b60035481565b6060600080600080606060006002805490508810611306576040517f08c379a00000000000000000000000000000000000000000000000000000000081526004016112fd906124bd565b60405180910390fd5b600060028981548110611342577f4e487b7100000000000000000000000000000000000000000000000000000000600052603260045260246000fd5b90600052602060002090600602019050806000018160010160009054906101000a900473ffffffffffffffffffffffffffffffffffffffff168260010160149054906101000a900460ff16836002015484600301548560040186600501548680546113ac906126a2565b80601f01602080910402602001604051908101604052809291908181526020018280546113d8906126a2565b80156114255780601f106113fa57610100808354040283529160200191611425565b820191906000526020600020905b81548152906001019060200180831161140857829003601f168201915b50505050509650818054611438906126a2565b80601f0160208091040260200160405190810160405280929190818152602001828054611464906126a2565b80156114b15780601f10611486576101008083540402835291602001916114b1565b820191906000526020600020905b81548152906001019060200180831161149457829003601f168201915b50505050509150975097509750975097509750975050919395979092949650565b6000808251119050919050565b6000806114ec9190611de9565b6114f4611547565b60036000815480929190611507906126d4565b91905055507f74c97f258db595b9ae4389bbb720db98e2437f4c7e079c5ef85dc56ac62a4d8860035460405161153d91906124dd565b60405180910390a1565b60006040518060e001604052806040518060400160405280600881526020017f526163636f6c74610000000000000000000000000000000000000000000000008152508152602001600073ffffffffffffffffffffffffffffffffffffffff168152602001600015158152602001600081526020016000815260200160405180602001604052806000815250815260200160035481525090806001815401808255809150506001900390600052602060002090600602016000909190919091506000820151816000019080519060200190611623929190611cd6565b5060208201518160010160006101000a81548173ffffffffffffffffffffffffffffffffffffffff021916908373ffffffffffffffffffffffffffffffffffffffff16021790555060408201518160010160146101000a81548160ff021916908315150217905550606082015181600201556080820151816003015560a08201518160040190805190602001906116bb929190611cd6565b5060c08201518160050155505060006040518060e001604052806040518060400160405280600981526020017f54726173706f72746f00000000000000000000000000000000000000000000008152508152602001600073ffffffffffffffffffffffffffffffffffffffff1681526020016000151581526020016000815260200160008152602001604051806020016040528060008152508152602001600354815250908060018154018082558091505060019003906000526020600020906006020160009091909190915060008201518160000190805190602001906117a4929190611cd6565b5060208201518160010160006101000a81548173ffffffffffffffffffffffffffffffffffffffff021916908373ffffffffffffffffffffffffffffffffffffffff16021790555060408201518160010160146101000a81548160ff021916908315150217905550606082015181600201556080820151816003015560a082015181600401908051906020019061183c929190611cd6565b5060c08201518160050155505060006040518060e001604052806040518060400160405280600b81526020017f4c61766f72617a696f6e650000000000000000000000000000000000000000008152508152602001600073ffffffffffffffffffffffffffffffffffffffff168152602001600015158152602001600081526020016000815260200160405180602001604052806000815250815260200160035481525090806001815401808255809150506001900390600052602060002090600602016000909190919091506000820151816000019080519060200190611925929190611cd6565b5060208201518160010160006101000a81548173ffffffffffffffffffffffffffffffffffffffff021916908373ffffffffffffffffffffffffffffffffffffffff16021790555060408201518160010160146101000a81548160ff021916908315150217905550606082015181600201556080820151816003015560a08201518160040190805190602001906119bd929190611cd6565b5060c08201518160050155505060006040518060e001604052806040518060400160405280600f81526020017f436f6e66657a696f6e616d656e746f00000000000000000000000000000000008152508152602001600073ffffffffffffffffffffffffffffffffffffffff168152602001600015158152602001600081526020016000815260200160405180602001604052806000815250815260200160035481525090806001815401808255809150506001900390600052602060002090600602016000909190919091506000820151816000019080519060200190611aa6929190611cd6565b5060208201518160010160006101000a81548173ffffffffffffffffffffffffffffffffffffffff021916908373ffffffffffffffffffffffffffffffffffffffff16021790555060408201518160010160146101000a81548160ff021916908315150217905550606082015181600201556080820151816003015560a0820151816004019080519060200190611b3e929190611cd6565b5060c08201518160050155505060006040518060e001604052806040518060400160405280600d81526020017f44697374726962757a696f6e65000000000000000000000000000000000000008152508152602001600073ffffffffffffffffffffffffffffffffffffffff168152602001600015158152602001600081526020016000815260200160405180602001604052806000815250815260200160035481525090806001815401808255809150506001900390600052602060002090600602016000909190919091506000820151816000019080519060200190611c27929190611cd6565b5060208201518160010160006101000a81548173ffffffffffffffffffffffffffffffffffffffff021916908373ffffffffffffffffffffffffffffffffffffffff16021790555060408201518160010160146101000a81548160ff021916908315150217905550606082015181600201556080820151816003015560a0820151816004019080519060200190611cbf929190611cd6565b5060c0820151816005015550506000600181905550565b828054611ce2906126a2565b90600052602060002090601f016020900481019282611d045760008555611d4b565b82601f10611d1d57805160ff1916838001178555611d4b565b82800160010185558215611d4b579182015b82811115611d4a578251825591602001919060010190611d2f565b5b509050611d589190611e0d565b5090565b828054611d68906126a2565b90600052602060002090601f016020900481019282611d8a5760008555611dd8565b82601f10611d9b5780548555611dd8565b82800160010185558215611dd857600052602060002091601f016020900482015b82811115611dd7578254825591600101919060010190611dbc565b5b509050611de59190611e0d565b5090565b5080546000825560060290600052602060002090810190611e0a9190611e2a565b50565b5b80821115611e26576000816000905550600101611e0e565b5090565b5b80821115611eb05760008082016000611e449190611eb4565b6001820160006101000a81549073ffffffffffffffffffffffffffffffffffffffff02191690556001820160146101000a81549060ff021916905560028201600090556003820160009055600482016000611e9f9190611eb4565b600582016000905550600601611e2b565b5090565b508054611ec0906126a2565b6000825580601f10611ed25750611ef1565b601f016020900490600052602060002090810190611ef09190611e0d565b5b50565b6000611f07611f0284612583565b612552565b905082815260208101848484011115611f1f57600080fd5b611f2a848285612660565b509392505050565b600081359050611f41816127bb565b92915050565b600081359050611f56816127d2565b92915050565b600082601f830112611f6d57600080fd5b8135611f7d848260208601611ef4565b91505092915050565b600081359050611f95816127e9565b92915050565b600060208284031215611fad57600080fd5b600082013567ffffffffffffffff811115611fc757600080fd5b611fd384828501611f5c565b91505092915050565b600060208284031215611fee57600080fd5b6000611ffc84828501611f86565b91505092915050565b6000806040838503121561201857600080fd5b600061202685828601611f86565b925050602061203785828601611f32565b9150509250929050565b6000806040838503121561205457600080fd5b600061206285828601611f86565b925050602061207385828601611f47565b9150509250929050565b6000806040838503121561209057600080fd5b600061209e85828601611f86565b925050602083013567ffffffffffffffff8111156120bb57600080fd5b6120c785828601611f5c565b9150509250929050565b600080604083850312156120e457600080fd5b60006120f285828601611f86565b925050602061210385828601611f86565b9150509250929050565b61211681612618565b82525050565b6121258161262a565b82525050565b6000612136826125c8565b61214081856125d3565b935061215081856020860161266f565b612159816127aa565b840191505092915050565b60008154612171816126a2565b61217b81866125d3565b9450600182166000811461219657600181146121a8576121db565b60ff19831686526020860193506121db565b6121b1856125b3565b60005b838110156121d3578154818901526001820191506020810190506121b4565b808801955050505b50505092915050565b60006121f16028836125d3565b91507f4c6f636174696f6e206973206e6f7420726561736f6e61626c6520666f72207460008301527f68697320737465700000000000000000000000000000000000000000000000006020830152604082019050919050565b6000612257602e836125d3565b91507f4f6e6c792061737369676e65642073757065727669736f722063616e20636f6d60008301527f706c6574652074686520737465700000000000000000000000000000000000006020830152604082019050919050565b60006122bd6017836125d3565b91507f5374657020696e646578206f7574206f662072616e67650000000000000000006000830152602082019050919050565b60006122fd601f836125d3565b91507f416c6c2073746570732061726520616c726561647920636f6d706c65746564006000830152602082019050919050565b600061233d6021836125d3565b91507f436f6d706c65746564207374657020696e646578206f7574206f662072616e6760008301527f65000000000000000000000000000000000000000000000000000000000000006020830152604082019050919050565b61239f81612656565b82525050565b60006020820190506123ba600083018461211c565b92915050565b600060e08201905081810360008301526123da818a61212b565b90506123e9602083018961210d565b6123f6604083018861211c565b6124036060830187612396565b6124106080830186612396565b81810360a0830152612422818561212b565b905061243160c0830184612396565b98975050505050505050565b60006020820190508181036000830152612456816121e4565b9050919050565b600060208201905081810360008301526124768161224a565b9050919050565b60006020820190508181036000830152612496816122b0565b9050919050565b600060208201905081810360008301526124b6816122f0565b9050919050565b600060208201905081810360008301526124d681612330565b9050919050565b60006020820190506124f26000830184612396565b92915050565b600060a08201905061250d6000830188612396565b818103602083015261251f8187612164565b905061252e6040830186612396565b61253b6060830185612396565b6125486080830184612396565b9695505050505050565b6000604051905081810181811067ffffffffffffffff821117156125795761257861277b565b5b8060405250919050565b600067ffffffffffffffff82111561259e5761259d61277b565b5b601f19601f8301169050602081019050919050565b60008190508160005260206000209050919050565b600081519050919050565b600082825260208201905092915050565b60006125ef82612656565b91506125fa83612656565b92508282101561260d5761260c61271d565b5b828203905092915050565b600061262382612636565b9050919050565b60008115159050919050565b600073ffffffffffffffffffffffffffffffffffffffff82169050919050565b6000819050919050565b82818337600083830152505050565b60005b8381101561268d578082015181840152602081019050612672565b8381111561269c576000848401525b50505050565b600060028204905060018216806126ba57607f821691505b602082108114156126ce576126cd61274c565b5b50919050565b60006126df82612656565b91507fffffffffffffffffffffffffffffffffffffffffffffffffffffffffffffffff8214156127125761271161271d565b5b600182019050919050565b7f4e487b7100000000000000000000000000000000000000000000000000000000600052601160045260246000fd5b7f4e487b7100000000000000000000000000000000000000000000000000000000600052602260045260246000fd5b7f4e487b7100000000000000000000000000000000000000000000000000000000600052604160045260246000fd5b6000601f19601f8301169050919050565b6127c481612618565b81146127cf57600080fd5b50565b6127db8161262a565b81146127e657600080fd5b50565b6127f281612656565b81146127fd57600080fd5b5056fea2646970667358221220320804eedcf778495c8f094f1a18509e0b5d5e0151c03e80a650a3328024e3ea64736f6c63430008000033",
  "immutableReferences": {},
  "source": "// SPDX-License-Identifier: MIT\r\npragma solidity ^0.8.0;\r\n\r\ncontract MilkChain {\r\n    struct Step {\r\n        string name;\r\n        address supervisor;\r\n        bool completed;\r\n        uint startTime;\r\n        uint endTime;\r\n        string location;\r\n        uint lotNumber;\r\n    }\r\n\r\n    Step[] public steps;\r\n    uint public currentStepIndex;\r\n    Step[] public completedSteps;\r\n    uint public currentLotNumber;\r\n\r\n    event StepCompleted(uint stepIndex, string name, uint startTime, uint endTime, uint lotNumber);\r\n    event ProcessReset(uint newLotNumber);\r\n\r\n    constructor() {\r\n        currentLotNumber = 1; // Initialize the lot number to 1\r\n        initializeSteps();\r\n    }\r\n\r\n    function initializeSteps() internal {\r\n        steps.push(Step(\"Raccolta\", address(0), false, 0, 0, \"\", currentLotNumber));\r\n        steps.push(Step(\"Trasporto\", address(0), false, 0, 0, \"\", currentLotNumber));\r\n        steps.push(Step(\"Lavorazione\", address(0), false, 0, 0, \"\", currentLotNumber));\r\n        steps.push(Step(\"Confezionamento\", address(0), false, 0, 0, \"\", currentLotNumber));\r\n        steps.push(Step(\"Distribuzione\", address(0), false, 0, 0, \"\", currentLotNumber));\r\n        currentStepIndex = 0;\r\n    }\r\n\r\n    function assignSupervisor(uint stepIndex, address supervisor) public {\r\n        require(stepIndex < steps.length, \"Step index out of range\");\r\n        steps[stepIndex].supervisor = supervisor;\r\n    }\r\n\r\n    function completeStep(string memory _location) public {\r\n        require(currentStepIndex < steps.length, \"All steps are already completed\");\r\n        Step storage step = steps[currentStepIndex];\r\n        require(msg.sender == step.supervisor, \"Only assigned supervisor can complete the step\");\r\n        step.completed = true;\r\n        step.endTime = block.timestamp;\r\n        \r\n        if (currentStepIndex == 0) {\r\n            step.startTime = block.timestamp;\r\n        } else {\r\n            step.startTime = steps[currentStepIndex - 1].endTime;\r\n        }\r\n\r\n        require(isReasonableLocation(_location), \"Location is not reasonable for this step\");\r\n\r\n        step.location = _location;\r\n        step.lotNumber = currentLotNumber;  // Assign current lot number to the step\r\n\r\n        completedSteps.push(step);\r\n\r\n        emit StepCompleted(currentStepIndex, step.name, step.startTime, step.endTime, step.lotNumber);\r\n        currentStepIndex++;\r\n\r\n        if (currentStepIndex >= steps.length) {\r\n            resetProcess();\r\n        }\r\n    }\r\n\r\n\r\n    function isReasonableLocation(string memory _location) internal pure returns (bool) {\r\n        return bytes(_location).length > 0; // Check that the location is not empty\r\n    }\r\n\r\n    function resetProcess() internal {\r\n        delete steps;\r\n        initializeSteps();\r\n        currentLotNumber++;\r\n        emit ProcessReset(currentLotNumber);\r\n    }\r\n\r\n    function getCurrentStepIndex() public view returns (uint) {\r\n        return currentStepIndex;\r\n    }\r\n\r\n    function getStep(uint index) public view returns (string memory, address, bool, uint, uint, string memory, uint) {\r\n        require(index < steps.length, \"Step index out of range\");\r\n        Step storage step = steps[index];\r\n        return (step.name, step.supervisor, step.completed, step.startTime, step.endTime, step.location, step.lotNumber);\r\n    }\r\n\r\n    function getCompletedStepsLength() public view returns (uint) {\r\n        return completedSteps.length;\r\n    }\r\n\r\n    function getCompletedStep(uint index) public view returns (string memory, address, bool, uint, uint, string memory, uint) {\r\n        require(index < completedSteps.length, \"Completed step index out of range\");\r\n        Step storage step = completedSteps[index];\r\n        return (step.name, step.supervisor, step.completed, step.startTime, step.endTime, step.location, step.lotNumber);\r\n    }\r\n\r\n    function getStepsLength() public view returns (uint) {\r\n        return steps.length;\r\n    }\r\n\r\n    function isProcessCompleted() public view returns (bool) {\r\n        return currentStepIndex >= steps.length;\r\n    }\r\n\r\n    function getCurrentLotNumber() public view returns (uint) {\r\n        return currentLotNumber;\r\n    }\r\n\r\n    function setStepName(uint index, string memory name) public {\r\n        require(index < steps.length, \"Step index out of range\");\r\n        steps[index].name = name;\r\n    }\r\n\r\n    function setStepSupervisor(uint index, address supervisor) public {\r\n        require(index < steps.length, \"Step index out of range\");\r\n        steps[index].supervisor = supervisor;\r\n    }\r\n\r\n    function setStepLocation(uint index, string memory location) public {\r\n        require(index < steps.length, \"Step index out of range\");\r\n        steps[index].location = location;\r\n    }\r\n\r\n    function setStepCompleted(uint index, bool completed) public {\r\n        require(index < steps.length, \"Step index out of range\");\r\n        steps[index].completed = completed;\r\n    }\r\n\r\n    function setStepStartTime(uint index, uint startTime) public {\r\n        require(index < steps.length, \"Step index out of range\");\r\n        steps[index].startTime = startTime;\r\n    }\r\n\r\n    function setStepEndTime(uint index, uint endTime) public {\r\n        require(index < steps.length, \"Step index out of range\");\r\n        steps[index].endTime = endTime;\r\n    }\r\n\r\n    function setLotNumber(uint index, uint lotNumber) public {\r\n        require(index < steps.length, \"Step index out of range\");\r\n        steps[index].lotNumber = lotNumber;\r\n    }\r\n}\r\n",
  "sourcePath": "C:\\Users\\samue\\Desktop\\MilkChain\\backend\\contracts\\MilkChain.sol",
  "compiler": {
    "name": "solc",
    "version": "0.8.0+commit.c7dfd78e.Emscripten.clang"
  },
  "schemaVersion": "3.4.16",
  "updatedAt": "2024-06-25T23:55:19.930Z",
  "networkType": "ethereum",
  "devdoc": {
    "kind": "dev",
    "methods": {},
    "version": 1
  },
  "userdoc": {
    "kind": "user",
    "methods": {},
    "version": 1
  }
}