{
  "contractName": "MilkChain",
  "abi": [
    {
      "inputs": [],
      "stateMutability": "nonpayable",
      "type": "constructor"
    },
    {
      "inputs": [],
      "name": "currentLotNumber",
      "outputs": [
        {
          "internalType": "uint256",
          "name": "",
          "type": "uint256"
        }
      ],
      "stateMutability": "view",
      "type": "function",
      "constant": true
    },
    {
      "inputs": [],
      "name": "owner",
      "outputs": [
        {
          "internalType": "address",
          "name": "",
          "type": "address"
        }
      ],
      "stateMutability": "view",
      "type": "function",
      "constant": true
    },
    {
      "inputs": [
        {
          "internalType": "uint256",
          "name": "",
          "type": "uint256"
        }
      ],
      "name": "processes",
      "outputs": [
        {
          "internalType": "uint256",
          "name": "currentStepIndex",
          "type": "uint256"
        },
        {
          "internalType": "uint256",
          "name": "lotNumber",
          "type": "uint256"
        }
      ],
      "stateMutability": "view",
      "type": "function",
      "constant": true
    },
    {
      "inputs": [
        {
          "internalType": "address",
          "name": "",
          "type": "address"
        }
      ],
      "name": "roles",
      "outputs": [
        {
          "internalType": "enum MilkChain.Role",
          "name": "",
          "type": "uint8"
        }
      ],
      "stateMutability": "view",
      "type": "function",
      "constant": true
    },
    {
      "inputs": [
        {
          "internalType": "address",
          "name": "account",
          "type": "address"
        }
      ],
      "name": "removeRole",
      "outputs": [],
      "stateMutability": "nonpayable",
      "type": "function"
    },
    {
      "inputs": [],
      "name": "countAdmins",
      "outputs": [
        {
          "internalType": "uint256",
          "name": "",
          "type": "uint256"
        }
      ],
      "stateMutability": "view",
      "type": "function",
      "constant": true
    },
    {
      "inputs": [
        {
          "internalType": "address",
          "name": "account",
          "type": "address"
        },
        {
          "internalType": "enum MilkChain.Role",
          "name": "role",
          "type": "uint8"
        }
      ],
      "name": "assignRole",
      "outputs": [],
      "stateMutability": "nonpayable",
      "type": "function"
    },
    {
      "inputs": [],
      "name": "createNewProcess",
      "outputs": [],
      "stateMutability": "nonpayable",
      "type": "function"
    },
    {
      "inputs": [
        {
          "internalType": "uint256",
          "name": "lotNumber",
          "type": "uint256"
        },
        {
          "internalType": "uint256",
          "name": "stepIndex",
          "type": "uint256"
        },
        {
          "internalType": "address",
          "name": "supervisor",
          "type": "address"
        }
      ],
      "name": "assignSupervisor",
      "outputs": [],
      "stateMutability": "nonpayable",
      "type": "function"
    },
    {
      "inputs": [
        {
          "internalType": "uint256",
          "name": "lotNumber",
          "type": "uint256"
        },
        {
          "internalType": "string",
          "name": "_location",
          "type": "string"
        }
      ],
      "name": "completeStep",
      "outputs": [],
      "stateMutability": "nonpayable",
      "type": "function"
    },
    {
      "inputs": [
        {
          "internalType": "uint256",
          "name": "lotNumber",
          "type": "uint256"
        }
      ],
      "name": "getStepsLength",
      "outputs": [
        {
          "internalType": "uint256",
          "name": "",
          "type": "uint256"
        }
      ],
      "stateMutability": "view",
      "type": "function",
      "constant": true
    },
    {
      "inputs": [
        {
          "internalType": "uint256",
          "name": "lotNumber",
          "type": "uint256"
        },
        {
          "internalType": "uint256",
          "name": "index",
          "type": "uint256"
        }
      ],
      "name": "getStep",
      "outputs": [
        {
          "internalType": "string",
          "name": "",
          "type": "string"
        },
        {
          "internalType": "address",
          "name": "",
          "type": "address"
        },
        {
          "internalType": "bool",
          "name": "",
          "type": "bool"
        },
        {
          "internalType": "uint256",
          "name": "",
          "type": "uint256"
        },
        {
          "internalType": "uint256",
          "name": "",
          "type": "uint256"
        },
        {
          "internalType": "string",
          "name": "",
          "type": "string"
        },
        {
          "internalType": "uint256",
          "name": "",
          "type": "uint256"
        }
      ],
      "stateMutability": "view",
      "type": "function",
      "constant": true
    },
    {
      "inputs": [
        {
          "internalType": "uint256",
          "name": "lotNumber",
          "type": "uint256"
        }
      ],
      "name": "isProcessCompleted",
      "outputs": [
        {
          "internalType": "bool",
          "name": "",
          "type": "bool"
        }
      ],
      "stateMutability": "view",
      "type": "function",
      "constant": true
    },
    {
      "inputs": [
        {
          "internalType": "uint256",
          "name": "lotNumber",
          "type": "uint256"
        }
      ],
      "name": "getCurrentStepIndex",
      "outputs": [
        {
          "internalType": "uint256",
          "name": "",
          "type": "uint256"
        }
      ],
      "stateMutability": "view",
      "type": "function",
      "constant": true
    },
    {
      "inputs": [],
      "name": "getCurrentLotNumber",
      "outputs": [
        {
          "internalType": "uint256",
          "name": "",
          "type": "uint256"
        }
      ],
      "stateMutability": "view",
      "type": "function",
      "constant": true
    },
    {
      "inputs": [
        {
          "internalType": "uint256",
          "name": "lotNumber",
          "type": "uint256"
        }
      ],
      "name": "getLot",
      "outputs": [
        {
          "components": [
            {
              "internalType": "string",
              "name": "name",
              "type": "string"
            },
            {
              "internalType": "address",
              "name": "supervisor",
              "type": "address"
            },
            {
              "internalType": "bool",
              "name": "completed",
              "type": "bool"
            },
            {
              "internalType": "uint256",
              "name": "startTime",
              "type": "uint256"
            },
            {
              "internalType": "uint256",
              "name": "endTime",
              "type": "uint256"
            },
            {
              "internalType": "string",
              "name": "location",
              "type": "string"
            },
            {
              "internalType": "uint256",
              "name": "lotNumber",
              "type": "uint256"
            }
          ],
          "internalType": "struct MilkChain.Step[]",
          "name": "",
          "type": "tuple[]"
        }
      ],
      "stateMutability": "view",
      "type": "function",
      "constant": true
    },
    {
      "inputs": [],
      "name": "getAllAccounts",
      "outputs": [
        {
          "internalType": "address[]",
          "name": "",
          "type": "address[]"
        }
      ],
      "stateMutability": "view",
      "type": "function",
      "constant": true
    }
  ],
  "bytecode": "0x608060405234801561001057600080fd5b5033600560006101000a81548173ffffffffffffffffffffffffffffffffffffffff021916908373ffffffffffffffffffffffffffffffffffffffff1602179055506001806000600560009054906101000a900473ffffffffffffffffffffffffffffffffffffffff1673ffffffffffffffffffffffffffffffffffffffff1673ffffffffffffffffffffffffffffffffffffffff16815260200190815260200160002060006101000a81548160ff021916908360038111156100fc577f4e487b7100000000000000000000000000000000000000000000000000000000600052602160045260246000fd5b02179055506001600481905550600160026000600560009054906101000a900473ffffffffffffffffffffffffffffffffffffffff1673ffffffffffffffffffffffffffffffffffffffff1673ffffffffffffffffffffffffffffffffffffffff16815260200190815260200160002060006101000a81548160ff0219169083151502179055506003600560009054906101000a900473ffffffffffffffffffffffffffffffffffffffff169080600181540180825580915050600190039060005260206000200160009091909190916101000a81548173ffffffffffffffffffffffffffffffffffffffff021916908373ffffffffffffffffffffffffffffffffffffffff16021790555061348a806102176000396000f3fe608060405234801561001057600080fd5b506004361061010b5760003560e01c8063848d8dac116100a2578063ab995d1211610071578063ab995d12146102bf578063ad1e954e146102ef578063c9b021c21461030d578063d996570e1461032b578063f13b2596146103475761010b565b8063848d8dac1461024b578063893c12dd146102555780638da5cb5b14610271578063993746421461028f5761010b565b80634db04508116100de5780634db0450814610198578063579e51c7146101ce578063630a195b146101ff5780637bc23f611461021b5761010b565b806308c0cad61461011057806308e93d0a1461014057806318ca11c91461015e5780634762155d1461017c575b600080fd5b61012a60048036038101906101259190612792565b610377565b6040516101379190613093565b60405180910390f35b610148610399565b6040516101559190612e7c565b60405180910390f35b610166610427565b6040516101739190613093565b60405180910390f35b6101966004803603810190610191919061272d565b610591565b005b6101b260048036038101906101ad919061280f565b610ab1565b6040516101c59796959493929190612ef6565b60405180910390f35b6101e860048036038101906101e39190612792565b610ceb565b6040516101f69291906130ae565b60405180910390f35b61021960048036038101906102149190612756565b610d0f565b005b61023560048036038101906102309190612792565b6111bd565b6040516102429190613093565b60405180910390f35b6102536111dc565b005b61026f600480360381019061026a919061284b565b611375565b005b610279611565565b6040516102869190612e61565b60405180910390f35b6102a960048036038101906102a4919061272d565b61158b565b6040516102b69190612edb565b60405180910390f35b6102d960048036038101906102d49190612792565b6115ab565b6040516102e69190612e9e565b60405180910390f35b6102f76119c5565b6040516103049190613093565b60405180910390f35b6103156119cf565b6040516103229190613093565b60405180910390f35b610345600480360381019061034091906127bb565b6119d5565b005b610361600480360381019061035c9190612792565b611dad565b60405161036e9190612ec0565b60405180910390f35b6000806000838152602001908152602001600020600001805490509050919050565b6060600380548060200260200160405190810160405280929190818152602001828054801561041d57602002820191906000526020600020905b8160009054906101000a900473ffffffffffffffffffffffffffffffffffffffff1673ffffffffffffffffffffffffffffffffffffffff16815260200190600101908083116103d3575b5050505050905090565b6000806000905060005b6003805490508110156105895760016003811115610478577f4e487b7100000000000000000000000000000000000000000000000000000000600052602160045260246000fd5b60016000600384815481106104b6577f4e487b7100000000000000000000000000000000000000000000000000000000600052603260045260246000fd5b9060005260206000200160009054906101000a900473ffffffffffffffffffffffffffffffffffffffff1673ffffffffffffffffffffffffffffffffffffffff1673ffffffffffffffffffffffffffffffffffffffff16815260200190815260200160002060009054906101000a900460ff166003811115610561577f4e487b7100000000000000000000000000000000000000000000000000000000600052602160045260246000fd5b1415610576578180610572906132ec565b9250505b8080610581906132ec565b915050610431565b508091505090565b600160038111156105cb577f4e487b7100000000000000000000000000000000000000000000000000000000600052602160045260246000fd5b600160003373ffffffffffffffffffffffffffffffffffffffff1673ffffffffffffffffffffffffffffffffffffffff16815260200190815260200160002060009054906101000a900460ff166003811115610650577f4e487b7100000000000000000000000000000000000000000000000000000000600052602160045260246000fd5b14610690576040517f08c379a000000000000000000000000000000000000000000000000000000000815260040161068790612ff3565b60405180910390fd5b600160038111156106ca577f4e487b7100000000000000000000000000000000000000000000000000000000600052602160045260246000fd5b600160008373ffffffffffffffffffffffffffffffffffffffff1673ffffffffffffffffffffffffffffffffffffffff16815260200190815260200160002060009054906101000a900460ff16600381111561074f577f4e487b7100000000000000000000000000000000000000000000000000000000600052602160045260246000fd5b14158061076357506001610761610427565b115b6107a2576040517f08c379a000000000000000000000000000000000000000000000000000000000815260040161079990613033565b60405180910390fd5b6000600160008373ffffffffffffffffffffffffffffffffffffffff1673ffffffffffffffffffffffffffffffffffffffff16815260200190815260200160002060006101000a81548160ff0219169083600381111561082b577f4e487b7100000000000000000000000000000000000000000000000000000000600052602160045260246000fd5b02179055506000600260008373ffffffffffffffffffffffffffffffffffffffff1673ffffffffffffffffffffffffffffffffffffffff16815260200190815260200160002060006101000a81548160ff02191690831515021790555060005b600380549050811015610aad578173ffffffffffffffffffffffffffffffffffffffff16600382815481106108e9577f4e487b7100000000000000000000000000000000000000000000000000000000600052603260045260246000fd5b9060005260206000200160009054906101000a900473ffffffffffffffffffffffffffffffffffffffff1673ffffffffffffffffffffffffffffffffffffffff161415610a9a576003600160038054905061094491906131d7565b8154811061097b577f4e487b7100000000000000000000000000000000000000000000000000000000600052603260045260246000fd5b9060005260206000200160009054906101000a900473ffffffffffffffffffffffffffffffffffffffff16600382815481106109e0577f4e487b7100000000000000000000000000000000000000000000000000000000600052603260045260246000fd5b9060005260206000200160006101000a81548173ffffffffffffffffffffffffffffffffffffffff021916908373ffffffffffffffffffffffffffffffffffffffff1602179055506003805480610a60577f4e487b7100000000000000000000000000000000000000000000000000000000600052603160045260246000fd5b6001900381819060005260206000200160006101000a81549073ffffffffffffffffffffffffffffffffffffffff02191690559055610aad565b8080610aa5906132ec565b91505061088b565b5050565b606060008060008060606000806000808b8152602001908152602001600020905080600001805490508910610b1b576040517f08c379a0000000000000000000000000000000000000000000000000000000008152600401610b1290613013565b60405180910390fd5b6000816000018a81548110610b59577f4e487b7100000000000000000000000000000000000000000000000000000000600052603260045260246000fd5b90600052602060002090600602019050806000018160010160009054906101000a900473ffffffffffffffffffffffffffffffffffffffff168260010160149054906101000a900460ff1683600201548460030154856004018660050154868054610bc3906132ba565b80601f0160208091040260200160405190810160405280929190818152602001828054610bef906132ba565b8015610c3c5780601f10610c1157610100808354040283529160200191610c3c565b820191906000526020600020905b815481529060010190602001808311610c1f57829003601f168201915b50505050509650818054610c4f906132ba565b80601f0160208091040260200160405190810160405280929190818152602001828054610c7b906132ba565b8015610cc85780601f10610c9d57610100808354040283529160200191610cc8565b820191906000526020600020905b815481529060010190602001808311610cab57829003601f168201915b505050505091509850985098509850985098509850505092959891949750929550565b60006020528060005260406000206000915090508060010154908060020154905082565b60016003811115610d49577f4e487b7100000000000000000000000000000000000000000000000000000000600052602160045260246000fd5b600160003373ffffffffffffffffffffffffffffffffffffffff1673ffffffffffffffffffffffffffffffffffffffff16815260200190815260200160002060009054906101000a900460ff166003811115610dce577f4e487b7100000000000000000000000000000000000000000000000000000000600052602160045260246000fd5b14610e0e576040517f08c379a0000000000000000000000000000000000000000000000000000000008152600401610e0590612ff3565b60405180910390fd5b60016003811115610e48577f4e487b7100000000000000000000000000000000000000000000000000000000600052602160045260246000fd5b600160008473ffffffffffffffffffffffffffffffffffffffff1673ffffffffffffffffffffffffffffffffffffffff16815260200190815260200160002060009054906101000a900460ff166003811115610ecd577f4e487b7100000000000000000000000000000000000000000000000000000000600052602160045260246000fd5b141580610ee157506001610edf610427565b115b610f20576040517f08c379a0000000000000000000000000000000000000000000000000000000008152600401610f1790612fb3565b60405180910390fd5b806003811115610f59577f4e487b7100000000000000000000000000000000000000000000000000000000600052602160045260246000fd5b600160008473ffffffffffffffffffffffffffffffffffffffff1673ffffffffffffffffffffffffffffffffffffffff16815260200190815260200160002060009054906101000a900460ff166003811115610fde577f4e487b7100000000000000000000000000000000000000000000000000000000600052602160045260246000fd5b141561101f576040517f08c379a000000000000000000000000000000000000000000000000000000000815260040161101690613053565b60405180910390fd5b80600160008473ffffffffffffffffffffffffffffffffffffffff1673ffffffffffffffffffffffffffffffffffffffff16815260200190815260200160002060006101000a81548160ff021916908360038111156110a7577f4e487b7100000000000000000000000000000000000000000000000000000000600052602160045260246000fd5b0217905550600260008373ffffffffffffffffffffffffffffffffffffffff1673ffffffffffffffffffffffffffffffffffffffff16815260200190815260200160002060009054906101000a900460ff166111b9576001600260008473ffffffffffffffffffffffffffffffffffffffff1673ffffffffffffffffffffffffffffffffffffffff16815260200190815260200160002060006101000a81548160ff0219169083151502179055506003829080600181540180825580915050600190039060005260206000200160009091909190916101000a81548173ffffffffffffffffffffffffffffffffffffffff021916908373ffffffffffffffffffffffffffffffffffffffff1602179055505b5050565b6000806000838152602001908152602001600020600101549050919050565b60016003811115611216577f4e487b7100000000000000000000000000000000000000000000000000000000600052602160045260246000fd5b600160003373ffffffffffffffffffffffffffffffffffffffff1673ffffffffffffffffffffffffffffffffffffffff16815260200190815260200160002060009054906101000a900460ff16600381111561129b577f4e487b7100000000000000000000000000000000000000000000000000000000600052602160045260246000fd5b146112db576040517f08c379a00000000000000000000000000000000000000000000000000000000081526004016112d290612ff3565b60405180910390fd5b600080600060045481526020019081526020016000209050600454816002018190555061130781611ddb565b4281600001600081548110611345577f4e487b7100000000000000000000000000000000000000000000000000000000600052603260045260246000fd5b9060005260206000209060060201600201819055506004600081548092919061136d906132ec565b919050555050565b600160038111156113af577f4e487b7100000000000000000000000000000000000000000000000000000000600052602160045260246000fd5b600160003373ffffffffffffffffffffffffffffffffffffffff1673ffffffffffffffffffffffffffffffffffffffff16815260200190815260200160002060009054906101000a900460ff166003811115611434577f4e487b7100000000000000000000000000000000000000000000000000000000600052602160045260246000fd5b14611474576040517f08c379a000000000000000000000000000000000000000000000000000000000815260040161146b90612ff3565b60405180910390fd5b60008060008581526020019081526020016000209050806000018054905083106114d3576040517f08c379a00000000000000000000000000000000000000000000000000000000081526004016114ca90613013565b60405180910390fd5b81816000018481548110611510577f4e487b7100000000000000000000000000000000000000000000000000000000600052603260045260246000fd5b906000526020600020906006020160010160006101000a81548173ffffffffffffffffffffffffffffffffffffffff021916908373ffffffffffffffffffffffffffffffffffffffff16021790555050505050565b600560009054906101000a900473ffffffffffffffffffffffffffffffffffffffff1681565b60016020528060005260406000206000915054906101000a900460ff1681565b6060600080600084815260200190815260200160002090506000805b826000018054905081101561165857826000018181548110611612577f4e487b7100000000000000000000000000000000000000000000000000000000600052603260045260246000fd5b906000526020600020906006020160010160149054906101000a900460ff1615611645578180611641906132ec565b9250505b8080611650906132ec565b9150506115c7565b5060008167ffffffffffffffff81111561169b577f4e487b7100000000000000000000000000000000000000000000000000000000600052604160045260246000fd5b6040519080825280602002602001820160405280156116d457816020015b6116c161258e565b8152602001906001900390816116b95790505b5090506000805b84600001805490508110156119b857846000018181548110611726577f4e487b7100000000000000000000000000000000000000000000000000000000600052603260045260246000fd5b906000526020600020906006020160010160149054906101000a900460ff16156119a557846000018181548110611786577f4e487b7100000000000000000000000000000000000000000000000000000000600052603260045260246000fd5b90600052602060002090600602016040518060e00160405290816000820180546117af906132ba565b80601f01602080910402602001604051908101604052809291908181526020018280546117db906132ba565b80156118285780601f106117fd57610100808354040283529160200191611828565b820191906000526020600020905b81548152906001019060200180831161180b57829003601f168201915b505050505081526020016001820160009054906101000a900473ffffffffffffffffffffffffffffffffffffffff1673ffffffffffffffffffffffffffffffffffffffff1673ffffffffffffffffffffffffffffffffffffffff1681526020016001820160149054906101000a900460ff1615151515815260200160028201548152602001600382015481526020016004820180546118c6906132ba565b80601f01602080910402602001604051908101604052809291908181526020018280546118f2906132ba565b801561193f5780601f106119145761010080835404028352916020019161193f565b820191906000526020600020905b81548152906001019060200180831161192257829003601f168201915b5050505050815260200160058201548152505083838151811061198b577f4e487b7100000000000000000000000000000000000000000000000000000000600052603260045260246000fd5b602002602001018190525081806119a1906132ec565b9250505b80806119b0906132ec565b9150506116db565b5081945050505050919050565b6000600454905090565b60045481565b60026003811115611a0f577f4e487b7100000000000000000000000000000000000000000000000000000000600052602160045260246000fd5b600160003373ffffffffffffffffffffffffffffffffffffffff1673ffffffffffffffffffffffffffffffffffffffff16815260200190815260200160002060009054906101000a900460ff166003811115611a94577f4e487b7100000000000000000000000000000000000000000000000000000000600052602160045260246000fd5b14611ad4576040517f08c379a0000000000000000000000000000000000000000000000000000000008152600401611acb90612f93565b60405180910390fd5b600080600084815260200190815260200160002090508060000180549050816001015410611b37576040517f08c379a0000000000000000000000000000000000000000000000000000000008152600401611b2e90613073565b60405180910390fd5b600081600001826001015481548110611b79577f4e487b7100000000000000000000000000000000000000000000000000000000600052603260045260246000fd5b906000526020600020906006020190508060010160009054906101000a900473ffffffffffffffffffffffffffffffffffffffff1673ffffffffffffffffffffffffffffffffffffffff163373ffffffffffffffffffffffffffffffffffffffff1614611c1b576040517f08c379a0000000000000000000000000000000000000000000000000000000008152600401611c1290612fd3565b60405180910390fd5b60018160010160146101000a81548160ff021916908315150217905550428160030181905550600082600101541115611cb5578160000160018360010154611c6391906131d7565b81548110611c9a577f4e487b7100000000000000000000000000000000000000000000000000000000600052603260045260246000fd5b90600052602060002090600602016003015481600201819055505b611cbe83612581565b611cfd576040517f08c379a0000000000000000000000000000000000000000000000000000000008152600401611cf490612f73565b60405180910390fd5b82816004019080519060200190611d159291906125e3565b5081600201548160050181905550816001016000815480929190611d38906132ec565b9190505550816000018054905082600101541015611da7574282600001836001015481548110611d91577f4e487b7100000000000000000000000000000000000000000000000000000000600052603260045260246000fd5b9060005260206000209060060201600201819055505b50505050565b6000806000808481526020019081526020016000209050806000018054905081600101541015915050919050565b806000016040518060e001604052806040518060400160405280600881526020017f526163636f6c74610000000000000000000000000000000000000000000000008152508152602001600073ffffffffffffffffffffffffffffffffffffffff1681526020016000151581526020016000815260200160008152602001604051806020016040528060008152508152602001836002015481525090806001815401808255809150506001900390600052602060002090600602016000909190919091506000820151816000019080519060200190611ebb9291906125e3565b5060208201518160010160006101000a81548173ffffffffffffffffffffffffffffffffffffffff021916908373ffffffffffffffffffffffffffffffffffffffff16021790555060408201518160010160146101000a81548160ff021916908315150217905550606082015181600201556080820151816003015560a0820151816004019080519060200190611f539291906125e3565b5060c082015181600501555050806000016040518060e001604052806040518060400160405280600981526020017f54726173706f72746f00000000000000000000000000000000000000000000008152508152602001600073ffffffffffffffffffffffffffffffffffffffff16815260200160001515815260200160008152602001600081526020016040518060200160405280600081525081526020018360020154815250908060018154018082558091505060019003906000526020600020906006020160009091909190915060008201518160000190805190602001906120409291906125e3565b5060208201518160010160006101000a81548173ffffffffffffffffffffffffffffffffffffffff021916908373ffffffffffffffffffffffffffffffffffffffff16021790555060408201518160010160146101000a81548160ff021916908315150217905550606082015181600201556080820151816003015560a08201518160040190805190602001906120d89291906125e3565b5060c082015181600501555050806000016040518060e001604052806040518060400160405280600b81526020017f4c61766f72617a696f6e650000000000000000000000000000000000000000008152508152602001600073ffffffffffffffffffffffffffffffffffffffff16815260200160001515815260200160008152602001600081526020016040518060200160405280600081525081526020018360020154815250908060018154018082558091505060019003906000526020600020906006020160009091909190915060008201518160000190805190602001906121c59291906125e3565b5060208201518160010160006101000a81548173ffffffffffffffffffffffffffffffffffffffff021916908373ffffffffffffffffffffffffffffffffffffffff16021790555060408201518160010160146101000a81548160ff021916908315150217905550606082015181600201556080820151816003015560a082015181600401908051906020019061225d9291906125e3565b5060c082015181600501555050806000016040518060e001604052806040518060400160405280600f81526020017f436f6e66657a696f6e616d656e746f00000000000000000000000000000000008152508152602001600073ffffffffffffffffffffffffffffffffffffffff168152602001600015158152602001600081526020016000815260200160405180602001604052806000815250815260200183600201548152509080600181540180825580915050600190039060005260206000209060060201600090919091909150600082015181600001908051906020019061234a9291906125e3565b5060208201518160010160006101000a81548173ffffffffffffffffffffffffffffffffffffffff021916908373ffffffffffffffffffffffffffffffffffffffff16021790555060408201518160010160146101000a81548160ff021916908315150217905550606082015181600201556080820151816003015560a08201518160040190805190602001906123e29291906125e3565b5060c082015181600501555050806000016040518060e001604052806040518060400160405280600d81526020017f44697374726962757a696f6e65000000000000000000000000000000000000008152508152602001600073ffffffffffffffffffffffffffffffffffffffff16815260200160001515815260200160008152602001600081526020016040518060200160405280600081525081526020018360020154815250908060018154018082558091505060019003906000526020600020906006020160009091909190915060008201518160000190805190602001906124cf9291906125e3565b5060208201518160010160006101000a81548173ffffffffffffffffffffffffffffffffffffffff021916908373ffffffffffffffffffffffffffffffffffffffff16021790555060408201518160010160146101000a81548160ff021916908315150217905550606082015181600201556080820151816003015560a08201518160040190805190602001906125679291906125e3565b5060c0820151816005015550506000816001018190555050565b6000808251119050919050565b6040518060e0016040528060608152602001600073ffffffffffffffffffffffffffffffffffffffff168152602001600015158152602001600081526020016000815260200160608152602001600081525090565b8280546125ef906132ba565b90600052602060002090601f0160209004810192826126115760008555612658565b82601f1061262a57805160ff1916838001178555612658565b82800160010185558215612658579182015b8281111561265757825182559160200191906001019061263c565b5b5090506126659190612669565b5090565b5b8082111561268257600081600090555060010161266a565b5090565b600061269961269484613108565b6130d7565b9050828152602081018484840111156126b157600080fd5b6126bc848285613278565b509392505050565b6000813590506126d381613416565b92915050565b6000813590506126e88161342d565b92915050565b600082601f8301126126ff57600080fd5b813561270f848260208601612686565b91505092915050565b6000813590506127278161343d565b92915050565b60006020828403121561273f57600080fd5b600061274d848285016126c4565b91505092915050565b6000806040838503121561276957600080fd5b6000612777858286016126c4565b9250506020612788858286016126d9565b9150509250929050565b6000602082840312156127a457600080fd5b60006127b284828501612718565b91505092915050565b600080604083850312156127ce57600080fd5b60006127dc85828601612718565b925050602083013567ffffffffffffffff8111156127f957600080fd5b612805858286016126ee565b9150509250929050565b6000806040838503121561282257600080fd5b600061283085828601612718565b925050602061284185828601612718565b9150509250929050565b60008060006060848603121561286057600080fd5b600061286e86828701612718565b935050602061287f86828701612718565b9250506040612890868287016126c4565b9150509250925092565b60006128a683836128c6565b60208301905092915050565b60006128be8383612da0565b905092915050565b6128cf8161320b565b82525050565b6128de8161320b565b82525050565b60006128ef82613158565b6128f98185613193565b935061290483613138565b8060005b8381101561293557815161291c888261289a565b975061292783613179565b925050600181019050612908565b5085935050505092915050565b600061294d82613163565b61295781856131a4565b93508360208202850161296985613148565b8060005b858110156129a5578484038952815161298685826128b2565b945061299183613186565b925060208a0199505060018101905061296d565b50829750879550505050505092915050565b6129c08161321d565b82525050565b6129cf8161321d565b82525050565b6129de81613266565b82525050565b60006129ef8261316e565b6129f981856131b5565b9350612a09818560208601613287565b612a12816133f1565b840191505092915050565b6000612a288261316e565b612a3281856131c6565b9350612a42818560208601613287565b612a4b816133f1565b840191505092915050565b6000612a636028836131c6565b91507f4c6f636174696f6e206973206e6f7420726561736f6e61626c6520666f72207460008301527f68697320737465700000000000000000000000000000000000000000000000006020830152604082019050919050565b6000612ac96027836131c6565b91507f4f6e6c792073757065727669736f722063616e20706572666f726d207468697360008301527f20616374696f6e000000000000000000000000000000000000000000000000006020830152604082019050919050565b6000612b2f602c836131c6565b91507f4e6f6e2070756f692063616d626961726520696c2072756f6c6f2064656c6c2760008301527f756c74696d6f2061646d696e00000000000000000000000000000000000000006020830152604082019050919050565b6000612b95602e836131c6565b91507f4f6e6c792061737369676e65642073757065727669736f722063616e20636f6d60008301527f706c6574652074686520737465700000000000000000000000000000000000006020830152604082019050919050565b6000612bfb6022836131c6565b91507f4f6e6c792061646d696e2063616e20706572666f726d2074686973206163746960008301527f6f6e0000000000000000000000000000000000000000000000000000000000006020830152604082019050919050565b6000612c616017836131c6565b91507f5374657020696e646578206f7574206f662072616e67650000000000000000006000830152602082019050919050565b6000612ca16021836131c6565b91507f4e6f6e2070756f692072696d756f76657265206c27756c74696d6f2061646d6960008301527f6e000000000000000000000000000000000000000000000000000000000000006020830152604082019050919050565b6000612d076022836131c6565b91507f51756573746f206163636f756e74206861206769612071756573746f2072756f60008301527f6c6f0000000000000000000000000000000000000000000000000000000000006020830152604082019050919050565b6000612d6d601f836131c6565b91507f416c6c2073746570732061726520616c726561647920636f6d706c65746564006000830152602082019050919050565b600060e0830160008301518482036000860152612dbd82826129e4565b9150506020830151612dd260208601826128c6565b506040830151612de560408601826129b7565b506060830151612df86060860182612e43565b506080830151612e0b6080860182612e43565b5060a083015184820360a0860152612e2382826129e4565b91505060c0830151612e3860c0860182612e43565b508091505092915050565b612e4c8161325c565b82525050565b612e5b8161325c565b82525050565b6000602082019050612e7660008301846128d5565b92915050565b60006020820190508181036000830152612e9681846128e4565b905092915050565b60006020820190508181036000830152612eb88184612942565b905092915050565b6000602082019050612ed560008301846129c6565b92915050565b6000602082019050612ef060008301846129d5565b92915050565b600060e0820190508181036000830152612f10818a612a1d565b9050612f1f60208301896128d5565b612f2c60408301886129c6565b612f396060830187612e52565b612f466080830186612e52565b81810360a0830152612f588185612a1d565b9050612f6760c0830184612e52565b98975050505050505050565b60006020820190508181036000830152612f8c81612a56565b9050919050565b60006020820190508181036000830152612fac81612abc565b9050919050565b60006020820190508181036000830152612fcc81612b22565b9050919050565b60006020820190508181036000830152612fec81612b88565b9050919050565b6000602082019050818103600083015261300c81612bee565b9050919050565b6000602082019050818103600083015261302c81612c54565b9050919050565b6000602082019050818103600083015261304c81612c94565b9050919050565b6000602082019050818103600083015261306c81612cfa565b9050919050565b6000602082019050818103600083015261308c81612d60565b9050919050565b60006020820190506130a86000830184612e52565b92915050565b60006040820190506130c36000830185612e52565b6130d06020830184612e52565b9392505050565b6000604051905081810181811067ffffffffffffffff821117156130fe576130fd6133c2565b5b8060405250919050565b600067ffffffffffffffff821115613123576131226133c2565b5b601f19601f8301169050602081019050919050565b6000819050602082019050919050565b6000819050602082019050919050565b600081519050919050565b600081519050919050565b600081519050919050565b6000602082019050919050565b6000602082019050919050565b600082825260208201905092915050565b600082825260208201905092915050565b600082825260208201905092915050565b600082825260208201905092915050565b60006131e28261325c565b91506131ed8361325c565b925082821015613200576131ff613335565b5b828203905092915050565b60006132168261323c565b9050919050565b60008115159050919050565b600081905061323782613402565b919050565b600073ffffffffffffffffffffffffffffffffffffffff82169050919050565b6000819050919050565b600061327182613229565b9050919050565b82818337600083830152505050565b60005b838110156132a557808201518184015260208101905061328a565b838111156132b4576000848401525b50505050565b600060028204905060018216806132d257607f821691505b602082108114156132e6576132e5613393565b5b50919050565b60006132f78261325c565b91507fffffffffffffffffffffffffffffffffffffffffffffffffffffffffffffffff82141561332a57613329613335565b5b600182019050919050565b7f4e487b7100000000000000000000000000000000000000000000000000000000600052601160045260246000fd5b7f4e487b7100000000000000000000000000000000000000000000000000000000600052602160045260246000fd5b7f4e487b7100000000000000000000000000000000000000000000000000000000600052602260045260246000fd5b7f4e487b7100000000000000000000000000000000000000000000000000000000600052604160045260246000fd5b6000601f19601f8301169050919050565b6004811061341357613412613364565b5b50565b61341f8161320b565b811461342a57600080fd5b50565b6004811061343a57600080fd5b50565b6134468161325c565b811461345157600080fd5b5056fea26469706673582212205fc4e4a8869b9bc637f5774424f5b1a0c64df5492db7fb10b24da85533db200064736f6c63430008000033",
  "immutableReferences": {},
  "source": "// SPDX-License-Identifier: MIT\r\npragma solidity ^0.8.0;\r\n\r\ncontract MilkChain {\r\n    enum Role {None, Admin, Supervisor, Operator}\r\n    \r\n    struct Step {\r\n        string name;\r\n        address supervisor;\r\n        bool completed;\r\n        uint startTime;\r\n        uint endTime;\r\n        string location;\r\n        uint lotNumber;\r\n    }\r\n\r\n    struct Process {\r\n        Step[] steps;\r\n        uint currentStepIndex;\r\n        uint lotNumber;\r\n    }\r\n\r\n    mapping(uint => Process) public processes;\r\n    mapping(address => Role) public roles;\r\n    mapping(address => bool) private allAccounts;\r\n    address[] private accountList;\r\n    uint public currentLotNumber;\r\n    address public owner;\r\n\r\n    modifier onlyAdmin() {\r\n        require(roles[msg.sender] == Role.Admin, \"Only admin can perform this action\");\r\n        _;\r\n    }\r\n\r\n    modifier onlySupervisor() {\r\n        require(roles[msg.sender] == Role.Supervisor, \"Only supervisor can perform this action\");\r\n        _;\r\n    }\r\n\r\n    function removeRole(address account) public onlyAdmin {\r\n        require(roles[account] != Role.Admin || countAdmins() > 1, \"Non puoi rimuovere l'ultimo admin\");\r\n        roles[account] = Role.None;\r\n        allAccounts[account] = false;\r\n        for (uint i = 0; i < accountList.length; i++) {\r\n            if (accountList[i] == account) {\r\n                accountList[i] = accountList[accountList.length - 1];\r\n                accountList.pop();\r\n                break;\r\n            }\r\n        }\r\n    }\r\n\r\n    function countAdmins() public view returns (uint) {\r\n        uint count = 0;\r\n        for (uint i = 0; i < accountList.length; i++) {\r\n            if (roles[accountList[i]] == Role.Admin) {\r\n                count++;\r\n            }\r\n        }\r\n        return count;\r\n    }\r\n\r\n    constructor() {\r\n        owner = msg.sender;\r\n        roles[owner] = Role.Admin;\r\n        currentLotNumber = 1;\r\n        allAccounts[owner] = true;\r\n        accountList.push(owner);\r\n    }\r\n\r\n    function assignRole(address account, Role role) public onlyAdmin {\r\n        require(roles[account] != Role.Admin || countAdmins() > 1, \"Non puoi cambiare il ruolo dell'ultimo admin\");\r\n        require(roles[account] != role, \"Questo account ha gia questo ruolo\");\r\n        roles[account] = role;\r\n        if (!allAccounts[account]) {\r\n            allAccounts[account] = true;\r\n            accountList.push(account);\r\n        }\r\n    }\r\n\r\n    function createNewProcess() public onlyAdmin {\r\n        Process storage newProcess = processes[currentLotNumber];\r\n        newProcess.lotNumber = currentLotNumber;\r\n        initializeSteps(newProcess);\r\n        newProcess.steps[0].startTime = block.timestamp;\r\n        currentLotNumber++;\r\n    }\r\n\r\n    function initializeSteps(Process storage process) internal {\r\n        process.steps.push(Step(\"Raccolta\", address(0), false, 0, 0, \"\", process.lotNumber));\r\n        process.steps.push(Step(\"Trasporto\", address(0), false, 0, 0, \"\", process.lotNumber));\r\n        process.steps.push(Step(\"Lavorazione\", address(0), false, 0, 0, \"\", process.lotNumber));\r\n        process.steps.push(Step(\"Confezionamento\", address(0), false, 0, 0, \"\", process.lotNumber));\r\n        process.steps.push(Step(\"Distribuzione\", address(0), false, 0, 0, \"\", process.lotNumber));\r\n        process.currentStepIndex = 0;\r\n    }\r\n\r\n    function assignSupervisor(uint lotNumber, uint stepIndex, address supervisor) public onlyAdmin {\r\n        Process storage process = processes[lotNumber];\r\n        require(stepIndex < process.steps.length, \"Step index out of range\");\r\n        process.steps[stepIndex].supervisor = supervisor;\r\n    }\r\n\r\n    function completeStep(uint lotNumber, string memory _location) public onlySupervisor {\r\n        Process storage process = processes[lotNumber];\r\n        require(process.currentStepIndex < process.steps.length, \"All steps are already completed\");\r\n        Step storage step = process.steps[process.currentStepIndex];\r\n        require(msg.sender == step.supervisor, \"Only assigned supervisor can complete the step\");\r\n        step.completed = true;\r\n        step.endTime = block.timestamp;\r\n\r\n        if (process.currentStepIndex > 0) {\r\n            step.startTime = process.steps[process.currentStepIndex - 1].endTime;\r\n        }\r\n\r\n        require(isReasonableLocation(_location), \"Location is not reasonable for this step\");\r\n\r\n        step.location = _location;\r\n        step.lotNumber = process.lotNumber;\r\n\r\n        process.currentStepIndex++;\r\n\r\n        if (process.currentStepIndex < process.steps.length) {\r\n            process.steps[process.currentStepIndex].startTime = block.timestamp;\r\n        }\r\n    }\r\n\r\n    function isReasonableLocation(string memory _location) internal pure returns (bool) {\r\n        return bytes(_location).length > 0;\r\n    }\r\n\r\n    function getStepsLength(uint lotNumber) public view returns (uint) {\r\n        return processes[lotNumber].steps.length;\r\n    }\r\n\r\n    function getStep(uint lotNumber, uint index) public view returns (string memory, address, bool, uint, uint, string memory, uint) {\r\n        Process storage process = processes[lotNumber];\r\n        require(index < process.steps.length, \"Step index out of range\");\r\n        Step storage step = process.steps[index];\r\n        return (step.name, step.supervisor, step.completed, step.startTime, step.endTime, step.location, step.lotNumber);\r\n    }\r\n\r\n    function isProcessCompleted(uint lotNumber) public view returns (bool) {\r\n        Process storage process = processes[lotNumber];\r\n        return process.currentStepIndex >= process.steps.length;\r\n    }\r\n\r\n    function getCurrentStepIndex(uint lotNumber) public view returns (uint) {\r\n        return processes[lotNumber].currentStepIndex;\r\n    }\r\n\r\n    function getCurrentLotNumber() public view returns (uint) {\r\n        return currentLotNumber;\r\n    }\r\n\r\n    function getLot(uint lotNumber) public view returns (Step[] memory) {\r\n        Process storage process = processes[lotNumber];\r\n        uint count = 0;\r\n        for (uint i = 0; i < process.steps.length; i++) {\r\n            if (process.steps[i].completed) {\r\n                count++;\r\n            }\r\n        }\r\n\r\n        Step[] memory lotSteps = new Step[](count);\r\n        uint index = 0;\r\n        for (uint i = 0; i < process.steps.length; i++) {\r\n            if (process.steps[i].completed) {\r\n                lotSteps[index] = process.steps[i];\r\n                index++;\r\n            }\r\n        }\r\n        return lotSteps;\r\n    }\r\n\r\n    function getAllAccounts() public view returns (address[] memory) {\r\n        return accountList;\r\n    }\r\n}\r\n",
  "sourcePath": "C:\\Users\\samue\\Desktop\\MilkChain\\backend\\contracts\\MilkChain.sol",
  "compiler": {
    "name": "solc",
    "version": "0.8.0+commit.c7dfd78e.Emscripten.clang"
  },
  "schemaVersion": "3.4.16",
  "updatedAt": "2024-07-03T02:19:46.223Z",
  "networkType": "ethereum",
  "devdoc": {
    "kind": "dev",
    "methods": {},
    "version": 1
  },
  "userdoc": {
    "kind": "user",
    "methods": {},
    "version": 1
  }
}