{
  "contractName": "MilkChain",
  "abi": [
    {
      "inputs": [],
      "stateMutability": "nonpayable",
      "type": "constructor"
    },
    {
      "anonymous": false,
      "inputs": [
        {
          "indexed": false,
          "internalType": "uint256",
          "name": "newLotNumber",
          "type": "uint256"
        }
      ],
      "name": "ProcessReset",
      "type": "event"
    },
    {
      "anonymous": false,
      "inputs": [
        {
          "indexed": false,
          "internalType": "uint256",
          "name": "stepIndex",
          "type": "uint256"
        },
        {
          "indexed": false,
          "internalType": "string",
          "name": "name",
          "type": "string"
        },
        {
          "indexed": false,
          "internalType": "uint256",
          "name": "startTime",
          "type": "uint256"
        },
        {
          "indexed": false,
          "internalType": "uint256",
          "name": "endTime",
          "type": "uint256"
        },
        {
          "indexed": false,
          "internalType": "uint256",
          "name": "lotNumber",
          "type": "uint256"
        }
      ],
      "name": "StepCompleted",
      "type": "event"
    },
    {
      "inputs": [
        {
          "internalType": "uint256",
          "name": "",
          "type": "uint256"
        }
      ],
      "name": "completedSteps",
      "outputs": [
        {
          "internalType": "string",
          "name": "name",
          "type": "string"
        },
        {
          "internalType": "address",
          "name": "supervisor",
          "type": "address"
        },
        {
          "internalType": "bool",
          "name": "completed",
          "type": "bool"
        },
        {
          "internalType": "uint256",
          "name": "startTime",
          "type": "uint256"
        },
        {
          "internalType": "uint256",
          "name": "endTime",
          "type": "uint256"
        },
        {
          "internalType": "string",
          "name": "location",
          "type": "string"
        },
        {
          "internalType": "uint256",
          "name": "lotNumber",
          "type": "uint256"
        }
      ],
      "stateMutability": "view",
      "type": "function",
      "constant": true
    },
    {
      "inputs": [],
      "name": "currentLotNumber",
      "outputs": [
        {
          "internalType": "uint256",
          "name": "",
          "type": "uint256"
        }
      ],
      "stateMutability": "view",
      "type": "function",
      "constant": true
    },
    {
      "inputs": [],
      "name": "currentStepIndex",
      "outputs": [
        {
          "internalType": "uint256",
          "name": "",
          "type": "uint256"
        }
      ],
      "stateMutability": "view",
      "type": "function",
      "constant": true
    },
    {
      "inputs": [
        {
          "internalType": "uint256",
          "name": "",
          "type": "uint256"
        }
      ],
      "name": "steps",
      "outputs": [
        {
          "internalType": "string",
          "name": "name",
          "type": "string"
        },
        {
          "internalType": "address",
          "name": "supervisor",
          "type": "address"
        },
        {
          "internalType": "bool",
          "name": "completed",
          "type": "bool"
        },
        {
          "internalType": "uint256",
          "name": "startTime",
          "type": "uint256"
        },
        {
          "internalType": "uint256",
          "name": "endTime",
          "type": "uint256"
        },
        {
          "internalType": "string",
          "name": "location",
          "type": "string"
        },
        {
          "internalType": "uint256",
          "name": "lotNumber",
          "type": "uint256"
        }
      ],
      "stateMutability": "view",
      "type": "function",
      "constant": true
    },
    {
      "inputs": [
        {
          "internalType": "uint256",
          "name": "stepIndex",
          "type": "uint256"
        },
        {
          "internalType": "address",
          "name": "supervisor",
          "type": "address"
        }
      ],
      "name": "assignSupervisor",
      "outputs": [],
      "stateMutability": "nonpayable",
      "type": "function"
    },
    {
      "inputs": [
        {
          "internalType": "string",
          "name": "_location",
          "type": "string"
        }
      ],
      "name": "completeStep",
      "outputs": [],
      "stateMutability": "nonpayable",
      "type": "function"
    },
    {
      "inputs": [],
      "name": "getStepsLength",
      "outputs": [
        {
          "internalType": "uint256",
          "name": "",
          "type": "uint256"
        }
      ],
      "stateMutability": "view",
      "type": "function",
      "constant": true
    },
    {
      "inputs": [
        {
          "internalType": "uint256",
          "name": "index",
          "type": "uint256"
        }
      ],
      "name": "getStep",
      "outputs": [
        {
          "internalType": "string",
          "name": "",
          "type": "string"
        },
        {
          "internalType": "address",
          "name": "",
          "type": "address"
        },
        {
          "internalType": "bool",
          "name": "",
          "type": "bool"
        },
        {
          "internalType": "uint256",
          "name": "",
          "type": "uint256"
        },
        {
          "internalType": "uint256",
          "name": "",
          "type": "uint256"
        },
        {
          "internalType": "string",
          "name": "",
          "type": "string"
        },
        {
          "internalType": "uint256",
          "name": "",
          "type": "uint256"
        }
      ],
      "stateMutability": "view",
      "type": "function",
      "constant": true
    },
    {
      "inputs": [],
      "name": "getCompletedStepsLength",
      "outputs": [
        {
          "internalType": "uint256",
          "name": "",
          "type": "uint256"
        }
      ],
      "stateMutability": "view",
      "type": "function",
      "constant": true
    },
    {
      "inputs": [
        {
          "internalType": "uint256",
          "name": "index",
          "type": "uint256"
        }
      ],
      "name": "getCompletedStep",
      "outputs": [
        {
          "internalType": "string",
          "name": "",
          "type": "string"
        },
        {
          "internalType": "address",
          "name": "",
          "type": "address"
        },
        {
          "internalType": "bool",
          "name": "",
          "type": "bool"
        },
        {
          "internalType": "uint256",
          "name": "",
          "type": "uint256"
        },
        {
          "internalType": "uint256",
          "name": "",
          "type": "uint256"
        },
        {
          "internalType": "string",
          "name": "",
          "type": "string"
        },
        {
          "internalType": "uint256",
          "name": "",
          "type": "uint256"
        }
      ],
      "stateMutability": "view",
      "type": "function",
      "constant": true
    },
    {
      "inputs": [],
      "name": "isProcessCompleted",
      "outputs": [
        {
          "internalType": "bool",
          "name": "",
          "type": "bool"
        }
      ],
      "stateMutability": "view",
      "type": "function",
      "constant": true
    },
    {
      "inputs": [],
      "name": "getCurrentStepIndex",
      "outputs": [
        {
          "internalType": "uint256",
          "name": "",
          "type": "uint256"
        }
      ],
      "stateMutability": "view",
      "type": "function",
      "constant": true
    },
    {
      "inputs": [],
      "name": "getCurrentLotNumber",
      "outputs": [
        {
          "internalType": "uint256",
          "name": "",
          "type": "uint256"
        }
      ],
      "stateMutability": "view",
      "type": "function",
      "constant": true
    },
    {
      "inputs": [
        {
          "internalType": "uint256",
          "name": "index",
          "type": "uint256"
        },
        {
          "internalType": "string",
          "name": "name",
          "type": "string"
        }
      ],
      "name": "setStepName",
      "outputs": [],
      "stateMutability": "nonpayable",
      "type": "function"
    },
    {
      "inputs": [
        {
          "internalType": "uint256",
          "name": "index",
          "type": "uint256"
        },
        {
          "internalType": "address",
          "name": "supervisor",
          "type": "address"
        }
      ],
      "name": "setStepSupervisor",
      "outputs": [],
      "stateMutability": "nonpayable",
      "type": "function"
    },
    {
      "inputs": [
        {
          "internalType": "uint256",
          "name": "index",
          "type": "uint256"
        },
        {
          "internalType": "string",
          "name": "location",
          "type": "string"
        }
      ],
      "name": "setStepLocation",
      "outputs": [],
      "stateMutability": "nonpayable",
      "type": "function"
    },
    {
      "inputs": [
        {
          "internalType": "uint256",
          "name": "index",
          "type": "uint256"
        },
        {
          "internalType": "bool",
          "name": "completed",
          "type": "bool"
        }
      ],
      "name": "setStepCompleted",
      "outputs": [],
      "stateMutability": "nonpayable",
      "type": "function"
    },
    {
      "inputs": [
        {
          "internalType": "uint256",
          "name": "index",
          "type": "uint256"
        },
        {
          "internalType": "uint256",
          "name": "startTime",
          "type": "uint256"
        }
      ],
      "name": "setStepStartTime",
      "outputs": [],
      "stateMutability": "nonpayable",
      "type": "function"
    },
    {
      "inputs": [
        {
          "internalType": "uint256",
          "name": "index",
          "type": "uint256"
        },
        {
          "internalType": "uint256",
          "name": "endTime",
          "type": "uint256"
        }
      ],
      "name": "setStepEndTime",
      "outputs": [],
      "stateMutability": "nonpayable",
      "type": "function"
    },
    {
      "inputs": [
        {
          "internalType": "uint256",
          "name": "index",
          "type": "uint256"
        },
        {
          "internalType": "uint256",
          "name": "lotNumber",
          "type": "uint256"
        }
      ],
      "name": "setLotNumber",
      "outputs": [],
      "stateMutability": "nonpayable",
      "type": "function"
    },
    {
      "inputs": [
        {
          "internalType": "uint256",
          "name": "lotNumber",
          "type": "uint256"
        }
      ],
      "name": "getLot",
      "outputs": [
        {
          "components": [
            {
              "internalType": "string",
              "name": "name",
              "type": "string"
            },
            {
              "internalType": "address",
              "name": "supervisor",
              "type": "address"
            },
            {
              "internalType": "bool",
              "name": "completed",
              "type": "bool"
            },
            {
              "internalType": "uint256",
              "name": "startTime",
              "type": "uint256"
            },
            {
              "internalType": "uint256",
              "name": "endTime",
              "type": "uint256"
            },
            {
              "internalType": "string",
              "name": "location",
              "type": "string"
            },
            {
              "internalType": "uint256",
              "name": "lotNumber",
              "type": "uint256"
            }
          ],
          "internalType": "struct MilkChain.Step[]",
          "name": "",
          "type": "tuple[]"
        }
      ],
      "stateMutability": "view",
      "type": "function",
      "constant": true
    }
  ],
  "bytecode": "0x60806040523480156200001157600080fd5b5060016003819055506200002a6200003060201b60201c565b620008e8565b60006040518060e001604052806040518060400160405280600881526020017f526163636f6c74610000000000000000000000000000000000000000000000008152508152602001600073ffffffffffffffffffffffffffffffffffffffff1681526020016000151581526020016000815260200160008152602001604051806020016040528060008152508152602001600354815250908060018154018082558091505060019003906000526020600020906006020160009091909190915060008201518160000190805190602001906200010e929190620007d3565b5060208201518160010160006101000a81548173ffffffffffffffffffffffffffffffffffffffff021916908373ffffffffffffffffffffffffffffffffffffffff16021790555060408201518160010160146101000a81548160ff021916908315150217905550606082015181600201556080820151816003015560a0820151816004019080519060200190620001a8929190620007d3565b5060c08201518160050155505060006040518060e001604052806040518060400160405280600981526020017f54726173706f72746f00000000000000000000000000000000000000000000008152508152602001600073ffffffffffffffffffffffffffffffffffffffff16815260200160001515815260200160008152602001600081526020016040518060200160405280600081525081526020016003548152509080600181540180825580915050600190039060005260206000209060060201600090919091909150600082015181600001908051906020019062000293929190620007d3565b5060208201518160010160006101000a81548173ffffffffffffffffffffffffffffffffffffffff021916908373ffffffffffffffffffffffffffffffffffffffff16021790555060408201518160010160146101000a81548160ff021916908315150217905550606082015181600201556080820151816003015560a08201518160040190805190602001906200032d929190620007d3565b5060c08201518160050155505060006040518060e001604052806040518060400160405280600b81526020017f4c61766f72617a696f6e650000000000000000000000000000000000000000008152508152602001600073ffffffffffffffffffffffffffffffffffffffff16815260200160001515815260200160008152602001600081526020016040518060200160405280600081525081526020016003548152509080600181540180825580915050600190039060005260206000209060060201600090919091909150600082015181600001908051906020019062000418929190620007d3565b5060208201518160010160006101000a81548173ffffffffffffffffffffffffffffffffffffffff021916908373ffffffffffffffffffffffffffffffffffffffff16021790555060408201518160010160146101000a81548160ff021916908315150217905550606082015181600201556080820151816003015560a0820151816004019080519060200190620004b2929190620007d3565b5060c08201518160050155505060006040518060e001604052806040518060400160405280600f81526020017f436f6e66657a696f6e616d656e746f00000000000000000000000000000000008152508152602001600073ffffffffffffffffffffffffffffffffffffffff1681526020016000151581526020016000815260200160008152602001604051806020016040528060008152508152602001600354815250908060018154018082558091505060019003906000526020600020906006020160009091909190915060008201518160000190805190602001906200059d929190620007d3565b5060208201518160010160006101000a81548173ffffffffffffffffffffffffffffffffffffffff021916908373ffffffffffffffffffffffffffffffffffffffff16021790555060408201518160010160146101000a81548160ff021916908315150217905550606082015181600201556080820151816003015560a082015181600401908051906020019062000637929190620007d3565b5060c08201518160050155505060006040518060e001604052806040518060400160405280600d81526020017f44697374726962757a696f6e65000000000000000000000000000000000000008152508152602001600073ffffffffffffffffffffffffffffffffffffffff16815260200160001515815260200160008152602001600081526020016040518060200160405280600081525081526020016003548152509080600181540180825580915050600190039060005260206000209060060201600090919091909150600082015181600001908051906020019062000722929190620007d3565b5060208201518160010160006101000a81548173ffffffffffffffffffffffffffffffffffffffff021916908373ffffffffffffffffffffffffffffffffffffffff16021790555060408201518160010160146101000a81548160ff021916908315150217905550606082015181600201556080820151816003015560a0820151816004019080519060200190620007bc929190620007d3565b5060c0820151816005015550506000600181905550565b828054620007e19062000883565b90600052602060002090601f01602090048101928262000805576000855562000851565b82601f106200082057805160ff191683800117855562000851565b8280016001018555821562000851579182015b828111156200085057825182559160200191906001019062000833565b5b50905062000860919062000864565b5090565b5b808211156200087f57600081600090555060010162000865565b5090565b600060028204905060018216806200089c57607f821691505b60208210811415620008b357620008b2620008b9565b5b50919050565b7f4e487b7100000000000000000000000000000000000000000000000000000000600052602260045260246000fd5b612ea780620008f86000396000f3fe608060405234801561001057600080fd5b50600436106101375760003560e01c80637ae4e838116100b8578063ab995d121161007c578063ab995d1214610336578063ad1e954e14610366578063ba89d2bc14610384578063c904b742146103a0578063c9b021c2146103be578063f022f339146103dc57610137565b80637ae4e8381461028a5780638b1659f5146102a65780638f9f7210146102c4578063925c4d8f146102e25780639482eeaa1461031857610137565b806355799019116100ff57806355799019146101ca5780635b122e7e146101e65780637217e0b9146102025780637360edd7146102385780637874888a1461025457610137565b8063040c22c01461013c578063334f45ec146101585780633cbcf6c614610176578063411e5eb91461019257806344054931146101ae575b600080fd5b6101566004803603810190610151919061240e565b610412565b005b6101606107ea565b60405161016d9190612b04565b60405180910390f35b610190600480360381019061018b9190612544565b6107f0565b005b6101ac60048036038101906101a79190612478565b61088b565b005b6101c860048036038101906101c39190612478565b610960565b005b6101e460048036038101906101df9190612544565b610a35565b005b61020060048036038101906101fb9190612544565b610ad0565b005b61021c6004803603810190610217919061244f565b610b6b565b60405161022f97969594939291906129e7565b60405180910390f35b610252600480360381019061024d91906124f0565b610cfa565b005b61026e6004803603810190610269919061244f565b610da5565b60405161028197969594939291906129e7565b60405180910390f35b6102a4600480360381019061029f91906124f0565b610fc2565b005b6102ae61106d565b6040516102bb91906129cc565b60405180910390f35b6102cc61107e565b6040516102d99190612b04565b60405180910390f35b6102fc60048036038101906102f7919061244f565b611088565b60405161030f97969594939291906129e7565b60405180910390f35b610320611217565b60405161032d9190612b04565b60405180910390f35b610350600480360381019061034b919061244f565b611224565b60405161035d91906129aa565b60405180910390f35b61036e611607565b60405161037b9190612b04565b60405180910390f35b61039e600480360381019061039991906124b4565b611611565b005b6103a86116bf565b6040516103b59190612b04565b60405180910390f35b6103c66116cb565b6040516103d39190612b04565b60405180910390f35b6103f660048036038101906103f1919061244f565b6116d1565b60405161040997969594939291906129e7565b60405180910390f35b6000805490506001541061045b576040517f08c379a000000000000000000000000000000000000000000000000000000000815260040161045290612ac4565b60405180910390fd5b60008060015481548110610498577f4e487b7100000000000000000000000000000000000000000000000000000000600052603260045260246000fd5b906000526020600020906006020190508060010160009054906101000a900473ffffffffffffffffffffffffffffffffffffffff1673ffffffffffffffffffffffffffffffffffffffff163373ffffffffffffffffffffffffffffffffffffffff161461053a576040517f08c379a000000000000000000000000000000000000000000000000000000000815260040161053190612a84565b60405180910390fd5b60018160010160146101000a81548160ff02191690831515021790555042816003018190555060006001541415610579574281600201819055506105db565b6000600180546105899190612c55565b815481106105c0577f4e487b7100000000000000000000000000000000000000000000000000000000600052603260045260246000fd5b90600052602060002090600602016003015481600201819055505b6105e4826118f0565b610623576040517f08c379a000000000000000000000000000000000000000000000000000000000815260040161061a90612a64565b60405180910390fd5b8181600401908051906020019061063b9291906120f4565b5060035481600501819055506002819080600181540180825580915050600190039060005260206000209060060201600090919091909150600082018160000190805461068790612d13565b61069292919061217a565b506001820160009054906101000a900473ffffffffffffffffffffffffffffffffffffffff168160010160006101000a81548173ffffffffffffffffffffffffffffffffffffffff021916908373ffffffffffffffffffffffffffffffffffffffff1602179055506001820160149054906101000a900460ff168160010160146101000a81548160ff0219169083151502179055506002820154816002015560038201548160030155600482018160040190805461074f90612d13565b61075a92919061217a565b506005820154816005015550507fc0adf46dbf94d17dc241de7be8c2f645a7c22cf158ce69655005583133a2da9a600154826000018360020154846003015485600501546040516107af959493929190612b1f565b60405180910390a1600160008154809291906107ca90612d45565b9190505550600080549050600154106107e6576107e56118fd565b5b5050565b60015481565b6000805490508210610837576040517f08c379a000000000000000000000000000000000000000000000000000000000815260040161082e90612aa4565b60405180910390fd5b8060008381548110610872577f4e487b7100000000000000000000000000000000000000000000000000000000600052603260045260246000fd5b9060005260206000209060060201600201819055505050565b60008054905082106108d2576040517f08c379a00000000000000000000000000000000000000000000000000000000081526004016108c990612aa4565b60405180910390fd5b806000838154811061090d577f4e487b7100000000000000000000000000000000000000000000000000000000600052603260045260246000fd5b906000526020600020906006020160010160006101000a81548173ffffffffffffffffffffffffffffffffffffffff021916908373ffffffffffffffffffffffffffffffffffffffff1602179055505050565b60008054905082106109a7576040517f08c379a000000000000000000000000000000000000000000000000000000000815260040161099e90612aa4565b60405180910390fd5b80600083815481106109e2577f4e487b7100000000000000000000000000000000000000000000000000000000600052603260045260246000fd5b906000526020600020906006020160010160006101000a81548173ffffffffffffffffffffffffffffffffffffffff021916908373ffffffffffffffffffffffffffffffffffffffff1602179055505050565b6000805490508210610a7c576040517f08c379a0000000000000000000000000000000000000000000000000000000008152600401610a7390612aa4565b60405180910390fd5b8060008381548110610ab7577f4e487b7100000000000000000000000000000000000000000000000000000000600052603260045260246000fd5b9060005260206000209060060201600301819055505050565b6000805490508210610b17576040517f08c379a0000000000000000000000000000000000000000000000000000000008152600401610b0e90612aa4565b60405180910390fd5b8060008381548110610b52577f4e487b7100000000000000000000000000000000000000000000000000000000600052603260045260246000fd5b9060005260206000209060060201600501819055505050565b60008181548110610b7b57600080fd5b9060005260206000209060060201600091509050806000018054610b9e90612d13565b80601f0160208091040260200160405190810160405280929190818152602001828054610bca90612d13565b8015610c175780601f10610bec57610100808354040283529160200191610c17565b820191906000526020600020905b815481529060010190602001808311610bfa57829003601f168201915b5050505050908060010160009054906101000a900473ffffffffffffffffffffffffffffffffffffffff16908060010160149054906101000a900460ff1690806002015490806003015490806004018054610c7190612d13565b80601f0160208091040260200160405190810160405280929190818152602001828054610c9d90612d13565b8015610cea5780601f10610cbf57610100808354040283529160200191610cea565b820191906000526020600020905b815481529060010190602001808311610ccd57829003601f168201915b5050505050908060050154905087565b6000805490508210610d41576040517f08c379a0000000000000000000000000000000000000000000000000000000008152600401610d3890612aa4565b60405180910390fd5b8060008381548110610d7c577f4e487b7100000000000000000000000000000000000000000000000000000000600052603260045260246000fd5b90600052602060002090600602016004019080519060200190610da09291906120f4565b505050565b60606000806000806060600080805490508810610df7576040517f08c379a0000000000000000000000000000000000000000000000000000000008152600401610dee90612aa4565b60405180910390fd5b6000808981548110610e32577f4e487b7100000000000000000000000000000000000000000000000000000000600052603260045260246000fd5b90600052602060002090600602019050806000018160010160009054906101000a900473ffffffffffffffffffffffffffffffffffffffff168260010160149054906101000a900460ff1683600201548460030154856004018660050154868054610e9c90612d13565b80601f0160208091040260200160405190810160405280929190818152602001828054610ec890612d13565b8015610f155780601f10610eea57610100808354040283529160200191610f15565b820191906000526020600020905b815481529060010190602001808311610ef857829003601f168201915b50505050509650818054610f2890612d13565b80601f0160208091040260200160405190810160405280929190818152602001828054610f5490612d13565b8015610fa15780601f10610f7657610100808354040283529160200191610fa1565b820191906000526020600020905b815481529060010190602001808311610f8457829003601f168201915b50505050509150975097509750975097509750975050919395979092949650565b6000805490508210611009576040517f08c379a000000000000000000000000000000000000000000000000000000000815260040161100090612aa4565b60405180910390fd5b8060008381548110611044577f4e487b7100000000000000000000000000000000000000000000000000000000600052603260045260246000fd5b906000526020600020906006020160000190805190602001906110689291906120f4565b505050565b600080805490506001541015905090565b6000600154905090565b6002818154811061109857600080fd5b90600052602060002090600602016000915090508060000180546110bb90612d13565b80601f01602080910402602001604051908101604052809291908181526020018280546110e790612d13565b80156111345780601f1061110957610100808354040283529160200191611134565b820191906000526020600020905b81548152906001019060200180831161111757829003601f168201915b5050505050908060010160009054906101000a900473ffffffffffffffffffffffffffffffffffffffff16908060010160149054906101000a900460ff169080600201549080600301549080600401805461118e90612d13565b80601f01602080910402602001604051908101604052809291908181526020018280546111ba90612d13565b80156112075780601f106111dc57610100808354040283529160200191611207565b820191906000526020600020905b8154815290600101906020018083116111ea57829003601f168201915b5050505050908060050154905087565b6000600280549050905090565b60606000805b6002805490508110156112ac578360028281548110611272577f4e487b7100000000000000000000000000000000000000000000000000000000600052603260045260246000fd5b906000526020600020906006020160050154141561129957818061129590612d45565b9250505b80806112a490612d45565b91505061122a565b5060008167ffffffffffffffff8111156112ef577f4e487b7100000000000000000000000000000000000000000000000000000000600052604160045260246000fd5b60405190808252806020026020018201604052801561132857816020015b611315612207565b81526020019060019003908161130d5790505b5090506000805b6002805490508110156115fb578560028281548110611377577f4e487b7100000000000000000000000000000000000000000000000000000000600052603260045260246000fd5b90600052602060002090600602016005015414156115e857600281815481106113c9577f4e487b7100000000000000000000000000000000000000000000000000000000600052603260045260246000fd5b90600052602060002090600602016040518060e00160405290816000820180546113f290612d13565b80601f016020809104026020016040519081016040528092919081815260200182805461141e90612d13565b801561146b5780601f106114405761010080835404028352916020019161146b565b820191906000526020600020905b81548152906001019060200180831161144e57829003601f168201915b505050505081526020016001820160009054906101000a900473ffffffffffffffffffffffffffffffffffffffff1673ffffffffffffffffffffffffffffffffffffffff1673ffffffffffffffffffffffffffffffffffffffff1681526020016001820160149054906101000a900460ff16151515158152602001600282015481526020016003820154815260200160048201805461150990612d13565b80601f016020809104026020016040519081016040528092919081815260200182805461153590612d13565b80156115825780601f1061155757610100808354040283529160200191611582565b820191906000526020600020905b81548152906001019060200180831161156557829003601f168201915b505050505081526020016005820154815250508383815181106115ce577f4e487b7100000000000000000000000000000000000000000000000000000000600052603260045260246000fd5b602002602001018190525081806115e490612d45565b9250505b80806115f390612d45565b91505061132f565b50819350505050919050565b6000600354905090565b6000805490508210611658576040517f08c379a000000000000000000000000000000000000000000000000000000000815260040161164f90612aa4565b60405180910390fd5b8060008381548110611693577f4e487b7100000000000000000000000000000000000000000000000000000000600052603260045260246000fd5b906000526020600020906006020160010160146101000a81548160ff0219169083151502179055505050565b60008080549050905090565b60035481565b6060600080600080606060006002805490508810611724576040517f08c379a000000000000000000000000000000000000000000000000000000000815260040161171b90612ae4565b60405180910390fd5b600060028981548110611760577f4e487b7100000000000000000000000000000000000000000000000000000000600052603260045260246000fd5b90600052602060002090600602019050806000018160010160009054906101000a900473ffffffffffffffffffffffffffffffffffffffff168260010160149054906101000a900460ff16836002015484600301548560040186600501548680546117ca90612d13565b80601f01602080910402602001604051908101604052809291908181526020018280546117f690612d13565b80156118435780601f1061181857610100808354040283529160200191611843565b820191906000526020600020905b81548152906001019060200180831161182657829003601f168201915b5050505050965081805461185690612d13565b80601f016020809104026020016040519081016040528092919081815260200182805461188290612d13565b80156118cf5780601f106118a4576101008083540402835291602001916118cf565b820191906000526020600020905b8154815290600101906020018083116118b257829003601f168201915b50505050509150975097509750975097509750975050919395979092949650565b6000808251119050919050565b60008061190a919061225c565b611912611965565b6003600081548092919061192590612d45565b91905055507f74c97f258db595b9ae4389bbb720db98e2437f4c7e079c5ef85dc56ac62a4d8860035460405161195b9190612b04565b60405180910390a1565b60006040518060e001604052806040518060400160405280600881526020017f526163636f6c74610000000000000000000000000000000000000000000000008152508152602001600073ffffffffffffffffffffffffffffffffffffffff168152602001600015158152602001600081526020016000815260200160405180602001604052806000815250815260200160035481525090806001815401808255809150506001900390600052602060002090600602016000909190919091506000820151816000019080519060200190611a419291906120f4565b5060208201518160010160006101000a81548173ffffffffffffffffffffffffffffffffffffffff021916908373ffffffffffffffffffffffffffffffffffffffff16021790555060408201518160010160146101000a81548160ff021916908315150217905550606082015181600201556080820151816003015560a0820151816004019080519060200190611ad99291906120f4565b5060c08201518160050155505060006040518060e001604052806040518060400160405280600981526020017f54726173706f72746f00000000000000000000000000000000000000000000008152508152602001600073ffffffffffffffffffffffffffffffffffffffff168152602001600015158152602001600081526020016000815260200160405180602001604052806000815250815260200160035481525090806001815401808255809150506001900390600052602060002090600602016000909190919091506000820151816000019080519060200190611bc29291906120f4565b5060208201518160010160006101000a81548173ffffffffffffffffffffffffffffffffffffffff021916908373ffffffffffffffffffffffffffffffffffffffff16021790555060408201518160010160146101000a81548160ff021916908315150217905550606082015181600201556080820151816003015560a0820151816004019080519060200190611c5a9291906120f4565b5060c08201518160050155505060006040518060e001604052806040518060400160405280600b81526020017f4c61766f72617a696f6e650000000000000000000000000000000000000000008152508152602001600073ffffffffffffffffffffffffffffffffffffffff168152602001600015158152602001600081526020016000815260200160405180602001604052806000815250815260200160035481525090806001815401808255809150506001900390600052602060002090600602016000909190919091506000820151816000019080519060200190611d439291906120f4565b5060208201518160010160006101000a81548173ffffffffffffffffffffffffffffffffffffffff021916908373ffffffffffffffffffffffffffffffffffffffff16021790555060408201518160010160146101000a81548160ff021916908315150217905550606082015181600201556080820151816003015560a0820151816004019080519060200190611ddb9291906120f4565b5060c08201518160050155505060006040518060e001604052806040518060400160405280600f81526020017f436f6e66657a696f6e616d656e746f00000000000000000000000000000000008152508152602001600073ffffffffffffffffffffffffffffffffffffffff168152602001600015158152602001600081526020016000815260200160405180602001604052806000815250815260200160035481525090806001815401808255809150506001900390600052602060002090600602016000909190919091506000820151816000019080519060200190611ec49291906120f4565b5060208201518160010160006101000a81548173ffffffffffffffffffffffffffffffffffffffff021916908373ffffffffffffffffffffffffffffffffffffffff16021790555060408201518160010160146101000a81548160ff021916908315150217905550606082015181600201556080820151816003015560a0820151816004019080519060200190611f5c9291906120f4565b5060c08201518160050155505060006040518060e001604052806040518060400160405280600d81526020017f44697374726962757a696f6e65000000000000000000000000000000000000008152508152602001600073ffffffffffffffffffffffffffffffffffffffff1681526020016000151581526020016000815260200160008152602001604051806020016040528060008152508152602001600354815250908060018154018082558091505060019003906000526020600020906006020160009091909190915060008201518160000190805190602001906120459291906120f4565b5060208201518160010160006101000a81548173ffffffffffffffffffffffffffffffffffffffff021916908373ffffffffffffffffffffffffffffffffffffffff16021790555060408201518160010160146101000a81548160ff021916908315150217905550606082015181600201556080820151816003015560a08201518160040190805190602001906120dd9291906120f4565b5060c0820151816005015550506000600181905550565b82805461210090612d13565b90600052602060002090601f0160209004810192826121225760008555612169565b82601f1061213b57805160ff1916838001178555612169565b82800160010185558215612169579182015b8281111561216857825182559160200191906001019061214d565b5b5090506121769190612280565b5090565b82805461218690612d13565b90600052602060002090601f0160209004810192826121a857600085556121f6565b82601f106121b957805485556121f6565b828001600101855582156121f657600052602060002091601f016020900482015b828111156121f55782548255916001019190600101906121da565b5b5090506122039190612280565b5090565b6040518060e0016040528060608152602001600073ffffffffffffffffffffffffffffffffffffffff168152602001600015158152602001600081526020016000815260200160608152602001600081525090565b508054600082556006029060005260206000209081019061227d919061229d565b50565b5b80821115612299576000816000905550600101612281565b5090565b5b8082111561232357600080820160006122b79190612327565b6001820160006101000a81549073ffffffffffffffffffffffffffffffffffffffff02191690556001820160146101000a81549060ff0219169055600282016000905560038201600090556004820160006123129190612327565b60058201600090555060060161229e565b5090565b50805461233390612d13565b6000825580601f106123455750612364565b601f0160209004906000526020600020908101906123639190612280565b5b50565b600061237a61237584612baa565b612b79565b90508281526020810184848401111561239257600080fd5b61239d848285612cd1565b509392505050565b6000813590506123b481612e2c565b92915050565b6000813590506123c981612e43565b92915050565b600082601f8301126123e057600080fd5b81356123f0848260208601612367565b91505092915050565b60008135905061240881612e5a565b92915050565b60006020828403121561242057600080fd5b600082013567ffffffffffffffff81111561243a57600080fd5b612446848285016123cf565b91505092915050565b60006020828403121561246157600080fd5b600061246f848285016123f9565b91505092915050565b6000806040838503121561248b57600080fd5b6000612499858286016123f9565b92505060206124aa858286016123a5565b9150509250929050565b600080604083850312156124c757600080fd5b60006124d5858286016123f9565b92505060206124e6858286016123ba565b9150509250929050565b6000806040838503121561250357600080fd5b6000612511858286016123f9565b925050602083013567ffffffffffffffff81111561252e57600080fd5b61253a858286016123cf565b9150509250929050565b6000806040838503121561255757600080fd5b6000612565858286016123f9565b9250506020612576858286016123f9565b9150509250929050565b600061258c83836128e9565b905092915050565b61259d81612c89565b82525050565b6125ac81612c89565b82525050565b60006125bd82612bff565b6125c78185612c22565b9350836020820285016125d985612bda565b8060005b8581101561261557848403895281516125f68582612580565b945061260183612c15565b925060208a019950506001810190506125dd565b50829750879550505050505092915050565b61263081612c9b565b82525050565b61263f81612c9b565b82525050565b600061265082612c0a565b61265a8185612c33565b935061266a818560208601612ce0565b61267381612e1b565b840191505092915050565b600061268982612c0a565b6126938185612c44565b93506126a3818560208601612ce0565b6126ac81612e1b565b840191505092915050565b600081546126c481612d13565b6126ce8186612c44565b945060018216600081146126e957600181146126fb5761272e565b60ff198316865260208601935061272e565b61270485612bea565b60005b8381101561272657815481890152600182019150602081019050612707565b808801955050505b50505092915050565b6000612744602883612c44565b91507f4c6f636174696f6e206973206e6f7420726561736f6e61626c6520666f72207460008301527f68697320737465700000000000000000000000000000000000000000000000006020830152604082019050919050565b60006127aa602e83612c44565b91507f4f6e6c792061737369676e65642073757065727669736f722063616e20636f6d60008301527f706c6574652074686520737465700000000000000000000000000000000000006020830152604082019050919050565b6000612810601783612c44565b91507f5374657020696e646578206f7574206f662072616e67650000000000000000006000830152602082019050919050565b6000612850601f83612c44565b91507f416c6c2073746570732061726520616c726561647920636f6d706c65746564006000830152602082019050919050565b6000612890602183612c44565b91507f436f6d706c65746564207374657020696e646578206f7574206f662072616e6760008301527f65000000000000000000000000000000000000000000000000000000000000006020830152604082019050919050565b600060e08301600083015184820360008601526129068282612645565b915050602083015161291b6020860182612594565b50604083015161292e6040860182612627565b506060830151612941606086018261298c565b506080830151612954608086018261298c565b5060a083015184820360a086015261296c8282612645565b91505060c083015161298160c086018261298c565b508091505092915050565b61299581612cc7565b82525050565b6129a481612cc7565b82525050565b600060208201905081810360008301526129c481846125b2565b905092915050565b60006020820190506129e16000830184612636565b92915050565b600060e0820190508181036000830152612a01818a61267e565b9050612a1060208301896125a3565b612a1d6040830188612636565b612a2a606083018761299b565b612a37608083018661299b565b81810360a0830152612a49818561267e565b9050612a5860c083018461299b565b98975050505050505050565b60006020820190508181036000830152612a7d81612737565b9050919050565b60006020820190508181036000830152612a9d8161279d565b9050919050565b60006020820190508181036000830152612abd81612803565b9050919050565b60006020820190508181036000830152612add81612843565b9050919050565b60006020820190508181036000830152612afd81612883565b9050919050565b6000602082019050612b19600083018461299b565b92915050565b600060a082019050612b34600083018861299b565b8181036020830152612b4681876126b7565b9050612b55604083018661299b565b612b62606083018561299b565b612b6f608083018461299b565b9695505050505050565b6000604051905081810181811067ffffffffffffffff82111715612ba057612b9f612dec565b5b8060405250919050565b600067ffffffffffffffff821115612bc557612bc4612dec565b5b601f19601f8301169050602081019050919050565b6000819050602082019050919050565b60008190508160005260206000209050919050565b600081519050919050565b600081519050919050565b6000602082019050919050565b600082825260208201905092915050565b600082825260208201905092915050565b600082825260208201905092915050565b6000612c6082612cc7565b9150612c6b83612cc7565b925082821015612c7e57612c7d612d8e565b5b828203905092915050565b6000612c9482612ca7565b9050919050565b60008115159050919050565b600073ffffffffffffffffffffffffffffffffffffffff82169050919050565b6000819050919050565b82818337600083830152505050565b60005b83811015612cfe578082015181840152602081019050612ce3565b83811115612d0d576000848401525b50505050565b60006002820490506001821680612d2b57607f821691505b60208210811415612d3f57612d3e612dbd565b5b50919050565b6000612d5082612cc7565b91507fffffffffffffffffffffffffffffffffffffffffffffffffffffffffffffffff821415612d8357612d82612d8e565b5b600182019050919050565b7f4e487b7100000000000000000000000000000000000000000000000000000000600052601160045260246000fd5b7f4e487b7100000000000000000000000000000000000000000000000000000000600052602260045260246000fd5b7f4e487b7100000000000000000000000000000000000000000000000000000000600052604160045260246000fd5b6000601f19601f8301169050919050565b612e3581612c89565b8114612e4057600080fd5b50565b612e4c81612c9b565b8114612e5757600080fd5b50565b612e6381612cc7565b8114612e6e57600080fd5b5056fea264697066735822122053a56088c7f3f31792cf6dbbebe28de6b89dfdb9e10dd6667169e38d13fb8af164736f6c63430008000033",
  "immutableReferences": {},
  "source": "// SPDX-License-Identifier: MIT\r\npragma solidity ^0.8.0;\r\n\r\ncontract MilkChain {\r\n    struct Step {\r\n        string name;\r\n        address supervisor;\r\n        bool completed;\r\n        uint startTime;\r\n        uint endTime;\r\n        string location;\r\n        uint lotNumber;\r\n    }\r\n\r\n    Step[] public steps;\r\n    uint public currentStepIndex;\r\n    Step[] public completedSteps;\r\n    uint public currentLotNumber;\r\n\r\n    event StepCompleted(uint stepIndex, string name, uint startTime, uint endTime, uint lotNumber);\r\n    event ProcessReset(uint newLotNumber);\r\n\r\n    constructor() {\r\n        currentLotNumber = 1; // Initialize the lot number to 1\r\n        initializeSteps();\r\n    }\r\n\r\n    function initializeSteps() internal {\r\n        steps.push(Step(\"Raccolta\", address(0), false, 0, 0, \"\", currentLotNumber));\r\n        steps.push(Step(\"Trasporto\", address(0), false, 0, 0, \"\", currentLotNumber));\r\n        steps.push(Step(\"Lavorazione\", address(0), false, 0, 0, \"\", currentLotNumber));\r\n        steps.push(Step(\"Confezionamento\", address(0), false, 0, 0, \"\", currentLotNumber));\r\n        steps.push(Step(\"Distribuzione\", address(0), false, 0, 0, \"\", currentLotNumber));\r\n        currentStepIndex = 0;\r\n    }\r\n\r\n    function assignSupervisor(uint stepIndex, address supervisor) public {\r\n        require(stepIndex < steps.length, \"Step index out of range\");\r\n        steps[stepIndex].supervisor = supervisor;\r\n    }\r\n\r\n    function completeStep(string memory _location) public {\r\n        require(currentStepIndex < steps.length, \"All steps are already completed\");\r\n        Step storage step = steps[currentStepIndex];\r\n        require(msg.sender == step.supervisor, \"Only assigned supervisor can complete the step\");\r\n        step.completed = true;\r\n        step.endTime = block.timestamp;\r\n        \r\n        if (currentStepIndex == 0) {\r\n            step.startTime = block.timestamp;\r\n        } else {\r\n            step.startTime = steps[currentStepIndex - 1].endTime;\r\n        }\r\n\r\n        require(isReasonableLocation(_location), \"Location is not reasonable for this step\");\r\n\r\n        step.location = _location;\r\n        step.lotNumber = currentLotNumber;  // Assign current lot number to the step\r\n\r\n        completedSteps.push(step);\r\n\r\n        emit StepCompleted(currentStepIndex, step.name, step.startTime, step.endTime, step.lotNumber);\r\n        currentStepIndex++;\r\n\r\n        if (currentStepIndex >= steps.length) {\r\n            resetProcess();\r\n        }\r\n    }\r\n\r\n    function isReasonableLocation(string memory _location) internal pure returns (bool) {\r\n        return bytes(_location).length > 0; // Check that the location is not empty\r\n    }\r\n\r\n    function resetProcess() internal {\r\n        delete steps;\r\n        initializeSteps();\r\n        currentLotNumber++;\r\n        emit ProcessReset(currentLotNumber);\r\n    }\r\n\r\n    function getStepsLength() public view returns (uint) {\r\n        return steps.length;\r\n    }\r\n\r\n    function getStep(uint index) public view returns (string memory, address, bool, uint, uint, string memory, uint) {\r\n        require(index < steps.length, \"Step index out of range\");\r\n        Step storage step = steps[index];\r\n        return (step.name, step.supervisor, step.completed, step.startTime, step.endTime, step.location, step.lotNumber);\r\n    }\r\n\r\n    function getCompletedStepsLength() public view returns (uint) {\r\n        return completedSteps.length;\r\n    }\r\n\r\n    function getCompletedStep(uint index) public view returns (string memory, address, bool, uint, uint, string memory, uint) {\r\n        require(index < completedSteps.length, \"Completed step index out of range\");\r\n        Step storage step = completedSteps[index];\r\n        return (step.name, step.supervisor, step.completed, step.startTime, step.endTime, step.location, step.lotNumber);\r\n    }\r\n\r\n    function isProcessCompleted() public view returns (bool) {\r\n        return currentStepIndex >= steps.length;\r\n    }\r\n\r\n    function getCurrentStepIndex() public view returns (uint) {\r\n        return currentStepIndex;\r\n    }\r\n\r\n    function getCurrentLotNumber() public view returns (uint) {\r\n        return currentLotNumber;\r\n    }\r\n\r\n    function setStepName(uint index, string memory name) public {\r\n        require(index < steps.length, \"Step index out of range\");\r\n        steps[index].name = name;\r\n    }\r\n\r\n    function setStepSupervisor(uint index, address supervisor) public {\r\n        require(index < steps.length, \"Step index out of range\");\r\n        steps[index].supervisor = supervisor;\r\n    }\r\n\r\n    function setStepLocation(uint index, string memory location) public {\r\n        require(index < steps.length, \"Step index out of range\");\r\n        steps[index].location = location;\r\n    }\r\n\r\n    function setStepCompleted(uint index, bool completed) public {\r\n        require(index < steps.length, \"Step index out of range\");\r\n        steps[index].completed = completed;\r\n    }\r\n\r\n    function setStepStartTime(uint index, uint startTime) public {\r\n        require(index < steps.length, \"Step index out of range\");\r\n        steps[index].startTime = startTime;\r\n    }\r\n\r\n    function setStepEndTime(uint index, uint endTime) public {\r\n        require(index < steps.length, \"Step index out of range\");\r\n        steps[index].endTime = endTime;\r\n    }\r\n\r\n    function setLotNumber(uint index, uint lotNumber) public {\r\n        require(index < steps.length, \"Step index out of range\");\r\n        steps[index].lotNumber = lotNumber;\r\n    }\r\n\r\n    /**\r\n     * @notice Retrieves all completed steps for a given lot number.\r\n     * @param lotNumber The lot number to filter completed steps by.\r\n     * @return An array of completed steps for the given lot number.\r\n     */\r\n    function getLot(uint lotNumber) public view returns (Step[] memory) {\r\n        uint count = 0;\r\n        for (uint i = 0; i < completedSteps.length; i++) {\r\n            if (completedSteps[i].lotNumber == lotNumber) {\r\n                count++;\r\n            }\r\n        }\r\n\r\n        Step[] memory lotSteps = new Step[](count);\r\n        uint index = 0;\r\n        for (uint i = 0; i < completedSteps.length; i++) {\r\n            if (completedSteps[i].lotNumber == lotNumber) {\r\n                lotSteps[index] = completedSteps[i];\r\n                index++;\r\n            }\r\n        }\r\n        return lotSteps;\r\n    }\r\n}\r\n",
  "sourcePath": "C:\\Users\\samue\\Desktop\\MilkChain\\backend\\contracts\\MilkChain.sol",
  "compiler": {
    "name": "solc",
    "version": "0.8.0+commit.c7dfd78e.Emscripten.clang"
  },
  "schemaVersion": "3.4.16",
  "updatedAt": "2024-06-26T17:04:46.067Z",
  "networkType": "ethereum",
  "devdoc": {
    "kind": "dev",
    "methods": {
      "getLot(uint256)": {
        "params": {
          "lotNumber": "The lot number to filter completed steps by."
        },
        "returns": {
          "_0": "An array of completed steps for the given lot number."
        }
      }
    },
    "version": 1
  },
  "userdoc": {
    "kind": "user",
    "methods": {
      "getLot(uint256)": {
        "notice": "Retrieves all completed steps for a given lot number."
      }
    },
    "version": 1
  }
}