{
  "contractName": "MilkChain",
  "abi": [
    {
      "inputs": [],
      "stateMutability": "nonpayable",
      "type": "constructor"
    },
    {
      "anonymous": false,
      "inputs": [],
      "name": "ProcessReset",
      "type": "event"
    },
    {
      "anonymous": false,
      "inputs": [
        {
          "indexed": false,
          "internalType": "uint256",
          "name": "stepIndex",
          "type": "uint256"
        },
        {
          "indexed": false,
          "internalType": "string",
          "name": "name",
          "type": "string"
        },
        {
          "indexed": false,
          "internalType": "uint256",
          "name": "endTime",
          "type": "uint256"
        }
      ],
      "name": "StepCompleted",
      "type": "event"
    },
    {
      "inputs": [],
      "name": "currentStepIndex",
      "outputs": [
        {
          "internalType": "uint256",
          "name": "",
          "type": "uint256"
        }
      ],
      "stateMutability": "view",
      "type": "function",
      "constant": true
    },
    {
      "inputs": [
        {
          "internalType": "uint256",
          "name": "",
          "type": "uint256"
        }
      ],
      "name": "steps",
      "outputs": [
        {
          "internalType": "string",
          "name": "name",
          "type": "string"
        },
        {
          "internalType": "address",
          "name": "supervisor",
          "type": "address"
        },
        {
          "internalType": "bool",
          "name": "completed",
          "type": "bool"
        },
        {
          "internalType": "uint256",
          "name": "startTime",
          "type": "uint256"
        },
        {
          "internalType": "uint256",
          "name": "endTime",
          "type": "uint256"
        }
      ],
      "stateMutability": "view",
      "type": "function",
      "constant": true
    },
    {
      "inputs": [
        {
          "internalType": "uint256",
          "name": "stepIndex",
          "type": "uint256"
        },
        {
          "internalType": "address",
          "name": "supervisor",
          "type": "address"
        }
      ],
      "name": "assignSupervisor",
      "outputs": [],
      "stateMutability": "nonpayable",
      "type": "function"
    },
    {
      "inputs": [],
      "name": "completeStep",
      "outputs": [],
      "stateMutability": "nonpayable",
      "type": "function"
    },
    {
      "inputs": [],
      "name": "resetProcess",
      "outputs": [],
      "stateMutability": "nonpayable",
      "type": "function"
    },
    {
      "inputs": [],
      "name": "getStepsLength",
      "outputs": [
        {
          "internalType": "uint256",
          "name": "",
          "type": "uint256"
        }
      ],
      "stateMutability": "view",
      "type": "function",
      "constant": true
    },
    {
      "inputs": [
        {
          "internalType": "uint256",
          "name": "index",
          "type": "uint256"
        }
      ],
      "name": "getStep",
      "outputs": [
        {
          "internalType": "string",
          "name": "",
          "type": "string"
        },
        {
          "internalType": "address",
          "name": "",
          "type": "address"
        },
        {
          "internalType": "bool",
          "name": "",
          "type": "bool"
        },
        {
          "internalType": "uint256",
          "name": "",
          "type": "uint256"
        },
        {
          "internalType": "uint256",
          "name": "",
          "type": "uint256"
        }
      ],
      "stateMutability": "view",
      "type": "function",
      "constant": true
    },
    {
      "inputs": [],
      "name": "isProcessCompleted",
      "outputs": [
        {
          "internalType": "bool",
          "name": "",
          "type": "bool"
        }
      ],
      "stateMutability": "view",
      "type": "function",
      "constant": true
    }
  ],
  "bytecode": "0x60806040523480156200001157600080fd5b50620000226200002860201b60201c565b62000782565b60006040518060a001604052806040518060400160405280600881526020017f526163636f6c74610000000000000000000000000000000000000000000000008152508152602001600073ffffffffffffffffffffffffffffffffffffffff16815260200160001515815260200160008152602001600081525090806001815401808255809150506001900390600052602060002090600402016000909190919091506000820151816000019080519060200190620000e99291906200066d565b5060208201518160010160006101000a81548173ffffffffffffffffffffffffffffffffffffffff021916908373ffffffffffffffffffffffffffffffffffffffff16021790555060408201518160010160146101000a81548160ff0219169083151502179055506060820151816002015560808201518160030155505060006040518060a001604052806040518060400160405280600981526020017f54726173706f72746f00000000000000000000000000000000000000000000008152508152602001600073ffffffffffffffffffffffffffffffffffffffff16815260200160001515815260200160008152602001600081525090806001815401808255809150506001900390600052602060002090600402016000909190919091506000820151816000019080519060200190620002289291906200066d565b5060208201518160010160006101000a81548173ffffffffffffffffffffffffffffffffffffffff021916908373ffffffffffffffffffffffffffffffffffffffff16021790555060408201518160010160146101000a81548160ff0219169083151502179055506060820151816002015560808201518160030155505060006040518060a001604052806040518060400160405280600b81526020017f4c61766f72617a696f6e650000000000000000000000000000000000000000008152508152602001600073ffffffffffffffffffffffffffffffffffffffff16815260200160001515815260200160008152602001600081525090806001815401808255809150506001900390600052602060002090600402016000909190919091506000820151816000019080519060200190620003679291906200066d565b5060208201518160010160006101000a81548173ffffffffffffffffffffffffffffffffffffffff021916908373ffffffffffffffffffffffffffffffffffffffff16021790555060408201518160010160146101000a81548160ff0219169083151502179055506060820151816002015560808201518160030155505060006040518060a001604052806040518060400160405280600f81526020017f436f6e66657a696f6e616d656e746f00000000000000000000000000000000008152508152602001600073ffffffffffffffffffffffffffffffffffffffff16815260200160001515815260200160008152602001600081525090806001815401808255809150506001900390600052602060002090600402016000909190919091506000820151816000019080519060200190620004a69291906200066d565b5060208201518160010160006101000a81548173ffffffffffffffffffffffffffffffffffffffff021916908373ffffffffffffffffffffffffffffffffffffffff16021790555060408201518160010160146101000a81548160ff0219169083151502179055506060820151816002015560808201518160030155505060006040518060a001604052806040518060400160405280600d81526020017f44697374726962757a696f6e65000000000000000000000000000000000000008152508152602001600073ffffffffffffffffffffffffffffffffffffffff16815260200160001515815260200160008152602001600081525090806001815401808255809150506001900390600052602060002090600402016000909190919091506000820151816000019080519060200190620005e59291906200066d565b5060208201518160010160006101000a81548173ffffffffffffffffffffffffffffffffffffffff021916908373ffffffffffffffffffffffffffffffffffffffff16021790555060408201518160010160146101000a81548160ff021916908315150217905550606082015181600201556080820151816003015550506000600181905550565b8280546200067b906200071d565b90600052602060002090601f0160209004810192826200069f5760008555620006eb565b82601f10620006ba57805160ff1916838001178555620006eb565b82800160010185558215620006eb579182015b82811115620006ea578251825591602001919060010190620006cd565b5b509050620006fa9190620006fe565b5090565b5b8082111562000719576000816000905550600101620006ff565b5090565b600060028204905060018216806200073657607f821691505b602082108114156200074d576200074c62000753565b5b50919050565b7f4e487b7100000000000000000000000000000000000000000000000000000000600052602260045260246000fd5b61141880620007926000396000f3fe608060405234801561001057600080fd5b50600436106100885760003560e01c80638b1659f51161005b5780638b1659f51461012f5780639bb644251461014d5780639f9a19d314610157578063c904b7421461016157610088565b8063334f45ec1461008d57806344054931146100ab5780637217e0b9146100c75780637874888a146100fb575b600080fd5b61009561017f565b6040516100a291906111c5565b60405180910390f35b6100c560048036038101906100c09190610ee8565b610185565b005b6100e160048036038101906100dc9190610ebf565b61025a565b6040516100f295949392919061110b565b60405180910390f35b61011560048036038101906101109190610ebf565b610355565b60405161012695949392919061110b565b60405180910390f35b6101376104d4565b60405161014491906110f0565b60405180910390f35b6101556104e5565b005b61015f610692565b005b6101696106d5565b60405161017691906111c5565b60405180910390f35b60015481565b60008054905082106101cc576040517f08c379a00000000000000000000000000000000000000000000000000000000081526004016101c390611185565b60405180910390fd5b8060008381548110610207577f4e487b7100000000000000000000000000000000000000000000000000000000600052603260045260246000fd5b906000526020600020906004020160010160006101000a81548173ffffffffffffffffffffffffffffffffffffffff021916908373ffffffffffffffffffffffffffffffffffffffff1602179055505050565b6000818154811061026a57600080fd5b906000526020600020906004020160009150905080600001805461028d906112ca565b80601f01602080910402602001604051908101604052809291908181526020018280546102b9906112ca565b80156103065780601f106102db57610100808354040283529160200191610306565b820191906000526020600020905b8154815290600101906020018083116102e957829003601f168201915b5050505050908060010160009054906101000a900473ffffffffffffffffffffffffffffffffffffffff16908060010160149054906101000a900460ff16908060020154908060030154905085565b606060008060008060008054905086106103a4576040517f08c379a000000000000000000000000000000000000000000000000000000000815260040161039b90611185565b60405180910390fd5b60008087815481106103df577f4e487b7100000000000000000000000000000000000000000000000000000000600052603260045260246000fd5b90600052602060002090600402019050806000018160010160009054906101000a900473ffffffffffffffffffffffffffffffffffffffff168260010160149054906101000a900460ff1683600201548460030154848054610440906112ca565b80601f016020809104026020016040519081016040528092919081815260200182805461046c906112ca565b80156104b95780601f1061048e576101008083540402835291602001916104b9565b820191906000526020600020905b81548152906001019060200180831161049c57829003601f168201915b50505050509450955095509550955095505091939590929450565b600080805490506001541015905090565b6000805490506001541061052e576040517f08c379a0000000000000000000000000000000000000000000000000000000008152600401610525906111a5565b60405180910390fd5b6000806001548154811061056b577f4e487b7100000000000000000000000000000000000000000000000000000000600052603260045260246000fd5b906000526020600020906004020190508060010160009054906101000a900473ffffffffffffffffffffffffffffffffffffffff1673ffffffffffffffffffffffffffffffffffffffff163373ffffffffffffffffffffffffffffffffffffffff161461060d576040517f08c379a000000000000000000000000000000000000000000000000000000000815260040161060490611165565b60405180910390fd5b60018160010160146101000a81548160ff0219169083151502179055504281600301819055507f91f0b878c8898462835a832e915c3b68a4973ba2e22c1200709419e850857e1c60015482600001836003015460405161066f939291906111e0565b60405180910390a16001600081548092919061068a906112fc565b919050555050565b60008061069f9190610d1c565b6106a76106e1565b7f52d42945e3a5657f589346719c0b4f6dc292035ec23b7d03097fc496109aff4660405160405180910390a1565b60008080549050905090565b60006040518060a001604052806040518060400160405280600881526020017f526163636f6c74610000000000000000000000000000000000000000000000008152508152602001600073ffffffffffffffffffffffffffffffffffffffff168152602001600015158152602001600081526020016000815250908060018154018082558091505060019003906000526020600020906004020160009091909190915060008201518160000190805190602001906107a0929190610d40565b5060208201518160010160006101000a81548173ffffffffffffffffffffffffffffffffffffffff021916908373ffffffffffffffffffffffffffffffffffffffff16021790555060408201518160010160146101000a81548160ff0219169083151502179055506060820151816002015560808201518160030155505060006040518060a001604052806040518060400160405280600981526020017f54726173706f72746f00000000000000000000000000000000000000000000008152508152602001600073ffffffffffffffffffffffffffffffffffffffff168152602001600015158152602001600081526020016000815250908060018154018082558091505060019003906000526020600020906004020160009091909190915060008201518160000190805190602001906108dd929190610d40565b5060208201518160010160006101000a81548173ffffffffffffffffffffffffffffffffffffffff021916908373ffffffffffffffffffffffffffffffffffffffff16021790555060408201518160010160146101000a81548160ff0219169083151502179055506060820151816002015560808201518160030155505060006040518060a001604052806040518060400160405280600b81526020017f4c61766f72617a696f6e650000000000000000000000000000000000000000008152508152602001600073ffffffffffffffffffffffffffffffffffffffff16815260200160001515815260200160008152602001600081525090806001815401808255809150506001900390600052602060002090600402016000909190919091506000820151816000019080519060200190610a1a929190610d40565b5060208201518160010160006101000a81548173ffffffffffffffffffffffffffffffffffffffff021916908373ffffffffffffffffffffffffffffffffffffffff16021790555060408201518160010160146101000a81548160ff0219169083151502179055506060820151816002015560808201518160030155505060006040518060a001604052806040518060400160405280600f81526020017f436f6e66657a696f6e616d656e746f00000000000000000000000000000000008152508152602001600073ffffffffffffffffffffffffffffffffffffffff16815260200160001515815260200160008152602001600081525090806001815401808255809150506001900390600052602060002090600402016000909190919091506000820151816000019080519060200190610b57929190610d40565b5060208201518160010160006101000a81548173ffffffffffffffffffffffffffffffffffffffff021916908373ffffffffffffffffffffffffffffffffffffffff16021790555060408201518160010160146101000a81548160ff0219169083151502179055506060820151816002015560808201518160030155505060006040518060a001604052806040518060400160405280600d81526020017f44697374726962757a696f6e65000000000000000000000000000000000000008152508152602001600073ffffffffffffffffffffffffffffffffffffffff16815260200160001515815260200160008152602001600081525090806001815401808255809150506001900390600052602060002090600402016000909190919091506000820151816000019080519060200190610c94929190610d40565b5060208201518160010160006101000a81548173ffffffffffffffffffffffffffffffffffffffff021916908373ffffffffffffffffffffffffffffffffffffffff16021790555060408201518160010160146101000a81548160ff021916908315150217905550606082015181600201556080820151816003015550506000600181905550565b5080546000825560040290600052602060002090810190610d3d9190610dc6565b50565b828054610d4c906112ca565b90600052602060002090601f016020900481019282610d6e5760008555610db5565b82601f10610d8757805160ff1916838001178555610db5565b82800160010185558215610db5579182015b82811115610db4578251825591602001919060010190610d99565b5b509050610dc29190610e38565b5090565b5b80821115610e345760008082016000610de09190610e55565b6001820160006101000a81549073ffffffffffffffffffffffffffffffffffffffff02191690556001820160146101000a81549060ff02191690556002820160009055600382016000905550600401610dc7565b5090565b5b80821115610e51576000816000905550600101610e39565b5090565b508054610e61906112ca565b6000825580601f10610e735750610e92565b601f016020900490600052602060002090810190610e919190610e38565b5b50565b600081359050610ea4816113b4565b92915050565b600081359050610eb9816113cb565b92915050565b600060208284031215610ed157600080fd5b6000610edf84828501610eaa565b91505092915050565b60008060408385031215610efb57600080fd5b6000610f0985828601610eaa565b9250506020610f1a85828601610e95565b9150509250929050565b610f2d8161124f565b82525050565b610f3c81611261565b82525050565b6000610f4d82611233565b610f57818561123e565b9350610f67818560208601611297565b610f70816113a3565b840191505092915050565b60008154610f88816112ca565b610f92818661123e565b94506001821660008114610fad5760018114610fbf57610ff2565b60ff1983168652602086019350610ff2565b610fc88561121e565b60005b83811015610fea57815481890152600182019150602081019050610fcb565b808801955050505b50505092915050565b6000611008602e8361123e565b91507f4f6e6c792061737369676e65642073757065727669736f722063616e20636f6d60008301527f706c6574652074686520737465700000000000000000000000000000000000006020830152604082019050919050565b600061106e60178361123e565b91507f5374657020696e646578206f7574206f662072616e67650000000000000000006000830152602082019050919050565b60006110ae601f8361123e565b91507f416c6c2073746570732061726520616c726561647920636f6d706c65746564006000830152602082019050919050565b6110ea8161128d565b82525050565b60006020820190506111056000830184610f33565b92915050565b600060a08201905081810360008301526111258188610f42565b90506111346020830187610f24565b6111416040830186610f33565b61114e60608301856110e1565b61115b60808301846110e1565b9695505050505050565b6000602082019050818103600083015261117e81610ffb565b9050919050565b6000602082019050818103600083015261119e81611061565b9050919050565b600060208201905081810360008301526111be816110a1565b9050919050565b60006020820190506111da60008301846110e1565b92915050565b60006060820190506111f560008301866110e1565b81810360208301526112078185610f7b565b905061121660408301846110e1565b949350505050565b60008190508160005260206000209050919050565b600081519050919050565b600082825260208201905092915050565b600061125a8261126d565b9050919050565b60008115159050919050565b600073ffffffffffffffffffffffffffffffffffffffff82169050919050565b6000819050919050565b60005b838110156112b557808201518184015260208101905061129a565b838111156112c4576000848401525b50505050565b600060028204905060018216806112e257607f821691505b602082108114156112f6576112f5611374565b5b50919050565b60006113078261128d565b91507fffffffffffffffffffffffffffffffffffffffffffffffffffffffffffffffff82141561133a57611339611345565b5b600182019050919050565b7f4e487b7100000000000000000000000000000000000000000000000000000000600052601160045260246000fd5b7f4e487b7100000000000000000000000000000000000000000000000000000000600052602260045260246000fd5b6000601f19601f8301169050919050565b6113bd8161124f565b81146113c857600080fd5b50565b6113d48161128d565b81146113df57600080fd5b5056fea2646970667358221220a342225b39e0b499920729276d19f92fd20ce71d51965b54791f2078f6b1b0c564736f6c63430008000033",
  "immutableReferences": {},
  "source": "// SPDX-License-Identifier: MIT\r\npragma solidity ^0.8.0;\r\n\r\ncontract MilkChain {\r\n    struct Step {\r\n        string name;\r\n        address supervisor;\r\n        bool completed;\r\n        uint startTime;\r\n        uint endTime;\r\n    }\r\n\r\n    Step[] public steps;\r\n    uint public currentStepIndex;\r\n\r\n    event StepCompleted(uint stepIndex, string name, uint endTime);\r\n    event ProcessReset();\r\n\r\n    constructor() {\r\n        initializeSteps();\r\n    }\r\n\r\n    function initializeSteps() internal {\r\n        steps.push(Step(\"Raccolta\", address(0), false, 0, 0));\r\n        steps.push(Step(\"Trasporto\", address(0), false, 0, 0));\r\n        steps.push(Step(\"Lavorazione\", address(0), false, 0, 0));\r\n        steps.push(Step(\"Confezionamento\", address(0), false, 0, 0));\r\n        steps.push(Step(\"Distribuzione\", address(0), false, 0, 0));\r\n        currentStepIndex = 0;\r\n    }\r\n\r\n    function assignSupervisor(uint stepIndex, address supervisor) public {\r\n        require(stepIndex < steps.length, \"Step index out of range\");\r\n        steps[stepIndex].supervisor = supervisor;\r\n    }\r\n\r\n    function completeStep() public {\r\n        require(currentStepIndex < steps.length, \"All steps are already completed\");\r\n        Step storage step = steps[currentStepIndex];\r\n        require(msg.sender == step.supervisor, \"Only assigned supervisor can complete the step\");\r\n        step.completed = true;\r\n        step.endTime = block.timestamp; // Aggiungiamo il timestamp di fine fase\r\n        emit StepCompleted(currentStepIndex, step.name, step.endTime);\r\n        currentStepIndex++;\r\n    }\r\n\r\n    function resetProcess() public {\r\n        delete steps;\r\n        initializeSteps();\r\n        emit ProcessReset();\r\n    }\r\n\r\n    function getStepsLength() public view returns (uint) {\r\n        return steps.length;\r\n    }\r\n\r\n    function getStep(uint index) public view returns (string memory, address, bool, uint, uint) {\r\n        require(index < steps.length, \"Step index out of range\");\r\n        Step storage step = steps[index];\r\n        return (step.name, step.supervisor, step.completed, step.startTime, step.endTime);\r\n    }\r\n\r\n    function isProcessCompleted() public view returns (bool) {\r\n        return currentStepIndex >= steps.length;\r\n    }\r\n}\r\n",
  "sourcePath": "C:\\Users\\samue\\Desktop\\MilkChain\\backend\\contracts\\MilkChain.sol",
  "compiler": {
    "name": "solc",
    "version": "0.8.0+commit.c7dfd78e.Emscripten.clang"
  },
  "schemaVersion": "3.4.16",
  "updatedAt": "2024-06-23T23:40:38.453Z",
  "networkType": "ethereum",
  "devdoc": {
    "kind": "dev",
    "methods": {},
    "version": 1
  },
  "userdoc": {
    "kind": "user",
    "methods": {},
    "version": 1
  }
}