{
  "contractName": "MilkProcess",
  "abi": [
    {
      "inputs": [
        {
          "internalType": "uint256",
          "name": "_lotNumber",
          "type": "uint256"
        },
        {
          "internalType": "address",
          "name": "_factory",
          "type": "address"
        },
        {
          "internalType": "bool",
          "name": "_isIntero",
          "type": "bool"
        }
      ],
      "stateMutability": "nonpayable",
      "type": "constructor"
    },
    {
      "inputs": [],
      "name": "currentStepIndex",
      "outputs": [
        {
          "internalType": "uint256",
          "name": "",
          "type": "uint256"
        }
      ],
      "stateMutability": "view",
      "type": "function"
    },
    {
      "inputs": [],
      "name": "factory",
      "outputs": [
        {
          "internalType": "address",
          "name": "",
          "type": "address"
        }
      ],
      "stateMutability": "view",
      "type": "function"
    },
    {
      "inputs": [],
      "name": "isFailed",
      "outputs": [
        {
          "internalType": "bool",
          "name": "",
          "type": "bool"
        }
      ],
      "stateMutability": "view",
      "type": "function"
    },
    {
      "inputs": [],
      "name": "isIntero",
      "outputs": [
        {
          "internalType": "bool",
          "name": "",
          "type": "bool"
        }
      ],
      "stateMutability": "view",
      "type": "function"
    },
    {
      "inputs": [],
      "name": "lotNumber",
      "outputs": [
        {
          "internalType": "uint256",
          "name": "",
          "type": "uint256"
        }
      ],
      "stateMutability": "view",
      "type": "function"
    },
    {
      "inputs": [
        {
          "internalType": "uint256",
          "name": "",
          "type": "uint256"
        }
      ],
      "name": "steps",
      "outputs": [
        {
          "internalType": "string",
          "name": "name",
          "type": "string"
        },
        {
          "internalType": "address",
          "name": "supervisor",
          "type": "address"
        },
        {
          "internalType": "bool",
          "name": "completed",
          "type": "bool"
        },
        {
          "internalType": "uint256",
          "name": "startTime",
          "type": "uint256"
        },
        {
          "internalType": "uint256",
          "name": "endTime",
          "type": "uint256"
        },
        {
          "internalType": "string",
          "name": "location",
          "type": "string"
        },
        {
          "internalType": "uint256",
          "name": "lotNumber",
          "type": "uint256"
        },
        {
          "internalType": "bool",
          "name": "failed",
          "type": "bool"
        }
      ],
      "stateMutability": "view",
      "type": "function"
    },
    {
      "inputs": [
        {
          "internalType": "address[]",
          "name": "supervisors",
          "type": "address[]"
        }
      ],
      "name": "assignSupervisors",
      "outputs": [],
      "stateMutability": "nonpayable",
      "type": "function"
    },
    {
      "inputs": [
        {
          "internalType": "string",
          "name": "_location",
          "type": "string"
        }
      ],
      "name": "completeStep",
      "outputs": [],
      "stateMutability": "nonpayable",
      "type": "function"
    },
    {
      "inputs": [],
      "name": "failStep",
      "outputs": [],
      "stateMutability": "nonpayable",
      "type": "function"
    },
    {
      "inputs": [
        {
          "internalType": "bool",
          "name": "valid",
          "type": "bool"
        }
      ],
      "name": "isTemperatureOK",
      "outputs": [],
      "stateMutability": "nonpayable",
      "type": "function"
    },
    {
      "inputs": [],
      "name": "isProcessCompleted",
      "outputs": [
        {
          "internalType": "bool",
          "name": "",
          "type": "bool"
        }
      ],
      "stateMutability": "view",
      "type": "function"
    },
    {
      "inputs": [],
      "name": "getSteps",
      "outputs": [
        {
          "components": [
            {
              "internalType": "string",
              "name": "name",
              "type": "string"
            },
            {
              "internalType": "address",
              "name": "supervisor",
              "type": "address"
            },
            {
              "internalType": "bool",
              "name": "completed",
              "type": "bool"
            },
            {
              "internalType": "uint256",
              "name": "startTime",
              "type": "uint256"
            },
            {
              "internalType": "uint256",
              "name": "endTime",
              "type": "uint256"
            },
            {
              "internalType": "string",
              "name": "location",
              "type": "string"
            },
            {
              "internalType": "uint256",
              "name": "lotNumber",
              "type": "uint256"
            },
            {
              "internalType": "bool",
              "name": "failed",
              "type": "bool"
            }
          ],
          "internalType": "struct MilkProcess.Step[]",
          "name": "",
          "type": "tuple[]"
        }
      ],
      "stateMutability": "view",
      "type": "function"
    }
  ],
  "bytecode": "0x60806040523480156200001157600080fd5b50604051620039ab380380620039ab83398181016040528101906200003791906200183a565b8260028190555081600360006101000a81548173ffffffffffffffffffffffffffffffffffffffff021916908373ffffffffffffffffffffffffffffffffffffffff1602179055506000600360146101000a81548160ff02191690831515021790555080600360156101000a81548160ff021916908315150217905550620000c46200011e60201b60201c565b426000808154811062000100577f4e487b7100000000000000000000000000000000000000000000000000000000600052603260045260246000fd5b9060005260206000209060070201600201819055505050506200198d565b60006040518061010001604052806040518060400160405280600881526020017f526163636f6c74610000000000000000000000000000000000000000000000008152508152602001600073ffffffffffffffffffffffffffffffffffffffff1681526020016000151581526020016000815260200160008152602001604051806020016040528060008152508152602001600254815260200160001515815250908060018154018082558091505060019003906000526020600020906007020160009091909190915060008201518160000190805190602001906200020692919062001745565b5060208201518160010160006101000a81548173ffffffffffffffffffffffffffffffffffffffff021916908373ffffffffffffffffffffffffffffffffffffffff16021790555060408201518160010160146101000a81548160ff021916908315150217905550606082015181600201556080820151816003015560a0820151816004019080519060200190620002a092919062001745565b5060c0820151816005015560e08201518160060160006101000a81548160ff021916908315150217905550505060006040518061010001604052806040518060400160405280600981526020017f54726173706f72746f00000000000000000000000000000000000000000000008152508152602001600073ffffffffffffffffffffffffffffffffffffffff168152602001600015158152602001600081526020016000815260200160405180602001604052806000815250815260200160025481526020016000151581525090806001815401808255809150506001900390600052602060002090600702016000909190919091506000820151816000019080519060200190620003b592919062001745565b5060208201518160010160006101000a81548173ffffffffffffffffffffffffffffffffffffffff021916908373ffffffffffffffffffffffffffffffffffffffff16021790555060408201518160010160146101000a81548160ff021916908315150217905550606082015181600201556080820151816003015560a08201518160040190805190602001906200044f92919062001745565b5060c0820151816005015560e08201518160060160006101000a81548160ff021916908315150217905550505060006040518061010001604052806040518060400160405280600881526020017f50756c69747572610000000000000000000000000000000000000000000000008152508152602001600073ffffffffffffffffffffffffffffffffffffffff1681526020016000151581526020016000815260200160008152602001604051806020016040528060008152508152602001600254815260200160001515815250908060018154018082558091505060019003906000526020600020906007020160009091909190915060008201518160000190805190602001906200056492919062001745565b5060208201518160010160006101000a81548173ffffffffffffffffffffffffffffffffffffffff021916908373ffffffffffffffffffffffffffffffffffffffff16021790555060408201518160010160146101000a81548160ff021916908315150217905550606082015181600201556080820151816003015560a0820151816004019080519060200190620005fe92919062001745565b5060c0820151816005015560e08201518160060160006101000a81548160ff021916908315150217905550505060006040518061010001604052806040518060400160405280601181526020017f5374616e64617264697a7a617a696f6e650000000000000000000000000000008152508152602001600073ffffffffffffffffffffffffffffffffffffffff1681526020016000151581526020016000815260200160008152602001604051806020016040528060008152508152602001600254815260200160001515815250908060018154018082558091505060019003906000526020600020906007020160009091909190915060008201518160000190805190602001906200071392919062001745565b5060208201518160010160006101000a81548173ffffffffffffffffffffffffffffffffffffffff021916908373ffffffffffffffffffffffffffffffffffffffff16021790555060408201518160010160146101000a81548160ff021916908315150217905550606082015181600201556080820151816003015560a0820151816004019080519060200190620007ad92919062001745565b5060c0820151816005015560e08201518160060160006101000a81548160ff021916908315150217905550505060006040518061010001604052806040518060400160405280601081526020017f4f6d6f67656e65697a7a617a696f6e65000000000000000000000000000000008152508152602001600073ffffffffffffffffffffffffffffffffffffffff168152602001600015158152602001600081526020016000815260200160405180602001604052806000815250815260200160025481526020016000151581525090806001815401808255809150506001900390600052602060002090600702016000909190919091506000820151816000019080519060200190620008c292919062001745565b5060208201518160010160006101000a81548173ffffffffffffffffffffffffffffffffffffffff021916908373ffffffffffffffffffffffffffffffffffffffff16021790555060408201518160010160146101000a81548160ff021916908315150217905550606082015181600201556080820151816003015560a08201518160040190805190602001906200095c92919062001745565b5060c0820151816005015560e08201518160060160006101000a81548160ff0219169083151502179055505050600360159054906101000a900460ff161562000b545760006040518061010001604052806040518060400160405280600f81526020017f506173746f72697a7a617a696f6e6500000000000000000000000000000000008152508152602001600073ffffffffffffffffffffffffffffffffffffffff16815260200160001515815260200160008152602001600081526020016040518060200160405280600081525081526020016002548152602001600015158152509080600181540180825580915050600190039060005260206000209060070201600090919091909150600082015181600001908051906020019062000a8792919062001745565b5060208201518160010160006101000a81548173ffffffffffffffffffffffffffffffffffffffff021916908373ffffffffffffffffffffffffffffffffffffffff16021790555060408201518160010160146101000a81548160ff021916908315150217905550606082015181600201556080820151816003015560a082015181600401908051906020019062000b2192919062001745565b5060c0820151816005015560e08201518160060160006101000a81548160ff021916908315150217905550505062000d04565b60006040518061010001604052806040518060400160405280600f81526020017f53746572696c697a7a617a696f6e6500000000000000000000000000000000008152508152602001600073ffffffffffffffffffffffffffffffffffffffff16815260200160001515815260200160008152602001600081526020016040518060200160405280600081525081526020016002548152602001600015158152509080600181540180825580915050600190039060005260206000209060070201600090919091909150600082015181600001908051906020019062000c3c92919062001745565b5060208201518160010160006101000a81548173ffffffffffffffffffffffffffffffffffffffff021916908373ffffffffffffffffffffffffffffffffffffffff16021790555060408201518160010160146101000a81548160ff021916908315150217905550606082015181600201556080820151816003015560a082015181600401908051906020019062000cd692919062001745565b5060c0820151816005015560e08201518160060160006101000a81548160ff02191690831515021790555050505b60006040518061010001604052806040518060400160405280600f81526020017f436f6e66657a696f6e616d656e746f00000000000000000000000000000000008152508152602001600073ffffffffffffffffffffffffffffffffffffffff16815260200160001515815260200160008152602001600081526020016040518060200160405280600081525081526020016002548152602001600015158152509080600181540180825580915050600190039060005260206000209060070201600090919091909150600082015181600001908051906020019062000dec92919062001745565b5060208201518160010160006101000a81548173ffffffffffffffffffffffffffffffffffffffff021916908373ffffffffffffffffffffffffffffffffffffffff16021790555060408201518160010160146101000a81548160ff021916908315150217905550606082015181600201556080820151816003015560a082015181600401908051906020019062000e8692919062001745565b5060c0820151816005015560e08201518160060160006101000a81548160ff0219169083151502179055505050600360159054906101000a900460ff16156200122d5760006040518061010001604052806040518060400160405280601681526020017f53746f6363616767696f20726566726967657261746f000000000000000000008152508152602001600073ffffffffffffffffffffffffffffffffffffffff16815260200160001515815260200160008152602001600081526020016040518060200160405280600081525081526020016002548152602001600015158152509080600181540180825580915050600190039060005260206000209060070201600090919091909150600082015181600001908051906020019062000fb192919062001745565b5060208201518160010160006101000a81548173ffffffffffffffffffffffffffffffffffffffff021916908373ffffffffffffffffffffffffffffffffffffffff16021790555060408201518160010160146101000a81548160ff021916908315150217905550606082015181600201556080820151816003015560a08201518160040190805190602001906200104b92919062001745565b5060c0820151816005015560e08201518160060160006101000a81548160ff021916908315150217905550505060006040518061010001604052806040518060400160405280601981526020017f44697374726962757a696f6e65207265667269676572617461000000000000008152508152602001600073ffffffffffffffffffffffffffffffffffffffff1681526020016000151581526020016000815260200160008152602001604051806020016040528060008152508152602001600254815260200160001515815250908060018154018082558091505060019003906000526020600020906007020160009091909190915060008201518160000190805190602001906200116092919062001745565b5060208201518160010160006101000a81548173ffffffffffffffffffffffffffffffffffffffff021916908373ffffffffffffffffffffffffffffffffffffffff16021790555060408201518160010160146101000a81548160ff021916908315150217905550606082015181600201556080820151816003015560a0820151816004019080519060200190620011fa92919062001745565b5060c0820151816005015560e08201518160060160006101000a81548160ff02191690831515021790555050506200158c565b60006040518061010001604052806040518060400160405280600a81526020017f53746f6363616767696f000000000000000000000000000000000000000000008152508152602001600073ffffffffffffffffffffffffffffffffffffffff1681526020016000151581526020016000815260200160008152602001604051806020016040528060008152508152602001600254815260200160001515815250908060018154018082558091505060019003906000526020600020906007020160009091909190915060008201518160000190805190602001906200131592919062001745565b5060208201518160010160006101000a81548173ffffffffffffffffffffffffffffffffffffffff021916908373ffffffffffffffffffffffffffffffffffffffff16021790555060408201518160010160146101000a81548160ff021916908315150217905550606082015181600201556080820151816003015560a0820151816004019080519060200190620013af92919062001745565b5060c0820151816005015560e08201518160060160006101000a81548160ff021916908315150217905550505060006040518061010001604052806040518060400160405280600d81526020017f44697374726962757a696f6e65000000000000000000000000000000000000008152508152602001600073ffffffffffffffffffffffffffffffffffffffff168152602001600015158152602001600081526020016000815260200160405180602001604052806000815250815260200160025481526020016000151581525090806001815401808255809150506001900390600052602060002090600702016000909190919091506000820151816000019080519060200190620014c492919062001745565b5060208201518160010160006101000a81548173ffffffffffffffffffffffffffffffffffffffff021916908373ffffffffffffffffffffffffffffffffffffffff16021790555060408201518160010160146101000a81548160ff021916908315150217905550606082015181600201556080820151816003015560a08201518160040190805190602001906200155e92919062001745565b5060c0820151816005015560e08201518160060160006101000a81548160ff02191690831515021790555050505b60006040518061010001604052806040518060400160405280600881526020017f436f6e7365676e610000000000000000000000000000000000000000000000008152508152602001600073ffffffffffffffffffffffffffffffffffffffff1681526020016000151581526020016000815260200160008152602001604051806020016040528060008152508152602001600254815260200160001515815250908060018154018082558091505060019003906000526020600020906007020160009091909190915060008201518160000190805190602001906200167492919062001745565b5060208201518160010160006101000a81548173ffffffffffffffffffffffffffffffffffffffff021916908373ffffffffffffffffffffffffffffffffffffffff16021790555060408201518160010160146101000a81548160ff021916908315150217905550606082015181600201556080820151816003015560a08201518160040190805190602001906200170e92919062001745565b5060c0820151816005015560e08201518160060160006101000a81548160ff02191690831515021790555050506000600181905550565b8280546200175390620018da565b90600052602060002090601f016020900481019282620017775760008555620017c3565b82601f106200179257805160ff1916838001178555620017c3565b82800160010185558215620017c3579182015b82811115620017c2578251825591602001919060010190620017a5565b5b509050620017d29190620017d6565b5090565b5b80821115620017f1576000816000905550600101620017d7565b5090565b60008151905062001806816200193f565b92915050565b6000815190506200181d8162001959565b92915050565b600081519050620018348162001973565b92915050565b6000806000606084860312156200185057600080fd5b6000620018608682870162001823565b93505060206200187386828701620017f5565b925050604062001886868287016200180c565b9150509250925092565b60006200189d82620018b0565b9050919050565b60008115159050919050565b600073ffffffffffffffffffffffffffffffffffffffff82169050919050565b6000819050919050565b60006002820490506001821680620018f357607f821691505b602082108114156200190a576200190962001910565b5b50919050565b7f4e487b7100000000000000000000000000000000000000000000000000000000600052602260045260246000fd5b6200194a8162001890565b81146200195657600080fd5b50565b6200196481620018a4565b81146200197057600080fd5b50565b6200197e81620018d0565b81146200198a57600080fd5b50565b61200e806200199d6000396000f3fe608060405234801561001057600080fd5b50600436106100b45760003560e01c806375b634601161007157806375b63460146101705780638b1659f51461018c5780639597fe9f146101aa578063c45a0155146101c8578063d7d7e9fa146101e6578063f416334014610202576100b4565b8063040c22c0146100b95780631846c134146100d5578063334f45ec146100f35780635da65ada1461011157806366ea96241461012f5780637217e0b914610139575b600080fd5b6100d360048036038101906100ce91906115ba565b610220565b005b6100dd610606565b6040516100ea9190611b2b565b60405180910390f35b6100fb610619565b6040516101089190611cd2565b60405180910390f35b61011961061f565b6040516101269190611b09565b60405180910390f35b61013761084d565b005b610153600480360381019061014e91906115fb565b610b81565b604051610167989796959493929190611b46565b60405180910390f35b61018a60048036038101906101859190611568565b610d23565b005b610194610fdc565b6040516101a19190611b2b565b60405180910390f35b6101b2610fed565b6040516101bf9190611cd2565b60405180910390f35b6101d0610ff3565b6040516101dd9190611aee565b60405180910390f35b61020060048036038101906101fb9190611527565b611019565b005b61020a611312565b6040516102179190611b2b565b60405180910390f35b6000600360009054906101000a900473ffffffffffffffffffffffffffffffffffffffff16905060008173ffffffffffffffffffffffffffffffffffffffff166344276733336040518263ffffffff1660e01b81526004016102829190611aee565b60206040518083038186803b15801561029a57600080fd5b505afa1580156102ae573d6000803e3d6000fd5b505050506040513d601f19601f820116820180604052508101906102d29190611591565b90506002600381111561030e577f4e487b7100000000000000000000000000000000000000000000000000000000600052602160045260246000fd5b816003811115610347577f4e487b7100000000000000000000000000000000000000000000000000000000600052602160045260246000fd5b14610387576040517f08c379a000000000000000000000000000000000000000000000000000000000815260040161037e90611bf2565b60405180910390fd5b600360149054906101000a900460ff16156103d7576040517f08c379a00000000000000000000000000000000000000000000000000000000081526004016103ce90611c92565b60405180910390fd5b60008054905060015410610420576040517f08c379a000000000000000000000000000000000000000000000000000000000815260040161041790611cb2565b60405180910390fd5b6000806001548154811061045d577f4e487b7100000000000000000000000000000000000000000000000000000000600052603260045260246000fd5b906000526020600020906007020190508060010160009054906101000a900473ffffffffffffffffffffffffffffffffffffffff1673ffffffffffffffffffffffffffffffffffffffff163373ffffffffffffffffffffffffffffffffffffffff16146104ff576040517f08c379a00000000000000000000000000000000000000000000000000000000081526004016104f690611c52565b60405180910390fd5b60018160010160146101000a81548160ff02191690831515021790555042816003018190555061052e84611325565b61056d576040517f08c379a000000000000000000000000000000000000000000000000000000000815260040161056490611bd2565b60405180910390fd5b83816004019080519060200190610585929190611332565b506001600081548092919061059990611e9c565b9190505550600080549050600154101561060057426000600154815481106105ea577f4e487b7100000000000000000000000000000000000000000000000000000000600052603260045260246000fd5b9060005260206000209060070201600201819055505b50505050565b600360159054906101000a900460ff1681565b60015481565b60606000805480602002602001604051908101604052809291908181526020016000905b8282101561084457838290600052602060002090600702016040518061010001604052908160008201805461067790611e6a565b80601f01602080910402602001604051908101604052809291908181526020018280546106a390611e6a565b80156106f05780601f106106c5576101008083540402835291602001916106f0565b820191906000526020600020905b8154815290600101906020018083116106d357829003601f168201915b505050505081526020016001820160009054906101000a900473ffffffffffffffffffffffffffffffffffffffff1673ffffffffffffffffffffffffffffffffffffffff1673ffffffffffffffffffffffffffffffffffffffff1681526020016001820160149054906101000a900460ff16151515158152602001600282015481526020016003820154815260200160048201805461078e90611e6a565b80601f01602080910402602001604051908101604052809291908181526020018280546107ba90611e6a565b80156108075780601f106107dc57610100808354040283529160200191610807565b820191906000526020600020905b8154815290600101906020018083116107ea57829003601f168201915b50505050508152602001600582015481526020016006820160009054906101000a900460ff16151515158152505081526020019060010190610643565b50505050905090565b6000600360009054906101000a900473ffffffffffffffffffffffffffffffffffffffff16905060008173ffffffffffffffffffffffffffffffffffffffff166344276733336040518263ffffffff1660e01b81526004016108af9190611aee565b60206040518083038186803b1580156108c757600080fd5b505afa1580156108db573d6000803e3d6000fd5b505050506040513d601f19601f820116820180604052508101906108ff9190611591565b90506002600381111561093b577f4e487b7100000000000000000000000000000000000000000000000000000000600052602160045260246000fd5b816003811115610974577f4e487b7100000000000000000000000000000000000000000000000000000000600052602160045260246000fd5b146109b4576040517f08c379a00000000000000000000000000000000000000000000000000000000081526004016109ab90611bf2565b60405180910390fd5b600360149054906101000a900460ff1615610a04576040517f08c379a00000000000000000000000000000000000000000000000000000000081526004016109fb90611c92565b60405180910390fd5b60008054905060015410610a4d576040517f08c379a0000000000000000000000000000000000000000000000000000000008152600401610a4490611cb2565b60405180910390fd5b60008060015481548110610a8a577f4e487b7100000000000000000000000000000000000000000000000000000000600052603260045260246000fd5b906000526020600020906007020190508060010160009054906101000a900473ffffffffffffffffffffffffffffffffffffffff1673ffffffffffffffffffffffffffffffffffffffff163373ffffffffffffffffffffffffffffffffffffffff1614610b2c576040517f08c379a0000000000000000000000000000000000000000000000000000000008152600401610b2390611c12565b60405180910390fd5b60018160060160006101000a81548160ff0219169083151502179055506001600360146101000a81548160ff02191690831515021790555060016000815480929190610b7790611e9c565b9190505550505050565b60008181548110610b9157600080fd5b9060005260206000209060070201600091509050806000018054610bb490611e6a565b80601f0160208091040260200160405190810160405280929190818152602001828054610be090611e6a565b8015610c2d5780601f10610c0257610100808354040283529160200191610c2d565b820191906000526020600020905b815481529060010190602001808311610c1057829003601f168201915b5050505050908060010160009054906101000a900473ffffffffffffffffffffffffffffffffffffffff16908060010160149054906101000a900460ff1690806002015490806003015490806004018054610c8790611e6a565b80601f0160208091040260200160405190810160405280929190818152602001828054610cb390611e6a565b8015610d005780601f10610cd557610100808354040283529160200191610d00565b820191906000526020600020905b815481529060010190602001808311610ce357829003601f168201915b5050505050908060050154908060060160009054906101000a900460ff16905088565b600360149054906101000a900460ff1615610d73576040517f08c379a0000000000000000000000000000000000000000000000000000000008152600401610d6a90611c92565b60405180910390fd5b60008060015481548110610db0577f4e487b7100000000000000000000000000000000000000000000000000000000600052603260045260246000fd5b906000526020600020906007020190508115610eb95760018160010160146101000a81548160ff0219169083151502179055504281600301819055506040518060400160405280601981526020017f50726f63656475726520757020746f207374616e646172647300000000000000815250816004019080519060200190610e39929190611332565b5060016000815480929190610e4d90611e9c565b91905055506000805490506001541015610eb45742600060015481548110610e9e577f4e487b7100000000000000000000000000000000000000000000000000000000600052603260045260246000fd5b9060005260206000209060070201600201819055505b610fd8565b60018160060160006101000a81548160ff0219169083151502179055506001600360146101000a81548160ff021916908315150217905550428160030181905550600180541415610f57576040518060400160405280601581526020017f526f6164207472616e73706f7274206661696c65640000000000000000000000815250816004019080519060200190610f51929190611332565b50610fd7565b60076001541480610f6a57506008600154145b8015610f825750600360159054906101000a900460ff165b15610fd6576040518060400160405280600e81526020017f53746f72616765206661696c6564000000000000000000000000000000000000815250816004019080519060200190610fd4929190611332565b505b5b5b5050565b600080805490506001541015905090565b60025481565b600360009054906101000a900473ffffffffffffffffffffffffffffffffffffffff1681565b6000600360009054906101000a900473ffffffffffffffffffffffffffffffffffffffff16905060008173ffffffffffffffffffffffffffffffffffffffff166344276733336040518263ffffffff1660e01b815260040161107b9190611aee565b60206040518083038186803b15801561109357600080fd5b505afa1580156110a7573d6000803e3d6000fd5b505050506040513d601f19601f820116820180604052508101906110cb9190611591565b905060016003811115611107577f4e487b7100000000000000000000000000000000000000000000000000000000600052602160045260246000fd5b816003811115611140577f4e487b7100000000000000000000000000000000000000000000000000000000600052602160045260246000fd5b14611180576040517f08c379a000000000000000000000000000000000000000000000000000000000815260040161117790611c72565b60405180910390fd5b60008080549050116111c7576040517f08c379a00000000000000000000000000000000000000000000000000000000081526004016111be90611c32565b60405180910390fd5b6000805b60008054905081101561130b57600181141580156111ea575060058114155b801561121a5750600360159054906101000a900460ff168015611218575060078114806112175750600881145b5b155b156112f857848281518110611258577f4e487b7100000000000000000000000000000000000000000000000000000000600052603260045260246000fd5b60200260200101516000828154811061129a577f4e487b7100000000000000000000000000000000000000000000000000000000600052603260045260246000fd5b906000526020600020906007020160010160006101000a81548173ffffffffffffffffffffffffffffffffffffffff021916908373ffffffffffffffffffffffffffffffffffffffff16021790555081806112f490611e9c565b9250505b808061130390611e9c565b9150506111cb565b5050505050565b600360149054906101000a900460ff1681565b6000808251119050919050565b82805461133e90611e6a565b90600052602060002090601f01602090048101928261136057600085556113a7565b82601f1061137957805160ff19168380011785556113a7565b828001600101855582156113a7579182015b828111156113a657825182559160200191906001019061138b565b5b5090506113b491906113b8565b5090565b5b808211156113d15760008160009055506001016113b9565b5090565b60006113e86113e384611d1e565b611ced565b9050808382526020820190508285602086028201111561140757600080fd5b60005b85811015611437578161141d888261147f565b84526020840193506020830192505060018101905061140a565b5050509392505050565b600061145461144f84611d4a565b611ced565b90508281526020810184848401111561146c57600080fd5b611477848285611e28565b509392505050565b60008135905061148e81611f83565b92915050565b600082601f8301126114a557600080fd5b81356114b58482602086016113d5565b91505092915050565b6000813590506114cd81611f9a565b92915050565b6000815190506114e281611fb1565b92915050565b600082601f8301126114f957600080fd5b8135611509848260208601611441565b91505092915050565b60008135905061152181611fc1565b92915050565b60006020828403121561153957600080fd5b600082013567ffffffffffffffff81111561155357600080fd5b61155f84828501611494565b91505092915050565b60006020828403121561157a57600080fd5b6000611588848285016114be565b91505092915050565b6000602082840312156115a357600080fd5b60006115b1848285016114d3565b91505092915050565b6000602082840312156115cc57600080fd5b600082013567ffffffffffffffff8111156115e657600080fd5b6115f2848285016114e8565b91505092915050565b60006020828403121561160d57600080fd5b600061161b84828501611512565b91505092915050565b60006116308383611a19565b905092915050565b61164181611de0565b82525050565b61165081611de0565b82525050565b600061166182611d8a565b61166b8185611dad565b93508360208202850161167d85611d7a565b8060005b858110156116b9578484038952815161169a8582611624565b94506116a583611da0565b925060208a01995050600181019050611681565b50829750879550505050505092915050565b6116d481611df2565b82525050565b6116e381611df2565b82525050565b60006116f482611d95565b6116fe8185611dbe565b935061170e818560208601611e37565b61171781611f72565b840191505092915050565b600061172d82611d95565b6117378185611dcf565b9350611747818560208601611e37565b61175081611f72565b840191505092915050565b6000611768602883611dcf565b91507f4c6f636174696f6e206973206e6f7420726561736f6e61626c6520666f72207460008301527f68697320737465700000000000000000000000000000000000000000000000006020830152604082019050919050565b60006117ce602783611dcf565b91507f4f6e6c792073757065727669736f722063616e20706572666f726d207468697360008301527f20616374696f6e000000000000000000000000000000000000000000000000006020830152604082019050919050565b6000611834602a83611dcf565b91507f4f6e6c792061737369676e65642073757065727669736f722063616e2066616960008301527f6c207468652073746570000000000000000000000000000000000000000000006020830152604082019050919050565b600061189a601b83611dcf565b91507f53746570732061727261792063616e6e6f7420626520656d70747900000000006000830152602082019050919050565b60006118da602e83611dcf565b91507f4f6e6c792061737369676e65642073757065727669736f722063616e20636f6d60008301527f706c6574652074686520737465700000000000000000000000000000000000006020830152604082019050919050565b6000611940602283611dcf565b91507f4f6e6c792061646d696e2063616e20706572666f726d2074686973206163746960008301527f6f6e0000000000000000000000000000000000000000000000000000000000006020830152604082019050919050565b60006119a6601a83611dcf565b91507f50726f636573732068617320616c7265616479206661696c65640000000000006000830152602082019050919050565b60006119e6601f83611dcf565b91507f416c6c2073746570732061726520616c726561647920636f6d706c65746564006000830152602082019050919050565b6000610100830160008301518482036000860152611a3782826116e9565b9150506020830151611a4c6020860182611638565b506040830151611a5f60408601826116cb565b506060830151611a726060860182611ad0565b506080830151611a856080860182611ad0565b5060a083015184820360a0860152611a9d82826116e9565b91505060c0830151611ab260c0860182611ad0565b5060e0830151611ac560e08601826116cb565b508091505092915050565b611ad981611e1e565b82525050565b611ae881611e1e565b82525050565b6000602082019050611b036000830184611647565b92915050565b60006020820190508181036000830152611b238184611656565b905092915050565b6000602082019050611b4060008301846116da565b92915050565b6000610100820190508181036000830152611b61818b611722565b9050611b70602083018a611647565b611b7d60408301896116da565b611b8a6060830188611adf565b611b976080830187611adf565b81810360a0830152611ba98186611722565b9050611bb860c0830185611adf565b611bc560e08301846116da565b9998505050505050505050565b60006020820190508181036000830152611beb8161175b565b9050919050565b60006020820190508181036000830152611c0b816117c1565b9050919050565b60006020820190508181036000830152611c2b81611827565b9050919050565b60006020820190508181036000830152611c4b8161188d565b9050919050565b60006020820190508181036000830152611c6b816118cd565b9050919050565b60006020820190508181036000830152611c8b81611933565b9050919050565b60006020820190508181036000830152611cab81611999565b9050919050565b60006020820190508181036000830152611ccb816119d9565b9050919050565b6000602082019050611ce76000830184611adf565b92915050565b6000604051905081810181811067ffffffffffffffff82111715611d1457611d13611f43565b5b8060405250919050565b600067ffffffffffffffff821115611d3957611d38611f43565b5b602082029050602081019050919050565b600067ffffffffffffffff821115611d6557611d64611f43565b5b601f19601f8301169050602081019050919050565b6000819050602082019050919050565b600081519050919050565b600081519050919050565b6000602082019050919050565b600082825260208201905092915050565b600082825260208201905092915050565b600082825260208201905092915050565b6000611deb82611dfe565b9050919050565b60008115159050919050565b600073ffffffffffffffffffffffffffffffffffffffff82169050919050565b6000819050919050565b82818337600083830152505050565b60005b83811015611e55578082015181840152602081019050611e3a565b83811115611e64576000848401525b50505050565b60006002820490506001821680611e8257607f821691505b60208210811415611e9657611e95611f14565b5b50919050565b6000611ea782611e1e565b91507fffffffffffffffffffffffffffffffffffffffffffffffffffffffffffffffff821415611eda57611ed9611ee5565b5b600182019050919050565b7f4e487b7100000000000000000000000000000000000000000000000000000000600052601160045260246000fd5b7f4e487b7100000000000000000000000000000000000000000000000000000000600052602260045260246000fd5b7f4e487b7100000000000000000000000000000000000000000000000000000000600052604160045260246000fd5b6000601f19601f8301169050919050565b611f8c81611de0565b8114611f9757600080fd5b50565b611fa381611df2565b8114611fae57600080fd5b50565b60048110611fbe57600080fd5b50565b611fca81611e1e565b8114611fd557600080fd5b5056fea2646970667358221220641602cb5cb826dc4042ed581e1e38eb8c6c470740906ab58a019cc73f70dcc964736f6c63430008000033",
  "immutableReferences": {},
  "source": "// SPDX-License-Identifier: MIT\r\npragma solidity ^0.8.0;\r\n\r\nimport \"./MilkProcessFactory.sol\";\r\n\r\ncontract MilkProcess {\r\n\r\n    struct Step {\r\n        string name;\r\n        address supervisor;\r\n        bool completed;\r\n        uint startTime;\r\n        uint endTime;\r\n        string location;\r\n        uint lotNumber;\r\n        bool failed;\r\n    }\r\n\r\n    Step[] public steps;\r\n    uint public currentStepIndex;\r\n    uint public lotNumber;\r\n    address public factory;\r\n    bool public isFailed;\r\n    bool public isIntero;\r\n\r\n    constructor(uint _lotNumber, address _factory, bool _isIntero) {\r\n        lotNumber = _lotNumber;\r\n        factory = _factory;\r\n        isFailed = false;\r\n        isIntero = _isIntero;\r\n        initializeSteps();\r\n        steps[0].startTime = block.timestamp;\r\n    }\r\n\r\n    function initializeSteps() internal {\r\n        steps.push(Step(\"Raccolta\", address(0), false, 0, 0, \"\", lotNumber, false));\r\n        steps.push(Step(\"Trasporto\", address(0), false, 0, 0, \"\", lotNumber, false)); // Supervisore automatico\r\n        steps.push(Step(\"Pulitura\", address(0), false, 0, 0, \"\", lotNumber, false)); \r\n        steps.push(Step(\"Standardizzazione\", address(0), false, 0, 0, \"\", lotNumber, false));\r\n        steps.push(Step(\"Omogeneizzazione\", address(0), false, 0, 0, \"\", lotNumber, false));\r\n        if(isIntero){\r\n            steps.push(Step(\"Pastorizzazione\", address(0), false, 0, 0, \"\", lotNumber, false)); // Supervisore automatico\r\n        }else{\r\n            steps.push(Step(\"Sterilizzazione\", address(0), false, 0, 0, \"\", lotNumber, false)); // Supervisore automatico\r\n        }\r\n        steps.push(Step(\"Confezionamento\", address(0), false, 0, 0, \"\", lotNumber, false));\r\n        if(isIntero){\r\n            steps.push(Step(\"Stoccaggio refrigerato\", address(0), false, 0, 0, \"\", lotNumber, false)); // Supervisore automatico\r\n            steps.push(Step(\"Distribuzione refrigerata\", address(0), false, 0, 0, \"\", lotNumber, false));\r\n        }else{\r\n            steps.push(Step(\"Stoccaggio\", address(0), false, 0, 0, \"\", lotNumber, false)); // Supervisore automatico\r\n            steps.push(Step(\"Distribuzione\", address(0), false, 0, 0, \"\", lotNumber, false));\r\n        }\r\n        steps.push(Step(\"Consegna\", address(0), false, 0, 0, \"\", lotNumber, false));\r\n        currentStepIndex = 0;\r\n    }\r\n\r\n    function assignSupervisors(address[] memory supervisors) external onlyAdmin {\r\n        require(steps.length > 0, \"Steps array cannot be empty\");\r\n        uint j = 0;\r\n        for (uint i = 0; i < steps.length; i++) {\r\n            if (i != 1 && i != 5 && !(isIntero && (i == 7 || i == 8))) {\r\n                steps[i].supervisor = supervisors[j];\r\n                j++;\r\n            }\r\n        }\r\n    }\r\n\r\n    function completeStep(string memory _location) external onlySupervisor {\r\n        require(!isFailed, \"Process has already failed\");\r\n        require(currentStepIndex < steps.length, \"All steps are already completed\");\r\n        Step storage step = steps[currentStepIndex];\r\n        require(msg.sender == step.supervisor, \"Only assigned supervisor can complete the step\");\r\n        step.completed = true;\r\n        step.endTime = block.timestamp;\r\n\r\n        require(isReasonableLocation(_location), \"Location is not reasonable for this step\");\r\n\r\n        step.location = _location;\r\n\r\n        currentStepIndex++;\r\n\r\n        if (currentStepIndex < steps.length) {\r\n            steps[currentStepIndex].startTime = block.timestamp;\r\n        }\r\n    }\r\n\r\n    function failStep() external onlySupervisor {\r\n        require(!isFailed, \"Process has already failed\");\r\n        require(currentStepIndex < steps.length, \"All steps are already completed\");\r\n        Step storage step = steps[currentStepIndex];\r\n        require(msg.sender == step.supervisor, \"Only assigned supervisor can fail the step\");\r\n        step.failed = true;\r\n        isFailed = true;\r\n        currentStepIndex++;\r\n    }\r\n\r\n    function isTemperatureOK(bool valid) external {\r\n        require(!isFailed, \"Process has already failed\");\r\n\r\n        Step storage step = steps[currentStepIndex];\r\n\r\n        if (valid){\r\n            step.completed = true;\r\n            step.endTime = block.timestamp;\r\n            step.location = \"Procedure up to standards\";\r\n            currentStepIndex++;\r\n            if (currentStepIndex < steps.length) {\r\n                steps[currentStepIndex].startTime = block.timestamp;\r\n            }\r\n        }else{\r\n            step.failed = true;\r\n            isFailed = true;\r\n            step.endTime = block.timestamp;\r\n            if (currentStepIndex == 1){\r\n              step.location = \"Road transport failed\";\r\n            } else if ((currentStepIndex == 7 || currentStepIndex == 8) && isIntero){\r\n                step.location = \"Storage failed\";\r\n            }\r\n        }\r\n    }\r\n\r\n    function isReasonableLocation(string memory _location) internal pure returns (bool) {\r\n        return bytes(_location).length > 0;\r\n    }\r\n\r\n    function isProcessCompleted() external view returns (bool) {\r\n        return currentStepIndex >= steps.length;\r\n    }\r\n\r\n    function getSteps() external view returns (Step[] memory) {\r\n        return steps;\r\n    }\r\n\r\n    modifier onlyAdmin() {\r\n        MilkProcessFactory factoryContract = MilkProcessFactory(factory);\r\n        MilkProcessFactory.Role role = factoryContract.getRole(msg.sender);\r\n        require(role == MilkProcessFactory.Role.Admin, \"Only admin can perform this action\");\r\n        _;\r\n    }\r\n\r\n    modifier onlySupervisor() {\r\n        MilkProcessFactory factoryContract = MilkProcessFactory(factory);\r\n        MilkProcessFactory.Role role = factoryContract.getRole(msg.sender);\r\n        require(role == MilkProcessFactory.Role.Supervisor, \"Only supervisor can perform this action\");\r\n        _;\r\n    }\r\n}",
  "sourcePath": "C:\\Users\\gbeks\\OneDrive\\Desktop\\MilkChain\\backend\\contracts\\MilkProcess.sol",
  "compiler": {
    "name": "solc",
    "version": "0.8.0+commit.c7dfd78e.Emscripten.clang"
  },
  "schemaVersion": "3.4.16",
  "updatedAt": "2024-07-14T13:50:44.619Z",
  "devdoc": {
    "kind": "dev",
    "methods": {},
    "version": 1
  },
  "userdoc": {
    "kind": "user",
    "methods": {},
    "version": 1
  }
}