{
  "contractName": "MilkProcess",
  "abi": [
    {
      "inputs": [
        {
          "internalType": "uint256",
          "name": "_lotNumber",
          "type": "uint256"
        },
        {
          "internalType": "address",
          "name": "_owner",
          "type": "address"
        },
        {
          "internalType": "address",
          "name": "_factory",
          "type": "address"
        }
      ],
      "stateMutability": "nonpayable",
      "type": "constructor"
    },
    {
      "anonymous": false,
      "inputs": [
        {
          "indexed": false,
          "internalType": "uint256",
          "name": "stepIndex",
          "type": "uint256"
        },
        {
          "indexed": false,
          "internalType": "string",
          "name": "location",
          "type": "string"
        },
        {
          "indexed": false,
          "internalType": "uint256",
          "name": "endTime",
          "type": "uint256"
        }
      ],
      "name": "StepCompleted",
      "type": "event"
    },
    {
      "inputs": [],
      "name": "currentStepIndex",
      "outputs": [
        {
          "internalType": "uint256",
          "name": "",
          "type": "uint256"
        }
      ],
      "stateMutability": "view",
      "type": "function"
    },
    {
      "inputs": [],
      "name": "factory",
      "outputs": [
        {
          "internalType": "address",
          "name": "",
          "type": "address"
        }
      ],
      "stateMutability": "view",
      "type": "function"
    },
    {
      "inputs": [],
      "name": "lotNumber",
      "outputs": [
        {
          "internalType": "uint256",
          "name": "",
          "type": "uint256"
        }
      ],
      "stateMutability": "view",
      "type": "function"
    },
    {
      "inputs": [],
      "name": "owner",
      "outputs": [
        {
          "internalType": "address",
          "name": "",
          "type": "address"
        }
      ],
      "stateMutability": "view",
      "type": "function"
    },
    {
      "inputs": [
        {
          "internalType": "uint256",
          "name": "",
          "type": "uint256"
        }
      ],
      "name": "steps",
      "outputs": [
        {
          "internalType": "string",
          "name": "name",
          "type": "string"
        },
        {
          "internalType": "address",
          "name": "supervisor",
          "type": "address"
        },
        {
          "internalType": "bool",
          "name": "completed",
          "type": "bool"
        },
        {
          "internalType": "uint256",
          "name": "startTime",
          "type": "uint256"
        },
        {
          "internalType": "uint256",
          "name": "endTime",
          "type": "uint256"
        },
        {
          "internalType": "string",
          "name": "location",
          "type": "string"
        },
        {
          "internalType": "uint256",
          "name": "lotNumber",
          "type": "uint256"
        }
      ],
      "stateMutability": "view",
      "type": "function"
    },
    {
      "inputs": [
        {
          "internalType": "uint256",
          "name": "stepIndex",
          "type": "uint256"
        },
        {
          "internalType": "address",
          "name": "supervisor",
          "type": "address"
        }
      ],
      "name": "assignSupervisor",
      "outputs": [],
      "stateMutability": "nonpayable",
      "type": "function"
    },
    {
      "inputs": [
        {
          "internalType": "string",
          "name": "_location",
          "type": "string"
        }
      ],
      "name": "completeStep",
      "outputs": [],
      "stateMutability": "nonpayable",
      "type": "function"
    },
    {
      "inputs": [],
      "name": "isProcessCompleted",
      "outputs": [
        {
          "internalType": "bool",
          "name": "",
          "type": "bool"
        }
      ],
      "stateMutability": "view",
      "type": "function"
    },
    {
      "inputs": [
        {
          "internalType": "uint256",
          "name": "index",
          "type": "uint256"
        }
      ],
      "name": "getStep",
      "outputs": [
        {
          "internalType": "string",
          "name": "",
          "type": "string"
        },
        {
          "internalType": "address",
          "name": "",
          "type": "address"
        },
        {
          "internalType": "bool",
          "name": "",
          "type": "bool"
        },
        {
          "internalType": "uint256",
          "name": "",
          "type": "uint256"
        },
        {
          "internalType": "uint256",
          "name": "",
          "type": "uint256"
        },
        {
          "internalType": "string",
          "name": "",
          "type": "string"
        },
        {
          "internalType": "uint256",
          "name": "",
          "type": "uint256"
        }
      ],
      "stateMutability": "view",
      "type": "function"
    }
  ],
  "bytecode": "0x60806040523480156200001157600080fd5b5060405162002022380380620020228339818101604052810190620000379190620009ab565b8260028190555081600360006101000a81548173ffffffffffffffffffffffffffffffffffffffff021916908373ffffffffffffffffffffffffffffffffffffffff16021790555080600460006101000a81548173ffffffffffffffffffffffffffffffffffffffff021916908373ffffffffffffffffffffffffffffffffffffffff160217905550620000d06200012a60201b60201c565b42600080815481106200010c577f4e487b7100000000000000000000000000000000000000000000000000000000600052603260045260246000fd5b90600052602060002090600602016002018190555050505062000ad8565b60006040518060e001604052806040518060400160405280600881526020017f526163636f6c74610000000000000000000000000000000000000000000000008152508152602001600073ffffffffffffffffffffffffffffffffffffffff16815260200160001515815260200160008152602001600081526020016040518060200160405280600081525081526020016002548152509080600181540180825580915050600190039060005260206000209060060201600090919091909150600082015181600001908051906020019062000208929190620008cd565b5060208201518160010160006101000a81548173ffffffffffffffffffffffffffffffffffffffff021916908373ffffffffffffffffffffffffffffffffffffffff16021790555060408201518160010160146101000a81548160ff021916908315150217905550606082015181600201556080820151816003015560a0820151816004019080519060200190620002a2929190620008cd565b5060c08201518160050155505060006040518060e001604052806040518060400160405280600981526020017f54726173706f72746f00000000000000000000000000000000000000000000008152508152602001600073ffffffffffffffffffffffffffffffffffffffff1681526020016000151581526020016000815260200160008152602001604051806020016040528060008152508152602001600254815250908060018154018082558091505060019003906000526020600020906006020160009091909190915060008201518160000190805190602001906200038d929190620008cd565b5060208201518160010160006101000a81548173ffffffffffffffffffffffffffffffffffffffff021916908373ffffffffffffffffffffffffffffffffffffffff16021790555060408201518160010160146101000a81548160ff021916908315150217905550606082015181600201556080820151816003015560a082015181600401908051906020019062000427929190620008cd565b5060c08201518160050155505060006040518060e001604052806040518060400160405280600b81526020017f4c61766f72617a696f6e650000000000000000000000000000000000000000008152508152602001600073ffffffffffffffffffffffffffffffffffffffff16815260200160001515815260200160008152602001600081526020016040518060200160405280600081525081526020016002548152509080600181540180825580915050600190039060005260206000209060060201600090919091909150600082015181600001908051906020019062000512929190620008cd565b5060208201518160010160006101000a81548173ffffffffffffffffffffffffffffffffffffffff021916908373ffffffffffffffffffffffffffffffffffffffff16021790555060408201518160010160146101000a81548160ff021916908315150217905550606082015181600201556080820151816003015560a0820151816004019080519060200190620005ac929190620008cd565b5060c08201518160050155505060006040518060e001604052806040518060400160405280600f81526020017f436f6e66657a696f6e616d656e746f00000000000000000000000000000000008152508152602001600073ffffffffffffffffffffffffffffffffffffffff16815260200160001515815260200160008152602001600081526020016040518060200160405280600081525081526020016002548152509080600181540180825580915050600190039060005260206000209060060201600090919091909150600082015181600001908051906020019062000697929190620008cd565b5060208201518160010160006101000a81548173ffffffffffffffffffffffffffffffffffffffff021916908373ffffffffffffffffffffffffffffffffffffffff16021790555060408201518160010160146101000a81548160ff021916908315150217905550606082015181600201556080820151816003015560a082015181600401908051906020019062000731929190620008cd565b5060c08201518160050155505060006040518060e001604052806040518060400160405280600d81526020017f44697374726962757a696f6e65000000000000000000000000000000000000008152508152602001600073ffffffffffffffffffffffffffffffffffffffff1681526020016000151581526020016000815260200160008152602001604051806020016040528060008152508152602001600254815250908060018154018082558091505060019003906000526020600020906006020160009091909190915060008201518160000190805190602001906200081c929190620008cd565b5060208201518160010160006101000a81548173ffffffffffffffffffffffffffffffffffffffff021916908373ffffffffffffffffffffffffffffffffffffffff16021790555060408201518160010160146101000a81548160ff021916908315150217905550606082015181600201556080820151816003015560a0820151816004019080519060200190620008b6929190620008cd565b5060c0820151816005015550506000600181905550565b828054620008db9062000a3f565b90600052602060002090601f016020900481019282620008ff57600085556200094b565b82601f106200091a57805160ff19168380011785556200094b565b828001600101855582156200094b579182015b828111156200094a5782518255916020019190600101906200092d565b5b5090506200095a91906200095e565b5090565b5b80821115620009795760008160009055506001016200095f565b5090565b6000815190506200098e8162000aa4565b92915050565b600081519050620009a58162000abe565b92915050565b600080600060608486031215620009c157600080fd5b6000620009d18682870162000994565b9350506020620009e4868287016200097d565b9250506040620009f7868287016200097d565b9150509250925092565b600062000a0e8262000a15565b9050919050565b600073ffffffffffffffffffffffffffffffffffffffff82169050919050565b6000819050919050565b6000600282049050600182168062000a5857607f821691505b6020821081141562000a6f5762000a6e62000a75565b5b50919050565b7f4e487b7100000000000000000000000000000000000000000000000000000000600052602260045260246000fd5b62000aaf8162000a01565b811462000abb57600080fd5b50565b62000ac98162000a35565b811462000ad557600080fd5b50565b61153a8062000ae86000396000f3fe608060405234801561001057600080fd5b50600436106100935760003560e01c80637874888a116100665780637874888a146101245780638b1659f51461015a5780638da5cb5b146101785780639597fe9f14610196578063c45a0155146101b457610093565b8063040c22c014610098578063334f45ec146100b457806344054931146100d25780637217e0b9146100ee575b600080fd5b6100b260048036038101906100ad9190610d82565b6101d2565b005b6100bc6105af565b6040516100c99190611219565b60405180910390f35b6100ec60048036038101906100e79190610dec565b6105b5565b005b61010860048036038101906101039190610dc3565b6107f3565b60405161011b97969594939291906110dc565b60405180910390f35b61013e60048036038101906101399190610dc3565b610982565b60405161015197969594939291906110dc565b60405180910390f35b610162610b9f565b60405161016f91906110c1565b60405180910390f35b610180610bb0565b60405161018d91906110a6565b60405180910390f35b61019e610bd6565b6040516101ab9190611219565b60405180910390f35b6101bc610bdc565b6040516101c991906110a6565b60405180910390f35b6000600460009054906101000a900473ffffffffffffffffffffffffffffffffffffffff16905060008173ffffffffffffffffffffffffffffffffffffffff166344276733336040518263ffffffff1660e01b815260040161023491906110a6565b60206040518083038186803b15801561024c57600080fd5b505afa158015610260573d6000803e3d6000fd5b505050506040513d601f19601f820116820180604052508101906102849190610d59565b90506002808111156102bf577f4e487b7100000000000000000000000000000000000000000000000000000000600052602160045260246000fd5b8160028111156102f8577f4e487b7100000000000000000000000000000000000000000000000000000000600052602160045260246000fd5b14610338576040517f08c379a000000000000000000000000000000000000000000000000000000000815260040161032f90611179565b60405180910390fd5b60008054905060015410610381576040517f08c379a0000000000000000000000000000000000000000000000000000000008152600401610378906111f9565b60405180910390fd5b600080600154815481106103be577f4e487b7100000000000000000000000000000000000000000000000000000000600052603260045260246000fd5b906000526020600020906006020190508060010160009054906101000a900473ffffffffffffffffffffffffffffffffffffffff1673ffffffffffffffffffffffffffffffffffffffff163373ffffffffffffffffffffffffffffffffffffffff1614610460576040517f08c379a000000000000000000000000000000000000000000000000000000000815260040161045790611199565b60405180910390fd5b60018160010160146101000a81548160ff02191690831515021790555042816003018190555061048f84610c02565b6104ce576040517f08c379a00000000000000000000000000000000000000000000000000000000081526004016104c590611159565b60405180910390fd5b838160040190805190602001906104e6929190610c0f565b50600160008154809291906104fa906113df565b91905055506000805490506001541015610561574260006001548154811061054b577f4e487b7100000000000000000000000000000000000000000000000000000000600052603260045260246000fd5b9060005260206000209060060201600201819055505b7f91f0b878c8898462835a832e915c3b68a4973ba2e22c1200709419e850857e1c6001805461059091906112ef565b85426040516105a193929190611234565b60405180910390a150505050565b60015481565b6000600460009054906101000a900473ffffffffffffffffffffffffffffffffffffffff16905060008173ffffffffffffffffffffffffffffffffffffffff166344276733336040518263ffffffff1660e01b815260040161061791906110a6565b60206040518083038186803b15801561062f57600080fd5b505afa158015610643573d6000803e3d6000fd5b505050506040513d601f19601f820116820180604052508101906106679190610d59565b9050600160028111156106a3577f4e487b7100000000000000000000000000000000000000000000000000000000600052602160045260246000fd5b8160028111156106dc577f4e487b7100000000000000000000000000000000000000000000000000000000600052602160045260246000fd5b1461071c576040517f08c379a0000000000000000000000000000000000000000000000000000000008152600401610713906111b9565b60405180910390fd5b6000805490508410610763576040517f08c379a000000000000000000000000000000000000000000000000000000000815260040161075a906111d9565b60405180910390fd5b826000858154811061079e577f4e487b7100000000000000000000000000000000000000000000000000000000600052603260045260246000fd5b906000526020600020906006020160010160006101000a81548173ffffffffffffffffffffffffffffffffffffffff021916908373ffffffffffffffffffffffffffffffffffffffff16021790555050505050565b6000818154811061080357600080fd5b9060005260206000209060060201600091509050806000018054610826906113ad565b80601f0160208091040260200160405190810160405280929190818152602001828054610852906113ad565b801561089f5780601f106108745761010080835404028352916020019161089f565b820191906000526020600020905b81548152906001019060200180831161088257829003601f168201915b5050505050908060010160009054906101000a900473ffffffffffffffffffffffffffffffffffffffff16908060010160149054906101000a900460ff16908060020154908060030154908060040180546108f9906113ad565b80601f0160208091040260200160405190810160405280929190818152602001828054610925906113ad565b80156109725780601f1061094757610100808354040283529160200191610972565b820191906000526020600020905b81548152906001019060200180831161095557829003601f168201915b5050505050908060050154905087565b606060008060008060606000808054905088106109d4576040517f08c379a00000000000000000000000000000000000000000000000000000000081526004016109cb906111d9565b60405180910390fd5b6000808981548110610a0f577f4e487b7100000000000000000000000000000000000000000000000000000000600052603260045260246000fd5b90600052602060002090600602019050806000018160010160009054906101000a900473ffffffffffffffffffffffffffffffffffffffff168260010160149054906101000a900460ff1683600201548460030154856004018660050154868054610a79906113ad565b80601f0160208091040260200160405190810160405280929190818152602001828054610aa5906113ad565b8015610af25780601f10610ac757610100808354040283529160200191610af2565b820191906000526020600020905b815481529060010190602001808311610ad557829003601f168201915b50505050509650818054610b05906113ad565b80601f0160208091040260200160405190810160405280929190818152602001828054610b31906113ad565b8015610b7e5780601f10610b5357610100808354040283529160200191610b7e565b820191906000526020600020905b815481529060010190602001808311610b6157829003601f168201915b50505050509150975097509750975097509750975050919395979092949650565b600080805490506001541015905090565b600360009054906101000a900473ffffffffffffffffffffffffffffffffffffffff1681565b60025481565b600460009054906101000a900473ffffffffffffffffffffffffffffffffffffffff1681565b6000808251119050919050565b828054610c1b906113ad565b90600052602060002090601f016020900481019282610c3d5760008555610c84565b82601f10610c5657805160ff1916838001178555610c84565b82800160010185558215610c84579182015b82811115610c83578251825591602001919060010190610c68565b5b509050610c919190610c95565b5090565b5b80821115610cae576000816000905550600101610c96565b5090565b6000610cc5610cc0846112a3565b611272565b905082815260208101848484011115610cdd57600080fd5b610ce884828561136b565b509392505050565b600081359050610cff816114c6565b92915050565b600081519050610d14816114dd565b92915050565b600082601f830112610d2b57600080fd5b8135610d3b848260208601610cb2565b91505092915050565b600081359050610d53816114ed565b92915050565b600060208284031215610d6b57600080fd5b6000610d7984828501610d05565b91505092915050565b600060208284031215610d9457600080fd5b600082013567ffffffffffffffff811115610dae57600080fd5b610dba84828501610d1a565b91505092915050565b600060208284031215610dd557600080fd5b6000610de384828501610d44565b91505092915050565b60008060408385031215610dff57600080fd5b6000610e0d85828601610d44565b9250506020610e1e85828601610cf0565b9150509250929050565b610e3181611323565b82525050565b610e4081611335565b82525050565b6000610e51826112d3565b610e5b81856112de565b9350610e6b81856020860161137a565b610e74816114b5565b840191505092915050565b6000610e8c6028836112de565b91507f4c6f636174696f6e206973206e6f7420726561736f6e61626c6520666f72207460008301527f68697320737465700000000000000000000000000000000000000000000000006020830152604082019050919050565b6000610ef26027836112de565b91507f4f6e6c792073757065727669736f722063616e20706572666f726d207468697360008301527f20616374696f6e000000000000000000000000000000000000000000000000006020830152604082019050919050565b6000610f58602e836112de565b91507f4f6e6c792061737369676e65642073757065727669736f722063616e20636f6d60008301527f706c6574652074686520737465700000000000000000000000000000000000006020830152604082019050919050565b6000610fbe6022836112de565b91507f4f6e6c792061646d696e2063616e20706572666f726d2074686973206163746960008301527f6f6e0000000000000000000000000000000000000000000000000000000000006020830152604082019050919050565b60006110246017836112de565b91507f5374657020696e646578206f7574206f662072616e67650000000000000000006000830152602082019050919050565b6000611064601f836112de565b91507f416c6c2073746570732061726520616c726561647920636f6d706c65746564006000830152602082019050919050565b6110a081611361565b82525050565b60006020820190506110bb6000830184610e28565b92915050565b60006020820190506110d66000830184610e37565b92915050565b600060e08201905081810360008301526110f6818a610e46565b90506111056020830189610e28565b6111126040830188610e37565b61111f6060830187611097565b61112c6080830186611097565b81810360a083015261113e8185610e46565b905061114d60c0830184611097565b98975050505050505050565b6000602082019050818103600083015261117281610e7f565b9050919050565b6000602082019050818103600083015261119281610ee5565b9050919050565b600060208201905081810360008301526111b281610f4b565b9050919050565b600060208201905081810360008301526111d281610fb1565b9050919050565b600060208201905081810360008301526111f281611017565b9050919050565b6000602082019050818103600083015261121281611057565b9050919050565b600060208201905061122e6000830184611097565b92915050565b60006060820190506112496000830186611097565b818103602083015261125b8185610e46565b905061126a6040830184611097565b949350505050565b6000604051905081810181811067ffffffffffffffff8211171561129957611298611486565b5b8060405250919050565b600067ffffffffffffffff8211156112be576112bd611486565b5b601f19601f8301169050602081019050919050565b600081519050919050565b600082825260208201905092915050565b60006112fa82611361565b915061130583611361565b92508282101561131857611317611428565b5b828203905092915050565b600061132e82611341565b9050919050565b60008115159050919050565b600073ffffffffffffffffffffffffffffffffffffffff82169050919050565b6000819050919050565b82818337600083830152505050565b60005b8381101561139857808201518184015260208101905061137d565b838111156113a7576000848401525b50505050565b600060028204905060018216806113c557607f821691505b602082108114156113d9576113d8611457565b5b50919050565b60006113ea82611361565b91507fffffffffffffffffffffffffffffffffffffffffffffffffffffffffffffffff82141561141d5761141c611428565b5b600182019050919050565b7f4e487b7100000000000000000000000000000000000000000000000000000000600052601160045260246000fd5b7f4e487b7100000000000000000000000000000000000000000000000000000000600052602260045260246000fd5b7f4e487b7100000000000000000000000000000000000000000000000000000000600052604160045260246000fd5b6000601f19601f8301169050919050565b6114cf81611323565b81146114da57600080fd5b50565b600381106114ea57600080fd5b50565b6114f681611361565b811461150157600080fd5b5056fea2646970667358221220026871a9fc691ddffab4b2121a208587ef449c2d432bdf2a1c30a8e243aead6464736f6c63430008000033",
  "immutableReferences": {},
  "source": "// SPDX-License-Identifier: MIT\r\npragma solidity ^0.8.0; // Modificato da ^0.8.20 a ^0.8.19\r\n\r\nimport \"./MilkProcessFactory.sol\";\r\n\r\ncontract MilkProcess {\r\n    struct Step {\r\n        string name;\r\n        address supervisor;\r\n        bool completed;\r\n        uint startTime;\r\n        uint endTime;\r\n        string location;\r\n        uint lotNumber;\r\n    }\r\n\r\n    Step[] public steps;\r\n    uint public currentStepIndex;\r\n    uint public lotNumber;\r\n    address public owner;\r\n    address public factory;\r\n\r\n    event StepCompleted(uint stepIndex, string location, uint endTime);\r\n\r\n    constructor(uint _lotNumber, address _owner, address _factory) {\r\n        lotNumber = _lotNumber;\r\n        owner = _owner;\r\n        factory = _factory;\r\n        initializeSteps();\r\n        steps[0].startTime = block.timestamp;\r\n    }\r\n\r\n    function initializeSteps() internal {\r\n        steps.push(Step(\"Raccolta\", address(0), false, 0, 0, \"\", lotNumber));\r\n        steps.push(Step(\"Trasporto\", address(0), false, 0, 0, \"\", lotNumber));\r\n        steps.push(Step(\"Lavorazione\", address(0), false, 0, 0, \"\", lotNumber));\r\n        steps.push(Step(\"Confezionamento\", address(0), false, 0, 0, \"\", lotNumber));\r\n        steps.push(Step(\"Distribuzione\", address(0), false, 0, 0, \"\", lotNumber));\r\n        currentStepIndex = 0;\r\n    }\r\n\r\n    function assignSupervisor(uint stepIndex,address supervisor) external onlyAdmin {\r\n        require(stepIndex < steps.length, \"Step index out of range\");\r\n        steps[stepIndex].supervisor = supervisor;\r\n    }\r\n\r\n    function completeStep(string memory _location) external onlySupervisor {\r\n        require(\r\n            currentStepIndex < steps.length,\r\n            \"All steps are already completed\"\r\n        );\r\n        Step storage step = steps[currentStepIndex];\r\n        require(\r\n            msg.sender == step.supervisor,\r\n            \"Only assigned supervisor can complete the step\"\r\n        );\r\n        step.completed = true;\r\n        step.endTime = block.timestamp;\r\n\r\n        require(\r\n            isReasonableLocation(_location),\r\n            \"Location is not reasonable for this step\"\r\n        );\r\n\r\n        step.location = _location;\r\n\r\n        currentStepIndex++;\r\n\r\n        if (currentStepIndex < steps.length) {\r\n            steps[currentStepIndex].startTime = block.timestamp;\r\n        }\r\n\r\n        emit StepCompleted(currentStepIndex - 1, _location, block.timestamp);\r\n    }\r\n\r\n    function isReasonableLocation(\r\n        string memory _location\r\n    ) internal pure returns (bool) {\r\n        return bytes(_location).length > 0;\r\n    }\r\n\r\n    function isProcessCompleted() external view returns (bool) {\r\n        return currentStepIndex >= steps.length;\r\n    }\r\n\r\n    function getStep(\r\n        uint index\r\n    )\r\n        external\r\n        view\r\n        returns (string memory, address, bool, uint, uint, string memory, uint)\r\n    {\r\n        require(index < steps.length, \"Step index out of range\");\r\n        Step storage step = steps[index];\r\n        return (\r\n            step.name,\r\n            step.supervisor,\r\n            step.completed,\r\n            step.startTime,\r\n            step.endTime,\r\n            step.location,\r\n            step.lotNumber\r\n        );\r\n    }\r\n\r\n    modifier onlyAdmin() {\r\n        MilkProcessFactory factoryContract = MilkProcessFactory(factory);\r\n        MilkProcessFactory.Role role = factoryContract.getRole(msg.sender);\r\n        require(role == MilkProcessFactory.Role.Admin, \"Only admin can perform this action\");\r\n        _;\r\n    }\r\n\r\n    modifier onlySupervisor() {\r\n        MilkProcessFactory factoryContract = MilkProcessFactory(factory);\r\n        MilkProcessFactory.Role role = factoryContract.getRole(msg.sender);\r\n        require(role == MilkProcessFactory.Role.Supervisor, \"Only supervisor can perform this action\");\r\n        _;\r\n    }\r\n}\r\n",
  "sourcePath": "C:\\Users\\gbeks\\OneDrive\\Desktop\\MilkChain\\backend\\contracts\\MilkProcess.sol",
  "compiler": {
    "name": "solc",
    "version": "0.8.0+commit.c7dfd78e.Emscripten.clang"
  },
  "schemaVersion": "3.4.16",
  "updatedAt": "2024-07-05T16:25:54.486Z",
  "devdoc": {
    "kind": "dev",
    "methods": {},
    "version": 1
  },
  "userdoc": {
    "kind": "user",
    "methods": {},
    "version": 1
  }
}