{
  "contractName": "MilkChain",
  "abi": [
    {
      "inputs": [],
      "stateMutability": "nonpayable",
      "type": "constructor"
    },
    {
      "anonymous": false,
      "inputs": [],
      "name": "ProcessReset",
      "type": "event"
    },
    {
      "anonymous": false,
      "inputs": [
        {
          "indexed": false,
          "internalType": "uint256",
          "name": "stepIndex",
          "type": "uint256"
        },
        {
          "indexed": false,
          "internalType": "string",
          "name": "name",
          "type": "string"
        },
        {
          "indexed": false,
          "internalType": "uint256",
          "name": "startTime",
          "type": "uint256"
        },
        {
          "indexed": false,
          "internalType": "uint256",
          "name": "endTime",
          "type": "uint256"
        }
      ],
      "name": "StepCompleted",
      "type": "event"
    },
    {
      "inputs": [
        {
          "internalType": "uint256",
          "name": "",
          "type": "uint256"
        }
      ],
      "name": "completedSteps",
      "outputs": [
        {
          "internalType": "string",
          "name": "name",
          "type": "string"
        },
        {
          "internalType": "address",
          "name": "supervisor",
          "type": "address"
        },
        {
          "internalType": "bool",
          "name": "completed",
          "type": "bool"
        },
        {
          "internalType": "uint256",
          "name": "startTime",
          "type": "uint256"
        },
        {
          "internalType": "uint256",
          "name": "endTime",
          "type": "uint256"
        }
      ],
      "stateMutability": "view",
      "type": "function",
      "constant": true
    },
    {
      "inputs": [],
      "name": "currentStepIndex",
      "outputs": [
        {
          "internalType": "uint256",
          "name": "",
          "type": "uint256"
        }
      ],
      "stateMutability": "view",
      "type": "function",
      "constant": true
    },
    {
      "inputs": [
        {
          "internalType": "uint256",
          "name": "",
          "type": "uint256"
        }
      ],
      "name": "steps",
      "outputs": [
        {
          "internalType": "string",
          "name": "name",
          "type": "string"
        },
        {
          "internalType": "address",
          "name": "supervisor",
          "type": "address"
        },
        {
          "internalType": "bool",
          "name": "completed",
          "type": "bool"
        },
        {
          "internalType": "uint256",
          "name": "startTime",
          "type": "uint256"
        },
        {
          "internalType": "uint256",
          "name": "endTime",
          "type": "uint256"
        }
      ],
      "stateMutability": "view",
      "type": "function",
      "constant": true
    },
    {
      "inputs": [
        {
          "internalType": "uint256",
          "name": "stepIndex",
          "type": "uint256"
        },
        {
          "internalType": "address",
          "name": "supervisor",
          "type": "address"
        }
      ],
      "name": "assignSupervisor",
      "outputs": [],
      "stateMutability": "nonpayable",
      "type": "function"
    },
    {
      "inputs": [],
      "name": "completeStep",
      "outputs": [],
      "stateMutability": "nonpayable",
      "type": "function"
    },
    {
      "inputs": [],
      "name": "resetProcess",
      "outputs": [],
      "stateMutability": "nonpayable",
      "type": "function"
    },
    {
      "inputs": [],
      "name": "getStepsLength",
      "outputs": [
        {
          "internalType": "uint256",
          "name": "",
          "type": "uint256"
        }
      ],
      "stateMutability": "view",
      "type": "function",
      "constant": true
    },
    {
      "inputs": [
        {
          "internalType": "uint256",
          "name": "index",
          "type": "uint256"
        }
      ],
      "name": "getStep",
      "outputs": [
        {
          "internalType": "string",
          "name": "",
          "type": "string"
        },
        {
          "internalType": "address",
          "name": "",
          "type": "address"
        },
        {
          "internalType": "bool",
          "name": "",
          "type": "bool"
        },
        {
          "internalType": "uint256",
          "name": "",
          "type": "uint256"
        },
        {
          "internalType": "uint256",
          "name": "",
          "type": "uint256"
        }
      ],
      "stateMutability": "view",
      "type": "function",
      "constant": true
    },
    {
      "inputs": [],
      "name": "getCompletedStepsLength",
      "outputs": [
        {
          "internalType": "uint256",
          "name": "",
          "type": "uint256"
        }
      ],
      "stateMutability": "view",
      "type": "function",
      "constant": true
    },
    {
      "inputs": [
        {
          "internalType": "uint256",
          "name": "index",
          "type": "uint256"
        }
      ],
      "name": "getCompletedStep",
      "outputs": [
        {
          "internalType": "string",
          "name": "",
          "type": "string"
        },
        {
          "internalType": "address",
          "name": "",
          "type": "address"
        },
        {
          "internalType": "bool",
          "name": "",
          "type": "bool"
        },
        {
          "internalType": "uint256",
          "name": "",
          "type": "uint256"
        },
        {
          "internalType": "uint256",
          "name": "",
          "type": "uint256"
        }
      ],
      "stateMutability": "view",
      "type": "function",
      "constant": true
    },
    {
      "inputs": [],
      "name": "isProcessCompleted",
      "outputs": [
        {
          "internalType": "bool",
          "name": "",
          "type": "bool"
        }
      ],
      "stateMutability": "view",
      "type": "function",
      "constant": true
    }
  ],
  "bytecode": "0x60806040523480156200001157600080fd5b50620000226200002860201b60201c565b62000782565b60006040518060a001604052806040518060400160405280600881526020017f526163636f6c74610000000000000000000000000000000000000000000000008152508152602001600073ffffffffffffffffffffffffffffffffffffffff16815260200160001515815260200160008152602001600081525090806001815401808255809150506001900390600052602060002090600402016000909190919091506000820151816000019080519060200190620000e99291906200066d565b5060208201518160010160006101000a81548173ffffffffffffffffffffffffffffffffffffffff021916908373ffffffffffffffffffffffffffffffffffffffff16021790555060408201518160010160146101000a81548160ff0219169083151502179055506060820151816002015560808201518160030155505060006040518060a001604052806040518060400160405280600981526020017f54726173706f72746f00000000000000000000000000000000000000000000008152508152602001600073ffffffffffffffffffffffffffffffffffffffff16815260200160001515815260200160008152602001600081525090806001815401808255809150506001900390600052602060002090600402016000909190919091506000820151816000019080519060200190620002289291906200066d565b5060208201518160010160006101000a81548173ffffffffffffffffffffffffffffffffffffffff021916908373ffffffffffffffffffffffffffffffffffffffff16021790555060408201518160010160146101000a81548160ff0219169083151502179055506060820151816002015560808201518160030155505060006040518060a001604052806040518060400160405280600b81526020017f4c61766f72617a696f6e650000000000000000000000000000000000000000008152508152602001600073ffffffffffffffffffffffffffffffffffffffff16815260200160001515815260200160008152602001600081525090806001815401808255809150506001900390600052602060002090600402016000909190919091506000820151816000019080519060200190620003679291906200066d565b5060208201518160010160006101000a81548173ffffffffffffffffffffffffffffffffffffffff021916908373ffffffffffffffffffffffffffffffffffffffff16021790555060408201518160010160146101000a81548160ff0219169083151502179055506060820151816002015560808201518160030155505060006040518060a001604052806040518060400160405280600f81526020017f436f6e66657a696f6e616d656e746f00000000000000000000000000000000008152508152602001600073ffffffffffffffffffffffffffffffffffffffff16815260200160001515815260200160008152602001600081525090806001815401808255809150506001900390600052602060002090600402016000909190919091506000820151816000019080519060200190620004a69291906200066d565b5060208201518160010160006101000a81548173ffffffffffffffffffffffffffffffffffffffff021916908373ffffffffffffffffffffffffffffffffffffffff16021790555060408201518160010160146101000a81548160ff0219169083151502179055506060820151816002015560808201518160030155505060006040518060a001604052806040518060400160405280600d81526020017f44697374726962757a696f6e65000000000000000000000000000000000000008152508152602001600073ffffffffffffffffffffffffffffffffffffffff16815260200160001515815260200160008152602001600081525090806001815401808255809150506001900390600052602060002090600402016000909190919091506000820151816000019080519060200190620005e59291906200066d565b5060208201518160010160006101000a81548173ffffffffffffffffffffffffffffffffffffffff021916908373ffffffffffffffffffffffffffffffffffffffff16021790555060408201518160010160146101000a81548160ff021916908315150217905550606082015181600201556080820151816003015550506000600181905550565b8280546200067b906200071d565b90600052602060002090601f0160209004810192826200069f5760008555620006eb565b82601f10620006ba57805160ff1916838001178555620006eb565b82800160010185558215620006eb579182015b82811115620006ea578251825591602001919060010190620006cd565b5b509050620006fa9190620006fe565b5090565b5b8082111562000719576000816000905550600101620006ff565b5090565b600060028204905060018216806200073657607f821691505b602082108114156200074d576200074c62000753565b5b50919050565b7f4e487b7100000000000000000000000000000000000000000000000000000000600052602260045260246000fd5b611a1380620007926000396000f3fe608060405234801561001057600080fd5b50600436106100a95760003560e01c8063925c4d8f11610071578063925c4d8f1461016e5780639482eeaa146101a25780639bb64425146101c05780639f9a19d3146101ca578063c904b742146101d4578063f022f339146101f2576100a9565b8063334f45ec146100ae57806344054931146100cc5780637217e0b9146100e85780637874888a1461011c5780638b1659f514610150575b600080fd5b6100b6610226565b6040516100c3919061177e565b60405180910390f35b6100e660048036038101906100e1919061141b565b61022c565b005b61010260048036038101906100fd91906113f2565b610301565b6040516101139594939291906116a4565b60405180910390f35b610136600480360381019061013191906113f2565b6103fc565b6040516101479594939291906116a4565b60405180910390f35b61015861057b565b6040516101659190611689565b60405180910390f35b610188600480360381019061018391906113f2565b61058c565b6040516101999594939291906116a4565b60405180910390f35b6101aa610687565b6040516101b7919061177e565b60405180910390f35b6101c8610694565b005b6101d26109b8565b005b6101dc6109fb565b6040516101e9919061177e565b60405180910390f35b61020c600480360381019061020791906113f2565b610a07565b60405161021d9594939291906116a4565b60405180910390f35b60015481565b6000805490508210610273576040517f08c379a000000000000000000000000000000000000000000000000000000000815260040161026a9061171e565b60405180910390fd5b80600083815481106102ae577f4e487b7100000000000000000000000000000000000000000000000000000000600052603260045260246000fd5b906000526020600020906004020160010160006101000a81548173ffffffffffffffffffffffffffffffffffffffff021916908373ffffffffffffffffffffffffffffffffffffffff1602179055505050565b6000818154811061031157600080fd5b9060005260206000209060040201600091509050806000018054610334906118c5565b80601f0160208091040260200160405190810160405280929190818152602001828054610360906118c5565b80156103ad5780601f10610382576101008083540402835291602001916103ad565b820191906000526020600020905b81548152906001019060200180831161039057829003601f168201915b5050505050908060010160009054906101000a900473ffffffffffffffffffffffffffffffffffffffff16908060010160149054906101000a900460ff16908060020154908060030154905085565b6060600080600080600080549050861061044b576040517f08c379a00000000000000000000000000000000000000000000000000000000081526004016104429061171e565b60405180910390fd5b6000808781548110610486577f4e487b7100000000000000000000000000000000000000000000000000000000600052603260045260246000fd5b90600052602060002090600402019050806000018160010160009054906101000a900473ffffffffffffffffffffffffffffffffffffffff168260010160149054906101000a900460ff16836002015484600301548480546104e7906118c5565b80601f0160208091040260200160405190810160405280929190818152602001828054610513906118c5565b80156105605780601f1061053557610100808354040283529160200191610560565b820191906000526020600020905b81548152906001019060200180831161054357829003601f168201915b50505050509450955095509550955095505091939590929450565b600080805490506001541015905090565b6002818154811061059c57600080fd5b90600052602060002090600402016000915090508060000180546105bf906118c5565b80601f01602080910402602001604051908101604052809291908181526020018280546105eb906118c5565b80156106385780601f1061060d57610100808354040283529160200191610638565b820191906000526020600020905b81548152906001019060200180831161061b57829003601f168201915b5050505050908060010160009054906101000a900473ffffffffffffffffffffffffffffffffffffffff16908060010160149054906101000a900460ff16908060020154908060030154905085565b6000600280549050905090565b600080549050600154106106dd576040517f08c379a00000000000000000000000000000000000000000000000000000000081526004016106d49061173e565b60405180910390fd5b6000806001548154811061071a577f4e487b7100000000000000000000000000000000000000000000000000000000600052603260045260246000fd5b906000526020600020906004020190508060010160009054906101000a900473ffffffffffffffffffffffffffffffffffffffff1673ffffffffffffffffffffffffffffffffffffffff163373ffffffffffffffffffffffffffffffffffffffff16146107bc576040517f08c379a00000000000000000000000000000000000000000000000000000000081526004016107b3906116fe565b60405180910390fd5b60018160010160146101000a81548160ff021916908315150217905550428160030181905550600060015414156107fb5742816002018190555061085d565b60006001805461080b9190611816565b81548110610842577f4e487b7100000000000000000000000000000000000000000000000000000000600052603260045260246000fd5b90600052602060002090600402016003015481600201819055505b6002819080600181540180825580915050600190039060005260206000209060040201600090919091909150600082018160000190805461089d906118c5565b6108a89291906111c2565b506001820160009054906101000a900473ffffffffffffffffffffffffffffffffffffffff168160010160006101000a81548173ffffffffffffffffffffffffffffffffffffffff021916908373ffffffffffffffffffffffffffffffffffffffff1602179055506001820160149054906101000a900460ff168160010160146101000a81548160ff021916908315150217905550600282015481600201556003820154816003015550507f41b16547ca03af7fc887b0dad2d696519590da8bd8cb3f9a5b8b4087b904eac460015482600001836002015484600301546040516109959493929190611799565b60405180910390a1600160008154809291906109b0906118f7565b919050555050565b6000806109c5919061124f565b6109cd610b87565b7f52d42945e3a5657f589346719c0b4f6dc292035ec23b7d03097fc496109aff4660405160405180910390a1565b60008080549050905090565b60606000806000806002805490508610610a56576040517f08c379a0000000000000000000000000000000000000000000000000000000008152600401610a4d9061175e565b60405180910390fd5b600060028781548110610a92577f4e487b7100000000000000000000000000000000000000000000000000000000600052603260045260246000fd5b90600052602060002090600402019050806000018160010160009054906101000a900473ffffffffffffffffffffffffffffffffffffffff168260010160149054906101000a900460ff1683600201548460030154848054610af3906118c5565b80601f0160208091040260200160405190810160405280929190818152602001828054610b1f906118c5565b8015610b6c5780601f10610b4157610100808354040283529160200191610b6c565b820191906000526020600020905b815481529060010190602001808311610b4f57829003601f168201915b50505050509450955095509550955095505091939590929450565b60006040518060a001604052806040518060400160405280600881526020017f526163636f6c74610000000000000000000000000000000000000000000000008152508152602001600073ffffffffffffffffffffffffffffffffffffffff16815260200160001515815260200160008152602001600081525090806001815401808255809150506001900390600052602060002090600402016000909190919091506000820151816000019080519060200190610c46929190611273565b5060208201518160010160006101000a81548173ffffffffffffffffffffffffffffffffffffffff021916908373ffffffffffffffffffffffffffffffffffffffff16021790555060408201518160010160146101000a81548160ff0219169083151502179055506060820151816002015560808201518160030155505060006040518060a001604052806040518060400160405280600981526020017f54726173706f72746f00000000000000000000000000000000000000000000008152508152602001600073ffffffffffffffffffffffffffffffffffffffff16815260200160001515815260200160008152602001600081525090806001815401808255809150506001900390600052602060002090600402016000909190919091506000820151816000019080519060200190610d83929190611273565b5060208201518160010160006101000a81548173ffffffffffffffffffffffffffffffffffffffff021916908373ffffffffffffffffffffffffffffffffffffffff16021790555060408201518160010160146101000a81548160ff0219169083151502179055506060820151816002015560808201518160030155505060006040518060a001604052806040518060400160405280600b81526020017f4c61766f72617a696f6e650000000000000000000000000000000000000000008152508152602001600073ffffffffffffffffffffffffffffffffffffffff16815260200160001515815260200160008152602001600081525090806001815401808255809150506001900390600052602060002090600402016000909190919091506000820151816000019080519060200190610ec0929190611273565b5060208201518160010160006101000a81548173ffffffffffffffffffffffffffffffffffffffff021916908373ffffffffffffffffffffffffffffffffffffffff16021790555060408201518160010160146101000a81548160ff0219169083151502179055506060820151816002015560808201518160030155505060006040518060a001604052806040518060400160405280600f81526020017f436f6e66657a696f6e616d656e746f00000000000000000000000000000000008152508152602001600073ffffffffffffffffffffffffffffffffffffffff16815260200160001515815260200160008152602001600081525090806001815401808255809150506001900390600052602060002090600402016000909190919091506000820151816000019080519060200190610ffd929190611273565b5060208201518160010160006101000a81548173ffffffffffffffffffffffffffffffffffffffff021916908373ffffffffffffffffffffffffffffffffffffffff16021790555060408201518160010160146101000a81548160ff0219169083151502179055506060820151816002015560808201518160030155505060006040518060a001604052806040518060400160405280600d81526020017f44697374726962757a696f6e65000000000000000000000000000000000000008152508152602001600073ffffffffffffffffffffffffffffffffffffffff1681526020016000151581526020016000815260200160008152509080600181540180825580915050600190039060005260206000209060040201600090919091909150600082015181600001908051906020019061113a929190611273565b5060208201518160010160006101000a81548173ffffffffffffffffffffffffffffffffffffffff021916908373ffffffffffffffffffffffffffffffffffffffff16021790555060408201518160010160146101000a81548160ff021916908315150217905550606082015181600201556080820151816003015550506000600181905550565b8280546111ce906118c5565b90600052602060002090601f0160209004810192826111f0576000855561123e565b82601f10611201578054855561123e565b8280016001018555821561123e57600052602060002091601f016020900482015b8281111561123d578254825591600101919060010190611222565b5b50905061124b91906112f9565b5090565b50805460008255600402906000526020600020908101906112709190611316565b50565b82805461127f906118c5565b90600052602060002090601f0160209004810192826112a157600085556112e8565b82601f106112ba57805160ff19168380011785556112e8565b828001600101855582156112e8579182015b828111156112e75782518255916020019190600101906112cc565b5b5090506112f591906112f9565b5090565b5b808211156113125760008160009055506001016112fa565b5090565b5b8082111561138457600080820160006113309190611388565b6001820160006101000a81549073ffffffffffffffffffffffffffffffffffffffff02191690556001820160146101000a81549060ff02191690556002820160009055600382016000905550600401611317565b5090565b508054611394906118c5565b6000825580601f106113a657506113c5565b601f0160209004906000526020600020908101906113c491906112f9565b5b50565b6000813590506113d7816119af565b92915050565b6000813590506113ec816119c6565b92915050565b60006020828403121561140457600080fd5b6000611412848285016113dd565b91505092915050565b6000806040838503121561142e57600080fd5b600061143c858286016113dd565b925050602061144d858286016113c8565b9150509250929050565b6114608161184a565b82525050565b61146f8161185c565b82525050565b6000611480826117fa565b61148a8185611805565b935061149a818560208601611892565b6114a38161199e565b840191505092915050565b600081546114bb816118c5565b6114c58186611805565b945060018216600081146114e057600181146114f257611525565b60ff1983168652602086019350611525565b6114fb856117e5565b60005b8381101561151d578154818901526001820191506020810190506114fe565b808801955050505b50505092915050565b600061153b602e83611805565b91507f4f6e6c792061737369676e65642073757065727669736f722063616e20636f6d60008301527f706c6574652074686520737465700000000000000000000000000000000000006020830152604082019050919050565b60006115a1601783611805565b91507f5374657020696e646578206f7574206f662072616e67650000000000000000006000830152602082019050919050565b60006115e1601f83611805565b91507f416c6c2073746570732061726520616c726561647920636f6d706c65746564006000830152602082019050919050565b6000611621602183611805565b91507f436f6d706c65746564207374657020696e646578206f7574206f662072616e6760008301527f65000000000000000000000000000000000000000000000000000000000000006020830152604082019050919050565b61168381611888565b82525050565b600060208201905061169e6000830184611466565b92915050565b600060a08201905081810360008301526116be8188611475565b90506116cd6020830187611457565b6116da6040830186611466565b6116e7606083018561167a565b6116f4608083018461167a565b9695505050505050565b600060208201905081810360008301526117178161152e565b9050919050565b6000602082019050818103600083015261173781611594565b9050919050565b60006020820190508181036000830152611757816115d4565b9050919050565b6000602082019050818103600083015261177781611614565b9050919050565b6000602082019050611793600083018461167a565b92915050565b60006080820190506117ae600083018761167a565b81810360208301526117c081866114ae565b90506117cf604083018561167a565b6117dc606083018461167a565b95945050505050565b60008190508160005260206000209050919050565b600081519050919050565b600082825260208201905092915050565b600061182182611888565b915061182c83611888565b92508282101561183f5761183e611940565b5b828203905092915050565b600061185582611868565b9050919050565b60008115159050919050565b600073ffffffffffffffffffffffffffffffffffffffff82169050919050565b6000819050919050565b60005b838110156118b0578082015181840152602081019050611895565b838111156118bf576000848401525b50505050565b600060028204905060018216806118dd57607f821691505b602082108114156118f1576118f061196f565b5b50919050565b600061190282611888565b91507fffffffffffffffffffffffffffffffffffffffffffffffffffffffffffffffff82141561193557611934611940565b5b600182019050919050565b7f4e487b7100000000000000000000000000000000000000000000000000000000600052601160045260246000fd5b7f4e487b7100000000000000000000000000000000000000000000000000000000600052602260045260246000fd5b6000601f19601f8301169050919050565b6119b88161184a565b81146119c357600080fd5b50565b6119cf81611888565b81146119da57600080fd5b5056fea264697066735822122021d7df59af4fee869dfe04d9759f3870fa522b5ae7f8a18adcd428bbad773c0d64736f6c63430008000033",
  "immutableReferences": {},
  "source": "// SPDX-License-Identifier: MIT\r\npragma solidity ^0.8.0;\r\n\r\ncontract MilkChain {\r\n    struct Step {\r\n        string name;\r\n        address supervisor;\r\n        bool completed;\r\n        uint startTime;\r\n        uint endTime;\r\n    }\r\n\r\n    Step[] public steps;\r\n    uint public currentStepIndex;\r\n    Step[] public completedSteps;\r\n\r\n    event StepCompleted(uint stepIndex, string name, uint startTime, uint endTime);\r\n    event ProcessReset();\r\n\r\n    constructor() {\r\n        initializeSteps();\r\n    }\r\n\r\n    function initializeSteps() internal {\r\n        steps.push(Step(\"Raccolta\", address(0), false, 0, 0));\r\n        steps.push(Step(\"Trasporto\", address(0), false, 0, 0));\r\n        steps.push(Step(\"Lavorazione\", address(0), false, 0, 0));\r\n        steps.push(Step(\"Confezionamento\", address(0), false, 0, 0));\r\n        steps.push(Step(\"Distribuzione\", address(0), false, 0, 0));\r\n        currentStepIndex = 0;\r\n    }\r\n\r\n    function assignSupervisor(uint stepIndex, address supervisor) public {\r\n        require(stepIndex < steps.length, \"Step index out of range\");\r\n        steps[stepIndex].supervisor = supervisor;\r\n    }\r\n\r\n    function completeStep() public {\r\n        require(currentStepIndex < steps.length, \"All steps are already completed\");\r\n        Step storage step = steps[currentStepIndex];\r\n        require(msg.sender == step.supervisor, \"Only assigned supervisor can complete the step\");\r\n        step.completed = true;\r\n        step.endTime = block.timestamp;\r\n\r\n        if (currentStepIndex == 0) {\r\n            step.startTime = block.timestamp;\r\n        } else {\r\n            step.startTime = steps[currentStepIndex - 1].endTime;\r\n        }\r\n\r\n        completedSteps.push(step);\r\n\r\n        emit StepCompleted(currentStepIndex, step.name, step.startTime, step.endTime);\r\n        currentStepIndex++;\r\n    }\r\n\r\n    function resetProcess() public {\r\n        delete steps;\r\n        initializeSteps();\r\n        emit ProcessReset();\r\n    }\r\n\r\n    function getStepsLength() public view returns (uint) {\r\n        return steps.length;\r\n    }\r\n\r\n    function getStep(uint index) public view returns (string memory, address, bool, uint, uint) {\r\n        require(index < steps.length, \"Step index out of range\");\r\n        Step storage step = steps[index];\r\n        return (step.name, step.supervisor, step.completed, step.startTime, step.endTime);\r\n    }\r\n\r\n    function getCompletedStepsLength() public view returns (uint) {\r\n        return completedSteps.length;\r\n    }\r\n\r\n    function getCompletedStep(uint index) public view returns (string memory, address, bool, uint, uint) {\r\n        require(index < completedSteps.length, \"Completed step index out of range\");\r\n        Step storage step = completedSteps[index];\r\n        return (step.name, step.supervisor, step.completed, step.startTime, step.endTime);\r\n    }\r\n\r\n    function isProcessCompleted() public view returns (bool) {\r\n        return currentStepIndex >= steps.length;\r\n    }\r\n}",
  "sourcePath": "C:\\Users\\samue\\Desktop\\MilkChain\\backend\\contracts\\MilkChain.sol",
  "compiler": {
    "name": "solc",
    "version": "0.8.0+commit.c7dfd78e.Emscripten.clang"
  },
  "schemaVersion": "3.4.16",
  "updatedAt": "2024-06-23T23:57:39.883Z",
  "networkType": "ethereum",
  "devdoc": {
    "kind": "dev",
    "methods": {},
    "version": 1
  },
  "userdoc": {
    "kind": "user",
    "methods": {},
    "version": 1
  }
}