{
  "contractName": "MilkChain",
  "abi": [
    {
      "inputs": [],
      "stateMutability": "nonpayable",
      "type": "constructor"
    },
    {
      "anonymous": false,
      "inputs": [],
      "name": "ProcessReset",
      "type": "event"
    },
    {
      "anonymous": false,
      "inputs": [
        {
          "indexed": false,
          "internalType": "uint256",
          "name": "stepIndex",
          "type": "uint256"
        },
        {
          "indexed": false,
          "internalType": "string",
          "name": "name",
          "type": "string"
        },
        {
          "indexed": false,
          "internalType": "uint256",
          "name": "endTime",
          "type": "uint256"
        }
      ],
      "name": "StepCompleted",
      "type": "event"
    },
    {
      "inputs": [
        {
          "internalType": "uint256",
          "name": "",
          "type": "uint256"
        }
      ],
      "name": "completedSteps",
      "outputs": [
        {
          "internalType": "string",
          "name": "name",
          "type": "string"
        },
        {
          "internalType": "address",
          "name": "supervisor",
          "type": "address"
        },
        {
          "internalType": "bool",
          "name": "completed",
          "type": "bool"
        },
        {
          "internalType": "uint256",
          "name": "startTime",
          "type": "uint256"
        },
        {
          "internalType": "uint256",
          "name": "endTime",
          "type": "uint256"
        }
      ],
      "stateMutability": "view",
      "type": "function",
      "constant": true
    },
    {
      "inputs": [],
      "name": "currentStepIndex",
      "outputs": [
        {
          "internalType": "uint256",
          "name": "",
          "type": "uint256"
        }
      ],
      "stateMutability": "view",
      "type": "function",
      "constant": true
    },
    {
      "inputs": [
        {
          "internalType": "uint256",
          "name": "",
          "type": "uint256"
        }
      ],
      "name": "steps",
      "outputs": [
        {
          "internalType": "string",
          "name": "name",
          "type": "string"
        },
        {
          "internalType": "address",
          "name": "supervisor",
          "type": "address"
        },
        {
          "internalType": "bool",
          "name": "completed",
          "type": "bool"
        },
        {
          "internalType": "uint256",
          "name": "startTime",
          "type": "uint256"
        },
        {
          "internalType": "uint256",
          "name": "endTime",
          "type": "uint256"
        }
      ],
      "stateMutability": "view",
      "type": "function",
      "constant": true
    },
    {
      "inputs": [
        {
          "internalType": "uint256",
          "name": "stepIndex",
          "type": "uint256"
        },
        {
          "internalType": "address",
          "name": "supervisor",
          "type": "address"
        }
      ],
      "name": "assignSupervisor",
      "outputs": [],
      "stateMutability": "nonpayable",
      "type": "function"
    },
    {
      "inputs": [],
      "name": "completeStep",
      "outputs": [],
      "stateMutability": "nonpayable",
      "type": "function"
    },
    {
      "inputs": [],
      "name": "resetProcess",
      "outputs": [],
      "stateMutability": "nonpayable",
      "type": "function"
    },
    {
      "inputs": [],
      "name": "getStepsLength",
      "outputs": [
        {
          "internalType": "uint256",
          "name": "",
          "type": "uint256"
        }
      ],
      "stateMutability": "view",
      "type": "function",
      "constant": true
    },
    {
      "inputs": [
        {
          "internalType": "uint256",
          "name": "index",
          "type": "uint256"
        }
      ],
      "name": "getStep",
      "outputs": [
        {
          "internalType": "string",
          "name": "",
          "type": "string"
        },
        {
          "internalType": "address",
          "name": "",
          "type": "address"
        },
        {
          "internalType": "bool",
          "name": "",
          "type": "bool"
        },
        {
          "internalType": "uint256",
          "name": "",
          "type": "uint256"
        },
        {
          "internalType": "uint256",
          "name": "",
          "type": "uint256"
        }
      ],
      "stateMutability": "view",
      "type": "function",
      "constant": true
    },
    {
      "inputs": [],
      "name": "getCompletedStepsLength",
      "outputs": [
        {
          "internalType": "uint256",
          "name": "",
          "type": "uint256"
        }
      ],
      "stateMutability": "view",
      "type": "function",
      "constant": true
    },
    {
      "inputs": [
        {
          "internalType": "uint256",
          "name": "index",
          "type": "uint256"
        }
      ],
      "name": "getCompletedStep",
      "outputs": [
        {
          "internalType": "string",
          "name": "",
          "type": "string"
        },
        {
          "internalType": "address",
          "name": "",
          "type": "address"
        },
        {
          "internalType": "bool",
          "name": "",
          "type": "bool"
        },
        {
          "internalType": "uint256",
          "name": "",
          "type": "uint256"
        },
        {
          "internalType": "uint256",
          "name": "",
          "type": "uint256"
        }
      ],
      "stateMutability": "view",
      "type": "function",
      "constant": true
    },
    {
      "inputs": [],
      "name": "isProcessCompleted",
      "outputs": [
        {
          "internalType": "bool",
          "name": "",
          "type": "bool"
        }
      ],
      "stateMutability": "view",
      "type": "function",
      "constant": true
    }
  ],
  "bytecode": "0x60806040523480156200001157600080fd5b50620000226200002860201b60201c565b62000782565b60006040518060a001604052806040518060400160405280600881526020017f526163636f6c74610000000000000000000000000000000000000000000000008152508152602001600073ffffffffffffffffffffffffffffffffffffffff16815260200160001515815260200160008152602001600081525090806001815401808255809150506001900390600052602060002090600402016000909190919091506000820151816000019080519060200190620000e99291906200066d565b5060208201518160010160006101000a81548173ffffffffffffffffffffffffffffffffffffffff021916908373ffffffffffffffffffffffffffffffffffffffff16021790555060408201518160010160146101000a81548160ff0219169083151502179055506060820151816002015560808201518160030155505060006040518060a001604052806040518060400160405280600981526020017f54726173706f72746f00000000000000000000000000000000000000000000008152508152602001600073ffffffffffffffffffffffffffffffffffffffff16815260200160001515815260200160008152602001600081525090806001815401808255809150506001900390600052602060002090600402016000909190919091506000820151816000019080519060200190620002289291906200066d565b5060208201518160010160006101000a81548173ffffffffffffffffffffffffffffffffffffffff021916908373ffffffffffffffffffffffffffffffffffffffff16021790555060408201518160010160146101000a81548160ff0219169083151502179055506060820151816002015560808201518160030155505060006040518060a001604052806040518060400160405280600b81526020017f4c61766f72617a696f6e650000000000000000000000000000000000000000008152508152602001600073ffffffffffffffffffffffffffffffffffffffff16815260200160001515815260200160008152602001600081525090806001815401808255809150506001900390600052602060002090600402016000909190919091506000820151816000019080519060200190620003679291906200066d565b5060208201518160010160006101000a81548173ffffffffffffffffffffffffffffffffffffffff021916908373ffffffffffffffffffffffffffffffffffffffff16021790555060408201518160010160146101000a81548160ff0219169083151502179055506060820151816002015560808201518160030155505060006040518060a001604052806040518060400160405280600f81526020017f436f6e66657a696f6e616d656e746f00000000000000000000000000000000008152508152602001600073ffffffffffffffffffffffffffffffffffffffff16815260200160001515815260200160008152602001600081525090806001815401808255809150506001900390600052602060002090600402016000909190919091506000820151816000019080519060200190620004a69291906200066d565b5060208201518160010160006101000a81548173ffffffffffffffffffffffffffffffffffffffff021916908373ffffffffffffffffffffffffffffffffffffffff16021790555060408201518160010160146101000a81548160ff0219169083151502179055506060820151816002015560808201518160030155505060006040518060a001604052806040518060400160405280600d81526020017f44697374726962757a696f6e65000000000000000000000000000000000000008152508152602001600073ffffffffffffffffffffffffffffffffffffffff16815260200160001515815260200160008152602001600081525090806001815401808255809150506001900390600052602060002090600402016000909190919091506000820151816000019080519060200190620005e59291906200066d565b5060208201518160010160006101000a81548173ffffffffffffffffffffffffffffffffffffffff021916908373ffffffffffffffffffffffffffffffffffffffff16021790555060408201518160010160146101000a81548160ff021916908315150217905550606082015181600201556080820151816003015550506000600181905550565b8280546200067b906200071d565b90600052602060002090601f0160209004810192826200069f5760008555620006eb565b82601f10620006ba57805160ff1916838001178555620006eb565b82800160010185558215620006eb579182015b82811115620006ea578251825591602001919060010190620006cd565b5b509050620006fa9190620006fe565b5090565b5b8082111562000719576000816000905550600101620006ff565b5090565b600060028204905060018216806200073657607f821691505b602082108114156200074d576200074c62000753565b5b50919050565b7f4e487b7100000000000000000000000000000000000000000000000000000000600052602260045260246000fd5b61195080620007926000396000f3fe608060405234801561001057600080fd5b50600436106100a95760003560e01c8063925c4d8f11610071578063925c4d8f1461016e5780639482eeaa146101a25780639bb64425146101c05780639f9a19d3146101ca578063c904b742146101d4578063f022f339146101f2576100a9565b8063334f45ec146100ae57806344054931146100cc5780637217e0b9146100e85780637874888a1461011c5780638b1659f514610150575b600080fd5b6100b6610226565b6040516100c391906116fd565b60405180910390f35b6100e660048036038101906100e1919061139a565b61022c565b005b61010260048036038101906100fd9190611371565b610301565b604051610113959493929190611623565b60405180910390f35b61013660048036038101906101319190611371565b6103fc565b604051610147959493929190611623565b60405180910390f35b61015861057b565b6040516101659190611608565b60405180910390f35b61018860048036038101906101839190611371565b61058c565b604051610199959493929190611623565b60405180910390f35b6101aa610687565b6040516101b791906116fd565b60405180910390f35b6101c8610694565b005b6101d2610937565b005b6101dc61097a565b6040516101e991906116fd565b60405180910390f35b61020c60048036038101906102079190611371565b610986565b60405161021d959493929190611623565b60405180910390f35b60015481565b6000805490508210610273576040517f08c379a000000000000000000000000000000000000000000000000000000000815260040161026a9061169d565b60405180910390fd5b80600083815481106102ae577f4e487b7100000000000000000000000000000000000000000000000000000000600052603260045260246000fd5b906000526020600020906004020160010160006101000a81548173ffffffffffffffffffffffffffffffffffffffff021916908373ffffffffffffffffffffffffffffffffffffffff1602179055505050565b6000818154811061031157600080fd5b906000526020600020906004020160009150905080600001805461033490611802565b80601f016020809104026020016040519081016040528092919081815260200182805461036090611802565b80156103ad5780601f10610382576101008083540402835291602001916103ad565b820191906000526020600020905b81548152906001019060200180831161039057829003601f168201915b5050505050908060010160009054906101000a900473ffffffffffffffffffffffffffffffffffffffff16908060010160149054906101000a900460ff16908060020154908060030154905085565b6060600080600080600080549050861061044b576040517f08c379a00000000000000000000000000000000000000000000000000000000081526004016104429061169d565b60405180910390fd5b6000808781548110610486577f4e487b7100000000000000000000000000000000000000000000000000000000600052603260045260246000fd5b90600052602060002090600402019050806000018160010160009054906101000a900473ffffffffffffffffffffffffffffffffffffffff168260010160149054906101000a900460ff16836002015484600301548480546104e790611802565b80601f016020809104026020016040519081016040528092919081815260200182805461051390611802565b80156105605780601f1061053557610100808354040283529160200191610560565b820191906000526020600020905b81548152906001019060200180831161054357829003601f168201915b50505050509450955095509550955095505091939590929450565b600080805490506001541015905090565b6002818154811061059c57600080fd5b90600052602060002090600402016000915090508060000180546105bf90611802565b80601f01602080910402602001604051908101604052809291908181526020018280546105eb90611802565b80156106385780601f1061060d57610100808354040283529160200191610638565b820191906000526020600020905b81548152906001019060200180831161061b57829003601f168201915b5050505050908060010160009054906101000a900473ffffffffffffffffffffffffffffffffffffffff16908060010160149054906101000a900460ff16908060020154908060030154905085565b6000600280549050905090565b600080549050600154106106dd576040517f08c379a00000000000000000000000000000000000000000000000000000000081526004016106d4906116bd565b60405180910390fd5b6000806001548154811061071a577f4e487b7100000000000000000000000000000000000000000000000000000000600052603260045260246000fd5b906000526020600020906004020190508060010160009054906101000a900473ffffffffffffffffffffffffffffffffffffffff1673ffffffffffffffffffffffffffffffffffffffff163373ffffffffffffffffffffffffffffffffffffffff16146107bc576040517f08c379a00000000000000000000000000000000000000000000000000000000081526004016107b39061167d565b60405180910390fd5b60018160010160146101000a81548160ff0219169083151502179055504281600301819055506002819080600181540180825580915050600190039060005260206000209060040201600090919091909150600082018160000190805461082290611802565b61082d929190611141565b506001820160009054906101000a900473ffffffffffffffffffffffffffffffffffffffff168160010160006101000a81548173ffffffffffffffffffffffffffffffffffffffff021916908373ffffffffffffffffffffffffffffffffffffffff1602179055506001820160149054906101000a900460ff168160010160146101000a81548160ff021916908315150217905550600282015481600201556003820154816003015550507f91f0b878c8898462835a832e915c3b68a4973ba2e22c1200709419e850857e1c60015482600001836003015460405161091493929190611718565b60405180910390a16001600081548092919061092f90611834565b919050555050565b60008061094491906111ce565b61094c610b06565b7f52d42945e3a5657f589346719c0b4f6dc292035ec23b7d03097fc496109aff4660405160405180910390a1565b60008080549050905090565b606060008060008060028054905086106109d5576040517f08c379a00000000000000000000000000000000000000000000000000000000081526004016109cc906116dd565b60405180910390fd5b600060028781548110610a11577f4e487b7100000000000000000000000000000000000000000000000000000000600052603260045260246000fd5b90600052602060002090600402019050806000018160010160009054906101000a900473ffffffffffffffffffffffffffffffffffffffff168260010160149054906101000a900460ff1683600201548460030154848054610a7290611802565b80601f0160208091040260200160405190810160405280929190818152602001828054610a9e90611802565b8015610aeb5780601f10610ac057610100808354040283529160200191610aeb565b820191906000526020600020905b815481529060010190602001808311610ace57829003601f168201915b50505050509450955095509550955095505091939590929450565b60006040518060a001604052806040518060400160405280600881526020017f526163636f6c74610000000000000000000000000000000000000000000000008152508152602001600073ffffffffffffffffffffffffffffffffffffffff16815260200160001515815260200160008152602001600081525090806001815401808255809150506001900390600052602060002090600402016000909190919091506000820151816000019080519060200190610bc59291906111f2565b5060208201518160010160006101000a81548173ffffffffffffffffffffffffffffffffffffffff021916908373ffffffffffffffffffffffffffffffffffffffff16021790555060408201518160010160146101000a81548160ff0219169083151502179055506060820151816002015560808201518160030155505060006040518060a001604052806040518060400160405280600981526020017f54726173706f72746f00000000000000000000000000000000000000000000008152508152602001600073ffffffffffffffffffffffffffffffffffffffff16815260200160001515815260200160008152602001600081525090806001815401808255809150506001900390600052602060002090600402016000909190919091506000820151816000019080519060200190610d029291906111f2565b5060208201518160010160006101000a81548173ffffffffffffffffffffffffffffffffffffffff021916908373ffffffffffffffffffffffffffffffffffffffff16021790555060408201518160010160146101000a81548160ff0219169083151502179055506060820151816002015560808201518160030155505060006040518060a001604052806040518060400160405280600b81526020017f4c61766f72617a696f6e650000000000000000000000000000000000000000008152508152602001600073ffffffffffffffffffffffffffffffffffffffff16815260200160001515815260200160008152602001600081525090806001815401808255809150506001900390600052602060002090600402016000909190919091506000820151816000019080519060200190610e3f9291906111f2565b5060208201518160010160006101000a81548173ffffffffffffffffffffffffffffffffffffffff021916908373ffffffffffffffffffffffffffffffffffffffff16021790555060408201518160010160146101000a81548160ff0219169083151502179055506060820151816002015560808201518160030155505060006040518060a001604052806040518060400160405280600f81526020017f436f6e66657a696f6e616d656e746f00000000000000000000000000000000008152508152602001600073ffffffffffffffffffffffffffffffffffffffff16815260200160001515815260200160008152602001600081525090806001815401808255809150506001900390600052602060002090600402016000909190919091506000820151816000019080519060200190610f7c9291906111f2565b5060208201518160010160006101000a81548173ffffffffffffffffffffffffffffffffffffffff021916908373ffffffffffffffffffffffffffffffffffffffff16021790555060408201518160010160146101000a81548160ff0219169083151502179055506060820151816002015560808201518160030155505060006040518060a001604052806040518060400160405280600d81526020017f44697374726962757a696f6e65000000000000000000000000000000000000008152508152602001600073ffffffffffffffffffffffffffffffffffffffff168152602001600015158152602001600081526020016000815250908060018154018082558091505060019003906000526020600020906004020160009091909190915060008201518160000190805190602001906110b99291906111f2565b5060208201518160010160006101000a81548173ffffffffffffffffffffffffffffffffffffffff021916908373ffffffffffffffffffffffffffffffffffffffff16021790555060408201518160010160146101000a81548160ff021916908315150217905550606082015181600201556080820151816003015550506000600181905550565b82805461114d90611802565b90600052602060002090601f01602090048101928261116f57600085556111bd565b82601f1061118057805485556111bd565b828001600101855582156111bd57600052602060002091601f016020900482015b828111156111bc5782548255916001019190600101906111a1565b5b5090506111ca9190611278565b5090565b50805460008255600402906000526020600020908101906111ef9190611295565b50565b8280546111fe90611802565b90600052602060002090601f0160209004810192826112205760008555611267565b82601f1061123957805160ff1916838001178555611267565b82800160010185558215611267579182015b8281111561126657825182559160200191906001019061124b565b5b5090506112749190611278565b5090565b5b80821115611291576000816000905550600101611279565b5090565b5b8082111561130357600080820160006112af9190611307565b6001820160006101000a81549073ffffffffffffffffffffffffffffffffffffffff02191690556001820160146101000a81549060ff02191690556002820160009055600382016000905550600401611296565b5090565b50805461131390611802565b6000825580601f106113255750611344565b601f0160209004906000526020600020908101906113439190611278565b5b50565b600081359050611356816118ec565b92915050565b60008135905061136b81611903565b92915050565b60006020828403121561138357600080fd5b60006113918482850161135c565b91505092915050565b600080604083850312156113ad57600080fd5b60006113bb8582860161135c565b92505060206113cc85828601611347565b9150509250929050565b6113df81611787565b82525050565b6113ee81611799565b82525050565b60006113ff8261176b565b6114098185611776565b93506114198185602086016117cf565b611422816118db565b840191505092915050565b6000815461143a81611802565b6114448186611776565b9450600182166000811461145f5760018114611471576114a4565b60ff19831686526020860193506114a4565b61147a85611756565b60005b8381101561149c5781548189015260018201915060208101905061147d565b808801955050505b50505092915050565b60006114ba602e83611776565b91507f4f6e6c792061737369676e65642073757065727669736f722063616e20636f6d60008301527f706c6574652074686520737465700000000000000000000000000000000000006020830152604082019050919050565b6000611520601783611776565b91507f5374657020696e646578206f7574206f662072616e67650000000000000000006000830152602082019050919050565b6000611560601f83611776565b91507f416c6c2073746570732061726520616c726561647920636f6d706c65746564006000830152602082019050919050565b60006115a0602183611776565b91507f436f6d706c65746564207374657020696e646578206f7574206f662072616e6760008301527f65000000000000000000000000000000000000000000000000000000000000006020830152604082019050919050565b611602816117c5565b82525050565b600060208201905061161d60008301846113e5565b92915050565b600060a082019050818103600083015261163d81886113f4565b905061164c60208301876113d6565b61165960408301866113e5565b61166660608301856115f9565b61167360808301846115f9565b9695505050505050565b60006020820190508181036000830152611696816114ad565b9050919050565b600060208201905081810360008301526116b681611513565b9050919050565b600060208201905081810360008301526116d681611553565b9050919050565b600060208201905081810360008301526116f681611593565b9050919050565b600060208201905061171260008301846115f9565b92915050565b600060608201905061172d60008301866115f9565b818103602083015261173f818561142d565b905061174e60408301846115f9565b949350505050565b60008190508160005260206000209050919050565b600081519050919050565b600082825260208201905092915050565b6000611792826117a5565b9050919050565b60008115159050919050565b600073ffffffffffffffffffffffffffffffffffffffff82169050919050565b6000819050919050565b60005b838110156117ed5780820151818401526020810190506117d2565b838111156117fc576000848401525b50505050565b6000600282049050600182168061181a57607f821691505b6020821081141561182e5761182d6118ac565b5b50919050565b600061183f826117c5565b91507fffffffffffffffffffffffffffffffffffffffffffffffffffffffffffffffff8214156118725761187161187d565b5b600182019050919050565b7f4e487b7100000000000000000000000000000000000000000000000000000000600052601160045260246000fd5b7f4e487b7100000000000000000000000000000000000000000000000000000000600052602260045260246000fd5b6000601f19601f8301169050919050565b6118f581611787565b811461190057600080fd5b50565b61190c816117c5565b811461191757600080fd5b5056fea26469706673582212202b3b853ea798df64c416ec7849dad3af5412ebb12ec77153df09657d19082e7264736f6c63430008000033",
  "immutableReferences": {},
  "source": "// SPDX-License-Identifier: MIT\r\npragma solidity ^0.8.0;\r\n\r\ncontract MilkChain {\r\n    struct Step {\r\n        string name;\r\n        address supervisor;\r\n        bool completed;\r\n        uint startTime;\r\n        uint endTime;\r\n    }\r\n\r\n    Step[] public steps;\r\n    uint public currentStepIndex;\r\n    Step[] public completedSteps;\r\n\r\n    event StepCompleted(uint stepIndex, string name, uint endTime);\r\n    event ProcessReset();\r\n\r\n    constructor() {\r\n        initializeSteps();\r\n    }\r\n\r\n    function initializeSteps() internal {\r\n        steps.push(Step(\"Raccolta\", address(0), false, 0, 0));\r\n        steps.push(Step(\"Trasporto\", address(0), false, 0, 0));\r\n        steps.push(Step(\"Lavorazione\", address(0), false, 0, 0));\r\n        steps.push(Step(\"Confezionamento\", address(0), false, 0, 0));\r\n        steps.push(Step(\"Distribuzione\", address(0), false, 0, 0));\r\n        currentStepIndex = 0;\r\n    }\r\n\r\n    function assignSupervisor(uint stepIndex, address supervisor) public {\r\n        require(stepIndex < steps.length, \"Step index out of range\");\r\n        steps[stepIndex].supervisor = supervisor;\r\n    }\r\n\r\n    function completeStep() public {\r\n        require(currentStepIndex < steps.length, \"All steps are already completed\");\r\n        Step storage step = steps[currentStepIndex];\r\n        require(msg.sender == step.supervisor, \"Only assigned supervisor can complete the step\");\r\n        step.completed = true;\r\n        step.endTime = block.timestamp;\r\n\r\n        completedSteps.push(step);\r\n\r\n        emit StepCompleted(currentStepIndex, step.name, step.endTime);\r\n        currentStepIndex++;\r\n    }\r\n\r\n    function resetProcess() public {\r\n        delete steps;\r\n        initializeSteps();\r\n        emit ProcessReset();\r\n    }\r\n\r\n    function getStepsLength() public view returns (uint) {\r\n        return steps.length;\r\n    }\r\n\r\n    function getStep(uint index) public view returns (string memory, address, bool, uint, uint) {\r\n        require(index < steps.length, \"Step index out of range\");\r\n        Step storage step = steps[index];\r\n        return (step.name, step.supervisor, step.completed, step.startTime, step.endTime);\r\n    }\r\n\r\n    function getCompletedStepsLength() public view returns (uint) {\r\n        return completedSteps.length;\r\n    }\r\n\r\n    function getCompletedStep(uint index) public view returns (string memory, address, bool, uint, uint) {\r\n        require(index < completedSteps.length, \"Completed step index out of range\");\r\n        Step storage step = completedSteps[index];\r\n        return (step.name, step.supervisor, step.completed, step.startTime, step.endTime);\r\n    }\r\n\r\n    function isProcessCompleted() public view returns (bool) {\r\n        return currentStepIndex >= steps.length;\r\n    }\r\n}",
  "sourcePath": "C:\\Users\\samue\\Desktop\\MilkChain\\backend\\contracts\\MilkChain.sol",
  "compiler": {
    "name": "solc",
    "version": "0.8.0+commit.c7dfd78e.Emscripten.clang"
  },
  "schemaVersion": "3.4.16",
  "updatedAt": "2024-06-23T23:52:35.089Z",
  "networkType": "ethereum",
  "devdoc": {
    "kind": "dev",
    "methods": {},
    "version": 1
  },
  "userdoc": {
    "kind": "user",
    "methods": {},
    "version": 1
  }
}