{
  "contractName": "MilkChain",
  "abi": [
    {
      "inputs": [],
      "stateMutability": "nonpayable",
      "type": "constructor"
    },
    {
      "inputs": [],
      "name": "currentLotNumber",
      "outputs": [
        {
          "internalType": "uint256",
          "name": "",
          "type": "uint256"
        }
      ],
      "stateMutability": "view",
      "type": "function",
      "constant": true
    },
    {
      "inputs": [],
      "name": "owner",
      "outputs": [
        {
          "internalType": "address",
          "name": "",
          "type": "address"
        }
      ],
      "stateMutability": "view",
      "type": "function",
      "constant": true
    },
    {
      "inputs": [
        {
          "internalType": "uint256",
          "name": "",
          "type": "uint256"
        }
      ],
      "name": "processes",
      "outputs": [
        {
          "internalType": "uint256",
          "name": "currentStepIndex",
          "type": "uint256"
        },
        {
          "internalType": "uint256",
          "name": "lotNumber",
          "type": "uint256"
        }
      ],
      "stateMutability": "view",
      "type": "function",
      "constant": true
    },
    {
      "inputs": [
        {
          "internalType": "address",
          "name": "",
          "type": "address"
        }
      ],
      "name": "roles",
      "outputs": [
        {
          "internalType": "enum MilkChain.Role",
          "name": "",
          "type": "uint8"
        }
      ],
      "stateMutability": "view",
      "type": "function",
      "constant": true
    },
    {
      "inputs": [],
      "name": "createNewProcess",
      "outputs": [],
      "stateMutability": "nonpayable",
      "type": "function"
    },
    {
      "inputs": [
        {
          "internalType": "uint256",
          "name": "lotNumber",
          "type": "uint256"
        },
        {
          "internalType": "uint256",
          "name": "stepIndex",
          "type": "uint256"
        },
        {
          "internalType": "address",
          "name": "supervisor",
          "type": "address"
        }
      ],
      "name": "assignSupervisor",
      "outputs": [],
      "stateMutability": "nonpayable",
      "type": "function"
    },
    {
      "inputs": [
        {
          "internalType": "uint256",
          "name": "lotNumber",
          "type": "uint256"
        },
        {
          "internalType": "string",
          "name": "_location",
          "type": "string"
        }
      ],
      "name": "completeStep",
      "outputs": [],
      "stateMutability": "nonpayable",
      "type": "function"
    },
    {
      "inputs": [
        {
          "internalType": "uint256",
          "name": "lotNumber",
          "type": "uint256"
        }
      ],
      "name": "isProcessCompleted",
      "outputs": [
        {
          "internalType": "bool",
          "name": "",
          "type": "bool"
        }
      ],
      "stateMutability": "view",
      "type": "function",
      "constant": true
    },
    {
      "inputs": [
        {
          "internalType": "uint256",
          "name": "lotNumber",
          "type": "uint256"
        }
      ],
      "name": "getStepsLength",
      "outputs": [
        {
          "internalType": "uint256",
          "name": "",
          "type": "uint256"
        }
      ],
      "stateMutability": "view",
      "type": "function",
      "constant": true
    },
    {
      "inputs": [
        {
          "internalType": "uint256",
          "name": "lotNumber",
          "type": "uint256"
        },
        {
          "internalType": "uint256",
          "name": "index",
          "type": "uint256"
        }
      ],
      "name": "getStep",
      "outputs": [
        {
          "internalType": "string",
          "name": "",
          "type": "string"
        },
        {
          "internalType": "address",
          "name": "",
          "type": "address"
        },
        {
          "internalType": "bool",
          "name": "",
          "type": "bool"
        },
        {
          "internalType": "uint256",
          "name": "",
          "type": "uint256"
        },
        {
          "internalType": "uint256",
          "name": "",
          "type": "uint256"
        },
        {
          "internalType": "string",
          "name": "",
          "type": "string"
        },
        {
          "internalType": "uint256",
          "name": "",
          "type": "uint256"
        }
      ],
      "stateMutability": "view",
      "type": "function",
      "constant": true
    },
    {
      "inputs": [
        {
          "internalType": "uint256",
          "name": "lotNumber",
          "type": "uint256"
        }
      ],
      "name": "getCurrentStepIndex",
      "outputs": [
        {
          "internalType": "uint256",
          "name": "",
          "type": "uint256"
        }
      ],
      "stateMutability": "view",
      "type": "function",
      "constant": true
    },
    {
      "inputs": [],
      "name": "getCurrentLotNumber",
      "outputs": [
        {
          "internalType": "uint256",
          "name": "",
          "type": "uint256"
        }
      ],
      "stateMutability": "view",
      "type": "function",
      "constant": true
    },
    {
      "inputs": [
        {
          "internalType": "uint256",
          "name": "lotNumber",
          "type": "uint256"
        }
      ],
      "name": "getLot",
      "outputs": [
        {
          "components": [
            {
              "internalType": "string",
              "name": "name",
              "type": "string"
            },
            {
              "internalType": "address",
              "name": "supervisor",
              "type": "address"
            },
            {
              "internalType": "bool",
              "name": "completed",
              "type": "bool"
            },
            {
              "internalType": "uint256",
              "name": "startTime",
              "type": "uint256"
            },
            {
              "internalType": "uint256",
              "name": "endTime",
              "type": "uint256"
            },
            {
              "internalType": "string",
              "name": "location",
              "type": "string"
            },
            {
              "internalType": "uint256",
              "name": "lotNumber",
              "type": "uint256"
            }
          ],
          "internalType": "struct MilkChain.Step[]",
          "name": "",
          "type": "tuple[]"
        }
      ],
      "stateMutability": "view",
      "type": "function",
      "constant": true
    },
    {
      "inputs": [],
      "name": "getAllAccounts",
      "outputs": [
        {
          "internalType": "address[]",
          "name": "",
          "type": "address[]"
        }
      ],
      "stateMutability": "view",
      "type": "function",
      "constant": true
    },
    {
      "inputs": [
        {
          "internalType": "address",
          "name": "account",
          "type": "address"
        },
        {
          "internalType": "enum MilkChain.Role",
          "name": "role",
          "type": "uint8"
        }
      ],
      "name": "assignRole",
      "outputs": [],
      "stateMutability": "nonpayable",
      "type": "function"
    },
    {
      "inputs": [
        {
          "internalType": "address",
          "name": "account",
          "type": "address"
        }
      ],
      "name": "removeRole",
      "outputs": [],
      "stateMutability": "nonpayable",
      "type": "function"
    }
  ],
  "bytecode": "0x608060405234801561001057600080fd5b5033600460006101000a81548173ffffffffffffffffffffffffffffffffffffffff021916908373ffffffffffffffffffffffffffffffffffffffff1602179055506001806000600460009054906101000a900473ffffffffffffffffffffffffffffffffffffffff1673ffffffffffffffffffffffffffffffffffffffff1673ffffffffffffffffffffffffffffffffffffffff16815260200190815260200160002060006101000a81548160ff021916908360038111156100fc577f4e487b7100000000000000000000000000000000000000000000000000000000600052602160045260246000fd5b021790555060016003819055506002600460009054906101000a900473ffffffffffffffffffffffffffffffffffffffff169080600181540180825580915050600190039060005260206000200160009091909190916101000a81548173ffffffffffffffffffffffffffffffffffffffff021916908373ffffffffffffffffffffffffffffffffffffffff1602179055506131988061019d6000396000f3fe608060405234801561001057600080fd5b50600436106101005760003560e01c8063893c12dd11610097578063ad1e954e11610066578063ad1e954e146102c6578063c9b021c2146102e4578063d996570e14610302578063f13b25961461031e57610100565b8063893c12dd1461022c5780638da5cb5b146102485780639937464214610266578063ab995d121461029657610100565b8063579e51c7116100d3578063579e51c7146101a5578063630a195b146101d65780637bc23f61146101f2578063848d8dac1461022257610100565b806308c0cad61461010557806308e93d0a146101355780634762155d146101535780634db045081461016f575b600080fd5b61011f600480360381019061011a91906124a0565b61034e565b60405161012c9190612da1565b60405180910390f35b61013d610370565b60405161014a9190612b8a565b60405180910390f35b61016d6004803603810190610168919061243b565b6103fe565b005b6101896004803603810190610184919061251d565b6106a9565b60405161019c9796959493929190612c04565b60405180910390f35b6101bf60048036038101906101ba91906124a0565b6108e3565b6040516101cd929190612dbc565b60405180910390f35b6101f060048036038101906101eb9190612464565b610907565b005b61020c600480360381019061020791906124a0565b610d19565b6040516102199190612da1565b60405180910390f35b61022a610d38565b005b61024660048036038101906102419190612559565b610ed1565b005b6102506110c1565b60405161025d9190612b6f565b60405180910390f35b610280600480360381019061027b919061243b565b6110e7565b60405161028d9190612be9565b60405180910390f35b6102b060048036038101906102ab91906124a0565b611107565b6040516102bd9190612bac565b60405180910390f35b6102ce611334565b6040516102db9190612da1565b60405180910390f35b6102ec61133e565b6040516102f99190612da1565b60405180910390f35b61031c600480360381019061031791906124c9565b611344565b005b610338600480360381019061033391906124a0565b6116a8565b6040516103459190612bce565b60405180910390f35b6000806000838152602001908152602001600020600001805490509050919050565b606060028054806020026020016040519081016040528092919081815260200182805480156103f457602002820191906000526020600020905b8160009054906101000a900473ffffffffffffffffffffffffffffffffffffffff1673ffffffffffffffffffffffffffffffffffffffff16815260200190600101908083116103aa575b5050505050905090565b60016003811115610438577f4e487b7100000000000000000000000000000000000000000000000000000000600052602160045260246000fd5b600160003373ffffffffffffffffffffffffffffffffffffffff1673ffffffffffffffffffffffffffffffffffffffff16815260200190815260200160002060009054906101000a900460ff1660038111156104bd577f4e487b7100000000000000000000000000000000000000000000000000000000600052602160045260246000fd5b146104fd576040517f08c379a00000000000000000000000000000000000000000000000000000000081526004016104f490612d01565b60405180910390fd5b60016003811115610537577f4e487b7100000000000000000000000000000000000000000000000000000000600052602160045260246000fd5b600160008373ffffffffffffffffffffffffffffffffffffffff1673ffffffffffffffffffffffffffffffffffffffff16815260200190815260200160002060009054906101000a900460ff1660038111156105bc577f4e487b7100000000000000000000000000000000000000000000000000000000600052602160045260246000fd5b1415806105d0575060016105ce6116d6565b115b61060f576040517f08c379a000000000000000000000000000000000000000000000000000000000815260040161060690612d41565b60405180910390fd5b6000600160008373ffffffffffffffffffffffffffffffffffffffff1673ffffffffffffffffffffffffffffffffffffffff16815260200190815260200160002060006101000a81548160ff02191690836003811115610698577f4e487b7100000000000000000000000000000000000000000000000000000000600052602160045260246000fd5b02179055506106a681611840565b50565b606060008060008060606000806000808b8152602001908152602001600020905080600001805490508910610713576040517f08c379a000000000000000000000000000000000000000000000000000000000815260040161070a90612d21565b60405180910390fd5b6000816000018a81548110610751577f4e487b7100000000000000000000000000000000000000000000000000000000600052603260045260246000fd5b90600052602060002090600602019050806000018160010160009054906101000a900473ffffffffffffffffffffffffffffffffffffffff168260010160149054906101000a900460ff16836002015484600301548560040186600501548680546107bb90612fc8565b80601f01602080910402602001604051908101604052809291908181526020018280546107e790612fc8565b80156108345780601f1061080957610100808354040283529160200191610834565b820191906000526020600020905b81548152906001019060200180831161081757829003601f168201915b5050505050965081805461084790612fc8565b80601f016020809104026020016040519081016040528092919081815260200182805461087390612fc8565b80156108c05780601f10610895576101008083540402835291602001916108c0565b820191906000526020600020905b8154815290600101906020018083116108a357829003601f168201915b505050505091509850985098509850985098509850505092959891949750929550565b60006020528060005260406000206000915090508060010154908060020154905082565b60016003811115610941577f4e487b7100000000000000000000000000000000000000000000000000000000600052602160045260246000fd5b600160003373ffffffffffffffffffffffffffffffffffffffff1673ffffffffffffffffffffffffffffffffffffffff16815260200190815260200160002060009054906101000a900460ff1660038111156109c6577f4e487b7100000000000000000000000000000000000000000000000000000000600052602160045260246000fd5b14610a06576040517f08c379a00000000000000000000000000000000000000000000000000000000081526004016109fd90612d01565b60405180910390fd5b60016003811115610a40577f4e487b7100000000000000000000000000000000000000000000000000000000600052602160045260246000fd5b600160008473ffffffffffffffffffffffffffffffffffffffff1673ffffffffffffffffffffffffffffffffffffffff16815260200190815260200160002060009054906101000a900460ff166003811115610ac5577f4e487b7100000000000000000000000000000000000000000000000000000000600052602160045260246000fd5b141580610ad957506001610ad76116d6565b115b610b18576040517f08c379a0000000000000000000000000000000000000000000000000000000008152600401610b0f90612cc1565b60405180910390fd5b806003811115610b51577f4e487b7100000000000000000000000000000000000000000000000000000000600052602160045260246000fd5b600160008473ffffffffffffffffffffffffffffffffffffffff1673ffffffffffffffffffffffffffffffffffffffff16815260200190815260200160002060009054906101000a900460ff166003811115610bd6577f4e487b7100000000000000000000000000000000000000000000000000000000600052602160045260246000fd5b1415610c17576040517f08c379a0000000000000000000000000000000000000000000000000000000008152600401610c0e90612d61565b60405180910390fd5b80600160008473ffffffffffffffffffffffffffffffffffffffff1673ffffffffffffffffffffffffffffffffffffffff16815260200190815260200160002060006101000a81548160ff02191690836003811115610c9f577f4e487b7100000000000000000000000000000000000000000000000000000000600052602160045260246000fd5b0217905550610cad82611a69565b610d15576002829080600181540180825580915050600190039060005260206000200160009091909190916101000a81548173ffffffffffffffffffffffffffffffffffffffff021916908373ffffffffffffffffffffffffffffffffffffffff1602179055505b5050565b6000806000838152602001908152602001600020600101549050919050565b60016003811115610d72577f4e487b7100000000000000000000000000000000000000000000000000000000600052602160045260246000fd5b600160003373ffffffffffffffffffffffffffffffffffffffff1673ffffffffffffffffffffffffffffffffffffffff16815260200190815260200160002060009054906101000a900460ff166003811115610df7577f4e487b7100000000000000000000000000000000000000000000000000000000600052602160045260246000fd5b14610e37576040517f08c379a0000000000000000000000000000000000000000000000000000000008152600401610e2e90612d01565b60405180910390fd5b6000806000600354815260200190815260200160002090506003548160020181905550610e6381611b3e565b4281600001600081548110610ea1577f4e487b7100000000000000000000000000000000000000000000000000000000600052603260045260246000fd5b90600052602060002090600602016002018190555060036000815480929190610ec990612ffa565b919050555050565b60016003811115610f0b577f4e487b7100000000000000000000000000000000000000000000000000000000600052602160045260246000fd5b600160003373ffffffffffffffffffffffffffffffffffffffff1673ffffffffffffffffffffffffffffffffffffffff16815260200190815260200160002060009054906101000a900460ff166003811115610f90577f4e487b7100000000000000000000000000000000000000000000000000000000600052602160045260246000fd5b14610fd0576040517f08c379a0000000000000000000000000000000000000000000000000000000008152600401610fc790612d01565b60405180910390fd5b600080600085815260200190815260200160002090508060000180549050831061102f576040517f08c379a000000000000000000000000000000000000000000000000000000000815260040161102690612d21565b60405180910390fd5b8181600001848154811061106c577f4e487b7100000000000000000000000000000000000000000000000000000000600052603260045260246000fd5b906000526020600020906006020160010160006101000a81548173ffffffffffffffffffffffffffffffffffffffff021916908373ffffffffffffffffffffffffffffffffffffffff16021790555050505050565b600460009054906101000a900473ffffffffffffffffffffffffffffffffffffffff1681565b60016020528060005260406000206000915054906101000a900460ff1681565b60606000806000848152602001908152602001600020905080600001805480602002602001604051908101604052809291908181526020016000905b8282101561132857838290600052602060002090600602016040518060e001604052908160008201805461117690612fc8565b80601f01602080910402602001604051908101604052809291908181526020018280546111a290612fc8565b80156111ef5780601f106111c4576101008083540402835291602001916111ef565b820191906000526020600020905b8154815290600101906020018083116111d257829003601f168201915b505050505081526020016001820160009054906101000a900473ffffffffffffffffffffffffffffffffffffffff1673ffffffffffffffffffffffffffffffffffffffff1673ffffffffffffffffffffffffffffffffffffffff1681526020016001820160149054906101000a900460ff16151515158152602001600282015481526020016003820154815260200160048201805461128d90612fc8565b80601f01602080910402602001604051908101604052809291908181526020018280546112b990612fc8565b80156113065780601f106112db57610100808354040283529160200191611306565b820191906000526020600020905b8154815290600101906020018083116112e957829003601f168201915b5050505050815260200160058201548152505081526020019060010190611143565b50505050915050919050565b6000600354905090565b60035481565b6002600381111561137e577f4e487b7100000000000000000000000000000000000000000000000000000000600052602160045260246000fd5b600160003373ffffffffffffffffffffffffffffffffffffffff1673ffffffffffffffffffffffffffffffffffffffff16815260200190815260200160002060009054906101000a900460ff166003811115611403577f4e487b7100000000000000000000000000000000000000000000000000000000600052602160045260246000fd5b14611443576040517f08c379a000000000000000000000000000000000000000000000000000000000815260040161143a90612ca1565b60405180910390fd5b6000806000848152602001908152602001600020905080600001805490508160010154106114a6576040517f08c379a000000000000000000000000000000000000000000000000000000000815260040161149d90612d81565b60405180910390fd5b6000816000018260010154815481106114e8577f4e487b7100000000000000000000000000000000000000000000000000000000600052603260045260246000fd5b906000526020600020906006020190508060010160009054906101000a900473ffffffffffffffffffffffffffffffffffffffff1673ffffffffffffffffffffffffffffffffffffffff163373ffffffffffffffffffffffffffffffffffffffff161461158a576040517f08c379a000000000000000000000000000000000000000000000000000000000815260040161158190612ce1565b60405180910390fd5b60018160010160146101000a81548160ff0219169083151502179055504281600301819055506115b9836122e4565b6115f8576040517f08c379a00000000000000000000000000000000000000000000000000000000081526004016115ef90612c81565b60405180910390fd5b828160040190805190602001906116109291906122f1565b508160020154816005018190555081600101600081548092919061163390612ffa565b91905055508160000180549050826001015410156116a257428260000183600101548154811061168c577f4e487b7100000000000000000000000000000000000000000000000000000000600052603260045260246000fd5b9060005260206000209060060201600201819055505b50505050565b6000806000808481526020019081526020016000209050806000018054905081600101541015915050919050565b6000806000905060005b6002805490508110156118385760016003811115611727577f4e487b7100000000000000000000000000000000000000000000000000000000600052602160045260246000fd5b6001600060028481548110611765577f4e487b7100000000000000000000000000000000000000000000000000000000600052603260045260246000fd5b9060005260206000200160009054906101000a900473ffffffffffffffffffffffffffffffffffffffff1673ffffffffffffffffffffffffffffffffffffffff1673ffffffffffffffffffffffffffffffffffffffff16815260200190815260200160002060009054906101000a900460ff166003811115611810577f4e487b7100000000000000000000000000000000000000000000000000000000600052602160045260246000fd5b141561182557818061182190612ffa565b9250505b808061183090612ffa565b9150506116e0565b508091505090565b60005b600280549050811015611a65578173ffffffffffffffffffffffffffffffffffffffff16600282815481106118a1577f4e487b7100000000000000000000000000000000000000000000000000000000600052603260045260246000fd5b9060005260206000200160009054906101000a900473ffffffffffffffffffffffffffffffffffffffff1673ffffffffffffffffffffffffffffffffffffffff161415611a5257600260016002805490506118fc9190612ee5565b81548110611933577f4e487b7100000000000000000000000000000000000000000000000000000000600052603260045260246000fd5b9060005260206000200160009054906101000a900473ffffffffffffffffffffffffffffffffffffffff1660028281548110611998577f4e487b7100000000000000000000000000000000000000000000000000000000600052603260045260246000fd5b9060005260206000200160006101000a81548173ffffffffffffffffffffffffffffffffffffffff021916908373ffffffffffffffffffffffffffffffffffffffff1602179055506002805480611a18577f4e487b7100000000000000000000000000000000000000000000000000000000600052603160045260246000fd5b6001900381819060005260206000200160006101000a81549073ffffffffffffffffffffffffffffffffffffffff02191690559055611a65565b8080611a5d90612ffa565b915050611843565b5050565b600080600090505b600280549050811015611b33578273ffffffffffffffffffffffffffffffffffffffff1660028281548110611acf577f4e487b7100000000000000000000000000000000000000000000000000000000600052603260045260246000fd5b9060005260206000200160009054906101000a900473ffffffffffffffffffffffffffffffffffffffff1673ffffffffffffffffffffffffffffffffffffffff161415611b20576001915050611b39565b8080611b2b90612ffa565b915050611a71565b50600090505b919050565b806000016040518060e001604052806040518060400160405280600881526020017f526163636f6c74610000000000000000000000000000000000000000000000008152508152602001600073ffffffffffffffffffffffffffffffffffffffff1681526020016000151581526020016000815260200160008152602001604051806020016040528060008152508152602001836002015481525090806001815401808255809150506001900390600052602060002090600602016000909190919091506000820151816000019080519060200190611c1e9291906122f1565b5060208201518160010160006101000a81548173ffffffffffffffffffffffffffffffffffffffff021916908373ffffffffffffffffffffffffffffffffffffffff16021790555060408201518160010160146101000a81548160ff021916908315150217905550606082015181600201556080820151816003015560a0820151816004019080519060200190611cb69291906122f1565b5060c082015181600501555050806000016040518060e001604052806040518060400160405280600981526020017f54726173706f72746f00000000000000000000000000000000000000000000008152508152602001600073ffffffffffffffffffffffffffffffffffffffff1681526020016000151581526020016000815260200160008152602001604051806020016040528060008152508152602001836002015481525090806001815401808255809150506001900390600052602060002090600602016000909190919091506000820151816000019080519060200190611da39291906122f1565b5060208201518160010160006101000a81548173ffffffffffffffffffffffffffffffffffffffff021916908373ffffffffffffffffffffffffffffffffffffffff16021790555060408201518160010160146101000a81548160ff021916908315150217905550606082015181600201556080820151816003015560a0820151816004019080519060200190611e3b9291906122f1565b5060c082015181600501555050806000016040518060e001604052806040518060400160405280600b81526020017f4c61766f72617a696f6e650000000000000000000000000000000000000000008152508152602001600073ffffffffffffffffffffffffffffffffffffffff1681526020016000151581526020016000815260200160008152602001604051806020016040528060008152508152602001836002015481525090806001815401808255809150506001900390600052602060002090600602016000909190919091506000820151816000019080519060200190611f289291906122f1565b5060208201518160010160006101000a81548173ffffffffffffffffffffffffffffffffffffffff021916908373ffffffffffffffffffffffffffffffffffffffff16021790555060408201518160010160146101000a81548160ff021916908315150217905550606082015181600201556080820151816003015560a0820151816004019080519060200190611fc09291906122f1565b5060c082015181600501555050806000016040518060e001604052806040518060400160405280600f81526020017f436f6e66657a696f6e616d656e746f00000000000000000000000000000000008152508152602001600073ffffffffffffffffffffffffffffffffffffffff16815260200160001515815260200160008152602001600081526020016040518060200160405280600081525081526020018360020154815250908060018154018082558091505060019003906000526020600020906006020160009091909190915060008201518160000190805190602001906120ad9291906122f1565b5060208201518160010160006101000a81548173ffffffffffffffffffffffffffffffffffffffff021916908373ffffffffffffffffffffffffffffffffffffffff16021790555060408201518160010160146101000a81548160ff021916908315150217905550606082015181600201556080820151816003015560a08201518160040190805190602001906121459291906122f1565b5060c082015181600501555050806000016040518060e001604052806040518060400160405280600d81526020017f44697374726962757a696f6e65000000000000000000000000000000000000008152508152602001600073ffffffffffffffffffffffffffffffffffffffff16815260200160001515815260200160008152602001600081526020016040518060200160405280600081525081526020018360020154815250908060018154018082558091505060019003906000526020600020906006020160009091909190915060008201518160000190805190602001906122329291906122f1565b5060208201518160010160006101000a81548173ffffffffffffffffffffffffffffffffffffffff021916908373ffffffffffffffffffffffffffffffffffffffff16021790555060408201518160010160146101000a81548160ff021916908315150217905550606082015181600201556080820151816003015560a08201518160040190805190602001906122ca9291906122f1565b5060c0820151816005015550506000816001018190555050565b6000808251119050919050565b8280546122fd90612fc8565b90600052602060002090601f01602090048101928261231f5760008555612366565b82601f1061233857805160ff1916838001178555612366565b82800160010185558215612366579182015b8281111561236557825182559160200191906001019061234a565b5b5090506123739190612377565b5090565b5b80821115612390576000816000905550600101612378565b5090565b60006123a76123a284612e16565b612de5565b9050828152602081018484840111156123bf57600080fd5b6123ca848285612f86565b509392505050565b6000813590506123e181613124565b92915050565b6000813590506123f68161313b565b92915050565b600082601f83011261240d57600080fd5b813561241d848260208601612394565b91505092915050565b6000813590506124358161314b565b92915050565b60006020828403121561244d57600080fd5b600061245b848285016123d2565b91505092915050565b6000806040838503121561247757600080fd5b6000612485858286016123d2565b9250506020612496858286016123e7565b9150509250929050565b6000602082840312156124b257600080fd5b60006124c084828501612426565b91505092915050565b600080604083850312156124dc57600080fd5b60006124ea85828601612426565b925050602083013567ffffffffffffffff81111561250757600080fd5b612513858286016123fc565b9150509250929050565b6000806040838503121561253057600080fd5b600061253e85828601612426565b925050602061254f85828601612426565b9150509250929050565b60008060006060848603121561256e57600080fd5b600061257c86828701612426565b935050602061258d86828701612426565b925050604061259e868287016123d2565b9150509250925092565b60006125b483836125d4565b60208301905092915050565b60006125cc8383612aae565b905092915050565b6125dd81612f19565b82525050565b6125ec81612f19565b82525050565b60006125fd82612e66565b6126078185612ea1565b935061261283612e46565b8060005b8381101561264357815161262a88826125a8565b975061263583612e87565b925050600181019050612616565b5085935050505092915050565b600061265b82612e71565b6126658185612eb2565b93508360208202850161267785612e56565b8060005b858110156126b3578484038952815161269485826125c0565b945061269f83612e94565b925060208a0199505060018101905061267b565b50829750879550505050505092915050565b6126ce81612f2b565b82525050565b6126dd81612f2b565b82525050565b6126ec81612f74565b82525050565b60006126fd82612e7c565b6127078185612ec3565b9350612717818560208601612f95565b612720816130ff565b840191505092915050565b600061273682612e7c565b6127408185612ed4565b9350612750818560208601612f95565b612759816130ff565b840191505092915050565b6000612771602883612ed4565b91507f4c6f636174696f6e206973206e6f7420726561736f6e61626c6520666f72207460008301527f68697320737465700000000000000000000000000000000000000000000000006020830152604082019050919050565b60006127d7602783612ed4565b91507f4f6e6c792073757065727669736f722063616e20706572666f726d207468697360008301527f20616374696f6e000000000000000000000000000000000000000000000000006020830152604082019050919050565b600061283d602c83612ed4565b91507f4e6f6e2070756f692063616d626961726520696c2072756f6c6f2064656c6c2760008301527f756c74696d6f2061646d696e00000000000000000000000000000000000000006020830152604082019050919050565b60006128a3602e83612ed4565b91507f4f6e6c792061737369676e65642073757065727669736f722063616e20636f6d60008301527f706c6574652074686520737465700000000000000000000000000000000000006020830152604082019050919050565b6000612909602283612ed4565b91507f4f6e6c792061646d696e2063616e20706572666f726d2074686973206163746960008301527f6f6e0000000000000000000000000000000000000000000000000000000000006020830152604082019050919050565b600061296f601783612ed4565b91507f5374657020696e646578206f7574206f662072616e67650000000000000000006000830152602082019050919050565b60006129af602183612ed4565b91507f4e6f6e2070756f692072696d756f76657265206c27756c74696d6f2061646d6960008301527f6e000000000000000000000000000000000000000000000000000000000000006020830152604082019050919050565b6000612a15602283612ed4565b91507f51756573746f206163636f756e74206861206769612071756573746f2072756f60008301527f6c6f0000000000000000000000000000000000000000000000000000000000006020830152604082019050919050565b6000612a7b601f83612ed4565b91507f416c6c2073746570732061726520616c726561647920636f6d706c65746564006000830152602082019050919050565b600060e0830160008301518482036000860152612acb82826126f2565b9150506020830151612ae060208601826125d4565b506040830151612af360408601826126c5565b506060830151612b066060860182612b51565b506080830151612b196080860182612b51565b5060a083015184820360a0860152612b3182826126f2565b91505060c0830151612b4660c0860182612b51565b508091505092915050565b612b5a81612f6a565b82525050565b612b6981612f6a565b82525050565b6000602082019050612b8460008301846125e3565b92915050565b60006020820190508181036000830152612ba481846125f2565b905092915050565b60006020820190508181036000830152612bc68184612650565b905092915050565b6000602082019050612be360008301846126d4565b92915050565b6000602082019050612bfe60008301846126e3565b92915050565b600060e0820190508181036000830152612c1e818a61272b565b9050612c2d60208301896125e3565b612c3a60408301886126d4565b612c476060830187612b60565b612c546080830186612b60565b81810360a0830152612c66818561272b565b9050612c7560c0830184612b60565b98975050505050505050565b60006020820190508181036000830152612c9a81612764565b9050919050565b60006020820190508181036000830152612cba816127ca565b9050919050565b60006020820190508181036000830152612cda81612830565b9050919050565b60006020820190508181036000830152612cfa81612896565b9050919050565b60006020820190508181036000830152612d1a816128fc565b9050919050565b60006020820190508181036000830152612d3a81612962565b9050919050565b60006020820190508181036000830152612d5a816129a2565b9050919050565b60006020820190508181036000830152612d7a81612a08565b9050919050565b60006020820190508181036000830152612d9a81612a6e565b9050919050565b6000602082019050612db66000830184612b60565b92915050565b6000604082019050612dd16000830185612b60565b612dde6020830184612b60565b9392505050565b6000604051905081810181811067ffffffffffffffff82111715612e0c57612e0b6130d0565b5b8060405250919050565b600067ffffffffffffffff821115612e3157612e306130d0565b5b601f19601f8301169050602081019050919050565b6000819050602082019050919050565b6000819050602082019050919050565b600081519050919050565b600081519050919050565b600081519050919050565b6000602082019050919050565b6000602082019050919050565b600082825260208201905092915050565b600082825260208201905092915050565b600082825260208201905092915050565b600082825260208201905092915050565b6000612ef082612f6a565b9150612efb83612f6a565b925082821015612f0e57612f0d613043565b5b828203905092915050565b6000612f2482612f4a565b9050919050565b60008115159050919050565b6000819050612f4582613110565b919050565b600073ffffffffffffffffffffffffffffffffffffffff82169050919050565b6000819050919050565b6000612f7f82612f37565b9050919050565b82818337600083830152505050565b60005b83811015612fb3578082015181840152602081019050612f98565b83811115612fc2576000848401525b50505050565b60006002820490506001821680612fe057607f821691505b60208210811415612ff457612ff36130a1565b5b50919050565b600061300582612f6a565b91507fffffffffffffffffffffffffffffffffffffffffffffffffffffffffffffffff82141561303857613037613043565b5b600182019050919050565b7f4e487b7100000000000000000000000000000000000000000000000000000000600052601160045260246000fd5b7f4e487b7100000000000000000000000000000000000000000000000000000000600052602160045260246000fd5b7f4e487b7100000000000000000000000000000000000000000000000000000000600052602260045260246000fd5b7f4e487b7100000000000000000000000000000000000000000000000000000000600052604160045260246000fd5b6000601f19601f8301169050919050565b6004811061312157613120613072565b5b50565b61312d81612f19565b811461313857600080fd5b50565b6004811061314857600080fd5b50565b61315481612f6a565b811461315f57600080fd5b5056fea264697066735822122069948f13bda42e5760a27455dfc4bc4727658d3d015e7a0b6495106762d8ba6664736f6c63430008000033",
  "immutableReferences": {},
  "source": "// SPDX-License-Identifier: MIT\r\npragma solidity ^0.8.0;\r\n\r\ncontract MilkChain {\r\n    enum Role {None, Admin, Supervisor, Operator}\r\n    \r\n    struct Step {\r\n        string name;\r\n        address supervisor;\r\n        bool completed;\r\n        uint startTime;\r\n        uint endTime;\r\n        string location;\r\n        uint lotNumber;\r\n    }\r\n\r\n    struct Process {\r\n        Step[] steps;\r\n        uint currentStepIndex;\r\n        uint lotNumber;\r\n    }\r\n\r\n    mapping(uint => Process) public processes;\r\n    mapping(address => Role) public roles;\r\n    address[] private accountList;\r\n    uint public currentLotNumber;\r\n    address public owner;\r\n\r\n    constructor() {\r\n        owner = msg.sender;\r\n        roles[owner] = Role.Admin;\r\n        currentLotNumber = 1;\r\n        accountList.push(owner);\r\n    }\r\n\r\n    function createNewProcess() public onlyAdmin {\r\n        Process storage newProcess = processes[currentLotNumber];\r\n        newProcess.lotNumber = currentLotNumber;\r\n        initializeSteps(newProcess);\r\n        newProcess.steps[0].startTime = block.timestamp;\r\n        currentLotNumber++;\r\n    }\r\n\r\n    function initializeSteps(Process storage process) internal {\r\n        process.steps.push(Step(\"Raccolta\", address(0), false, 0, 0, \"\", process.lotNumber));\r\n        process.steps.push(Step(\"Trasporto\", address(0), false, 0, 0, \"\", process.lotNumber));\r\n        process.steps.push(Step(\"Lavorazione\", address(0), false, 0, 0, \"\", process.lotNumber));\r\n        process.steps.push(Step(\"Confezionamento\", address(0), false, 0, 0, \"\", process.lotNumber));\r\n        process.steps.push(Step(\"Distribuzione\", address(0), false, 0, 0, \"\", process.lotNumber));\r\n        process.currentStepIndex = 0;\r\n    }\r\n\r\n    function assignSupervisor(uint lotNumber, uint stepIndex, address supervisor) public onlyAdmin {\r\n        Process storage process = processes[lotNumber];\r\n        require(stepIndex < process.steps.length, \"Step index out of range\");\r\n        process.steps[stepIndex].supervisor = supervisor;\r\n    }\r\n\r\n    function completeStep(uint lotNumber, string memory _location) public onlySupervisor {\r\n        Process storage process = processes[lotNumber];\r\n        require(process.currentStepIndex < process.steps.length, \"All steps are already completed\");\r\n        Step storage step = process.steps[process.currentStepIndex];\r\n        require(msg.sender == step.supervisor, \"Only assigned supervisor can complete the step\");\r\n        step.completed = true;\r\n        step.endTime = block.timestamp;\r\n\r\n        require(isReasonableLocation(_location), \"Location is not reasonable for this step\");\r\n\r\n        step.location = _location;\r\n        step.lotNumber = process.lotNumber;\r\n\r\n        process.currentStepIndex++;\r\n\r\n        if (process.currentStepIndex < process.steps.length) {\r\n            process.steps[process.currentStepIndex].startTime = block.timestamp;\r\n        }\r\n    }\r\n\r\n    function isReasonableLocation(string memory _location) internal pure returns (bool) {\r\n        return bytes(_location).length > 0;\r\n    }\r\n\r\n    function isProcessCompleted(uint lotNumber) public view returns (bool) {\r\n        Process storage process = processes[lotNumber];\r\n        return process.currentStepIndex >= process.steps.length;\r\n    }\r\n\r\n    function getStepsLength(uint lotNumber) public view returns (uint) {\r\n        return processes[lotNumber].steps.length;\r\n    }\r\n\r\n    function getStep(uint lotNumber, uint index) public view returns (string memory, address, bool, uint, uint, string memory, uint) {\r\n        Process storage process = processes[lotNumber];\r\n        require(index < process.steps.length, \"Step index out of range\");\r\n        Step storage step = process.steps[index];\r\n        return (step.name, step.supervisor, step.completed, step.startTime, step.endTime, step.location, step.lotNumber);\r\n    }\r\n\r\n    function getCurrentStepIndex(uint lotNumber) public view returns (uint) {\r\n        return processes[lotNumber].currentStepIndex;\r\n    }\r\n\r\n    function getCurrentLotNumber() public view returns (uint) {\r\n        return currentLotNumber;\r\n    }\r\n\r\n    function getLot(uint lotNumber) public view returns (Step[] memory) {\r\n        Process storage process = processes[lotNumber];\r\n        return process.steps;\r\n    }\r\n\r\n    function getAllAccounts() public view returns (address[] memory) {\r\n        return accountList;\r\n    }\r\n\r\n    function assignRole(address account, Role role) public onlyAdmin {\r\n        require(roles[account] != Role.Admin || countAdmins() > 1, \"Non puoi cambiare il ruolo dell'ultimo admin\");\r\n        require(roles[account] != role, \"Questo account ha gia questo ruolo\");\r\n        roles[account] = role;\r\n        if (!isAccountInList(account)) {\r\n            accountList.push(account);\r\n        }\r\n    }\r\n\r\n    function removeRole(address account) public onlyAdmin {\r\n        require(roles[account] != Role.Admin || countAdmins() > 1, \"Non puoi rimuovere l'ultimo admin\");\r\n        roles[account] = Role.None;\r\n        removeAccountFromList(account);\r\n    }\r\n\r\n     function countAdmins() internal view returns (uint) {\r\n        uint count = 0;\r\n        for (uint i = 0; i < accountList.length; i++) {\r\n            if (roles[accountList[i]] == Role.Admin) {\r\n                count++;\r\n            }\r\n        }\r\n        return count;\r\n    }\r\n\r\n    function isAccountInList(address account) internal view returns (bool) {\r\n        for (uint i = 0; i < accountList.length; i++) {\r\n            if (accountList[i] == account) {\r\n                return true;\r\n            }\r\n        }\r\n        return false;\r\n    }\r\n\r\n    function removeAccountFromList(address account) internal {\r\n        for (uint i = 0; i < accountList.length; i++) {\r\n            if (accountList[i] == account) {\r\n                accountList[i] = accountList[accountList.length - 1];\r\n                accountList.pop();\r\n                break;\r\n            }\r\n        }\r\n    }\r\n\r\n    modifier onlyAdmin() {\r\n        require(roles[msg.sender] == Role.Admin, \"Only admin can perform this action\");\r\n        _;\r\n    }\r\n\r\n    modifier onlySupervisor() {\r\n        require(roles[msg.sender] == Role.Supervisor, \"Only supervisor can perform this action\");\r\n        _;\r\n    }\r\n}",
  "sourcePath": "C:\\Users\\samue\\Desktop\\MilkChain\\backend\\contracts\\MilkChain.sol",
  "compiler": {
    "name": "solc",
    "version": "0.8.0+commit.c7dfd78e.Emscripten.clang"
  },
  "schemaVersion": "3.4.16",
  "updatedAt": "2024-07-03T04:32:27.079Z",
  "networkType": "ethereum",
  "devdoc": {
    "kind": "dev",
    "methods": {},
    "version": 1
  },
  "userdoc": {
    "kind": "user",
    "methods": {},
    "version": 1
  }
}