{
  "contractName": "MilkProcess",
  "abi": [
    {
      "inputs": [
        {
          "internalType": "uint256",
          "name": "_lotNumber",
          "type": "uint256"
        },
        {
          "internalType": "address",
          "name": "_factory",
          "type": "address"
        }
      ],
      "stateMutability": "nonpayable",
      "type": "constructor"
    },
    {
      "inputs": [],
      "name": "currentStepIndex",
      "outputs": [
        {
          "internalType": "uint256",
          "name": "",
          "type": "uint256"
        }
      ],
      "stateMutability": "view",
      "type": "function"
    },
    {
      "inputs": [],
      "name": "factory",
      "outputs": [
        {
          "internalType": "address",
          "name": "",
          "type": "address"
        }
      ],
      "stateMutability": "view",
      "type": "function"
    },
    {
      "inputs": [],
      "name": "isFailed",
      "outputs": [
        {
          "internalType": "bool",
          "name": "",
          "type": "bool"
        }
      ],
      "stateMutability": "view",
      "type": "function"
    },
    {
      "inputs": [],
      "name": "lotNumber",
      "outputs": [
        {
          "internalType": "uint256",
          "name": "",
          "type": "uint256"
        }
      ],
      "stateMutability": "view",
      "type": "function"
    },
    {
      "inputs": [
        {
          "internalType": "uint256",
          "name": "",
          "type": "uint256"
        }
      ],
      "name": "steps",
      "outputs": [
        {
          "internalType": "string",
          "name": "name",
          "type": "string"
        },
        {
          "internalType": "address",
          "name": "supervisor",
          "type": "address"
        },
        {
          "internalType": "bool",
          "name": "completed",
          "type": "bool"
        },
        {
          "internalType": "uint256",
          "name": "startTime",
          "type": "uint256"
        },
        {
          "internalType": "uint256",
          "name": "endTime",
          "type": "uint256"
        },
        {
          "internalType": "string",
          "name": "location",
          "type": "string"
        },
        {
          "internalType": "uint256",
          "name": "lotNumber",
          "type": "uint256"
        },
        {
          "internalType": "bool",
          "name": "failed",
          "type": "bool"
        }
      ],
      "stateMutability": "view",
      "type": "function"
    },
    {
      "inputs": [
        {
          "internalType": "uint256",
          "name": "stepIndex",
          "type": "uint256"
        },
        {
          "internalType": "address",
          "name": "supervisor",
          "type": "address"
        }
      ],
      "name": "assignSupervisor",
      "outputs": [],
      "stateMutability": "nonpayable",
      "type": "function"
    },
    {
      "inputs": [
        {
          "internalType": "string",
          "name": "_location",
          "type": "string"
        }
      ],
      "name": "completeStep",
      "outputs": [],
      "stateMutability": "nonpayable",
      "type": "function"
    },
    {
      "inputs": [],
      "name": "failStep",
      "outputs": [],
      "stateMutability": "nonpayable",
      "type": "function"
    },
    {
      "inputs": [
        {
          "internalType": "bool",
          "name": "valid",
          "type": "bool"
        }
      ],
      "name": "isTemperatureOK",
      "outputs": [],
      "stateMutability": "nonpayable",
      "type": "function"
    },
    {
      "inputs": [],
      "name": "isProcessCompleted",
      "outputs": [
        {
          "internalType": "bool",
          "name": "",
          "type": "bool"
        }
      ],
      "stateMutability": "view",
      "type": "function"
    },
    {
      "inputs": [],
      "name": "getSteps",
      "outputs": [
        {
          "components": [
            {
              "internalType": "string",
              "name": "name",
              "type": "string"
            },
            {
              "internalType": "address",
              "name": "supervisor",
              "type": "address"
            },
            {
              "internalType": "bool",
              "name": "completed",
              "type": "bool"
            },
            {
              "internalType": "uint256",
              "name": "startTime",
              "type": "uint256"
            },
            {
              "internalType": "uint256",
              "name": "endTime",
              "type": "uint256"
            },
            {
              "internalType": "string",
              "name": "location",
              "type": "string"
            },
            {
              "internalType": "uint256",
              "name": "lotNumber",
              "type": "uint256"
            },
            {
              "internalType": "bool",
              "name": "failed",
              "type": "bool"
            }
          ],
          "internalType": "struct MilkProcess.Step[]",
          "name": "",
          "type": "tuple[]"
        }
      ],
      "stateMutability": "view",
      "type": "function"
    }
  ],
  "bytecode": "0x60806040523480156200001157600080fd5b50604051620028e8380380620028e8833981810160405281019062000037919062000a56565b8160028190555080600360006101000a81548173ffffffffffffffffffffffffffffffffffffffff021916908373ffffffffffffffffffffffffffffffffffffffff1602179055506200008f6200010360201b60201c565b4260008081548110620000cb577f4e487b7100000000000000000000000000000000000000000000000000000000600052603260045260246000fd5b9060005260206000209060070201600201819055506000600360146101000a81548160ff021916908315150217905550505062000b6e565b60006040518061010001604052806040518060400160405280600881526020017f526163636f6c74610000000000000000000000000000000000000000000000008152508152602001600073ffffffffffffffffffffffffffffffffffffffff168152602001600015158152602001600081526020016000815260200160405180602001604052806000815250815260200160025481526020016000151581525090806001815401808255809150506001900390600052602060002090600702016000909190919091506000820151816000019080519060200190620001eb92919062000978565b5060208201518160010160006101000a81548173ffffffffffffffffffffffffffffffffffffffff021916908373ffffffffffffffffffffffffffffffffffffffff16021790555060408201518160010160146101000a81548160ff021916908315150217905550606082015181600201556080820151816003015560a08201518160040190805190602001906200028592919062000978565b5060c0820151816005015560e08201518160060160006101000a81548160ff021916908315150217905550505060006040518061010001604052806040518060400160405280600981526020017f54726173706f72746f00000000000000000000000000000000000000000000008152508152602001600073ffffffffffffffffffffffffffffffffffffffff1681526020016000151581526020016000815260200160008152602001604051806020016040528060008152508152602001600254815260200160001515815250908060018154018082558091505060019003906000526020600020906007020160009091909190915060008201518160000190805190602001906200039a92919062000978565b5060208201518160010160006101000a81548173ffffffffffffffffffffffffffffffffffffffff021916908373ffffffffffffffffffffffffffffffffffffffff16021790555060408201518160010160146101000a81548160ff021916908315150217905550606082015181600201556080820151816003015560a08201518160040190805190602001906200043492919062000978565b5060c0820151816005015560e08201518160060160006101000a81548160ff021916908315150217905550505060006040518061010001604052806040518060400160405280600b81526020017f4c61766f72617a696f6e650000000000000000000000000000000000000000008152508152602001600073ffffffffffffffffffffffffffffffffffffffff1681526020016000151581526020016000815260200160008152602001604051806020016040528060008152508152602001600254815260200160001515815250908060018154018082558091505060019003906000526020600020906007020160009091909190915060008201518160000190805190602001906200054992919062000978565b5060208201518160010160006101000a81548173ffffffffffffffffffffffffffffffffffffffff021916908373ffffffffffffffffffffffffffffffffffffffff16021790555060408201518160010160146101000a81548160ff021916908315150217905550606082015181600201556080820151816003015560a0820151816004019080519060200190620005e392919062000978565b5060c0820151816005015560e08201518160060160006101000a81548160ff021916908315150217905550505060006040518061010001604052806040518060400160405280600f81526020017f436f6e66657a696f6e616d656e746f00000000000000000000000000000000008152508152602001600073ffffffffffffffffffffffffffffffffffffffff168152602001600015158152602001600081526020016000815260200160405180602001604052806000815250815260200160025481526020016000151581525090806001815401808255809150506001900390600052602060002090600702016000909190919091506000820151816000019080519060200190620006f892919062000978565b5060208201518160010160006101000a81548173ffffffffffffffffffffffffffffffffffffffff021916908373ffffffffffffffffffffffffffffffffffffffff16021790555060408201518160010160146101000a81548160ff021916908315150217905550606082015181600201556080820151816003015560a08201518160040190805190602001906200079292919062000978565b5060c0820151816005015560e08201518160060160006101000a81548160ff021916908315150217905550505060006040518061010001604052806040518060400160405280600d81526020017f44697374726962757a696f6e65000000000000000000000000000000000000008152508152602001600073ffffffffffffffffffffffffffffffffffffffff168152602001600015158152602001600081526020016000815260200160405180602001604052806000815250815260200160025481526020016000151581525090806001815401808255809150506001900390600052602060002090600702016000909190919091506000820151816000019080519060200190620008a792919062000978565b5060208201518160010160006101000a81548173ffffffffffffffffffffffffffffffffffffffff021916908373ffffffffffffffffffffffffffffffffffffffff16021790555060408201518160010160146101000a81548160ff021916908315150217905550606082015181600201556080820151816003015560a08201518160040190805190602001906200094192919062000978565b5060c0820151816005015560e08201518160060160006101000a81548160ff02191690831515021790555050506000600181905550565b828054620009869062000ad5565b90600052602060002090601f016020900481019282620009aa5760008555620009f6565b82601f10620009c557805160ff1916838001178555620009f6565b82800160010185558215620009f6579182015b82811115620009f5578251825591602001919060010190620009d8565b5b50905062000a05919062000a09565b5090565b5b8082111562000a2457600081600090555060010162000a0a565b5090565b60008151905062000a398162000b3a565b92915050565b60008151905062000a508162000b54565b92915050565b6000806040838503121562000a6a57600080fd5b600062000a7a8582860162000a3f565b925050602062000a8d8582860162000a28565b9150509250929050565b600062000aa48262000aab565b9050919050565b600073ffffffffffffffffffffffffffffffffffffffff82169050919050565b6000819050919050565b6000600282049050600182168062000aee57607f821691505b6020821081141562000b055762000b0462000b0b565b5b50919050565b7f4e487b7100000000000000000000000000000000000000000000000000000000600052602260045260246000fd5b62000b458162000a97565b811462000b5157600080fd5b50565b62000b5f8162000acb565b811462000b6b57600080fd5b50565b611d6a8062000b7e6000396000f3fe608060405234801561001057600080fd5b50600436106100a95760003560e01c80637217e0b9116100715780637217e0b91461012c57806375b63460146101635780638b1659f51461017f5780639597fe9f1461019d578063c45a0155146101bb578063f4163340146101d9576100a9565b8063040c22c0146100ae578063334f45ec146100ca57806344054931146100e85780635da65ada1461010457806366ea962414610122575b600080fd5b6100c860048036038101906100c39190611306565b6101f7565b005b6100d26105dd565b6040516100df9190611a5a565b60405180910390f35b61010260048036038101906100fd9190611370565b6105e3565b005b61010c610821565b6040516101199190611891565b60405180910390f35b61012a610a4f565b005b61014660048036038101906101419190611347565b610d83565b60405161015a9897969594939291906118ce565b60405180910390f35b61017d600480360381019061017891906112b4565b610f25565b005b6101876110f8565b60405161019491906118b3565b60405180910390f35b6101a5611109565b6040516101b29190611a5a565b60405180910390f35b6101c361110f565b6040516101d09190611876565b60405180910390f35b6101e1611135565b6040516101ee91906118b3565b60405180910390f35b6000600360009054906101000a900473ffffffffffffffffffffffffffffffffffffffff16905060008173ffffffffffffffffffffffffffffffffffffffff166344276733336040518263ffffffff1660e01b81526004016102599190611876565b60206040518083038186803b15801561027157600080fd5b505afa158015610285573d6000803e3d6000fd5b505050506040513d601f19601f820116820180604052508101906102a991906112dd565b9050600260038111156102e5577f4e487b7100000000000000000000000000000000000000000000000000000000600052602160045260246000fd5b81600381111561031e577f4e487b7100000000000000000000000000000000000000000000000000000000600052602160045260246000fd5b1461035e576040517f08c379a00000000000000000000000000000000000000000000000000000000081526004016103559061197a565b60405180910390fd5b600360149054906101000a900460ff16156103ae576040517f08c379a00000000000000000000000000000000000000000000000000000000081526004016103a590611a1a565b60405180910390fd5b600080549050600154106103f7576040517f08c379a00000000000000000000000000000000000000000000000000000000081526004016103ee90611a3a565b60405180910390fd5b60008060015481548110610434577f4e487b7100000000000000000000000000000000000000000000000000000000600052603260045260246000fd5b906000526020600020906007020190508060010160009054906101000a900473ffffffffffffffffffffffffffffffffffffffff1673ffffffffffffffffffffffffffffffffffffffff163373ffffffffffffffffffffffffffffffffffffffff16146104d6576040517f08c379a00000000000000000000000000000000000000000000000000000000081526004016104cd906119ba565b60405180910390fd5b60018160010160146101000a81548160ff02191690831515021790555042816003018190555061050584611148565b610544576040517f08c379a000000000000000000000000000000000000000000000000000000000815260040161053b9061195a565b60405180910390fd5b8381600401908051906020019061055c929190611155565b506001600081548092919061057090611bf8565b919050555060008054905060015410156105d757426000600154815481106105c1577f4e487b7100000000000000000000000000000000000000000000000000000000600052603260045260246000fd5b9060005260206000209060070201600201819055505b50505050565b60015481565b6000600360009054906101000a900473ffffffffffffffffffffffffffffffffffffffff16905060008173ffffffffffffffffffffffffffffffffffffffff166344276733336040518263ffffffff1660e01b81526004016106459190611876565b60206040518083038186803b15801561065d57600080fd5b505afa158015610671573d6000803e3d6000fd5b505050506040513d601f19601f8201168201806040525081019061069591906112dd565b9050600160038111156106d1577f4e487b7100000000000000000000000000000000000000000000000000000000600052602160045260246000fd5b81600381111561070a577f4e487b7100000000000000000000000000000000000000000000000000000000600052602160045260246000fd5b1461074a576040517f08c379a0000000000000000000000000000000000000000000000000000000008152600401610741906119da565b60405180910390fd5b6000805490508410610791576040517f08c379a0000000000000000000000000000000000000000000000000000000008152600401610788906119fa565b60405180910390fd5b82600085815481106107cc577f4e487b7100000000000000000000000000000000000000000000000000000000600052603260045260246000fd5b906000526020600020906007020160010160006101000a81548173ffffffffffffffffffffffffffffffffffffffff021916908373ffffffffffffffffffffffffffffffffffffffff16021790555050505050565b60606000805480602002602001604051908101604052809291908181526020016000905b82821015610a4657838290600052602060002090600702016040518061010001604052908160008201805461087990611bc6565b80601f01602080910402602001604051908101604052809291908181526020018280546108a590611bc6565b80156108f25780601f106108c7576101008083540402835291602001916108f2565b820191906000526020600020905b8154815290600101906020018083116108d557829003601f168201915b505050505081526020016001820160009054906101000a900473ffffffffffffffffffffffffffffffffffffffff1673ffffffffffffffffffffffffffffffffffffffff1673ffffffffffffffffffffffffffffffffffffffff1681526020016001820160149054906101000a900460ff16151515158152602001600282015481526020016003820154815260200160048201805461099090611bc6565b80601f01602080910402602001604051908101604052809291908181526020018280546109bc90611bc6565b8015610a095780601f106109de57610100808354040283529160200191610a09565b820191906000526020600020905b8154815290600101906020018083116109ec57829003601f168201915b50505050508152602001600582015481526020016006820160009054906101000a900460ff16151515158152505081526020019060010190610845565b50505050905090565b6000600360009054906101000a900473ffffffffffffffffffffffffffffffffffffffff16905060008173ffffffffffffffffffffffffffffffffffffffff166344276733336040518263ffffffff1660e01b8152600401610ab19190611876565b60206040518083038186803b158015610ac957600080fd5b505afa158015610add573d6000803e3d6000fd5b505050506040513d601f19601f82011682018060405250810190610b0191906112dd565b905060026003811115610b3d577f4e487b7100000000000000000000000000000000000000000000000000000000600052602160045260246000fd5b816003811115610b76577f4e487b7100000000000000000000000000000000000000000000000000000000600052602160045260246000fd5b14610bb6576040517f08c379a0000000000000000000000000000000000000000000000000000000008152600401610bad9061197a565b60405180910390fd5b600360149054906101000a900460ff1615610c06576040517f08c379a0000000000000000000000000000000000000000000000000000000008152600401610bfd90611a1a565b60405180910390fd5b60008054905060015410610c4f576040517f08c379a0000000000000000000000000000000000000000000000000000000008152600401610c4690611a3a565b60405180910390fd5b60008060015481548110610c8c577f4e487b7100000000000000000000000000000000000000000000000000000000600052603260045260246000fd5b906000526020600020906007020190508060010160009054906101000a900473ffffffffffffffffffffffffffffffffffffffff1673ffffffffffffffffffffffffffffffffffffffff163373ffffffffffffffffffffffffffffffffffffffff1614610d2e576040517f08c379a0000000000000000000000000000000000000000000000000000000008152600401610d259061199a565b60405180910390fd5b60018160060160006101000a81548160ff0219169083151502179055506001600360146101000a81548160ff02191690831515021790555060016000815480929190610d7990611bf8565b9190505550505050565b60008181548110610d9357600080fd5b9060005260206000209060070201600091509050806000018054610db690611bc6565b80601f0160208091040260200160405190810160405280929190818152602001828054610de290611bc6565b8015610e2f5780601f10610e0457610100808354040283529160200191610e2f565b820191906000526020600020905b815481529060010190602001808311610e1257829003601f168201915b5050505050908060010160009054906101000a900473ffffffffffffffffffffffffffffffffffffffff16908060010160149054906101000a900460ff1690806002015490806003015490806004018054610e8990611bc6565b80601f0160208091040260200160405190810160405280929190818152602001828054610eb590611bc6565b8015610f025780601f10610ed757610100808354040283529160200191610f02565b820191906000526020600020905b815481529060010190602001808311610ee557829003601f168201915b5050505050908060050154908060060160009054906101000a900460ff16905088565b600360149054906101000a900460ff1615610f75576040517f08c379a0000000000000000000000000000000000000000000000000000000008152600401610f6c90611a1a565b60405180910390fd5b60008060015481548110610fb2577f4e487b7100000000000000000000000000000000000000000000000000000000600052603260045260246000fd5b9060005260206000209060070201905081156110bb5760018160010160146101000a81548160ff0219169083151502179055504281600301819055506040518060400160405280601381526020017f4175746f6d61746963205472616e73706f72740000000000000000000000000081525081600401908051906020019061103b929190611155565b506001600081548092919061104f90611bf8565b919050555060008054905060015410156110b657426000600154815481106110a0577f4e487b7100000000000000000000000000000000000000000000000000000000600052603260045260246000fd5b9060005260206000209060070201600201819055505b6110f4565b60018160060160006101000a81548160ff0219169083151502179055506001600360146101000a81548160ff0219169083151502179055505b5050565b600080805490506001541015905090565b60025481565b600360009054906101000a900473ffffffffffffffffffffffffffffffffffffffff1681565b600360149054906101000a900460ff1681565b6000808251119050919050565b82805461116190611bc6565b90600052602060002090601f01602090048101928261118357600085556111ca565b82601f1061119c57805160ff19168380011785556111ca565b828001600101855582156111ca579182015b828111156111c95782518255916020019190600101906111ae565b5b5090506111d791906111db565b5090565b5b808211156111f45760008160009055506001016111dc565b5090565b600061120b61120684611aa6565b611a75565b90508281526020810184848401111561122357600080fd5b61122e848285611b84565b509392505050565b60008135905061124581611cdf565b92915050565b60008135905061125a81611cf6565b92915050565b60008151905061126f81611d0d565b92915050565b600082601f83011261128657600080fd5b81356112968482602086016111f8565b91505092915050565b6000813590506112ae81611d1d565b92915050565b6000602082840312156112c657600080fd5b60006112d48482850161124b565b91505092915050565b6000602082840312156112ef57600080fd5b60006112fd84828501611260565b91505092915050565b60006020828403121561131857600080fd5b600082013567ffffffffffffffff81111561133257600080fd5b61133e84828501611275565b91505092915050565b60006020828403121561135957600080fd5b60006113678482850161129f565b91505092915050565b6000806040838503121561138357600080fd5b60006113918582860161129f565b92505060206113a285828601611236565b9150509250929050565b60006113b883836117a1565b905092915050565b6113c981611b3c565b82525050565b6113d881611b3c565b82525050565b60006113e982611ae6565b6113f38185611b09565b93508360208202850161140585611ad6565b8060005b85811015611441578484038952815161142285826113ac565b945061142d83611afc565b925060208a01995050600181019050611409565b50829750879550505050505092915050565b61145c81611b4e565b82525050565b61146b81611b4e565b82525050565b600061147c82611af1565b6114868185611b1a565b9350611496818560208601611b93565b61149f81611cce565b840191505092915050565b60006114b582611af1565b6114bf8185611b2b565b93506114cf818560208601611b93565b6114d881611cce565b840191505092915050565b60006114f0602883611b2b565b91507f4c6f636174696f6e206973206e6f7420726561736f6e61626c6520666f72207460008301527f68697320737465700000000000000000000000000000000000000000000000006020830152604082019050919050565b6000611556602783611b2b565b91507f4f6e6c792073757065727669736f722063616e20706572666f726d207468697360008301527f20616374696f6e000000000000000000000000000000000000000000000000006020830152604082019050919050565b60006115bc602a83611b2b565b91507f4f6e6c792061737369676e65642073757065727669736f722063616e2066616960008301527f6c207468652073746570000000000000000000000000000000000000000000006020830152604082019050919050565b6000611622602e83611b2b565b91507f4f6e6c792061737369676e65642073757065727669736f722063616e20636f6d60008301527f706c6574652074686520737465700000000000000000000000000000000000006020830152604082019050919050565b6000611688602283611b2b565b91507f4f6e6c792061646d696e2063616e20706572666f726d2074686973206163746960008301527f6f6e0000000000000000000000000000000000000000000000000000000000006020830152604082019050919050565b60006116ee601783611b2b565b91507f5374657020696e646578206f7574206f662072616e67650000000000000000006000830152602082019050919050565b600061172e601a83611b2b565b91507f50726f636573732068617320616c7265616479206661696c65640000000000006000830152602082019050919050565b600061176e601f83611b2b565b91507f416c6c2073746570732061726520616c726561647920636f6d706c65746564006000830152602082019050919050565b60006101008301600083015184820360008601526117bf8282611471565b91505060208301516117d460208601826113c0565b5060408301516117e76040860182611453565b5060608301516117fa6060860182611858565b50608083015161180d6080860182611858565b5060a083015184820360a08601526118258282611471565b91505060c083015161183a60c0860182611858565b5060e083015161184d60e0860182611453565b508091505092915050565b61186181611b7a565b82525050565b61187081611b7a565b82525050565b600060208201905061188b60008301846113cf565b92915050565b600060208201905081810360008301526118ab81846113de565b905092915050565b60006020820190506118c86000830184611462565b92915050565b60006101008201905081810360008301526118e9818b6114aa565b90506118f8602083018a6113cf565b6119056040830189611462565b6119126060830188611867565b61191f6080830187611867565b81810360a083015261193181866114aa565b905061194060c0830185611867565b61194d60e0830184611462565b9998505050505050505050565b60006020820190508181036000830152611973816114e3565b9050919050565b6000602082019050818103600083015261199381611549565b9050919050565b600060208201905081810360008301526119b3816115af565b9050919050565b600060208201905081810360008301526119d381611615565b9050919050565b600060208201905081810360008301526119f38161167b565b9050919050565b60006020820190508181036000830152611a13816116e1565b9050919050565b60006020820190508181036000830152611a3381611721565b9050919050565b60006020820190508181036000830152611a5381611761565b9050919050565b6000602082019050611a6f6000830184611867565b92915050565b6000604051905081810181811067ffffffffffffffff82111715611a9c57611a9b611c9f565b5b8060405250919050565b600067ffffffffffffffff821115611ac157611ac0611c9f565b5b601f19601f8301169050602081019050919050565b6000819050602082019050919050565b600081519050919050565b600081519050919050565b6000602082019050919050565b600082825260208201905092915050565b600082825260208201905092915050565b600082825260208201905092915050565b6000611b4782611b5a565b9050919050565b60008115159050919050565b600073ffffffffffffffffffffffffffffffffffffffff82169050919050565b6000819050919050565b82818337600083830152505050565b60005b83811015611bb1578082015181840152602081019050611b96565b83811115611bc0576000848401525b50505050565b60006002820490506001821680611bde57607f821691505b60208210811415611bf257611bf1611c70565b5b50919050565b6000611c0382611b7a565b91507fffffffffffffffffffffffffffffffffffffffffffffffffffffffffffffffff821415611c3657611c35611c41565b5b600182019050919050565b7f4e487b7100000000000000000000000000000000000000000000000000000000600052601160045260246000fd5b7f4e487b7100000000000000000000000000000000000000000000000000000000600052602260045260246000fd5b7f4e487b7100000000000000000000000000000000000000000000000000000000600052604160045260246000fd5b6000601f19601f8301169050919050565b611ce881611b3c565b8114611cf357600080fd5b50565b611cff81611b4e565b8114611d0a57600080fd5b50565b60048110611d1a57600080fd5b50565b611d2681611b7a565b8114611d3157600080fd5b5056fea26469706673582212200b5a342227c0a37b0285c15cc804a865c2a5ec47925972a5df21110b17cd7b3864736f6c63430008000033",
  "immutableReferences": {},
  "source": "// SPDX-License-Identifier: MIT\r\npragma solidity ^0.8.0;\r\n\r\nimport \"./MilkProcessFactory.sol\";\r\n\r\ncontract MilkProcess {\r\n    struct Step {\r\n        string name;\r\n        address supervisor;\r\n        bool completed;\r\n        uint startTime;\r\n        uint endTime;\r\n        string location;\r\n        uint lotNumber;\r\n        bool failed;\r\n    }\r\n\r\n    Step[] public steps;\r\n    uint public currentStepIndex;\r\n    uint public lotNumber;\r\n    address public factory;\r\n    bool public isFailed;\r\n\r\n    constructor(uint _lotNumber, address _factory) {\r\n        lotNumber = _lotNumber;\r\n        factory = _factory;\r\n        initializeSteps();\r\n        steps[0].startTime = block.timestamp;\r\n        isFailed = false;\r\n    }\r\n\r\n    function initializeSteps() internal {\r\n        steps.push(Step(\"Raccolta\", address(0), false, 0, 0, \"\", lotNumber, false));\r\n        steps.push(Step(\"Trasporto\", address(0), false, 0, 0, \"\", lotNumber, false)); // Supervisore automatico\r\n        steps.push(Step(\"Lavorazione\", address(0), false, 0, 0, \"\", lotNumber, false));\r\n        steps.push(Step(\"Confezionamento\", address(0), false, 0, 0, \"\", lotNumber, false));\r\n        steps.push(Step(\"Distribuzione\", address(0), false, 0, 0, \"\", lotNumber, false));\r\n        currentStepIndex = 0;\r\n    }\r\n\r\n    function assignSupervisor(uint stepIndex, address supervisor) external onlyAdmin {\r\n        require(stepIndex < steps.length, \"Step index out of range\");\r\n        steps[stepIndex].supervisor = supervisor;\r\n    }\r\n\r\n    function completeStep(string memory _location) external onlySupervisor {\r\n        require(!isFailed, \"Process has already failed\");\r\n        require(currentStepIndex < steps.length, \"All steps are already completed\");\r\n        Step storage step = steps[currentStepIndex];\r\n        require(msg.sender == step.supervisor, \"Only assigned supervisor can complete the step\");\r\n        step.completed = true;\r\n        step.endTime = block.timestamp;\r\n\r\n        require(isReasonableLocation(_location), \"Location is not reasonable for this step\");\r\n\r\n        step.location = _location;\r\n\r\n        currentStepIndex++;\r\n\r\n        if (currentStepIndex < steps.length) {\r\n            steps[currentStepIndex].startTime = block.timestamp;\r\n           /* if(currentStepIndex == 1){\r\n                simulateTemperatureCheck();\r\n            } */\r\n        }\r\n    }\r\n\r\n    function failStep() external onlySupervisor {\r\n        require(!isFailed, \"Process has already failed\");\r\n        require(currentStepIndex < steps.length, \"All steps are already completed\");\r\n        Step storage step = steps[currentStepIndex];\r\n        require(msg.sender == step.supervisor, \"Only assigned supervisor can fail the step\");\r\n        step.failed = true;\r\n        isFailed = true;\r\n        currentStepIndex++;\r\n    }\r\n    \r\n    /* function simulateTemperatureCheck() internal {\r\n        require(!isFailed, \"Process has already failed\");\r\n\r\n        Step storage step = steps[currentStepIndex];\r\n    \r\n        // Genera un numero casuale tra 0 e 99\r\n        uint random = uint(keccak256(abi.encodePacked(block.timestamp, block.difficulty))) % 100;\r\n\r\n        // 90% di probabilit di completamento, 10% di fallimento\r\n        if (random < 50) {\r\n            step.completed = true;\r\n            step.endTime = block.timestamp;\r\n            step.location = \"Automatic Transport\";\r\n            currentStepIndex++;\r\n            if (currentStepIndex < steps.length) {\r\n                steps[currentStepIndex].startTime = block.timestamp;\r\n            }\r\n        } else {\r\n            step.failed = true;\r\n            isFailed = true;\r\n        }\r\n    } */\r\n\r\n    function isTemperatureOK(bool valid) external {\r\n        require(!isFailed, \"Process has already failed\");\r\n\r\n        Step storage step = steps[currentStepIndex];\r\n\r\n        if (valid){\r\n            step.completed = true;\r\n            step.endTime = block.timestamp;\r\n            step.location = \"Automatic Transport\";\r\n            currentStepIndex++;\r\n            if (currentStepIndex < steps.length) {\r\n                steps[currentStepIndex].startTime = block.timestamp;\r\n            }\r\n        }else{\r\n            step.failed = true;\r\n            isFailed = true;\r\n        }\r\n    }\r\n\r\n    function isReasonableLocation(string memory _location) internal pure returns (bool) {\r\n        return bytes(_location).length > 0;\r\n    }\r\n\r\n    function isProcessCompleted() external view returns (bool) {\r\n        return currentStepIndex >= steps.length;\r\n    }\r\n\r\n    function getSteps() external view returns (Step[] memory) {\r\n        return steps;\r\n    }\r\n\r\n    modifier onlyAdmin() {\r\n        MilkProcessFactory factoryContract = MilkProcessFactory(factory);\r\n        MilkProcessFactory.Role role = factoryContract.getRole(msg.sender);\r\n        require(role == MilkProcessFactory.Role.Admin, \"Only admin can perform this action\");\r\n        _;\r\n    }\r\n\r\n    modifier onlySupervisor() {\r\n        MilkProcessFactory factoryContract = MilkProcessFactory(factory);\r\n        MilkProcessFactory.Role role = factoryContract.getRole(msg.sender);\r\n        require(role == MilkProcessFactory.Role.Supervisor, \"Only supervisor can perform this action\");\r\n        _;\r\n    }\r\n}",
  "sourcePath": "C:\\Users\\gbeks\\OneDrive\\Desktop\\MilkChain\\backend\\contracts\\MilkProcess.sol",
  "compiler": {
    "name": "solc",
    "version": "0.8.0+commit.c7dfd78e.Emscripten.clang"
  },
  "schemaVersion": "3.4.16",
  "updatedAt": "2024-07-10T18:10:45.969Z",
  "devdoc": {
    "kind": "dev",
    "methods": {},
    "version": 1
  },
  "userdoc": {
    "kind": "user",
    "methods": {},
    "version": 1
  }
}