{
  "contractName": "MilkChain",
  "abi": [
    {
      "inputs": [],
      "stateMutability": "nonpayable",
      "type": "constructor"
    },
    {
      "anonymous": false,
      "inputs": [],
      "name": "ProcessReset",
      "type": "event"
    },
    {
      "anonymous": false,
      "inputs": [
        {
          "indexed": false,
          "internalType": "uint256",
          "name": "stepIndex",
          "type": "uint256"
        },
        {
          "indexed": false,
          "internalType": "string",
          "name": "name",
          "type": "string"
        }
      ],
      "name": "StepCompleted",
      "type": "event"
    },
    {
      "inputs": [],
      "name": "currentStepIndex",
      "outputs": [
        {
          "internalType": "uint256",
          "name": "",
          "type": "uint256"
        }
      ],
      "stateMutability": "view",
      "type": "function",
      "constant": true
    },
    {
      "inputs": [
        {
          "internalType": "uint256",
          "name": "",
          "type": "uint256"
        }
      ],
      "name": "steps",
      "outputs": [
        {
          "internalType": "string",
          "name": "name",
          "type": "string"
        },
        {
          "internalType": "address",
          "name": "supervisor",
          "type": "address"
        },
        {
          "internalType": "bool",
          "name": "completed",
          "type": "bool"
        }
      ],
      "stateMutability": "view",
      "type": "function",
      "constant": true
    },
    {
      "inputs": [
        {
          "internalType": "uint256",
          "name": "stepIndex",
          "type": "uint256"
        },
        {
          "internalType": "address",
          "name": "supervisor",
          "type": "address"
        }
      ],
      "name": "assignSupervisor",
      "outputs": [],
      "stateMutability": "nonpayable",
      "type": "function"
    },
    {
      "inputs": [],
      "name": "completeStep",
      "outputs": [],
      "stateMutability": "nonpayable",
      "type": "function"
    },
    {
      "inputs": [],
      "name": "resetProcess",
      "outputs": [],
      "stateMutability": "nonpayable",
      "type": "function"
    },
    {
      "inputs": [],
      "name": "getStepsLength",
      "outputs": [
        {
          "internalType": "uint256",
          "name": "",
          "type": "uint256"
        }
      ],
      "stateMutability": "view",
      "type": "function",
      "constant": true
    },
    {
      "inputs": [
        {
          "internalType": "uint256",
          "name": "index",
          "type": "uint256"
        }
      ],
      "name": "getStep",
      "outputs": [
        {
          "internalType": "string",
          "name": "",
          "type": "string"
        },
        {
          "internalType": "address",
          "name": "",
          "type": "address"
        },
        {
          "internalType": "bool",
          "name": "",
          "type": "bool"
        }
      ],
      "stateMutability": "view",
      "type": "function",
      "constant": true
    },
    {
      "inputs": [],
      "name": "isProcessCompleted",
      "outputs": [
        {
          "internalType": "bool",
          "name": "",
          "type": "bool"
        }
      ],
      "stateMutability": "view",
      "type": "function",
      "constant": true
    }
  ],
  "bytecode": "0x60806040523480156200001157600080fd5b50620000226200002860201b60201c565b620006d8565b600060405180606001604052806040518060400160405280600881526020017f526163636f6c74610000000000000000000000000000000000000000000000008152508152602001600073ffffffffffffffffffffffffffffffffffffffff1681526020016000151581525090806001815401808255809150506001900390600052602060002090600202016000909190919091506000820151816000019080519060200190620000db929190620005c3565b5060208201518160010160006101000a81548173ffffffffffffffffffffffffffffffffffffffff021916908373ffffffffffffffffffffffffffffffffffffffff16021790555060408201518160010160146101000a81548160ff0219169083151502179055505050600060405180606001604052806040518060400160405280600981526020017f54726173706f72746f00000000000000000000000000000000000000000000008152508152602001600073ffffffffffffffffffffffffffffffffffffffff1681526020016000151581525090806001815401808255809150506001900390600052602060002090600202016000909190919091506000820151816000019080519060200190620001f8929190620005c3565b5060208201518160010160006101000a81548173ffffffffffffffffffffffffffffffffffffffff021916908373ffffffffffffffffffffffffffffffffffffffff16021790555060408201518160010160146101000a81548160ff0219169083151502179055505050600060405180606001604052806040518060400160405280600b81526020017f4c61766f72617a696f6e650000000000000000000000000000000000000000008152508152602001600073ffffffffffffffffffffffffffffffffffffffff168152602001600015158152509080600181540180825580915050600190039060005260206000209060020201600090919091909150600082015181600001908051906020019062000315929190620005c3565b5060208201518160010160006101000a81548173ffffffffffffffffffffffffffffffffffffffff021916908373ffffffffffffffffffffffffffffffffffffffff16021790555060408201518160010160146101000a81548160ff0219169083151502179055505050600060405180606001604052806040518060400160405280600f81526020017f436f6e66657a696f6e616d656e746f00000000000000000000000000000000008152508152602001600073ffffffffffffffffffffffffffffffffffffffff168152602001600015158152509080600181540180825580915050600190039060005260206000209060020201600090919091909150600082015181600001908051906020019062000432929190620005c3565b5060208201518160010160006101000a81548173ffffffffffffffffffffffffffffffffffffffff021916908373ffffffffffffffffffffffffffffffffffffffff16021790555060408201518160010160146101000a81548160ff0219169083151502179055505050600060405180606001604052806040518060400160405280600d81526020017f44697374726962757a696f6e65000000000000000000000000000000000000008152508152602001600073ffffffffffffffffffffffffffffffffffffffff16815260200160001515815250908060018154018082558091505060019003906000526020600020906002020160009091909190915060008201518160000190805190602001906200054f929190620005c3565b5060208201518160010160006101000a81548173ffffffffffffffffffffffffffffffffffffffff021916908373ffffffffffffffffffffffffffffffffffffffff16021790555060408201518160010160146101000a81548160ff02191690831515021790555050506000600181905550565b828054620005d19062000673565b90600052602060002090601f016020900481019282620005f5576000855562000641565b82601f106200061057805160ff191683800117855562000641565b8280016001018555821562000641579182015b828111156200064057825182559160200191906001019062000623565b5b50905062000650919062000654565b5090565b5b808211156200066f57600081600090555060010162000655565b5090565b600060028204905060018216806200068c57607f821691505b60208210811415620006a357620006a2620006a9565b5b50919050565b7f4e487b7100000000000000000000000000000000000000000000000000000000600052602260045260246000fd5b61130280620006e86000396000f3fe608060405234801561001057600080fd5b50600436106100885760003560e01c80638b1659f51161005b5780638b1659f51461012b5780639bb64425146101495780639f9a19d314610153578063c904b7421461015d57610088565b8063334f45ec1461008d57806344054931146100ab5780637217e0b9146100c75780637874888a146100f9575b600080fd5b61009561017b565b6040516100a291906110bd565b60405180910390f35b6100c560048036038101906100c09190610dfc565b610181565b005b6100e160048036038101906100dc9190610dd3565b610256565b6040516100f09392919061101f565b60405180910390f35b610113600480360381019061010e9190610dd3565b610345565b6040516101229392919061101f565b60405180910390f35b6101336104b1565b6040516101409190611004565b60405180910390f35b6101516104c2565b005b61015b610660565b005b6101656106a3565b60405161017291906110bd565b60405180910390f35b60015481565b60008054905082106101c8576040517f08c379a00000000000000000000000000000000000000000000000000000000081526004016101bf9061107d565b60405180910390fd5b8060008381548110610203577f4e487b7100000000000000000000000000000000000000000000000000000000600052603260045260246000fd5b906000526020600020906002020160010160006101000a81548173ffffffffffffffffffffffffffffffffffffffff021916908373ffffffffffffffffffffffffffffffffffffffff1602179055505050565b6000818154811061026657600080fd5b9060005260206000209060020201600091509050806000018054610289906111b4565b80601f01602080910402602001604051908101604052809291908181526020018280546102b5906111b4565b80156103025780601f106102d757610100808354040283529160200191610302565b820191906000526020600020905b8154815290600101906020018083116102e557829003601f168201915b5050505050908060010160009054906101000a900473ffffffffffffffffffffffffffffffffffffffff16908060010160149054906101000a900460ff16905083565b60606000806000805490508410610391576040517f08c379a00000000000000000000000000000000000000000000000000000000081526004016103889061107d565b60405180910390fd5b60008085815481106103cc577f4e487b7100000000000000000000000000000000000000000000000000000000600052603260045260246000fd5b90600052602060002090600202019050806000018160010160009054906101000a900473ffffffffffffffffffffffffffffffffffffffff168260010160149054906101000a900460ff16828054610423906111b4565b80601f016020809104026020016040519081016040528092919081815260200182805461044f906111b4565b801561049c5780601f106104715761010080835404028352916020019161049c565b820191906000526020600020905b81548152906001019060200180831161047f57829003601f168201915b50505050509250935093509350509193909250565b600080805490506001541015905090565b6000805490506001541061050b576040517f08c379a00000000000000000000000000000000000000000000000000000000081526004016105029061109d565b60405180910390fd5b60008060015481548110610548577f4e487b7100000000000000000000000000000000000000000000000000000000600052603260045260246000fd5b906000526020600020906002020190508060010160009054906101000a900473ffffffffffffffffffffffffffffffffffffffff1673ffffffffffffffffffffffffffffffffffffffff163373ffffffffffffffffffffffffffffffffffffffff16146105ea576040517f08c379a00000000000000000000000000000000000000000000000000000000081526004016105e19061105d565b60405180910390fd5b60018160010160146101000a81548160ff0219169083151502179055507f331dea1906ab4ac6c9712817adb405af5a6a92b1a97cf8c93370ca95f49182086001548260000160405161063d9291906110d8565b60405180910390a160016000815480929190610658906111e6565b919050555050565b60008061066d9190610c40565b6106756106af565b7f52d42945e3a5657f589346719c0b4f6dc292035ec23b7d03097fc496109aff4660405160405180910390a1565b60008080549050905090565b600060405180606001604052806040518060400160405280600881526020017f526163636f6c74610000000000000000000000000000000000000000000000008152508152602001600073ffffffffffffffffffffffffffffffffffffffff1681526020016000151581525090806001815401808255809150506001900390600052602060002090600202016000909190919091506000820151816000019080519060200190610760929190610c64565b5060208201518160010160006101000a81548173ffffffffffffffffffffffffffffffffffffffff021916908373ffffffffffffffffffffffffffffffffffffffff16021790555060408201518160010160146101000a81548160ff0219169083151502179055505050600060405180606001604052806040518060400160405280600981526020017f54726173706f72746f00000000000000000000000000000000000000000000008152508152602001600073ffffffffffffffffffffffffffffffffffffffff168152602001600015158152509080600181540180825580915050600190039060005260206000209060020201600090919091909150600082015181600001908051906020019061087b929190610c64565b5060208201518160010160006101000a81548173ffffffffffffffffffffffffffffffffffffffff021916908373ffffffffffffffffffffffffffffffffffffffff16021790555060408201518160010160146101000a81548160ff0219169083151502179055505050600060405180606001604052806040518060400160405280600b81526020017f4c61766f72617a696f6e650000000000000000000000000000000000000000008152508152602001600073ffffffffffffffffffffffffffffffffffffffff1681526020016000151581525090806001815401808255809150506001900390600052602060002090600202016000909190919091506000820151816000019080519060200190610996929190610c64565b5060208201518160010160006101000a81548173ffffffffffffffffffffffffffffffffffffffff021916908373ffffffffffffffffffffffffffffffffffffffff16021790555060408201518160010160146101000a81548160ff0219169083151502179055505050600060405180606001604052806040518060400160405280600f81526020017f436f6e66657a696f6e616d656e746f00000000000000000000000000000000008152508152602001600073ffffffffffffffffffffffffffffffffffffffff1681526020016000151581525090806001815401808255809150506001900390600052602060002090600202016000909190919091506000820151816000019080519060200190610ab1929190610c64565b5060208201518160010160006101000a81548173ffffffffffffffffffffffffffffffffffffffff021916908373ffffffffffffffffffffffffffffffffffffffff16021790555060408201518160010160146101000a81548160ff0219169083151502179055505050600060405180606001604052806040518060400160405280600d81526020017f44697374726962757a696f6e65000000000000000000000000000000000000008152508152602001600073ffffffffffffffffffffffffffffffffffffffff1681526020016000151581525090806001815401808255809150506001900390600052602060002090600202016000909190919091506000820151816000019080519060200190610bcc929190610c64565b5060208201518160010160006101000a81548173ffffffffffffffffffffffffffffffffffffffff021916908373ffffffffffffffffffffffffffffffffffffffff16021790555060408201518160010160146101000a81548160ff02191690831515021790555050506000600181905550565b5080546000825560020290600052602060002090810190610c619190610cea565b50565b828054610c70906111b4565b90600052602060002090601f016020900481019282610c925760008555610cd9565b82601f10610cab57805160ff1916838001178555610cd9565b82800160010185558215610cd9579182015b82811115610cd8578251825591602001919060010190610cbd565b5b509050610ce69190610d4c565b5090565b5b80821115610d485760008082016000610d049190610d69565b6001820160006101000a81549073ffffffffffffffffffffffffffffffffffffffff02191690556001820160146101000a81549060ff021916905550600201610ceb565b5090565b5b80821115610d65576000816000905550600101610d4d565b5090565b508054610d75906111b4565b6000825580601f10610d875750610da6565b601f016020900490600052602060002090810190610da59190610d4c565b5b50565b600081359050610db88161129e565b92915050565b600081359050610dcd816112b5565b92915050565b600060208284031215610de557600080fd5b6000610df384828501610dbe565b91505092915050565b60008060408385031215610e0f57600080fd5b6000610e1d85828601610dbe565b9250506020610e2e85828601610da9565b9150509250929050565b610e4181611139565b82525050565b610e508161114b565b82525050565b6000610e618261111d565b610e6b8185611128565b9350610e7b818560208601611181565b610e848161128d565b840191505092915050565b60008154610e9c816111b4565b610ea68186611128565b94506001821660008114610ec15760018114610ed357610f06565b60ff1983168652602086019350610f06565b610edc85611108565b60005b83811015610efe57815481890152600182019150602081019050610edf565b808801955050505b50505092915050565b6000610f1c602e83611128565b91507f4f6e6c792061737369676e65642073757065727669736f722063616e20636f6d60008301527f706c6574652074686520737465700000000000000000000000000000000000006020830152604082019050919050565b6000610f82601783611128565b91507f5374657020696e646578206f7574206f662072616e67650000000000000000006000830152602082019050919050565b6000610fc2601f83611128565b91507f416c6c2073746570732061726520616c726561647920636f6d706c65746564006000830152602082019050919050565b610ffe81611177565b82525050565b60006020820190506110196000830184610e47565b92915050565b600060608201905081810360008301526110398186610e56565b90506110486020830185610e38565b6110556040830184610e47565b949350505050565b6000602082019050818103600083015261107681610f0f565b9050919050565b6000602082019050818103600083015261109681610f75565b9050919050565b600060208201905081810360008301526110b681610fb5565b9050919050565b60006020820190506110d26000830184610ff5565b92915050565b60006040820190506110ed6000830185610ff5565b81810360208301526110ff8184610e8f565b90509392505050565b60008190508160005260206000209050919050565b600081519050919050565b600082825260208201905092915050565b600061114482611157565b9050919050565b60008115159050919050565b600073ffffffffffffffffffffffffffffffffffffffff82169050919050565b6000819050919050565b60005b8381101561119f578082015181840152602081019050611184565b838111156111ae576000848401525b50505050565b600060028204905060018216806111cc57607f821691505b602082108114156111e0576111df61125e565b5b50919050565b60006111f182611177565b91507fffffffffffffffffffffffffffffffffffffffffffffffffffffffffffffffff8214156112245761122361122f565b5b600182019050919050565b7f4e487b7100000000000000000000000000000000000000000000000000000000600052601160045260246000fd5b7f4e487b7100000000000000000000000000000000000000000000000000000000600052602260045260246000fd5b6000601f19601f8301169050919050565b6112a781611139565b81146112b257600080fd5b50565b6112be81611177565b81146112c957600080fd5b5056fea2646970667358221220e3344e466d70904bdd172a41b786a0b24e2a02971dbc2059d77bb0e4a025db3264736f6c63430008000033",
  "immutableReferences": {},
  "source": "// SPDX-License-Identifier: MIT\r\npragma solidity ^0.8.0;\r\n\r\ncontract MilkChain {\r\n    struct Step {\r\n        string name;\r\n        address supervisor;\r\n        bool completed;\r\n    }\r\n\r\n    Step[] public steps;\r\n    uint public currentStepIndex;\r\n\r\n    event StepCompleted(uint stepIndex, string name);\r\n    event ProcessReset();\r\n\r\n    constructor() {\r\n        initializeSteps();\r\n    }\r\n\r\n    function initializeSteps() internal {\r\n        steps.push(Step(\"Raccolta\", address(0), false));\r\n        steps.push(Step(\"Trasporto\", address(0), false));\r\n        steps.push(Step(\"Lavorazione\", address(0), false));\r\n        steps.push(Step(\"Confezionamento\", address(0), false));\r\n        steps.push(Step(\"Distribuzione\", address(0), false));\r\n        currentStepIndex = 0;\r\n    }\r\n\r\n    function assignSupervisor(uint stepIndex, address supervisor) public {\r\n        require(stepIndex < steps.length, \"Step index out of range\");\r\n        steps[stepIndex].supervisor = supervisor;\r\n    }\r\n\r\n    function completeStep() public {\r\n        require(currentStepIndex < steps.length, \"All steps are already completed\");\r\n        Step storage step = steps[currentStepIndex];\r\n        require(msg.sender == step.supervisor, \"Only assigned supervisor can complete the step\");\r\n        step.completed = true;\r\n        emit StepCompleted(currentStepIndex, step.name);\r\n        currentStepIndex++;\r\n    }\r\n\r\n    function resetProcess() public {\r\n        delete steps;\r\n        initializeSteps();\r\n        emit ProcessReset();\r\n    }\r\n\r\n    function getStepsLength() public view returns (uint) {\r\n        return steps.length;\r\n    }\r\n\r\n    function getStep(uint index) public view returns (string memory, address, bool) {\r\n        require(index < steps.length, \"Step index out of range\");\r\n        Step storage step = steps[index];\r\n        return (step.name, step.supervisor, step.completed);\r\n    }\r\n\r\n    function isProcessCompleted() public view returns (bool) {\r\n        return currentStepIndex >= steps.length;\r\n    }\r\n}\r\n",
  "sourcePath": "C:\\Users\\samue\\Desktop\\MilkChain\\backend\\contracts\\MilkChain.sol",
  "compiler": {
    "name": "solc",
    "version": "0.8.0+commit.c7dfd78e.Emscripten.clang"
  },
  "schemaVersion": "3.4.16",
  "updatedAt": "2024-06-23T23:09:39.983Z",
  "networkType": "ethereum",
  "devdoc": {
    "kind": "dev",
    "methods": {},
    "version": 1
  },
  "userdoc": {
    "kind": "user",
    "methods": {},
    "version": 1
  }
}