{
  "contractName": "MilkChain",
  "abi": [
    {
      "inputs": [],
      "stateMutability": "nonpayable",
      "type": "constructor"
    },
    {
      "anonymous": false,
      "inputs": [
        {
          "indexed": false,
          "internalType": "uint256",
          "name": "newLotNumber",
          "type": "uint256"
        }
      ],
      "name": "ProcessReset",
      "type": "event"
    },
    {
      "anonymous": false,
      "inputs": [
        {
          "indexed": false,
          "internalType": "uint256",
          "name": "lotNumber",
          "type": "uint256"
        },
        {
          "indexed": false,
          "internalType": "uint256",
          "name": "stepIndex",
          "type": "uint256"
        },
        {
          "indexed": false,
          "internalType": "string",
          "name": "name",
          "type": "string"
        },
        {
          "indexed": false,
          "internalType": "uint256",
          "name": "startTime",
          "type": "uint256"
        },
        {
          "indexed": false,
          "internalType": "uint256",
          "name": "endTime",
          "type": "uint256"
        }
      ],
      "name": "StepCompleted",
      "type": "event"
    },
    {
      "inputs": [],
      "name": "currentLotNumber",
      "outputs": [
        {
          "internalType": "uint256",
          "name": "",
          "type": "uint256"
        }
      ],
      "stateMutability": "view",
      "type": "function",
      "constant": true
    },
    {
      "inputs": [
        {
          "internalType": "uint256",
          "name": "",
          "type": "uint256"
        }
      ],
      "name": "processes",
      "outputs": [
        {
          "internalType": "uint256",
          "name": "currentStepIndex",
          "type": "uint256"
        },
        {
          "internalType": "uint256",
          "name": "lotNumber",
          "type": "uint256"
        }
      ],
      "stateMutability": "view",
      "type": "function",
      "constant": true
    },
    {
      "inputs": [],
      "name": "createNewProcess",
      "outputs": [],
      "stateMutability": "nonpayable",
      "type": "function"
    },
    {
      "inputs": [
        {
          "internalType": "uint256",
          "name": "lotNumber",
          "type": "uint256"
        },
        {
          "internalType": "uint256",
          "name": "stepIndex",
          "type": "uint256"
        },
        {
          "internalType": "address",
          "name": "supervisor",
          "type": "address"
        }
      ],
      "name": "assignSupervisor",
      "outputs": [],
      "stateMutability": "nonpayable",
      "type": "function"
    },
    {
      "inputs": [
        {
          "internalType": "uint256",
          "name": "lotNumber",
          "type": "uint256"
        },
        {
          "internalType": "string",
          "name": "_location",
          "type": "string"
        }
      ],
      "name": "completeStep",
      "outputs": [],
      "stateMutability": "nonpayable",
      "type": "function"
    },
    {
      "inputs": [
        {
          "internalType": "uint256",
          "name": "lotNumber",
          "type": "uint256"
        }
      ],
      "name": "getStepsLength",
      "outputs": [
        {
          "internalType": "uint256",
          "name": "",
          "type": "uint256"
        }
      ],
      "stateMutability": "view",
      "type": "function",
      "constant": true
    },
    {
      "inputs": [
        {
          "internalType": "uint256",
          "name": "lotNumber",
          "type": "uint256"
        },
        {
          "internalType": "uint256",
          "name": "index",
          "type": "uint256"
        }
      ],
      "name": "getStep",
      "outputs": [
        {
          "internalType": "string",
          "name": "",
          "type": "string"
        },
        {
          "internalType": "address",
          "name": "",
          "type": "address"
        },
        {
          "internalType": "bool",
          "name": "",
          "type": "bool"
        },
        {
          "internalType": "uint256",
          "name": "",
          "type": "uint256"
        },
        {
          "internalType": "uint256",
          "name": "",
          "type": "uint256"
        },
        {
          "internalType": "string",
          "name": "",
          "type": "string"
        },
        {
          "internalType": "uint256",
          "name": "",
          "type": "uint256"
        }
      ],
      "stateMutability": "view",
      "type": "function",
      "constant": true
    },
    {
      "inputs": [
        {
          "internalType": "uint256",
          "name": "lotNumber",
          "type": "uint256"
        }
      ],
      "name": "isProcessCompleted",
      "outputs": [
        {
          "internalType": "bool",
          "name": "",
          "type": "bool"
        }
      ],
      "stateMutability": "view",
      "type": "function",
      "constant": true
    },
    {
      "inputs": [
        {
          "internalType": "uint256",
          "name": "lotNumber",
          "type": "uint256"
        }
      ],
      "name": "getCurrentStepIndex",
      "outputs": [
        {
          "internalType": "uint256",
          "name": "",
          "type": "uint256"
        }
      ],
      "stateMutability": "view",
      "type": "function",
      "constant": true
    },
    {
      "inputs": [],
      "name": "getCurrentLotNumber",
      "outputs": [
        {
          "internalType": "uint256",
          "name": "",
          "type": "uint256"
        }
      ],
      "stateMutability": "view",
      "type": "function",
      "constant": true
    },
    {
      "inputs": [
        {
          "internalType": "uint256",
          "name": "lotNumber",
          "type": "uint256"
        },
        {
          "internalType": "uint256",
          "name": "index",
          "type": "uint256"
        },
        {
          "internalType": "string",
          "name": "name",
          "type": "string"
        }
      ],
      "name": "setStepName",
      "outputs": [],
      "stateMutability": "nonpayable",
      "type": "function"
    },
    {
      "inputs": [
        {
          "internalType": "uint256",
          "name": "lotNumber",
          "type": "uint256"
        },
        {
          "internalType": "uint256",
          "name": "index",
          "type": "uint256"
        },
        {
          "internalType": "address",
          "name": "supervisor",
          "type": "address"
        }
      ],
      "name": "setStepSupervisor",
      "outputs": [],
      "stateMutability": "nonpayable",
      "type": "function"
    },
    {
      "inputs": [
        {
          "internalType": "uint256",
          "name": "lotNumber",
          "type": "uint256"
        },
        {
          "internalType": "uint256",
          "name": "index",
          "type": "uint256"
        },
        {
          "internalType": "string",
          "name": "location",
          "type": "string"
        }
      ],
      "name": "setStepLocation",
      "outputs": [],
      "stateMutability": "nonpayable",
      "type": "function"
    },
    {
      "inputs": [
        {
          "internalType": "uint256",
          "name": "lotNumber",
          "type": "uint256"
        },
        {
          "internalType": "uint256",
          "name": "index",
          "type": "uint256"
        },
        {
          "internalType": "bool",
          "name": "completed",
          "type": "bool"
        }
      ],
      "name": "setStepCompleted",
      "outputs": [],
      "stateMutability": "nonpayable",
      "type": "function"
    },
    {
      "inputs": [
        {
          "internalType": "uint256",
          "name": "lotNumber",
          "type": "uint256"
        },
        {
          "internalType": "uint256",
          "name": "index",
          "type": "uint256"
        },
        {
          "internalType": "uint256",
          "name": "startTime",
          "type": "uint256"
        }
      ],
      "name": "setStepStartTime",
      "outputs": [],
      "stateMutability": "nonpayable",
      "type": "function"
    },
    {
      "inputs": [
        {
          "internalType": "uint256",
          "name": "lotNumber",
          "type": "uint256"
        },
        {
          "internalType": "uint256",
          "name": "index",
          "type": "uint256"
        },
        {
          "internalType": "uint256",
          "name": "endTime",
          "type": "uint256"
        }
      ],
      "name": "setStepEndTime",
      "outputs": [],
      "stateMutability": "nonpayable",
      "type": "function"
    },
    {
      "inputs": [
        {
          "internalType": "uint256",
          "name": "lotNumber",
          "type": "uint256"
        },
        {
          "internalType": "uint256",
          "name": "index",
          "type": "uint256"
        },
        {
          "internalType": "uint256",
          "name": "newLotNumber",
          "type": "uint256"
        }
      ],
      "name": "setLotNumber",
      "outputs": [],
      "stateMutability": "nonpayable",
      "type": "function"
    },
    {
      "inputs": [
        {
          "internalType": "uint256",
          "name": "lotNumber",
          "type": "uint256"
        }
      ],
      "name": "getLot",
      "outputs": [
        {
          "components": [
            {
              "internalType": "string",
              "name": "name",
              "type": "string"
            },
            {
              "internalType": "address",
              "name": "supervisor",
              "type": "address"
            },
            {
              "internalType": "bool",
              "name": "completed",
              "type": "bool"
            },
            {
              "internalType": "uint256",
              "name": "startTime",
              "type": "uint256"
            },
            {
              "internalType": "uint256",
              "name": "endTime",
              "type": "uint256"
            },
            {
              "internalType": "string",
              "name": "location",
              "type": "string"
            },
            {
              "internalType": "uint256",
              "name": "lotNumber",
              "type": "uint256"
            }
          ],
          "internalType": "struct MilkChain.Step[]",
          "name": "",
          "type": "tuple[]"
        }
      ],
      "stateMutability": "view",
      "type": "function",
      "constant": true
    }
  ],
  "bytecode": "0x608060405234801561001057600080fd5b5060018081905550612867806100276000396000f3fe608060405234801561001057600080fd5b50600436106101165760003560e01c80637bc23f61116100a2578063ad1e954e11610071578063ad1e954e146102e0578063c9b021c2146102fe578063d996570e1461031c578063f13b259614610338578063f89a878f1461036857610116565b80637bc23f611461025a578063848d8dac1461028a578063893c12dd14610294578063ab995d12146102b057610116565b80632a2ed04e116100e95780632a2ed04e1461019f5780633cf4e5af146101bb5780633f5a7923146101d75780634db04508146101f3578063579e51c71461022957610116565b8063029059081461011b57806308c0cad61461013757806310f4f1ee1461016757806318906e7b14610183575b600080fd5b61013560048036038101906101309190611ee7565b610384565b005b610151600480360381019061014c9190611d90565b61044b565b60405161015e919061249b565b60405180910390f35b610181600480360381019061017c9190611f4e565b61046d565b005b61019d60048036038101906101989190611e98565b610524565b005b6101b960048036038101906101b49190611f4e565b6105ee565b005b6101d560048036038101906101d09190611f4e565b6106a5565b005b6101f160048036038101906101ec9190611ee7565b61075c565b005b61020d60048036038101906102089190611e0d565b610823565b604051610220979695949392919061239e565b60405180910390f35b610243600480360381019061023e9190611d90565b610a5d565b6040516102519291906124b6565b60405180910390f35b610274600480360381019061026f9190611d90565b610a81565b604051610281919061249b565b60405180910390f35b610292610aa0565b005b6102ae60048036038101906102a99190611e49565b610ae7565b005b6102ca60048036038101906102c59190611d90565b610bd8565b6040516102d79190612361565b60405180910390f35b6102e8610ff2565b6040516102f5919061249b565b60405180910390f35b610306610ffc565b604051610313919061249b565b60405180910390f35b61033660048036038101906103319190611db9565b611002565b005b610352600480360381019061034d9190611d90565b61131f565b60405161035f9190612383565b60405180910390f35b610382600480360381019061037d9190611e49565b61134d565b005b60008060008581526020019081526020016000209050806000018054905083106103e3576040517f08c379a00000000000000000000000000000000000000000000000000000000081526004016103da9061245b565b60405180910390fd5b81816000018481548110610420577f4e487b7100000000000000000000000000000000000000000000000000000000600052603260045260246000fd5b90600052602060002090600602016000019080519060200190610444929190611bf1565b5050505050565b6000806000838152602001908152602001600020600001805490509050919050565b60008060008581526020019081526020016000209050806000018054905083106104cc576040517f08c379a00000000000000000000000000000000000000000000000000000000081526004016104c39061245b565b60405180910390fd5b81816000018481548110610509577f4e487b7100000000000000000000000000000000000000000000000000000000600052603260045260246000fd5b90600052602060002090600602016005018190555050505050565b6000806000858152602001908152602001600020905080600001805490508310610583576040517f08c379a000000000000000000000000000000000000000000000000000000000815260040161057a9061245b565b60405180910390fd5b818160000184815481106105c0577f4e487b7100000000000000000000000000000000000000000000000000000000600052603260045260246000fd5b906000526020600020906006020160010160146101000a81548160ff02191690831515021790555050505050565b600080600085815260200190815260200160002090508060000180549050831061064d576040517f08c379a00000000000000000000000000000000000000000000000000000000081526004016106449061245b565b60405180910390fd5b8181600001848154811061068a577f4e487b7100000000000000000000000000000000000000000000000000000000600052603260045260246000fd5b90600052602060002090600602016002018190555050505050565b6000806000858152602001908152602001600020905080600001805490508310610704576040517f08c379a00000000000000000000000000000000000000000000000000000000081526004016106fb9061245b565b60405180910390fd5b81816000018481548110610741577f4e487b7100000000000000000000000000000000000000000000000000000000600052603260045260246000fd5b90600052602060002090600602016003018190555050505050565b60008060008581526020019081526020016000209050806000018054905083106107bb576040517f08c379a00000000000000000000000000000000000000000000000000000000081526004016107b29061245b565b60405180910390fd5b818160000184815481106107f8577f4e487b7100000000000000000000000000000000000000000000000000000000600052603260045260246000fd5b9060005260206000209060060201600401908051906020019061081c929190611bf1565b5050505050565b606060008060008060606000806000808b815260200190815260200160002090508060000180549050891061088d576040517f08c379a00000000000000000000000000000000000000000000000000000000081526004016108849061245b565b60405180910390fd5b6000816000018a815481106108cb577f4e487b7100000000000000000000000000000000000000000000000000000000600052603260045260246000fd5b90600052602060002090600602019050806000018160010160009054906101000a900473ffffffffffffffffffffffffffffffffffffffff168260010160149054906101000a900460ff1683600201548460030154856004018660050154868054610935906126d3565b80601f0160208091040260200160405190810160405280929190818152602001828054610961906126d3565b80156109ae5780601f10610983576101008083540402835291602001916109ae565b820191906000526020600020905b81548152906001019060200180831161099157829003601f168201915b505050505096508180546109c1906126d3565b80601f01602080910402602001604051908101604052809291908181526020018280546109ed906126d3565b8015610a3a5780601f10610a0f57610100808354040283529160200191610a3a565b820191906000526020600020905b815481529060010190602001808311610a1d57829003601f168201915b505050505091509850985098509850985098509850505092959891949750929550565b60006020528060005260406000206000915090508060010154908060020154905082565b6000806000838152602001908152602001600020600101549050919050565b6000806000600154815260200190815260200160002090506001548160020181905550610acc8161143e565b60016000815480929190610adf90612705565b919050555050565b6000806000858152602001908152602001600020905080600001805490508310610b46576040517f08c379a0000000000000000000000000000000000000000000000000000000008152600401610b3d9061245b565b60405180910390fd5b81816000018481548110610b83577f4e487b7100000000000000000000000000000000000000000000000000000000600052603260045260246000fd5b906000526020600020906006020160010160006101000a81548173ffffffffffffffffffffffffffffffffffffffff021916908373ffffffffffffffffffffffffffffffffffffffff16021790555050505050565b6060600080600084815260200190815260200160002090506000805b8260000180549050811015610c8557826000018181548110610c3f577f4e487b7100000000000000000000000000000000000000000000000000000000600052603260045260246000fd5b906000526020600020906006020160010160149054906101000a900460ff1615610c72578180610c6e90612705565b9250505b8080610c7d90612705565b915050610bf4565b5060008167ffffffffffffffff811115610cc8577f4e487b7100000000000000000000000000000000000000000000000000000000600052604160045260246000fd5b604051908082528060200260200182016040528015610d0157816020015b610cee611c77565b815260200190600190039081610ce65790505b5090506000805b8460000180549050811015610fe557846000018181548110610d53577f4e487b7100000000000000000000000000000000000000000000000000000000600052603260045260246000fd5b906000526020600020906006020160010160149054906101000a900460ff1615610fd257846000018181548110610db3577f4e487b7100000000000000000000000000000000000000000000000000000000600052603260045260246000fd5b90600052602060002090600602016040518060e0016040529081600082018054610ddc906126d3565b80601f0160208091040260200160405190810160405280929190818152602001828054610e08906126d3565b8015610e555780601f10610e2a57610100808354040283529160200191610e55565b820191906000526020600020905b815481529060010190602001808311610e3857829003601f168201915b505050505081526020016001820160009054906101000a900473ffffffffffffffffffffffffffffffffffffffff1673ffffffffffffffffffffffffffffffffffffffff1673ffffffffffffffffffffffffffffffffffffffff1681526020016001820160149054906101000a900460ff161515151581526020016002820154815260200160038201548152602001600482018054610ef3906126d3565b80601f0160208091040260200160405190810160405280929190818152602001828054610f1f906126d3565b8015610f6c5780601f10610f4157610100808354040283529160200191610f6c565b820191906000526020600020905b815481529060010190602001808311610f4f57829003601f168201915b50505050508152602001600582015481525050838381518110610fb8577f4e487b7100000000000000000000000000000000000000000000000000000000600052603260045260246000fd5b60200260200101819052508180610fce90612705565b9250505b8080610fdd90612705565b915050610d08565b5081945050505050919050565b6000600154905090565b60015481565b600080600084815260200190815260200160002090508060000180549050816001015410611065576040517f08c379a000000000000000000000000000000000000000000000000000000000815260040161105c9061247b565b60405180910390fd5b6000816000018260010154815481106110a7577f4e487b7100000000000000000000000000000000000000000000000000000000600052603260045260246000fd5b906000526020600020906006020190508060010160009054906101000a900473ffffffffffffffffffffffffffffffffffffffff1673ffffffffffffffffffffffffffffffffffffffff163373ffffffffffffffffffffffffffffffffffffffff1614611149576040517f08c379a00000000000000000000000000000000000000000000000000000000081526004016111409061243b565b60405180910390fd5b60018160010160146101000a81548160ff02191690831515021790555042816003018190555060008260010154141561118a574281600201819055506111f1565b816000016001836001015461119f9190612615565b815481106111d6577f4e487b7100000000000000000000000000000000000000000000000000000000600052603260045260246000fd5b90600052602060002090600602016003015481600201819055505b6111fa83611be4565b611239576040517f08c379a00000000000000000000000000000000000000000000000000000000081526004016112309061241b565b60405180910390fd5b82816004019080519060200190611251929190611bf1565b50816002015481600501819055507fb3447c6de1d70d27939345be37b9c609fbccee94d8b16186ecbcd6136b95c7be8260020154836001015483600001846002015485600301546040516112a99594939291906124df565b60405180910390a18160010160008154809291906112c690612705565b91905055508160000180549050826001015410611319577f74c97f258db595b9ae4389bbb720db98e2437f4c7e079c5ef85dc56ac62a4d888260020154604051611310919061249b565b60405180910390a15b50505050565b6000806000808481526020019081526020016000209050806000018054905081600101541015915050919050565b60008060008581526020019081526020016000209050806000018054905083106113ac576040517f08c379a00000000000000000000000000000000000000000000000000000000081526004016113a39061245b565b60405180910390fd5b818160000184815481106113e9577f4e487b7100000000000000000000000000000000000000000000000000000000600052603260045260246000fd5b906000526020600020906006020160010160006101000a81548173ffffffffffffffffffffffffffffffffffffffff021916908373ffffffffffffffffffffffffffffffffffffffff16021790555050505050565b806000016040518060e001604052806040518060400160405280600881526020017f526163636f6c74610000000000000000000000000000000000000000000000008152508152602001600073ffffffffffffffffffffffffffffffffffffffff168152602001600015158152602001600081526020016000815260200160405180602001604052806000815250815260200183600201548152509080600181540180825580915050600190039060005260206000209060060201600090919091909150600082015181600001908051906020019061151e929190611bf1565b5060208201518160010160006101000a81548173ffffffffffffffffffffffffffffffffffffffff021916908373ffffffffffffffffffffffffffffffffffffffff16021790555060408201518160010160146101000a81548160ff021916908315150217905550606082015181600201556080820151816003015560a08201518160040190805190602001906115b6929190611bf1565b5060c082015181600501555050806000016040518060e001604052806040518060400160405280600981526020017f54726173706f72746f00000000000000000000000000000000000000000000008152508152602001600073ffffffffffffffffffffffffffffffffffffffff16815260200160001515815260200160008152602001600081526020016040518060200160405280600081525081526020018360020154815250908060018154018082558091505060019003906000526020600020906006020160009091909190915060008201518160000190805190602001906116a3929190611bf1565b5060208201518160010160006101000a81548173ffffffffffffffffffffffffffffffffffffffff021916908373ffffffffffffffffffffffffffffffffffffffff16021790555060408201518160010160146101000a81548160ff021916908315150217905550606082015181600201556080820151816003015560a082015181600401908051906020019061173b929190611bf1565b5060c082015181600501555050806000016040518060e001604052806040518060400160405280600b81526020017f4c61766f72617a696f6e650000000000000000000000000000000000000000008152508152602001600073ffffffffffffffffffffffffffffffffffffffff1681526020016000151581526020016000815260200160008152602001604051806020016040528060008152508152602001836002015481525090806001815401808255809150506001900390600052602060002090600602016000909190919091506000820151816000019080519060200190611828929190611bf1565b5060208201518160010160006101000a81548173ffffffffffffffffffffffffffffffffffffffff021916908373ffffffffffffffffffffffffffffffffffffffff16021790555060408201518160010160146101000a81548160ff021916908315150217905550606082015181600201556080820151816003015560a08201518160040190805190602001906118c0929190611bf1565b5060c082015181600501555050806000016040518060e001604052806040518060400160405280600f81526020017f436f6e66657a696f6e616d656e746f00000000000000000000000000000000008152508152602001600073ffffffffffffffffffffffffffffffffffffffff16815260200160001515815260200160008152602001600081526020016040518060200160405280600081525081526020018360020154815250908060018154018082558091505060019003906000526020600020906006020160009091909190915060008201518160000190805190602001906119ad929190611bf1565b5060208201518160010160006101000a81548173ffffffffffffffffffffffffffffffffffffffff021916908373ffffffffffffffffffffffffffffffffffffffff16021790555060408201518160010160146101000a81548160ff021916908315150217905550606082015181600201556080820151816003015560a0820151816004019080519060200190611a45929190611bf1565b5060c082015181600501555050806000016040518060e001604052806040518060400160405280600d81526020017f44697374726962757a696f6e65000000000000000000000000000000000000008152508152602001600073ffffffffffffffffffffffffffffffffffffffff1681526020016000151581526020016000815260200160008152602001604051806020016040528060008152508152602001836002015481525090806001815401808255809150506001900390600052602060002090600602016000909190919091506000820151816000019080519060200190611b32929190611bf1565b5060208201518160010160006101000a81548173ffffffffffffffffffffffffffffffffffffffff021916908373ffffffffffffffffffffffffffffffffffffffff16021790555060408201518160010160146101000a81548160ff021916908315150217905550606082015181600201556080820151816003015560a0820151816004019080519060200190611bca929190611bf1565b5060c0820151816005015550506000816001018190555050565b6000808251119050919050565b828054611bfd906126d3565b90600052602060002090601f016020900481019282611c1f5760008555611c66565b82601f10611c3857805160ff1916838001178555611c66565b82800160010185558215611c66579182015b82811115611c65578251825591602001919060010190611c4a565b5b509050611c739190611ccc565b5090565b6040518060e0016040528060608152602001600073ffffffffffffffffffffffffffffffffffffffff168152602001600015158152602001600081526020016000815260200160608152602001600081525090565b5b80821115611ce5576000816000905550600101611ccd565b5090565b6000611cfc611cf78461256a565b612539565b905082815260208101848484011115611d1457600080fd5b611d1f848285612691565b509392505050565b600081359050611d36816127ec565b92915050565b600081359050611d4b81612803565b92915050565b600082601f830112611d6257600080fd5b8135611d72848260208601611ce9565b91505092915050565b600081359050611d8a8161281a565b92915050565b600060208284031215611da257600080fd5b6000611db084828501611d7b565b91505092915050565b60008060408385031215611dcc57600080fd5b6000611dda85828601611d7b565b925050602083013567ffffffffffffffff811115611df757600080fd5b611e0385828601611d51565b9150509250929050565b60008060408385031215611e2057600080fd5b6000611e2e85828601611d7b565b9250506020611e3f85828601611d7b565b9150509250929050565b600080600060608486031215611e5e57600080fd5b6000611e6c86828701611d7b565b9350506020611e7d86828701611d7b565b9250506040611e8e86828701611d27565b9150509250925092565b600080600060608486031215611ead57600080fd5b6000611ebb86828701611d7b565b9350506020611ecc86828701611d7b565b9250506040611edd86828701611d3c565b9150509250925092565b600080600060608486031215611efc57600080fd5b6000611f0a86828701611d7b565b9350506020611f1b86828701611d7b565b925050604084013567ffffffffffffffff811115611f3857600080fd5b611f4486828701611d51565b9150509250925092565b600080600060608486031215611f6357600080fd5b6000611f7186828701611d7b565b9350506020611f8286828701611d7b565b9250506040611f9386828701611d7b565b9150509250925092565b6000611fa983836122a0565b905092915050565b611fba81612649565b82525050565b611fc981612649565b82525050565b6000611fda826125bf565b611fe481856125e2565b935083602082028501611ff68561259a565b8060005b8581101561203257848403895281516120138582611f9d565b945061201e836125d5565b925060208a01995050600181019050611ffa565b50829750879550505050505092915050565b61204d8161265b565b82525050565b61205c8161265b565b82525050565b600061206d826125ca565b61207781856125f3565b93506120878185602086016126a0565b612090816127db565b840191505092915050565b60006120a6826125ca565b6120b08185612604565b93506120c08185602086016126a0565b6120c9816127db565b840191505092915050565b600081546120e1816126d3565b6120eb8186612604565b9450600182166000811461210657600181146121185761214b565b60ff198316865260208601935061214b565b612121856125aa565b60005b8381101561214357815481890152600182019150602081019050612124565b808801955050505b50505092915050565b6000612161602883612604565b91507f4c6f636174696f6e206973206e6f7420726561736f6e61626c6520666f72207460008301527f68697320737465700000000000000000000000000000000000000000000000006020830152604082019050919050565b60006121c7602e83612604565b91507f4f6e6c792061737369676e65642073757065727669736f722063616e20636f6d60008301527f706c6574652074686520737465700000000000000000000000000000000000006020830152604082019050919050565b600061222d601783612604565b91507f5374657020696e646578206f7574206f662072616e67650000000000000000006000830152602082019050919050565b600061226d601f83612604565b91507f416c6c2073746570732061726520616c726561647920636f6d706c65746564006000830152602082019050919050565b600060e08301600083015184820360008601526122bd8282612062565b91505060208301516122d26020860182611fb1565b5060408301516122e56040860182612044565b5060608301516122f86060860182612343565b50608083015161230b6080860182612343565b5060a083015184820360a08601526123238282612062565b91505060c083015161233860c0860182612343565b508091505092915050565b61234c81612687565b82525050565b61235b81612687565b82525050565b6000602082019050818103600083015261237b8184611fcf565b905092915050565b60006020820190506123986000830184612053565b92915050565b600060e08201905081810360008301526123b8818a61209b565b90506123c76020830189611fc0565b6123d46040830188612053565b6123e16060830187612352565b6123ee6080830186612352565b81810360a0830152612400818561209b565b905061240f60c0830184612352565b98975050505050505050565b6000602082019050818103600083015261243481612154565b9050919050565b60006020820190508181036000830152612454816121ba565b9050919050565b6000602082019050818103600083015261247481612220565b9050919050565b6000602082019050818103600083015261249481612260565b9050919050565b60006020820190506124b06000830184612352565b92915050565b60006040820190506124cb6000830185612352565b6124d86020830184612352565b9392505050565b600060a0820190506124f46000830188612352565b6125016020830187612352565b818103604083015261251381866120d4565b90506125226060830185612352565b61252f6080830184612352565b9695505050505050565b6000604051905081810181811067ffffffffffffffff821117156125605761255f6127ac565b5b8060405250919050565b600067ffffffffffffffff821115612585576125846127ac565b5b601f19601f8301169050602081019050919050565b6000819050602082019050919050565b60008190508160005260206000209050919050565b600081519050919050565b600081519050919050565b6000602082019050919050565b600082825260208201905092915050565b600082825260208201905092915050565b600082825260208201905092915050565b600061262082612687565b915061262b83612687565b92508282101561263e5761263d61274e565b5b828203905092915050565b600061265482612667565b9050919050565b60008115159050919050565b600073ffffffffffffffffffffffffffffffffffffffff82169050919050565b6000819050919050565b82818337600083830152505050565b60005b838110156126be5780820151818401526020810190506126a3565b838111156126cd576000848401525b50505050565b600060028204905060018216806126eb57607f821691505b602082108114156126ff576126fe61277d565b5b50919050565b600061271082612687565b91507fffffffffffffffffffffffffffffffffffffffffffffffffffffffffffffffff8214156127435761274261274e565b5b600182019050919050565b7f4e487b7100000000000000000000000000000000000000000000000000000000600052601160045260246000fd5b7f4e487b7100000000000000000000000000000000000000000000000000000000600052602260045260246000fd5b7f4e487b7100000000000000000000000000000000000000000000000000000000600052604160045260246000fd5b6000601f19601f8301169050919050565b6127f581612649565b811461280057600080fd5b50565b61280c8161265b565b811461281757600080fd5b50565b61282381612687565b811461282e57600080fd5b5056fea264697066735822122029aa14170073383e815a8f82f403b550c5092151c31f2126320145b29b056cf964736f6c63430008000033",
  "immutableReferences": {},
  "source": "// SPDX-License-Identifier: MIT\r\npragma solidity ^0.8.0;\r\n\r\ncontract MilkChain {\r\n    struct Step {\r\n        string name;\r\n        address supervisor;\r\n        bool completed;\r\n        uint startTime;\r\n        uint endTime;\r\n        string location;\r\n        uint lotNumber;\r\n    }\r\n\r\n    struct Process {\r\n        Step[] steps;\r\n        uint currentStepIndex;\r\n        uint lotNumber;\r\n    }\r\n\r\n    mapping(uint => Process) public processes;\r\n    uint public currentLotNumber;\r\n\r\n    event StepCompleted(uint lotNumber, uint stepIndex, string name, uint startTime, uint endTime);\r\n    event ProcessReset(uint newLotNumber);\r\n\r\n    constructor() {\r\n        currentLotNumber = 1; \r\n    }\r\n\r\n    function createNewProcess() public {\r\n        Process storage newProcess = processes[currentLotNumber];\r\n        newProcess.lotNumber = currentLotNumber;\r\n        initializeSteps(newProcess);\r\n        currentLotNumber++;\r\n    }\r\n\r\n    function initializeSteps(Process storage process) internal {\r\n        process.steps.push(Step(\"Raccolta\", address(0), false, 0, 0, \"\", process.lotNumber));\r\n        process.steps.push(Step(\"Trasporto\", address(0), false, 0, 0, \"\", process.lotNumber));\r\n        process.steps.push(Step(\"Lavorazione\", address(0), false, 0, 0, \"\", process.lotNumber));\r\n        process.steps.push(Step(\"Confezionamento\", address(0), false, 0, 0, \"\", process.lotNumber));\r\n        process.steps.push(Step(\"Distribuzione\", address(0), false, 0, 0, \"\", process.lotNumber));\r\n        process.currentStepIndex = 0;\r\n    }\r\n\r\n    function assignSupervisor(uint lotNumber, uint stepIndex, address supervisor) public {\r\n        Process storage process = processes[lotNumber];\r\n        require(stepIndex < process.steps.length, \"Step index out of range\");\r\n        process.steps[stepIndex].supervisor = supervisor;\r\n    }\r\n\r\n    function completeStep(uint lotNumber, string memory _location) public {\r\n        Process storage process = processes[lotNumber];\r\n        require(process.currentStepIndex < process.steps.length, \"All steps are already completed\");\r\n        Step storage step = process.steps[process.currentStepIndex];\r\n        require(msg.sender == step.supervisor, \"Only assigned supervisor can complete the step\");\r\n        step.completed = true;\r\n        step.endTime = block.timestamp;\r\n        \r\n        if (process.currentStepIndex == 0) {\r\n            step.startTime = block.timestamp;\r\n        } else {\r\n            step.startTime = process.steps[process.currentStepIndex - 1].endTime;\r\n        }\r\n\r\n        require(isReasonableLocation(_location), \"Location is not reasonable for this step\");\r\n\r\n        step.location = _location;\r\n        step.lotNumber = process.lotNumber;  // Assign current lot number to the step\r\n\r\n        emit StepCompleted(process.lotNumber, process.currentStepIndex, step.name, step.startTime, step.endTime);\r\n        process.currentStepIndex++;\r\n\r\n        if (process.currentStepIndex >= process.steps.length) {\r\n            emit ProcessReset(process.lotNumber);\r\n        }\r\n    }\r\n\r\n    function isReasonableLocation(string memory _location) internal pure returns (bool) {\r\n        return bytes(_location).length > 0; // Check that the location is not empty\r\n    }\r\n\r\n    function getStepsLength(uint lotNumber) public view returns (uint) {\r\n        return processes[lotNumber].steps.length;\r\n    }\r\n\r\n    function getStep(uint lotNumber, uint index) public view returns (string memory, address, bool, uint, uint, string memory, uint) {\r\n        Process storage process = processes[lotNumber];\r\n        require(index < process.steps.length, \"Step index out of range\");\r\n        Step storage step = process.steps[index];\r\n        return (step.name, step.supervisor, step.completed, step.startTime, step.endTime, step.location, step.lotNumber);\r\n    }\r\n\r\n    function isProcessCompleted(uint lotNumber) public view returns (bool) {\r\n        Process storage process = processes[lotNumber];\r\n        return process.currentStepIndex >= process.steps.length;\r\n    }\r\n\r\n    function getCurrentStepIndex(uint lotNumber) public view returns (uint) {\r\n        return processes[lotNumber].currentStepIndex;\r\n    }\r\n\r\n    function getCurrentLotNumber() public view returns (uint) {\r\n        return currentLotNumber;\r\n    }\r\n\r\n    function setStepName(uint lotNumber, uint index, string memory name) public {\r\n        Process storage process = processes[lotNumber];\r\n        require(index < process.steps.length, \"Step index out of range\");\r\n        process.steps[index].name = name;\r\n    }\r\n\r\n    function setStepSupervisor(uint lotNumber, uint index, address supervisor) public {\r\n        Process storage process = processes[lotNumber];\r\n        require(index < process.steps.length, \"Step index out of range\");\r\n        process.steps[index].supervisor = supervisor;\r\n    }\r\n\r\n    function setStepLocation(uint lotNumber, uint index, string memory location) public {\r\n        Process storage process = processes[lotNumber];\r\n        require(index < process.steps.length, \"Step index out of range\");\r\n        process.steps[index].location = location;\r\n    }\r\n\r\n    function setStepCompleted(uint lotNumber, uint index, bool completed) public {\r\n        Process storage process = processes[lotNumber];\r\n        require(index < process.steps.length, \"Step index out of range\");\r\n        process.steps[index].completed = completed;\r\n    }\r\n\r\n    function setStepStartTime(uint lotNumber, uint index, uint startTime) public {\r\n        Process storage process = processes[lotNumber];\r\n        require(index < process.steps.length, \"Step index out of range\");\r\n        process.steps[index].startTime = startTime;\r\n    }\r\n\r\n    function setStepEndTime(uint lotNumber, uint index, uint endTime) public {\r\n        Process storage process = processes[lotNumber];\r\n        require(index < process.steps.length, \"Step index out of range\");\r\n        process.steps[index].endTime = endTime;\r\n    }\r\n\r\n    function setLotNumber(uint lotNumber, uint index, uint newLotNumber) public {\r\n        Process storage process = processes[lotNumber];\r\n        require(index < process.steps.length, \"Step index out of range\");\r\n        process.steps[index].lotNumber = newLotNumber;\r\n    }\r\n\r\n    /**\r\n     * @notice Retrieves all completed steps for a given lot number.\r\n     * @param lotNumber The lot number to filter completed steps by.\r\n     * @return An array of completed steps for the given lot number.\r\n     */\r\n    function getLot(uint lotNumber) public view returns (Step[] memory) {\r\n        Process storage process = processes[lotNumber];\r\n        uint count = 0;\r\n        for (uint i = 0; i < process.steps.length; i++) {\r\n            if (process.steps[i].completed) {\r\n                count++;\r\n            }\r\n        }\r\n\r\n        Step[] memory lotSteps = new Step[](count);\r\n        uint index = 0;\r\n        for (uint i = 0; i < process.steps.length; i++) {\r\n            if (process.steps[i].completed) {\r\n                lotSteps[index] = process.steps[i];\r\n                index++;\r\n            }\r\n        }\r\n        return lotSteps;\r\n    }\r\n}\r\n",
  "sourcePath": "C:\\Users\\samue\\Desktop\\MilkChain\\backend\\contracts\\MilkChain.sol",
  "compiler": {
    "name": "solc",
    "version": "0.8.0+commit.c7dfd78e.Emscripten.clang"
  },
  "schemaVersion": "3.4.16",
  "updatedAt": "2024-07-01T22:12:30.272Z",
  "networkType": "ethereum",
  "devdoc": {
    "kind": "dev",
    "methods": {
      "getLot(uint256)": {
        "params": {
          "lotNumber": "The lot number to filter completed steps by."
        },
        "returns": {
          "_0": "An array of completed steps for the given lot number."
        }
      }
    },
    "version": 1
  },
  "userdoc": {
    "kind": "user",
    "methods": {
      "getLot(uint256)": {
        "notice": "Retrieves all completed steps for a given lot number."
      }
    },
    "version": 1
  }
}