{
  "contractName": "MilkProcessFactory",
  "abi": [
    {
      "inputs": [],
      "stateMutability": "nonpayable",
      "type": "constructor"
    },
    {
      "inputs": [
        {
          "internalType": "uint256",
          "name": "",
          "type": "uint256"
        }
      ],
      "name": "processes",
      "outputs": [
        {
          "internalType": "address",
          "name": "",
          "type": "address"
        }
      ],
      "stateMutability": "view",
      "type": "function",
      "constant": true
    },
    {
      "inputs": [
        {
          "internalType": "address",
          "name": "",
          "type": "address"
        }
      ],
      "name": "roles",
      "outputs": [
        {
          "internalType": "enum MilkProcessFactory.Role",
          "name": "",
          "type": "uint8"
        }
      ],
      "stateMutability": "view",
      "type": "function",
      "constant": true
    },
    {
      "inputs": [
        {
          "internalType": "uint256",
          "name": "",
          "type": "uint256"
        }
      ],
      "name": "users",
      "outputs": [
        {
          "internalType": "address",
          "name": "",
          "type": "address"
        }
      ],
      "stateMutability": "view",
      "type": "function",
      "constant": true
    },
    {
      "inputs": [
        {
          "internalType": "uint256",
          "name": "quantity",
          "type": "uint256"
        }
      ],
      "name": "createNewProcess",
      "outputs": [
        {
          "internalType": "address[]",
          "name": "",
          "type": "address[]"
        }
      ],
      "stateMutability": "nonpayable",
      "type": "function"
    },
    {
      "inputs": [],
      "name": "getAllProcesses",
      "outputs": [
        {
          "internalType": "address[]",
          "name": "",
          "type": "address[]"
        }
      ],
      "stateMutability": "view",
      "type": "function",
      "constant": true
    },
    {
      "inputs": [],
      "name": "getAllRoles",
      "outputs": [
        {
          "internalType": "string[]",
          "name": "",
          "type": "string[]"
        },
        {
          "internalType": "address[]",
          "name": "",
          "type": "address[]"
        }
      ],
      "stateMutability": "view",
      "type": "function",
      "constant": true
    },
    {
      "inputs": [
        {
          "internalType": "address",
          "name": "account",
          "type": "address"
        }
      ],
      "name": "getRole",
      "outputs": [
        {
          "internalType": "enum MilkProcessFactory.Role",
          "name": "",
          "type": "uint8"
        }
      ],
      "stateMutability": "view",
      "type": "function",
      "constant": true
    },
    {
      "inputs": [
        {
          "internalType": "address",
          "name": "account",
          "type": "address"
        },
        {
          "internalType": "enum MilkProcessFactory.Role",
          "name": "role",
          "type": "uint8"
        }
      ],
      "name": "assignRole",
      "outputs": [],
      "stateMutability": "nonpayable",
      "type": "function"
    },
    {
      "inputs": [
        {
          "internalType": "address",
          "name": "account",
          "type": "address"
        }
      ],
      "name": "removeRole",
      "outputs": [],
      "stateMutability": "nonpayable",
      "type": "function"
    }
  ],
  "bytecode": "0x6080604052600060035534801561001557600080fd5b5060018060003373ffffffffffffffffffffffffffffffffffffffff1673ffffffffffffffffffffffffffffffffffffffff16815260200190815260200160002060006101000a81548160ff0219169083600381111561009e577f4e487b7100000000000000000000000000000000000000000000000000000000600052602160045260246000fd5b02179055506002339080600181540180825580915050600190039060005260206000200160009091909190916101000a81548173ffffffffffffffffffffffffffffffffffffffff021916908373ffffffffffffffffffffffffffffffffffffffff160217905550613ecf806101156000396000f3fe60806040523480156200001157600080fd5b5060043610620000a05760003560e01c8063579e51c7116200006f578063579e51c71462000167578063630a195b146200019d5780639937464214620001bd578063f2bcac3d14620001f3578063f52a8fa0146200021657620000a0565b8063342865b714620000a5578063365b98b214620000db5780634427673314620001115780634762155d1462000147575b600080fd5b620000c36004803603810190620000bd919062001768565b62000238565b604051620000d2919062001a21565b60405180910390f35b620000f96004803603810190620000f3919062001768565b62000510565b60405162000108919062001a04565b60405180910390f35b6200012f6004803603810190620001299190620016fb565b62000550565b6040516200013e919062001a80565b60405180910390f35b6200016560048036038101906200015f9190620016fb565b620005a6565b005b6200018560048036038101906200017f919062001768565b62000861565b60405162000194919062001a04565b60405180910390f35b620001bb6004803603810190620001b5919062001727565b620008a1565b005b620001db6004803603810190620001d59190620016fb565b62000aab565b604051620001ea919062001a80565b60405180910390f35b620001fd62000acb565b6040516200020d92919062001a45565b60405180910390f35b6200022062001193565b6040516200022f919062001a21565b60405180910390f35b60606001600381111562000275577f4e487b7100000000000000000000000000000000000000000000000000000000600052602160045260246000fd5b600160003373ffffffffffffffffffffffffffffffffffffffff1673ffffffffffffffffffffffffffffffffffffffff16815260200190815260200160002060009054906101000a900460ff166003811115620002fb577f4e487b7100000000000000000000000000000000000000000000000000000000600052602160045260246000fd5b146200033e576040517f08c379a0000000000000000000000000000000000000000000000000000000008152600401620003359062001a9d565b60405180910390fd5b60008267ffffffffffffffff81111562000381577f4e487b7100000000000000000000000000000000000000000000000000000000600052604160045260246000fd5b604051908082528060200260200182016040528015620003b05781602001602082028036833780820191505090505b50905060005b8381101562000506576001600354620003d0919062001bad565b600381905550600060035430604051620003ea90620016a8565b620003f792919062001ae1565b604051809103906000f08015801562000414573d6000803e3d6000fd5b5090506000819080600181540180825580915050600190039060005260206000200160009091909190916101000a81548173ffffffffffffffffffffffffffffffffffffffff021916908373ffffffffffffffffffffffffffffffffffffffff16021790555080838381518110620004b5577f4e487b7100000000000000000000000000000000000000000000000000000000600052603260045260246000fd5b602002602001019073ffffffffffffffffffffffffffffffffffffffff16908173ffffffffffffffffffffffffffffffffffffffff1681525050508080620004fd9062001ce2565b915050620003b6565b5080915050919050565b600281815481106200052157600080fd5b906000526020600020016000915054906101000a900473ffffffffffffffffffffffffffffffffffffffff1681565b6000600160008373ffffffffffffffffffffffffffffffffffffffff1673ffffffffffffffffffffffffffffffffffffffff16815260200190815260200160002060009054906101000a900460ff169050919050565b60016003811115620005e1577f4e487b7100000000000000000000000000000000000000000000000000000000600052602160045260246000fd5b600160003373ffffffffffffffffffffffffffffffffffffffff1673ffffffffffffffffffffffffffffffffffffffff16815260200190815260200160002060009054906101000a900460ff16600381111562000667577f4e487b7100000000000000000000000000000000000000000000000000000000600052602160045260246000fd5b14620006aa576040517f08c379a0000000000000000000000000000000000000000000000000000000008152600401620006a19062001a9d565b60405180910390fd5b60016003811115620006e5577f4e487b7100000000000000000000000000000000000000000000000000000000600052602160045260246000fd5b600160008373ffffffffffffffffffffffffffffffffffffffff1673ffffffffffffffffffffffffffffffffffffffff16815260200190815260200160002060009054906101000a900460ff1660038111156200076b577f4e487b7100000000000000000000000000000000000000000000000000000000600052602160045260246000fd5b14158062000782575060016200078062001223565b115b620007c4576040517f08c379a0000000000000000000000000000000000000000000000000000000008152600401620007bb9062001abf565b60405180910390fd5b6000600160008373ffffffffffffffffffffffffffffffffffffffff1673ffffffffffffffffffffffffffffffffffffffff16815260200190815260200160002060006101000a81548160ff021916908360038111156200084e577f4e487b7100000000000000000000000000000000000000000000000000000000600052602160045260246000fd5b02179055506200085e8162001397565b50565b600081815481106200087257600080fd5b906000526020600020016000915054906101000a900473ffffffffffffffffffffffffffffffffffffffff1681565b60016003811115620008dc577f4e487b7100000000000000000000000000000000000000000000000000000000600052602160045260246000fd5b600160003373ffffffffffffffffffffffffffffffffffffffff1673ffffffffffffffffffffffffffffffffffffffff16815260200190815260200160002060009054906101000a900460ff16600381111562000962577f4e487b7100000000000000000000000000000000000000000000000000000000600052602160045260246000fd5b14620009a5576040517f08c379a00000000000000000000000000000000000000000000000000000000081526004016200099c9062001a9d565b60405180910390fd5b80600160008473ffffffffffffffffffffffffffffffffffffffff1673ffffffffffffffffffffffffffffffffffffffff16815260200190815260200160002060006101000a81548160ff0219169083600381111562000a2e577f4e487b7100000000000000000000000000000000000000000000000000000000600052602160045260246000fd5b021790555062000a3e82620015cc565b62000aa7576002829080600181540180825580915050600190039060005260206000200160009091909190916101000a81548173ffffffffffffffffffffffffffffffffffffffff021916908373ffffffffffffffffffffffffffffffffffffffff1602179055505b5050565b60016020528060005260406000206000915054906101000a900460ff1681565b606080600060028054905067ffffffffffffffff81111562000b16577f4e487b7100000000000000000000000000000000000000000000000000000000600052604160045260246000fd5b60405190808252806020026020018201604052801562000b4b57816020015b606081526020019060019003908162000b355790505b50905060005b600280549050811015620010fc576001600381111562000b9a577f4e487b7100000000000000000000000000000000000000000000000000000000600052602160045260246000fd5b600160006002848154811062000bd9577f4e487b7100000000000000000000000000000000000000000000000000000000600052603260045260246000fd5b9060005260206000200160009054906101000a900473ffffffffffffffffffffffffffffffffffffffff1673ffffffffffffffffffffffffffffffffffffffff1673ffffffffffffffffffffffffffffffffffffffff16815260200190815260200160002060009054906101000a900460ff16600381111562000c85577f4e487b7100000000000000000000000000000000000000000000000000000000600052602160045260246000fd5b141562000d0d576040518060400160405280600181526020017f310000000000000000000000000000000000000000000000000000000000000081525082828151811062000cfc577f4e487b7100000000000000000000000000000000000000000000000000000000600052603260045260246000fd5b6020026020010181905250620010e6565b6002600381111562000d48577f4e487b7100000000000000000000000000000000000000000000000000000000600052602160045260246000fd5b600160006002848154811062000d87577f4e487b7100000000000000000000000000000000000000000000000000000000600052603260045260246000fd5b9060005260206000200160009054906101000a900473ffffffffffffffffffffffffffffffffffffffff1673ffffffffffffffffffffffffffffffffffffffff1673ffffffffffffffffffffffffffffffffffffffff16815260200190815260200160002060009054906101000a900460ff16600381111562000e33577f4e487b7100000000000000000000000000000000000000000000000000000000600052602160045260246000fd5b141562000ebb576040518060400160405280600181526020017f320000000000000000000000000000000000000000000000000000000000000081525082828151811062000eaa577f4e487b7100000000000000000000000000000000000000000000000000000000600052603260045260246000fd5b6020026020010181905250620010e5565b60038081111562000ef5577f4e487b7100000000000000000000000000000000000000000000000000000000600052602160045260246000fd5b600160006002848154811062000f34577f4e487b7100000000000000000000000000000000000000000000000000000000600052603260045260246000fd5b9060005260206000200160009054906101000a900473ffffffffffffffffffffffffffffffffffffffff1673ffffffffffffffffffffffffffffffffffffffff1673ffffffffffffffffffffffffffffffffffffffff16815260200190815260200160002060009054906101000a900460ff16600381111562000fe0577f4e487b7100000000000000000000000000000000000000000000000000000000600052602160045260246000fd5b141562001068576040518060400160405280600181526020017f330000000000000000000000000000000000000000000000000000000000000081525082828151811062001057577f4e487b7100000000000000000000000000000000000000000000000000000000600052603260045260246000fd5b6020026020010181905250620010e4565b6040518060400160405280600181526020017f3000000000000000000000000000000000000000000000000000000000000000815250828281518110620010d8577f4e487b7100000000000000000000000000000000000000000000000000000000600052603260045260246000fd5b60200260200101819052505b5b5b8080620010f39062001ce2565b91505062000b51565b50806002808054806020026020016040519081016040528092919081815260200182805480156200118357602002820191906000526020600020905b8160009054906101000a900473ffffffffffffffffffffffffffffffffffffffff1673ffffffffffffffffffffffffffffffffffffffff168152602001906001019080831162001138575b5050505050905092509250509091565b606060008054806020026020016040519081016040528092919081815260200182805480156200121957602002820191906000526020600020905b8160009054906101000a900473ffffffffffffffffffffffffffffffffffffffff1673ffffffffffffffffffffffffffffffffffffffff1681526020019060010190808311620011ce575b5050505050905090565b6000806000905060005b6002805490508110156200138f576001600381111562001276577f4e487b7100000000000000000000000000000000000000000000000000000000600052602160045260246000fd5b6001600060028481548110620012b5577f4e487b7100000000000000000000000000000000000000000000000000000000600052603260045260246000fd5b9060005260206000200160009054906101000a900473ffffffffffffffffffffffffffffffffffffffff1673ffffffffffffffffffffffffffffffffffffffff1673ffffffffffffffffffffffffffffffffffffffff16815260200190815260200160002060009054906101000a900460ff16600381111562001361577f4e487b7100000000000000000000000000000000000000000000000000000000600052602160045260246000fd5b141562001379578180620013759062001ce2565b9250505b8080620013869062001ce2565b9150506200122d565b508091505090565b60005b600280549050811015620015c8578173ffffffffffffffffffffffffffffffffffffffff1660028281548110620013fa577f4e487b7100000000000000000000000000000000000000000000000000000000600052603260045260246000fd5b9060005260206000200160009054906101000a900473ffffffffffffffffffffffffffffffffffffffff1673ffffffffffffffffffffffffffffffffffffffff161415620015b2576002600160028054905062001458919062001c0a565b8154811062001490577f4e487b7100000000000000000000000000000000000000000000000000000000600052603260045260246000fd5b9060005260206000200160009054906101000a900473ffffffffffffffffffffffffffffffffffffffff1660028281548110620014f6577f4e487b7100000000000000000000000000000000000000000000000000000000600052603260045260246000fd5b9060005260206000200160006101000a81548173ffffffffffffffffffffffffffffffffffffffff021916908373ffffffffffffffffffffffffffffffffffffffff160217905550600280548062001577577f4e487b7100000000000000000000000000000000000000000000000000000000600052603160045260246000fd5b6001900381819060005260206000200160006101000a81549073ffffffffffffffffffffffffffffffffffffffff02191690559055620015c8565b8080620015bf9062001ce2565b9150506200139a565b5050565b600080600090505b6002805490508110156200169d578273ffffffffffffffffffffffffffffffffffffffff166002828154811062001634577f4e487b7100000000000000000000000000000000000000000000000000000000600052603260045260246000fd5b9060005260206000200160009054906101000a900473ffffffffffffffffffffffffffffffffffffffff1673ffffffffffffffffffffffffffffffffffffffff16141562001687576001915050620016a3565b8080620016949062001ce2565b915050620015d4565b50600090505b919050565b61209e8062001dfc83390190565b600081359050620016c78162001db6565b92915050565b600081359050620016de8162001dd0565b92915050565b600081359050620016f58162001de1565b92915050565b6000602082840312156200170e57600080fd5b60006200171e84828501620016b6565b91505092915050565b600080604083850312156200173b57600080fd5b60006200174b85828601620016b6565b92505060206200175e85828601620016cd565b9150509250929050565b6000602082840312156200177b57600080fd5b60006200178b84828501620016e4565b91505092915050565b6000620017a28383620017c4565b60208301905092915050565b6000620017bc8383620018e2565b905092915050565b620017cf8162001c45565b82525050565b620017e08162001c45565b82525050565b6000620017f38262001b2e565b620017ff818562001b69565b93506200180c8362001b0e565b8060005b838110156200184357815162001827888262001794565b9750620018348362001b4f565b92505060018101905062001810565b5085935050505092915050565b60006200185d8262001b39565b62001869818562001b7a565b9350836020820285016200187d8562001b1e565b8060005b85811015620018bf57848403895281516200189d8582620017ae565b9450620018aa8362001b5c565b925060208a0199505060018101905062001881565b50829750879550505050505092915050565b620018dc8162001c98565b82525050565b6000620018ef8262001b44565b620018fb818562001b8b565b93506200190d81856020860162001cac565b620019188162001d8e565b840191505092915050565b60006200193260228362001b9c565b91507f4f6e6c792061646d696e2063616e20706572666f726d2074686973206163746960008301527f6f6e0000000000000000000000000000000000000000000000000000000000006020830152604082019050919050565b60006200199a60218362001b9c565b91507f4e6f6e2070756f692072696d756f76657265206c27756c74696d6f2061646d6960008301527f6e000000000000000000000000000000000000000000000000000000000000006020830152604082019050919050565b620019fe8162001c8e565b82525050565b600060208201905062001a1b6000830184620017d5565b92915050565b6000602082019050818103600083015262001a3d8184620017e6565b905092915050565b6000604082019050818103600083015262001a61818562001850565b9050818103602083015262001a778184620017e6565b90509392505050565b600060208201905062001a976000830184620018d1565b92915050565b6000602082019050818103600083015262001ab88162001923565b9050919050565b6000602082019050818103600083015262001ada816200198b565b9050919050565b600060408201905062001af86000830185620019f3565b62001b076020830184620017d5565b9392505050565b6000819050602082019050919050565b6000819050602082019050919050565b600081519050919050565b600081519050919050565b600081519050919050565b6000602082019050919050565b6000602082019050919050565b600082825260208201905092915050565b600082825260208201905092915050565b600082825260208201905092915050565b600082825260208201905092915050565b600062001bba8262001c8e565b915062001bc78362001c8e565b9250827fffffffffffffffffffffffffffffffffffffffffffffffffffffffffffffffff0382111562001bff5762001bfe62001d30565b5b828201905092915050565b600062001c178262001c8e565b915062001c248362001c8e565b92508282101562001c3a5762001c3962001d30565b5b828203905092915050565b600062001c528262001c6e565b9050919050565b600081905062001c698262001d9f565b919050565b600073ffffffffffffffffffffffffffffffffffffffff82169050919050565b6000819050919050565b600062001ca58262001c59565b9050919050565b60005b8381101562001ccc57808201518184015260208101905062001caf565b8381111562001cdc576000848401525b50505050565b600062001cef8262001c8e565b91507fffffffffffffffffffffffffffffffffffffffffffffffffffffffffffffffff82141562001d255762001d2462001d30565b5b600182019050919050565b7f4e487b7100000000000000000000000000000000000000000000000000000000600052601160045260246000fd5b7f4e487b7100000000000000000000000000000000000000000000000000000000600052602160045260246000fd5b6000601f19601f8301169050919050565b6004811062001db35762001db262001d5f565b5b50565b62001dc18162001c45565b811462001dcd57600080fd5b50565b6004811062001dde57600080fd5b50565b62001dec8162001c8e565b811462001df857600080fd5b5056fe60806040523480156200001157600080fd5b506040516200209e3803806200209e833981810160405281019062000037919062000969565b8160028190555080600360006101000a81548173ffffffffffffffffffffffffffffffffffffffff021916908373ffffffffffffffffffffffffffffffffffffffff1602179055506200008f620000e860201b60201c565b4260008081548110620000cb577f4e487b7100000000000000000000000000000000000000000000000000000000600052603260045260246000fd5b906000526020600020906006020160020181905550505062000a81565b60006040518060e001604052806040518060400160405280600881526020017f526163636f6c74610000000000000000000000000000000000000000000000008152508152602001600073ffffffffffffffffffffffffffffffffffffffff168152602001600015158152602001600081526020016000815260200160405180602001604052806000815250815260200160025481525090806001815401808255809150506001900390600052602060002090600602016000909190919091506000820151816000019080519060200190620001c69291906200088b565b5060208201518160010160006101000a81548173ffffffffffffffffffffffffffffffffffffffff021916908373ffffffffffffffffffffffffffffffffffffffff16021790555060408201518160010160146101000a81548160ff021916908315150217905550606082015181600201556080820151816003015560a0820151816004019080519060200190620002609291906200088b565b5060c08201518160050155505060006040518060e001604052806040518060400160405280600981526020017f54726173706f72746f00000000000000000000000000000000000000000000008152508152602001600073ffffffffffffffffffffffffffffffffffffffff1681526020016000151581526020016000815260200160008152602001604051806020016040528060008152508152602001600254815250908060018154018082558091505060019003906000526020600020906006020160009091909190915060008201518160000190805190602001906200034b9291906200088b565b5060208201518160010160006101000a81548173ffffffffffffffffffffffffffffffffffffffff021916908373ffffffffffffffffffffffffffffffffffffffff16021790555060408201518160010160146101000a81548160ff021916908315150217905550606082015181600201556080820151816003015560a0820151816004019080519060200190620003e59291906200088b565b5060c08201518160050155505060006040518060e001604052806040518060400160405280600b81526020017f4c61766f72617a696f6e650000000000000000000000000000000000000000008152508152602001600073ffffffffffffffffffffffffffffffffffffffff168152602001600015158152602001600081526020016000815260200160405180602001604052806000815250815260200160025481525090806001815401808255809150506001900390600052602060002090600602016000909190919091506000820151816000019080519060200190620004d09291906200088b565b5060208201518160010160006101000a81548173ffffffffffffffffffffffffffffffffffffffff021916908373ffffffffffffffffffffffffffffffffffffffff16021790555060408201518160010160146101000a81548160ff021916908315150217905550606082015181600201556080820151816003015560a08201518160040190805190602001906200056a9291906200088b565b5060c08201518160050155505060006040518060e001604052806040518060400160405280600f81526020017f436f6e66657a696f6e616d656e746f00000000000000000000000000000000008152508152602001600073ffffffffffffffffffffffffffffffffffffffff168152602001600015158152602001600081526020016000815260200160405180602001604052806000815250815260200160025481525090806001815401808255809150506001900390600052602060002090600602016000909190919091506000820151816000019080519060200190620006559291906200088b565b5060208201518160010160006101000a81548173ffffffffffffffffffffffffffffffffffffffff021916908373ffffffffffffffffffffffffffffffffffffffff16021790555060408201518160010160146101000a81548160ff021916908315150217905550606082015181600201556080820151816003015560a0820151816004019080519060200190620006ef9291906200088b565b5060c08201518160050155505060006040518060e001604052806040518060400160405280600d81526020017f44697374726962757a696f6e65000000000000000000000000000000000000008152508152602001600073ffffffffffffffffffffffffffffffffffffffff168152602001600015158152602001600081526020016000815260200160405180602001604052806000815250815260200160025481525090806001815401808255809150506001900390600052602060002090600602016000909190919091506000820151816000019080519060200190620007da9291906200088b565b5060208201518160010160006101000a81548173ffffffffffffffffffffffffffffffffffffffff021916908373ffffffffffffffffffffffffffffffffffffffff16021790555060408201518160010160146101000a81548160ff021916908315150217905550606082015181600201556080820151816003015560a0820151816004019080519060200190620008749291906200088b565b5060c0820151816005015550506000600181905550565b8280546200089990620009e8565b90600052602060002090601f016020900481019282620008bd576000855562000909565b82601f10620008d857805160ff191683800117855562000909565b8280016001018555821562000909579182015b8281111562000908578251825591602001919060010190620008eb565b5b5090506200091891906200091c565b5090565b5b80821115620009375760008160009055506001016200091d565b5090565b6000815190506200094c8162000a4d565b92915050565b600081519050620009638162000a67565b92915050565b600080604083850312156200097d57600080fd5b60006200098d8582860162000952565b9250506020620009a0858286016200093b565b9150509250929050565b6000620009b782620009be565b9050919050565b600073ffffffffffffffffffffffffffffffffffffffff82169050919050565b6000819050919050565b6000600282049050600182168062000a0157607f821691505b6020821081141562000a185762000a1762000a1e565b5b50919050565b7f4e487b7100000000000000000000000000000000000000000000000000000000600052602260045260246000fd5b62000a5881620009aa565b811462000a6457600080fd5b50565b62000a7281620009de565b811462000a7e57600080fd5b50565b61160d8062000a916000396000f3fe608060405234801561001057600080fd5b50600436106100885760003560e01c80637217e0b91161005b5780637217e0b9146101015780638b1659f5146101375780639597fe9f14610155578063c45a01551461017357610088565b8063040c22c01461008d578063334f45ec146100a957806344054931146100c75780635da65ada146100e3575b600080fd5b6100a760048036038101906100a29190610cc9565b610191565b005b6100b1610527565b6040516100be9190611314565b60405180910390f35b6100e160048036038101906100dc9190610d33565b61052d565b005b6100eb61076b565b6040516100f8919061119a565b60405180910390f35b61011b60048036038101906101169190610d0a565b61097d565b60405161012e97969594939291906111d7565b60405180910390f35b61013f610b0c565b60405161014c91906111bc565b60405180910390f35b61015d610b1d565b60405161016a9190611314565b60405180910390f35b61017b610b23565b604051610188919061117f565b60405180910390f35b6000600360009054906101000a900473ffffffffffffffffffffffffffffffffffffffff16905060008173ffffffffffffffffffffffffffffffffffffffff166344276733336040518263ffffffff1660e01b81526004016101f3919061117f565b60206040518083038186803b15801561020b57600080fd5b505afa15801561021f573d6000803e3d6000fd5b505050506040513d601f19601f820116820180604052508101906102439190610ca0565b90506002600381111561027f577f4e487b7100000000000000000000000000000000000000000000000000000000600052602160045260246000fd5b8160038111156102b8577f4e487b7100000000000000000000000000000000000000000000000000000000600052602160045260246000fd5b146102f8576040517f08c379a00000000000000000000000000000000000000000000000000000000081526004016102ef90611274565b60405180910390fd5b60008054905060015410610341576040517f08c379a0000000000000000000000000000000000000000000000000000000008152600401610338906112f4565b60405180910390fd5b6000806001548154811061037e577f4e487b7100000000000000000000000000000000000000000000000000000000600052603260045260246000fd5b906000526020600020906006020190508060010160009054906101000a900473ffffffffffffffffffffffffffffffffffffffff1673ffffffffffffffffffffffffffffffffffffffff163373ffffffffffffffffffffffffffffffffffffffff1614610420576040517f08c379a000000000000000000000000000000000000000000000000000000000815260040161041790611294565b60405180910390fd5b60018160010160146101000a81548160ff02191690831515021790555042816003018190555061044f84610b49565b61048e576040517f08c379a000000000000000000000000000000000000000000000000000000000815260040161048590611254565b60405180910390fd5b838160040190805190602001906104a6929190610b56565b50600160008154809291906104ba906114b2565b91905055506000805490506001541015610521574260006001548154811061050b577f4e487b7100000000000000000000000000000000000000000000000000000000600052603260045260246000fd5b9060005260206000209060060201600201819055505b50505050565b60015481565b6000600360009054906101000a900473ffffffffffffffffffffffffffffffffffffffff16905060008173ffffffffffffffffffffffffffffffffffffffff166344276733336040518263ffffffff1660e01b815260040161058f919061117f565b60206040518083038186803b1580156105a757600080fd5b505afa1580156105bb573d6000803e3d6000fd5b505050506040513d601f19601f820116820180604052508101906105df9190610ca0565b90506001600381111561061b577f4e487b7100000000000000000000000000000000000000000000000000000000600052602160045260246000fd5b816003811115610654577f4e487b7100000000000000000000000000000000000000000000000000000000600052602160045260246000fd5b14610694576040517f08c379a000000000000000000000000000000000000000000000000000000000815260040161068b906112b4565b60405180910390fd5b60008054905084106106db576040517f08c379a00000000000000000000000000000000000000000000000000000000081526004016106d2906112d4565b60405180910390fd5b8260008581548110610716577f4e487b7100000000000000000000000000000000000000000000000000000000600052603260045260246000fd5b906000526020600020906006020160010160006101000a81548173ffffffffffffffffffffffffffffffffffffffff021916908373ffffffffffffffffffffffffffffffffffffffff16021790555050505050565b60606000805480602002602001604051908101604052809291908181526020016000905b8282101561097457838290600052602060002090600602016040518060e00160405290816000820180546107c290611480565b80601f01602080910402602001604051908101604052809291908181526020018280546107ee90611480565b801561083b5780601f106108105761010080835404028352916020019161083b565b820191906000526020600020905b81548152906001019060200180831161081e57829003601f168201915b505050505081526020016001820160009054906101000a900473ffffffffffffffffffffffffffffffffffffffff1673ffffffffffffffffffffffffffffffffffffffff1673ffffffffffffffffffffffffffffffffffffffff1681526020016001820160149054906101000a900460ff1615151515815260200160028201548152602001600382015481526020016004820180546108d990611480565b80601f016020809104026020016040519081016040528092919081815260200182805461090590611480565b80156109525780601f1061092757610100808354040283529160200191610952565b820191906000526020600020905b81548152906001019060200180831161093557829003601f168201915b505050505081526020016005820154815250508152602001906001019061078f565b50505050905090565b6000818154811061098d57600080fd5b90600052602060002090600602016000915090508060000180546109b090611480565b80601f01602080910402602001604051908101604052809291908181526020018280546109dc90611480565b8015610a295780601f106109fe57610100808354040283529160200191610a29565b820191906000526020600020905b815481529060010190602001808311610a0c57829003601f168201915b5050505050908060010160009054906101000a900473ffffffffffffffffffffffffffffffffffffffff16908060010160149054906101000a900460ff1690806002015490806003015490806004018054610a8390611480565b80601f0160208091040260200160405190810160405280929190818152602001828054610aaf90611480565b8015610afc5780601f10610ad157610100808354040283529160200191610afc565b820191906000526020600020905b815481529060010190602001808311610adf57829003601f168201915b5050505050908060050154905087565b600080805490506001541015905090565b60025481565b600360009054906101000a900473ffffffffffffffffffffffffffffffffffffffff1681565b6000808251119050919050565b828054610b6290611480565b90600052602060002090601f016020900481019282610b845760008555610bcb565b82601f10610b9d57805160ff1916838001178555610bcb565b82800160010185558215610bcb579182015b82811115610bca578251825591602001919060010190610baf565b5b509050610bd89190610bdc565b5090565b5b80821115610bf5576000816000905550600101610bdd565b5090565b6000610c0c610c0784611360565b61132f565b905082815260208101848484011115610c2457600080fd5b610c2f84828561143e565b509392505050565b600081359050610c4681611599565b92915050565b600081519050610c5b816115b0565b92915050565b600082601f830112610c7257600080fd5b8135610c82848260208601610bf9565b91505092915050565b600081359050610c9a816115c0565b92915050565b600060208284031215610cb257600080fd5b6000610cc084828501610c4c565b91505092915050565b600060208284031215610cdb57600080fd5b600082013567ffffffffffffffff811115610cf557600080fd5b610d0184828501610c61565b91505092915050565b600060208284031215610d1c57600080fd5b6000610d2a84828501610c8b565b91505092915050565b60008060408385031215610d4657600080fd5b6000610d5485828601610c8b565b9250506020610d6585828601610c37565b9150509250929050565b6000610d7b83836110be565b905092915050565b610d8c816113f6565b82525050565b610d9b816113f6565b82525050565b6000610dac826113a0565b610db681856113c3565b935083602082028501610dc885611390565b8060005b85811015610e045784840389528151610de58582610d6f565b9450610df0836113b6565b925060208a01995050600181019050610dcc565b50829750879550505050505092915050565b610e1f81611408565b82525050565b610e2e81611408565b82525050565b6000610e3f826113ab565b610e4981856113d4565b9350610e5981856020860161144d565b610e6281611588565b840191505092915050565b6000610e78826113ab565b610e8281856113e5565b9350610e9281856020860161144d565b610e9b81611588565b840191505092915050565b6000610eb36028836113e5565b91507f4c6f636174696f6e206973206e6f7420726561736f6e61626c6520666f72207460008301527f68697320737465700000000000000000000000000000000000000000000000006020830152604082019050919050565b6000610f196027836113e5565b91507f4f6e6c792073757065727669736f722063616e20706572666f726d207468697360008301527f20616374696f6e000000000000000000000000000000000000000000000000006020830152604082019050919050565b6000610f7f602e836113e5565b91507f4f6e6c792061737369676e65642073757065727669736f722063616e20636f6d60008301527f706c6574652074686520737465700000000000000000000000000000000000006020830152604082019050919050565b6000610fe56022836113e5565b91507f4f6e6c792061646d696e2063616e20706572666f726d2074686973206163746960008301527f6f6e0000000000000000000000000000000000000000000000000000000000006020830152604082019050919050565b600061104b6017836113e5565b91507f5374657020696e646578206f7574206f662072616e67650000000000000000006000830152602082019050919050565b600061108b601f836113e5565b91507f416c6c2073746570732061726520616c726561647920636f6d706c65746564006000830152602082019050919050565b600060e08301600083015184820360008601526110db8282610e34565b91505060208301516110f06020860182610d83565b5060408301516111036040860182610e16565b5060608301516111166060860182611161565b5060808301516111296080860182611161565b5060a083015184820360a08601526111418282610e34565b91505060c083015161115660c0860182611161565b508091505092915050565b61116a81611434565b82525050565b61117981611434565b82525050565b60006020820190506111946000830184610d92565b92915050565b600060208201905081810360008301526111b48184610da1565b905092915050565b60006020820190506111d16000830184610e25565b92915050565b600060e08201905081810360008301526111f1818a610e6d565b90506112006020830189610d92565b61120d6040830188610e25565b61121a6060830187611170565b6112276080830186611170565b81810360a08301526112398185610e6d565b905061124860c0830184611170565b98975050505050505050565b6000602082019050818103600083015261126d81610ea6565b9050919050565b6000602082019050818103600083015261128d81610f0c565b9050919050565b600060208201905081810360008301526112ad81610f72565b9050919050565b600060208201905081810360008301526112cd81610fd8565b9050919050565b600060208201905081810360008301526112ed8161103e565b9050919050565b6000602082019050818103600083015261130d8161107e565b9050919050565b60006020820190506113296000830184611170565b92915050565b6000604051905081810181811067ffffffffffffffff8211171561135657611355611559565b5b8060405250919050565b600067ffffffffffffffff82111561137b5761137a611559565b5b601f19601f8301169050602081019050919050565b6000819050602082019050919050565b600081519050919050565b600081519050919050565b6000602082019050919050565b600082825260208201905092915050565b600082825260208201905092915050565b600082825260208201905092915050565b600061140182611414565b9050919050565b60008115159050919050565b600073ffffffffffffffffffffffffffffffffffffffff82169050919050565b6000819050919050565b82818337600083830152505050565b60005b8381101561146b578082015181840152602081019050611450565b8381111561147a576000848401525b50505050565b6000600282049050600182168061149857607f821691505b602082108114156114ac576114ab61152a565b5b50919050565b60006114bd82611434565b91507fffffffffffffffffffffffffffffffffffffffffffffffffffffffffffffffff8214156114f0576114ef6114fb565b5b600182019050919050565b7f4e487b7100000000000000000000000000000000000000000000000000000000600052601160045260246000fd5b7f4e487b7100000000000000000000000000000000000000000000000000000000600052602260045260246000fd5b7f4e487b7100000000000000000000000000000000000000000000000000000000600052604160045260246000fd5b6000601f19601f8301169050919050565b6115a2816113f6565b81146115ad57600080fd5b50565b600481106115bd57600080fd5b50565b6115c981611434565b81146115d457600080fd5b5056fea26469706673582212207104a2b2fae3ff14309398cdd2f9d2de914081d3fb825c00b30ebc5eb57dcaae64736f6c63430008000033a26469706673582212205b47f29bc43501807be955ebe37feff01e4b82ba40623fa9c79c9bc6f5bef6d064736f6c63430008000033",
  "immutableReferences": {},
  "source": "// SPDX-License-Identifier: MIT\r\npragma solidity ^0.8.0;\r\n\r\nimport \"./MilkProcess.sol\";\r\n\r\ncontract MilkProcessFactory {\r\n    enum Role { None, Admin, Supervisor, Operator }\r\n\r\n    address[] public processes;\r\n    mapping(address => Role) public roles;\r\n    address[] public users;\r\n    uint lotNumber = 0;\r\n\r\n    constructor() {\r\n        roles[msg.sender] = Role.Admin;\r\n        users.push(msg.sender);\r\n    }\r\n\r\n    function createNewProcess(uint quantity) external onlyAdmin returns (address[] memory) {\r\n        address[] memory newProcesses = new address[](quantity);\r\n        for (uint i = 0; i < quantity; i++) {\r\n            lotNumber = lotNumber + 1;\r\n            MilkProcess newProcess = new MilkProcess(lotNumber, address(this));\r\n            processes.push(address(newProcess));\r\n            newProcesses[i] = address(newProcess);\r\n        }\r\n        return newProcesses;\r\n    }\r\n\r\n    function getAllProcesses() external view returns (address[] memory) {\r\n        return processes;\r\n    }\r\n\r\n    function getAllRoles() external view returns (string[] memory, address[] memory) {\r\n        string[] memory userRoles = new string[](users.length);\r\n        for (uint i = 0; i < users.length; i++) {\r\n            if (roles[users[i]] == Role.Admin) {\r\n                userRoles[i] = \"1\";\r\n            } else if (roles[users[i]] == Role.Supervisor) {\r\n                userRoles[i] = \"2\";\r\n            } else if(roles[users[i]] == Role.Operator) {\r\n                userRoles[i] = \"3\";\r\n            } else {\r\n                userRoles[i] = \"0\";\r\n            }\r\n        }\r\n        return (userRoles, users);\r\n    }\r\n\r\n    function getRole(address account) external view returns (Role) {\r\n        return roles[account];\r\n    }\r\n\r\n    function assignRole(address account, Role role) external onlyAdmin {\r\n        roles[account] = role;\r\n        if (!isAccountInList(account)) {\r\n            users.push(account);\r\n        }\r\n    }\r\n\r\n    function removeRole(address account) external onlyAdmin {\r\n        require(roles[account] != Role.Admin || countAdmins() > 1, \"Non puoi rimuovere l'ultimo admin\");\r\n        roles[account] = Role.None;\r\n        removeAccountFromList(account);\r\n    }\r\n\r\n    function countAdmins() internal view returns (uint) {\r\n        uint count = 0;\r\n        for (uint i = 0; i < users.length; i++) {\r\n            if (roles[users[i]] == Role.Admin) {\r\n                count++;\r\n            }\r\n        }\r\n        return count;\r\n    }\r\n\r\n    function isAccountInList(address account) internal view returns (bool) {\r\n        for (uint i = 0; i < users.length; i++) {\r\n            if (users[i] == account) {\r\n                return true;\r\n            }\r\n        }\r\n        return false;\r\n    }\r\n\r\n    function removeAccountFromList(address account) internal {\r\n        for (uint i = 0; i < users.length; i++) {\r\n            if (users[i] == account) {\r\n                users[i] = users[users.length - 1];\r\n                users.pop();\r\n                break;\r\n            }\r\n        }\r\n    }\r\n\r\n    modifier onlyAdmin() {\r\n        require(roles[msg.sender] == Role.Admin, \"Only admin can perform this action\");\r\n        _;\r\n    }\r\n}\r\n",
  "sourcePath": "C:\\Users\\samue\\Desktop\\MilkChain\\backend\\contracts\\MilkProcessFactory.sol",
  "compiler": {
    "name": "solc",
    "version": "0.8.0+commit.c7dfd78e.Emscripten.clang"
  },
  "schemaVersion": "3.4.16",
  "updatedAt": "2024-07-06T16:28:02.391Z",
  "networkType": "ethereum",
  "devdoc": {
    "kind": "dev",
    "methods": {},
    "version": 1
  },
  "userdoc": {
    "kind": "user",
    "methods": {},
    "version": 1
  }
}