{
  "contractName": "MilkProcess",
  "abi": [
    {
      "inputs": [
        {
          "internalType": "uint256",
          "name": "_lotNumber",
          "type": "uint256"
        },
        {
          "internalType": "address",
          "name": "_factory",
          "type": "address"
        }
      ],
      "stateMutability": "nonpayable",
      "type": "constructor"
    },
    {
      "inputs": [],
      "name": "currentStepIndex",
      "outputs": [
        {
          "internalType": "uint256",
          "name": "",
          "type": "uint256"
        }
      ],
      "stateMutability": "view",
      "type": "function"
    },
    {
      "inputs": [],
      "name": "factory",
      "outputs": [
        {
          "internalType": "address",
          "name": "",
          "type": "address"
        }
      ],
      "stateMutability": "view",
      "type": "function"
    },
    {
      "inputs": [],
      "name": "isFailed",
      "outputs": [
        {
          "internalType": "bool",
          "name": "",
          "type": "bool"
        }
      ],
      "stateMutability": "view",
      "type": "function"
    },
    {
      "inputs": [],
      "name": "lotNumber",
      "outputs": [
        {
          "internalType": "uint256",
          "name": "",
          "type": "uint256"
        }
      ],
      "stateMutability": "view",
      "type": "function"
    },
    {
      "inputs": [
        {
          "internalType": "uint256",
          "name": "",
          "type": "uint256"
        }
      ],
      "name": "steps",
      "outputs": [
        {
          "internalType": "string",
          "name": "name",
          "type": "string"
        },
        {
          "internalType": "address",
          "name": "supervisor",
          "type": "address"
        },
        {
          "internalType": "bool",
          "name": "completed",
          "type": "bool"
        },
        {
          "internalType": "uint256",
          "name": "startTime",
          "type": "uint256"
        },
        {
          "internalType": "uint256",
          "name": "endTime",
          "type": "uint256"
        },
        {
          "internalType": "string",
          "name": "location",
          "type": "string"
        },
        {
          "internalType": "uint256",
          "name": "lotNumber",
          "type": "uint256"
        },
        {
          "internalType": "bool",
          "name": "failed",
          "type": "bool"
        }
      ],
      "stateMutability": "view",
      "type": "function"
    },
    {
      "inputs": [
        {
          "internalType": "uint256",
          "name": "stepIndex",
          "type": "uint256"
        },
        {
          "internalType": "address",
          "name": "supervisor",
          "type": "address"
        }
      ],
      "name": "assignSupervisor",
      "outputs": [],
      "stateMutability": "nonpayable",
      "type": "function"
    },
    {
      "inputs": [
        {
          "internalType": "string",
          "name": "_location",
          "type": "string"
        }
      ],
      "name": "completeStep",
      "outputs": [],
      "stateMutability": "nonpayable",
      "type": "function"
    },
    {
      "inputs": [],
      "name": "failStep",
      "outputs": [],
      "stateMutability": "nonpayable",
      "type": "function"
    },
    {
      "inputs": [],
      "name": "isProcessCompleted",
      "outputs": [
        {
          "internalType": "bool",
          "name": "",
          "type": "bool"
        }
      ],
      "stateMutability": "view",
      "type": "function"
    },
    {
      "inputs": [],
      "name": "getSteps",
      "outputs": [
        {
          "components": [
            {
              "internalType": "string",
              "name": "name",
              "type": "string"
            },
            {
              "internalType": "address",
              "name": "supervisor",
              "type": "address"
            },
            {
              "internalType": "bool",
              "name": "completed",
              "type": "bool"
            },
            {
              "internalType": "uint256",
              "name": "startTime",
              "type": "uint256"
            },
            {
              "internalType": "uint256",
              "name": "endTime",
              "type": "uint256"
            },
            {
              "internalType": "string",
              "name": "location",
              "type": "string"
            },
            {
              "internalType": "uint256",
              "name": "lotNumber",
              "type": "uint256"
            },
            {
              "internalType": "bool",
              "name": "failed",
              "type": "bool"
            }
          ],
          "internalType": "struct MilkProcess.Step[]",
          "name": "",
          "type": "tuple[]"
        }
      ],
      "stateMutability": "view",
      "type": "function"
    }
  ],
  "bytecode": "0x60806040523480156200001157600080fd5b506040516200295338038062002953833981810160405281019062000037919062000a56565b8160028190555080600360006101000a81548173ffffffffffffffffffffffffffffffffffffffff021916908373ffffffffffffffffffffffffffffffffffffffff1602179055506200008f6200010360201b60201c565b4260008081548110620000cb577f4e487b7100000000000000000000000000000000000000000000000000000000600052603260045260246000fd5b9060005260206000209060070201600201819055506000600360146101000a81548160ff021916908315150217905550505062000b6e565b60006040518061010001604052806040518060400160405280600881526020017f526163636f6c74610000000000000000000000000000000000000000000000008152508152602001600073ffffffffffffffffffffffffffffffffffffffff168152602001600015158152602001600081526020016000815260200160405180602001604052806000815250815260200160025481526020016000151581525090806001815401808255809150506001900390600052602060002090600702016000909190919091506000820151816000019080519060200190620001eb92919062000978565b5060208201518160010160006101000a81548173ffffffffffffffffffffffffffffffffffffffff021916908373ffffffffffffffffffffffffffffffffffffffff16021790555060408201518160010160146101000a81548160ff021916908315150217905550606082015181600201556080820151816003015560a08201518160040190805190602001906200028592919062000978565b5060c0820151816005015560e08201518160060160006101000a81548160ff021916908315150217905550505060006040518061010001604052806040518060400160405280600981526020017f54726173706f72746f00000000000000000000000000000000000000000000008152508152602001600073ffffffffffffffffffffffffffffffffffffffff1681526020016000151581526020016000815260200160008152602001604051806020016040528060008152508152602001600254815260200160001515815250908060018154018082558091505060019003906000526020600020906007020160009091909190915060008201518160000190805190602001906200039a92919062000978565b5060208201518160010160006101000a81548173ffffffffffffffffffffffffffffffffffffffff021916908373ffffffffffffffffffffffffffffffffffffffff16021790555060408201518160010160146101000a81548160ff021916908315150217905550606082015181600201556080820151816003015560a08201518160040190805190602001906200043492919062000978565b5060c0820151816005015560e08201518160060160006101000a81548160ff021916908315150217905550505060006040518061010001604052806040518060400160405280600b81526020017f4c61766f72617a696f6e650000000000000000000000000000000000000000008152508152602001600073ffffffffffffffffffffffffffffffffffffffff1681526020016000151581526020016000815260200160008152602001604051806020016040528060008152508152602001600254815260200160001515815250908060018154018082558091505060019003906000526020600020906007020160009091909190915060008201518160000190805190602001906200054992919062000978565b5060208201518160010160006101000a81548173ffffffffffffffffffffffffffffffffffffffff021916908373ffffffffffffffffffffffffffffffffffffffff16021790555060408201518160010160146101000a81548160ff021916908315150217905550606082015181600201556080820151816003015560a0820151816004019080519060200190620005e392919062000978565b5060c0820151816005015560e08201518160060160006101000a81548160ff021916908315150217905550505060006040518061010001604052806040518060400160405280600f81526020017f436f6e66657a696f6e616d656e746f00000000000000000000000000000000008152508152602001600073ffffffffffffffffffffffffffffffffffffffff168152602001600015158152602001600081526020016000815260200160405180602001604052806000815250815260200160025481526020016000151581525090806001815401808255809150506001900390600052602060002090600702016000909190919091506000820151816000019080519060200190620006f892919062000978565b5060208201518160010160006101000a81548173ffffffffffffffffffffffffffffffffffffffff021916908373ffffffffffffffffffffffffffffffffffffffff16021790555060408201518160010160146101000a81548160ff021916908315150217905550606082015181600201556080820151816003015560a08201518160040190805190602001906200079292919062000978565b5060c0820151816005015560e08201518160060160006101000a81548160ff021916908315150217905550505060006040518061010001604052806040518060400160405280600d81526020017f44697374726962757a696f6e65000000000000000000000000000000000000008152508152602001600073ffffffffffffffffffffffffffffffffffffffff168152602001600015158152602001600081526020016000815260200160405180602001604052806000815250815260200160025481526020016000151581525090806001815401808255809150506001900390600052602060002090600702016000909190919091506000820151816000019080519060200190620008a792919062000978565b5060208201518160010160006101000a81548173ffffffffffffffffffffffffffffffffffffffff021916908373ffffffffffffffffffffffffffffffffffffffff16021790555060408201518160010160146101000a81548160ff021916908315150217905550606082015181600201556080820151816003015560a08201518160040190805190602001906200094192919062000978565b5060c0820151816005015560e08201518160060160006101000a81548160ff02191690831515021790555050506000600181905550565b828054620009869062000ad5565b90600052602060002090601f016020900481019282620009aa5760008555620009f6565b82601f10620009c557805160ff1916838001178555620009f6565b82800160010185558215620009f6579182015b82811115620009f5578251825591602001919060010190620009d8565b5b50905062000a05919062000a09565b5090565b5b8082111562000a2457600081600090555060010162000a0a565b5090565b60008151905062000a398162000b3a565b92915050565b60008151905062000a508162000b54565b92915050565b6000806040838503121562000a6a57600080fd5b600062000a7a8582860162000a3f565b925050602062000a8d8582860162000a28565b9150509250929050565b600062000aa48262000aab565b9050919050565b600073ffffffffffffffffffffffffffffffffffffffff82169050919050565b6000819050919050565b6000600282049050600182168062000aee57607f821691505b6020821081141562000b055762000b0462000b0b565b5b50919050565b7f4e487b7100000000000000000000000000000000000000000000000000000000600052602260045260246000fd5b62000b458162000a97565b811462000b5157600080fd5b50565b62000b5f8162000acb565b811462000b6b57600080fd5b50565b611dd58062000b7e6000396000f3fe608060405234801561001057600080fd5b506004361061009e5760003560e01c80637217e0b9116100665780637217e0b9146101215780638b1659f5146101585780639597fe9f14610176578063c45a015514610194578063f4163340146101b25761009e565b8063040c22c0146100a3578063334f45ec146100bf57806344054931146100dd5780635da65ada146100f957806366ea962414610117575b600080fd5b6100bd60048036038101906100b891906112db565b6101d0565b005b6100c76105c9565b6040516100d49190611a72565b60405180910390f35b6100f760048036038101906100f29190611345565b6105cf565b005b61010161080d565b60405161010e91906118a9565b60405180910390f35b61011f610a3b565b005b61013b6004803603810190610136919061131c565b610d57565b60405161014f9897969594939291906118e6565b60405180910390f35b610160610ef9565b60405161016d91906118cb565b60405180910390f35b61017e610f0a565b60405161018b9190611a72565b60405180910390f35b61019c610f10565b6040516101a9919061188e565b60405180910390f35b6101ba610f36565b6040516101c791906118cb565b60405180910390f35b6000600360009054906101000a900473ffffffffffffffffffffffffffffffffffffffff16905060008173ffffffffffffffffffffffffffffffffffffffff166344276733336040518263ffffffff1660e01b8152600401610232919061188e565b60206040518083038186803b15801561024a57600080fd5b505afa15801561025e573d6000803e3d6000fd5b505050506040513d601f19601f8201168201806040525081019061028291906112b2565b9050600260038111156102be577f4e487b7100000000000000000000000000000000000000000000000000000000600052602160045260246000fd5b8160038111156102f7577f4e487b7100000000000000000000000000000000000000000000000000000000600052602160045260246000fd5b14610337576040517f08c379a000000000000000000000000000000000000000000000000000000000815260040161032e90611992565b60405180910390fd5b600360149054906101000a900460ff1615610387576040517f08c379a000000000000000000000000000000000000000000000000000000000815260040161037e90611a32565b60405180910390fd5b600080549050600154106103d0576040517f08c379a00000000000000000000000000000000000000000000000000000000081526004016103c790611a52565b60405180910390fd5b6000806001548154811061040d577f4e487b7100000000000000000000000000000000000000000000000000000000600052603260045260246000fd5b906000526020600020906007020190508060010160009054906101000a900473ffffffffffffffffffffffffffffffffffffffff1673ffffffffffffffffffffffffffffffffffffffff163373ffffffffffffffffffffffffffffffffffffffff16146104af576040517f08c379a00000000000000000000000000000000000000000000000000000000081526004016104a6906119d2565b60405180910390fd5b60018160010160146101000a81548160ff0219169083151502179055504281600301819055506104de84610f49565b61051d576040517f08c379a000000000000000000000000000000000000000000000000000000000815260040161051490611972565b60405180910390fd5b83816004019080519060200190610535929190611168565b506001600081548092919061054990611c10565b919050555060008054905060015410156105c3574260006001548154811061059a577f4e487b7100000000000000000000000000000000000000000000000000000000600052603260045260246000fd5b9060005260206000209060070201600201819055506001805414156105c2576105c1610f56565b5b5b50505050565b60015481565b6000600360009054906101000a900473ffffffffffffffffffffffffffffffffffffffff16905060008173ffffffffffffffffffffffffffffffffffffffff166344276733336040518263ffffffff1660e01b8152600401610631919061188e565b60206040518083038186803b15801561064957600080fd5b505afa15801561065d573d6000803e3d6000fd5b505050506040513d601f19601f8201168201806040525081019061068191906112b2565b9050600160038111156106bd577f4e487b7100000000000000000000000000000000000000000000000000000000600052602160045260246000fd5b8160038111156106f6577f4e487b7100000000000000000000000000000000000000000000000000000000600052602160045260246000fd5b14610736576040517f08c379a000000000000000000000000000000000000000000000000000000000815260040161072d906119f2565b60405180910390fd5b600080549050841061077d576040517f08c379a000000000000000000000000000000000000000000000000000000000815260040161077490611a12565b60405180910390fd5b82600085815481106107b8577f4e487b7100000000000000000000000000000000000000000000000000000000600052603260045260246000fd5b906000526020600020906007020160010160006101000a81548173ffffffffffffffffffffffffffffffffffffffff021916908373ffffffffffffffffffffffffffffffffffffffff16021790555050505050565b60606000805480602002602001604051908101604052809291908181526020016000905b82821015610a3257838290600052602060002090600702016040518061010001604052908160008201805461086590611bde565b80601f016020809104026020016040519081016040528092919081815260200182805461089190611bde565b80156108de5780601f106108b3576101008083540402835291602001916108de565b820191906000526020600020905b8154815290600101906020018083116108c157829003601f168201915b505050505081526020016001820160009054906101000a900473ffffffffffffffffffffffffffffffffffffffff1673ffffffffffffffffffffffffffffffffffffffff1673ffffffffffffffffffffffffffffffffffffffff1681526020016001820160149054906101000a900460ff16151515158152602001600282015481526020016003820154815260200160048201805461097c90611bde565b80601f01602080910402602001604051908101604052809291908181526020018280546109a890611bde565b80156109f55780601f106109ca576101008083540402835291602001916109f5565b820191906000526020600020905b8154815290600101906020018083116109d857829003601f168201915b50505050508152602001600582015481526020016006820160009054906101000a900460ff16151515158152505081526020019060010190610831565b50505050905090565b6000600360009054906101000a900473ffffffffffffffffffffffffffffffffffffffff16905060008173ffffffffffffffffffffffffffffffffffffffff166344276733336040518263ffffffff1660e01b8152600401610a9d919061188e565b60206040518083038186803b158015610ab557600080fd5b505afa158015610ac9573d6000803e3d6000fd5b505050506040513d601f19601f82011682018060405250810190610aed91906112b2565b905060026003811115610b29577f4e487b7100000000000000000000000000000000000000000000000000000000600052602160045260246000fd5b816003811115610b62577f4e487b7100000000000000000000000000000000000000000000000000000000600052602160045260246000fd5b14610ba2576040517f08c379a0000000000000000000000000000000000000000000000000000000008152600401610b9990611992565b60405180910390fd5b600360149054906101000a900460ff1615610bf2576040517f08c379a0000000000000000000000000000000000000000000000000000000008152600401610be990611a32565b60405180910390fd5b60008054905060015410610c3b576040517f08c379a0000000000000000000000000000000000000000000000000000000008152600401610c3290611a52565b60405180910390fd5b60008060015481548110610c78577f4e487b7100000000000000000000000000000000000000000000000000000000600052603260045260246000fd5b906000526020600020906007020190508060010160009054906101000a900473ffffffffffffffffffffffffffffffffffffffff1673ffffffffffffffffffffffffffffffffffffffff163373ffffffffffffffffffffffffffffffffffffffff1614610d1a576040517f08c379a0000000000000000000000000000000000000000000000000000000008152600401610d11906119b2565b60405180910390fd5b60018160060160006101000a81548160ff0219169083151502179055506001600360146101000a81548160ff021916908315150217905550505050565b60008181548110610d6757600080fd5b9060005260206000209060070201600091509050806000018054610d8a90611bde565b80601f0160208091040260200160405190810160405280929190818152602001828054610db690611bde565b8015610e035780601f10610dd857610100808354040283529160200191610e03565b820191906000526020600020905b815481529060010190602001808311610de657829003601f168201915b5050505050908060010160009054906101000a900473ffffffffffffffffffffffffffffffffffffffff16908060010160149054906101000a900460ff1690806002015490806003015490806004018054610e5d90611bde565b80601f0160208091040260200160405190810160405280929190818152602001828054610e8990611bde565b8015610ed65780601f10610eab57610100808354040283529160200191610ed6565b820191906000526020600020905b815481529060010190602001808311610eb957829003601f168201915b5050505050908060050154908060060160009054906101000a900460ff16905088565b600080805490506001541015905090565b60025481565b600360009054906101000a900473ffffffffffffffffffffffffffffffffffffffff1681565b600360149054906101000a900460ff1681565b6000808251119050919050565b600360149054906101000a900460ff1615610fa6576040517f08c379a0000000000000000000000000000000000000000000000000000000008152600401610f9d90611a32565b60405180910390fd5b60008060015481548110610fe3577f4e487b7100000000000000000000000000000000000000000000000000000000600052603260045260246000fd5b9060005260206000209060070201905060006064424460405160200161100a929190611862565b6040516020818303038152906040528051906020012060001c61102d9190611c63565b9050603281101561112b5760018260010160146101000a81548160ff0219169083151502179055504282600301819055506040518060400160405280601381526020017f4175746f6d61746963205472616e73706f7274000000000000000000000000008152508260040190805190602001906110ab929190611168565b50600160008154809291906110bf90611c10565b919050555060008054905060015410156111265742600060015481548110611110577f4e487b7100000000000000000000000000000000000000000000000000000000600052603260045260246000fd5b9060005260206000209060070201600201819055505b611164565b60018260060160006101000a81548160ff0219169083151502179055506001600360146101000a81548160ff0219169083151502179055505b5050565b82805461117490611bde565b90600052602060002090601f01602090048101928261119657600085556111dd565b82601f106111af57805160ff19168380011785556111dd565b828001600101855582156111dd579182015b828111156111dc5782518255916020019190600101906111c1565b5b5090506111ea91906111ee565b5090565b5b808211156112075760008160009055506001016111ef565b5090565b600061121e61121984611abe565b611a8d565b90508281526020810184848401111561123657600080fd5b611241848285611b9c565b509392505050565b60008135905061125881611d61565b92915050565b60008151905061126d81611d78565b92915050565b600082601f83011261128457600080fd5b813561129484826020860161120b565b91505092915050565b6000813590506112ac81611d88565b92915050565b6000602082840312156112c457600080fd5b60006112d28482850161125e565b91505092915050565b6000602082840312156112ed57600080fd5b600082013567ffffffffffffffff81111561130757600080fd5b61131384828501611273565b91505092915050565b60006020828403121561132e57600080fd5b600061133c8482850161129d565b91505092915050565b6000806040838503121561135857600080fd5b60006113668582860161129d565b925050602061137785828601611249565b9150509250929050565b600061138d8383611776565b905092915050565b61139e81611b54565b82525050565b6113ad81611b54565b82525050565b60006113be82611afe565b6113c88185611b21565b9350836020820285016113da85611aee565b8060005b8581101561141657848403895281516113f78582611381565b945061140283611b14565b925060208a019950506001810190506113de565b50829750879550505050505092915050565b61143181611b66565b82525050565b61144081611b66565b82525050565b600061145182611b09565b61145b8185611b32565b935061146b818560208601611bab565b61147481611d50565b840191505092915050565b600061148a82611b09565b6114948185611b43565b93506114a4818560208601611bab565b6114ad81611d50565b840191505092915050565b60006114c5602883611b43565b91507f4c6f636174696f6e206973206e6f7420726561736f6e61626c6520666f72207460008301527f68697320737465700000000000000000000000000000000000000000000000006020830152604082019050919050565b600061152b602783611b43565b91507f4f6e6c792073757065727669736f722063616e20706572666f726d207468697360008301527f20616374696f6e000000000000000000000000000000000000000000000000006020830152604082019050919050565b6000611591602a83611b43565b91507f4f6e6c792061737369676e65642073757065727669736f722063616e2066616960008301527f6c207468652073746570000000000000000000000000000000000000000000006020830152604082019050919050565b60006115f7602e83611b43565b91507f4f6e6c792061737369676e65642073757065727669736f722063616e20636f6d60008301527f706c6574652074686520737465700000000000000000000000000000000000006020830152604082019050919050565b600061165d602283611b43565b91507f4f6e6c792061646d696e2063616e20706572666f726d2074686973206163746960008301527f6f6e0000000000000000000000000000000000000000000000000000000000006020830152604082019050919050565b60006116c3601783611b43565b91507f5374657020696e646578206f7574206f662072616e67650000000000000000006000830152602082019050919050565b6000611703601a83611b43565b91507f50726f636573732068617320616c7265616479206661696c65640000000000006000830152602082019050919050565b6000611743601f83611b43565b91507f416c6c2073746570732061726520616c726561647920636f6d706c65746564006000830152602082019050919050565b60006101008301600083015184820360008601526117948282611446565b91505060208301516117a96020860182611395565b5060408301516117bc6040860182611428565b5060608301516117cf606086018261182d565b5060808301516117e2608086018261182d565b5060a083015184820360a08601526117fa8282611446565b91505060c083015161180f60c086018261182d565b5060e083015161182260e0860182611428565b508091505092915050565b61183681611b92565b82525050565b61184581611b92565b82525050565b61185c61185782611b92565b611c59565b82525050565b600061186e828561184b565b60208201915061187e828461184b565b6020820191508190509392505050565b60006020820190506118a360008301846113a4565b92915050565b600060208201905081810360008301526118c381846113b3565b905092915050565b60006020820190506118e06000830184611437565b92915050565b6000610100820190508181036000830152611901818b61147f565b9050611910602083018a6113a4565b61191d6040830189611437565b61192a606083018861183c565b611937608083018761183c565b81810360a0830152611949818661147f565b905061195860c083018561183c565b61196560e0830184611437565b9998505050505050505050565b6000602082019050818103600083015261198b816114b8565b9050919050565b600060208201905081810360008301526119ab8161151e565b9050919050565b600060208201905081810360008301526119cb81611584565b9050919050565b600060208201905081810360008301526119eb816115ea565b9050919050565b60006020820190508181036000830152611a0b81611650565b9050919050565b60006020820190508181036000830152611a2b816116b6565b9050919050565b60006020820190508181036000830152611a4b816116f6565b9050919050565b60006020820190508181036000830152611a6b81611736565b9050919050565b6000602082019050611a87600083018461183c565b92915050565b6000604051905081810181811067ffffffffffffffff82111715611ab457611ab3611d21565b5b8060405250919050565b600067ffffffffffffffff821115611ad957611ad8611d21565b5b601f19601f8301169050602081019050919050565b6000819050602082019050919050565b600081519050919050565b600081519050919050565b6000602082019050919050565b600082825260208201905092915050565b600082825260208201905092915050565b600082825260208201905092915050565b6000611b5f82611b72565b9050919050565b60008115159050919050565b600073ffffffffffffffffffffffffffffffffffffffff82169050919050565b6000819050919050565b82818337600083830152505050565b60005b83811015611bc9578082015181840152602081019050611bae565b83811115611bd8576000848401525b50505050565b60006002820490506001821680611bf657607f821691505b60208210811415611c0a57611c09611cf2565b5b50919050565b6000611c1b82611b92565b91507fffffffffffffffffffffffffffffffffffffffffffffffffffffffffffffffff821415611c4e57611c4d611c94565b5b600182019050919050565b6000819050919050565b6000611c6e82611b92565b9150611c7983611b92565b925082611c8957611c88611cc3565b5b828206905092915050565b7f4e487b7100000000000000000000000000000000000000000000000000000000600052601160045260246000fd5b7f4e487b7100000000000000000000000000000000000000000000000000000000600052601260045260246000fd5b7f4e487b7100000000000000000000000000000000000000000000000000000000600052602260045260246000fd5b7f4e487b7100000000000000000000000000000000000000000000000000000000600052604160045260246000fd5b6000601f19601f8301169050919050565b611d6a81611b54565b8114611d7557600080fd5b50565b60048110611d8557600080fd5b50565b611d9181611b92565b8114611d9c57600080fd5b5056fea2646970667358221220c8c30526082f11b6b70e7d1dde33a75bf702852908a64a4e8bd8d5297f670c7a64736f6c63430008000033",
  "immutableReferences": {},
  "source": "// SPDX-License-Identifier: MIT\r\npragma solidity ^0.8.0;\r\n\r\nimport \"./MilkProcessFactory.sol\";\r\n\r\ncontract MilkProcess {\r\n    struct Step {\r\n        string name;\r\n        address supervisor;\r\n        bool completed;\r\n        uint startTime;\r\n        uint endTime;\r\n        string location;\r\n        uint lotNumber;\r\n        bool failed;\r\n    }\r\n\r\n    Step[] public steps;\r\n    uint public currentStepIndex;\r\n    uint public lotNumber;\r\n    address public factory;\r\n    bool public isFailed;\r\n\r\n    constructor(uint _lotNumber, address _factory) {\r\n        lotNumber = _lotNumber;\r\n        factory = _factory;\r\n        initializeSteps();\r\n        steps[0].startTime = block.timestamp;\r\n        isFailed = false;\r\n    }\r\n\r\n    function initializeSteps() internal {\r\n        steps.push(Step(\"Raccolta\", address(0), false, 0, 0, \"\", lotNumber, false));\r\n        steps.push(Step(\"Trasporto\", address(0), false, 0, 0, \"\", lotNumber, false)); // Supervisore automatico\r\n        steps.push(Step(\"Lavorazione\", address(0), false, 0, 0, \"\", lotNumber, false));\r\n        steps.push(Step(\"Confezionamento\", address(0), false, 0, 0, \"\", lotNumber, false));\r\n        steps.push(Step(\"Distribuzione\", address(0), false, 0, 0, \"\", lotNumber, false));\r\n        currentStepIndex = 0;\r\n    }\r\n\r\n    function assignSupervisor(uint stepIndex, address supervisor) external onlyAdmin {\r\n        require(stepIndex < steps.length, \"Step index out of range\");\r\n        steps[stepIndex].supervisor = supervisor;\r\n    }\r\n\r\n    function completeStep(string memory _location) external onlySupervisor {\r\n        require(!isFailed, \"Process has already failed\");\r\n        require(currentStepIndex < steps.length, \"All steps are already completed\");\r\n        Step storage step = steps[currentStepIndex];\r\n        require(msg.sender == step.supervisor, \"Only assigned supervisor can complete the step\");\r\n        step.completed = true;\r\n        step.endTime = block.timestamp;\r\n\r\n        require(isReasonableLocation(_location), \"Location is not reasonable for this step\");\r\n\r\n        step.location = _location;\r\n\r\n        currentStepIndex++;\r\n\r\n        if (currentStepIndex < steps.length) {\r\n            steps[currentStepIndex].startTime = block.timestamp;\r\n            if(currentStepIndex == 1){\r\n                simulateTemperatureCheck();\r\n            }\r\n        }\r\n    }\r\n\r\n    function failStep() external onlySupervisor {\r\n        require(!isFailed, \"Process has already failed\");\r\n        require(currentStepIndex < steps.length, \"All steps are already completed\");\r\n        Step storage step = steps[currentStepIndex];\r\n        require(msg.sender == step.supervisor, \"Only assigned supervisor can fail the step\");\r\n        step.failed = true;\r\n        isFailed = true;\r\n    }\r\n    function simulateTemperatureCheck() internal {\r\n        require(!isFailed, \"Process has already failed\");\r\n\r\n        Step storage step = steps[currentStepIndex];\r\n    \r\n        // Genera un numero casuale tra 0 e 99\r\n        uint random = uint(keccak256(abi.encodePacked(block.timestamp, block.difficulty))) % 100;\r\n\r\n        // 90% di probabilit di completamento, 10% di fallimento\r\n        if (random < 50) {\r\n            step.completed = true;\r\n            step.endTime = block.timestamp;\r\n            step.location = \"Automatic Transport\";\r\n            currentStepIndex++;\r\n            if (currentStepIndex < steps.length) {\r\n                steps[currentStepIndex].startTime = block.timestamp;\r\n            }\r\n        } else {\r\n            step.failed = true;\r\n            isFailed = true;\r\n        }\r\n    }\r\n\r\n    function isReasonableLocation(string memory _location) internal pure returns (bool) {\r\n        return bytes(_location).length > 0;\r\n    }\r\n\r\n    function isProcessCompleted() external view returns (bool) {\r\n        return currentStepIndex >= steps.length;\r\n    }\r\n\r\n    function getSteps() external view returns (Step[] memory) {\r\n        return steps;\r\n    }\r\n\r\n    modifier onlyAdmin() {\r\n        MilkProcessFactory factoryContract = MilkProcessFactory(factory);\r\n        MilkProcessFactory.Role role = factoryContract.getRole(msg.sender);\r\n        require(role == MilkProcessFactory.Role.Admin, \"Only admin can perform this action\");\r\n        _;\r\n    }\r\n\r\n    modifier onlySupervisor() {\r\n        MilkProcessFactory factoryContract = MilkProcessFactory(factory);\r\n        MilkProcessFactory.Role role = factoryContract.getRole(msg.sender);\r\n        require(role == MilkProcessFactory.Role.Supervisor, \"Only supervisor can perform this action\");\r\n        _;\r\n    }\r\n}",
  "sourcePath": "C:\\Users\\samue\\Desktop\\MilkChain\\backend\\contracts\\MilkProcess.sol",
  "compiler": {
    "name": "solc",
    "version": "0.8.0+commit.c7dfd78e.Emscripten.clang"
  },
  "schemaVersion": "3.4.16",
  "updatedAt": "2024-07-10T14:32:28.595Z",
  "devdoc": {
    "kind": "dev",
    "methods": {},
    "version": 1
  },
  "userdoc": {
    "kind": "user",
    "methods": {},
    "version": 1
  }
}