{
  "contractName": "MilkProcess",
  "abi": [
    {
      "inputs": [
        {
          "internalType": "uint256",
          "name": "_lotNumber",
          "type": "uint256"
        },
        {
          "internalType": "address",
          "name": "_factory",
          "type": "address"
        },
        {
          "internalType": "bool",
          "name": "_isIntero",
          "type": "bool"
        }
      ],
      "stateMutability": "nonpayable",
      "type": "constructor"
    },
    {
      "inputs": [],
      "name": "currentStepIndex",
      "outputs": [
        {
          "internalType": "uint256",
          "name": "",
          "type": "uint256"
        }
      ],
      "stateMutability": "view",
      "type": "function"
    },
    {
      "inputs": [],
      "name": "factory",
      "outputs": [
        {
          "internalType": "address",
          "name": "",
          "type": "address"
        }
      ],
      "stateMutability": "view",
      "type": "function"
    },
    {
      "inputs": [],
      "name": "isFailed",
      "outputs": [
        {
          "internalType": "bool",
          "name": "",
          "type": "bool"
        }
      ],
      "stateMutability": "view",
      "type": "function"
    },
    {
      "inputs": [],
      "name": "isIntero",
      "outputs": [
        {
          "internalType": "bool",
          "name": "",
          "type": "bool"
        }
      ],
      "stateMutability": "view",
      "type": "function"
    },
    {
      "inputs": [],
      "name": "lotNumber",
      "outputs": [
        {
          "internalType": "uint256",
          "name": "",
          "type": "uint256"
        }
      ],
      "stateMutability": "view",
      "type": "function"
    },
    {
      "inputs": [
        {
          "internalType": "uint256",
          "name": "",
          "type": "uint256"
        }
      ],
      "name": "steps",
      "outputs": [
        {
          "internalType": "string",
          "name": "name",
          "type": "string"
        },
        {
          "internalType": "address",
          "name": "supervisor",
          "type": "address"
        },
        {
          "internalType": "bool",
          "name": "completed",
          "type": "bool"
        },
        {
          "internalType": "uint256",
          "name": "startTime",
          "type": "uint256"
        },
        {
          "internalType": "uint256",
          "name": "endTime",
          "type": "uint256"
        },
        {
          "internalType": "string",
          "name": "location",
          "type": "string"
        },
        {
          "internalType": "uint256",
          "name": "lotNumber",
          "type": "uint256"
        },
        {
          "internalType": "bool",
          "name": "failed",
          "type": "bool"
        }
      ],
      "stateMutability": "view",
      "type": "function"
    },
    {
      "inputs": [
        {
          "internalType": "address[]",
          "name": "supervisors",
          "type": "address[]"
        }
      ],
      "name": "assignSupervisors",
      "outputs": [],
      "stateMutability": "nonpayable",
      "type": "function"
    },
    {
      "inputs": [
        {
          "internalType": "string",
          "name": "_location",
          "type": "string"
        }
      ],
      "name": "completeStep",
      "outputs": [],
      "stateMutability": "nonpayable",
      "type": "function"
    },
    {
      "inputs": [],
      "name": "failStep",
      "outputs": [],
      "stateMutability": "nonpayable",
      "type": "function"
    },
    {
      "inputs": [
        {
          "internalType": "bool",
          "name": "valid",
          "type": "bool"
        }
      ],
      "name": "isTemperatureOK",
      "outputs": [],
      "stateMutability": "nonpayable",
      "type": "function"
    },
    {
      "inputs": [
        {
          "internalType": "bool",
          "name": "valid",
          "type": "bool"
        },
        {
          "internalType": "string",
          "name": "_location",
          "type": "string"
        }
      ],
      "name": "isLocationReasonable",
      "outputs": [],
      "stateMutability": "nonpayable",
      "type": "function"
    },
    {
      "inputs": [],
      "name": "isProcessCompleted",
      "outputs": [
        {
          "internalType": "bool",
          "name": "",
          "type": "bool"
        }
      ],
      "stateMutability": "view",
      "type": "function"
    },
    {
      "inputs": [],
      "name": "getSteps",
      "outputs": [
        {
          "components": [
            {
              "internalType": "string",
              "name": "name",
              "type": "string"
            },
            {
              "internalType": "address",
              "name": "supervisor",
              "type": "address"
            },
            {
              "internalType": "bool",
              "name": "completed",
              "type": "bool"
            },
            {
              "internalType": "uint256",
              "name": "startTime",
              "type": "uint256"
            },
            {
              "internalType": "uint256",
              "name": "endTime",
              "type": "uint256"
            },
            {
              "internalType": "string",
              "name": "location",
              "type": "string"
            },
            {
              "internalType": "uint256",
              "name": "lotNumber",
              "type": "uint256"
            },
            {
              "internalType": "bool",
              "name": "failed",
              "type": "bool"
            }
          ],
          "internalType": "struct MilkProcess.Step[]",
          "name": "",
          "type": "tuple[]"
        }
      ],
      "stateMutability": "view",
      "type": "function"
    }
  ],
  "bytecode": "0x60806040523480156200001157600080fd5b5060405162003b8038038062003b8083398181016040528101906200003791906200183a565b8260028190555081600360006101000a81548173ffffffffffffffffffffffffffffffffffffffff021916908373ffffffffffffffffffffffffffffffffffffffff1602179055506000600360146101000a81548160ff02191690831515021790555080600360156101000a81548160ff021916908315150217905550620000c46200011e60201b60201c565b426000808154811062000100577f4e487b7100000000000000000000000000000000000000000000000000000000600052603260045260246000fd5b9060005260206000209060070201600201819055505050506200198d565b60006040518061010001604052806040518060400160405280600881526020017f526163636f6c74610000000000000000000000000000000000000000000000008152508152602001600073ffffffffffffffffffffffffffffffffffffffff1681526020016000151581526020016000815260200160008152602001604051806020016040528060008152508152602001600254815260200160001515815250908060018154018082558091505060019003906000526020600020906007020160009091909190915060008201518160000190805190602001906200020692919062001745565b5060208201518160010160006101000a81548173ffffffffffffffffffffffffffffffffffffffff021916908373ffffffffffffffffffffffffffffffffffffffff16021790555060408201518160010160146101000a81548160ff021916908315150217905550606082015181600201556080820151816003015560a0820151816004019080519060200190620002a092919062001745565b5060c0820151816005015560e08201518160060160006101000a81548160ff021916908315150217905550505060006040518061010001604052806040518060400160405280600981526020017f54726173706f72746f00000000000000000000000000000000000000000000008152508152602001600073ffffffffffffffffffffffffffffffffffffffff168152602001600015158152602001600081526020016000815260200160405180602001604052806000815250815260200160025481526020016000151581525090806001815401808255809150506001900390600052602060002090600702016000909190919091506000820151816000019080519060200190620003b592919062001745565b5060208201518160010160006101000a81548173ffffffffffffffffffffffffffffffffffffffff021916908373ffffffffffffffffffffffffffffffffffffffff16021790555060408201518160010160146101000a81548160ff021916908315150217905550606082015181600201556080820151816003015560a08201518160040190805190602001906200044f92919062001745565b5060c0820151816005015560e08201518160060160006101000a81548160ff021916908315150217905550505060006040518061010001604052806040518060400160405280600881526020017f50756c69747572610000000000000000000000000000000000000000000000008152508152602001600073ffffffffffffffffffffffffffffffffffffffff1681526020016000151581526020016000815260200160008152602001604051806020016040528060008152508152602001600254815260200160001515815250908060018154018082558091505060019003906000526020600020906007020160009091909190915060008201518160000190805190602001906200056492919062001745565b5060208201518160010160006101000a81548173ffffffffffffffffffffffffffffffffffffffff021916908373ffffffffffffffffffffffffffffffffffffffff16021790555060408201518160010160146101000a81548160ff021916908315150217905550606082015181600201556080820151816003015560a0820151816004019080519060200190620005fe92919062001745565b5060c0820151816005015560e08201518160060160006101000a81548160ff021916908315150217905550505060006040518061010001604052806040518060400160405280601181526020017f5374616e64617264697a7a617a696f6e650000000000000000000000000000008152508152602001600073ffffffffffffffffffffffffffffffffffffffff1681526020016000151581526020016000815260200160008152602001604051806020016040528060008152508152602001600254815260200160001515815250908060018154018082558091505060019003906000526020600020906007020160009091909190915060008201518160000190805190602001906200071392919062001745565b5060208201518160010160006101000a81548173ffffffffffffffffffffffffffffffffffffffff021916908373ffffffffffffffffffffffffffffffffffffffff16021790555060408201518160010160146101000a81548160ff021916908315150217905550606082015181600201556080820151816003015560a0820151816004019080519060200190620007ad92919062001745565b5060c0820151816005015560e08201518160060160006101000a81548160ff021916908315150217905550505060006040518061010001604052806040518060400160405280601081526020017f4f6d6f67656e65697a7a617a696f6e65000000000000000000000000000000008152508152602001600073ffffffffffffffffffffffffffffffffffffffff168152602001600015158152602001600081526020016000815260200160405180602001604052806000815250815260200160025481526020016000151581525090806001815401808255809150506001900390600052602060002090600702016000909190919091506000820151816000019080519060200190620008c292919062001745565b5060208201518160010160006101000a81548173ffffffffffffffffffffffffffffffffffffffff021916908373ffffffffffffffffffffffffffffffffffffffff16021790555060408201518160010160146101000a81548160ff021916908315150217905550606082015181600201556080820151816003015560a08201518160040190805190602001906200095c92919062001745565b5060c0820151816005015560e08201518160060160006101000a81548160ff0219169083151502179055505050600360159054906101000a900460ff161562000b545760006040518061010001604052806040518060400160405280600f81526020017f506173746f72697a7a617a696f6e6500000000000000000000000000000000008152508152602001600073ffffffffffffffffffffffffffffffffffffffff16815260200160001515815260200160008152602001600081526020016040518060200160405280600081525081526020016002548152602001600015158152509080600181540180825580915050600190039060005260206000209060070201600090919091909150600082015181600001908051906020019062000a8792919062001745565b5060208201518160010160006101000a81548173ffffffffffffffffffffffffffffffffffffffff021916908373ffffffffffffffffffffffffffffffffffffffff16021790555060408201518160010160146101000a81548160ff021916908315150217905550606082015181600201556080820151816003015560a082015181600401908051906020019062000b2192919062001745565b5060c0820151816005015560e08201518160060160006101000a81548160ff021916908315150217905550505062000d04565b60006040518061010001604052806040518060400160405280600f81526020017f53746572696c697a7a617a696f6e6500000000000000000000000000000000008152508152602001600073ffffffffffffffffffffffffffffffffffffffff16815260200160001515815260200160008152602001600081526020016040518060200160405280600081525081526020016002548152602001600015158152509080600181540180825580915050600190039060005260206000209060070201600090919091909150600082015181600001908051906020019062000c3c92919062001745565b5060208201518160010160006101000a81548173ffffffffffffffffffffffffffffffffffffffff021916908373ffffffffffffffffffffffffffffffffffffffff16021790555060408201518160010160146101000a81548160ff021916908315150217905550606082015181600201556080820151816003015560a082015181600401908051906020019062000cd692919062001745565b5060c0820151816005015560e08201518160060160006101000a81548160ff02191690831515021790555050505b60006040518061010001604052806040518060400160405280600f81526020017f436f6e66657a696f6e616d656e746f00000000000000000000000000000000008152508152602001600073ffffffffffffffffffffffffffffffffffffffff16815260200160001515815260200160008152602001600081526020016040518060200160405280600081525081526020016002548152602001600015158152509080600181540180825580915050600190039060005260206000209060070201600090919091909150600082015181600001908051906020019062000dec92919062001745565b5060208201518160010160006101000a81548173ffffffffffffffffffffffffffffffffffffffff021916908373ffffffffffffffffffffffffffffffffffffffff16021790555060408201518160010160146101000a81548160ff021916908315150217905550606082015181600201556080820151816003015560a082015181600401908051906020019062000e8692919062001745565b5060c0820151816005015560e08201518160060160006101000a81548160ff0219169083151502179055505050600360159054906101000a900460ff16156200122d5760006040518061010001604052806040518060400160405280601681526020017f53746f6363616767696f20726566726967657261746f000000000000000000008152508152602001600073ffffffffffffffffffffffffffffffffffffffff16815260200160001515815260200160008152602001600081526020016040518060200160405280600081525081526020016002548152602001600015158152509080600181540180825580915050600190039060005260206000209060070201600090919091909150600082015181600001908051906020019062000fb192919062001745565b5060208201518160010160006101000a81548173ffffffffffffffffffffffffffffffffffffffff021916908373ffffffffffffffffffffffffffffffffffffffff16021790555060408201518160010160146101000a81548160ff021916908315150217905550606082015181600201556080820151816003015560a08201518160040190805190602001906200104b92919062001745565b5060c0820151816005015560e08201518160060160006101000a81548160ff021916908315150217905550505060006040518061010001604052806040518060400160405280601981526020017f44697374726962757a696f6e65207265667269676572617461000000000000008152508152602001600073ffffffffffffffffffffffffffffffffffffffff1681526020016000151581526020016000815260200160008152602001604051806020016040528060008152508152602001600254815260200160001515815250908060018154018082558091505060019003906000526020600020906007020160009091909190915060008201518160000190805190602001906200116092919062001745565b5060208201518160010160006101000a81548173ffffffffffffffffffffffffffffffffffffffff021916908373ffffffffffffffffffffffffffffffffffffffff16021790555060408201518160010160146101000a81548160ff021916908315150217905550606082015181600201556080820151816003015560a0820151816004019080519060200190620011fa92919062001745565b5060c0820151816005015560e08201518160060160006101000a81548160ff02191690831515021790555050506200158c565b60006040518061010001604052806040518060400160405280600a81526020017f53746f6363616767696f000000000000000000000000000000000000000000008152508152602001600073ffffffffffffffffffffffffffffffffffffffff1681526020016000151581526020016000815260200160008152602001604051806020016040528060008152508152602001600254815260200160001515815250908060018154018082558091505060019003906000526020600020906007020160009091909190915060008201518160000190805190602001906200131592919062001745565b5060208201518160010160006101000a81548173ffffffffffffffffffffffffffffffffffffffff021916908373ffffffffffffffffffffffffffffffffffffffff16021790555060408201518160010160146101000a81548160ff021916908315150217905550606082015181600201556080820151816003015560a0820151816004019080519060200190620013af92919062001745565b5060c0820151816005015560e08201518160060160006101000a81548160ff021916908315150217905550505060006040518061010001604052806040518060400160405280600d81526020017f44697374726962757a696f6e65000000000000000000000000000000000000008152508152602001600073ffffffffffffffffffffffffffffffffffffffff168152602001600015158152602001600081526020016000815260200160405180602001604052806000815250815260200160025481526020016000151581525090806001815401808255809150506001900390600052602060002090600702016000909190919091506000820151816000019080519060200190620014c492919062001745565b5060208201518160010160006101000a81548173ffffffffffffffffffffffffffffffffffffffff021916908373ffffffffffffffffffffffffffffffffffffffff16021790555060408201518160010160146101000a81548160ff021916908315150217905550606082015181600201556080820151816003015560a08201518160040190805190602001906200155e92919062001745565b5060c0820151816005015560e08201518160060160006101000a81548160ff02191690831515021790555050505b60006040518061010001604052806040518060400160405280600881526020017f436f6e7365676e610000000000000000000000000000000000000000000000008152508152602001600073ffffffffffffffffffffffffffffffffffffffff1681526020016000151581526020016000815260200160008152602001604051806020016040528060008152508152602001600254815260200160001515815250908060018154018082558091505060019003906000526020600020906007020160009091909190915060008201518160000190805190602001906200167492919062001745565b5060208201518160010160006101000a81548173ffffffffffffffffffffffffffffffffffffffff021916908373ffffffffffffffffffffffffffffffffffffffff16021790555060408201518160010160146101000a81548160ff021916908315150217905550606082015181600201556080820151816003015560a08201518160040190805190602001906200170e92919062001745565b5060c0820151816005015560e08201518160060160006101000a81548160ff02191690831515021790555050506000600181905550565b8280546200175390620018da565b90600052602060002090601f016020900481019282620017775760008555620017c3565b82601f106200179257805160ff1916838001178555620017c3565b82800160010185558215620017c3579182015b82811115620017c2578251825591602001919060010190620017a5565b5b509050620017d29190620017d6565b5090565b5b80821115620017f1576000816000905550600101620017d7565b5090565b60008151905062001806816200193f565b92915050565b6000815190506200181d8162001959565b92915050565b600081519050620018348162001973565b92915050565b6000806000606084860312156200185057600080fd5b6000620018608682870162001823565b93505060206200187386828701620017f5565b925050604062001886868287016200180c565b9150509250925092565b60006200189d82620018b0565b9050919050565b60008115159050919050565b600073ffffffffffffffffffffffffffffffffffffffff82169050919050565b6000819050919050565b60006002820490506001821680620018f357607f821691505b602082108114156200190a576200190962001910565b5b50919050565b7f4e487b7100000000000000000000000000000000000000000000000000000000600052602260045260246000fd5b6200194a8162001890565b81146200195657600080fd5b50565b6200196481620018a4565b81146200197057600080fd5b50565b6200197e81620018d0565b81146200198a57600080fd5b50565b6121e3806200199d6000396000f3fe608060405234801561001057600080fd5b50600436106100cf5760003560e01c80637217e0b91161008c5780639597fe9f116100665780639597fe9f146101e1578063c45a0155146101ff578063d7d7e9fa1461021d578063f416334014610239576100cf565b80637217e0b91461017057806375b63460146101a75780638b1659f5146101c3576100cf565b8063040c22c0146100d45780631846c134146100f0578063334f45ec1461010e5780635da65ada1461012c5780635f206b321461014a57806366ea962414610166575b600080fd5b6100ee60048036038101906100e991906117d8565b610257565b005b6100f86105f5565b6040516101059190611ce3565b60405180910390f35b610116610608565b6040516101239190611e6a565b60405180910390f35b61013461060e565b6040516101419190611cc1565b60405180910390f35b610164600480360381019061015f919061175b565b61083c565b005b61016e610a24565b005b61018a60048036038101906101859190611819565b610d58565b60405161019e989796959493929190611cfe565b60405180910390f35b6101c160048036038101906101bc9190611732565b610efa565b005b6101cb6111b3565b6040516101d89190611ce3565b60405180910390f35b6101e96111c4565b6040516101f69190611e6a565b60405180910390f35b6102076111ca565b6040516102149190611ca6565b60405180910390f35b610237600480360381019061023291906116f1565b6111f0565b005b6102416114e9565b60405161024e9190611ce3565b60405180910390f35b6000600360009054906101000a900473ffffffffffffffffffffffffffffffffffffffff16905060008173ffffffffffffffffffffffffffffffffffffffff166344276733336040518263ffffffff1660e01b81526004016102b99190611ca6565b60206040518083038186803b1580156102d157600080fd5b505afa1580156102e5573d6000803e3d6000fd5b505050506040513d601f19601f8201168201806040525081019061030991906117af565b905060026003811115610345577f4e487b7100000000000000000000000000000000000000000000000000000000600052602160045260246000fd5b81600381111561037e577f4e487b7100000000000000000000000000000000000000000000000000000000600052602160045260246000fd5b146103be576040517f08c379a00000000000000000000000000000000000000000000000000000000081526004016103b590611d8a565b60405180910390fd5b600360149054906101000a900460ff161561040e576040517f08c379a000000000000000000000000000000000000000000000000000000000815260040161040590611e2a565b60405180910390fd5b60008054905060015410610457576040517f08c379a000000000000000000000000000000000000000000000000000000000815260040161044e90611e4a565b60405180910390fd5b60008060015481548110610494577f4e487b7100000000000000000000000000000000000000000000000000000000600052603260045260246000fd5b906000526020600020906007020190508060010160009054906101000a900473ffffffffffffffffffffffffffffffffffffffff1673ffffffffffffffffffffffffffffffffffffffff163373ffffffffffffffffffffffffffffffffffffffff1614610536576040517f08c379a000000000000000000000000000000000000000000000000000000000815260040161052d90611dea565b60405180910390fd5b60018160010160146101000a81548160ff021916908315150217905550428160030181905550838160040190805190602001906105749291906114fc565b506001600081548092919061058890612034565b919050555060008054905060015410156105ef57426000600154815481106105d9577f4e487b7100000000000000000000000000000000000000000000000000000000600052603260045260246000fd5b9060005260206000209060070201600201819055505b50505050565b600360159054906101000a900460ff1681565b60015481565b60606000805480602002602001604051908101604052809291908181526020016000905b8282101561083357838290600052602060002090600702016040518061010001604052908160008201805461066690612002565b80601f016020809104026020016040519081016040528092919081815260200182805461069290612002565b80156106df5780601f106106b4576101008083540402835291602001916106df565b820191906000526020600020905b8154815290600101906020018083116106c257829003601f168201915b505050505081526020016001820160009054906101000a900473ffffffffffffffffffffffffffffffffffffffff1673ffffffffffffffffffffffffffffffffffffffff1673ffffffffffffffffffffffffffffffffffffffff1681526020016001820160149054906101000a900460ff16151515158152602001600282015481526020016003820154815260200160048201805461077d90612002565b80601f01602080910402602001604051908101604052809291908181526020018280546107a990612002565b80156107f65780601f106107cb576101008083540402835291602001916107f6565b820191906000526020600020905b8154815290600101906020018083116107d957829003601f168201915b50505050508152602001600582015481526020016006820160009054906101000a900460ff16151515158152505081526020019060010190610632565b50505050905090565b60008060015481548110610879577f4e487b7100000000000000000000000000000000000000000000000000000000600052603260045260246000fd5b9060005260206000209060070201905082156109ac5760018160010160146101000a81548160ff021916908315150217905550428160030181905550600960015414156108de57818160040190805190602001906108d89291906114fc565b5061092d565b6040518060400160405280602081526020017f50726f6365647572612061646567756174612061676c69207374616e6461726481525081600401908051906020019061092b9291906114fc565b505b6001600081548092919061094090612034565b919050555060008054905060015410156109a75742600060015481548110610991577f4e487b7100000000000000000000000000000000000000000000000000000000600052603260045260246000fd5b9060005260206000209060070201600201819055505b610a1f565b60018160060160006101000a81548160ff0219169083151502179055506001600360146101000a81548160ff0219169083151502179055504281600301819055506040518060600160405280603d8152602001612171603d9139816004019080519060200190610a1d9291906114fc565b505b505050565b6000600360009054906101000a900473ffffffffffffffffffffffffffffffffffffffff16905060008173ffffffffffffffffffffffffffffffffffffffff166344276733336040518263ffffffff1660e01b8152600401610a869190611ca6565b60206040518083038186803b158015610a9e57600080fd5b505afa158015610ab2573d6000803e3d6000fd5b505050506040513d601f19601f82011682018060405250810190610ad691906117af565b905060026003811115610b12577f4e487b7100000000000000000000000000000000000000000000000000000000600052602160045260246000fd5b816003811115610b4b577f4e487b7100000000000000000000000000000000000000000000000000000000600052602160045260246000fd5b14610b8b576040517f08c379a0000000000000000000000000000000000000000000000000000000008152600401610b8290611d8a565b60405180910390fd5b600360149054906101000a900460ff1615610bdb576040517f08c379a0000000000000000000000000000000000000000000000000000000008152600401610bd290611e2a565b60405180910390fd5b60008054905060015410610c24576040517f08c379a0000000000000000000000000000000000000000000000000000000008152600401610c1b90611e4a565b60405180910390fd5b60008060015481548110610c61577f4e487b7100000000000000000000000000000000000000000000000000000000600052603260045260246000fd5b906000526020600020906007020190508060010160009054906101000a900473ffffffffffffffffffffffffffffffffffffffff1673ffffffffffffffffffffffffffffffffffffffff163373ffffffffffffffffffffffffffffffffffffffff1614610d03576040517f08c379a0000000000000000000000000000000000000000000000000000000008152600401610cfa90611daa565b60405180910390fd5b60018160060160006101000a81548160ff0219169083151502179055506001600360146101000a81548160ff02191690831515021790555060016000815480929190610d4e90612034565b9190505550505050565b60008181548110610d6857600080fd5b9060005260206000209060070201600091509050806000018054610d8b90612002565b80601f0160208091040260200160405190810160405280929190818152602001828054610db790612002565b8015610e045780601f10610dd957610100808354040283529160200191610e04565b820191906000526020600020905b815481529060010190602001808311610de757829003601f168201915b5050505050908060010160009054906101000a900473ffffffffffffffffffffffffffffffffffffffff16908060010160149054906101000a900460ff1690806002015490806003015490806004018054610e5e90612002565b80601f0160208091040260200160405190810160405280929190818152602001828054610e8a90612002565b8015610ed75780601f10610eac57610100808354040283529160200191610ed7565b820191906000526020600020905b815481529060010190602001808311610eba57829003601f168201915b5050505050908060050154908060060160009054906101000a900460ff16905088565b600360149054906101000a900460ff1615610f4a576040517f08c379a0000000000000000000000000000000000000000000000000000000008152600401610f4190611e2a565b60405180910390fd5b60008060015481548110610f87577f4e487b7100000000000000000000000000000000000000000000000000000000600052603260045260246000fd5b9060005260206000209060070201905081156110905760018160010160146101000a81548160ff0219169083151502179055504281600301819055506040518060400160405280602081526020017f50726f6365647572612061646567756174612061676c69207374616e646172648152508160040190805190602001906110109291906114fc565b506001600081548092919061102490612034565b9190505550600080549050600154101561108b5742600060015481548110611075577f4e487b7100000000000000000000000000000000000000000000000000000000600052603260045260246000fd5b9060005260206000209060070201600201819055505b6111af565b60018160060160006101000a81548160ff0219169083151502179055506001600360146101000a81548160ff02191690831515021790555042816003018190555060018054141561112e576040518060400160405280601b81526020017f54726173706f72746f20696e207374726164612066616c6c69746f00000000008152508160040190805190602001906111289291906114fc565b506111ae565b6007600154148061114157506008600154145b80156111595750600360159054906101000a900460ff165b156111ad576040518060400160405280600f81526020017f53746f726167652066616c6c69746f00000000000000000000000000000000008152508160040190805190602001906111ab9291906114fc565b505b5b5b5050565b600080805490506001541015905090565b60025481565b600360009054906101000a900473ffffffffffffffffffffffffffffffffffffffff1681565b6000600360009054906101000a900473ffffffffffffffffffffffffffffffffffffffff16905060008173ffffffffffffffffffffffffffffffffffffffff166344276733336040518263ffffffff1660e01b81526004016112529190611ca6565b60206040518083038186803b15801561126a57600080fd5b505afa15801561127e573d6000803e3d6000fd5b505050506040513d601f19601f820116820180604052508101906112a291906117af565b9050600160038111156112de577f4e487b7100000000000000000000000000000000000000000000000000000000600052602160045260246000fd5b816003811115611317577f4e487b7100000000000000000000000000000000000000000000000000000000600052602160045260246000fd5b14611357576040517f08c379a000000000000000000000000000000000000000000000000000000000815260040161134e90611e0a565b60405180910390fd5b600080805490501161139e576040517f08c379a000000000000000000000000000000000000000000000000000000000815260040161139590611dca565b60405180910390fd5b6000805b6000805490508110156114e257600181141580156113c1575060058114155b80156113f15750600360159054906101000a900460ff1680156113ef575060078114806113ee5750600881145b5b155b156114cf5784828151811061142f577f4e487b7100000000000000000000000000000000000000000000000000000000600052603260045260246000fd5b602002602001015160008281548110611471577f4e487b7100000000000000000000000000000000000000000000000000000000600052603260045260246000fd5b906000526020600020906007020160010160006101000a81548173ffffffffffffffffffffffffffffffffffffffff021916908373ffffffffffffffffffffffffffffffffffffffff16021790555081806114cb90612034565b9250505b80806114da90612034565b9150506113a2565b5050505050565b600360149054906101000a900460ff1681565b82805461150890612002565b90600052602060002090601f01602090048101928261152a5760008555611571565b82601f1061154357805160ff1916838001178555611571565b82800160010185558215611571579182015b82811115611570578251825591602001919060010190611555565b5b50905061157e9190611582565b5090565b5b8082111561159b576000816000905550600101611583565b5090565b60006115b26115ad84611eb6565b611e85565b905080838252602082019050828560208602820111156115d157600080fd5b60005b8581101561160157816115e78882611649565b8452602084019350602083019250506001810190506115d4565b5050509392505050565b600061161e61161984611ee2565b611e85565b90508281526020810184848401111561163657600080fd5b611641848285611fc0565b509392505050565b6000813590506116588161211b565b92915050565b600082601f83011261166f57600080fd5b813561167f84826020860161159f565b91505092915050565b60008135905061169781612132565b92915050565b6000815190506116ac81612149565b92915050565b600082601f8301126116c357600080fd5b81356116d384826020860161160b565b91505092915050565b6000813590506116eb81612159565b92915050565b60006020828403121561170357600080fd5b600082013567ffffffffffffffff81111561171d57600080fd5b6117298482850161165e565b91505092915050565b60006020828403121561174457600080fd5b600061175284828501611688565b91505092915050565b6000806040838503121561176e57600080fd5b600061177c85828601611688565b925050602083013567ffffffffffffffff81111561179957600080fd5b6117a5858286016116b2565b9150509250929050565b6000602082840312156117c157600080fd5b60006117cf8482850161169d565b91505092915050565b6000602082840312156117ea57600080fd5b600082013567ffffffffffffffff81111561180457600080fd5b611810848285016116b2565b91505092915050565b60006020828403121561182b57600080fd5b6000611839848285016116dc565b91505092915050565b600061184e8383611bd1565b905092915050565b61185f81611f78565b82525050565b61186e81611f78565b82525050565b600061187f82611f22565b6118898185611f45565b93508360208202850161189b85611f12565b8060005b858110156118d757848403895281516118b88582611842565b94506118c383611f38565b925060208a0199505060018101905061189f565b50829750879550505050505092915050565b6118f281611f8a565b82525050565b61190181611f8a565b82525050565b600061191282611f2d565b61191c8185611f56565b935061192c818560208601611fcf565b6119358161210a565b840191505092915050565b600061194b82611f2d565b6119558185611f67565b9350611965818560208601611fcf565b61196e8161210a565b840191505092915050565b6000611986602783611f67565b91507f4f6e6c792073757065727669736f722063616e20706572666f726d207468697360008301527f20616374696f6e000000000000000000000000000000000000000000000000006020830152604082019050919050565b60006119ec602a83611f67565b91507f4f6e6c792061737369676e65642073757065727669736f722063616e2066616960008301527f6c207468652073746570000000000000000000000000000000000000000000006020830152604082019050919050565b6000611a52601b83611f67565b91507f53746570732061727261792063616e6e6f7420626520656d70747900000000006000830152602082019050919050565b6000611a92602e83611f67565b91507f4f6e6c792061737369676e65642073757065727669736f722063616e20636f6d60008301527f706c6574652074686520737465700000000000000000000000000000000000006020830152604082019050919050565b6000611af8602283611f67565b91507f4f6e6c792061646d696e2063616e20706572666f726d2074686973206163746960008301527f6f6e0000000000000000000000000000000000000000000000000000000000006020830152604082019050919050565b6000611b5e601a83611f67565b91507f50726f636573732068617320616c7265616479206661696c65640000000000006000830152602082019050919050565b6000611b9e601f83611f67565b91507f416c6c2073746570732061726520616c726561647920636f6d706c65746564006000830152602082019050919050565b6000610100830160008301518482036000860152611bef8282611907565b9150506020830151611c046020860182611856565b506040830151611c1760408601826118e9565b506060830151611c2a6060860182611c88565b506080830151611c3d6080860182611c88565b5060a083015184820360a0860152611c558282611907565b91505060c0830151611c6a60c0860182611c88565b5060e0830151611c7d60e08601826118e9565b508091505092915050565b611c9181611fb6565b82525050565b611ca081611fb6565b82525050565b6000602082019050611cbb6000830184611865565b92915050565b60006020820190508181036000830152611cdb8184611874565b905092915050565b6000602082019050611cf860008301846118f8565b92915050565b6000610100820190508181036000830152611d19818b611940565b9050611d28602083018a611865565b611d3560408301896118f8565b611d426060830188611c97565b611d4f6080830187611c97565b81810360a0830152611d618186611940565b9050611d7060c0830185611c97565b611d7d60e08301846118f8565b9998505050505050505050565b60006020820190508181036000830152611da381611979565b9050919050565b60006020820190508181036000830152611dc3816119df565b9050919050565b60006020820190508181036000830152611de381611a45565b9050919050565b60006020820190508181036000830152611e0381611a85565b9050919050565b60006020820190508181036000830152611e2381611aeb565b9050919050565b60006020820190508181036000830152611e4381611b51565b9050919050565b60006020820190508181036000830152611e6381611b91565b9050919050565b6000602082019050611e7f6000830184611c97565b92915050565b6000604051905081810181811067ffffffffffffffff82111715611eac57611eab6120db565b5b8060405250919050565b600067ffffffffffffffff821115611ed157611ed06120db565b5b602082029050602081019050919050565b600067ffffffffffffffff821115611efd57611efc6120db565b5b601f19601f8301169050602081019050919050565b6000819050602082019050919050565b600081519050919050565b600081519050919050565b6000602082019050919050565b600082825260208201905092915050565b600082825260208201905092915050565b600082825260208201905092915050565b6000611f8382611f96565b9050919050565b60008115159050919050565b600073ffffffffffffffffffffffffffffffffffffffff82169050919050565b6000819050919050565b82818337600083830152505050565b60005b83811015611fed578082015181840152602081019050611fd2565b83811115611ffc576000848401525b50505050565b6000600282049050600182168061201a57607f821691505b6020821081141561202e5761202d6120ac565b5b50919050565b600061203f82611fb6565b91507fffffffffffffffffffffffffffffffffffffffffffffffffffffffffffffffff8214156120725761207161207d565b5b600182019050919050565b7f4e487b7100000000000000000000000000000000000000000000000000000000600052601160045260246000fd5b7f4e487b7100000000000000000000000000000000000000000000000000000000600052602260045260246000fd5b7f4e487b7100000000000000000000000000000000000000000000000000000000600052604160045260246000fd5b6000601f19601f8301169050919050565b61212481611f78565b811461212f57600080fd5b50565b61213b81611f8a565b811461214657600080fd5b50565b6004811061215657600080fd5b50565b61216281611fb6565b811461216d57600080fd5b5056fe4c61206c6f636174696f6e2064656c20747275636b20652720646976657273612064616c6c27616464726573732064692064657374696e617a696f6e65a26469706673582212205bb60f3b657c06942f523b62f671449ef37c6067f19cff32bacfdb18d016e22e64736f6c63430008000033",
  "immutableReferences": {},
  "source": "// SPDX-License-Identifier: MIT\r\npragma solidity ^0.8.0;\r\n\r\nimport \"./MilkProcessFactory.sol\";\r\n\r\n// The MilkProcess contract tracks and manages the steps in the milk processing workflow.\r\ncontract MilkProcess {\r\n\r\n    // Step struct represents a single step in the milk processing workflow.\r\n    struct Step {\r\n        string name;\r\n        address supervisor;    \r\n        bool completed;        \r\n        uint startTime;       \r\n        uint endTime;         \r\n        string location;     \r\n        uint lotNumber;       \r\n        bool failed;           \r\n    }\r\n\r\n    // Array to store all steps in the process.\r\n    Step[] public steps;\r\n    // Index of the current step being executed.\r\n    uint public currentStepIndex;\r\n    // Lot number for the current process.\r\n    uint public lotNumber;\r\n    // Address of the factory contract.\r\n    address public factory;\r\n    // Indicates if the process has failed.\r\n    bool public isFailed;\r\n    // Indicates if the process is for intero (whole) milk.\r\n    bool public isIntero;\r\n\r\n    // Constructor initializes the contract with the lot number, factory address, and milk type.\r\n    constructor(uint _lotNumber, address _factory, bool _isIntero) {\r\n        lotNumber = _lotNumber;\r\n        factory = _factory;\r\n        isFailed = false;\r\n        isIntero = _isIntero;\r\n        initializeSteps();               \r\n        steps[0].startTime = block.timestamp;  \r\n    }\r\n\r\n    // Internal function to initialize the steps based on the milk type.\r\n    function initializeSteps() internal {\r\n        steps.push(Step(\"Raccolta\", address(0), false, 0, 0, \"\", lotNumber, false));\r\n        steps.push(Step(\"Trasporto\", address(0), false, 0, 0, \"\", lotNumber, false)); // Supervisore automatico\r\n        steps.push(Step(\"Pulitura\", address(0), false, 0, 0, \"\", lotNumber, false)); \r\n        steps.push(Step(\"Standardizzazione\", address(0), false, 0, 0, \"\", lotNumber, false));\r\n        steps.push(Step(\"Omogeneizzazione\", address(0), false, 0, 0, \"\", lotNumber, false));\r\n        if (isIntero) {\r\n            steps.push(Step(\"Pastorizzazione\", address(0), false, 0, 0, \"\", lotNumber, false)); // Supervisore automatico\r\n        } else {\r\n            steps.push(Step(\"Sterilizzazione\", address(0), false, 0, 0, \"\", lotNumber, false)); // Supervisore automatico\r\n        }\r\n        steps.push(Step(\"Confezionamento\", address(0), false, 0, 0, \"\", lotNumber, false));\r\n        if (isIntero) {\r\n            steps.push(Step(\"Stoccaggio refrigerato\", address(0), false, 0, 0, \"\", lotNumber, false)); // Supervisore automatico\r\n            steps.push(Step(\"Distribuzione refrigerata\", address(0), false, 0, 0, \"\", lotNumber, false));\r\n        } else {\r\n            steps.push(Step(\"Stoccaggio\", address(0), false, 0, 0, \"\", lotNumber, false)); // Supervisore automatico\r\n            steps.push(Step(\"Distribuzione\", address(0), false, 0, 0, \"\", lotNumber, false));\r\n        }\r\n        steps.push(Step(\"Consegna\", address(0), false, 0, 0, \"\", lotNumber, false));\r\n        currentStepIndex = 0;\r\n    }\r\n\r\n    // Assigns supervisors to specific steps in the process.\r\n    function assignSupervisors(address[] memory supervisors) external onlyAdmin {\r\n        require(steps.length > 0, \"Steps array cannot be empty\");\r\n        uint j = 0;\r\n        for (uint i = 0; i < steps.length; i++) {\r\n            if (i != 1 && i != 5 && !(isIntero && (i == 7 || i == 8))) {\r\n                steps[i].supervisor = supervisors[j];\r\n                j++;\r\n            }\r\n        }\r\n    }\r\n\r\n    // Completes the current step and records the location where it was completed.\r\n    function completeStep(string memory _location) external onlySupervisor {\r\n        require(!isFailed, \"Process has already failed\");\r\n        require(currentStepIndex < steps.length, \"All steps are already completed\");\r\n        Step storage step = steps[currentStepIndex];\r\n        require(msg.sender == step.supervisor, \"Only assigned supervisor can complete the step\");\r\n        step.completed = true;\r\n        step.endTime = block.timestamp;\r\n        step.location = _location;\r\n\r\n        currentStepIndex++;\r\n\r\n        if (currentStepIndex < steps.length) {\r\n            steps[currentStepIndex].startTime = block.timestamp;\r\n        }\r\n    }\r\n\r\n    // Marks the current step as failed.\r\n    function failStep() external onlySupervisor {\r\n        require(!isFailed, \"Process has already failed\");\r\n        require(currentStepIndex < steps.length, \"All steps are already completed\");\r\n        Step storage step = steps[currentStepIndex];\r\n        require(msg.sender == step.supervisor, \"Only assigned supervisor can fail the step\");\r\n        step.failed = true;\r\n        isFailed = true;\r\n        currentStepIndex++;\r\n    }\r\n\r\n    // Validates the temperature and completes or fails the step accordingly.\r\n    function isTemperatureOK(bool valid) external {\r\n        require(!isFailed, \"Process has already failed\");\r\n\r\n        Step storage step = steps[currentStepIndex];\r\n\r\n        if (valid) {\r\n            step.completed = true;\r\n            step.endTime = block.timestamp;\r\n            step.location = \"Procedura adeguata agli standard\";\r\n            currentStepIndex++;\r\n            if (currentStepIndex < steps.length) {\r\n                steps[currentStepIndex].startTime = block.timestamp;\r\n            }\r\n        } else {\r\n            step.failed = true;\r\n            isFailed = true;\r\n            step.endTime = block.timestamp;\r\n            if (currentStepIndex == 1) {\r\n                step.location = \"Trasporto in strada fallito\";\r\n            } else if ((currentStepIndex == 7 || currentStepIndex == 8) && isIntero) {\r\n                step.location = \"Storage fallito\";\r\n            }\r\n        }\r\n    }\r\n\r\n    // Validates the location and completes or fails the step accordingly.\r\n    function isLocationReasonable(bool valid, string memory _location) external {\r\n        Step storage step = steps[currentStepIndex];\r\n        if (valid) {\r\n            step.completed = true;\r\n            step.endTime = block.timestamp;\r\n            if (currentStepIndex == 9) {\r\n                step.location = _location;\r\n            } else {\r\n                step.location = \"Procedura adeguata agli standard\";\r\n            }\r\n            currentStepIndex++;\r\n            if (currentStepIndex < steps.length) {\r\n                steps[currentStepIndex].startTime = block.timestamp;\r\n            }\r\n        } else {\r\n            step.failed = true;\r\n            isFailed = true;\r\n            step.endTime = block.timestamp;\r\n            step.location = \"La location del truck e' diversa dall'address di destinazione\";\r\n        }\r\n    }\r\n\r\n    // Checks if the entire process is completed.\r\n    function isProcessCompleted() external view returns (bool) {\r\n        return currentStepIndex >= steps.length;\r\n    }\r\n\r\n    // Returns all the steps in the process.\r\n    function getSteps() external view returns (Step[] memory) {\r\n        return steps;\r\n    }\r\n\r\n    // Modifier to restrict access to only admins.\r\n    modifier onlyAdmin() {\r\n        MilkProcessFactory factoryContract = MilkProcessFactory(factory);\r\n        MilkProcessFactory.Role role = factoryContract.getRole(msg.sender);\r\n        require(role == MilkProcessFactory.Role.Admin, \"Only admin can perform this action\");\r\n        _;\r\n    }\r\n\r\n    // Modifier to restrict access to only supervisors.\r\n    modifier onlySupervisor() {\r\n        MilkProcessFactory factoryContract = MilkProcessFactory(factory);\r\n        MilkProcessFactory.Role role = factoryContract.getRole(msg.sender);\r\n        require(role == MilkProcessFactory.Role.Supervisor, \"Only supervisor can perform this action\");\r\n        _;\r\n    }\r\n}\r\n",
  "sourcePath": "C:\\Users\\gbeks\\OneDrive\\Desktop\\MilkChain\\backend\\contracts\\MilkProcess.sol",
  "compiler": {
    "name": "solc",
    "version": "0.8.0+commit.c7dfd78e.Emscripten.clang"
  },
  "schemaVersion": "3.4.16",
  "updatedAt": "2024-07-26T15:16:43.682Z",
  "devdoc": {
    "kind": "dev",
    "methods": {},
    "version": 1
  },
  "userdoc": {
    "kind": "user",
    "methods": {},
    "version": 1
  }
}