{
  "contractName": "MilkProcess",
  "abi": [
    {
      "inputs": [
        {
          "internalType": "uint256",
          "name": "_lotNumber",
          "type": "uint256"
        },
        {
          "internalType": "address",
          "name": "_factory",
          "type": "address"
        },
        {
          "internalType": "bool",
          "name": "_isIntero",
          "type": "bool"
        }
      ],
      "stateMutability": "nonpayable",
      "type": "constructor"
    },
    {
      "inputs": [],
      "name": "currentStepIndex",
      "outputs": [
        {
          "internalType": "uint256",
          "name": "",
          "type": "uint256"
        }
      ],
      "stateMutability": "view",
      "type": "function"
    },
    {
      "inputs": [],
      "name": "factory",
      "outputs": [
        {
          "internalType": "address",
          "name": "",
          "type": "address"
        }
      ],
      "stateMutability": "view",
      "type": "function"
    },
    {
      "inputs": [],
      "name": "isFailed",
      "outputs": [
        {
          "internalType": "bool",
          "name": "",
          "type": "bool"
        }
      ],
      "stateMutability": "view",
      "type": "function"
    },
    {
      "inputs": [],
      "name": "isIntero",
      "outputs": [
        {
          "internalType": "bool",
          "name": "",
          "type": "bool"
        }
      ],
      "stateMutability": "view",
      "type": "function"
    },
    {
      "inputs": [],
      "name": "lotNumber",
      "outputs": [
        {
          "internalType": "uint256",
          "name": "",
          "type": "uint256"
        }
      ],
      "stateMutability": "view",
      "type": "function"
    },
    {
      "inputs": [
        {
          "internalType": "uint256",
          "name": "",
          "type": "uint256"
        }
      ],
      "name": "steps",
      "outputs": [
        {
          "internalType": "string",
          "name": "name",
          "type": "string"
        },
        {
          "internalType": "address",
          "name": "supervisor",
          "type": "address"
        },
        {
          "internalType": "bool",
          "name": "completed",
          "type": "bool"
        },
        {
          "internalType": "uint256",
          "name": "startTime",
          "type": "uint256"
        },
        {
          "internalType": "uint256",
          "name": "endTime",
          "type": "uint256"
        },
        {
          "internalType": "string",
          "name": "location",
          "type": "string"
        },
        {
          "internalType": "uint256",
          "name": "lotNumber",
          "type": "uint256"
        },
        {
          "internalType": "bool",
          "name": "failed",
          "type": "bool"
        }
      ],
      "stateMutability": "view",
      "type": "function"
    },
    {
      "inputs": [
        {
          "internalType": "address[]",
          "name": "supervisors",
          "type": "address[]"
        }
      ],
      "name": "assignSupervisors",
      "outputs": [],
      "stateMutability": "nonpayable",
      "type": "function"
    },
    {
      "inputs": [
        {
          "internalType": "string",
          "name": "_location",
          "type": "string"
        }
      ],
      "name": "completeStep",
      "outputs": [],
      "stateMutability": "nonpayable",
      "type": "function"
    },
    {
      "inputs": [],
      "name": "failStep",
      "outputs": [],
      "stateMutability": "nonpayable",
      "type": "function"
    },
    {
      "inputs": [
        {
          "internalType": "bool",
          "name": "valid",
          "type": "bool"
        }
      ],
      "name": "isTemperatureOK",
      "outputs": [],
      "stateMutability": "nonpayable",
      "type": "function"
    },
    {
      "inputs": [
        {
          "internalType": "bool",
          "name": "valid",
          "type": "bool"
        }
      ],
      "name": "isLocationReasonable",
      "outputs": [],
      "stateMutability": "nonpayable",
      "type": "function"
    },
    {
      "inputs": [],
      "name": "isProcessCompleted",
      "outputs": [
        {
          "internalType": "bool",
          "name": "",
          "type": "bool"
        }
      ],
      "stateMutability": "view",
      "type": "function"
    },
    {
      "inputs": [],
      "name": "getSteps",
      "outputs": [
        {
          "components": [
            {
              "internalType": "string",
              "name": "name",
              "type": "string"
            },
            {
              "internalType": "address",
              "name": "supervisor",
              "type": "address"
            },
            {
              "internalType": "bool",
              "name": "completed",
              "type": "bool"
            },
            {
              "internalType": "uint256",
              "name": "startTime",
              "type": "uint256"
            },
            {
              "internalType": "uint256",
              "name": "endTime",
              "type": "uint256"
            },
            {
              "internalType": "string",
              "name": "location",
              "type": "string"
            },
            {
              "internalType": "uint256",
              "name": "lotNumber",
              "type": "uint256"
            },
            {
              "internalType": "bool",
              "name": "failed",
              "type": "bool"
            }
          ],
          "internalType": "struct MilkProcess.Step[]",
          "name": "",
          "type": "tuple[]"
        }
      ],
      "stateMutability": "view",
      "type": "function"
    }
  ],
  "bytecode": "0x60806040523480156200001157600080fd5b5060405162003af338038062003af383398181016040528101906200003791906200183a565b8260028190555081600360006101000a81548173ffffffffffffffffffffffffffffffffffffffff021916908373ffffffffffffffffffffffffffffffffffffffff1602179055506000600360146101000a81548160ff02191690831515021790555080600360156101000a81548160ff021916908315150217905550620000c46200011e60201b60201c565b426000808154811062000100577f4e487b7100000000000000000000000000000000000000000000000000000000600052603260045260246000fd5b9060005260206000209060070201600201819055505050506200198d565b60006040518061010001604052806040518060400160405280600881526020017f526163636f6c74610000000000000000000000000000000000000000000000008152508152602001600073ffffffffffffffffffffffffffffffffffffffff1681526020016000151581526020016000815260200160008152602001604051806020016040528060008152508152602001600254815260200160001515815250908060018154018082558091505060019003906000526020600020906007020160009091909190915060008201518160000190805190602001906200020692919062001745565b5060208201518160010160006101000a81548173ffffffffffffffffffffffffffffffffffffffff021916908373ffffffffffffffffffffffffffffffffffffffff16021790555060408201518160010160146101000a81548160ff021916908315150217905550606082015181600201556080820151816003015560a0820151816004019080519060200190620002a092919062001745565b5060c0820151816005015560e08201518160060160006101000a81548160ff021916908315150217905550505060006040518061010001604052806040518060400160405280600981526020017f54726173706f72746f00000000000000000000000000000000000000000000008152508152602001600073ffffffffffffffffffffffffffffffffffffffff168152602001600015158152602001600081526020016000815260200160405180602001604052806000815250815260200160025481526020016000151581525090806001815401808255809150506001900390600052602060002090600702016000909190919091506000820151816000019080519060200190620003b592919062001745565b5060208201518160010160006101000a81548173ffffffffffffffffffffffffffffffffffffffff021916908373ffffffffffffffffffffffffffffffffffffffff16021790555060408201518160010160146101000a81548160ff021916908315150217905550606082015181600201556080820151816003015560a08201518160040190805190602001906200044f92919062001745565b5060c0820151816005015560e08201518160060160006101000a81548160ff021916908315150217905550505060006040518061010001604052806040518060400160405280600881526020017f50756c69747572610000000000000000000000000000000000000000000000008152508152602001600073ffffffffffffffffffffffffffffffffffffffff1681526020016000151581526020016000815260200160008152602001604051806020016040528060008152508152602001600254815260200160001515815250908060018154018082558091505060019003906000526020600020906007020160009091909190915060008201518160000190805190602001906200056492919062001745565b5060208201518160010160006101000a81548173ffffffffffffffffffffffffffffffffffffffff021916908373ffffffffffffffffffffffffffffffffffffffff16021790555060408201518160010160146101000a81548160ff021916908315150217905550606082015181600201556080820151816003015560a0820151816004019080519060200190620005fe92919062001745565b5060c0820151816005015560e08201518160060160006101000a81548160ff021916908315150217905550505060006040518061010001604052806040518060400160405280601181526020017f5374616e64617264697a7a617a696f6e650000000000000000000000000000008152508152602001600073ffffffffffffffffffffffffffffffffffffffff1681526020016000151581526020016000815260200160008152602001604051806020016040528060008152508152602001600254815260200160001515815250908060018154018082558091505060019003906000526020600020906007020160009091909190915060008201518160000190805190602001906200071392919062001745565b5060208201518160010160006101000a81548173ffffffffffffffffffffffffffffffffffffffff021916908373ffffffffffffffffffffffffffffffffffffffff16021790555060408201518160010160146101000a81548160ff021916908315150217905550606082015181600201556080820151816003015560a0820151816004019080519060200190620007ad92919062001745565b5060c0820151816005015560e08201518160060160006101000a81548160ff021916908315150217905550505060006040518061010001604052806040518060400160405280601081526020017f4f6d6f67656e65697a7a617a696f6e65000000000000000000000000000000008152508152602001600073ffffffffffffffffffffffffffffffffffffffff168152602001600015158152602001600081526020016000815260200160405180602001604052806000815250815260200160025481526020016000151581525090806001815401808255809150506001900390600052602060002090600702016000909190919091506000820151816000019080519060200190620008c292919062001745565b5060208201518160010160006101000a81548173ffffffffffffffffffffffffffffffffffffffff021916908373ffffffffffffffffffffffffffffffffffffffff16021790555060408201518160010160146101000a81548160ff021916908315150217905550606082015181600201556080820151816003015560a08201518160040190805190602001906200095c92919062001745565b5060c0820151816005015560e08201518160060160006101000a81548160ff0219169083151502179055505050600360159054906101000a900460ff161562000b545760006040518061010001604052806040518060400160405280600f81526020017f506173746f72697a7a617a696f6e6500000000000000000000000000000000008152508152602001600073ffffffffffffffffffffffffffffffffffffffff16815260200160001515815260200160008152602001600081526020016040518060200160405280600081525081526020016002548152602001600015158152509080600181540180825580915050600190039060005260206000209060070201600090919091909150600082015181600001908051906020019062000a8792919062001745565b5060208201518160010160006101000a81548173ffffffffffffffffffffffffffffffffffffffff021916908373ffffffffffffffffffffffffffffffffffffffff16021790555060408201518160010160146101000a81548160ff021916908315150217905550606082015181600201556080820151816003015560a082015181600401908051906020019062000b2192919062001745565b5060c0820151816005015560e08201518160060160006101000a81548160ff021916908315150217905550505062000d04565b60006040518061010001604052806040518060400160405280600f81526020017f53746572696c697a7a617a696f6e6500000000000000000000000000000000008152508152602001600073ffffffffffffffffffffffffffffffffffffffff16815260200160001515815260200160008152602001600081526020016040518060200160405280600081525081526020016002548152602001600015158152509080600181540180825580915050600190039060005260206000209060070201600090919091909150600082015181600001908051906020019062000c3c92919062001745565b5060208201518160010160006101000a81548173ffffffffffffffffffffffffffffffffffffffff021916908373ffffffffffffffffffffffffffffffffffffffff16021790555060408201518160010160146101000a81548160ff021916908315150217905550606082015181600201556080820151816003015560a082015181600401908051906020019062000cd692919062001745565b5060c0820151816005015560e08201518160060160006101000a81548160ff02191690831515021790555050505b60006040518061010001604052806040518060400160405280600f81526020017f436f6e66657a696f6e616d656e746f00000000000000000000000000000000008152508152602001600073ffffffffffffffffffffffffffffffffffffffff16815260200160001515815260200160008152602001600081526020016040518060200160405280600081525081526020016002548152602001600015158152509080600181540180825580915050600190039060005260206000209060070201600090919091909150600082015181600001908051906020019062000dec92919062001745565b5060208201518160010160006101000a81548173ffffffffffffffffffffffffffffffffffffffff021916908373ffffffffffffffffffffffffffffffffffffffff16021790555060408201518160010160146101000a81548160ff021916908315150217905550606082015181600201556080820151816003015560a082015181600401908051906020019062000e8692919062001745565b5060c0820151816005015560e08201518160060160006101000a81548160ff0219169083151502179055505050600360159054906101000a900460ff16156200122d5760006040518061010001604052806040518060400160405280601681526020017f53746f6363616767696f20726566726967657261746f000000000000000000008152508152602001600073ffffffffffffffffffffffffffffffffffffffff16815260200160001515815260200160008152602001600081526020016040518060200160405280600081525081526020016002548152602001600015158152509080600181540180825580915050600190039060005260206000209060070201600090919091909150600082015181600001908051906020019062000fb192919062001745565b5060208201518160010160006101000a81548173ffffffffffffffffffffffffffffffffffffffff021916908373ffffffffffffffffffffffffffffffffffffffff16021790555060408201518160010160146101000a81548160ff021916908315150217905550606082015181600201556080820151816003015560a08201518160040190805190602001906200104b92919062001745565b5060c0820151816005015560e08201518160060160006101000a81548160ff021916908315150217905550505060006040518061010001604052806040518060400160405280601981526020017f44697374726962757a696f6e65207265667269676572617461000000000000008152508152602001600073ffffffffffffffffffffffffffffffffffffffff1681526020016000151581526020016000815260200160008152602001604051806020016040528060008152508152602001600254815260200160001515815250908060018154018082558091505060019003906000526020600020906007020160009091909190915060008201518160000190805190602001906200116092919062001745565b5060208201518160010160006101000a81548173ffffffffffffffffffffffffffffffffffffffff021916908373ffffffffffffffffffffffffffffffffffffffff16021790555060408201518160010160146101000a81548160ff021916908315150217905550606082015181600201556080820151816003015560a0820151816004019080519060200190620011fa92919062001745565b5060c0820151816005015560e08201518160060160006101000a81548160ff02191690831515021790555050506200158c565b60006040518061010001604052806040518060400160405280600a81526020017f53746f6363616767696f000000000000000000000000000000000000000000008152508152602001600073ffffffffffffffffffffffffffffffffffffffff1681526020016000151581526020016000815260200160008152602001604051806020016040528060008152508152602001600254815260200160001515815250908060018154018082558091505060019003906000526020600020906007020160009091909190915060008201518160000190805190602001906200131592919062001745565b5060208201518160010160006101000a81548173ffffffffffffffffffffffffffffffffffffffff021916908373ffffffffffffffffffffffffffffffffffffffff16021790555060408201518160010160146101000a81548160ff021916908315150217905550606082015181600201556080820151816003015560a0820151816004019080519060200190620013af92919062001745565b5060c0820151816005015560e08201518160060160006101000a81548160ff021916908315150217905550505060006040518061010001604052806040518060400160405280600d81526020017f44697374726962757a696f6e65000000000000000000000000000000000000008152508152602001600073ffffffffffffffffffffffffffffffffffffffff168152602001600015158152602001600081526020016000815260200160405180602001604052806000815250815260200160025481526020016000151581525090806001815401808255809150506001900390600052602060002090600702016000909190919091506000820151816000019080519060200190620014c492919062001745565b5060208201518160010160006101000a81548173ffffffffffffffffffffffffffffffffffffffff021916908373ffffffffffffffffffffffffffffffffffffffff16021790555060408201518160010160146101000a81548160ff021916908315150217905550606082015181600201556080820151816003015560a08201518160040190805190602001906200155e92919062001745565b5060c0820151816005015560e08201518160060160006101000a81548160ff02191690831515021790555050505b60006040518061010001604052806040518060400160405280600881526020017f436f6e7365676e610000000000000000000000000000000000000000000000008152508152602001600073ffffffffffffffffffffffffffffffffffffffff1681526020016000151581526020016000815260200160008152602001604051806020016040528060008152508152602001600254815260200160001515815250908060018154018082558091505060019003906000526020600020906007020160009091909190915060008201518160000190805190602001906200167492919062001745565b5060208201518160010160006101000a81548173ffffffffffffffffffffffffffffffffffffffff021916908373ffffffffffffffffffffffffffffffffffffffff16021790555060408201518160010160146101000a81548160ff021916908315150217905550606082015181600201556080820151816003015560a08201518160040190805190602001906200170e92919062001745565b5060c0820151816005015560e08201518160060160006101000a81548160ff02191690831515021790555050506000600181905550565b8280546200175390620018da565b90600052602060002090601f016020900481019282620017775760008555620017c3565b82601f106200179257805160ff1916838001178555620017c3565b82800160010185558215620017c3579182015b82811115620017c2578251825591602001919060010190620017a5565b5b509050620017d29190620017d6565b5090565b5b80821115620017f1576000816000905550600101620017d7565b5090565b60008151905062001806816200193f565b92915050565b6000815190506200181d8162001959565b92915050565b600081519050620018348162001973565b92915050565b6000806000606084860312156200185057600080fd5b6000620018608682870162001823565b93505060206200187386828701620017f5565b925050604062001886868287016200180c565b9150509250925092565b60006200189d82620018b0565b9050919050565b60008115159050919050565b600073ffffffffffffffffffffffffffffffffffffffff82169050919050565b6000819050919050565b60006002820490506001821680620018f357607f821691505b602082108114156200190a576200190962001910565b5b50919050565b7f4e487b7100000000000000000000000000000000000000000000000000000000600052602260045260246000fd5b6200194a8162001890565b81146200195657600080fd5b50565b6200196481620018a4565b81146200197057600080fd5b50565b6200197e81620018d0565b81146200198a57600080fd5b50565b612156806200199d6000396000f3fe608060405234801561001057600080fd5b50600436106100cf5760003560e01c806375b634601161008c578063c45a015511610066578063c45a0155146101e3578063d7d7e9fa14610201578063f41633401461021d578063f42e8eff1461023b576100cf565b806375b634601461018b5780638b1659f5146101a75780639597fe9f146101c5576100cf565b8063040c22c0146100d45780631846c134146100f0578063334f45ec1461010e5780635da65ada1461012c57806366ea96241461014a5780637217e0b914610154575b600080fd5b6100ee60048036038101906100e99190611759565b610257565b005b6100f86105f5565b6040516101059190611c64565b60405180910390f35b610116610608565b6040516101239190611deb565b60405180910390f35b61013461060e565b6040516101419190611c42565b60405180910390f35b61015261083c565b005b61016e6004803603810190610169919061179a565b610b70565b604051610182989796959493929190611c7f565b60405180910390f35b6101a560048036038101906101a09190611707565b610d12565b005b6101af610fcb565b6040516101bc9190611c64565b60405180910390f35b6101cd610fdc565b6040516101da9190611deb565b60405180910390f35b6101eb610fe2565b6040516101f89190611c27565b60405180910390f35b61021b600480360381019061021691906116c6565b611008565b005b610225611301565b6040516102329190611c64565b60405180910390f35b61025560048036038101906102509190611707565b611314565b005b6000600360009054906101000a900473ffffffffffffffffffffffffffffffffffffffff16905060008173ffffffffffffffffffffffffffffffffffffffff166344276733336040518263ffffffff1660e01b81526004016102b99190611c27565b60206040518083038186803b1580156102d157600080fd5b505afa1580156102e5573d6000803e3d6000fd5b505050506040513d601f19601f820116820180604052508101906103099190611730565b905060026003811115610345577f4e487b7100000000000000000000000000000000000000000000000000000000600052602160045260246000fd5b81600381111561037e577f4e487b7100000000000000000000000000000000000000000000000000000000600052602160045260246000fd5b146103be576040517f08c379a00000000000000000000000000000000000000000000000000000000081526004016103b590611d0b565b60405180910390fd5b600360149054906101000a900460ff161561040e576040517f08c379a000000000000000000000000000000000000000000000000000000000815260040161040590611dab565b60405180910390fd5b60008054905060015410610457576040517f08c379a000000000000000000000000000000000000000000000000000000000815260040161044e90611dcb565b60405180910390fd5b60008060015481548110610494577f4e487b7100000000000000000000000000000000000000000000000000000000600052603260045260246000fd5b906000526020600020906007020190508060010160009054906101000a900473ffffffffffffffffffffffffffffffffffffffff1673ffffffffffffffffffffffffffffffffffffffff163373ffffffffffffffffffffffffffffffffffffffff1614610536576040517f08c379a000000000000000000000000000000000000000000000000000000000815260040161052d90611d6b565b60405180910390fd5b60018160010160146101000a81548160ff021916908315150217905550428160030181905550838160040190805190602001906105749291906114d1565b506001600081548092919061058890611fb5565b919050555060008054905060015410156105ef57426000600154815481106105d9577f4e487b7100000000000000000000000000000000000000000000000000000000600052603260045260246000fd5b9060005260206000209060070201600201819055505b50505050565b600360159054906101000a900460ff1681565b60015481565b60606000805480602002602001604051908101604052809291908181526020016000905b8282101561083357838290600052602060002090600702016040518061010001604052908160008201805461066690611f83565b80601f016020809104026020016040519081016040528092919081815260200182805461069290611f83565b80156106df5780601f106106b4576101008083540402835291602001916106df565b820191906000526020600020905b8154815290600101906020018083116106c257829003601f168201915b505050505081526020016001820160009054906101000a900473ffffffffffffffffffffffffffffffffffffffff1673ffffffffffffffffffffffffffffffffffffffff1673ffffffffffffffffffffffffffffffffffffffff1681526020016001820160149054906101000a900460ff16151515158152602001600282015481526020016003820154815260200160048201805461077d90611f83565b80601f01602080910402602001604051908101604052809291908181526020018280546107a990611f83565b80156107f65780601f106107cb576101008083540402835291602001916107f6565b820191906000526020600020905b8154815290600101906020018083116107d957829003601f168201915b50505050508152602001600582015481526020016006820160009054906101000a900460ff16151515158152505081526020019060010190610632565b50505050905090565b6000600360009054906101000a900473ffffffffffffffffffffffffffffffffffffffff16905060008173ffffffffffffffffffffffffffffffffffffffff166344276733336040518263ffffffff1660e01b815260040161089e9190611c27565b60206040518083038186803b1580156108b657600080fd5b505afa1580156108ca573d6000803e3d6000fd5b505050506040513d601f19601f820116820180604052508101906108ee9190611730565b90506002600381111561092a577f4e487b7100000000000000000000000000000000000000000000000000000000600052602160045260246000fd5b816003811115610963577f4e487b7100000000000000000000000000000000000000000000000000000000600052602160045260246000fd5b146109a3576040517f08c379a000000000000000000000000000000000000000000000000000000000815260040161099a90611d0b565b60405180910390fd5b600360149054906101000a900460ff16156109f3576040517f08c379a00000000000000000000000000000000000000000000000000000000081526004016109ea90611dab565b60405180910390fd5b60008054905060015410610a3c576040517f08c379a0000000000000000000000000000000000000000000000000000000008152600401610a3390611dcb565b60405180910390fd5b60008060015481548110610a79577f4e487b7100000000000000000000000000000000000000000000000000000000600052603260045260246000fd5b906000526020600020906007020190508060010160009054906101000a900473ffffffffffffffffffffffffffffffffffffffff1673ffffffffffffffffffffffffffffffffffffffff163373ffffffffffffffffffffffffffffffffffffffff1614610b1b576040517f08c379a0000000000000000000000000000000000000000000000000000000008152600401610b1290611d2b565b60405180910390fd5b60018160060160006101000a81548160ff0219169083151502179055506001600360146101000a81548160ff02191690831515021790555060016000815480929190610b6690611fb5565b9190505550505050565b60008181548110610b8057600080fd5b9060005260206000209060070201600091509050806000018054610ba390611f83565b80601f0160208091040260200160405190810160405280929190818152602001828054610bcf90611f83565b8015610c1c5780601f10610bf157610100808354040283529160200191610c1c565b820191906000526020600020905b815481529060010190602001808311610bff57829003601f168201915b5050505050908060010160009054906101000a900473ffffffffffffffffffffffffffffffffffffffff16908060010160149054906101000a900460ff1690806002015490806003015490806004018054610c7690611f83565b80601f0160208091040260200160405190810160405280929190818152602001828054610ca290611f83565b8015610cef5780601f10610cc457610100808354040283529160200191610cef565b820191906000526020600020905b815481529060010190602001808311610cd257829003601f168201915b5050505050908060050154908060060160009054906101000a900460ff16905088565b600360149054906101000a900460ff1615610d62576040517f08c379a0000000000000000000000000000000000000000000000000000000008152600401610d5990611dab565b60405180910390fd5b60008060015481548110610d9f577f4e487b7100000000000000000000000000000000000000000000000000000000600052603260045260246000fd5b906000526020600020906007020190508115610ea85760018160010160146101000a81548160ff0219169083151502179055504281600301819055506040518060400160405280601981526020017f50726f63656475726520757020746f207374616e646172647300000000000000815250816004019080519060200190610e289291906114d1565b5060016000815480929190610e3c90611fb5565b91905055506000805490506001541015610ea35742600060015481548110610e8d577f4e487b7100000000000000000000000000000000000000000000000000000000600052603260045260246000fd5b9060005260206000209060070201600201819055505b610fc7565b60018160060160006101000a81548160ff0219169083151502179055506001600360146101000a81548160ff021916908315150217905550428160030181905550600180541415610f46576040518060400160405280601581526020017f526f6164207472616e73706f7274206661696c65640000000000000000000000815250816004019080519060200190610f409291906114d1565b50610fc6565b60076001541480610f5957506008600154145b8015610f715750600360159054906101000a900460ff165b15610fc5576040518060400160405280600e81526020017f53746f72616765206661696c6564000000000000000000000000000000000000815250816004019080519060200190610fc39291906114d1565b505b5b5b5050565b600080805490506001541015905090565b60025481565b600360009054906101000a900473ffffffffffffffffffffffffffffffffffffffff1681565b6000600360009054906101000a900473ffffffffffffffffffffffffffffffffffffffff16905060008173ffffffffffffffffffffffffffffffffffffffff166344276733336040518263ffffffff1660e01b815260040161106a9190611c27565b60206040518083038186803b15801561108257600080fd5b505afa158015611096573d6000803e3d6000fd5b505050506040513d601f19601f820116820180604052508101906110ba9190611730565b9050600160038111156110f6577f4e487b7100000000000000000000000000000000000000000000000000000000600052602160045260246000fd5b81600381111561112f577f4e487b7100000000000000000000000000000000000000000000000000000000600052602160045260246000fd5b1461116f576040517f08c379a000000000000000000000000000000000000000000000000000000000815260040161116690611d8b565b60405180910390fd5b60008080549050116111b6576040517f08c379a00000000000000000000000000000000000000000000000000000000081526004016111ad90611d4b565b60405180910390fd5b6000805b6000805490508110156112fa57600181141580156111d9575060058114155b80156112095750600360159054906101000a900460ff168015611207575060078114806112065750600881145b5b155b156112e757848281518110611247577f4e487b7100000000000000000000000000000000000000000000000000000000600052603260045260246000fd5b602002602001015160008281548110611289577f4e487b7100000000000000000000000000000000000000000000000000000000600052603260045260246000fd5b906000526020600020906007020160010160006101000a81548173ffffffffffffffffffffffffffffffffffffffff021916908373ffffffffffffffffffffffffffffffffffffffff16021790555081806112e390611fb5565b9250505b80806112f290611fb5565b9150506111ba565b5050505050565b600360149054906101000a900460ff1681565b60008060015481548110611351577f4e487b7100000000000000000000000000000000000000000000000000000000600052603260045260246000fd5b90600052602060002090600702019050811561145a5760018160010160146101000a81548160ff0219169083151502179055504281600301819055506040518060400160405280601981526020017f50726f63656475726520757020746f207374616e6461726473000000000000008152508160040190805190602001906113da9291906114d1565b50600160008154809291906113ee90611fb5565b91905055506000805490506001541015611455574260006001548154811061143f577f4e487b7100000000000000000000000000000000000000000000000000000000600052603260045260246000fd5b9060005260206000209060070201600201819055505b6114cd565b60018160060160006101000a81548160ff0219169083151502179055506001600360146101000a81548160ff0219169083151502179055504281600301819055506040518060600160405280602f81526020016120f2602f91398160040190805190602001906114cb9291906114d1565b505b5050565b8280546114dd90611f83565b90600052602060002090601f0160209004810192826114ff5760008555611546565b82601f1061151857805160ff1916838001178555611546565b82800160010185558215611546579182015b8281111561154557825182559160200191906001019061152a565b5b5090506115539190611557565b5090565b5b80821115611570576000816000905550600101611558565b5090565b600061158761158284611e37565b611e06565b905080838252602082019050828560208602820111156115a657600080fd5b60005b858110156115d657816115bc888261161e565b8452602084019350602083019250506001810190506115a9565b5050509392505050565b60006115f36115ee84611e63565b611e06565b90508281526020810184848401111561160b57600080fd5b611616848285611f41565b509392505050565b60008135905061162d8161209c565b92915050565b600082601f83011261164457600080fd5b8135611654848260208601611574565b91505092915050565b60008135905061166c816120b3565b92915050565b600081519050611681816120ca565b92915050565b600082601f83011261169857600080fd5b81356116a88482602086016115e0565b91505092915050565b6000813590506116c0816120da565b92915050565b6000602082840312156116d857600080fd5b600082013567ffffffffffffffff8111156116f257600080fd5b6116fe84828501611633565b91505092915050565b60006020828403121561171957600080fd5b60006117278482850161165d565b91505092915050565b60006020828403121561174257600080fd5b600061175084828501611672565b91505092915050565b60006020828403121561176b57600080fd5b600082013567ffffffffffffffff81111561178557600080fd5b61179184828501611687565b91505092915050565b6000602082840312156117ac57600080fd5b60006117ba848285016116b1565b91505092915050565b60006117cf8383611b52565b905092915050565b6117e081611ef9565b82525050565b6117ef81611ef9565b82525050565b600061180082611ea3565b61180a8185611ec6565b93508360208202850161181c85611e93565b8060005b85811015611858578484038952815161183985826117c3565b945061184483611eb9565b925060208a01995050600181019050611820565b50829750879550505050505092915050565b61187381611f0b565b82525050565b61188281611f0b565b82525050565b600061189382611eae565b61189d8185611ed7565b93506118ad818560208601611f50565b6118b68161208b565b840191505092915050565b60006118cc82611eae565b6118d68185611ee8565b93506118e6818560208601611f50565b6118ef8161208b565b840191505092915050565b6000611907602783611ee8565b91507f4f6e6c792073757065727669736f722063616e20706572666f726d207468697360008301527f20616374696f6e000000000000000000000000000000000000000000000000006020830152604082019050919050565b600061196d602a83611ee8565b91507f4f6e6c792061737369676e65642073757065727669736f722063616e2066616960008301527f6c207468652073746570000000000000000000000000000000000000000000006020830152604082019050919050565b60006119d3601b83611ee8565b91507f53746570732061727261792063616e6e6f7420626520656d70747900000000006000830152602082019050919050565b6000611a13602e83611ee8565b91507f4f6e6c792061737369676e65642073757065727669736f722063616e20636f6d60008301527f706c6574652074686520737465700000000000000000000000000000000000006020830152604082019050919050565b6000611a79602283611ee8565b91507f4f6e6c792061646d696e2063616e20706572666f726d2074686973206163746960008301527f6f6e0000000000000000000000000000000000000000000000000000000000006020830152604082019050919050565b6000611adf601a83611ee8565b91507f50726f636573732068617320616c7265616479206661696c65640000000000006000830152602082019050919050565b6000611b1f601f83611ee8565b91507f416c6c2073746570732061726520616c726561647920636f6d706c65746564006000830152602082019050919050565b6000610100830160008301518482036000860152611b708282611888565b9150506020830151611b8560208601826117d7565b506040830151611b98604086018261186a565b506060830151611bab6060860182611c09565b506080830151611bbe6080860182611c09565b5060a083015184820360a0860152611bd68282611888565b91505060c0830151611beb60c0860182611c09565b5060e0830151611bfe60e086018261186a565b508091505092915050565b611c1281611f37565b82525050565b611c2181611f37565b82525050565b6000602082019050611c3c60008301846117e6565b92915050565b60006020820190508181036000830152611c5c81846117f5565b905092915050565b6000602082019050611c796000830184611879565b92915050565b6000610100820190508181036000830152611c9a818b6118c1565b9050611ca9602083018a6117e6565b611cb66040830189611879565b611cc36060830188611c18565b611cd06080830187611c18565b81810360a0830152611ce281866118c1565b9050611cf160c0830185611c18565b611cfe60e0830184611879565b9998505050505050505050565b60006020820190508181036000830152611d24816118fa565b9050919050565b60006020820190508181036000830152611d4481611960565b9050919050565b60006020820190508181036000830152611d64816119c6565b9050919050565b60006020820190508181036000830152611d8481611a06565b9050919050565b60006020820190508181036000830152611da481611a6c565b9050919050565b60006020820190508181036000830152611dc481611ad2565b9050919050565b60006020820190508181036000830152611de481611b12565b9050919050565b6000602082019050611e006000830184611c18565b92915050565b6000604051905081810181811067ffffffffffffffff82111715611e2d57611e2c61205c565b5b8060405250919050565b600067ffffffffffffffff821115611e5257611e5161205c565b5b602082029050602081019050919050565b600067ffffffffffffffff821115611e7e57611e7d61205c565b5b601f19601f8301169050602081019050919050565b6000819050602082019050919050565b600081519050919050565b600081519050919050565b6000602082019050919050565b600082825260208201905092915050565b600082825260208201905092915050565b600082825260208201905092915050565b6000611f0482611f17565b9050919050565b60008115159050919050565b600073ffffffffffffffffffffffffffffffffffffffff82169050919050565b6000819050919050565b82818337600083830152505050565b60005b83811015611f6e578082015181840152602081019050611f53565b83811115611f7d576000848401525b50505050565b60006002820490506001821680611f9b57607f821691505b60208210811415611faf57611fae61202d565b5b50919050565b6000611fc082611f37565b91507fffffffffffffffffffffffffffffffffffffffffffffffffffffffffffffffff821415611ff357611ff2611ffe565b5b600182019050919050565b7f4e487b7100000000000000000000000000000000000000000000000000000000600052601160045260246000fd5b7f4e487b7100000000000000000000000000000000000000000000000000000000600052602260045260246000fd5b7f4e487b7100000000000000000000000000000000000000000000000000000000600052604160045260246000fd5b6000601f19601f8301169050919050565b6120a581611ef9565b81146120b057600080fd5b50565b6120bc81611f0b565b81146120c757600080fd5b50565b600481106120d757600080fd5b50565b6120e381611f37565b81146120ee57600080fd5b5056fe547275636b2773206c6f636174696f6e20696e636f686572656e742077697468206661726d65722061646472657373a26469706673582212206cc102b25154c8c1c97afafb5110b7bbac95d1bd037a425372d981b475a4602b64736f6c63430008000033",
  "immutableReferences": {},
  "source": "// SPDX-License-Identifier: MIT\r\npragma solidity ^0.8.0;\r\n\r\nimport \"./MilkProcessFactory.sol\";\r\n\r\ncontract MilkProcess {\r\n\r\n    struct Step {\r\n        string name;\r\n        address supervisor;\r\n        bool completed;\r\n        uint startTime;\r\n        uint endTime;\r\n        string location;\r\n        uint lotNumber;\r\n        bool failed;\r\n    }\r\n\r\n    Step[] public steps;\r\n    uint public currentStepIndex;\r\n    uint public lotNumber;\r\n    address public factory;\r\n    bool public isFailed;\r\n    bool public isIntero;\r\n\r\n    constructor(uint _lotNumber, address _factory, bool _isIntero) {\r\n        lotNumber = _lotNumber;\r\n        factory = _factory;\r\n        isFailed = false;\r\n        isIntero = _isIntero;\r\n        initializeSteps();\r\n        steps[0].startTime = block.timestamp;\r\n    }\r\n\r\n    function initializeSteps() internal {\r\n        steps.push(Step(\"Raccolta\", address(0), false, 0, 0, \"\", lotNumber, false));\r\n        steps.push(Step(\"Trasporto\", address(0), false, 0, 0, \"\", lotNumber, false)); // Supervisore automatico\r\n        steps.push(Step(\"Pulitura\", address(0), false, 0, 0, \"\", lotNumber, false)); \r\n        steps.push(Step(\"Standardizzazione\", address(0), false, 0, 0, \"\", lotNumber, false));\r\n        steps.push(Step(\"Omogeneizzazione\", address(0), false, 0, 0, \"\", lotNumber, false));\r\n        if(isIntero){\r\n            steps.push(Step(\"Pastorizzazione\", address(0), false, 0, 0, \"\", lotNumber, false)); // Supervisore automatico\r\n        }else{\r\n            steps.push(Step(\"Sterilizzazione\", address(0), false, 0, 0, \"\", lotNumber, false)); // Supervisore automatico\r\n        }\r\n        steps.push(Step(\"Confezionamento\", address(0), false, 0, 0, \"\", lotNumber, false));\r\n        if(isIntero){\r\n            steps.push(Step(\"Stoccaggio refrigerato\", address(0), false, 0, 0, \"\", lotNumber, false)); // Supervisore automatico\r\n            steps.push(Step(\"Distribuzione refrigerata\", address(0), false, 0, 0, \"\", lotNumber, false));\r\n        }else{\r\n            steps.push(Step(\"Stoccaggio\", address(0), false, 0, 0, \"\", lotNumber, false)); // Supervisore automatico\r\n            steps.push(Step(\"Distribuzione\", address(0), false, 0, 0, \"\", lotNumber, false));\r\n        }\r\n        steps.push(Step(\"Consegna\", address(0), false, 0, 0, \"\", lotNumber, false));\r\n        currentStepIndex = 0;\r\n    }\r\n\r\n    function assignSupervisors(address[] memory supervisors) external onlyAdmin {\r\n        require(steps.length > 0, \"Steps array cannot be empty\");\r\n        uint j = 0;\r\n        for (uint i = 0; i < steps.length; i++) {\r\n            if (i != 1 && i != 5 && !(isIntero && (i == 7 || i == 8))) {\r\n                steps[i].supervisor = supervisors[j];\r\n                j++;\r\n            }\r\n        }\r\n    }\r\n\r\n    function completeStep(string memory _location) external onlySupervisor {\r\n        require(!isFailed, \"Process has already failed\");\r\n        require(currentStepIndex < steps.length, \"All steps are already completed\");\r\n        Step storage step = steps[currentStepIndex];\r\n        require(msg.sender == step.supervisor, \"Only assigned supervisor can complete the step\");\r\n        step.completed = true;\r\n        step.endTime = block.timestamp;\r\n        step.location = _location;\r\n\r\n        currentStepIndex++;\r\n\r\n        if (currentStepIndex < steps.length) {\r\n            steps[currentStepIndex].startTime = block.timestamp;\r\n        }\r\n    }\r\n\r\n    function failStep() external onlySupervisor {\r\n        require(!isFailed, \"Process has already failed\");\r\n        require(currentStepIndex < steps.length, \"All steps are already completed\");\r\n        Step storage step = steps[currentStepIndex];\r\n        require(msg.sender == step.supervisor, \"Only assigned supervisor can fail the step\");\r\n        step.failed = true;\r\n        isFailed = true;\r\n        currentStepIndex++;\r\n    }\r\n\r\n    function isTemperatureOK(bool valid) external {\r\n        require(!isFailed, \"Process has already failed\");\r\n\r\n        Step storage step = steps[currentStepIndex];\r\n\r\n        if (valid){\r\n            step.completed = true;\r\n            step.endTime = block.timestamp;\r\n            step.location = \"Procedure up to standards\";\r\n            currentStepIndex++;\r\n            if (currentStepIndex < steps.length) {\r\n                steps[currentStepIndex].startTime = block.timestamp;\r\n            }\r\n        }else{\r\n            step.failed = true;\r\n            isFailed = true;\r\n            step.endTime = block.timestamp;\r\n            if (currentStepIndex == 1){\r\n              step.location = \"Road transport failed\";\r\n            } else if ((currentStepIndex == 7 || currentStepIndex == 8) && isIntero){\r\n                step.location = \"Storage failed\";\r\n            }\r\n        }\r\n    }\r\n\r\n    function isLocationReasonable(bool valid) external {\r\n        Step storage step = steps[currentStepIndex];\r\n        if (valid){\r\n            step.completed = true;\r\n            step.endTime = block.timestamp;\r\n            step.location = \"Procedure up to standards\";\r\n            currentStepIndex++;\r\n            if (currentStepIndex < steps.length) {\r\n                steps[currentStepIndex].startTime = block.timestamp;\r\n            }\r\n        }else{\r\n            step.failed = true;\r\n            isFailed = true;\r\n            step.endTime = block.timestamp;\r\n            step.location = \"Truck's location incoherent with farmer address\";\r\n        }\r\n    }\r\n\r\n    function isProcessCompleted() external view returns (bool) {\r\n        return currentStepIndex >= steps.length;\r\n    }\r\n\r\n    function getSteps() external view returns (Step[] memory) {\r\n        return steps;\r\n    }\r\n\r\n    modifier onlyAdmin() {\r\n        MilkProcessFactory factoryContract = MilkProcessFactory(factory);\r\n        MilkProcessFactory.Role role = factoryContract.getRole(msg.sender);\r\n        require(role == MilkProcessFactory.Role.Admin, \"Only admin can perform this action\");\r\n        _;\r\n    }\r\n\r\n    modifier onlySupervisor() {\r\n        MilkProcessFactory factoryContract = MilkProcessFactory(factory);\r\n        MilkProcessFactory.Role role = factoryContract.getRole(msg.sender);\r\n        require(role == MilkProcessFactory.Role.Supervisor, \"Only supervisor can perform this action\");\r\n        _;\r\n    }\r\n}",
  "sourcePath": "C:\\Users\\gbeks\\OneDrive\\Desktop\\MilkChain\\backend\\contracts\\MilkProcess.sol",
  "compiler": {
    "name": "solc",
    "version": "0.8.0+commit.c7dfd78e.Emscripten.clang"
  },
  "schemaVersion": "3.4.16",
  "updatedAt": "2024-07-15T18:00:27.525Z",
  "devdoc": {
    "kind": "dev",
    "methods": {},
    "version": 1
  },
  "userdoc": {
    "kind": "user",
    "methods": {},
    "version": 1
  }
}