{
  "contractName": "MilkChain",
  "abi": [
    {
      "inputs": [],
      "stateMutability": "nonpayable",
      "type": "constructor"
    },
    {
      "anonymous": false,
      "inputs": [],
      "name": "ProcessReset",
      "type": "event"
    },
    {
      "anonymous": false,
      "inputs": [
        {
          "indexed": false,
          "internalType": "uint256",
          "name": "stepIndex",
          "type": "uint256"
        },
        {
          "indexed": false,
          "internalType": "string",
          "name": "name",
          "type": "string"
        },
        {
          "indexed": false,
          "internalType": "uint256",
          "name": "startTime",
          "type": "uint256"
        },
        {
          "indexed": false,
          "internalType": "uint256",
          "name": "endTime",
          "type": "uint256"
        }
      ],
      "name": "StepCompleted",
      "type": "event"
    },
    {
      "inputs": [
        {
          "internalType": "uint256",
          "name": "",
          "type": "uint256"
        }
      ],
      "name": "completedSteps",
      "outputs": [
        {
          "internalType": "string",
          "name": "name",
          "type": "string"
        },
        {
          "internalType": "address",
          "name": "supervisor",
          "type": "address"
        },
        {
          "internalType": "bool",
          "name": "completed",
          "type": "bool"
        },
        {
          "internalType": "uint256",
          "name": "startTime",
          "type": "uint256"
        },
        {
          "internalType": "uint256",
          "name": "endTime",
          "type": "uint256"
        },
        {
          "internalType": "string",
          "name": "location",
          "type": "string"
        }
      ],
      "stateMutability": "view",
      "type": "function",
      "constant": true
    },
    {
      "inputs": [],
      "name": "currentStepIndex",
      "outputs": [
        {
          "internalType": "uint256",
          "name": "",
          "type": "uint256"
        }
      ],
      "stateMutability": "view",
      "type": "function",
      "constant": true
    },
    {
      "inputs": [
        {
          "internalType": "uint256",
          "name": "",
          "type": "uint256"
        }
      ],
      "name": "steps",
      "outputs": [
        {
          "internalType": "string",
          "name": "name",
          "type": "string"
        },
        {
          "internalType": "address",
          "name": "supervisor",
          "type": "address"
        },
        {
          "internalType": "bool",
          "name": "completed",
          "type": "bool"
        },
        {
          "internalType": "uint256",
          "name": "startTime",
          "type": "uint256"
        },
        {
          "internalType": "uint256",
          "name": "endTime",
          "type": "uint256"
        },
        {
          "internalType": "string",
          "name": "location",
          "type": "string"
        }
      ],
      "stateMutability": "view",
      "type": "function",
      "constant": true
    },
    {
      "inputs": [
        {
          "internalType": "uint256",
          "name": "stepIndex",
          "type": "uint256"
        },
        {
          "internalType": "address",
          "name": "supervisor",
          "type": "address"
        }
      ],
      "name": "assignSupervisor",
      "outputs": [],
      "stateMutability": "nonpayable",
      "type": "function"
    },
    {
      "inputs": [
        {
          "internalType": "string",
          "name": "_location",
          "type": "string"
        }
      ],
      "name": "completeStep",
      "outputs": [],
      "stateMutability": "nonpayable",
      "type": "function"
    },
    {
      "inputs": [],
      "name": "resetProcess",
      "outputs": [],
      "stateMutability": "nonpayable",
      "type": "function"
    },
    {
      "inputs": [],
      "name": "getStepsLength",
      "outputs": [
        {
          "internalType": "uint256",
          "name": "",
          "type": "uint256"
        }
      ],
      "stateMutability": "view",
      "type": "function",
      "constant": true
    },
    {
      "inputs": [
        {
          "internalType": "uint256",
          "name": "index",
          "type": "uint256"
        }
      ],
      "name": "getStep",
      "outputs": [
        {
          "internalType": "string",
          "name": "",
          "type": "string"
        },
        {
          "internalType": "address",
          "name": "",
          "type": "address"
        },
        {
          "internalType": "bool",
          "name": "",
          "type": "bool"
        },
        {
          "internalType": "uint256",
          "name": "",
          "type": "uint256"
        },
        {
          "internalType": "uint256",
          "name": "",
          "type": "uint256"
        },
        {
          "internalType": "string",
          "name": "",
          "type": "string"
        }
      ],
      "stateMutability": "view",
      "type": "function",
      "constant": true
    },
    {
      "inputs": [],
      "name": "getCompletedStepsLength",
      "outputs": [
        {
          "internalType": "uint256",
          "name": "",
          "type": "uint256"
        }
      ],
      "stateMutability": "view",
      "type": "function",
      "constant": true
    },
    {
      "inputs": [
        {
          "internalType": "uint256",
          "name": "index",
          "type": "uint256"
        }
      ],
      "name": "getCompletedStep",
      "outputs": [
        {
          "internalType": "string",
          "name": "",
          "type": "string"
        },
        {
          "internalType": "address",
          "name": "",
          "type": "address"
        },
        {
          "internalType": "bool",
          "name": "",
          "type": "bool"
        },
        {
          "internalType": "uint256",
          "name": "",
          "type": "uint256"
        },
        {
          "internalType": "uint256",
          "name": "",
          "type": "uint256"
        },
        {
          "internalType": "string",
          "name": "",
          "type": "string"
        }
      ],
      "stateMutability": "view",
      "type": "function",
      "constant": true
    },
    {
      "inputs": [],
      "name": "isProcessCompleted",
      "outputs": [
        {
          "internalType": "bool",
          "name": "",
          "type": "bool"
        }
      ],
      "stateMutability": "view",
      "type": "function",
      "constant": true
    }
  ],
  "bytecode": "0x60806040523480156200001157600080fd5b50620000226200002860201b60201c565b62000886565b60006040518060c001604052806040518060400160405280600881526020017f526163636f6c74610000000000000000000000000000000000000000000000008152508152602001600073ffffffffffffffffffffffffffffffffffffffff16815260200160001515815260200160008152602001600081526020016040518060200160405280600081525081525090806001815401808255809150506001900390600052602060002090600502016000909190919091506000820151816000019080519060200190620000fe92919062000771565b5060208201518160010160006101000a81548173ffffffffffffffffffffffffffffffffffffffff021916908373ffffffffffffffffffffffffffffffffffffffff16021790555060408201518160010160146101000a81548160ff021916908315150217905550606082015181600201556080820151816003015560a08201518160040190805190602001906200019892919062000771565b50505060006040518060c001604052806040518060400160405280600981526020017f54726173706f72746f00000000000000000000000000000000000000000000008152508152602001600073ffffffffffffffffffffffffffffffffffffffff168152602001600015158152602001600081526020016000815260200160405180602001604052806000815250815250908060018154018082558091505060019003906000526020600020906005020160009091909190915060008201518160000190805190602001906200027192919062000771565b5060208201518160010160006101000a81548173ffffffffffffffffffffffffffffffffffffffff021916908373ffffffffffffffffffffffffffffffffffffffff16021790555060408201518160010160146101000a81548160ff021916908315150217905550606082015181600201556080820151816003015560a08201518160040190805190602001906200030b92919062000771565b50505060006040518060c001604052806040518060400160405280600b81526020017f4c61766f72617a696f6e650000000000000000000000000000000000000000008152508152602001600073ffffffffffffffffffffffffffffffffffffffff16815260200160001515815260200160008152602001600081526020016040518060200160405280600081525081525090806001815401808255809150506001900390600052602060002090600502016000909190919091506000820151816000019080519060200190620003e492919062000771565b5060208201518160010160006101000a81548173ffffffffffffffffffffffffffffffffffffffff021916908373ffffffffffffffffffffffffffffffffffffffff16021790555060408201518160010160146101000a81548160ff021916908315150217905550606082015181600201556080820151816003015560a08201518160040190805190602001906200047e92919062000771565b50505060006040518060c001604052806040518060400160405280600f81526020017f436f6e66657a696f6e616d656e746f00000000000000000000000000000000008152508152602001600073ffffffffffffffffffffffffffffffffffffffff168152602001600015158152602001600081526020016000815260200160405180602001604052806000815250815250908060018154018082558091505060019003906000526020600020906005020160009091909190915060008201518160000190805190602001906200055792919062000771565b5060208201518160010160006101000a81548173ffffffffffffffffffffffffffffffffffffffff021916908373ffffffffffffffffffffffffffffffffffffffff16021790555060408201518160010160146101000a81548160ff021916908315150217905550606082015181600201556080820151816003015560a0820151816004019080519060200190620005f192919062000771565b50505060006040518060c001604052806040518060400160405280600d81526020017f44697374726962757a696f6e65000000000000000000000000000000000000008152508152602001600073ffffffffffffffffffffffffffffffffffffffff16815260200160001515815260200160008152602001600081526020016040518060200160405280600081525081525090806001815401808255809150506001900390600052602060002090600502016000909190919091506000820151816000019080519060200190620006ca92919062000771565b5060208201518160010160006101000a81548173ffffffffffffffffffffffffffffffffffffffff021916908373ffffffffffffffffffffffffffffffffffffffff16021790555060408201518160010160146101000a81548160ff021916908315150217905550606082015181600201556080820151816003015560a08201518160040190805190602001906200076492919062000771565b5050506000600181905550565b8280546200077f9062000821565b90600052602060002090601f016020900481019282620007a35760008555620007ef565b82601f10620007be57805160ff1916838001178555620007ef565b82800160010185558215620007ef579182015b82811115620007ee578251825591602001919060010190620007d1565b5b509050620007fe919062000802565b5090565b5b808211156200081d57600081600090555060010162000803565b5090565b600060028204905060018216806200083a57607f821691505b6020821081141562000851576200085062000857565b5b50919050565b7f4e487b7100000000000000000000000000000000000000000000000000000000600052602260045260246000fd5b611fe980620008966000396000f3fe608060405234801561001057600080fd5b50600436106100a95760003560e01c80638b1659f5116100715780638b1659f51461016e578063925c4d8f1461018c5780639482eeaa146101c15780639f9a19d3146101df578063c904b742146101e9578063f022f33914610207576100a9565b8063040c22c0146100ae578063334f45ec146100ca57806344054931146100e85780637217e0b9146101045780637874888a14610139575b600080fd5b6100c860048036038101906100c3919061184d565b61023c565b005b6100d26105e2565b6040516100df9190611cb5565b60405180910390f35b61010260048036038101906100fd91906118b7565b6105e8565b005b61011e6004803603810190610119919061188e565b6106bd565b60405161013096959493929190611ba6565b60405180910390f35b610153600480360381019061014e919061188e565b610846565b60405161016596959493929190611ba6565b60405180910390f35b610176610a59565b6040516101839190611b8b565b60405180910390f35b6101a660048036038101906101a1919061188e565b610a6a565b6040516101b896959493929190611ba6565b60405180910390f35b6101c9610bf3565b6040516101d69190611cb5565b60405180910390f35b6101e7610c00565b005b6101f1610c43565b6040516101fe9190611cb5565b60405180910390f35b610221600480360381019061021c919061188e565b610c4f565b60405161023396959493929190611ba6565b60405180910390f35b60008054905060015410610285576040517f08c379a000000000000000000000000000000000000000000000000000000000815260040161027c90611c75565b60405180910390fd5b600080600154815481106102c2577f4e487b7100000000000000000000000000000000000000000000000000000000600052603260045260246000fd5b906000526020600020906005020190508060010160009054906101000a900473ffffffffffffffffffffffffffffffffffffffff1673ffffffffffffffffffffffffffffffffffffffff163373ffffffffffffffffffffffffffffffffffffffff1614610364576040517f08c379a000000000000000000000000000000000000000000000000000000000815260040161035b90611c35565b60405180910390fd5b60018160010160146101000a81548160ff021916908315150217905550428160030181905550600060015414156103a357428160020181905550610405565b6000600180546103b39190611dae565b815481106103ea577f4e487b7100000000000000000000000000000000000000000000000000000000600052603260045260246000fd5b90600052602060002090600502016003015481600201819055505b61040e82610e63565b61044d576040517f08c379a000000000000000000000000000000000000000000000000000000000815260040161044490611c15565b60405180910390fd5b818160040190805190602001906104659291906115a5565b50600281908060018154018082558091505060019003906000526020600020906005020160009091909190915060008201816000019080546104a690611e6c565b6104b192919061162b565b506001820160009054906101000a900473ffffffffffffffffffffffffffffffffffffffff168160010160006101000a81548173ffffffffffffffffffffffffffffffffffffffff021916908373ffffffffffffffffffffffffffffffffffffffff1602179055506001820160149054906101000a900460ff168160010160146101000a81548160ff0219169083151502179055506002820154816002015560038201548160030155600482018160040190805461056e90611e6c565b61057992919061162b565b5050507f41b16547ca03af7fc887b0dad2d696519590da8bd8cb3f9a5b8b4087b904eac460015482600001836002015484600301546040516105be9493929190611cd0565b60405180910390a1600160008154809291906105d990611e9e565b91905055505050565b60015481565b600080549050821061062f576040517f08c379a000000000000000000000000000000000000000000000000000000000815260040161062690611c55565b60405180910390fd5b806000838154811061066a577f4e487b7100000000000000000000000000000000000000000000000000000000600052603260045260246000fd5b906000526020600020906005020160010160006101000a81548173ffffffffffffffffffffffffffffffffffffffff021916908373ffffffffffffffffffffffffffffffffffffffff1602179055505050565b600081815481106106cd57600080fd5b90600052602060002090600502016000915090508060000180546106f090611e6c565b80601f016020809104026020016040519081016040528092919081815260200182805461071c90611e6c565b80156107695780601f1061073e57610100808354040283529160200191610769565b820191906000526020600020905b81548152906001019060200180831161074c57829003601f168201915b5050505050908060010160009054906101000a900473ffffffffffffffffffffffffffffffffffffffff16908060010160149054906101000a900460ff16908060020154908060030154908060040180546107c390611e6c565b80601f01602080910402602001604051908101604052809291908181526020018280546107ef90611e6c565b801561083c5780601f106108115761010080835404028352916020019161083c565b820191906000526020600020905b81548152906001019060200180831161081f57829003601f168201915b5050505050905086565b606060008060008060606000805490508710610897576040517f08c379a000000000000000000000000000000000000000000000000000000000815260040161088e90611c55565b60405180910390fd5b60008088815481106108d2577f4e487b7100000000000000000000000000000000000000000000000000000000600052603260045260246000fd5b90600052602060002090600502019050806000018160010160009054906101000a900473ffffffffffffffffffffffffffffffffffffffff168260010160149054906101000a900460ff16836002015484600301548560040185805461093790611e6c565b80601f016020809104026020016040519081016040528092919081815260200182805461096390611e6c565b80156109b05780601f10610985576101008083540402835291602001916109b0565b820191906000526020600020905b81548152906001019060200180831161099357829003601f168201915b505050505095508080546109c390611e6c565b80601f01602080910402602001604051908101604052809291908181526020018280546109ef90611e6c565b8015610a3c5780601f10610a1157610100808354040283529160200191610a3c565b820191906000526020600020905b815481529060010190602001808311610a1f57829003601f168201915b505050505090509650965096509650965096505091939550919395565b600080805490506001541015905090565b60028181548110610a7a57600080fd5b9060005260206000209060050201600091509050806000018054610a9d90611e6c565b80601f0160208091040260200160405190810160405280929190818152602001828054610ac990611e6c565b8015610b165780601f10610aeb57610100808354040283529160200191610b16565b820191906000526020600020905b815481529060010190602001808311610af957829003601f168201915b5050505050908060010160009054906101000a900473ffffffffffffffffffffffffffffffffffffffff16908060010160149054906101000a900460ff1690806002015490806003015490806004018054610b7090611e6c565b80601f0160208091040260200160405190810160405280929190818152602001828054610b9c90611e6c565b8015610be95780601f10610bbe57610100808354040283529160200191610be9565b820191906000526020600020905b815481529060010190602001808311610bcc57829003601f168201915b5050505050905086565b6000600280549050905090565b600080610c0d91906116b8565b610c15610e70565b7f52d42945e3a5657f589346719c0b4f6dc292035ec23b7d03097fc496109aff4660405160405180910390a1565b60008080549050905090565b606060008060008060606002805490508710610ca0576040517f08c379a0000000000000000000000000000000000000000000000000000000008152600401610c9790611c95565b60405180910390fd5b600060028881548110610cdc577f4e487b7100000000000000000000000000000000000000000000000000000000600052603260045260246000fd5b90600052602060002090600502019050806000018160010160009054906101000a900473ffffffffffffffffffffffffffffffffffffffff168260010160149054906101000a900460ff168360020154846003015485600401858054610d4190611e6c565b80601f0160208091040260200160405190810160405280929190818152602001828054610d6d90611e6c565b8015610dba5780601f10610d8f57610100808354040283529160200191610dba565b820191906000526020600020905b815481529060010190602001808311610d9d57829003601f168201915b50505050509550808054610dcd90611e6c565b80601f0160208091040260200160405190810160405280929190818152602001828054610df990611e6c565b8015610e465780601f10610e1b57610100808354040283529160200191610e46565b820191906000526020600020905b815481529060010190602001808311610e2957829003601f168201915b505050505090509650965096509650965096505091939550919395565b6000808251119050919050565b60006040518060c001604052806040518060400160405280600881526020017f526163636f6c74610000000000000000000000000000000000000000000000008152508152602001600073ffffffffffffffffffffffffffffffffffffffff16815260200160001515815260200160008152602001600081526020016040518060200160405280600081525081525090806001815401808255809150506001900390600052602060002090600502016000909190919091506000820151816000019080519060200190610f449291906115a5565b5060208201518160010160006101000a81548173ffffffffffffffffffffffffffffffffffffffff021916908373ffffffffffffffffffffffffffffffffffffffff16021790555060408201518160010160146101000a81548160ff021916908315150217905550606082015181600201556080820151816003015560a0820151816004019080519060200190610fdc9291906115a5565b50505060006040518060c001604052806040518060400160405280600981526020017f54726173706f72746f00000000000000000000000000000000000000000000008152508152602001600073ffffffffffffffffffffffffffffffffffffffff168152602001600015158152602001600081526020016000815260200160405180602001604052806000815250815250908060018154018082558091505060019003906000526020600020906005020160009091909190915060008201518160000190805190602001906110b39291906115a5565b5060208201518160010160006101000a81548173ffffffffffffffffffffffffffffffffffffffff021916908373ffffffffffffffffffffffffffffffffffffffff16021790555060408201518160010160146101000a81548160ff021916908315150217905550606082015181600201556080820151816003015560a082015181600401908051906020019061114b9291906115a5565b50505060006040518060c001604052806040518060400160405280600b81526020017f4c61766f72617a696f6e650000000000000000000000000000000000000000008152508152602001600073ffffffffffffffffffffffffffffffffffffffff168152602001600015158152602001600081526020016000815260200160405180602001604052806000815250815250908060018154018082558091505060019003906000526020600020906005020160009091909190915060008201518160000190805190602001906112229291906115a5565b5060208201518160010160006101000a81548173ffffffffffffffffffffffffffffffffffffffff021916908373ffffffffffffffffffffffffffffffffffffffff16021790555060408201518160010160146101000a81548160ff021916908315150217905550606082015181600201556080820151816003015560a08201518160040190805190602001906112ba9291906115a5565b50505060006040518060c001604052806040518060400160405280600f81526020017f436f6e66657a696f6e616d656e746f00000000000000000000000000000000008152508152602001600073ffffffffffffffffffffffffffffffffffffffff168152602001600015158152602001600081526020016000815260200160405180602001604052806000815250815250908060018154018082558091505060019003906000526020600020906005020160009091909190915060008201518160000190805190602001906113919291906115a5565b5060208201518160010160006101000a81548173ffffffffffffffffffffffffffffffffffffffff021916908373ffffffffffffffffffffffffffffffffffffffff16021790555060408201518160010160146101000a81548160ff021916908315150217905550606082015181600201556080820151816003015560a08201518160040190805190602001906114299291906115a5565b50505060006040518060c001604052806040518060400160405280600d81526020017f44697374726962757a696f6e65000000000000000000000000000000000000008152508152602001600073ffffffffffffffffffffffffffffffffffffffff168152602001600015158152602001600081526020016000815260200160405180602001604052806000815250815250908060018154018082558091505060019003906000526020600020906005020160009091909190915060008201518160000190805190602001906115009291906115a5565b5060208201518160010160006101000a81548173ffffffffffffffffffffffffffffffffffffffff021916908373ffffffffffffffffffffffffffffffffffffffff16021790555060408201518160010160146101000a81548160ff021916908315150217905550606082015181600201556080820151816003015560a08201518160040190805190602001906115989291906115a5565b5050506000600181905550565b8280546115b190611e6c565b90600052602060002090601f0160209004810192826115d3576000855561161a565b82601f106115ec57805160ff191683800117855561161a565b8280016001018555821561161a579182015b828111156116195782518255916020019190600101906115fe565b5b50905061162791906116dc565b5090565b82805461163790611e6c565b90600052602060002090601f01602090048101928261165957600085556116a7565b82601f1061166a57805485556116a7565b828001600101855582156116a757600052602060002091601f016020900482015b828111156116a657825482559160010191906001019061168b565b5b5090506116b491906116dc565b5090565b50805460008255600502906000526020600020908101906116d991906116f9565b50565b5b808211156116f55760008160009055506001016116dd565b5090565b5b808211156117775760008082016000611713919061177b565b6001820160006101000a81549073ffffffffffffffffffffffffffffffffffffffff02191690556001820160146101000a81549060ff02191690556002820160009055600382016000905560048201600061176e919061177b565b506005016116fa565b5090565b50805461178790611e6c565b6000825580601f1061179957506117b8565b601f0160209004906000526020600020908101906117b791906116dc565b5b50565b60006117ce6117c984611d4d565b611d1c565b9050828152602081018484840111156117e657600080fd5b6117f1848285611e2a565b509392505050565b60008135905061180881611f85565b92915050565b600082601f83011261181f57600080fd5b813561182f8482602086016117bb565b91505092915050565b60008135905061184781611f9c565b92915050565b60006020828403121561185f57600080fd5b600082013567ffffffffffffffff81111561187957600080fd5b6118858482850161180e565b91505092915050565b6000602082840312156118a057600080fd5b60006118ae84828501611838565b91505092915050565b600080604083850312156118ca57600080fd5b60006118d885828601611838565b92505060206118e9858286016117f9565b9150509250929050565b6118fc81611de2565b82525050565b61190b81611df4565b82525050565b600061191c82611d92565b6119268185611d9d565b9350611936818560208601611e39565b61193f81611f74565b840191505092915050565b6000815461195781611e6c565b6119618186611d9d565b9450600182166000811461197c576001811461198e576119c1565b60ff19831686526020860193506119c1565b61199785611d7d565b60005b838110156119b95781548189015260018201915060208101905061199a565b808801955050505b50505092915050565b60006119d7602883611d9d565b91507f4c6f636174696f6e206973206e6f7420726561736f6e61626c6520666f72207460008301527f68697320737465700000000000000000000000000000000000000000000000006020830152604082019050919050565b6000611a3d602e83611d9d565b91507f4f6e6c792061737369676e65642073757065727669736f722063616e20636f6d60008301527f706c6574652074686520737465700000000000000000000000000000000000006020830152604082019050919050565b6000611aa3601783611d9d565b91507f5374657020696e646578206f7574206f662072616e67650000000000000000006000830152602082019050919050565b6000611ae3601f83611d9d565b91507f416c6c2073746570732061726520616c726561647920636f6d706c65746564006000830152602082019050919050565b6000611b23602183611d9d565b91507f436f6d706c65746564207374657020696e646578206f7574206f662072616e6760008301527f65000000000000000000000000000000000000000000000000000000000000006020830152604082019050919050565b611b8581611e20565b82525050565b6000602082019050611ba06000830184611902565b92915050565b600060c0820190508181036000830152611bc08189611911565b9050611bcf60208301886118f3565b611bdc6040830187611902565b611be96060830186611b7c565b611bf66080830185611b7c565b81810360a0830152611c088184611911565b9050979650505050505050565b60006020820190508181036000830152611c2e816119ca565b9050919050565b60006020820190508181036000830152611c4e81611a30565b9050919050565b60006020820190508181036000830152611c6e81611a96565b9050919050565b60006020820190508181036000830152611c8e81611ad6565b9050919050565b60006020820190508181036000830152611cae81611b16565b9050919050565b6000602082019050611cca6000830184611b7c565b92915050565b6000608082019050611ce56000830187611b7c565b8181036020830152611cf7818661194a565b9050611d066040830185611b7c565b611d136060830184611b7c565b95945050505050565b6000604051905081810181811067ffffffffffffffff82111715611d4357611d42611f45565b5b8060405250919050565b600067ffffffffffffffff821115611d6857611d67611f45565b5b601f19601f8301169050602081019050919050565b60008190508160005260206000209050919050565b600081519050919050565b600082825260208201905092915050565b6000611db982611e20565b9150611dc483611e20565b925082821015611dd757611dd6611ee7565b5b828203905092915050565b6000611ded82611e00565b9050919050565b60008115159050919050565b600073ffffffffffffffffffffffffffffffffffffffff82169050919050565b6000819050919050565b82818337600083830152505050565b60005b83811015611e57578082015181840152602081019050611e3c565b83811115611e66576000848401525b50505050565b60006002820490506001821680611e8457607f821691505b60208210811415611e9857611e97611f16565b5b50919050565b6000611ea982611e20565b91507fffffffffffffffffffffffffffffffffffffffffffffffffffffffffffffffff821415611edc57611edb611ee7565b5b600182019050919050565b7f4e487b7100000000000000000000000000000000000000000000000000000000600052601160045260246000fd5b7f4e487b7100000000000000000000000000000000000000000000000000000000600052602260045260246000fd5b7f4e487b7100000000000000000000000000000000000000000000000000000000600052604160045260246000fd5b6000601f19601f8301169050919050565b611f8e81611de2565b8114611f9957600080fd5b50565b611fa581611e20565b8114611fb057600080fd5b5056fea2646970667358221220af79c36cbffb773e933ae612c2bd45062f483c30c76178709db590725cb9a36164736f6c63430008000033",
  "immutableReferences": {},
  "source": "// SPDX-License-Identifier: MIT\r\npragma solidity ^0.8.0;\r\n\r\ncontract MilkChain {\r\n    struct Step {\r\n        string name;\r\n        address supervisor;\r\n        bool completed;\r\n        uint startTime;\r\n        uint endTime;\r\n        string location;\r\n    }\r\n\r\n    Step[] public steps;\r\n    uint public currentStepIndex;\r\n    Step[] public completedSteps;\r\n\r\n    event StepCompleted(uint stepIndex, string name, uint startTime, uint endTime);\r\n    event ProcessReset();\r\n\r\n    constructor() {\r\n        initializeSteps();\r\n    }\r\n\r\n    function initializeSteps() internal {\r\n        steps.push(Step(\"Raccolta\", address(0), false, 0, 0, \"\"));\r\n        steps.push(Step(\"Trasporto\", address(0), false, 0, 0, \"\"));\r\n        steps.push(Step(\"Lavorazione\", address(0), false, 0, 0, \"\"));\r\n        steps.push(Step(\"Confezionamento\", address(0), false, 0, 0, \"\"));\r\n        steps.push(Step(\"Distribuzione\", address(0), false, 0, 0, \"\"));\r\n        currentStepIndex = 0;\r\n    }\r\n\r\n    function assignSupervisor(uint stepIndex, address supervisor) public {\r\n        require(stepIndex < steps.length, \"Step index out of range\");\r\n        steps[stepIndex].supervisor = supervisor;\r\n    }\r\n\r\n    function completeStep(string memory _location) public {\r\n        require(currentStepIndex < steps.length, \"All steps are already completed\");\r\n        Step storage step = steps[currentStepIndex];\r\n        require(msg.sender == step.supervisor, \"Only assigned supervisor can complete the step\");\r\n        step.completed = true;\r\n        step.endTime = block.timestamp;\r\n\r\n        if (currentStepIndex == 0) {\r\n            step.startTime = block.timestamp;\r\n        } else {\r\n            step.startTime = steps[currentStepIndex - 1].endTime;\r\n        }\r\n\r\n        // Simulazione del consenso di terze parti (verifica indirizzo)\r\n        require(isReasonableLocation(_location), \"Location is not reasonable for this step\");\r\n\r\n        step.location = _location;\r\n\r\n        completedSteps.push(step);\r\n\r\n        emit StepCompleted(currentStepIndex, step.name, step.startTime, step.endTime);\r\n        currentStepIndex++;\r\n    }\r\n\r\n    // Funzione di simulazione per verificare se l'indirizzo  ragionevole per lo step corrente\r\n    function isReasonableLocation(string memory _location) internal pure returns (bool) {\r\n        // Simuliamo una verifica di indirizzo ragionevole\r\n        // In un caso reale, questo potrebbe coinvolgere un servizio esterno per la verifica\r\n        return bytes(_location).length > 0; // In questo esempio, semplicemente verifichiamo che l'indirizzo non sia vuoto\r\n    }\r\n\r\n    function resetProcess() public {\r\n        delete steps;\r\n        initializeSteps();\r\n        emit ProcessReset();\r\n    }\r\n\r\n    function getStepsLength() public view returns (uint) {\r\n        return steps.length;\r\n    }\r\n\r\n    function getStep(uint index) public view returns (string memory, address, bool, uint, uint, string memory) {\r\n        require(index < steps.length, \"Step index out of range\");\r\n        Step storage step = steps[index];\r\n        return (step.name, step.supervisor, step.completed, step.startTime, step.endTime, step.location);\r\n    }\r\n\r\n    function getCompletedStepsLength() public view returns (uint) {\r\n        return completedSteps.length;\r\n    }\r\n\r\n    function getCompletedStep(uint index) public view returns (string memory, address, bool, uint, uint, string memory) {\r\n        require(index < completedSteps.length, \"Completed step index out of range\");\r\n        Step storage step = completedSteps[index];\r\n        return (step.name, step.supervisor, step.completed, step.startTime, step.endTime, step.location);\r\n    }\r\n\r\n    function isProcessCompleted() public view returns (bool) {\r\n        return currentStepIndex >= steps.length;\r\n    }\r\n}",
  "sourcePath": "C:\\Users\\samue\\Desktop\\MilkChain\\backend\\contracts\\MilkChain.sol",
  "compiler": {
    "name": "solc",
    "version": "0.8.0+commit.c7dfd78e.Emscripten.clang"
  },
  "schemaVersion": "3.4.16",
  "updatedAt": "2024-06-24T02:13:30.901Z",
  "networkType": "ethereum",
  "devdoc": {
    "kind": "dev",
    "methods": {},
    "version": 1
  },
  "userdoc": {
    "kind": "user",
    "methods": {},
    "version": 1
  }
}