{
  "contractName": "MilkProcessFactory",
  "abi": [
    {
      "inputs": [],
      "stateMutability": "nonpayable",
      "type": "constructor"
    },
    {
      "inputs": [
        {
          "internalType": "uint256",
          "name": "",
          "type": "uint256"
        }
      ],
      "name": "processes",
      "outputs": [
        {
          "internalType": "address",
          "name": "",
          "type": "address"
        }
      ],
      "stateMutability": "view",
      "type": "function",
      "constant": true
    },
    {
      "inputs": [
        {
          "internalType": "address",
          "name": "",
          "type": "address"
        }
      ],
      "name": "roles",
      "outputs": [
        {
          "internalType": "enum MilkProcessFactory.Role",
          "name": "",
          "type": "uint8"
        }
      ],
      "stateMutability": "view",
      "type": "function",
      "constant": true
    },
    {
      "inputs": [
        {
          "internalType": "uint256",
          "name": "",
          "type": "uint256"
        }
      ],
      "name": "users",
      "outputs": [
        {
          "internalType": "address",
          "name": "",
          "type": "address"
        }
      ],
      "stateMutability": "view",
      "type": "function",
      "constant": true
    },
    {
      "inputs": [
        {
          "internalType": "uint256",
          "name": "quantity",
          "type": "uint256"
        },
        {
          "internalType": "bool",
          "name": "isIntero",
          "type": "bool"
        }
      ],
      "name": "createNewProcess",
      "outputs": [
        {
          "internalType": "address[]",
          "name": "",
          "type": "address[]"
        }
      ],
      "stateMutability": "nonpayable",
      "type": "function"
    },
    {
      "inputs": [],
      "name": "getAllProcesses",
      "outputs": [
        {
          "internalType": "address[]",
          "name": "",
          "type": "address[]"
        }
      ],
      "stateMutability": "view",
      "type": "function",
      "constant": true
    },
    {
      "inputs": [],
      "name": "getAllRoles",
      "outputs": [
        {
          "internalType": "string[]",
          "name": "",
          "type": "string[]"
        },
        {
          "internalType": "address[]",
          "name": "",
          "type": "address[]"
        }
      ],
      "stateMutability": "view",
      "type": "function",
      "constant": true
    },
    {
      "inputs": [
        {
          "internalType": "address",
          "name": "account",
          "type": "address"
        }
      ],
      "name": "getRole",
      "outputs": [
        {
          "internalType": "enum MilkProcessFactory.Role",
          "name": "",
          "type": "uint8"
        }
      ],
      "stateMutability": "view",
      "type": "function",
      "constant": true
    },
    {
      "inputs": [
        {
          "internalType": "address",
          "name": "account",
          "type": "address"
        },
        {
          "internalType": "enum MilkProcessFactory.Role",
          "name": "role",
          "type": "uint8"
        }
      ],
      "name": "assignRole",
      "outputs": [],
      "stateMutability": "nonpayable",
      "type": "function"
    },
    {
      "inputs": [
        {
          "internalType": "address",
          "name": "account",
          "type": "address"
        }
      ],
      "name": "removeRole",
      "outputs": [],
      "stateMutability": "nonpayable",
      "type": "function"
    }
  ],
  "bytecode": "0x6080604052600060035534801561001557600080fd5b5060018060003373ffffffffffffffffffffffffffffffffffffffff1673ffffffffffffffffffffffffffffffffffffffff16815260200190815260200160002060006101000a81548160ff0219169083600381111561009e577f4e487b7100000000000000000000000000000000000000000000000000000000600052602160045260246000fd5b02179055506002339080600181540180825580915050600190039060005260206000200160009091909190916101000a81548173ffffffffffffffffffffffffffffffffffffffff021916908373ffffffffffffffffffffffffffffffffffffffff1602179055506156fc806101156000396000f3fe60806040523480156200001157600080fd5b5060043610620000a05760003560e01c8063630a195b116200006f578063630a195b1462000167578063993746421462000187578063f2bcac3d14620001bd578063f52a8fa014620001e0578063fa91cc73146200020257620000a0565b8063365b98b214620000a55780634427673314620000db5780634762155d1462000111578063579e51c71462000131575b600080fd5b620000c36004803603810190620000bd919062001782565b62000238565b604051620000d2919062001a70565b60405180910390f35b620000f96004803603810190620000f3919062001715565b62000278565b60405162000108919062001aec565b60405180910390f35b6200012f600480360381019062000129919062001715565b620002ce565b005b6200014f600480360381019062000149919062001782565b62000589565b6040516200015e919062001a70565b60405180910390f35b6200018560048036038101906200017f919062001741565b620005c9565b005b620001a560048036038101906200019f919062001715565b620007d3565b604051620001b4919062001aec565b60405180910390f35b620001c7620007f3565b604051620001d792919062001ab1565b60405180910390f35b620001ea62000ebb565b604051620001f9919062001a8d565b60405180910390f35b6200022060048036038101906200021a9190620017ae565b62000f4b565b6040516200022f919062001a8d565b60405180910390f35b600281815481106200024957600080fd5b906000526020600020016000915054906101000a900473ffffffffffffffffffffffffffffffffffffffff1681565b6000600160008373ffffffffffffffffffffffffffffffffffffffff1673ffffffffffffffffffffffffffffffffffffffff16815260200190815260200160002060009054906101000a900460ff169050919050565b6001600381111562000309577f4e487b7100000000000000000000000000000000000000000000000000000000600052602160045260246000fd5b600160003373ffffffffffffffffffffffffffffffffffffffff1673ffffffffffffffffffffffffffffffffffffffff16815260200190815260200160002060009054906101000a900460ff1660038111156200038f577f4e487b7100000000000000000000000000000000000000000000000000000000600052602160045260246000fd5b14620003d2576040517f08c379a0000000000000000000000000000000000000000000000000000000008152600401620003c99062001b09565b60405180910390fd5b600160038111156200040d577f4e487b7100000000000000000000000000000000000000000000000000000000600052602160045260246000fd5b600160008373ffffffffffffffffffffffffffffffffffffffff1673ffffffffffffffffffffffffffffffffffffffff16815260200190815260200160002060009054906101000a900460ff16600381111562000493577f4e487b7100000000000000000000000000000000000000000000000000000000600052602160045260246000fd5b141580620004aa57506001620004a862001226565b115b620004ec576040517f08c379a0000000000000000000000000000000000000000000000000000000008152600401620004e39062001b2b565b60405180910390fd5b6000600160008373ffffffffffffffffffffffffffffffffffffffff1673ffffffffffffffffffffffffffffffffffffffff16815260200190815260200160002060006101000a81548160ff0219169083600381111562000576577f4e487b7100000000000000000000000000000000000000000000000000000000600052602160045260246000fd5b021790555062000586816200139a565b50565b600081815481106200059a57600080fd5b906000526020600020016000915054906101000a900473ffffffffffffffffffffffffffffffffffffffff1681565b6001600381111562000604577f4e487b7100000000000000000000000000000000000000000000000000000000600052602160045260246000fd5b600160003373ffffffffffffffffffffffffffffffffffffffff1673ffffffffffffffffffffffffffffffffffffffff16815260200190815260200160002060009054906101000a900460ff1660038111156200068a577f4e487b7100000000000000000000000000000000000000000000000000000000600052602160045260246000fd5b14620006cd576040517f08c379a0000000000000000000000000000000000000000000000000000000008152600401620006c49062001b09565b60405180910390fd5b80600160008473ffffffffffffffffffffffffffffffffffffffff1673ffffffffffffffffffffffffffffffffffffffff16815260200190815260200160002060006101000a81548160ff0219169083600381111562000756577f4e487b7100000000000000000000000000000000000000000000000000000000600052602160045260246000fd5b02179055506200076682620015cf565b620007cf576002829080600181540180825580915050600190039060005260206000200160009091909190916101000a81548173ffffffffffffffffffffffffffffffffffffffff021916908373ffffffffffffffffffffffffffffffffffffffff1602179055505b5050565b60016020528060005260406000206000915054906101000a900460ff1681565b606080600060028054905067ffffffffffffffff8111156200083e577f4e487b7100000000000000000000000000000000000000000000000000000000600052604160045260246000fd5b6040519080825280602002602001820160405280156200087357816020015b60608152602001906001900390816200085d5790505b50905060005b60028054905081101562000e245760016003811115620008c2577f4e487b7100000000000000000000000000000000000000000000000000000000600052602160045260246000fd5b600160006002848154811062000901577f4e487b7100000000000000000000000000000000000000000000000000000000600052603260045260246000fd5b9060005260206000200160009054906101000a900473ffffffffffffffffffffffffffffffffffffffff1673ffffffffffffffffffffffffffffffffffffffff1673ffffffffffffffffffffffffffffffffffffffff16815260200190815260200160002060009054906101000a900460ff166003811115620009ad577f4e487b7100000000000000000000000000000000000000000000000000000000600052602160045260246000fd5b141562000a35576040518060400160405280600181526020017f310000000000000000000000000000000000000000000000000000000000000081525082828151811062000a24577f4e487b7100000000000000000000000000000000000000000000000000000000600052603260045260246000fd5b602002602001018190525062000e0e565b6002600381111562000a70577f4e487b7100000000000000000000000000000000000000000000000000000000600052602160045260246000fd5b600160006002848154811062000aaf577f4e487b7100000000000000000000000000000000000000000000000000000000600052603260045260246000fd5b9060005260206000200160009054906101000a900473ffffffffffffffffffffffffffffffffffffffff1673ffffffffffffffffffffffffffffffffffffffff1673ffffffffffffffffffffffffffffffffffffffff16815260200190815260200160002060009054906101000a900460ff16600381111562000b5b577f4e487b7100000000000000000000000000000000000000000000000000000000600052602160045260246000fd5b141562000be3576040518060400160405280600181526020017f320000000000000000000000000000000000000000000000000000000000000081525082828151811062000bd2577f4e487b7100000000000000000000000000000000000000000000000000000000600052603260045260246000fd5b602002602001018190525062000e0d565b60038081111562000c1d577f4e487b7100000000000000000000000000000000000000000000000000000000600052602160045260246000fd5b600160006002848154811062000c5c577f4e487b7100000000000000000000000000000000000000000000000000000000600052603260045260246000fd5b9060005260206000200160009054906101000a900473ffffffffffffffffffffffffffffffffffffffff1673ffffffffffffffffffffffffffffffffffffffff1673ffffffffffffffffffffffffffffffffffffffff16815260200190815260200160002060009054906101000a900460ff16600381111562000d08577f4e487b7100000000000000000000000000000000000000000000000000000000600052602160045260246000fd5b141562000d90576040518060400160405280600181526020017f330000000000000000000000000000000000000000000000000000000000000081525082828151811062000d7f577f4e487b7100000000000000000000000000000000000000000000000000000000600052603260045260246000fd5b602002602001018190525062000e0c565b6040518060400160405280600181526020017f300000000000000000000000000000000000000000000000000000000000000081525082828151811062000e00577f4e487b7100000000000000000000000000000000000000000000000000000000600052603260045260246000fd5b60200260200101819052505b5b5b808062000e1b9062001d6a565b91505062000879565b508060028080548060200260200160405190810160405280929190818152602001828054801562000eab57602002820191906000526020600020905b8160009054906101000a900473ffffffffffffffffffffffffffffffffffffffff1673ffffffffffffffffffffffffffffffffffffffff168152602001906001019080831162000e60575b5050505050905092509250509091565b6060600080548060200260200160405190810160405280929190818152602001828054801562000f4157602002820191906000526020600020905b8160009054906101000a900473ffffffffffffffffffffffffffffffffffffffff1673ffffffffffffffffffffffffffffffffffffffff168152602001906001019080831162000ef6575b5050505050905090565b60606001600381111562000f88577f4e487b7100000000000000000000000000000000000000000000000000000000600052602160045260246000fd5b600160003373ffffffffffffffffffffffffffffffffffffffff1673ffffffffffffffffffffffffffffffffffffffff16815260200190815260200160002060009054906101000a900460ff1660038111156200100e577f4e487b7100000000000000000000000000000000000000000000000000000000600052602160045260246000fd5b1462001051576040517f08c379a0000000000000000000000000000000000000000000000000000000008152600401620010489062001b09565b60405180910390fd5b60008367ffffffffffffffff81111562001094577f4e487b7100000000000000000000000000000000000000000000000000000000600052604160045260246000fd5b604051908082528060200260200182016040528015620010c35781602001602082028036833780820191505090505b50905060005b848110156200121b576001600354620010e3919062001c29565b60038190555060006003543086604051620010fe90620016ab565b6200110c9392919062001b4d565b604051809103906000f08015801562001129573d6000803e3d6000fd5b5090506000819080600181540180825580915050600190039060005260206000200160009091909190916101000a81548173ffffffffffffffffffffffffffffffffffffffff021916908373ffffffffffffffffffffffffffffffffffffffff16021790555080838381518110620011ca577f4e487b7100000000000000000000000000000000000000000000000000000000600052603260045260246000fd5b602002602001019073ffffffffffffffffffffffffffffffffffffffff16908173ffffffffffffffffffffffffffffffffffffffff1681525050508080620012129062001d6a565b915050620010c9565b508091505092915050565b6000806000905060005b60028054905081101562001392576001600381111562001279577f4e487b7100000000000000000000000000000000000000000000000000000000600052602160045260246000fd5b6001600060028481548110620012b8577f4e487b7100000000000000000000000000000000000000000000000000000000600052603260045260246000fd5b9060005260206000200160009054906101000a900473ffffffffffffffffffffffffffffffffffffffff1673ffffffffffffffffffffffffffffffffffffffff1673ffffffffffffffffffffffffffffffffffffffff16815260200190815260200160002060009054906101000a900460ff16600381111562001364577f4e487b7100000000000000000000000000000000000000000000000000000000600052602160045260246000fd5b14156200137c578180620013789062001d6a565b9250505b8080620013899062001d6a565b91505062001230565b508091505090565b60005b600280549050811015620015cb578173ffffffffffffffffffffffffffffffffffffffff1660028281548110620013fd577f4e487b7100000000000000000000000000000000000000000000000000000000600052603260045260246000fd5b9060005260206000200160009054906101000a900473ffffffffffffffffffffffffffffffffffffffff1673ffffffffffffffffffffffffffffffffffffffff161415620015b557600260016002805490506200145b919062001c86565b8154811062001493577f4e487b7100000000000000000000000000000000000000000000000000000000600052603260045260246000fd5b9060005260206000200160009054906101000a900473ffffffffffffffffffffffffffffffffffffffff1660028281548110620014f9577f4e487b7100000000000000000000000000000000000000000000000000000000600052603260045260246000fd5b9060005260206000200160006101000a81548173ffffffffffffffffffffffffffffffffffffffff021916908373ffffffffffffffffffffffffffffffffffffffff16021790555060028054806200157a577f4e487b7100000000000000000000000000000000000000000000000000000000600052603160045260246000fd5b6001900381819060005260206000200160006101000a81549073ffffffffffffffffffffffffffffffffffffffff02191690559055620015cb565b8080620015c29062001d6a565b9150506200139d565b5050565b600080600090505b600280549050811015620016a0578273ffffffffffffffffffffffffffffffffffffffff166002828154811062001637577f4e487b7100000000000000000000000000000000000000000000000000000000600052603260045260246000fd5b9060005260206000200160009054906101000a900473ffffffffffffffffffffffffffffffffffffffff1673ffffffffffffffffffffffffffffffffffffffff1614156200168a576001915050620016a6565b8080620016979062001d6a565b915050620015d7565b50600090505b919050565b6138298062001e9e83390190565b600081359050620016ca8162001e3e565b92915050565b600081359050620016e18162001e58565b92915050565b600081359050620016f88162001e72565b92915050565b6000813590506200170f8162001e83565b92915050565b6000602082840312156200172857600080fd5b60006200173884828501620016b9565b91505092915050565b600080604083850312156200175557600080fd5b60006200176585828601620016b9565b92505060206200177885828601620016e7565b9150509250929050565b6000602082840312156200179557600080fd5b6000620017a584828501620016fe565b91505092915050565b60008060408385031215620017c257600080fd5b6000620017d285828601620016fe565b9250506020620017e585828601620016d0565b9150509250929050565b6000620017fd83836200181f565b60208301905092915050565b60006200181783836200194e565b905092915050565b6200182a8162001cc1565b82525050565b6200183b8162001cc1565b82525050565b60006200184e8262001baa565b6200185a818562001be5565b9350620018678362001b8a565b8060005b838110156200189e578151620018828882620017ef565b97506200188f8362001bcb565b9250506001810190506200186b565b5085935050505092915050565b6000620018b88262001bb5565b620018c4818562001bf6565b935083602082028501620018d88562001b9a565b8060005b858110156200191a5784840389528151620018f8858262001809565b9450620019058362001bd8565b925060208a01995050600181019050620018dc565b50829750879550505050505092915050565b620019378162001cd5565b82525050565b620019488162001d20565b82525050565b60006200195b8262001bc0565b62001967818562001c07565b93506200197981856020860162001d34565b620019848162001e16565b840191505092915050565b60006200199e60228362001c18565b91507f4f6e6c792061646d696e2063616e20706572666f726d2074686973206163746960008301527f6f6e0000000000000000000000000000000000000000000000000000000000006020830152604082019050919050565b600062001a0660218362001c18565b91507f4e6f6e2070756f692072696d756f76657265206c27756c74696d6f2061646d6960008301527f6e000000000000000000000000000000000000000000000000000000000000006020830152604082019050919050565b62001a6a8162001d16565b82525050565b600060208201905062001a87600083018462001830565b92915050565b6000602082019050818103600083015262001aa9818462001841565b905092915050565b6000604082019050818103600083015262001acd8185620018ab565b9050818103602083015262001ae3818462001841565b90509392505050565b600060208201905062001b0360008301846200193d565b92915050565b6000602082019050818103600083015262001b24816200198f565b9050919050565b6000602082019050818103600083015262001b4681620019f7565b9050919050565b600060608201905062001b64600083018662001a5f565b62001b73602083018562001830565b62001b8260408301846200192c565b949350505050565b6000819050602082019050919050565b6000819050602082019050919050565b600081519050919050565b600081519050919050565b600081519050919050565b6000602082019050919050565b6000602082019050919050565b600082825260208201905092915050565b600082825260208201905092915050565b600082825260208201905092915050565b600082825260208201905092915050565b600062001c368262001d16565b915062001c438362001d16565b9250827fffffffffffffffffffffffffffffffffffffffffffffffffffffffffffffffff0382111562001c7b5762001c7a62001db8565b5b828201905092915050565b600062001c938262001d16565b915062001ca08362001d16565b92508282101562001cb65762001cb562001db8565b5b828203905092915050565b600062001cce8262001cf6565b9050919050565b60008115159050919050565b600081905062001cf18262001e27565b919050565b600073ffffffffffffffffffffffffffffffffffffffff82169050919050565b6000819050919050565b600062001d2d8262001ce1565b9050919050565b60005b8381101562001d5457808201518184015260208101905062001d37565b8381111562001d64576000848401525b50505050565b600062001d778262001d16565b91507fffffffffffffffffffffffffffffffffffffffffffffffffffffffffffffffff82141562001dad5762001dac62001db8565b5b600182019050919050565b7f4e487b7100000000000000000000000000000000000000000000000000000000600052601160045260246000fd5b7f4e487b7100000000000000000000000000000000000000000000000000000000600052602160045260246000fd5b6000601f19601f8301169050919050565b6004811062001e3b5762001e3a62001de7565b5b50565b62001e498162001cc1565b811462001e5557600080fd5b50565b62001e638162001cd5565b811462001e6f57600080fd5b50565b6004811062001e8057600080fd5b50565b62001e8e8162001d16565b811462001e9a57600080fd5b5056fe60806040523480156200001157600080fd5b50604051620038293803806200382983398181016040528101906200003791906200183a565b8260028190555081600360006101000a81548173ffffffffffffffffffffffffffffffffffffffff021916908373ffffffffffffffffffffffffffffffffffffffff1602179055506000600360146101000a81548160ff02191690831515021790555080600360156101000a81548160ff021916908315150217905550620000c46200011e60201b60201c565b426000808154811062000100577f4e487b7100000000000000000000000000000000000000000000000000000000600052603260045260246000fd5b9060005260206000209060070201600201819055505050506200198d565b60006040518061010001604052806040518060400160405280600881526020017f526163636f6c74610000000000000000000000000000000000000000000000008152508152602001600073ffffffffffffffffffffffffffffffffffffffff1681526020016000151581526020016000815260200160008152602001604051806020016040528060008152508152602001600254815260200160001515815250908060018154018082558091505060019003906000526020600020906007020160009091909190915060008201518160000190805190602001906200020692919062001745565b5060208201518160010160006101000a81548173ffffffffffffffffffffffffffffffffffffffff021916908373ffffffffffffffffffffffffffffffffffffffff16021790555060408201518160010160146101000a81548160ff021916908315150217905550606082015181600201556080820151816003015560a0820151816004019080519060200190620002a092919062001745565b5060c0820151816005015560e08201518160060160006101000a81548160ff021916908315150217905550505060006040518061010001604052806040518060400160405280600981526020017f54726173706f72746f00000000000000000000000000000000000000000000008152508152602001600073ffffffffffffffffffffffffffffffffffffffff168152602001600015158152602001600081526020016000815260200160405180602001604052806000815250815260200160025481526020016000151581525090806001815401808255809150506001900390600052602060002090600702016000909190919091506000820151816000019080519060200190620003b592919062001745565b5060208201518160010160006101000a81548173ffffffffffffffffffffffffffffffffffffffff021916908373ffffffffffffffffffffffffffffffffffffffff16021790555060408201518160010160146101000a81548160ff021916908315150217905550606082015181600201556080820151816003015560a08201518160040190805190602001906200044f92919062001745565b5060c0820151816005015560e08201518160060160006101000a81548160ff021916908315150217905550505060006040518061010001604052806040518060400160405280600881526020017f50756c69747572610000000000000000000000000000000000000000000000008152508152602001600073ffffffffffffffffffffffffffffffffffffffff1681526020016000151581526020016000815260200160008152602001604051806020016040528060008152508152602001600254815260200160001515815250908060018154018082558091505060019003906000526020600020906007020160009091909190915060008201518160000190805190602001906200056492919062001745565b5060208201518160010160006101000a81548173ffffffffffffffffffffffffffffffffffffffff021916908373ffffffffffffffffffffffffffffffffffffffff16021790555060408201518160010160146101000a81548160ff021916908315150217905550606082015181600201556080820151816003015560a0820151816004019080519060200190620005fe92919062001745565b5060c0820151816005015560e08201518160060160006101000a81548160ff021916908315150217905550505060006040518061010001604052806040518060400160405280601181526020017f5374616e64617264697a7a617a696f6e650000000000000000000000000000008152508152602001600073ffffffffffffffffffffffffffffffffffffffff1681526020016000151581526020016000815260200160008152602001604051806020016040528060008152508152602001600254815260200160001515815250908060018154018082558091505060019003906000526020600020906007020160009091909190915060008201518160000190805190602001906200071392919062001745565b5060208201518160010160006101000a81548173ffffffffffffffffffffffffffffffffffffffff021916908373ffffffffffffffffffffffffffffffffffffffff16021790555060408201518160010160146101000a81548160ff021916908315150217905550606082015181600201556080820151816003015560a0820151816004019080519060200190620007ad92919062001745565b5060c0820151816005015560e08201518160060160006101000a81548160ff021916908315150217905550505060006040518061010001604052806040518060400160405280601081526020017f4f6d6f67656e65697a7a617a696f6e65000000000000000000000000000000008152508152602001600073ffffffffffffffffffffffffffffffffffffffff168152602001600015158152602001600081526020016000815260200160405180602001604052806000815250815260200160025481526020016000151581525090806001815401808255809150506001900390600052602060002090600702016000909190919091506000820151816000019080519060200190620008c292919062001745565b5060208201518160010160006101000a81548173ffffffffffffffffffffffffffffffffffffffff021916908373ffffffffffffffffffffffffffffffffffffffff16021790555060408201518160010160146101000a81548160ff021916908315150217905550606082015181600201556080820151816003015560a08201518160040190805190602001906200095c92919062001745565b5060c0820151816005015560e08201518160060160006101000a81548160ff0219169083151502179055505050600360159054906101000a900460ff161562000b545760006040518061010001604052806040518060400160405280600f81526020017f506173746f72697a7a617a696f6e6500000000000000000000000000000000008152508152602001600073ffffffffffffffffffffffffffffffffffffffff16815260200160001515815260200160008152602001600081526020016040518060200160405280600081525081526020016002548152602001600015158152509080600181540180825580915050600190039060005260206000209060070201600090919091909150600082015181600001908051906020019062000a8792919062001745565b5060208201518160010160006101000a81548173ffffffffffffffffffffffffffffffffffffffff021916908373ffffffffffffffffffffffffffffffffffffffff16021790555060408201518160010160146101000a81548160ff021916908315150217905550606082015181600201556080820151816003015560a082015181600401908051906020019062000b2192919062001745565b5060c0820151816005015560e08201518160060160006101000a81548160ff021916908315150217905550505062000d04565b60006040518061010001604052806040518060400160405280600f81526020017f53746572696c697a7a617a696f6e6500000000000000000000000000000000008152508152602001600073ffffffffffffffffffffffffffffffffffffffff16815260200160001515815260200160008152602001600081526020016040518060200160405280600081525081526020016002548152602001600015158152509080600181540180825580915050600190039060005260206000209060070201600090919091909150600082015181600001908051906020019062000c3c92919062001745565b5060208201518160010160006101000a81548173ffffffffffffffffffffffffffffffffffffffff021916908373ffffffffffffffffffffffffffffffffffffffff16021790555060408201518160010160146101000a81548160ff021916908315150217905550606082015181600201556080820151816003015560a082015181600401908051906020019062000cd692919062001745565b5060c0820151816005015560e08201518160060160006101000a81548160ff02191690831515021790555050505b60006040518061010001604052806040518060400160405280600f81526020017f436f6e66657a696f6e616d656e746f00000000000000000000000000000000008152508152602001600073ffffffffffffffffffffffffffffffffffffffff16815260200160001515815260200160008152602001600081526020016040518060200160405280600081525081526020016002548152602001600015158152509080600181540180825580915050600190039060005260206000209060070201600090919091909150600082015181600001908051906020019062000dec92919062001745565b5060208201518160010160006101000a81548173ffffffffffffffffffffffffffffffffffffffff021916908373ffffffffffffffffffffffffffffffffffffffff16021790555060408201518160010160146101000a81548160ff021916908315150217905550606082015181600201556080820151816003015560a082015181600401908051906020019062000e8692919062001745565b5060c0820151816005015560e08201518160060160006101000a81548160ff0219169083151502179055505050600360159054906101000a900460ff16156200122d5760006040518061010001604052806040518060400160405280601681526020017f53746f6363616767696f20726566726967657261746f000000000000000000008152508152602001600073ffffffffffffffffffffffffffffffffffffffff16815260200160001515815260200160008152602001600081526020016040518060200160405280600081525081526020016002548152602001600015158152509080600181540180825580915050600190039060005260206000209060070201600090919091909150600082015181600001908051906020019062000fb192919062001745565b5060208201518160010160006101000a81548173ffffffffffffffffffffffffffffffffffffffff021916908373ffffffffffffffffffffffffffffffffffffffff16021790555060408201518160010160146101000a81548160ff021916908315150217905550606082015181600201556080820151816003015560a08201518160040190805190602001906200104b92919062001745565b5060c0820151816005015560e08201518160060160006101000a81548160ff021916908315150217905550505060006040518061010001604052806040518060400160405280601981526020017f44697374726962757a696f6e65207265667269676572617461000000000000008152508152602001600073ffffffffffffffffffffffffffffffffffffffff1681526020016000151581526020016000815260200160008152602001604051806020016040528060008152508152602001600254815260200160001515815250908060018154018082558091505060019003906000526020600020906007020160009091909190915060008201518160000190805190602001906200116092919062001745565b5060208201518160010160006101000a81548173ffffffffffffffffffffffffffffffffffffffff021916908373ffffffffffffffffffffffffffffffffffffffff16021790555060408201518160010160146101000a81548160ff021916908315150217905550606082015181600201556080820151816003015560a0820151816004019080519060200190620011fa92919062001745565b5060c0820151816005015560e08201518160060160006101000a81548160ff02191690831515021790555050506200158c565b60006040518061010001604052806040518060400160405280600a81526020017f53746f6363616767696f000000000000000000000000000000000000000000008152508152602001600073ffffffffffffffffffffffffffffffffffffffff1681526020016000151581526020016000815260200160008152602001604051806020016040528060008152508152602001600254815260200160001515815250908060018154018082558091505060019003906000526020600020906007020160009091909190915060008201518160000190805190602001906200131592919062001745565b5060208201518160010160006101000a81548173ffffffffffffffffffffffffffffffffffffffff021916908373ffffffffffffffffffffffffffffffffffffffff16021790555060408201518160010160146101000a81548160ff021916908315150217905550606082015181600201556080820151816003015560a0820151816004019080519060200190620013af92919062001745565b5060c0820151816005015560e08201518160060160006101000a81548160ff021916908315150217905550505060006040518061010001604052806040518060400160405280600d81526020017f44697374726962757a696f6e65000000000000000000000000000000000000008152508152602001600073ffffffffffffffffffffffffffffffffffffffff168152602001600015158152602001600081526020016000815260200160405180602001604052806000815250815260200160025481526020016000151581525090806001815401808255809150506001900390600052602060002090600702016000909190919091506000820151816000019080519060200190620014c492919062001745565b5060208201518160010160006101000a81548173ffffffffffffffffffffffffffffffffffffffff021916908373ffffffffffffffffffffffffffffffffffffffff16021790555060408201518160010160146101000a81548160ff021916908315150217905550606082015181600201556080820151816003015560a08201518160040190805190602001906200155e92919062001745565b5060c0820151816005015560e08201518160060160006101000a81548160ff02191690831515021790555050505b60006040518061010001604052806040518060400160405280600881526020017f436f6e7365676e610000000000000000000000000000000000000000000000008152508152602001600073ffffffffffffffffffffffffffffffffffffffff1681526020016000151581526020016000815260200160008152602001604051806020016040528060008152508152602001600254815260200160001515815250908060018154018082558091505060019003906000526020600020906007020160009091909190915060008201518160000190805190602001906200167492919062001745565b5060208201518160010160006101000a81548173ffffffffffffffffffffffffffffffffffffffff021916908373ffffffffffffffffffffffffffffffffffffffff16021790555060408201518160010160146101000a81548160ff021916908315150217905550606082015181600201556080820151816003015560a08201518160040190805190602001906200170e92919062001745565b5060c0820151816005015560e08201518160060160006101000a81548160ff02191690831515021790555050506000600181905550565b8280546200175390620018da565b90600052602060002090601f016020900481019282620017775760008555620017c3565b82601f106200179257805160ff1916838001178555620017c3565b82800160010185558215620017c3579182015b82811115620017c2578251825591602001919060010190620017a5565b5b509050620017d29190620017d6565b5090565b5b80821115620017f1576000816000905550600101620017d7565b5090565b60008151905062001806816200193f565b92915050565b6000815190506200181d8162001959565b92915050565b600081519050620018348162001973565b92915050565b6000806000606084860312156200185057600080fd5b6000620018608682870162001823565b93505060206200187386828701620017f5565b925050604062001886868287016200180c565b9150509250925092565b60006200189d82620018b0565b9050919050565b60008115159050919050565b600073ffffffffffffffffffffffffffffffffffffffff82169050919050565b6000819050919050565b60006002820490506001821680620018f357607f821691505b602082108114156200190a576200190962001910565b5b50919050565b7f4e487b7100000000000000000000000000000000000000000000000000000000600052602260045260246000fd5b6200194a8162001890565b81146200195657600080fd5b50565b6200196481620018a4565b81146200197057600080fd5b50565b6200197e81620018d0565b81146200198a57600080fd5b50565b611e8c806200199d6000396000f3fe608060405234801561001057600080fd5b50600436106100b45760003560e01c80637217e0b9116100715780637217e0b91461015557806375b634601461018c5780638b1659f5146101a85780639597fe9f146101c6578063c45a0155146101e4578063f416334014610202576100b4565b8063040c22c0146100b95780631846c134146100d5578063334f45ec146100f357806344054931146101115780635da65ada1461012d57806366ea96241461014b575b600080fd5b6100d360048036038101906100ce9190611428565b610220565b005b6100dd610606565b6040516100ea91906119d5565b60405180910390f35b6100fb610619565b6040516101089190611b7c565b60405180910390f35b61012b60048036038101906101269190611492565b61061f565b005b61013561085d565b60405161014291906119b3565b60405180910390f35b610153610a8b565b005b61016f600480360381019061016a9190611469565b610dbf565b6040516101839897969594939291906119f0565b60405180910390f35b6101a660048036038101906101a191906113d6565b610f61565b005b6101b061121a565b6040516101bd91906119d5565b60405180910390f35b6101ce61122b565b6040516101db9190611b7c565b60405180910390f35b6101ec611231565b6040516101f99190611998565b60405180910390f35b61020a611257565b60405161021791906119d5565b60405180910390f35b6000600360009054906101000a900473ffffffffffffffffffffffffffffffffffffffff16905060008173ffffffffffffffffffffffffffffffffffffffff166344276733336040518263ffffffff1660e01b81526004016102829190611998565b60206040518083038186803b15801561029a57600080fd5b505afa1580156102ae573d6000803e3d6000fd5b505050506040513d601f19601f820116820180604052508101906102d291906113ff565b90506002600381111561030e577f4e487b7100000000000000000000000000000000000000000000000000000000600052602160045260246000fd5b816003811115610347577f4e487b7100000000000000000000000000000000000000000000000000000000600052602160045260246000fd5b14610387576040517f08c379a000000000000000000000000000000000000000000000000000000000815260040161037e90611a9c565b60405180910390fd5b600360149054906101000a900460ff16156103d7576040517f08c379a00000000000000000000000000000000000000000000000000000000081526004016103ce90611b3c565b60405180910390fd5b60008054905060015410610420576040517f08c379a000000000000000000000000000000000000000000000000000000000815260040161041790611b5c565b60405180910390fd5b6000806001548154811061045d577f4e487b7100000000000000000000000000000000000000000000000000000000600052603260045260246000fd5b906000526020600020906007020190508060010160009054906101000a900473ffffffffffffffffffffffffffffffffffffffff1673ffffffffffffffffffffffffffffffffffffffff163373ffffffffffffffffffffffffffffffffffffffff16146104ff576040517f08c379a00000000000000000000000000000000000000000000000000000000081526004016104f690611adc565b60405180910390fd5b60018160010160146101000a81548160ff02191690831515021790555042816003018190555061052e8461126a565b61056d576040517f08c379a000000000000000000000000000000000000000000000000000000000815260040161056490611a7c565b60405180910390fd5b83816004019080519060200190610585929190611277565b506001600081548092919061059990611d1a565b9190505550600080549050600154101561060057426000600154815481106105ea577f4e487b7100000000000000000000000000000000000000000000000000000000600052603260045260246000fd5b9060005260206000209060070201600201819055505b50505050565b600360159054906101000a900460ff1681565b60015481565b6000600360009054906101000a900473ffffffffffffffffffffffffffffffffffffffff16905060008173ffffffffffffffffffffffffffffffffffffffff166344276733336040518263ffffffff1660e01b81526004016106819190611998565b60206040518083038186803b15801561069957600080fd5b505afa1580156106ad573d6000803e3d6000fd5b505050506040513d601f19601f820116820180604052508101906106d191906113ff565b90506001600381111561070d577f4e487b7100000000000000000000000000000000000000000000000000000000600052602160045260246000fd5b816003811115610746577f4e487b7100000000000000000000000000000000000000000000000000000000600052602160045260246000fd5b14610786576040517f08c379a000000000000000000000000000000000000000000000000000000000815260040161077d90611afc565b60405180910390fd5b60008054905084106107cd576040517f08c379a00000000000000000000000000000000000000000000000000000000081526004016107c490611b1c565b60405180910390fd5b8260008581548110610808577f4e487b7100000000000000000000000000000000000000000000000000000000600052603260045260246000fd5b906000526020600020906007020160010160006101000a81548173ffffffffffffffffffffffffffffffffffffffff021916908373ffffffffffffffffffffffffffffffffffffffff16021790555050505050565b60606000805480602002602001604051908101604052809291908181526020016000905b82821015610a825783829060005260206000209060070201604051806101000160405290816000820180546108b590611ce8565b80601f01602080910402602001604051908101604052809291908181526020018280546108e190611ce8565b801561092e5780601f106109035761010080835404028352916020019161092e565b820191906000526020600020905b81548152906001019060200180831161091157829003601f168201915b505050505081526020016001820160009054906101000a900473ffffffffffffffffffffffffffffffffffffffff1673ffffffffffffffffffffffffffffffffffffffff1673ffffffffffffffffffffffffffffffffffffffff1681526020016001820160149054906101000a900460ff1615151515815260200160028201548152602001600382015481526020016004820180546109cc90611ce8565b80601f01602080910402602001604051908101604052809291908181526020018280546109f890611ce8565b8015610a455780601f10610a1a57610100808354040283529160200191610a45565b820191906000526020600020905b815481529060010190602001808311610a2857829003601f168201915b50505050508152602001600582015481526020016006820160009054906101000a900460ff16151515158152505081526020019060010190610881565b50505050905090565b6000600360009054906101000a900473ffffffffffffffffffffffffffffffffffffffff16905060008173ffffffffffffffffffffffffffffffffffffffff166344276733336040518263ffffffff1660e01b8152600401610aed9190611998565b60206040518083038186803b158015610b0557600080fd5b505afa158015610b19573d6000803e3d6000fd5b505050506040513d601f19601f82011682018060405250810190610b3d91906113ff565b905060026003811115610b79577f4e487b7100000000000000000000000000000000000000000000000000000000600052602160045260246000fd5b816003811115610bb2577f4e487b7100000000000000000000000000000000000000000000000000000000600052602160045260246000fd5b14610bf2576040517f08c379a0000000000000000000000000000000000000000000000000000000008152600401610be990611a9c565b60405180910390fd5b600360149054906101000a900460ff1615610c42576040517f08c379a0000000000000000000000000000000000000000000000000000000008152600401610c3990611b3c565b60405180910390fd5b60008054905060015410610c8b576040517f08c379a0000000000000000000000000000000000000000000000000000000008152600401610c8290611b5c565b60405180910390fd5b60008060015481548110610cc8577f4e487b7100000000000000000000000000000000000000000000000000000000600052603260045260246000fd5b906000526020600020906007020190508060010160009054906101000a900473ffffffffffffffffffffffffffffffffffffffff1673ffffffffffffffffffffffffffffffffffffffff163373ffffffffffffffffffffffffffffffffffffffff1614610d6a576040517f08c379a0000000000000000000000000000000000000000000000000000000008152600401610d6190611abc565b60405180910390fd5b60018160060160006101000a81548160ff0219169083151502179055506001600360146101000a81548160ff02191690831515021790555060016000815480929190610db590611d1a565b9190505550505050565b60008181548110610dcf57600080fd5b9060005260206000209060070201600091509050806000018054610df290611ce8565b80601f0160208091040260200160405190810160405280929190818152602001828054610e1e90611ce8565b8015610e6b5780601f10610e4057610100808354040283529160200191610e6b565b820191906000526020600020905b815481529060010190602001808311610e4e57829003601f168201915b5050505050908060010160009054906101000a900473ffffffffffffffffffffffffffffffffffffffff16908060010160149054906101000a900460ff1690806002015490806003015490806004018054610ec590611ce8565b80601f0160208091040260200160405190810160405280929190818152602001828054610ef190611ce8565b8015610f3e5780601f10610f1357610100808354040283529160200191610f3e565b820191906000526020600020905b815481529060010190602001808311610f2157829003601f168201915b5050505050908060050154908060060160009054906101000a900460ff16905088565b600360149054906101000a900460ff1615610fb1576040517f08c379a0000000000000000000000000000000000000000000000000000000008152600401610fa890611b3c565b60405180910390fd5b60008060015481548110610fee577f4e487b7100000000000000000000000000000000000000000000000000000000600052603260045260246000fd5b9060005260206000209060070201905081156110f75760018160010160146101000a81548160ff0219169083151502179055504281600301819055506040518060400160405280601981526020017f50726f63656475726520757020746f207374616e646172647300000000000000815250816004019080519060200190611077929190611277565b506001600081548092919061108b90611d1a565b919050555060008054905060015410156110f257426000600154815481106110dc577f4e487b7100000000000000000000000000000000000000000000000000000000600052603260045260246000fd5b9060005260206000209060070201600201819055505b611216565b60018160060160006101000a81548160ff0219169083151502179055506001600360146101000a81548160ff021916908315150217905550428160030181905550600180541415611195576040518060400160405280601581526020017f526f6164207472616e73706f7274206661696c6564000000000000000000000081525081600401908051906020019061118f929190611277565b50611215565b600760015414806111a857506008600154145b80156111c05750600360159054906101000a900460ff165b15611214576040518060400160405280600e81526020017f53746f72616765206661696c6564000000000000000000000000000000000000815250816004019080519060200190611212929190611277565b505b5b5b5050565b600080805490506001541015905090565b60025481565b600360009054906101000a900473ffffffffffffffffffffffffffffffffffffffff1681565b600360149054906101000a900460ff1681565b6000808251119050919050565b82805461128390611ce8565b90600052602060002090601f0160209004810192826112a557600085556112ec565b82601f106112be57805160ff19168380011785556112ec565b828001600101855582156112ec579182015b828111156112eb5782518255916020019190600101906112d0565b5b5090506112f991906112fd565b5090565b5b808211156113165760008160009055506001016112fe565b5090565b600061132d61132884611bc8565b611b97565b90508281526020810184848401111561134557600080fd5b611350848285611ca6565b509392505050565b60008135905061136781611e01565b92915050565b60008135905061137c81611e18565b92915050565b60008151905061139181611e2f565b92915050565b600082601f8301126113a857600080fd5b81356113b884826020860161131a565b91505092915050565b6000813590506113d081611e3f565b92915050565b6000602082840312156113e857600080fd5b60006113f68482850161136d565b91505092915050565b60006020828403121561141157600080fd5b600061141f84828501611382565b91505092915050565b60006020828403121561143a57600080fd5b600082013567ffffffffffffffff81111561145457600080fd5b61146084828501611397565b91505092915050565b60006020828403121561147b57600080fd5b6000611489848285016113c1565b91505092915050565b600080604083850312156114a557600080fd5b60006114b3858286016113c1565b92505060206114c485828601611358565b9150509250929050565b60006114da83836118c3565b905092915050565b6114eb81611c5e565b82525050565b6114fa81611c5e565b82525050565b600061150b82611c08565b6115158185611c2b565b93508360208202850161152785611bf8565b8060005b85811015611563578484038952815161154485826114ce565b945061154f83611c1e565b925060208a0199505060018101905061152b565b50829750879550505050505092915050565b61157e81611c70565b82525050565b61158d81611c70565b82525050565b600061159e82611c13565b6115a88185611c3c565b93506115b8818560208601611cb5565b6115c181611df0565b840191505092915050565b60006115d782611c13565b6115e18185611c4d565b93506115f1818560208601611cb5565b6115fa81611df0565b840191505092915050565b6000611612602883611c4d565b91507f4c6f636174696f6e206973206e6f7420726561736f6e61626c6520666f72207460008301527f68697320737465700000000000000000000000000000000000000000000000006020830152604082019050919050565b6000611678602783611c4d565b91507f4f6e6c792073757065727669736f722063616e20706572666f726d207468697360008301527f20616374696f6e000000000000000000000000000000000000000000000000006020830152604082019050919050565b60006116de602a83611c4d565b91507f4f6e6c792061737369676e65642073757065727669736f722063616e2066616960008301527f6c207468652073746570000000000000000000000000000000000000000000006020830152604082019050919050565b6000611744602e83611c4d565b91507f4f6e6c792061737369676e65642073757065727669736f722063616e20636f6d60008301527f706c6574652074686520737465700000000000000000000000000000000000006020830152604082019050919050565b60006117aa602283611c4d565b91507f4f6e6c792061646d696e2063616e20706572666f726d2074686973206163746960008301527f6f6e0000000000000000000000000000000000000000000000000000000000006020830152604082019050919050565b6000611810601783611c4d565b91507f5374657020696e646578206f7574206f662072616e67650000000000000000006000830152602082019050919050565b6000611850601a83611c4d565b91507f50726f636573732068617320616c7265616479206661696c65640000000000006000830152602082019050919050565b6000611890601f83611c4d565b91507f416c6c2073746570732061726520616c726561647920636f6d706c65746564006000830152602082019050919050565b60006101008301600083015184820360008601526118e18282611593565b91505060208301516118f660208601826114e2565b5060408301516119096040860182611575565b50606083015161191c606086018261197a565b50608083015161192f608086018261197a565b5060a083015184820360a08601526119478282611593565b91505060c083015161195c60c086018261197a565b5060e083015161196f60e0860182611575565b508091505092915050565b61198381611c9c565b82525050565b61199281611c9c565b82525050565b60006020820190506119ad60008301846114f1565b92915050565b600060208201905081810360008301526119cd8184611500565b905092915050565b60006020820190506119ea6000830184611584565b92915050565b6000610100820190508181036000830152611a0b818b6115cc565b9050611a1a602083018a6114f1565b611a276040830189611584565b611a346060830188611989565b611a416080830187611989565b81810360a0830152611a5381866115cc565b9050611a6260c0830185611989565b611a6f60e0830184611584565b9998505050505050505050565b60006020820190508181036000830152611a9581611605565b9050919050565b60006020820190508181036000830152611ab58161166b565b9050919050565b60006020820190508181036000830152611ad5816116d1565b9050919050565b60006020820190508181036000830152611af581611737565b9050919050565b60006020820190508181036000830152611b158161179d565b9050919050565b60006020820190508181036000830152611b3581611803565b9050919050565b60006020820190508181036000830152611b5581611843565b9050919050565b60006020820190508181036000830152611b7581611883565b9050919050565b6000602082019050611b916000830184611989565b92915050565b6000604051905081810181811067ffffffffffffffff82111715611bbe57611bbd611dc1565b5b8060405250919050565b600067ffffffffffffffff821115611be357611be2611dc1565b5b601f19601f8301169050602081019050919050565b6000819050602082019050919050565b600081519050919050565b600081519050919050565b6000602082019050919050565b600082825260208201905092915050565b600082825260208201905092915050565b600082825260208201905092915050565b6000611c6982611c7c565b9050919050565b60008115159050919050565b600073ffffffffffffffffffffffffffffffffffffffff82169050919050565b6000819050919050565b82818337600083830152505050565b60005b83811015611cd3578082015181840152602081019050611cb8565b83811115611ce2576000848401525b50505050565b60006002820490506001821680611d0057607f821691505b60208210811415611d1457611d13611d92565b5b50919050565b6000611d2582611c9c565b91507fffffffffffffffffffffffffffffffffffffffffffffffffffffffffffffffff821415611d5857611d57611d63565b5b600182019050919050565b7f4e487b7100000000000000000000000000000000000000000000000000000000600052601160045260246000fd5b7f4e487b7100000000000000000000000000000000000000000000000000000000600052602260045260246000fd5b7f4e487b7100000000000000000000000000000000000000000000000000000000600052604160045260246000fd5b6000601f19601f8301169050919050565b611e0a81611c5e565b8114611e1557600080fd5b50565b611e2181611c70565b8114611e2c57600080fd5b50565b60048110611e3c57600080fd5b50565b611e4881611c9c565b8114611e5357600080fd5b5056fea264697066735822122045d3f5c779423d6820d1786309f7804d2611dfcf842cde6b6182fa94aabee40864736f6c63430008000033a264697066735822122075d26d81bc82fd72899af2ad84677196a71f3cfa391bd757b87de16b1130411164736f6c63430008000033",
  "immutableReferences": {},
  "source": "// SPDX-License-Identifier: MIT\r\npragma solidity ^0.8.0;\r\n\r\nimport \"./MilkProcess.sol\";\r\n\r\ncontract MilkProcessFactory {\r\n    enum Role { None, Admin, Supervisor, Operator }\r\n\r\n    address[] public processes;\r\n    mapping(address => Role) public roles;\r\n    address[] public users;\r\n    uint lotNumber = 0;\r\n\r\n    constructor() {\r\n        roles[msg.sender] = Role.Admin;\r\n        users.push(msg.sender);\r\n    }\r\n\r\n    function createNewProcess(uint quantity, bool isIntero) external onlyAdmin returns (address[] memory) {\r\n        address[] memory newProcesses = new address[](quantity);\r\n        for (uint i = 0; i < quantity; i++) {\r\n            lotNumber = lotNumber + 1;\r\n            MilkProcess newProcess = new MilkProcess(lotNumber, address(this), isIntero);\r\n            processes.push(address(newProcess));\r\n            newProcesses[i] = address(newProcess);\r\n        }\r\n        return newProcesses;\r\n    }\r\n\r\n    function getAllProcesses() external view returns (address[] memory) {\r\n        return processes;\r\n    }\r\n\r\n    function getAllRoles() external view returns (string[] memory, address[] memory) {\r\n        string[] memory userRoles = new string[](users.length);\r\n        for (uint i = 0; i < users.length; i++) {\r\n            if (roles[users[i]] == Role.Admin) {\r\n                userRoles[i] = \"1\";\r\n            } else if (roles[users[i]] == Role.Supervisor) {\r\n                userRoles[i] = \"2\";\r\n            } else if(roles[users[i]] == Role.Operator) {\r\n                userRoles[i] = \"3\";\r\n            } else {\r\n                userRoles[i] = \"0\";\r\n            }\r\n        }\r\n        return (userRoles, users);\r\n    }\r\n\r\n    function getRole(address account) external view returns (Role) {\r\n        return roles[account];\r\n    }\r\n\r\n    function assignRole(address account, Role role) external onlyAdmin {\r\n        roles[account] = role;\r\n        if (!isAccountInList(account)) {\r\n            users.push(account);\r\n        }\r\n    }\r\n\r\n    function removeRole(address account) external onlyAdmin {\r\n        require(roles[account] != Role.Admin || countAdmins() > 1, \"Non puoi rimuovere l'ultimo admin\");\r\n        roles[account] = Role.None;\r\n        removeAccountFromList(account);\r\n    }\r\n\r\n    function countAdmins() internal view returns (uint) {\r\n        uint count = 0;\r\n        for (uint i = 0; i < users.length; i++) {\r\n            if (roles[users[i]] == Role.Admin) {\r\n                count++;\r\n            }\r\n        }\r\n        return count;\r\n    }\r\n\r\n    function isAccountInList(address account) internal view returns (bool) {\r\n        for (uint i = 0; i < users.length; i++) {\r\n            if (users[i] == account) {\r\n                return true;\r\n            }\r\n        }\r\n        return false;\r\n    }\r\n\r\n    function removeAccountFromList(address account) internal {\r\n        for (uint i = 0; i < users.length; i++) {\r\n            if (users[i] == account) {\r\n                users[i] = users[users.length - 1];\r\n                users.pop();\r\n                break;\r\n            }\r\n        }\r\n    }\r\n\r\n    modifier onlyAdmin() {\r\n        require(roles[msg.sender] == Role.Admin, \"Only admin can perform this action\");\r\n        _;\r\n    }\r\n}\r\n",
  "sourcePath": "C:\\Users\\gbeks\\OneDrive\\Desktop\\MilkChain\\backend\\contracts\\MilkProcessFactory.sol",
  "compiler": {
    "name": "solc",
    "version": "0.8.0+commit.c7dfd78e.Emscripten.clang"
  },
  "schemaVersion": "3.4.16",
  "updatedAt": "2024-07-13T13:10:40.938Z",
  "networkType": "ethereum",
  "devdoc": {
    "kind": "dev",
    "methods": {},
    "version": 1
  },
  "userdoc": {
    "kind": "user",
    "methods": {},
    "version": 1
  }
}