{
  "contractName": "MilkProcess",
  "abi": [
    {
      "inputs": [
        {
          "internalType": "uint256",
          "name": "_lotNumber",
          "type": "uint256"
        },
        {
          "internalType": "address",
          "name": "_factory",
          "type": "address"
        }
      ],
      "stateMutability": "nonpayable",
      "type": "constructor"
    },
    {
      "inputs": [],
      "name": "currentStepIndex",
      "outputs": [
        {
          "internalType": "uint256",
          "name": "",
          "type": "uint256"
        }
      ],
      "stateMutability": "view",
      "type": "function"
    },
    {
      "inputs": [],
      "name": "factory",
      "outputs": [
        {
          "internalType": "address",
          "name": "",
          "type": "address"
        }
      ],
      "stateMutability": "view",
      "type": "function"
    },
    {
      "inputs": [],
      "name": "isFailed",
      "outputs": [
        {
          "internalType": "bool",
          "name": "",
          "type": "bool"
        }
      ],
      "stateMutability": "view",
      "type": "function"
    },
    {
      "inputs": [],
      "name": "lotNumber",
      "outputs": [
        {
          "internalType": "uint256",
          "name": "",
          "type": "uint256"
        }
      ],
      "stateMutability": "view",
      "type": "function"
    },
    {
      "inputs": [
        {
          "internalType": "uint256",
          "name": "",
          "type": "uint256"
        }
      ],
      "name": "steps",
      "outputs": [
        {
          "internalType": "string",
          "name": "name",
          "type": "string"
        },
        {
          "internalType": "address",
          "name": "supervisor",
          "type": "address"
        },
        {
          "internalType": "bool",
          "name": "completed",
          "type": "bool"
        },
        {
          "internalType": "uint256",
          "name": "startTime",
          "type": "uint256"
        },
        {
          "internalType": "uint256",
          "name": "endTime",
          "type": "uint256"
        },
        {
          "internalType": "string",
          "name": "location",
          "type": "string"
        },
        {
          "internalType": "uint256",
          "name": "lotNumber",
          "type": "uint256"
        },
        {
          "internalType": "bool",
          "name": "failed",
          "type": "bool"
        }
      ],
      "stateMutability": "view",
      "type": "function"
    },
    {
      "inputs": [
        {
          "internalType": "uint256",
          "name": "stepIndex",
          "type": "uint256"
        },
        {
          "internalType": "address",
          "name": "supervisor",
          "type": "address"
        }
      ],
      "name": "assignSupervisor",
      "outputs": [],
      "stateMutability": "nonpayable",
      "type": "function"
    },
    {
      "inputs": [
        {
          "internalType": "string",
          "name": "_location",
          "type": "string"
        }
      ],
      "name": "completeStep",
      "outputs": [],
      "stateMutability": "nonpayable",
      "type": "function"
    },
    {
      "inputs": [],
      "name": "failStep",
      "outputs": [],
      "stateMutability": "nonpayable",
      "type": "function"
    },
    {
      "inputs": [],
      "name": "isProcessCompleted",
      "outputs": [
        {
          "internalType": "bool",
          "name": "",
          "type": "bool"
        }
      ],
      "stateMutability": "view",
      "type": "function"
    },
    {
      "inputs": [],
      "name": "getSteps",
      "outputs": [
        {
          "components": [
            {
              "internalType": "string",
              "name": "name",
              "type": "string"
            },
            {
              "internalType": "address",
              "name": "supervisor",
              "type": "address"
            },
            {
              "internalType": "bool",
              "name": "completed",
              "type": "bool"
            },
            {
              "internalType": "uint256",
              "name": "startTime",
              "type": "uint256"
            },
            {
              "internalType": "uint256",
              "name": "endTime",
              "type": "uint256"
            },
            {
              "internalType": "string",
              "name": "location",
              "type": "string"
            },
            {
              "internalType": "uint256",
              "name": "lotNumber",
              "type": "uint256"
            },
            {
              "internalType": "bool",
              "name": "failed",
              "type": "bool"
            }
          ],
          "internalType": "struct MilkProcess.Step[]",
          "name": "",
          "type": "tuple[]"
        }
      ],
      "stateMutability": "view",
      "type": "function"
    }
  ],
  "bytecode": "0x60806040523480156200001157600080fd5b506040516200258138038062002581833981810160405281019062000037919062000a56565b8160028190555080600360006101000a81548173ffffffffffffffffffffffffffffffffffffffff021916908373ffffffffffffffffffffffffffffffffffffffff1602179055506200008f6200010360201b60201c565b4260008081548110620000cb577f4e487b7100000000000000000000000000000000000000000000000000000000600052603260045260246000fd5b9060005260206000209060070201600201819055506000600360146101000a81548160ff021916908315150217905550505062000b6e565b60006040518061010001604052806040518060400160405280600881526020017f526163636f6c74610000000000000000000000000000000000000000000000008152508152602001600073ffffffffffffffffffffffffffffffffffffffff168152602001600015158152602001600081526020016000815260200160405180602001604052806000815250815260200160025481526020016000151581525090806001815401808255809150506001900390600052602060002090600702016000909190919091506000820151816000019080519060200190620001eb92919062000978565b5060208201518160010160006101000a81548173ffffffffffffffffffffffffffffffffffffffff021916908373ffffffffffffffffffffffffffffffffffffffff16021790555060408201518160010160146101000a81548160ff021916908315150217905550606082015181600201556080820151816003015560a08201518160040190805190602001906200028592919062000978565b5060c0820151816005015560e08201518160060160006101000a81548160ff021916908315150217905550505060006040518061010001604052806040518060400160405280600981526020017f54726173706f72746f00000000000000000000000000000000000000000000008152508152602001600073ffffffffffffffffffffffffffffffffffffffff1681526020016000151581526020016000815260200160008152602001604051806020016040528060008152508152602001600254815260200160001515815250908060018154018082558091505060019003906000526020600020906007020160009091909190915060008201518160000190805190602001906200039a92919062000978565b5060208201518160010160006101000a81548173ffffffffffffffffffffffffffffffffffffffff021916908373ffffffffffffffffffffffffffffffffffffffff16021790555060408201518160010160146101000a81548160ff021916908315150217905550606082015181600201556080820151816003015560a08201518160040190805190602001906200043492919062000978565b5060c0820151816005015560e08201518160060160006101000a81548160ff021916908315150217905550505060006040518061010001604052806040518060400160405280600b81526020017f4c61766f72617a696f6e650000000000000000000000000000000000000000008152508152602001600073ffffffffffffffffffffffffffffffffffffffff1681526020016000151581526020016000815260200160008152602001604051806020016040528060008152508152602001600254815260200160001515815250908060018154018082558091505060019003906000526020600020906007020160009091909190915060008201518160000190805190602001906200054992919062000978565b5060208201518160010160006101000a81548173ffffffffffffffffffffffffffffffffffffffff021916908373ffffffffffffffffffffffffffffffffffffffff16021790555060408201518160010160146101000a81548160ff021916908315150217905550606082015181600201556080820151816003015560a0820151816004019080519060200190620005e392919062000978565b5060c0820151816005015560e08201518160060160006101000a81548160ff021916908315150217905550505060006040518061010001604052806040518060400160405280600f81526020017f436f6e66657a696f6e616d656e746f00000000000000000000000000000000008152508152602001600073ffffffffffffffffffffffffffffffffffffffff168152602001600015158152602001600081526020016000815260200160405180602001604052806000815250815260200160025481526020016000151581525090806001815401808255809150506001900390600052602060002090600702016000909190919091506000820151816000019080519060200190620006f892919062000978565b5060208201518160010160006101000a81548173ffffffffffffffffffffffffffffffffffffffff021916908373ffffffffffffffffffffffffffffffffffffffff16021790555060408201518160010160146101000a81548160ff021916908315150217905550606082015181600201556080820151816003015560a08201518160040190805190602001906200079292919062000978565b5060c0820151816005015560e08201518160060160006101000a81548160ff021916908315150217905550505060006040518061010001604052806040518060400160405280600d81526020017f44697374726962757a696f6e65000000000000000000000000000000000000008152508152602001600073ffffffffffffffffffffffffffffffffffffffff168152602001600015158152602001600081526020016000815260200160405180602001604052806000815250815260200160025481526020016000151581525090806001815401808255809150506001900390600052602060002090600702016000909190919091506000820151816000019080519060200190620008a792919062000978565b5060208201518160010160006101000a81548173ffffffffffffffffffffffffffffffffffffffff021916908373ffffffffffffffffffffffffffffffffffffffff16021790555060408201518160010160146101000a81548160ff021916908315150217905550606082015181600201556080820151816003015560a08201518160040190805190602001906200094192919062000978565b5060c0820151816005015560e08201518160060160006101000a81548160ff02191690831515021790555050506000600181905550565b828054620009869062000ad5565b90600052602060002090601f016020900481019282620009aa5760008555620009f6565b82601f10620009c557805160ff1916838001178555620009f6565b82800160010185558215620009f6579182015b82811115620009f5578251825591602001919060010190620009d8565b5b50905062000a05919062000a09565b5090565b5b8082111562000a2457600081600090555060010162000a0a565b5090565b60008151905062000a398162000b3a565b92915050565b60008151905062000a508162000b54565b92915050565b6000806040838503121562000a6a57600080fd5b600062000a7a8582860162000a3f565b925050602062000a8d8582860162000a28565b9150509250929050565b600062000aa48262000aab565b9050919050565b600073ffffffffffffffffffffffffffffffffffffffff82169050919050565b6000819050919050565b6000600282049050600182168062000aee57607f821691505b6020821081141562000b055762000b0462000b0b565b5b50919050565b7f4e487b7100000000000000000000000000000000000000000000000000000000600052602260045260246000fd5b62000b458162000a97565b811462000b5157600080fd5b50565b62000b5f8162000acb565b811462000b6b57600080fd5b50565b611a038062000b7e6000396000f3fe608060405234801561001057600080fd5b506004361061009e5760003560e01c80637217e0b9116100665780637217e0b9146101215780638b1659f5146101585780639597fe9f14610176578063c45a015514610194578063f4163340146101b25761009e565b8063040c22c0146100a3578063334f45ec146100bf57806344054931146100dd5780635da65ada146100f957806366ea962414610117575b600080fd5b6100bd60048036038101906100b89190611016565b6101d0565b005b6100c7610566565b6040516100d4919061170a565b60405180910390f35b6100f760048036038101906100f29190611080565b61056c565b005b6101016107aa565b60405161010e9190611561565b60405180910390f35b61011f6109d8565b005b61013b60048036038101906101369190611057565b610ca4565b60405161014f98979695949392919061159e565b60405180910390f35b610160610e46565b60405161016d9190611583565b60405180910390f35b61017e610e57565b60405161018b919061170a565b60405180910390f35b61019c610e5d565b6040516101a99190611546565b60405180910390f35b6101ba610e83565b6040516101c79190611583565b60405180910390f35b6000600360009054906101000a900473ffffffffffffffffffffffffffffffffffffffff16905060008173ffffffffffffffffffffffffffffffffffffffff166344276733336040518263ffffffff1660e01b81526004016102329190611546565b60206040518083038186803b15801561024a57600080fd5b505afa15801561025e573d6000803e3d6000fd5b505050506040513d601f19601f820116820180604052508101906102829190610fed565b9050600260038111156102be577f4e487b7100000000000000000000000000000000000000000000000000000000600052602160045260246000fd5b8160038111156102f7577f4e487b7100000000000000000000000000000000000000000000000000000000600052602160045260246000fd5b14610337576040517f08c379a000000000000000000000000000000000000000000000000000000000815260040161032e9061164a565b60405180910390fd5b60008054905060015410610380576040517f08c379a0000000000000000000000000000000000000000000000000000000008152600401610377906116ea565b60405180910390fd5b600080600154815481106103bd577f4e487b7100000000000000000000000000000000000000000000000000000000600052603260045260246000fd5b906000526020600020906007020190508060010160009054906101000a900473ffffffffffffffffffffffffffffffffffffffff1673ffffffffffffffffffffffffffffffffffffffff163373ffffffffffffffffffffffffffffffffffffffff161461045f576040517f08c379a00000000000000000000000000000000000000000000000000000000081526004016104569061168a565b60405180910390fd5b60018160010160146101000a81548160ff02191690831515021790555042816003018190555061048e84610e96565b6104cd576040517f08c379a00000000000000000000000000000000000000000000000000000000081526004016104c49061162a565b60405180910390fd5b838160040190805190602001906104e5929190610ea3565b50600160008154809291906104f9906118a8565b91905055506000805490506001541015610560574260006001548154811061054a577f4e487b7100000000000000000000000000000000000000000000000000000000600052603260045260246000fd5b9060005260206000209060070201600201819055505b50505050565b60015481565b6000600360009054906101000a900473ffffffffffffffffffffffffffffffffffffffff16905060008173ffffffffffffffffffffffffffffffffffffffff166344276733336040518263ffffffff1660e01b81526004016105ce9190611546565b60206040518083038186803b1580156105e657600080fd5b505afa1580156105fa573d6000803e3d6000fd5b505050506040513d601f19601f8201168201806040525081019061061e9190610fed565b90506001600381111561065a577f4e487b7100000000000000000000000000000000000000000000000000000000600052602160045260246000fd5b816003811115610693577f4e487b7100000000000000000000000000000000000000000000000000000000600052602160045260246000fd5b146106d3576040517f08c379a00000000000000000000000000000000000000000000000000000000081526004016106ca906116aa565b60405180910390fd5b600080549050841061071a576040517f08c379a0000000000000000000000000000000000000000000000000000000008152600401610711906116ca565b60405180910390fd5b8260008581548110610755577f4e487b7100000000000000000000000000000000000000000000000000000000600052603260045260246000fd5b906000526020600020906007020160010160006101000a81548173ffffffffffffffffffffffffffffffffffffffff021916908373ffffffffffffffffffffffffffffffffffffffff16021790555050505050565b60606000805480602002602001604051908101604052809291908181526020016000905b828210156109cf57838290600052602060002090600702016040518061010001604052908160008201805461080290611876565b80601f016020809104026020016040519081016040528092919081815260200182805461082e90611876565b801561087b5780601f106108505761010080835404028352916020019161087b565b820191906000526020600020905b81548152906001019060200180831161085e57829003601f168201915b505050505081526020016001820160009054906101000a900473ffffffffffffffffffffffffffffffffffffffff1673ffffffffffffffffffffffffffffffffffffffff1673ffffffffffffffffffffffffffffffffffffffff1681526020016001820160149054906101000a900460ff16151515158152602001600282015481526020016003820154815260200160048201805461091990611876565b80601f016020809104026020016040519081016040528092919081815260200182805461094590611876565b80156109925780601f1061096757610100808354040283529160200191610992565b820191906000526020600020905b81548152906001019060200180831161097557829003601f168201915b50505050508152602001600582015481526020016006820160009054906101000a900460ff161515151581525050815260200190600101906107ce565b50505050905090565b6000600360009054906101000a900473ffffffffffffffffffffffffffffffffffffffff16905060008173ffffffffffffffffffffffffffffffffffffffff166344276733336040518263ffffffff1660e01b8152600401610a3a9190611546565b60206040518083038186803b158015610a5257600080fd5b505afa158015610a66573d6000803e3d6000fd5b505050506040513d601f19601f82011682018060405250810190610a8a9190610fed565b905060026003811115610ac6577f4e487b7100000000000000000000000000000000000000000000000000000000600052602160045260246000fd5b816003811115610aff577f4e487b7100000000000000000000000000000000000000000000000000000000600052602160045260246000fd5b14610b3f576040517f08c379a0000000000000000000000000000000000000000000000000000000008152600401610b369061164a565b60405180910390fd5b60008054905060015410610b88576040517f08c379a0000000000000000000000000000000000000000000000000000000008152600401610b7f906116ea565b60405180910390fd5b60008060015481548110610bc5577f4e487b7100000000000000000000000000000000000000000000000000000000600052603260045260246000fd5b906000526020600020906007020190508060010160009054906101000a900473ffffffffffffffffffffffffffffffffffffffff1673ffffffffffffffffffffffffffffffffffffffff163373ffffffffffffffffffffffffffffffffffffffff1614610c67576040517f08c379a0000000000000000000000000000000000000000000000000000000008152600401610c5e9061166a565b60405180910390fd5b60018160060160006101000a81548160ff0219169083151502179055506001600360146101000a81548160ff021916908315150217905550505050565b60008181548110610cb457600080fd5b9060005260206000209060070201600091509050806000018054610cd790611876565b80601f0160208091040260200160405190810160405280929190818152602001828054610d0390611876565b8015610d505780601f10610d2557610100808354040283529160200191610d50565b820191906000526020600020905b815481529060010190602001808311610d3357829003601f168201915b5050505050908060010160009054906101000a900473ffffffffffffffffffffffffffffffffffffffff16908060010160149054906101000a900460ff1690806002015490806003015490806004018054610daa90611876565b80601f0160208091040260200160405190810160405280929190818152602001828054610dd690611876565b8015610e235780601f10610df857610100808354040283529160200191610e23565b820191906000526020600020905b815481529060010190602001808311610e0657829003601f168201915b5050505050908060050154908060060160009054906101000a900460ff16905088565b600080805490506001541015905090565b60025481565b600360009054906101000a900473ffffffffffffffffffffffffffffffffffffffff1681565b600360149054906101000a900460ff1681565b6000808251119050919050565b828054610eaf90611876565b90600052602060002090601f016020900481019282610ed15760008555610f18565b82601f10610eea57805160ff1916838001178555610f18565b82800160010185558215610f18579182015b82811115610f17578251825591602001919060010190610efc565b5b509050610f259190610f29565b5090565b5b80821115610f42576000816000905550600101610f2a565b5090565b6000610f59610f5484611756565b611725565b905082815260208101848484011115610f7157600080fd5b610f7c848285611834565b509392505050565b600081359050610f938161198f565b92915050565b600081519050610fa8816119a6565b92915050565b600082601f830112610fbf57600080fd5b8135610fcf848260208601610f46565b91505092915050565b600081359050610fe7816119b6565b92915050565b600060208284031215610fff57600080fd5b600061100d84828501610f99565b91505092915050565b60006020828403121561102857600080fd5b600082013567ffffffffffffffff81111561104257600080fd5b61104e84828501610fae565b91505092915050565b60006020828403121561106957600080fd5b600061107784828501610fd8565b91505092915050565b6000806040838503121561109357600080fd5b60006110a185828601610fd8565b92505060206110b285828601610f84565b9150509250929050565b60006110c88383611471565b905092915050565b6110d9816117ec565b82525050565b6110e8816117ec565b82525050565b60006110f982611796565b61110381856117b9565b93508360208202850161111585611786565b8060005b85811015611151578484038952815161113285826110bc565b945061113d836117ac565b925060208a01995050600181019050611119565b50829750879550505050505092915050565b61116c816117fe565b82525050565b61117b816117fe565b82525050565b600061118c826117a1565b61119681856117ca565b93506111a6818560208601611843565b6111af8161197e565b840191505092915050565b60006111c5826117a1565b6111cf81856117db565b93506111df818560208601611843565b6111e88161197e565b840191505092915050565b60006112006028836117db565b91507f4c6f636174696f6e206973206e6f7420726561736f6e61626c6520666f72207460008301527f68697320737465700000000000000000000000000000000000000000000000006020830152604082019050919050565b60006112666027836117db565b91507f4f6e6c792073757065727669736f722063616e20706572666f726d207468697360008301527f20616374696f6e000000000000000000000000000000000000000000000000006020830152604082019050919050565b60006112cc602a836117db565b91507f4f6e6c792061737369676e65642073757065727669736f722063616e2066616960008301527f6c207468652073746570000000000000000000000000000000000000000000006020830152604082019050919050565b6000611332602e836117db565b91507f4f6e6c792061737369676e65642073757065727669736f722063616e20636f6d60008301527f706c6574652074686520737465700000000000000000000000000000000000006020830152604082019050919050565b60006113986022836117db565b91507f4f6e6c792061646d696e2063616e20706572666f726d2074686973206163746960008301527f6f6e0000000000000000000000000000000000000000000000000000000000006020830152604082019050919050565b60006113fe6017836117db565b91507f5374657020696e646578206f7574206f662072616e67650000000000000000006000830152602082019050919050565b600061143e601f836117db565b91507f416c6c2073746570732061726520616c726561647920636f6d706c65746564006000830152602082019050919050565b600061010083016000830151848203600086015261148f8282611181565b91505060208301516114a460208601826110d0565b5060408301516114b76040860182611163565b5060608301516114ca6060860182611528565b5060808301516114dd6080860182611528565b5060a083015184820360a08601526114f58282611181565b91505060c083015161150a60c0860182611528565b5060e083015161151d60e0860182611163565b508091505092915050565b6115318161182a565b82525050565b6115408161182a565b82525050565b600060208201905061155b60008301846110df565b92915050565b6000602082019050818103600083015261157b81846110ee565b905092915050565b60006020820190506115986000830184611172565b92915050565b60006101008201905081810360008301526115b9818b6111ba565b90506115c8602083018a6110df565b6115d56040830189611172565b6115e26060830188611537565b6115ef6080830187611537565b81810360a083015261160181866111ba565b905061161060c0830185611537565b61161d60e0830184611172565b9998505050505050505050565b60006020820190508181036000830152611643816111f3565b9050919050565b6000602082019050818103600083015261166381611259565b9050919050565b60006020820190508181036000830152611683816112bf565b9050919050565b600060208201905081810360008301526116a381611325565b9050919050565b600060208201905081810360008301526116c38161138b565b9050919050565b600060208201905081810360008301526116e3816113f1565b9050919050565b6000602082019050818103600083015261170381611431565b9050919050565b600060208201905061171f6000830184611537565b92915050565b6000604051905081810181811067ffffffffffffffff8211171561174c5761174b61194f565b5b8060405250919050565b600067ffffffffffffffff8211156117715761177061194f565b5b601f19601f8301169050602081019050919050565b6000819050602082019050919050565b600081519050919050565b600081519050919050565b6000602082019050919050565b600082825260208201905092915050565b600082825260208201905092915050565b600082825260208201905092915050565b60006117f78261180a565b9050919050565b60008115159050919050565b600073ffffffffffffffffffffffffffffffffffffffff82169050919050565b6000819050919050565b82818337600083830152505050565b60005b83811015611861578082015181840152602081019050611846565b83811115611870576000848401525b50505050565b6000600282049050600182168061188e57607f821691505b602082108114156118a2576118a1611920565b5b50919050565b60006118b38261182a565b91507fffffffffffffffffffffffffffffffffffffffffffffffffffffffffffffffff8214156118e6576118e56118f1565b5b600182019050919050565b7f4e487b7100000000000000000000000000000000000000000000000000000000600052601160045260246000fd5b7f4e487b7100000000000000000000000000000000000000000000000000000000600052602260045260246000fd5b7f4e487b7100000000000000000000000000000000000000000000000000000000600052604160045260246000fd5b6000601f19601f8301169050919050565b611998816117ec565b81146119a357600080fd5b50565b600481106119b357600080fd5b50565b6119bf8161182a565b81146119ca57600080fd5b5056fea26469706673582212204a7be2ec041ef3f89b0ad65fb761e6db55106a52dee11174b9f66f4b8a0c2b1c64736f6c63430008000033",
  "immutableReferences": {},
  "source": "// SPDX-License-Identifier: MIT\r\npragma solidity ^0.8.0;\r\n\r\nimport \"./MilkProcessFactory.sol\";\r\n\r\ncontract MilkProcess {\r\n    struct Step {\r\n        string name;\r\n        address supervisor;\r\n        bool completed;\r\n        uint startTime;\r\n        uint endTime;\r\n        string location;\r\n        uint lotNumber;\r\n        bool failed;\r\n    }\r\n\r\n    Step[] public steps;\r\n    uint public currentStepIndex;\r\n    uint public lotNumber;\r\n    address public factory;\r\n    bool public isFailed;\r\n\r\n    constructor(uint _lotNumber, address _factory) {\r\n        lotNumber = _lotNumber;\r\n        factory = _factory;\r\n        initializeSteps();\r\n        steps[0].startTime = block.timestamp;\r\n        isFailed = false;\r\n    }\r\n\r\n    function initializeSteps() internal {\r\n        steps.push(Step(\"Raccolta\", address(0), false, 0, 0, \"\", lotNumber, false));\r\n        steps.push(Step(\"Trasporto\", address(0), false, 0, 0, \"\", lotNumber, false));\r\n        steps.push(Step(\"Lavorazione\", address(0), false, 0, 0, \"\", lotNumber, false));\r\n        steps.push(Step(\"Confezionamento\", address(0), false, 0, 0, \"\", lotNumber, false));\r\n        steps.push(Step(\"Distribuzione\", address(0), false, 0, 0, \"\", lotNumber, false));\r\n        currentStepIndex = 0;\r\n    }\r\n\r\n    function assignSupervisor(uint stepIndex,address supervisor) external onlyAdmin {\r\n        require(stepIndex < steps.length, \"Step index out of range\");\r\n        steps[stepIndex].supervisor = supervisor;\r\n    }\r\n\r\n    function completeStep(string memory _location) external onlySupervisor {\r\n        require(currentStepIndex < steps.length, \"All steps are already completed\");\r\n        Step storage step = steps[currentStepIndex];\r\n        require(msg.sender == step.supervisor,\"Only assigned supervisor can complete the step\");\r\n        step.completed = true;\r\n        step.endTime = block.timestamp;\r\n\r\n        require(isReasonableLocation(_location), \"Location is not reasonable for this step\");\r\n\r\n        step.location = _location;\r\n\r\n        currentStepIndex++;\r\n\r\n        if (currentStepIndex < steps.length) {\r\n            steps[currentStepIndex].startTime = block.timestamp;\r\n        }\r\n    }\r\n\r\n    function failStep() external onlySupervisor {\r\n        require(currentStepIndex < steps.length, \"All steps are already completed\");\r\n        Step storage step = steps[currentStepIndex];\r\n        require(msg.sender == step.supervisor, \"Only assigned supervisor can fail the step\");\r\n        step.failed = true;\r\n        isFailed = true;\r\n    }\r\n\r\n    function isReasonableLocation(string memory _location) internal pure returns (bool) {\r\n        return bytes(_location).length > 0;\r\n    }\r\n\r\n    function isProcessCompleted() external view returns (bool) {\r\n        return currentStepIndex >= steps.length;\r\n    }\r\n\r\n    function getSteps() external view returns (Step[] memory){\r\n        return steps;\r\n    }\r\n\r\n    modifier onlyAdmin() {\r\n        MilkProcessFactory factoryContract = MilkProcessFactory(factory);\r\n        MilkProcessFactory.Role role = factoryContract.getRole(msg.sender);\r\n        require(role == MilkProcessFactory.Role.Admin, \"Only admin can perform this action\");\r\n        _;\r\n    }\r\n\r\n    modifier onlySupervisor() {\r\n        MilkProcessFactory factoryContract = MilkProcessFactory(factory);\r\n        MilkProcessFactory.Role role = factoryContract.getRole(msg.sender);\r\n        require(role == MilkProcessFactory.Role.Supervisor, \"Only supervisor can perform this action\");\r\n        _;\r\n    }\r\n}",
  "sourcePath": "C:\\Users\\samue\\Desktop\\MilkChain\\backend\\contracts\\MilkProcess.sol",
  "compiler": {
    "name": "solc",
    "version": "0.8.0+commit.c7dfd78e.Emscripten.clang"
  },
  "schemaVersion": "3.4.16",
  "updatedAt": "2024-07-09T13:15:31.171Z",
  "devdoc": {
    "kind": "dev",
    "methods": {},
    "version": 1
  },
  "userdoc": {
    "kind": "user",
    "methods": {},
    "version": 1
  }
}