{
  "contractName": "MilkProcessFactory",
  "abi": [
    {
      "inputs": [],
      "stateMutability": "nonpayable",
      "type": "constructor"
    },
    {
      "inputs": [
        {
          "internalType": "uint256",
          "name": "",
          "type": "uint256"
        }
      ],
      "name": "processes",
      "outputs": [
        {
          "internalType": "address",
          "name": "",
          "type": "address"
        }
      ],
      "stateMutability": "view",
      "type": "function",
      "constant": true
    },
    {
      "inputs": [
        {
          "internalType": "address",
          "name": "",
          "type": "address"
        }
      ],
      "name": "roles",
      "outputs": [
        {
          "internalType": "enum MilkProcessFactory.Role",
          "name": "",
          "type": "uint8"
        }
      ],
      "stateMutability": "view",
      "type": "function",
      "constant": true
    },
    {
      "inputs": [
        {
          "internalType": "uint256",
          "name": "",
          "type": "uint256"
        }
      ],
      "name": "users",
      "outputs": [
        {
          "internalType": "address",
          "name": "",
          "type": "address"
        }
      ],
      "stateMutability": "view",
      "type": "function",
      "constant": true
    },
    {
      "inputs": [
        {
          "internalType": "uint256",
          "name": "quantity",
          "type": "uint256"
        }
      ],
      "name": "createNewProcess",
      "outputs": [
        {
          "internalType": "address[]",
          "name": "",
          "type": "address[]"
        }
      ],
      "stateMutability": "nonpayable",
      "type": "function"
    },
    {
      "inputs": [],
      "name": "getAllProcesses",
      "outputs": [
        {
          "internalType": "address[]",
          "name": "",
          "type": "address[]"
        }
      ],
      "stateMutability": "view",
      "type": "function",
      "constant": true
    },
    {
      "inputs": [],
      "name": "getAllRoles",
      "outputs": [
        {
          "internalType": "string[]",
          "name": "",
          "type": "string[]"
        },
        {
          "internalType": "address[]",
          "name": "",
          "type": "address[]"
        }
      ],
      "stateMutability": "view",
      "type": "function",
      "constant": true
    },
    {
      "inputs": [
        {
          "internalType": "address",
          "name": "account",
          "type": "address"
        },
        {
          "internalType": "enum MilkProcessFactory.Role",
          "name": "role",
          "type": "uint8"
        }
      ],
      "name": "assignRole",
      "outputs": [],
      "stateMutability": "nonpayable",
      "type": "function"
    },
    {
      "inputs": [
        {
          "internalType": "address",
          "name": "account",
          "type": "address"
        }
      ],
      "name": "removeRole",
      "outputs": [],
      "stateMutability": "nonpayable",
      "type": "function"
    },
    {
      "inputs": [
        {
          "internalType": "address",
          "name": "account",
          "type": "address"
        }
      ],
      "name": "getRole",
      "outputs": [
        {
          "internalType": "enum MilkProcessFactory.Role",
          "name": "",
          "type": "uint8"
        }
      ],
      "stateMutability": "view",
      "type": "function",
      "constant": true
    }
  ],
  "bytecode": "0x6080604052600060035534801561001557600080fd5b5060018060003373ffffffffffffffffffffffffffffffffffffffff1673ffffffffffffffffffffffffffffffffffffffff16815260200190815260200160002060006101000a81548160ff0219169083600381111561009e577f4e487b7100000000000000000000000000000000000000000000000000000000600052602160045260246000fd5b02179055506002339080600181540180825580915050600190039060005260206000200160009091909190916101000a81548173ffffffffffffffffffffffffffffffffffffffff021916908373ffffffffffffffffffffffffffffffffffffffff160217905550613e66806101156000396000f3fe60806040523480156200001157600080fd5b5060043610620000a05760003560e01c8063579e51c7116200006f578063579e51c71462000167578063630a195b146200019d5780639937464214620001bd578063f2bcac3d14620001f3578063f52a8fa0146200021657620000a0565b8063342865b714620000a5578063365b98b214620000db5780634427673314620001115780634762155d1462000147575b600080fd5b620000c36004803603810190620000bd91906200176a565b62000238565b604051620000d2919062001a23565b60405180910390f35b620000f96004803603810190620000f391906200176a565b62000512565b60405162000108919062001a06565b60405180910390f35b6200012f6004803603810190620001299190620016fd565b62000552565b6040516200013e919062001a82565b60405180910390f35b6200016560048036038101906200015f9190620016fd565b620005a8565b005b6200018560048036038101906200017f91906200176a565b62000863565b60405162000194919062001a06565b60405180910390f35b620001bb6004803603810190620001b5919062001729565b620008a3565b005b620001db6004803603810190620001d59190620016fd565b62000aad565b604051620001ea919062001a82565b60405180910390f35b620001fd62000acd565b6040516200020d92919062001a47565b60405180910390f35b6200022062001195565b6040516200022f919062001a23565b60405180910390f35b60606001600381111562000275577f4e487b7100000000000000000000000000000000000000000000000000000000600052602160045260246000fd5b600160003373ffffffffffffffffffffffffffffffffffffffff1673ffffffffffffffffffffffffffffffffffffffff16815260200190815260200160002060009054906101000a900460ff166003811115620002fb577f4e487b7100000000000000000000000000000000000000000000000000000000600052602160045260246000fd5b146200033e576040517f08c379a0000000000000000000000000000000000000000000000000000000008152600401620003359062001a9f565b60405180910390fd5b60008267ffffffffffffffff81111562000381577f4e487b7100000000000000000000000000000000000000000000000000000000600052604160045260246000fd5b604051908082528060200260200182016040528015620003b05781602001602082028036833780820191505090505b50905060005b8381101562000508576001600354620003d0919062001bbf565b60038190555060006003543330604051620003eb90620016aa565b620003f99392919062001ae3565b604051809103906000f08015801562000416573d6000803e3d6000fd5b5090506000819080600181540180825580915050600190039060005260206000200160009091909190916101000a81548173ffffffffffffffffffffffffffffffffffffffff021916908373ffffffffffffffffffffffffffffffffffffffff16021790555080838381518110620004b7577f4e487b7100000000000000000000000000000000000000000000000000000000600052603260045260246000fd5b602002602001019073ffffffffffffffffffffffffffffffffffffffff16908173ffffffffffffffffffffffffffffffffffffffff1681525050508080620004ff9062001cf4565b915050620003b6565b5080915050919050565b600281815481106200052357600080fd5b906000526020600020016000915054906101000a900473ffffffffffffffffffffffffffffffffffffffff1681565b6000600160008373ffffffffffffffffffffffffffffffffffffffff1673ffffffffffffffffffffffffffffffffffffffff16815260200190815260200160002060009054906101000a900460ff169050919050565b60016003811115620005e3577f4e487b7100000000000000000000000000000000000000000000000000000000600052602160045260246000fd5b600160003373ffffffffffffffffffffffffffffffffffffffff1673ffffffffffffffffffffffffffffffffffffffff16815260200190815260200160002060009054906101000a900460ff16600381111562000669577f4e487b7100000000000000000000000000000000000000000000000000000000600052602160045260246000fd5b14620006ac576040517f08c379a0000000000000000000000000000000000000000000000000000000008152600401620006a39062001a9f565b60405180910390fd5b60016003811115620006e7577f4e487b7100000000000000000000000000000000000000000000000000000000600052602160045260246000fd5b600160008373ffffffffffffffffffffffffffffffffffffffff1673ffffffffffffffffffffffffffffffffffffffff16815260200190815260200160002060009054906101000a900460ff1660038111156200076d577f4e487b7100000000000000000000000000000000000000000000000000000000600052602160045260246000fd5b14158062000784575060016200078262001225565b115b620007c6576040517f08c379a0000000000000000000000000000000000000000000000000000000008152600401620007bd9062001ac1565b60405180910390fd5b6000600160008373ffffffffffffffffffffffffffffffffffffffff1673ffffffffffffffffffffffffffffffffffffffff16815260200190815260200160002060006101000a81548160ff0219169083600381111562000850577f4e487b7100000000000000000000000000000000000000000000000000000000600052602160045260246000fd5b0217905550620008608162001399565b50565b600081815481106200087457600080fd5b906000526020600020016000915054906101000a900473ffffffffffffffffffffffffffffffffffffffff1681565b60016003811115620008de577f4e487b7100000000000000000000000000000000000000000000000000000000600052602160045260246000fd5b600160003373ffffffffffffffffffffffffffffffffffffffff1673ffffffffffffffffffffffffffffffffffffffff16815260200190815260200160002060009054906101000a900460ff16600381111562000964577f4e487b7100000000000000000000000000000000000000000000000000000000600052602160045260246000fd5b14620009a7576040517f08c379a00000000000000000000000000000000000000000000000000000000081526004016200099e9062001a9f565b60405180910390fd5b80600160008473ffffffffffffffffffffffffffffffffffffffff1673ffffffffffffffffffffffffffffffffffffffff16815260200190815260200160002060006101000a81548160ff0219169083600381111562000a30577f4e487b7100000000000000000000000000000000000000000000000000000000600052602160045260246000fd5b021790555062000a4082620015ce565b62000aa9576002829080600181540180825580915050600190039060005260206000200160009091909190916101000a81548173ffffffffffffffffffffffffffffffffffffffff021916908373ffffffffffffffffffffffffffffffffffffffff1602179055505b5050565b60016020528060005260406000206000915054906101000a900460ff1681565b606080600060028054905067ffffffffffffffff81111562000b18577f4e487b7100000000000000000000000000000000000000000000000000000000600052604160045260246000fd5b60405190808252806020026020018201604052801562000b4d57816020015b606081526020019060019003908162000b375790505b50905060005b600280549050811015620010fe576001600381111562000b9c577f4e487b7100000000000000000000000000000000000000000000000000000000600052602160045260246000fd5b600160006002848154811062000bdb577f4e487b7100000000000000000000000000000000000000000000000000000000600052603260045260246000fd5b9060005260206000200160009054906101000a900473ffffffffffffffffffffffffffffffffffffffff1673ffffffffffffffffffffffffffffffffffffffff1673ffffffffffffffffffffffffffffffffffffffff16815260200190815260200160002060009054906101000a900460ff16600381111562000c87577f4e487b7100000000000000000000000000000000000000000000000000000000600052602160045260246000fd5b141562000d0f576040518060400160405280600181526020017f310000000000000000000000000000000000000000000000000000000000000081525082828151811062000cfe577f4e487b7100000000000000000000000000000000000000000000000000000000600052603260045260246000fd5b6020026020010181905250620010e8565b6002600381111562000d4a577f4e487b7100000000000000000000000000000000000000000000000000000000600052602160045260246000fd5b600160006002848154811062000d89577f4e487b7100000000000000000000000000000000000000000000000000000000600052603260045260246000fd5b9060005260206000200160009054906101000a900473ffffffffffffffffffffffffffffffffffffffff1673ffffffffffffffffffffffffffffffffffffffff1673ffffffffffffffffffffffffffffffffffffffff16815260200190815260200160002060009054906101000a900460ff16600381111562000e35577f4e487b7100000000000000000000000000000000000000000000000000000000600052602160045260246000fd5b141562000ebd576040518060400160405280600181526020017f320000000000000000000000000000000000000000000000000000000000000081525082828151811062000eac577f4e487b7100000000000000000000000000000000000000000000000000000000600052603260045260246000fd5b6020026020010181905250620010e7565b60038081111562000ef7577f4e487b7100000000000000000000000000000000000000000000000000000000600052602160045260246000fd5b600160006002848154811062000f36577f4e487b7100000000000000000000000000000000000000000000000000000000600052603260045260246000fd5b9060005260206000200160009054906101000a900473ffffffffffffffffffffffffffffffffffffffff1673ffffffffffffffffffffffffffffffffffffffff1673ffffffffffffffffffffffffffffffffffffffff16815260200190815260200160002060009054906101000a900460ff16600381111562000fe2577f4e487b7100000000000000000000000000000000000000000000000000000000600052602160045260246000fd5b14156200106a576040518060400160405280600181526020017f330000000000000000000000000000000000000000000000000000000000000081525082828151811062001059577f4e487b7100000000000000000000000000000000000000000000000000000000600052603260045260246000fd5b6020026020010181905250620010e6565b6040518060400160405280600181526020017f3000000000000000000000000000000000000000000000000000000000000000815250828281518110620010da577f4e487b7100000000000000000000000000000000000000000000000000000000600052603260045260246000fd5b60200260200101819052505b5b5b8080620010f59062001cf4565b91505062000b53565b50806002808054806020026020016040519081016040528092919081815260200182805480156200118557602002820191906000526020600020905b8160009054906101000a900473ffffffffffffffffffffffffffffffffffffffff1673ffffffffffffffffffffffffffffffffffffffff16815260200190600101908083116200113a575b5050505050905092509250509091565b606060008054806020026020016040519081016040528092919081815260200182805480156200121b57602002820191906000526020600020905b8160009054906101000a900473ffffffffffffffffffffffffffffffffffffffff1673ffffffffffffffffffffffffffffffffffffffff1681526020019060010190808311620011d0575b5050505050905090565b6000806000905060005b60028054905081101562001391576001600381111562001278577f4e487b7100000000000000000000000000000000000000000000000000000000600052602160045260246000fd5b6001600060028481548110620012b7577f4e487b7100000000000000000000000000000000000000000000000000000000600052603260045260246000fd5b9060005260206000200160009054906101000a900473ffffffffffffffffffffffffffffffffffffffff1673ffffffffffffffffffffffffffffffffffffffff1673ffffffffffffffffffffffffffffffffffffffff16815260200190815260200160002060009054906101000a900460ff16600381111562001363577f4e487b7100000000000000000000000000000000000000000000000000000000600052602160045260246000fd5b14156200137b578180620013779062001cf4565b9250505b8080620013889062001cf4565b9150506200122f565b508091505090565b60005b600280549050811015620015ca578173ffffffffffffffffffffffffffffffffffffffff1660028281548110620013fc577f4e487b7100000000000000000000000000000000000000000000000000000000600052603260045260246000fd5b9060005260206000200160009054906101000a900473ffffffffffffffffffffffffffffffffffffffff1673ffffffffffffffffffffffffffffffffffffffff161415620015b457600260016002805490506200145a919062001c1c565b8154811062001492577f4e487b7100000000000000000000000000000000000000000000000000000000600052603260045260246000fd5b9060005260206000200160009054906101000a900473ffffffffffffffffffffffffffffffffffffffff1660028281548110620014f8577f4e487b7100000000000000000000000000000000000000000000000000000000600052603260045260246000fd5b9060005260206000200160006101000a81548173ffffffffffffffffffffffffffffffffffffffff021916908373ffffffffffffffffffffffffffffffffffffffff160217905550600280548062001579577f4e487b7100000000000000000000000000000000000000000000000000000000600052603160045260246000fd5b6001900381819060005260206000200160006101000a81549073ffffffffffffffffffffffffffffffffffffffff02191690559055620015ca565b8080620015c19062001cf4565b9150506200139c565b5050565b600080600090505b6002805490508110156200169f578273ffffffffffffffffffffffffffffffffffffffff166002828154811062001636577f4e487b7100000000000000000000000000000000000000000000000000000000600052603260045260246000fd5b9060005260206000200160009054906101000a900473ffffffffffffffffffffffffffffffffffffffff1673ffffffffffffffffffffffffffffffffffffffff16141562001689576001915050620016a5565b8080620016969062001cf4565b915050620015d6565b50600090505b919050565b6120238062001e0e83390190565b600081359050620016c98162001dc8565b92915050565b600081359050620016e08162001de2565b92915050565b600081359050620016f78162001df3565b92915050565b6000602082840312156200171057600080fd5b60006200172084828501620016b8565b91505092915050565b600080604083850312156200173d57600080fd5b60006200174d85828601620016b8565b92505060206200176085828601620016cf565b9150509250929050565b6000602082840312156200177d57600080fd5b60006200178d84828501620016e6565b91505092915050565b6000620017a48383620017c6565b60208301905092915050565b6000620017be8383620018e4565b905092915050565b620017d18162001c57565b82525050565b620017e28162001c57565b82525050565b6000620017f58262001b40565b62001801818562001b7b565b93506200180e8362001b20565b8060005b838110156200184557815162001829888262001796565b9750620018368362001b61565b92505060018101905062001812565b5085935050505092915050565b60006200185f8262001b4b565b6200186b818562001b8c565b9350836020820285016200187f8562001b30565b8060005b85811015620018c157848403895281516200189f8582620017b0565b9450620018ac8362001b6e565b925060208a0199505060018101905062001883565b50829750879550505050505092915050565b620018de8162001caa565b82525050565b6000620018f18262001b56565b620018fd818562001b9d565b93506200190f81856020860162001cbe565b6200191a8162001da0565b840191505092915050565b60006200193460228362001bae565b91507f4f6e6c792061646d696e2063616e20706572666f726d2074686973206163746960008301527f6f6e0000000000000000000000000000000000000000000000000000000000006020830152604082019050919050565b60006200199c60218362001bae565b91507f4e6f6e2070756f692072696d756f76657265206c27756c74696d6f2061646d6960008301527f6e000000000000000000000000000000000000000000000000000000000000006020830152604082019050919050565b62001a008162001ca0565b82525050565b600060208201905062001a1d6000830184620017d7565b92915050565b6000602082019050818103600083015262001a3f8184620017e8565b905092915050565b6000604082019050818103600083015262001a63818562001852565b9050818103602083015262001a798184620017e8565b90509392505050565b600060208201905062001a996000830184620018d3565b92915050565b6000602082019050818103600083015262001aba8162001925565b9050919050565b6000602082019050818103600083015262001adc816200198d565b9050919050565b600060608201905062001afa6000830186620019f5565b62001b096020830185620017d7565b62001b186040830184620017d7565b949350505050565b6000819050602082019050919050565b6000819050602082019050919050565b600081519050919050565b600081519050919050565b600081519050919050565b6000602082019050919050565b6000602082019050919050565b600082825260208201905092915050565b600082825260208201905092915050565b600082825260208201905092915050565b600082825260208201905092915050565b600062001bcc8262001ca0565b915062001bd98362001ca0565b9250827fffffffffffffffffffffffffffffffffffffffffffffffffffffffffffffffff0382111562001c115762001c1062001d42565b5b828201905092915050565b600062001c298262001ca0565b915062001c368362001ca0565b92508282101562001c4c5762001c4b62001d42565b5b828203905092915050565b600062001c648262001c80565b9050919050565b600081905062001c7b8262001db1565b919050565b600073ffffffffffffffffffffffffffffffffffffffff82169050919050565b6000819050919050565b600062001cb78262001c6b565b9050919050565b60005b8381101562001cde57808201518184015260208101905062001cc1565b8381111562001cee576000848401525b50505050565b600062001d018262001ca0565b91507fffffffffffffffffffffffffffffffffffffffffffffffffffffffffffffffff82141562001d375762001d3662001d42565b5b600182019050919050565b7f4e487b7100000000000000000000000000000000000000000000000000000000600052601160045260246000fd5b7f4e487b7100000000000000000000000000000000000000000000000000000000600052602160045260246000fd5b6000601f19601f8301169050919050565b6004811062001dc55762001dc462001d71565b5b50565b62001dd38162001c57565b811462001ddf57600080fd5b50565b6004811062001df057600080fd5b50565b62001dfe8162001ca0565b811462001e0a57600080fd5b5056fe60806040523480156200001157600080fd5b5060405162002023380380620020238339818101604052810190620000379190620009ab565b8260028190555081600360006101000a81548173ffffffffffffffffffffffffffffffffffffffff021916908373ffffffffffffffffffffffffffffffffffffffff16021790555080600460006101000a81548173ffffffffffffffffffffffffffffffffffffffff021916908373ffffffffffffffffffffffffffffffffffffffff160217905550620000d06200012a60201b60201c565b42600080815481106200010c577f4e487b7100000000000000000000000000000000000000000000000000000000600052603260045260246000fd5b90600052602060002090600602016002018190555050505062000ad8565b60006040518060e001604052806040518060400160405280600881526020017f526163636f6c74610000000000000000000000000000000000000000000000008152508152602001600073ffffffffffffffffffffffffffffffffffffffff16815260200160001515815260200160008152602001600081526020016040518060200160405280600081525081526020016002548152509080600181540180825580915050600190039060005260206000209060060201600090919091909150600082015181600001908051906020019062000208929190620008cd565b5060208201518160010160006101000a81548173ffffffffffffffffffffffffffffffffffffffff021916908373ffffffffffffffffffffffffffffffffffffffff16021790555060408201518160010160146101000a81548160ff021916908315150217905550606082015181600201556080820151816003015560a0820151816004019080519060200190620002a2929190620008cd565b5060c08201518160050155505060006040518060e001604052806040518060400160405280600981526020017f54726173706f72746f00000000000000000000000000000000000000000000008152508152602001600073ffffffffffffffffffffffffffffffffffffffff1681526020016000151581526020016000815260200160008152602001604051806020016040528060008152508152602001600254815250908060018154018082558091505060019003906000526020600020906006020160009091909190915060008201518160000190805190602001906200038d929190620008cd565b5060208201518160010160006101000a81548173ffffffffffffffffffffffffffffffffffffffff021916908373ffffffffffffffffffffffffffffffffffffffff16021790555060408201518160010160146101000a81548160ff021916908315150217905550606082015181600201556080820151816003015560a082015181600401908051906020019062000427929190620008cd565b5060c08201518160050155505060006040518060e001604052806040518060400160405280600b81526020017f4c61766f72617a696f6e650000000000000000000000000000000000000000008152508152602001600073ffffffffffffffffffffffffffffffffffffffff16815260200160001515815260200160008152602001600081526020016040518060200160405280600081525081526020016002548152509080600181540180825580915050600190039060005260206000209060060201600090919091909150600082015181600001908051906020019062000512929190620008cd565b5060208201518160010160006101000a81548173ffffffffffffffffffffffffffffffffffffffff021916908373ffffffffffffffffffffffffffffffffffffffff16021790555060408201518160010160146101000a81548160ff021916908315150217905550606082015181600201556080820151816003015560a0820151816004019080519060200190620005ac929190620008cd565b5060c08201518160050155505060006040518060e001604052806040518060400160405280600f81526020017f436f6e66657a696f6e616d656e746f00000000000000000000000000000000008152508152602001600073ffffffffffffffffffffffffffffffffffffffff16815260200160001515815260200160008152602001600081526020016040518060200160405280600081525081526020016002548152509080600181540180825580915050600190039060005260206000209060060201600090919091909150600082015181600001908051906020019062000697929190620008cd565b5060208201518160010160006101000a81548173ffffffffffffffffffffffffffffffffffffffff021916908373ffffffffffffffffffffffffffffffffffffffff16021790555060408201518160010160146101000a81548160ff021916908315150217905550606082015181600201556080820151816003015560a082015181600401908051906020019062000731929190620008cd565b5060c08201518160050155505060006040518060e001604052806040518060400160405280600d81526020017f44697374726962757a696f6e65000000000000000000000000000000000000008152508152602001600073ffffffffffffffffffffffffffffffffffffffff1681526020016000151581526020016000815260200160008152602001604051806020016040528060008152508152602001600254815250908060018154018082558091505060019003906000526020600020906006020160009091909190915060008201518160000190805190602001906200081c929190620008cd565b5060208201518160010160006101000a81548173ffffffffffffffffffffffffffffffffffffffff021916908373ffffffffffffffffffffffffffffffffffffffff16021790555060408201518160010160146101000a81548160ff021916908315150217905550606082015181600201556080820151816003015560a0820151816004019080519060200190620008b6929190620008cd565b5060c0820151816005015550506000600181905550565b828054620008db9062000a3f565b90600052602060002090601f016020900481019282620008ff57600085556200094b565b82601f106200091a57805160ff19168380011785556200094b565b828001600101855582156200094b579182015b828111156200094a5782518255916020019190600101906200092d565b5b5090506200095a91906200095e565b5090565b5b80821115620009795760008160009055506001016200095f565b5090565b6000815190506200098e8162000aa4565b92915050565b600081519050620009a58162000abe565b92915050565b600080600060608486031215620009c157600080fd5b6000620009d18682870162000994565b9350506020620009e4868287016200097d565b9250506040620009f7868287016200097d565b9150509250925092565b600062000a0e8262000a15565b9050919050565b600073ffffffffffffffffffffffffffffffffffffffff82169050919050565b6000819050919050565b6000600282049050600182168062000a5857607f821691505b6020821081141562000a6f5762000a6e62000a75565b5b50919050565b7f4e487b7100000000000000000000000000000000000000000000000000000000600052602260045260246000fd5b62000aaf8162000a01565b811462000abb57600080fd5b50565b62000ac98162000a35565b811462000ad557600080fd5b50565b61153b8062000ae86000396000f3fe608060405234801561001057600080fd5b50600436106100935760003560e01c80637874888a116100665780637874888a146101245780638b1659f51461015a5780638da5cb5b146101785780639597fe9f14610196578063c45a0155146101b457610093565b8063040c22c014610098578063334f45ec146100b457806344054931146100d25780637217e0b9146100ee575b600080fd5b6100b260048036038101906100ad9190610d83565b6101d2565b005b6100bc6105b0565b6040516100c9919061121a565b60405180910390f35b6100ec60048036038101906100e79190610ded565b6105b6565b005b61010860048036038101906101039190610dc4565b6107f4565b60405161011b97969594939291906110dd565b60405180910390f35b61013e60048036038101906101399190610dc4565b610983565b60405161015197969594939291906110dd565b60405180910390f35b610162610ba0565b60405161016f91906110c2565b60405180910390f35b610180610bb1565b60405161018d91906110a7565b60405180910390f35b61019e610bd7565b6040516101ab919061121a565b60405180910390f35b6101bc610bdd565b6040516101c991906110a7565b60405180910390f35b6000600460009054906101000a900473ffffffffffffffffffffffffffffffffffffffff16905060008173ffffffffffffffffffffffffffffffffffffffff166344276733336040518263ffffffff1660e01b815260040161023491906110a7565b60206040518083038186803b15801561024c57600080fd5b505afa158015610260573d6000803e3d6000fd5b505050506040513d601f19601f820116820180604052508101906102849190610d5a565b9050600260038111156102c0577f4e487b7100000000000000000000000000000000000000000000000000000000600052602160045260246000fd5b8160038111156102f9577f4e487b7100000000000000000000000000000000000000000000000000000000600052602160045260246000fd5b14610339576040517f08c379a00000000000000000000000000000000000000000000000000000000081526004016103309061117a565b60405180910390fd5b60008054905060015410610382576040517f08c379a0000000000000000000000000000000000000000000000000000000008152600401610379906111fa565b60405180910390fd5b600080600154815481106103bf577f4e487b7100000000000000000000000000000000000000000000000000000000600052603260045260246000fd5b906000526020600020906006020190508060010160009054906101000a900473ffffffffffffffffffffffffffffffffffffffff1673ffffffffffffffffffffffffffffffffffffffff163373ffffffffffffffffffffffffffffffffffffffff1614610461576040517f08c379a00000000000000000000000000000000000000000000000000000000081526004016104589061119a565b60405180910390fd5b60018160010160146101000a81548160ff02191690831515021790555042816003018190555061049084610c03565b6104cf576040517f08c379a00000000000000000000000000000000000000000000000000000000081526004016104c69061115a565b60405180910390fd5b838160040190805190602001906104e7929190610c10565b50600160008154809291906104fb906113e0565b91905055506000805490506001541015610562574260006001548154811061054c577f4e487b7100000000000000000000000000000000000000000000000000000000600052603260045260246000fd5b9060005260206000209060060201600201819055505b7f91f0b878c8898462835a832e915c3b68a4973ba2e22c1200709419e850857e1c6001805461059191906112f0565b85426040516105a293929190611235565b60405180910390a150505050565b60015481565b6000600460009054906101000a900473ffffffffffffffffffffffffffffffffffffffff16905060008173ffffffffffffffffffffffffffffffffffffffff166344276733336040518263ffffffff1660e01b815260040161061891906110a7565b60206040518083038186803b15801561063057600080fd5b505afa158015610644573d6000803e3d6000fd5b505050506040513d601f19601f820116820180604052508101906106689190610d5a565b9050600160038111156106a4577f4e487b7100000000000000000000000000000000000000000000000000000000600052602160045260246000fd5b8160038111156106dd577f4e487b7100000000000000000000000000000000000000000000000000000000600052602160045260246000fd5b1461071d576040517f08c379a0000000000000000000000000000000000000000000000000000000008152600401610714906111ba565b60405180910390fd5b6000805490508410610764576040517f08c379a000000000000000000000000000000000000000000000000000000000815260040161075b906111da565b60405180910390fd5b826000858154811061079f577f4e487b7100000000000000000000000000000000000000000000000000000000600052603260045260246000fd5b906000526020600020906006020160010160006101000a81548173ffffffffffffffffffffffffffffffffffffffff021916908373ffffffffffffffffffffffffffffffffffffffff16021790555050505050565b6000818154811061080457600080fd5b9060005260206000209060060201600091509050806000018054610827906113ae565b80601f0160208091040260200160405190810160405280929190818152602001828054610853906113ae565b80156108a05780601f10610875576101008083540402835291602001916108a0565b820191906000526020600020905b81548152906001019060200180831161088357829003601f168201915b5050505050908060010160009054906101000a900473ffffffffffffffffffffffffffffffffffffffff16908060010160149054906101000a900460ff16908060020154908060030154908060040180546108fa906113ae565b80601f0160208091040260200160405190810160405280929190818152602001828054610926906113ae565b80156109735780601f1061094857610100808354040283529160200191610973565b820191906000526020600020905b81548152906001019060200180831161095657829003601f168201915b5050505050908060050154905087565b606060008060008060606000808054905088106109d5576040517f08c379a00000000000000000000000000000000000000000000000000000000081526004016109cc906111da565b60405180910390fd5b6000808981548110610a10577f4e487b7100000000000000000000000000000000000000000000000000000000600052603260045260246000fd5b90600052602060002090600602019050806000018160010160009054906101000a900473ffffffffffffffffffffffffffffffffffffffff168260010160149054906101000a900460ff1683600201548460030154856004018660050154868054610a7a906113ae565b80601f0160208091040260200160405190810160405280929190818152602001828054610aa6906113ae565b8015610af35780601f10610ac857610100808354040283529160200191610af3565b820191906000526020600020905b815481529060010190602001808311610ad657829003601f168201915b50505050509650818054610b06906113ae565b80601f0160208091040260200160405190810160405280929190818152602001828054610b32906113ae565b8015610b7f5780601f10610b5457610100808354040283529160200191610b7f565b820191906000526020600020905b815481529060010190602001808311610b6257829003601f168201915b50505050509150975097509750975097509750975050919395979092949650565b600080805490506001541015905090565b600360009054906101000a900473ffffffffffffffffffffffffffffffffffffffff1681565b60025481565b600460009054906101000a900473ffffffffffffffffffffffffffffffffffffffff1681565b6000808251119050919050565b828054610c1c906113ae565b90600052602060002090601f016020900481019282610c3e5760008555610c85565b82601f10610c5757805160ff1916838001178555610c85565b82800160010185558215610c85579182015b82811115610c84578251825591602001919060010190610c69565b5b509050610c929190610c96565b5090565b5b80821115610caf576000816000905550600101610c97565b5090565b6000610cc6610cc1846112a4565b611273565b905082815260208101848484011115610cde57600080fd5b610ce984828561136c565b509392505050565b600081359050610d00816114c7565b92915050565b600081519050610d15816114de565b92915050565b600082601f830112610d2c57600080fd5b8135610d3c848260208601610cb3565b91505092915050565b600081359050610d54816114ee565b92915050565b600060208284031215610d6c57600080fd5b6000610d7a84828501610d06565b91505092915050565b600060208284031215610d9557600080fd5b600082013567ffffffffffffffff811115610daf57600080fd5b610dbb84828501610d1b565b91505092915050565b600060208284031215610dd657600080fd5b6000610de484828501610d45565b91505092915050565b60008060408385031215610e0057600080fd5b6000610e0e85828601610d45565b9250506020610e1f85828601610cf1565b9150509250929050565b610e3281611324565b82525050565b610e4181611336565b82525050565b6000610e52826112d4565b610e5c81856112df565b9350610e6c81856020860161137b565b610e75816114b6565b840191505092915050565b6000610e8d6028836112df565b91507f4c6f636174696f6e206973206e6f7420726561736f6e61626c6520666f72207460008301527f68697320737465700000000000000000000000000000000000000000000000006020830152604082019050919050565b6000610ef36027836112df565b91507f4f6e6c792073757065727669736f722063616e20706572666f726d207468697360008301527f20616374696f6e000000000000000000000000000000000000000000000000006020830152604082019050919050565b6000610f59602e836112df565b91507f4f6e6c792061737369676e65642073757065727669736f722063616e20636f6d60008301527f706c6574652074686520737465700000000000000000000000000000000000006020830152604082019050919050565b6000610fbf6022836112df565b91507f4f6e6c792061646d696e2063616e20706572666f726d2074686973206163746960008301527f6f6e0000000000000000000000000000000000000000000000000000000000006020830152604082019050919050565b60006110256017836112df565b91507f5374657020696e646578206f7574206f662072616e67650000000000000000006000830152602082019050919050565b6000611065601f836112df565b91507f416c6c2073746570732061726520616c726561647920636f6d706c65746564006000830152602082019050919050565b6110a181611362565b82525050565b60006020820190506110bc6000830184610e29565b92915050565b60006020820190506110d76000830184610e38565b92915050565b600060e08201905081810360008301526110f7818a610e47565b90506111066020830189610e29565b6111136040830188610e38565b6111206060830187611098565b61112d6080830186611098565b81810360a083015261113f8185610e47565b905061114e60c0830184611098565b98975050505050505050565b6000602082019050818103600083015261117381610e80565b9050919050565b6000602082019050818103600083015261119381610ee6565b9050919050565b600060208201905081810360008301526111b381610f4c565b9050919050565b600060208201905081810360008301526111d381610fb2565b9050919050565b600060208201905081810360008301526111f381611018565b9050919050565b6000602082019050818103600083015261121381611058565b9050919050565b600060208201905061122f6000830184611098565b92915050565b600060608201905061124a6000830186611098565b818103602083015261125c8185610e47565b905061126b6040830184611098565b949350505050565b6000604051905081810181811067ffffffffffffffff8211171561129a57611299611487565b5b8060405250919050565b600067ffffffffffffffff8211156112bf576112be611487565b5b601f19601f8301169050602081019050919050565b600081519050919050565b600082825260208201905092915050565b60006112fb82611362565b915061130683611362565b92508282101561131957611318611429565b5b828203905092915050565b600061132f82611342565b9050919050565b60008115159050919050565b600073ffffffffffffffffffffffffffffffffffffffff82169050919050565b6000819050919050565b82818337600083830152505050565b60005b8381101561139957808201518184015260208101905061137e565b838111156113a8576000848401525b50505050565b600060028204905060018216806113c657607f821691505b602082108114156113da576113d9611458565b5b50919050565b60006113eb82611362565b91507fffffffffffffffffffffffffffffffffffffffffffffffffffffffffffffffff82141561141e5761141d611429565b5b600182019050919050565b7f4e487b7100000000000000000000000000000000000000000000000000000000600052601160045260246000fd5b7f4e487b7100000000000000000000000000000000000000000000000000000000600052602260045260246000fd5b7f4e487b7100000000000000000000000000000000000000000000000000000000600052604160045260246000fd5b6000601f19601f8301169050919050565b6114d081611324565b81146114db57600080fd5b50565b600481106114eb57600080fd5b50565b6114f781611362565b811461150257600080fd5b5056fea2646970667358221220ab8c6e00e6d7aca70490aafedf4c1eb8682db9036bfc8b730346628f5df1682d64736f6c63430008000033a2646970667358221220788dee52a8224c2d1d55e6985cb133ac93d30d22f0918a78750e697b537a13cf64736f6c63430008000033",
  "immutableReferences": {},
  "source": "// SPDX-License-Identifier: MIT\r\npragma solidity ^0.8.0;\r\n\r\nimport \"./MilkProcess.sol\";\r\n\r\ncontract MilkProcessFactory {\r\n    enum Role { None, Admin, Supervisor, Operator }\r\n\r\n    address[] public processes;\r\n    mapping(address => Role) public roles;\r\n    address[] public users;\r\n    uint lotNumber = 0;\r\n\r\n    constructor() {\r\n        roles[msg.sender] = Role.Admin;\r\n        users.push(msg.sender);\r\n    }\r\n\r\n    function createNewProcess(uint quantity) external onlyAdmin returns (address[] memory) {\r\n        address[] memory newProcesses = new address[](quantity);\r\n        for (uint i = 0; i < quantity; i++) {\r\n            lotNumber = lotNumber + 1;\r\n            MilkProcess newProcess = new MilkProcess(lotNumber, msg.sender, address(this));\r\n            processes.push(address(newProcess));\r\n            newProcesses[i] = address(newProcess);\r\n        }\r\n        return newProcesses;\r\n    }\r\n\r\n    function getAllProcesses() external view returns (address[] memory) {\r\n        return processes;\r\n    }\r\n\r\n    function getAllRoles() external view returns (string[] memory, address[] memory) {\r\n        string[] memory userRoles = new string[](users.length);\r\n        for (uint i = 0; i < users.length; i++) {\r\n            if (roles[users[i]] == Role.Admin) {\r\n                userRoles[i] = \"1\";\r\n            } else if (roles[users[i]] == Role.Supervisor) {\r\n                userRoles[i] = \"2\";\r\n            } else if(roles[users[i]] == Role.Operator) {\r\n                userRoles[i] = \"3\";\r\n            } else {\r\n                userRoles[i] = \"0\";\r\n            }\r\n        }\r\n        return (userRoles, users);\r\n    }\r\n\r\n    function assignRole(address account, Role role) external onlyAdmin {\r\n        roles[account] = role;\r\n        if (!isAccountInList(account)) {\r\n            users.push(account);\r\n        }\r\n    }\r\n\r\n    function removeRole(address account) external onlyAdmin {\r\n        require(roles[account] != Role.Admin || countAdmins() > 1, \"Non puoi rimuovere l'ultimo admin\");\r\n        roles[account] = Role.None;\r\n        removeAccountFromList(account);\r\n    }\r\n\r\n    function countAdmins() internal view returns (uint) {\r\n        uint count = 0;\r\n        for (uint i = 0; i < users.length; i++) {\r\n            if (roles[users[i]] == Role.Admin) {\r\n                count++;\r\n        }\r\n    }\r\n    return count;\r\n    }\r\n\r\n    function isAccountInList(address account) internal view returns (bool) {\r\n        for (uint i = 0; i < users.length; i++) {\r\n            if (users[i] == account) {\r\n                return true;\r\n            }\r\n        }\r\n        return false;\r\n    }\r\n\r\n    function removeAccountFromList(address account) internal {\r\n        for (uint i = 0; i < users.length; i++) {\r\n            if (users[i] == account) {\r\n                users[i] = users[users.length - 1];\r\n                users.pop();\r\n                break;\r\n            }\r\n        }\r\n    }\r\n\r\n    function getRole(address account) external view returns (Role) {\r\n        return roles[account];\r\n    }\r\n\r\n    modifier onlyAdmin() {\r\n        require(roles[msg.sender] == Role.Admin, \"Only admin can perform this action\");\r\n        _;\r\n    }\r\n}\r\n",
  "sourcePath": "C:\\Users\\samue\\Desktop\\MilkChain\\backend\\contracts\\MilkProcessFactory.sol",
  "compiler": {
    "name": "solc",
    "version": "0.8.0+commit.c7dfd78e.Emscripten.clang"
  },
  "schemaVersion": "3.4.16",
  "updatedAt": "2024-07-06T15:11:33.973Z",
  "networkType": "ethereum",
  "devdoc": {
    "kind": "dev",
    "methods": {},
    "version": 1
  },
  "userdoc": {
    "kind": "user",
    "methods": {},
    "version": 1
  }
}