{
  "contractName": "MilkProcess",
  "abi": [
    {
      "inputs": [
        {
          "internalType": "uint256",
          "name": "_lotNumber",
          "type": "uint256"
        },
        {
          "internalType": "address",
          "name": "_factory",
          "type": "address"
        },
        {
          "internalType": "bool",
          "name": "_isIntero",
          "type": "bool"
        }
      ],
      "stateMutability": "nonpayable",
      "type": "constructor"
    },
    {
      "inputs": [],
      "name": "currentStepIndex",
      "outputs": [
        {
          "internalType": "uint256",
          "name": "",
          "type": "uint256"
        }
      ],
      "stateMutability": "view",
      "type": "function"
    },
    {
      "inputs": [],
      "name": "factory",
      "outputs": [
        {
          "internalType": "address",
          "name": "",
          "type": "address"
        }
      ],
      "stateMutability": "view",
      "type": "function"
    },
    {
      "inputs": [],
      "name": "isFailed",
      "outputs": [
        {
          "internalType": "bool",
          "name": "",
          "type": "bool"
        }
      ],
      "stateMutability": "view",
      "type": "function"
    },
    {
      "inputs": [],
      "name": "isIntero",
      "outputs": [
        {
          "internalType": "bool",
          "name": "",
          "type": "bool"
        }
      ],
      "stateMutability": "view",
      "type": "function"
    },
    {
      "inputs": [],
      "name": "lotNumber",
      "outputs": [
        {
          "internalType": "uint256",
          "name": "",
          "type": "uint256"
        }
      ],
      "stateMutability": "view",
      "type": "function"
    },
    {
      "inputs": [
        {
          "internalType": "uint256",
          "name": "",
          "type": "uint256"
        }
      ],
      "name": "steps",
      "outputs": [
        {
          "internalType": "string",
          "name": "name",
          "type": "string"
        },
        {
          "internalType": "address",
          "name": "supervisor",
          "type": "address"
        },
        {
          "internalType": "bool",
          "name": "completed",
          "type": "bool"
        },
        {
          "internalType": "uint256",
          "name": "startTime",
          "type": "uint256"
        },
        {
          "internalType": "uint256",
          "name": "endTime",
          "type": "uint256"
        },
        {
          "internalType": "string",
          "name": "location",
          "type": "string"
        },
        {
          "internalType": "uint256",
          "name": "lotNumber",
          "type": "uint256"
        },
        {
          "internalType": "bool",
          "name": "failed",
          "type": "bool"
        }
      ],
      "stateMutability": "view",
      "type": "function"
    },
    {
      "inputs": [
        {
          "internalType": "uint256",
          "name": "stepIndex",
          "type": "uint256"
        },
        {
          "internalType": "address",
          "name": "supervisor",
          "type": "address"
        }
      ],
      "name": "assignSupervisor",
      "outputs": [],
      "stateMutability": "nonpayable",
      "type": "function"
    },
    {
      "inputs": [
        {
          "internalType": "address[]",
          "name": "supervisors",
          "type": "address[]"
        }
      ],
      "name": "assignSupervisors",
      "outputs": [],
      "stateMutability": "nonpayable",
      "type": "function"
    },
    {
      "inputs": [
        {
          "internalType": "string",
          "name": "_location",
          "type": "string"
        }
      ],
      "name": "completeStep",
      "outputs": [],
      "stateMutability": "nonpayable",
      "type": "function"
    },
    {
      "inputs": [],
      "name": "failStep",
      "outputs": [],
      "stateMutability": "nonpayable",
      "type": "function"
    },
    {
      "inputs": [
        {
          "internalType": "bool",
          "name": "valid",
          "type": "bool"
        }
      ],
      "name": "isTemperatureOK",
      "outputs": [],
      "stateMutability": "nonpayable",
      "type": "function"
    },
    {
      "inputs": [],
      "name": "isProcessCompleted",
      "outputs": [
        {
          "internalType": "bool",
          "name": "",
          "type": "bool"
        }
      ],
      "stateMutability": "view",
      "type": "function"
    },
    {
      "inputs": [],
      "name": "getSteps",
      "outputs": [
        {
          "components": [
            {
              "internalType": "string",
              "name": "name",
              "type": "string"
            },
            {
              "internalType": "address",
              "name": "supervisor",
              "type": "address"
            },
            {
              "internalType": "bool",
              "name": "completed",
              "type": "bool"
            },
            {
              "internalType": "uint256",
              "name": "startTime",
              "type": "uint256"
            },
            {
              "internalType": "uint256",
              "name": "endTime",
              "type": "uint256"
            },
            {
              "internalType": "string",
              "name": "location",
              "type": "string"
            },
            {
              "internalType": "uint256",
              "name": "lotNumber",
              "type": "uint256"
            },
            {
              "internalType": "bool",
              "name": "failed",
              "type": "bool"
            }
          ],
          "internalType": "struct MilkProcess.Step[]",
          "name": "",
          "type": "tuple[]"
        }
      ],
      "stateMutability": "view",
      "type": "function"
    }
  ],
  "bytecode": "0x60806040523480156200001157600080fd5b5060405162003cbc38038062003cbc83398181016040528101906200003791906200183a565b8260028190555081600360006101000a81548173ffffffffffffffffffffffffffffffffffffffff021916908373ffffffffffffffffffffffffffffffffffffffff1602179055506000600360146101000a81548160ff02191690831515021790555080600360156101000a81548160ff021916908315150217905550620000c46200011e60201b60201c565b426000808154811062000100577f4e487b7100000000000000000000000000000000000000000000000000000000600052603260045260246000fd5b9060005260206000209060070201600201819055505050506200198d565b60006040518061010001604052806040518060400160405280600881526020017f526163636f6c74610000000000000000000000000000000000000000000000008152508152602001600073ffffffffffffffffffffffffffffffffffffffff1681526020016000151581526020016000815260200160008152602001604051806020016040528060008152508152602001600254815260200160001515815250908060018154018082558091505060019003906000526020600020906007020160009091909190915060008201518160000190805190602001906200020692919062001745565b5060208201518160010160006101000a81548173ffffffffffffffffffffffffffffffffffffffff021916908373ffffffffffffffffffffffffffffffffffffffff16021790555060408201518160010160146101000a81548160ff021916908315150217905550606082015181600201556080820151816003015560a0820151816004019080519060200190620002a092919062001745565b5060c0820151816005015560e08201518160060160006101000a81548160ff021916908315150217905550505060006040518061010001604052806040518060400160405280600981526020017f54726173706f72746f00000000000000000000000000000000000000000000008152508152602001600073ffffffffffffffffffffffffffffffffffffffff168152602001600015158152602001600081526020016000815260200160405180602001604052806000815250815260200160025481526020016000151581525090806001815401808255809150506001900390600052602060002090600702016000909190919091506000820151816000019080519060200190620003b592919062001745565b5060208201518160010160006101000a81548173ffffffffffffffffffffffffffffffffffffffff021916908373ffffffffffffffffffffffffffffffffffffffff16021790555060408201518160010160146101000a81548160ff021916908315150217905550606082015181600201556080820151816003015560a08201518160040190805190602001906200044f92919062001745565b5060c0820151816005015560e08201518160060160006101000a81548160ff021916908315150217905550505060006040518061010001604052806040518060400160405280600881526020017f50756c69747572610000000000000000000000000000000000000000000000008152508152602001600073ffffffffffffffffffffffffffffffffffffffff1681526020016000151581526020016000815260200160008152602001604051806020016040528060008152508152602001600254815260200160001515815250908060018154018082558091505060019003906000526020600020906007020160009091909190915060008201518160000190805190602001906200056492919062001745565b5060208201518160010160006101000a81548173ffffffffffffffffffffffffffffffffffffffff021916908373ffffffffffffffffffffffffffffffffffffffff16021790555060408201518160010160146101000a81548160ff021916908315150217905550606082015181600201556080820151816003015560a0820151816004019080519060200190620005fe92919062001745565b5060c0820151816005015560e08201518160060160006101000a81548160ff021916908315150217905550505060006040518061010001604052806040518060400160405280601181526020017f5374616e64617264697a7a617a696f6e650000000000000000000000000000008152508152602001600073ffffffffffffffffffffffffffffffffffffffff1681526020016000151581526020016000815260200160008152602001604051806020016040528060008152508152602001600254815260200160001515815250908060018154018082558091505060019003906000526020600020906007020160009091909190915060008201518160000190805190602001906200071392919062001745565b5060208201518160010160006101000a81548173ffffffffffffffffffffffffffffffffffffffff021916908373ffffffffffffffffffffffffffffffffffffffff16021790555060408201518160010160146101000a81548160ff021916908315150217905550606082015181600201556080820151816003015560a0820151816004019080519060200190620007ad92919062001745565b5060c0820151816005015560e08201518160060160006101000a81548160ff021916908315150217905550505060006040518061010001604052806040518060400160405280601081526020017f4f6d6f67656e65697a7a617a696f6e65000000000000000000000000000000008152508152602001600073ffffffffffffffffffffffffffffffffffffffff168152602001600015158152602001600081526020016000815260200160405180602001604052806000815250815260200160025481526020016000151581525090806001815401808255809150506001900390600052602060002090600702016000909190919091506000820151816000019080519060200190620008c292919062001745565b5060208201518160010160006101000a81548173ffffffffffffffffffffffffffffffffffffffff021916908373ffffffffffffffffffffffffffffffffffffffff16021790555060408201518160010160146101000a81548160ff021916908315150217905550606082015181600201556080820151816003015560a08201518160040190805190602001906200095c92919062001745565b5060c0820151816005015560e08201518160060160006101000a81548160ff0219169083151502179055505050600360159054906101000a900460ff161562000b545760006040518061010001604052806040518060400160405280600f81526020017f506173746f72697a7a617a696f6e6500000000000000000000000000000000008152508152602001600073ffffffffffffffffffffffffffffffffffffffff16815260200160001515815260200160008152602001600081526020016040518060200160405280600081525081526020016002548152602001600015158152509080600181540180825580915050600190039060005260206000209060070201600090919091909150600082015181600001908051906020019062000a8792919062001745565b5060208201518160010160006101000a81548173ffffffffffffffffffffffffffffffffffffffff021916908373ffffffffffffffffffffffffffffffffffffffff16021790555060408201518160010160146101000a81548160ff021916908315150217905550606082015181600201556080820151816003015560a082015181600401908051906020019062000b2192919062001745565b5060c0820151816005015560e08201518160060160006101000a81548160ff021916908315150217905550505062000d04565b60006040518061010001604052806040518060400160405280600f81526020017f53746572696c697a7a617a696f6e6500000000000000000000000000000000008152508152602001600073ffffffffffffffffffffffffffffffffffffffff16815260200160001515815260200160008152602001600081526020016040518060200160405280600081525081526020016002548152602001600015158152509080600181540180825580915050600190039060005260206000209060070201600090919091909150600082015181600001908051906020019062000c3c92919062001745565b5060208201518160010160006101000a81548173ffffffffffffffffffffffffffffffffffffffff021916908373ffffffffffffffffffffffffffffffffffffffff16021790555060408201518160010160146101000a81548160ff021916908315150217905550606082015181600201556080820151816003015560a082015181600401908051906020019062000cd692919062001745565b5060c0820151816005015560e08201518160060160006101000a81548160ff02191690831515021790555050505b60006040518061010001604052806040518060400160405280600f81526020017f436f6e66657a696f6e616d656e746f00000000000000000000000000000000008152508152602001600073ffffffffffffffffffffffffffffffffffffffff16815260200160001515815260200160008152602001600081526020016040518060200160405280600081525081526020016002548152602001600015158152509080600181540180825580915050600190039060005260206000209060070201600090919091909150600082015181600001908051906020019062000dec92919062001745565b5060208201518160010160006101000a81548173ffffffffffffffffffffffffffffffffffffffff021916908373ffffffffffffffffffffffffffffffffffffffff16021790555060408201518160010160146101000a81548160ff021916908315150217905550606082015181600201556080820151816003015560a082015181600401908051906020019062000e8692919062001745565b5060c0820151816005015560e08201518160060160006101000a81548160ff0219169083151502179055505050600360159054906101000a900460ff16156200122d5760006040518061010001604052806040518060400160405280601681526020017f53746f6363616767696f20726566726967657261746f000000000000000000008152508152602001600073ffffffffffffffffffffffffffffffffffffffff16815260200160001515815260200160008152602001600081526020016040518060200160405280600081525081526020016002548152602001600015158152509080600181540180825580915050600190039060005260206000209060070201600090919091909150600082015181600001908051906020019062000fb192919062001745565b5060208201518160010160006101000a81548173ffffffffffffffffffffffffffffffffffffffff021916908373ffffffffffffffffffffffffffffffffffffffff16021790555060408201518160010160146101000a81548160ff021916908315150217905550606082015181600201556080820151816003015560a08201518160040190805190602001906200104b92919062001745565b5060c0820151816005015560e08201518160060160006101000a81548160ff021916908315150217905550505060006040518061010001604052806040518060400160405280601981526020017f44697374726962757a696f6e65207265667269676572617461000000000000008152508152602001600073ffffffffffffffffffffffffffffffffffffffff1681526020016000151581526020016000815260200160008152602001604051806020016040528060008152508152602001600254815260200160001515815250908060018154018082558091505060019003906000526020600020906007020160009091909190915060008201518160000190805190602001906200116092919062001745565b5060208201518160010160006101000a81548173ffffffffffffffffffffffffffffffffffffffff021916908373ffffffffffffffffffffffffffffffffffffffff16021790555060408201518160010160146101000a81548160ff021916908315150217905550606082015181600201556080820151816003015560a0820151816004019080519060200190620011fa92919062001745565b5060c0820151816005015560e08201518160060160006101000a81548160ff02191690831515021790555050506200158c565b60006040518061010001604052806040518060400160405280600a81526020017f53746f6363616767696f000000000000000000000000000000000000000000008152508152602001600073ffffffffffffffffffffffffffffffffffffffff1681526020016000151581526020016000815260200160008152602001604051806020016040528060008152508152602001600254815260200160001515815250908060018154018082558091505060019003906000526020600020906007020160009091909190915060008201518160000190805190602001906200131592919062001745565b5060208201518160010160006101000a81548173ffffffffffffffffffffffffffffffffffffffff021916908373ffffffffffffffffffffffffffffffffffffffff16021790555060408201518160010160146101000a81548160ff021916908315150217905550606082015181600201556080820151816003015560a0820151816004019080519060200190620013af92919062001745565b5060c0820151816005015560e08201518160060160006101000a81548160ff021916908315150217905550505060006040518061010001604052806040518060400160405280600d81526020017f44697374726962757a696f6e65000000000000000000000000000000000000008152508152602001600073ffffffffffffffffffffffffffffffffffffffff168152602001600015158152602001600081526020016000815260200160405180602001604052806000815250815260200160025481526020016000151581525090806001815401808255809150506001900390600052602060002090600702016000909190919091506000820151816000019080519060200190620014c492919062001745565b5060208201518160010160006101000a81548173ffffffffffffffffffffffffffffffffffffffff021916908373ffffffffffffffffffffffffffffffffffffffff16021790555060408201518160010160146101000a81548160ff021916908315150217905550606082015181600201556080820151816003015560a08201518160040190805190602001906200155e92919062001745565b5060c0820151816005015560e08201518160060160006101000a81548160ff02191690831515021790555050505b60006040518061010001604052806040518060400160405280600881526020017f436f6e7365676e610000000000000000000000000000000000000000000000008152508152602001600073ffffffffffffffffffffffffffffffffffffffff1681526020016000151581526020016000815260200160008152602001604051806020016040528060008152508152602001600254815260200160001515815250908060018154018082558091505060019003906000526020600020906007020160009091909190915060008201518160000190805190602001906200167492919062001745565b5060208201518160010160006101000a81548173ffffffffffffffffffffffffffffffffffffffff021916908373ffffffffffffffffffffffffffffffffffffffff16021790555060408201518160010160146101000a81548160ff021916908315150217905550606082015181600201556080820151816003015560a08201518160040190805190602001906200170e92919062001745565b5060c0820151816005015560e08201518160060160006101000a81548160ff02191690831515021790555050506000600181905550565b8280546200175390620018da565b90600052602060002090601f016020900481019282620017775760008555620017c3565b82601f106200179257805160ff1916838001178555620017c3565b82800160010185558215620017c3579182015b82811115620017c2578251825591602001919060010190620017a5565b5b509050620017d29190620017d6565b5090565b5b80821115620017f1576000816000905550600101620017d7565b5090565b60008151905062001806816200193f565b92915050565b6000815190506200181d8162001959565b92915050565b600081519050620018348162001973565b92915050565b6000806000606084860312156200185057600080fd5b6000620018608682870162001823565b93505060206200187386828701620017f5565b925050604062001886868287016200180c565b9150509250925092565b60006200189d82620018b0565b9050919050565b60008115159050919050565b600073ffffffffffffffffffffffffffffffffffffffff82169050919050565b6000819050919050565b60006002820490506001821680620018f357607f821691505b602082108114156200190a576200190962001910565b5b50919050565b7f4e487b7100000000000000000000000000000000000000000000000000000000600052602260045260246000fd5b6200194a8162001890565b81146200195657600080fd5b50565b6200196481620018a4565b81146200197057600080fd5b50565b6200197e81620018d0565b81146200198a57600080fd5b50565b61231f806200199d6000396000f3fe608060405234801561001057600080fd5b50600436106100cf5760003560e01c80637217e0b91161008c5780639597fe9f116100665780639597fe9f146101e1578063c45a0155146101ff578063d7d7e9fa1461021d578063f416334014610239576100cf565b80637217e0b91461017057806375b63460146101a75780638b1659f5146101c3576100cf565b8063040c22c0146100d45780631846c134146100f0578063334f45ec1461010e578063440549311461012c5780635da65ada1461014857806366ea962414610166575b600080fd5b6100ee60048036038101906100e9919061182f565b610257565b005b6100f861063d565b6040516101059190611e1c565b60405180910390f35b610116610650565b6040516101239190611fe3565b60405180910390f35b61014660048036038101906101419190611899565b610656565b005b610150610894565b60405161015d9190611dfa565b60405180910390f35b61016e610ac2565b005b61018a60048036038101906101859190611870565b610df6565b60405161019e989796959493929190611e37565b60405180910390f35b6101c160048036038101906101bc91906117dd565b610f98565b005b6101cb611251565b6040516101d89190611e1c565b60405180910390f35b6101e9611262565b6040516101f69190611fe3565b60405180910390f35b610207611268565b6040516102149190611ddf565b60405180910390f35b6102376004803603810190610232919061179c565b61128e565b005b610241611587565b60405161024e9190611e1c565b60405180910390f35b6000600360009054906101000a900473ffffffffffffffffffffffffffffffffffffffff16905060008173ffffffffffffffffffffffffffffffffffffffff166344276733336040518263ffffffff1660e01b81526004016102b99190611ddf565b60206040518083038186803b1580156102d157600080fd5b505afa1580156102e5573d6000803e3d6000fd5b505050506040513d601f19601f820116820180604052508101906103099190611806565b905060026003811115610345577f4e487b7100000000000000000000000000000000000000000000000000000000600052602160045260246000fd5b81600381111561037e577f4e487b7100000000000000000000000000000000000000000000000000000000600052602160045260246000fd5b146103be576040517f08c379a00000000000000000000000000000000000000000000000000000000081526004016103b590611ee3565b60405180910390fd5b600360149054906101000a900460ff161561040e576040517f08c379a000000000000000000000000000000000000000000000000000000000815260040161040590611fa3565b60405180910390fd5b60008054905060015410610457576040517f08c379a000000000000000000000000000000000000000000000000000000000815260040161044e90611fc3565b60405180910390fd5b60008060015481548110610494577f4e487b7100000000000000000000000000000000000000000000000000000000600052603260045260246000fd5b906000526020600020906007020190508060010160009054906101000a900473ffffffffffffffffffffffffffffffffffffffff1673ffffffffffffffffffffffffffffffffffffffff163373ffffffffffffffffffffffffffffffffffffffff1614610536576040517f08c379a000000000000000000000000000000000000000000000000000000000815260040161052d90611f43565b60405180910390fd5b60018160010160146101000a81548160ff0219169083151502179055504281600301819055506105658461159a565b6105a4576040517f08c379a000000000000000000000000000000000000000000000000000000000815260040161059b90611ec3565b60405180910390fd5b838160040190805190602001906105bc9291906115a7565b50600160008154809291906105d0906121ad565b919050555060008054905060015410156106375742600060015481548110610621577f4e487b7100000000000000000000000000000000000000000000000000000000600052603260045260246000fd5b9060005260206000209060070201600201819055505b50505050565b600360159054906101000a900460ff1681565b60015481565b6000600360009054906101000a900473ffffffffffffffffffffffffffffffffffffffff16905060008173ffffffffffffffffffffffffffffffffffffffff166344276733336040518263ffffffff1660e01b81526004016106b89190611ddf565b60206040518083038186803b1580156106d057600080fd5b505afa1580156106e4573d6000803e3d6000fd5b505050506040513d601f19601f820116820180604052508101906107089190611806565b905060016003811115610744577f4e487b7100000000000000000000000000000000000000000000000000000000600052602160045260246000fd5b81600381111561077d577f4e487b7100000000000000000000000000000000000000000000000000000000600052602160045260246000fd5b146107bd576040517f08c379a00000000000000000000000000000000000000000000000000000000081526004016107b490611f63565b60405180910390fd5b6000805490508410610804576040517f08c379a00000000000000000000000000000000000000000000000000000000081526004016107fb90611f83565b60405180910390fd5b826000858154811061083f577f4e487b7100000000000000000000000000000000000000000000000000000000600052603260045260246000fd5b906000526020600020906007020160010160006101000a81548173ffffffffffffffffffffffffffffffffffffffff021916908373ffffffffffffffffffffffffffffffffffffffff16021790555050505050565b60606000805480602002602001604051908101604052809291908181526020016000905b82821015610ab95783829060005260206000209060070201604051806101000160405290816000820180546108ec9061217b565b80601f01602080910402602001604051908101604052809291908181526020018280546109189061217b565b80156109655780601f1061093a57610100808354040283529160200191610965565b820191906000526020600020905b81548152906001019060200180831161094857829003601f168201915b505050505081526020016001820160009054906101000a900473ffffffffffffffffffffffffffffffffffffffff1673ffffffffffffffffffffffffffffffffffffffff1673ffffffffffffffffffffffffffffffffffffffff1681526020016001820160149054906101000a900460ff161515151581526020016002820154815260200160038201548152602001600482018054610a039061217b565b80601f0160208091040260200160405190810160405280929190818152602001828054610a2f9061217b565b8015610a7c5780601f10610a5157610100808354040283529160200191610a7c565b820191906000526020600020905b815481529060010190602001808311610a5f57829003601f168201915b50505050508152602001600582015481526020016006820160009054906101000a900460ff161515151581525050815260200190600101906108b8565b50505050905090565b6000600360009054906101000a900473ffffffffffffffffffffffffffffffffffffffff16905060008173ffffffffffffffffffffffffffffffffffffffff166344276733336040518263ffffffff1660e01b8152600401610b249190611ddf565b60206040518083038186803b158015610b3c57600080fd5b505afa158015610b50573d6000803e3d6000fd5b505050506040513d601f19601f82011682018060405250810190610b749190611806565b905060026003811115610bb0577f4e487b7100000000000000000000000000000000000000000000000000000000600052602160045260246000fd5b816003811115610be9577f4e487b7100000000000000000000000000000000000000000000000000000000600052602160045260246000fd5b14610c29576040517f08c379a0000000000000000000000000000000000000000000000000000000008152600401610c2090611ee3565b60405180910390fd5b600360149054906101000a900460ff1615610c79576040517f08c379a0000000000000000000000000000000000000000000000000000000008152600401610c7090611fa3565b60405180910390fd5b60008054905060015410610cc2576040517f08c379a0000000000000000000000000000000000000000000000000000000008152600401610cb990611fc3565b60405180910390fd5b60008060015481548110610cff577f4e487b7100000000000000000000000000000000000000000000000000000000600052603260045260246000fd5b906000526020600020906007020190508060010160009054906101000a900473ffffffffffffffffffffffffffffffffffffffff1673ffffffffffffffffffffffffffffffffffffffff163373ffffffffffffffffffffffffffffffffffffffff1614610da1576040517f08c379a0000000000000000000000000000000000000000000000000000000008152600401610d9890611f03565b60405180910390fd5b60018160060160006101000a81548160ff0219169083151502179055506001600360146101000a81548160ff02191690831515021790555060016000815480929190610dec906121ad565b9190505550505050565b60008181548110610e0657600080fd5b9060005260206000209060070201600091509050806000018054610e299061217b565b80601f0160208091040260200160405190810160405280929190818152602001828054610e559061217b565b8015610ea25780601f10610e7757610100808354040283529160200191610ea2565b820191906000526020600020905b815481529060010190602001808311610e8557829003601f168201915b5050505050908060010160009054906101000a900473ffffffffffffffffffffffffffffffffffffffff16908060010160149054906101000a900460ff1690806002015490806003015490806004018054610efc9061217b565b80601f0160208091040260200160405190810160405280929190818152602001828054610f289061217b565b8015610f755780601f10610f4a57610100808354040283529160200191610f75565b820191906000526020600020905b815481529060010190602001808311610f5857829003601f168201915b5050505050908060050154908060060160009054906101000a900460ff16905088565b600360149054906101000a900460ff1615610fe8576040517f08c379a0000000000000000000000000000000000000000000000000000000008152600401610fdf90611fa3565b60405180910390fd5b60008060015481548110611025577f4e487b7100000000000000000000000000000000000000000000000000000000600052603260045260246000fd5b90600052602060002090600702019050811561112e5760018160010160146101000a81548160ff0219169083151502179055504281600301819055506040518060400160405280601981526020017f50726f63656475726520757020746f207374616e6461726473000000000000008152508160040190805190602001906110ae9291906115a7565b50600160008154809291906110c2906121ad565b919050555060008054905060015410156111295742600060015481548110611113577f4e487b7100000000000000000000000000000000000000000000000000000000600052603260045260246000fd5b9060005260206000209060070201600201819055505b61124d565b60018160060160006101000a81548160ff0219169083151502179055506001600360146101000a81548160ff0219169083151502179055504281600301819055506001805414156111cc576040518060400160405280601581526020017f526f6164207472616e73706f7274206661696c656400000000000000000000008152508160040190805190602001906111c69291906115a7565b5061124c565b600760015414806111df57506008600154145b80156111f75750600360159054906101000a900460ff165b1561124b576040518060400160405280600e81526020017f53746f72616765206661696c65640000000000000000000000000000000000008152508160040190805190602001906112499291906115a7565b505b5b5b5050565b600080805490506001541015905090565b60025481565b600360009054906101000a900473ffffffffffffffffffffffffffffffffffffffff1681565b6000600360009054906101000a900473ffffffffffffffffffffffffffffffffffffffff16905060008173ffffffffffffffffffffffffffffffffffffffff166344276733336040518263ffffffff1660e01b81526004016112f09190611ddf565b60206040518083038186803b15801561130857600080fd5b505afa15801561131c573d6000803e3d6000fd5b505050506040513d601f19601f820116820180604052508101906113409190611806565b90506001600381111561137c577f4e487b7100000000000000000000000000000000000000000000000000000000600052602160045260246000fd5b8160038111156113b5577f4e487b7100000000000000000000000000000000000000000000000000000000600052602160045260246000fd5b146113f5576040517f08c379a00000000000000000000000000000000000000000000000000000000081526004016113ec90611f63565b60405180910390fd5b600080805490501161143c576040517f08c379a000000000000000000000000000000000000000000000000000000000815260040161143390611f23565b60405180910390fd5b6000805b600080549050811015611580576001811415801561145f575060058114155b801561148f5750600360159054906101000a900460ff16801561148d5750600781148061148c5750600881145b5b155b1561156d578482815181106114cd577f4e487b7100000000000000000000000000000000000000000000000000000000600052603260045260246000fd5b60200260200101516000828154811061150f577f4e487b7100000000000000000000000000000000000000000000000000000000600052603260045260246000fd5b906000526020600020906007020160010160006101000a81548173ffffffffffffffffffffffffffffffffffffffff021916908373ffffffffffffffffffffffffffffffffffffffff1602179055508180611569906121ad565b9250505b8080611578906121ad565b915050611440565b5050505050565b600360149054906101000a900460ff1681565b6000808251119050919050565b8280546115b39061217b565b90600052602060002090601f0160209004810192826115d5576000855561161c565b82601f106115ee57805160ff191683800117855561161c565b8280016001018555821561161c579182015b8281111561161b578251825591602001919060010190611600565b5b509050611629919061162d565b5090565b5b8082111561164657600081600090555060010161162e565b5090565b600061165d6116588461202f565b611ffe565b9050808382526020820190508285602086028201111561167c57600080fd5b60005b858110156116ac578161169288826116f4565b84526020840193506020830192505060018101905061167f565b5050509392505050565b60006116c96116c48461205b565b611ffe565b9050828152602081018484840111156116e157600080fd5b6116ec848285612139565b509392505050565b60008135905061170381612294565b92915050565b600082601f83011261171a57600080fd5b813561172a84826020860161164a565b91505092915050565b600081359050611742816122ab565b92915050565b600081519050611757816122c2565b92915050565b600082601f83011261176e57600080fd5b813561177e8482602086016116b6565b91505092915050565b600081359050611796816122d2565b92915050565b6000602082840312156117ae57600080fd5b600082013567ffffffffffffffff8111156117c857600080fd5b6117d484828501611709565b91505092915050565b6000602082840312156117ef57600080fd5b60006117fd84828501611733565b91505092915050565b60006020828403121561181857600080fd5b600061182684828501611748565b91505092915050565b60006020828403121561184157600080fd5b600082013567ffffffffffffffff81111561185b57600080fd5b6118678482850161175d565b91505092915050565b60006020828403121561188257600080fd5b600061189084828501611787565b91505092915050565b600080604083850312156118ac57600080fd5b60006118ba85828601611787565b92505060206118cb858286016116f4565b9150509250929050565b60006118e18383611d0a565b905092915050565b6118f2816120f1565b82525050565b611901816120f1565b82525050565b60006119128261209b565b61191c81856120be565b93508360208202850161192e8561208b565b8060005b8581101561196a578484038952815161194b85826118d5565b9450611956836120b1565b925060208a01995050600181019050611932565b50829750879550505050505092915050565b61198581612103565b82525050565b61199481612103565b82525050565b60006119a5826120a6565b6119af81856120cf565b93506119bf818560208601612148565b6119c881612283565b840191505092915050565b60006119de826120a6565b6119e881856120e0565b93506119f8818560208601612148565b611a0181612283565b840191505092915050565b6000611a196028836120e0565b91507f4c6f636174696f6e206973206e6f7420726561736f6e61626c6520666f72207460008301527f68697320737465700000000000000000000000000000000000000000000000006020830152604082019050919050565b6000611a7f6027836120e0565b91507f4f6e6c792073757065727669736f722063616e20706572666f726d207468697360008301527f20616374696f6e000000000000000000000000000000000000000000000000006020830152604082019050919050565b6000611ae5602a836120e0565b91507f4f6e6c792061737369676e65642073757065727669736f722063616e2066616960008301527f6c207468652073746570000000000000000000000000000000000000000000006020830152604082019050919050565b6000611b4b601b836120e0565b91507f53746570732061727261792063616e6e6f7420626520656d70747900000000006000830152602082019050919050565b6000611b8b602e836120e0565b91507f4f6e6c792061737369676e65642073757065727669736f722063616e20636f6d60008301527f706c6574652074686520737465700000000000000000000000000000000000006020830152604082019050919050565b6000611bf16022836120e0565b91507f4f6e6c792061646d696e2063616e20706572666f726d2074686973206163746960008301527f6f6e0000000000000000000000000000000000000000000000000000000000006020830152604082019050919050565b6000611c576017836120e0565b91507f5374657020696e646578206f7574206f662072616e67650000000000000000006000830152602082019050919050565b6000611c97601a836120e0565b91507f50726f636573732068617320616c7265616479206661696c65640000000000006000830152602082019050919050565b6000611cd7601f836120e0565b91507f416c6c2073746570732061726520616c726561647920636f6d706c65746564006000830152602082019050919050565b6000610100830160008301518482036000860152611d28828261199a565b9150506020830151611d3d60208601826118e9565b506040830151611d50604086018261197c565b506060830151611d636060860182611dc1565b506080830151611d766080860182611dc1565b5060a083015184820360a0860152611d8e828261199a565b91505060c0830151611da360c0860182611dc1565b5060e0830151611db660e086018261197c565b508091505092915050565b611dca8161212f565b82525050565b611dd98161212f565b82525050565b6000602082019050611df460008301846118f8565b92915050565b60006020820190508181036000830152611e148184611907565b905092915050565b6000602082019050611e31600083018461198b565b92915050565b6000610100820190508181036000830152611e52818b6119d3565b9050611e61602083018a6118f8565b611e6e604083018961198b565b611e7b6060830188611dd0565b611e886080830187611dd0565b81810360a0830152611e9a81866119d3565b9050611ea960c0830185611dd0565b611eb660e083018461198b565b9998505050505050505050565b60006020820190508181036000830152611edc81611a0c565b9050919050565b60006020820190508181036000830152611efc81611a72565b9050919050565b60006020820190508181036000830152611f1c81611ad8565b9050919050565b60006020820190508181036000830152611f3c81611b3e565b9050919050565b60006020820190508181036000830152611f5c81611b7e565b9050919050565b60006020820190508181036000830152611f7c81611be4565b9050919050565b60006020820190508181036000830152611f9c81611c4a565b9050919050565b60006020820190508181036000830152611fbc81611c8a565b9050919050565b60006020820190508181036000830152611fdc81611cca565b9050919050565b6000602082019050611ff86000830184611dd0565b92915050565b6000604051905081810181811067ffffffffffffffff8211171561202557612024612254565b5b8060405250919050565b600067ffffffffffffffff82111561204a57612049612254565b5b602082029050602081019050919050565b600067ffffffffffffffff82111561207657612075612254565b5b601f19601f8301169050602081019050919050565b6000819050602082019050919050565b600081519050919050565b600081519050919050565b6000602082019050919050565b600082825260208201905092915050565b600082825260208201905092915050565b600082825260208201905092915050565b60006120fc8261210f565b9050919050565b60008115159050919050565b600073ffffffffffffffffffffffffffffffffffffffff82169050919050565b6000819050919050565b82818337600083830152505050565b60005b8381101561216657808201518184015260208101905061214b565b83811115612175576000848401525b50505050565b6000600282049050600182168061219357607f821691505b602082108114156121a7576121a6612225565b5b50919050565b60006121b88261212f565b91507fffffffffffffffffffffffffffffffffffffffffffffffffffffffffffffffff8214156121eb576121ea6121f6565b5b600182019050919050565b7f4e487b7100000000000000000000000000000000000000000000000000000000600052601160045260246000fd5b7f4e487b7100000000000000000000000000000000000000000000000000000000600052602260045260246000fd5b7f4e487b7100000000000000000000000000000000000000000000000000000000600052604160045260246000fd5b6000601f19601f8301169050919050565b61229d816120f1565b81146122a857600080fd5b50565b6122b481612103565b81146122bf57600080fd5b50565b600481106122cf57600080fd5b50565b6122db8161212f565b81146122e657600080fd5b5056fea26469706673582212207da19c37f5753143c6efe5e1512f4d9e9037622dd67bd38c76ad50ab4dd8cb0c64736f6c63430008000033",
  "immutableReferences": {},
  "source": "// SPDX-License-Identifier: MIT\r\npragma solidity ^0.8.0;\r\n\r\nimport \"./MilkProcessFactory.sol\";\r\n\r\ncontract MilkProcess {\r\n\r\n    struct Step {\r\n        string name;\r\n        address supervisor;\r\n        bool completed;\r\n        uint startTime;\r\n        uint endTime;\r\n        string location;\r\n        uint lotNumber;\r\n        bool failed;\r\n    }\r\n\r\n    Step[] public steps;\r\n    uint public currentStepIndex;\r\n    uint public lotNumber;\r\n    address public factory;\r\n    bool public isFailed;\r\n    bool public isIntero;\r\n\r\n    constructor(uint _lotNumber, address _factory, bool _isIntero) {\r\n        lotNumber = _lotNumber;\r\n        factory = _factory;\r\n        isFailed = false;\r\n        isIntero = _isIntero;\r\n        initializeSteps();\r\n        steps[0].startTime = block.timestamp;\r\n    }\r\n\r\n    function initializeSteps() internal {\r\n        steps.push(Step(\"Raccolta\", address(0), false, 0, 0, \"\", lotNumber, false));\r\n        steps.push(Step(\"Trasporto\", address(0), false, 0, 0, \"\", lotNumber, false)); // Supervisore automatico\r\n        steps.push(Step(\"Pulitura\", address(0), false, 0, 0, \"\", lotNumber, false)); \r\n        steps.push(Step(\"Standardizzazione\", address(0), false, 0, 0, \"\", lotNumber, false));\r\n        steps.push(Step(\"Omogeneizzazione\", address(0), false, 0, 0, \"\", lotNumber, false));\r\n        if(isIntero){\r\n            steps.push(Step(\"Pastorizzazione\", address(0), false, 0, 0, \"\", lotNumber, false)); // Supervisore automatico\r\n        }else{\r\n            steps.push(Step(\"Sterilizzazione\", address(0), false, 0, 0, \"\", lotNumber, false)); // Supervisore automatico\r\n        }\r\n        steps.push(Step(\"Confezionamento\", address(0), false, 0, 0, \"\", lotNumber, false));\r\n        if(isIntero){\r\n            steps.push(Step(\"Stoccaggio refrigerato\", address(0), false, 0, 0, \"\", lotNumber, false)); // Supervisore automatico\r\n            steps.push(Step(\"Distribuzione refrigerata\", address(0), false, 0, 0, \"\", lotNumber, false));\r\n        }else{\r\n            steps.push(Step(\"Stoccaggio\", address(0), false, 0, 0, \"\", lotNumber, false)); // Supervisore automatico\r\n            steps.push(Step(\"Distribuzione\", address(0), false, 0, 0, \"\", lotNumber, false));\r\n        }\r\n        steps.push(Step(\"Consegna\", address(0), false, 0, 0, \"\", lotNumber, false));\r\n        currentStepIndex = 0;\r\n    }\r\n\r\n    function assignSupervisor(uint stepIndex, address supervisor) external onlyAdmin {\r\n        require(stepIndex < steps.length, \"Step index out of range\");\r\n        steps[stepIndex].supervisor = supervisor;\r\n    }\r\n\r\n    function assignSupervisors(address[] memory supervisors) external onlyAdmin {\r\n        require(steps.length > 0, \"Steps array cannot be empty\");\r\n        uint j = 0;\r\n        for (uint i = 0; i < steps.length; i++) {\r\n            if (i != 1 && i != 5 && !(isIntero && (i == 7 || i == 8))) {\r\n                steps[i].supervisor = supervisors[j];\r\n                j++;\r\n            }\r\n        }\r\n    }\r\n\r\n    function completeStep(string memory _location) external onlySupervisor {\r\n        require(!isFailed, \"Process has already failed\");\r\n        require(currentStepIndex < steps.length, \"All steps are already completed\");\r\n        Step storage step = steps[currentStepIndex];\r\n        require(msg.sender == step.supervisor, \"Only assigned supervisor can complete the step\");\r\n        step.completed = true;\r\n        step.endTime = block.timestamp;\r\n\r\n        require(isReasonableLocation(_location), \"Location is not reasonable for this step\");\r\n\r\n        step.location = _location;\r\n\r\n        currentStepIndex++;\r\n\r\n        if (currentStepIndex < steps.length) {\r\n            steps[currentStepIndex].startTime = block.timestamp;\r\n        }\r\n    }\r\n\r\n    function failStep() external onlySupervisor {\r\n        require(!isFailed, \"Process has already failed\");\r\n        require(currentStepIndex < steps.length, \"All steps are already completed\");\r\n        Step storage step = steps[currentStepIndex];\r\n        require(msg.sender == step.supervisor, \"Only assigned supervisor can fail the step\");\r\n        step.failed = true;\r\n        isFailed = true;\r\n        currentStepIndex++;\r\n    }\r\n\r\n    function isTemperatureOK(bool valid) external {\r\n        require(!isFailed, \"Process has already failed\");\r\n\r\n        Step storage step = steps[currentStepIndex];\r\n\r\n        if (valid){\r\n            step.completed = true;\r\n            step.endTime = block.timestamp;\r\n            step.location = \"Procedure up to standards\";\r\n            currentStepIndex++;\r\n            if (currentStepIndex < steps.length) {\r\n                steps[currentStepIndex].startTime = block.timestamp;\r\n            }\r\n        }else{\r\n            step.failed = true;\r\n            isFailed = true;\r\n            step.endTime = block.timestamp;\r\n            if (currentStepIndex == 1){\r\n              step.location = \"Road transport failed\";\r\n            } else if ((currentStepIndex == 7 || currentStepIndex == 8) && isIntero){\r\n                step.location = \"Storage failed\";\r\n            }\r\n        }\r\n    }\r\n\r\n    function isReasonableLocation(string memory _location) internal pure returns (bool) {\r\n        return bytes(_location).length > 0;\r\n    }\r\n\r\n    function isProcessCompleted() external view returns (bool) {\r\n        return currentStepIndex >= steps.length;\r\n    }\r\n\r\n    function getSteps() external view returns (Step[] memory) {\r\n        return steps;\r\n    }\r\n\r\n    modifier onlyAdmin() {\r\n        MilkProcessFactory factoryContract = MilkProcessFactory(factory);\r\n        MilkProcessFactory.Role role = factoryContract.getRole(msg.sender);\r\n        require(role == MilkProcessFactory.Role.Admin, \"Only admin can perform this action\");\r\n        _;\r\n    }\r\n\r\n    modifier onlySupervisor() {\r\n        MilkProcessFactory factoryContract = MilkProcessFactory(factory);\r\n        MilkProcessFactory.Role role = factoryContract.getRole(msg.sender);\r\n        require(role == MilkProcessFactory.Role.Supervisor, \"Only supervisor can perform this action\");\r\n        _;\r\n    }\r\n}",
  "sourcePath": "C:\\Users\\gbeks\\OneDrive\\Desktop\\MilkChain\\backend\\contracts\\MilkProcess.sol",
  "compiler": {
    "name": "solc",
    "version": "0.8.0+commit.c7dfd78e.Emscripten.clang"
  },
  "schemaVersion": "3.4.16",
  "updatedAt": "2024-07-13T16:41:17.849Z",
  "devdoc": {
    "kind": "dev",
    "methods": {},
    "version": 1
  },
  "userdoc": {
    "kind": "user",
    "methods": {},
    "version": 1
  }
}