{
  "contractName": "MilkProcessFactory",
  "abi": [
    {
      "inputs": [],
      "stateMutability": "nonpayable",
      "type": "constructor"
    },
    {
      "inputs": [
        {
          "internalType": "uint256",
          "name": "",
          "type": "uint256"
        }
      ],
      "name": "processes",
      "outputs": [
        {
          "internalType": "address",
          "name": "",
          "type": "address"
        }
      ],
      "stateMutability": "view",
      "type": "function",
      "constant": true
    },
    {
      "inputs": [
        {
          "internalType": "address",
          "name": "",
          "type": "address"
        }
      ],
      "name": "roles",
      "outputs": [
        {
          "internalType": "enum MilkProcessFactory.Role",
          "name": "",
          "type": "uint8"
        }
      ],
      "stateMutability": "view",
      "type": "function",
      "constant": true
    },
    {
      "inputs": [
        {
          "internalType": "uint256",
          "name": "",
          "type": "uint256"
        }
      ],
      "name": "users",
      "outputs": [
        {
          "internalType": "address",
          "name": "",
          "type": "address"
        }
      ],
      "stateMutability": "view",
      "type": "function",
      "constant": true
    },
    {
      "inputs": [
        {
          "internalType": "uint256",
          "name": "quantity",
          "type": "uint256"
        },
        {
          "internalType": "bool",
          "name": "isIntero",
          "type": "bool"
        }
      ],
      "name": "createNewProcess",
      "outputs": [
        {
          "internalType": "address[]",
          "name": "",
          "type": "address[]"
        }
      ],
      "stateMutability": "nonpayable",
      "type": "function"
    },
    {
      "inputs": [],
      "name": "getAllProcesses",
      "outputs": [
        {
          "internalType": "address[]",
          "name": "",
          "type": "address[]"
        }
      ],
      "stateMutability": "view",
      "type": "function",
      "constant": true
    },
    {
      "inputs": [],
      "name": "getAllRoles",
      "outputs": [
        {
          "internalType": "string[]",
          "name": "",
          "type": "string[]"
        },
        {
          "internalType": "address[]",
          "name": "",
          "type": "address[]"
        }
      ],
      "stateMutability": "view",
      "type": "function",
      "constant": true
    },
    {
      "inputs": [
        {
          "internalType": "address",
          "name": "account",
          "type": "address"
        }
      ],
      "name": "getRole",
      "outputs": [
        {
          "internalType": "enum MilkProcessFactory.Role",
          "name": "",
          "type": "uint8"
        }
      ],
      "stateMutability": "view",
      "type": "function",
      "constant": true
    },
    {
      "inputs": [
        {
          "internalType": "address",
          "name": "account",
          "type": "address"
        },
        {
          "internalType": "enum MilkProcessFactory.Role",
          "name": "role",
          "type": "uint8"
        }
      ],
      "name": "assignRole",
      "outputs": [],
      "stateMutability": "nonpayable",
      "type": "function"
    },
    {
      "inputs": [
        {
          "internalType": "address",
          "name": "account",
          "type": "address"
        }
      ],
      "name": "removeRole",
      "outputs": [],
      "stateMutability": "nonpayable",
      "type": "function"
    }
  ],
  "bytecode": "0x6080604052600060035534801561001557600080fd5b5060018060003373ffffffffffffffffffffffffffffffffffffffff1673ffffffffffffffffffffffffffffffffffffffff16815260200190815260200160002060006101000a81548160ff0219169083600381111561009e577f4e487b7100000000000000000000000000000000000000000000000000000000600052602160045260246000fd5b02179055506002339080600181540180825580915050600190039060005260206000200160009091909190916101000a81548173ffffffffffffffffffffffffffffffffffffffff021916908373ffffffffffffffffffffffffffffffffffffffff160217905550615781806101156000396000f3fe60806040523480156200001157600080fd5b5060043610620000a05760003560e01c8063630a195b116200006f578063630a195b1462000167578063993746421462000187578063f2bcac3d14620001bd578063f52a8fa014620001e0578063fa91cc73146200020257620000a0565b8063365b98b214620000a55780634427673314620000db5780634762155d1462000111578063579e51c71462000131575b600080fd5b620000c36004803603810190620000bd91906200156c565b62000238565b604051620000d2919062001834565b60405180910390f35b620000f96004803603810190620000f39190620014ff565b62000278565b604051620001089190620018b0565b60405180910390f35b6200012f6004803603810190620001299190620014ff565b620002ce565b005b6200014f60048036038101906200014991906200156c565b62000589565b6040516200015e919062001834565b60405180910390f35b6200018560048036038101906200017f91906200152b565b620005c9565b005b620001a560048036038101906200019f9190620014ff565b620007d3565b604051620001b49190620018b0565b60405180910390f35b620001c7620007f3565b604051620001d792919062001875565b60405180910390f35b620001ea62000a35565b604051620001f9919062001851565b60405180910390f35b6200022060048036038101906200021a919062001598565b62000ac5565b6040516200022f919062001851565b60405180910390f35b600281815481106200024957600080fd5b906000526020600020016000915054906101000a900473ffffffffffffffffffffffffffffffffffffffff1681565b6000600160008373ffffffffffffffffffffffffffffffffffffffff1673ffffffffffffffffffffffffffffffffffffffff16815260200190815260200160002060009054906101000a900460ff169050919050565b6001600381111562000309577f4e487b7100000000000000000000000000000000000000000000000000000000600052602160045260246000fd5b600160003373ffffffffffffffffffffffffffffffffffffffff1673ffffffffffffffffffffffffffffffffffffffff16815260200190815260200160002060009054906101000a900460ff1660038111156200038f577f4e487b7100000000000000000000000000000000000000000000000000000000600052602160045260246000fd5b14620003d2576040517f08c379a0000000000000000000000000000000000000000000000000000000008152600401620003c990620018ef565b60405180910390fd5b600160038111156200040d577f4e487b7100000000000000000000000000000000000000000000000000000000600052602160045260246000fd5b600160008373ffffffffffffffffffffffffffffffffffffffff1673ffffffffffffffffffffffffffffffffffffffff16815260200190815260200160002060009054906101000a900460ff16600381111562000493577f4e487b7100000000000000000000000000000000000000000000000000000000600052602160045260246000fd5b141580620004aa57506001620004a862000da3565b115b620004ec576040517f08c379a0000000000000000000000000000000000000000000000000000000008152600401620004e390620018cd565b60405180910390fd5b6000600160008373ffffffffffffffffffffffffffffffffffffffff1673ffffffffffffffffffffffffffffffffffffffff16815260200190815260200160002060006101000a81548160ff0219169083600381111562000576577f4e487b7100000000000000000000000000000000000000000000000000000000600052602160045260246000fd5b0217905550620005868162000f17565b50565b600081815481106200059a57600080fd5b906000526020600020016000915054906101000a900473ffffffffffffffffffffffffffffffffffffffff1681565b6001600381111562000604577f4e487b7100000000000000000000000000000000000000000000000000000000600052602160045260246000fd5b600160003373ffffffffffffffffffffffffffffffffffffffff1673ffffffffffffffffffffffffffffffffffffffff16815260200190815260200160002060009054906101000a900460ff1660038111156200068a577f4e487b7100000000000000000000000000000000000000000000000000000000600052602160045260246000fd5b14620006cd576040517f08c379a0000000000000000000000000000000000000000000000000000000008152600401620006c490620018ef565b60405180910390fd5b80600160008473ffffffffffffffffffffffffffffffffffffffff1673ffffffffffffffffffffffffffffffffffffffff16815260200190815260200160002060006101000a81548160ff0219169083600381111562000756577f4e487b7100000000000000000000000000000000000000000000000000000000600052602160045260246000fd5b021790555062000766826200114c565b620007cf576002829080600181540180825580915050600190039060005260206000200160009091909190916101000a81548173ffffffffffffffffffffffffffffffffffffffff021916908373ffffffffffffffffffffffffffffffffffffffff1602179055505b5050565b60016020528060005260406000206000915054906101000a900460ff1681565b606080600060028054905067ffffffffffffffff8111156200083e577f4e487b7100000000000000000000000000000000000000000000000000000000600052604160045260246000fd5b6040519080825280602002602001820160405280156200087357816020015b60608152602001906001900390816200085d5790505b50905060005b6002805490508110156200099e57620009436001600060028481548110620008ca577f4e487b7100000000000000000000000000000000000000000000000000000000600052603260045260246000fd5b9060005260206000200160009054906101000a900473ffffffffffffffffffffffffffffffffffffffff1673ffffffffffffffffffffffffffffffffffffffff1673ffffffffffffffffffffffffffffffffffffffff16815260200190815260200160002060009054906101000a900460ff1662001228565b8282815181106200097d577f4e487b7100000000000000000000000000000000000000000000000000000000600052603260045260246000fd5b60200260200101819052508080620009959062001ad1565b91505062000879565b508060028080548060200260200160405190810160405280929190818152602001828054801562000a2557602002820191906000526020600020905b8160009054906101000a900473ffffffffffffffffffffffffffffffffffffffff1673ffffffffffffffffffffffffffffffffffffffff1681526020019060010190808311620009da575b5050505050905092509250509091565b6060600080548060200260200160405190810160405280929190818152602001828054801562000abb57602002820191906000526020600020905b8160009054906101000a900473ffffffffffffffffffffffffffffffffffffffff1673ffffffffffffffffffffffffffffffffffffffff168152602001906001019080831162000a70575b5050505050905090565b60606001600381111562000b02577f4e487b7100000000000000000000000000000000000000000000000000000000600052602160045260246000fd5b600160003373ffffffffffffffffffffffffffffffffffffffff1673ffffffffffffffffffffffffffffffffffffffff16815260200190815260200160002060009054906101000a900460ff16600381111562000b88577f4e487b7100000000000000000000000000000000000000000000000000000000600052602160045260246000fd5b1462000bcb576040517f08c379a000000000000000000000000000000000000000000000000000000000815260040162000bc290620018ef565b60405180910390fd5b60008367ffffffffffffffff81111562000c0e577f4e487b7100000000000000000000000000000000000000000000000000000000600052604160045260246000fd5b60405190808252806020026020018201604052801562000c3d5781602001602082028036833780820191505090505b50905060005b8481101562000d98576003600081548092919062000c619062001ad1565b91905055506000600354308660405162000c7b9062001495565b62000c899392919062001911565b604051809103906000f08015801562000ca6573d6000803e3d6000fd5b5090506000819080600181540180825580915050600190039060005260206000200160009091909190916101000a81548173ffffffffffffffffffffffffffffffffffffffff021916908373ffffffffffffffffffffffffffffffffffffffff1602179055508083838151811062000d47577f4e487b7100000000000000000000000000000000000000000000000000000000600052603260045260246000fd5b602002602001019073ffffffffffffffffffffffffffffffffffffffff16908173ffffffffffffffffffffffffffffffffffffffff168152505050808062000d8f9062001ad1565b91505062000c43565b508091505092915050565b6000806000905060005b60028054905081101562000f0f576001600381111562000df6577f4e487b7100000000000000000000000000000000000000000000000000000000600052602160045260246000fd5b600160006002848154811062000e35577f4e487b7100000000000000000000000000000000000000000000000000000000600052603260045260246000fd5b9060005260206000200160009054906101000a900473ffffffffffffffffffffffffffffffffffffffff1673ffffffffffffffffffffffffffffffffffffffff1673ffffffffffffffffffffffffffffffffffffffff16815260200190815260200160002060009054906101000a900460ff16600381111562000ee1577f4e487b7100000000000000000000000000000000000000000000000000000000600052602160045260246000fd5b141562000ef957818062000ef59062001ad1565b9250505b808062000f069062001ad1565b91505062000dad565b508091505090565b60005b60028054905081101562001148578173ffffffffffffffffffffffffffffffffffffffff166002828154811062000f7a577f4e487b7100000000000000000000000000000000000000000000000000000000600052603260045260246000fd5b9060005260206000200160009054906101000a900473ffffffffffffffffffffffffffffffffffffffff1673ffffffffffffffffffffffffffffffffffffffff16141562001132576002600160028054905062000fd89190620019ed565b8154811062001010577f4e487b7100000000000000000000000000000000000000000000000000000000600052603260045260246000fd5b9060005260206000200160009054906101000a900473ffffffffffffffffffffffffffffffffffffffff166002828154811062001076577f4e487b7100000000000000000000000000000000000000000000000000000000600052603260045260246000fd5b9060005260206000200160006101000a81548173ffffffffffffffffffffffffffffffffffffffff021916908373ffffffffffffffffffffffffffffffffffffffff1602179055506002805480620010f7577f4e487b7100000000000000000000000000000000000000000000000000000000600052603160045260246000fd5b6001900381819060005260206000200160006101000a81549073ffffffffffffffffffffffffffffffffffffffff0219169055905562001148565b80806200113f9062001ad1565b91505062000f1a565b5050565b600080600090505b6002805490508110156200121d578273ffffffffffffffffffffffffffffffffffffffff1660028281548110620011b4577f4e487b7100000000000000000000000000000000000000000000000000000000600052603260045260246000fd5b9060005260206000200160009054906101000a900473ffffffffffffffffffffffffffffffffffffffff1673ffffffffffffffffffffffffffffffffffffffff1614156200120757600191505062001223565b8080620012149062001ad1565b91505062001154565b50600090505b919050565b60606001600381111562001265577f4e487b7100000000000000000000000000000000000000000000000000000000600052602160045260246000fd5b8260038111156200129f577f4e487b7100000000000000000000000000000000000000000000000000000000600052602160045260246000fd5b1415620012e4576040518060400160405280600181526020017f3100000000000000000000000000000000000000000000000000000000000000815250905062001490565b600260038111156200131f577f4e487b7100000000000000000000000000000000000000000000000000000000600052602160045260246000fd5b82600381111562001359577f4e487b7100000000000000000000000000000000000000000000000000000000600052602160045260246000fd5b14156200139e576040518060400160405280600181526020017f3200000000000000000000000000000000000000000000000000000000000000815250905062001490565b600380811115620013d8577f4e487b7100000000000000000000000000000000000000000000000000000000600052602160045260246000fd5b82600381111562001412577f4e487b7100000000000000000000000000000000000000000000000000000000600052602160045260246000fd5b141562001457576040518060400160405280600181526020017f3300000000000000000000000000000000000000000000000000000000000000815250905062001490565b6040518060400160405280600181526020017f300000000000000000000000000000000000000000000000000000000000000081525090505b919050565b613b478062001c0583390190565b600081359050620014b48162001ba5565b92915050565b600081359050620014cb8162001bbf565b92915050565b600081359050620014e28162001bd9565b92915050565b600081359050620014f98162001bea565b92915050565b6000602082840312156200151257600080fd5b60006200152284828501620014a3565b91505092915050565b600080604083850312156200153f57600080fd5b60006200154f85828601620014a3565b92505060206200156285828601620014d1565b9150509250929050565b6000602082840312156200157f57600080fd5b60006200158f84828501620014e8565b91505092915050565b60008060408385031215620015ac57600080fd5b6000620015bc85828601620014e8565b9250506020620015cf85828601620014ba565b9150509250929050565b6000620015e7838362001609565b60208301905092915050565b600062001601838362001738565b905092915050565b620016148162001a28565b82525050565b620016258162001a28565b82525050565b600062001638826200196e565b620016448185620019a9565b935062001651836200194e565b8060005b83811015620016885781516200166c8882620015d9565b975062001679836200198f565b92505060018101905062001655565b5085935050505092915050565b6000620016a28262001979565b620016ae8185620019ba565b935083602082028501620016c2856200195e565b8060005b85811015620017045784840389528151620016e28582620015f3565b9450620016ef836200199c565b925060208a01995050600181019050620016c6565b50829750879550505050505092915050565b620017218162001a3c565b82525050565b620017328162001a87565b82525050565b6000620017458262001984565b620017518185620019cb565b93506200176381856020860162001a9b565b6200176e8162001b7d565b840191505092915050565b600062001788601c83620019dc565b91507f43616e6e6f742072656d6f766520746865206c6173742061646d696e000000006000830152602082019050919050565b6000620017ca602283620019dc565b91507f4f6e6c792061646d696e2063616e20706572666f726d2074686973206163746960008301527f6f6e0000000000000000000000000000000000000000000000000000000000006020830152604082019050919050565b6200182e8162001a7d565b82525050565b60006020820190506200184b60008301846200161a565b92915050565b600060208201905081810360008301526200186d81846200162b565b905092915050565b6000604082019050818103600083015262001891818562001695565b90508181036020830152620018a781846200162b565b90509392505050565b6000602082019050620018c7600083018462001727565b92915050565b60006020820190508181036000830152620018e88162001779565b9050919050565b600060208201905081810360008301526200190a81620017bb565b9050919050565b600060608201905062001928600083018662001823565b6200193760208301856200161a565b62001946604083018462001716565b949350505050565b6000819050602082019050919050565b6000819050602082019050919050565b600081519050919050565b600081519050919050565b600081519050919050565b6000602082019050919050565b6000602082019050919050565b600082825260208201905092915050565b600082825260208201905092915050565b600082825260208201905092915050565b600082825260208201905092915050565b6000620019fa8262001a7d565b915062001a078362001a7d565b92508282101562001a1d5762001a1c62001b1f565b5b828203905092915050565b600062001a358262001a5d565b9050919050565b60008115159050919050565b600081905062001a588262001b8e565b919050565b600073ffffffffffffffffffffffffffffffffffffffff82169050919050565b6000819050919050565b600062001a948262001a48565b9050919050565b60005b8381101562001abb57808201518184015260208101905062001a9e565b8381111562001acb576000848401525b50505050565b600062001ade8262001a7d565b91507fffffffffffffffffffffffffffffffffffffffffffffffffffffffffffffffff82141562001b145762001b1362001b1f565b5b600182019050919050565b7f4e487b7100000000000000000000000000000000000000000000000000000000600052601160045260246000fd5b7f4e487b7100000000000000000000000000000000000000000000000000000000600052602160045260246000fd5b6000601f19601f8301169050919050565b6004811062001ba25762001ba162001b4e565b5b50565b62001bb08162001a28565b811462001bbc57600080fd5b50565b62001bca8162001a3c565b811462001bd657600080fd5b50565b6004811062001be757600080fd5b50565b62001bf58162001a7d565b811462001c0157600080fd5b5056fe60806040523480156200001157600080fd5b5060405162003b4738038062003b4783398181016040528101906200003791906200181d565b8260028190555081600360006101000a81548173ffffffffffffffffffffffffffffffffffffffff021916908373ffffffffffffffffffffffffffffffffffffffff1602179055506000600360146101000a81548160ff02191690831515021790555080600360156101000a81548160ff021916908315150217905550620000c46200011e60201b60201c565b426000808154811062000100577f4e487b7100000000000000000000000000000000000000000000000000000000600052603260045260246000fd5b90600052602060002090600702016002018190555050505062001970565b60006040518061010001604052806040518060400160405280600881526020017f526163636f6c74610000000000000000000000000000000000000000000000008152508152602001600073ffffffffffffffffffffffffffffffffffffffff1681526020016000151581526020016000815260200160008152602001604051806020016040528060008152508152602001600254815260200160001515815250908060018154018082558091505060019003906000526020600020906007020160009091909190915060008201518160000190805190602001906200020692919062001728565b5060208201518160010160006101000a81548173ffffffffffffffffffffffffffffffffffffffff021916908373ffffffffffffffffffffffffffffffffffffffff16021790555060408201518160010160146101000a81548160ff021916908315150217905550606082015181600201556080820151816003015560a0820151816004019080519060200190620002a092919062001728565b5060c0820151816005015560e08201518160060160006101000a81548160ff021916908315150217905550505060006040518061010001604052806040518060400160405280600981526020017f54726173706f72746f00000000000000000000000000000000000000000000008152508152602001600073ffffffffffffffffffffffffffffffffffffffff168152602001600015158152602001600081526020016000815260200160405180602001604052806000815250815260200160025481526020016000151581525090806001815401808255809150506001900390600052602060002090600702016000909190919091506000820151816000019080519060200190620003b592919062001728565b5060208201518160010160006101000a81548173ffffffffffffffffffffffffffffffffffffffff021916908373ffffffffffffffffffffffffffffffffffffffff16021790555060408201518160010160146101000a81548160ff021916908315150217905550606082015181600201556080820151816003015560a08201518160040190805190602001906200044f92919062001728565b5060c0820151816005015560e08201518160060160006101000a81548160ff021916908315150217905550505060006040518061010001604052806040518060400160405280600881526020017f50756c69747572610000000000000000000000000000000000000000000000008152508152602001600073ffffffffffffffffffffffffffffffffffffffff1681526020016000151581526020016000815260200160008152602001604051806020016040528060008152508152602001600254815260200160001515815250908060018154018082558091505060019003906000526020600020906007020160009091909190915060008201518160000190805190602001906200056492919062001728565b5060208201518160010160006101000a81548173ffffffffffffffffffffffffffffffffffffffff021916908373ffffffffffffffffffffffffffffffffffffffff16021790555060408201518160010160146101000a81548160ff021916908315150217905550606082015181600201556080820151816003015560a0820151816004019080519060200190620005fe92919062001728565b5060c0820151816005015560e08201518160060160006101000a81548160ff021916908315150217905550505060006040518061010001604052806040518060400160405280601181526020017f5374616e64617264697a7a617a696f6e650000000000000000000000000000008152508152602001600073ffffffffffffffffffffffffffffffffffffffff1681526020016000151581526020016000815260200160008152602001604051806020016040528060008152508152602001600254815260200160001515815250908060018154018082558091505060019003906000526020600020906007020160009091909190915060008201518160000190805190602001906200071392919062001728565b5060208201518160010160006101000a81548173ffffffffffffffffffffffffffffffffffffffff021916908373ffffffffffffffffffffffffffffffffffffffff16021790555060408201518160010160146101000a81548160ff021916908315150217905550606082015181600201556080820151816003015560a0820151816004019080519060200190620007ad92919062001728565b5060c0820151816005015560e08201518160060160006101000a81548160ff021916908315150217905550505060006040518061010001604052806040518060400160405280601081526020017f4f6d6f67656e65697a7a617a696f6e65000000000000000000000000000000008152508152602001600073ffffffffffffffffffffffffffffffffffffffff168152602001600015158152602001600081526020016000815260200160405180602001604052806000815250815260200160025481526020016000151581525090806001815401808255809150506001900390600052602060002090600702016000909190919091506000820151816000019080519060200190620008c292919062001728565b5060208201518160010160006101000a81548173ffffffffffffffffffffffffffffffffffffffff021916908373ffffffffffffffffffffffffffffffffffffffff16021790555060408201518160010160146101000a81548160ff021916908315150217905550606082015181600201556080820151816003015560a08201518160040190805190602001906200095c92919062001728565b5060c0820151816005015560e08201518160060160006101000a81548160ff0219169083151502179055505050600360159054906101000a900460ff161562000eb25760006040518061010001604052806040518060400160405280600f81526020017f506173746f72697a7a617a696f6e6500000000000000000000000000000000008152508152602001600073ffffffffffffffffffffffffffffffffffffffff16815260200160001515815260200160008152602001600081526020016040518060200160405280600081525081526020016002548152602001600015158152509080600181540180825580915050600190039060005260206000209060070201600090919091909150600082015181600001908051906020019062000a8792919062001728565b5060208201518160010160006101000a81548173ffffffffffffffffffffffffffffffffffffffff021916908373ffffffffffffffffffffffffffffffffffffffff16021790555060408201518160010160146101000a81548160ff021916908315150217905550606082015181600201556080820151816003015560a082015181600401908051906020019062000b2192919062001728565b5060c0820151816005015560e08201518160060160006101000a81548160ff021916908315150217905550505060006040518061010001604052806040518060400160405280601681526020017f53746f6363616767696f20726566726967657261746f000000000000000000008152508152602001600073ffffffffffffffffffffffffffffffffffffffff16815260200160001515815260200160008152602001600081526020016040518060200160405280600081525081526020016002548152602001600015158152509080600181540180825580915050600190039060005260206000209060070201600090919091909150600082015181600001908051906020019062000c3692919062001728565b5060208201518160010160006101000a81548173ffffffffffffffffffffffffffffffffffffffff021916908373ffffffffffffffffffffffffffffffffffffffff16021790555060408201518160010160146101000a81548160ff021916908315150217905550606082015181600201556080820151816003015560a082015181600401908051906020019062000cd092919062001728565b5060c0820151816005015560e08201518160060160006101000a81548160ff021916908315150217905550505060006040518061010001604052806040518060400160405280601981526020017f44697374726962757a696f6e65207265667269676572617461000000000000008152508152602001600073ffffffffffffffffffffffffffffffffffffffff16815260200160001515815260200160008152602001600081526020016040518060200160405280600081525081526020016002548152602001600015158152509080600181540180825580915050600190039060005260206000209060070201600090919091909150600082015181600001908051906020019062000de592919062001728565b5060208201518160010160006101000a81548173ffffffffffffffffffffffffffffffffffffffff021916908373ffffffffffffffffffffffffffffffffffffffff16021790555060408201518160010160146101000a81548160ff021916908315150217905550606082015181600201556080820151816003015560a082015181600401908051906020019062000e7f92919062001728565b5060c0820151816005015560e08201518160060160006101000a81548160ff0219169083151502179055505050620013c0565b60006040518061010001604052806040518060400160405280600f81526020017f53746572696c697a7a617a696f6e6500000000000000000000000000000000008152508152602001600073ffffffffffffffffffffffffffffffffffffffff16815260200160001515815260200160008152602001600081526020016040518060200160405280600081525081526020016002548152602001600015158152509080600181540180825580915050600190039060005260206000209060070201600090919091909150600082015181600001908051906020019062000f9a92919062001728565b5060208201518160010160006101000a81548173ffffffffffffffffffffffffffffffffffffffff021916908373ffffffffffffffffffffffffffffffffffffffff16021790555060408201518160010160146101000a81548160ff021916908315150217905550606082015181600201556080820151816003015560a08201518160040190805190602001906200103492919062001728565b5060c0820151816005015560e08201518160060160006101000a81548160ff021916908315150217905550505060006040518061010001604052806040518060400160405280600a81526020017f53746f6363616767696f000000000000000000000000000000000000000000008152508152602001600073ffffffffffffffffffffffffffffffffffffffff1681526020016000151581526020016000815260200160008152602001604051806020016040528060008152508152602001600254815260200160001515815250908060018154018082558091505060019003906000526020600020906007020160009091909190915060008201518160000190805190602001906200114992919062001728565b5060208201518160010160006101000a81548173ffffffffffffffffffffffffffffffffffffffff021916908373ffffffffffffffffffffffffffffffffffffffff16021790555060408201518160010160146101000a81548160ff021916908315150217905550606082015181600201556080820151816003015560a0820151816004019080519060200190620011e392919062001728565b5060c0820151816005015560e08201518160060160006101000a81548160ff021916908315150217905550505060006040518061010001604052806040518060400160405280600d81526020017f44697374726962757a696f6e65000000000000000000000000000000000000008152508152602001600073ffffffffffffffffffffffffffffffffffffffff168152602001600015158152602001600081526020016000815260200160405180602001604052806000815250815260200160025481526020016000151581525090806001815401808255809150506001900390600052602060002090600702016000909190919091506000820151816000019080519060200190620012f892919062001728565b5060208201518160010160006101000a81548173ffffffffffffffffffffffffffffffffffffffff021916908373ffffffffffffffffffffffffffffffffffffffff16021790555060408201518160010160146101000a81548160ff021916908315150217905550606082015181600201556080820151816003015560a08201518160040190805190602001906200139292919062001728565b5060c0820151816005015560e08201518160060160006101000a81548160ff02191690831515021790555050505b60006040518061010001604052806040518060400160405280600f81526020017f436f6e66657a696f6e616d656e746f00000000000000000000000000000000008152508152602001600073ffffffffffffffffffffffffffffffffffffffff168152602001600015158152602001600081526020016000815260200160405180602001604052806000815250815260200160025481526020016000151581525090806001815401808255809150506001900390600052602060002090600702016000909190919091506000820151816000019080519060200190620014a892919062001728565b5060208201518160010160006101000a81548173ffffffffffffffffffffffffffffffffffffffff021916908373ffffffffffffffffffffffffffffffffffffffff16021790555060408201518160010160146101000a81548160ff021916908315150217905550606082015181600201556080820151816003015560a08201518160040190805190602001906200154292919062001728565b5060c0820151816005015560e08201518160060160006101000a81548160ff021916908315150217905550505060006040518061010001604052806040518060400160405280600881526020017f436f6e7365676e610000000000000000000000000000000000000000000000008152508152602001600073ffffffffffffffffffffffffffffffffffffffff1681526020016000151581526020016000815260200160008152602001604051806020016040528060008152508152602001600254815260200160001515815250908060018154018082558091505060019003906000526020600020906007020160009091909190915060008201518160000190805190602001906200165792919062001728565b5060208201518160010160006101000a81548173ffffffffffffffffffffffffffffffffffffffff021916908373ffffffffffffffffffffffffffffffffffffffff16021790555060408201518160010160146101000a81548160ff021916908315150217905550606082015181600201556080820151816003015560a0820151816004019080519060200190620016f192919062001728565b5060c0820151816005015560e08201518160060160006101000a81548160ff02191690831515021790555050506000600181905550565b8280546200173690620018bd565b90600052602060002090601f0160209004810192826200175a5760008555620017a6565b82601f106200177557805160ff1916838001178555620017a6565b82800160010185558215620017a6579182015b82811115620017a557825182559160200191906001019062001788565b5b509050620017b59190620017b9565b5090565b5b80821115620017d4576000816000905550600101620017ba565b5090565b600081519050620017e98162001922565b92915050565b60008151905062001800816200193c565b92915050565b600081519050620018178162001956565b92915050565b6000806000606084860312156200183357600080fd5b6000620018438682870162001806565b93505060206200185686828701620017d8565b92505060406200186986828701620017ef565b9150509250925092565b6000620018808262001893565b9050919050565b60008115159050919050565b600073ffffffffffffffffffffffffffffffffffffffff82169050919050565b6000819050919050565b60006002820490506001821680620018d657607f821691505b60208210811415620018ed57620018ec620018f3565b5b50919050565b7f4e487b7100000000000000000000000000000000000000000000000000000000600052602260045260246000fd5b6200192d8162001873565b81146200193957600080fd5b50565b620019478162001887565b81146200195357600080fd5b50565b6200196181620018b3565b81146200196d57600080fd5b50565b6121c780620019806000396000f3fe608060405234801561001057600080fd5b50600436106100cf5760003560e01c80637217e0b91161008c5780639597fe9f116100665780639597fe9f146101e1578063c45a0155146101ff578063d7d7e9fa1461021d578063f416334014610239576100cf565b80637217e0b91461017057806375b63460146101a75780638b1659f5146101c3576100cf565b8063040c22c0146100d45780631846c134146100f0578063334f45ec1461010e5780635da65ada1461012c5780635f206b321461014a57806366ea962414610166575b600080fd5b6100ee60048036038101906100e991906117c5565b610257565b005b6100f86105f5565b6040516101059190611cd0565b60405180910390f35b610116610608565b6040516101239190611e57565b60405180910390f35b61013461060e565b6040516101419190611cae565b60405180910390f35b610164600480360381019061015f9190611748565b61083c565b005b61016e610a5b565b005b61018a60048036038101906101859190611806565b610d8f565b60405161019e989796959493929190611ceb565b60405180910390f35b6101c160048036038101906101bc919061171f565b610f31565b005b6101cb6111a0565b6040516101d89190611cd0565b60405180910390f35b6101e96111b1565b6040516101f69190611e57565b60405180910390f35b6102076111b7565b6040516102149190611c93565b60405180910390f35b610237600480360381019061023291906116de565b6111dd565b005b6102416114d6565b60405161024e9190611cd0565b60405180910390f35b6000600360009054906101000a900473ffffffffffffffffffffffffffffffffffffffff16905060008173ffffffffffffffffffffffffffffffffffffffff166344276733336040518263ffffffff1660e01b81526004016102b99190611c93565b60206040518083038186803b1580156102d157600080fd5b505afa1580156102e5573d6000803e3d6000fd5b505050506040513d601f19601f82011682018060405250810190610309919061179c565b905060026003811115610345577f4e487b7100000000000000000000000000000000000000000000000000000000600052602160045260246000fd5b81600381111561037e577f4e487b7100000000000000000000000000000000000000000000000000000000600052602160045260246000fd5b146103be576040517f08c379a00000000000000000000000000000000000000000000000000000000081526004016103b590611d77565b60405180910390fd5b600360149054906101000a900460ff161561040e576040517f08c379a000000000000000000000000000000000000000000000000000000000815260040161040590611e17565b60405180910390fd5b60008054905060015410610457576040517f08c379a000000000000000000000000000000000000000000000000000000000815260040161044e90611e37565b60405180910390fd5b60008060015481548110610494577f4e487b7100000000000000000000000000000000000000000000000000000000600052603260045260246000fd5b906000526020600020906007020190508060010160009054906101000a900473ffffffffffffffffffffffffffffffffffffffff1673ffffffffffffffffffffffffffffffffffffffff163373ffffffffffffffffffffffffffffffffffffffff1614610536576040517f08c379a000000000000000000000000000000000000000000000000000000000815260040161052d90611dd7565b60405180910390fd5b60018160010160146101000a81548160ff021916908315150217905550428160030181905550838160040190805190602001906105749291906114e9565b506001600081548092919061058890612021565b919050555060008054905060015410156105ef57426000600154815481106105d9577f4e487b7100000000000000000000000000000000000000000000000000000000600052603260045260246000fd5b9060005260206000209060070201600201819055505b50505050565b600360159054906101000a900460ff1681565b60015481565b60606000805480602002602001604051908101604052809291908181526020016000905b8282101561083357838290600052602060002090600702016040518061010001604052908160008201805461066690611fef565b80601f016020809104026020016040519081016040528092919081815260200182805461069290611fef565b80156106df5780601f106106b4576101008083540402835291602001916106df565b820191906000526020600020905b8154815290600101906020018083116106c257829003601f168201915b505050505081526020016001820160009054906101000a900473ffffffffffffffffffffffffffffffffffffffff1673ffffffffffffffffffffffffffffffffffffffff1673ffffffffffffffffffffffffffffffffffffffff1681526020016001820160149054906101000a900460ff16151515158152602001600282015481526020016003820154815260200160048201805461077d90611fef565b80601f01602080910402602001604051908101604052809291908181526020018280546107a990611fef565b80156107f65780601f106107cb576101008083540402835291602001916107f6565b820191906000526020600020905b8154815290600101906020018083116107d957829003601f168201915b50505050508152602001600582015481526020016006820160009054906101000a900460ff16151515158152505081526020019060010190610632565b50505050905090565b600360149054906101000a900460ff161561088c576040517f08c379a000000000000000000000000000000000000000000000000000000000815260040161088390611e17565b60405180910390fd5b600080600154815481106108c9577f4e487b7100000000000000000000000000000000000000000000000000000000600052603260045260246000fd5b9060005260206000209060070201905082156109e35760018160010160146101000a81548160ff02191690831515021790555042816003018190555060096001541461094a576040518060400160405280601981526020017f50726f63656475726520757020746f207374616e64617264730000000000000081525061094c565b815b8160040190805190602001906109639291906114e9565b506001600081548092919061097790612021565b919050555060008054905060015410156109de57426000600154815481106109c8577f4e487b7100000000000000000000000000000000000000000000000000000000600052603260045260246000fd5b9060005260206000209060070201600201819055505b610a56565b60018160060160006101000a81548160ff0219169083151502179055506001600360146101000a81548160ff02191690831515021790555042816003018190555060405180606001604052806034815260200161215e60349139816004019080519060200190610a549291906114e9565b505b505050565b6000600360009054906101000a900473ffffffffffffffffffffffffffffffffffffffff16905060008173ffffffffffffffffffffffffffffffffffffffff166344276733336040518263ffffffff1660e01b8152600401610abd9190611c93565b60206040518083038186803b158015610ad557600080fd5b505afa158015610ae9573d6000803e3d6000fd5b505050506040513d601f19601f82011682018060405250810190610b0d919061179c565b905060026003811115610b49577f4e487b7100000000000000000000000000000000000000000000000000000000600052602160045260246000fd5b816003811115610b82577f4e487b7100000000000000000000000000000000000000000000000000000000600052602160045260246000fd5b14610bc2576040517f08c379a0000000000000000000000000000000000000000000000000000000008152600401610bb990611d77565b60405180910390fd5b600360149054906101000a900460ff1615610c12576040517f08c379a0000000000000000000000000000000000000000000000000000000008152600401610c0990611e17565b60405180910390fd5b60008054905060015410610c5b576040517f08c379a0000000000000000000000000000000000000000000000000000000008152600401610c5290611e37565b60405180910390fd5b60008060015481548110610c98577f4e487b7100000000000000000000000000000000000000000000000000000000600052603260045260246000fd5b906000526020600020906007020190508060010160009054906101000a900473ffffffffffffffffffffffffffffffffffffffff1673ffffffffffffffffffffffffffffffffffffffff163373ffffffffffffffffffffffffffffffffffffffff1614610d3a576040517f08c379a0000000000000000000000000000000000000000000000000000000008152600401610d3190611d97565b60405180910390fd5b60018160060160006101000a81548160ff0219169083151502179055506001600360146101000a81548160ff02191690831515021790555060016000815480929190610d8590612021565b9190505550505050565b60008181548110610d9f57600080fd5b9060005260206000209060070201600091509050806000018054610dc290611fef565b80601f0160208091040260200160405190810160405280929190818152602001828054610dee90611fef565b8015610e3b5780601f10610e1057610100808354040283529160200191610e3b565b820191906000526020600020905b815481529060010190602001808311610e1e57829003601f168201915b5050505050908060010160009054906101000a900473ffffffffffffffffffffffffffffffffffffffff16908060010160149054906101000a900460ff1690806002015490806003015490806004018054610e9590611fef565b80601f0160208091040260200160405190810160405280929190818152602001828054610ec190611fef565b8015610f0e5780601f10610ee357610100808354040283529160200191610f0e565b820191906000526020600020905b815481529060010190602001808311610ef157829003601f168201915b5050505050908060050154908060060160009054906101000a900460ff16905088565b600360149054906101000a900460ff1615610f81576040517f08c379a0000000000000000000000000000000000000000000000000000000008152600401610f7890611e17565b60405180910390fd5b60008060015481548110610fbe577f4e487b7100000000000000000000000000000000000000000000000000000000600052603260045260246000fd5b9060005260206000209060070201905081156110c75760018160010160146101000a81548160ff0219169083151502179055504281600301819055506040518060400160405280601981526020017f50726f63656475726520757020746f207374616e6461726473000000000000008152508160040190805190602001906110479291906114e9565b506001600081548092919061105b90612021565b919050555060008054905060015410156110c257426000600154815481106110ac577f4e487b7100000000000000000000000000000000000000000000000000000000600052603260045260246000fd5b9060005260206000209060070201600201819055505b61119c565b60018160060160006101000a81548160ff0219169083151502179055506001600360146101000a81548160ff021916908315150217905550428160030181905550600180541461114c576040518060400160405280600e81526020017f53746f72616765206661696c6564000000000000000000000000000000000000815250611183565b6040518060400160405280601581526020017f526f6164207472616e73706f7274206661696c656400000000000000000000008152505b81600401908051906020019061119a9291906114e9565b505b5050565b600080805490506001541015905090565b60025481565b600360009054906101000a900473ffffffffffffffffffffffffffffffffffffffff1681565b6000600360009054906101000a900473ffffffffffffffffffffffffffffffffffffffff16905060008173ffffffffffffffffffffffffffffffffffffffff166344276733336040518263ffffffff1660e01b815260040161123f9190611c93565b60206040518083038186803b15801561125757600080fd5b505afa15801561126b573d6000803e3d6000fd5b505050506040513d601f19601f8201168201806040525081019061128f919061179c565b9050600160038111156112cb577f4e487b7100000000000000000000000000000000000000000000000000000000600052602160045260246000fd5b816003811115611304577f4e487b7100000000000000000000000000000000000000000000000000000000600052602160045260246000fd5b14611344576040517f08c379a000000000000000000000000000000000000000000000000000000000815260040161133b90611df7565b60405180910390fd5b600080805490501161138b576040517f08c379a000000000000000000000000000000000000000000000000000000000815260040161138290611db7565b60405180910390fd5b6000805b6000805490508110156114cf57600181141580156113ae575060058114155b80156113de5750600360159054906101000a900460ff1680156113dc575060068114806113db5750600781145b5b155b156114bc5784828151811061141c577f4e487b7100000000000000000000000000000000000000000000000000000000600052603260045260246000fd5b60200260200101516000828154811061145e577f4e487b7100000000000000000000000000000000000000000000000000000000600052603260045260246000fd5b906000526020600020906007020160010160006101000a81548173ffffffffffffffffffffffffffffffffffffffff021916908373ffffffffffffffffffffffffffffffffffffffff16021790555081806114b890612021565b9250505b80806114c790612021565b91505061138f565b5050505050565b600360149054906101000a900460ff1681565b8280546114f590611fef565b90600052602060002090601f016020900481019282611517576000855561155e565b82601f1061153057805160ff191683800117855561155e565b8280016001018555821561155e579182015b8281111561155d578251825591602001919060010190611542565b5b50905061156b919061156f565b5090565b5b80821115611588576000816000905550600101611570565b5090565b600061159f61159a84611ea3565b611e72565b905080838252602082019050828560208602820111156115be57600080fd5b60005b858110156115ee57816115d48882611636565b8452602084019350602083019250506001810190506115c1565b5050509392505050565b600061160b61160684611ecf565b611e72565b90508281526020810184848401111561162357600080fd5b61162e848285611fad565b509392505050565b60008135905061164581612108565b92915050565b600082601f83011261165c57600080fd5b813561166c84826020860161158c565b91505092915050565b6000813590506116848161211f565b92915050565b60008151905061169981612136565b92915050565b600082601f8301126116b057600080fd5b81356116c08482602086016115f8565b91505092915050565b6000813590506116d881612146565b92915050565b6000602082840312156116f057600080fd5b600082013567ffffffffffffffff81111561170a57600080fd5b6117168482850161164b565b91505092915050565b60006020828403121561173157600080fd5b600061173f84828501611675565b91505092915050565b6000806040838503121561175b57600080fd5b600061176985828601611675565b925050602083013567ffffffffffffffff81111561178657600080fd5b6117928582860161169f565b9150509250929050565b6000602082840312156117ae57600080fd5b60006117bc8482850161168a565b91505092915050565b6000602082840312156117d757600080fd5b600082013567ffffffffffffffff8111156117f157600080fd5b6117fd8482850161169f565b91505092915050565b60006020828403121561181857600080fd5b6000611826848285016116c9565b91505092915050565b600061183b8383611bbe565b905092915050565b61184c81611f65565b82525050565b61185b81611f65565b82525050565b600061186c82611f0f565b6118768185611f32565b93508360208202850161188885611eff565b8060005b858110156118c457848403895281516118a5858261182f565b94506118b083611f25565b925060208a0199505060018101905061188c565b50829750879550505050505092915050565b6118df81611f77565b82525050565b6118ee81611f77565b82525050565b60006118ff82611f1a565b6119098185611f43565b9350611919818560208601611fbc565b611922816120f7565b840191505092915050565b600061193882611f1a565b6119428185611f54565b9350611952818560208601611fbc565b61195b816120f7565b840191505092915050565b6000611973602783611f54565b91507f4f6e6c792073757065727669736f722063616e20706572666f726d207468697360008301527f20616374696f6e000000000000000000000000000000000000000000000000006020830152604082019050919050565b60006119d9602a83611f54565b91507f4f6e6c792061737369676e65642073757065727669736f722063616e2066616960008301527f6c207468652073746570000000000000000000000000000000000000000000006020830152604082019050919050565b6000611a3f601b83611f54565b91507f53746570732061727261792063616e6e6f7420626520656d70747900000000006000830152602082019050919050565b6000611a7f602e83611f54565b91507f4f6e6c792061737369676e65642073757065727669736f722063616e20636f6d60008301527f706c6574652074686520737465700000000000000000000000000000000000006020830152604082019050919050565b6000611ae5602283611f54565b91507f4f6e6c792061646d696e2063616e20706572666f726d2074686973206163746960008301527f6f6e0000000000000000000000000000000000000000000000000000000000006020830152604082019050919050565b6000611b4b601a83611f54565b91507f50726f636573732068617320616c7265616479206661696c65640000000000006000830152602082019050919050565b6000611b8b601f83611f54565b91507f416c6c2073746570732061726520616c726561647920636f6d706c65746564006000830152602082019050919050565b6000610100830160008301518482036000860152611bdc82826118f4565b9150506020830151611bf16020860182611843565b506040830151611c0460408601826118d6565b506060830151611c176060860182611c75565b506080830151611c2a6080860182611c75565b5060a083015184820360a0860152611c4282826118f4565b91505060c0830151611c5760c0860182611c75565b5060e0830151611c6a60e08601826118d6565b508091505092915050565b611c7e81611fa3565b82525050565b611c8d81611fa3565b82525050565b6000602082019050611ca86000830184611852565b92915050565b60006020820190508181036000830152611cc88184611861565b905092915050565b6000602082019050611ce560008301846118e5565b92915050565b6000610100820190508181036000830152611d06818b61192d565b9050611d15602083018a611852565b611d2260408301896118e5565b611d2f6060830188611c84565b611d3c6080830187611c84565b81810360a0830152611d4e818661192d565b9050611d5d60c0830185611c84565b611d6a60e08301846118e5565b9998505050505050505050565b60006020820190508181036000830152611d9081611966565b9050919050565b60006020820190508181036000830152611db0816119cc565b9050919050565b60006020820190508181036000830152611dd081611a32565b9050919050565b60006020820190508181036000830152611df081611a72565b9050919050565b60006020820190508181036000830152611e1081611ad8565b9050919050565b60006020820190508181036000830152611e3081611b3e565b9050919050565b60006020820190508181036000830152611e5081611b7e565b9050919050565b6000602082019050611e6c6000830184611c84565b92915050565b6000604051905081810181811067ffffffffffffffff82111715611e9957611e986120c8565b5b8060405250919050565b600067ffffffffffffffff821115611ebe57611ebd6120c8565b5b602082029050602081019050919050565b600067ffffffffffffffff821115611eea57611ee96120c8565b5b601f19601f8301169050602081019050919050565b6000819050602082019050919050565b600081519050919050565b600081519050919050565b6000602082019050919050565b600082825260208201905092915050565b600082825260208201905092915050565b600082825260208201905092915050565b6000611f7082611f83565b9050919050565b60008115159050919050565b600073ffffffffffffffffffffffffffffffffffffffff82169050919050565b6000819050919050565b82818337600083830152505050565b60005b83811015611fda578082015181840152602081019050611fbf565b83811115611fe9576000848401525b50505050565b6000600282049050600182168061200757607f821691505b6020821081141561201b5761201a612099565b5b50919050565b600061202c82611fa3565b91507fffffffffffffffffffffffffffffffffffffffffffffffffffffffffffffffff82141561205f5761205e61206a565b5b600182019050919050565b7f4e487b7100000000000000000000000000000000000000000000000000000000600052601160045260246000fd5b7f4e487b7100000000000000000000000000000000000000000000000000000000600052602260045260246000fd5b7f4e487b7100000000000000000000000000000000000000000000000000000000600052604160045260246000fd5b6000601f19601f8301169050919050565b61211181611f65565b811461211c57600080fd5b50565b61212881611f77565b811461213357600080fd5b50565b6004811061214357600080fd5b50565b61214f81611fa3565b811461215a57600080fd5b5056fe547275636b2773206c6f636174696f6e20696e636f686572656e7420776974682064657374696e6174696f6e2061646472657373a2646970667358221220586141134f7272004171c60809c926e0e4b93e7c9f6f9c0a4f44d02c92920b0764736f6c63430008000033a2646970667358221220504deb604370ebe1578e4c03c122db3d7300a7fc2d8d715fab9f0fbb747d761c64736f6c63430008000033",
  "immutableReferences": {},
  "source": "// SPDX-License-Identifier: MIT\npragma solidity ^0.8.0;\n\nimport \"./MilkProcess.sol\";\n\ncontract MilkProcessFactory {\n    // Enumeration to define roles\n    enum Role { None, Admin, Supervisor, Operator }\n\n    // State variables\n    address[] public processes;              // List of all processes created\n    mapping(address => Role) public roles;   // Mapping of user roles\n    address[] public users;                  // List of all users\n    uint private lotNumber = 0;              // Lot number counter\n\n    // Constructor sets the contract deployer as Admin\n    constructor() {\n        roles[msg.sender] = Role.Admin;\n        users.push(msg.sender);\n    }\n\n    // Function to create new MilkProcess contracts\n    function createNewProcess(uint quantity, bool isIntero) external onlyAdmin returns (address[] memory) {\n        address[] memory newProcesses = new address[](quantity);\n        for (uint i = 0; i < quantity; i++) {\n            lotNumber++;\n            MilkProcess newProcess = new MilkProcess(lotNumber, address(this), isIntero);\n            processes.push(address(newProcess));\n            newProcesses[i] = address(newProcess);\n        }\n        return newProcesses;\n    }\n\n    // Function to retrieve all process addresses\n    function getAllProcesses() external view returns (address[] memory) {\n        return processes;\n    }\n\n    // Function to retrieve all users and their roles\n    function getAllRoles() external view returns (string[] memory, address[] memory) {\n        string[] memory userRoles = new string[](users.length);\n        for (uint i = 0; i < users.length; i++) {\n            userRoles[i] = roleToString(roles[users[i]]);\n        }\n        return (userRoles, users);\n    }\n\n    // Helper function to convert Role enum to string\n    function roleToString(Role role) internal pure returns (string memory) {\n        if (role == Role.Admin) return \"1\";\n        if (role == Role.Supervisor) return \"2\";\n        if (role == Role.Operator) return \"3\";\n        return \"0\";\n    }\n\n    // Function to get the role of a specific account\n    function getRole(address account) external view returns (Role) {\n        return roles[account];\n    }\n\n    // Function to assign a role to an account\n    function assignRole(address account, Role role) external onlyAdmin {\n        roles[account] = role;\n        if (!isAccountInList(account)) {\n            users.push(account);\n        }\n    }\n\n    // Function to remove a role from an account\n    function removeRole(address account) external onlyAdmin {\n        require(roles[account] != Role.Admin || countAdmins() > 1, \"Cannot remove the last admin\");\n        roles[account] = Role.None;\n        removeAccountFromList(account);\n    }\n\n    // Internal function to count the number of Admins\n    function countAdmins() internal view returns (uint) {\n        uint count = 0;\n        for (uint i = 0; i < users.length; i++) {\n            if (roles[users[i]] == Role.Admin) {\n                count++;\n            }\n        }\n        return count;\n    }\n\n    // Internal function to check if an account is in the users list\n    function isAccountInList(address account) internal view returns (bool) {\n        for (uint i = 0; i < users.length; i++) {\n            if (users[i] == account) {\n                return true;\n            }\n        }\n        return false;\n    }\n\n    // Internal function to remove an account from the users list\n    function removeAccountFromList(address account) internal {\n        for (uint i = 0; i < users.length; i++) {\n            if (users[i] == account) {\n                users[i] = users[users.length - 1];\n                users.pop();\n                break;\n            }\n        }\n    }\n\n    // Modifier to restrict access to Admins only\n    modifier onlyAdmin() {\n        require(roles[msg.sender] == Role.Admin, \"Only admin can perform this action\");\n        _;\n    }\n}\n",
  "sourcePath": "/Users/leonardovincenzi/MilkChain/backend/contracts/MilkProcessFactory.sol",
  "compiler": {
    "name": "solc",
    "version": "0.8.0+commit.c7dfd78e.Emscripten.clang"
  },
  "schemaVersion": "3.4.16",
  "updatedAt": "2024-07-19T14:06:27.956Z",
  "networkType": "ethereum",
  "devdoc": {
    "kind": "dev",
    "methods": {},
    "version": 1
  },
  "userdoc": {
    "kind": "user",
    "methods": {},
    "version": 1
  }
}